:1000000000800020BD010000799D0000359D0000AA
:10001000359D0000359D0000359D0000359D000098
:10002000359D0000359D0000359D0000799D000044
:10003000799D0000359D0000459200004992000026
:10004000799D0000799D0000799D0000799D000058
:10005000799D0000799D0000799D0000799D000048
:10006000799D0000799D0000799D0000799D000038
:10007000799D0000799D0000799D0000799D000028
:10008000799D0000799D0000799D0000799D000018
:10009000E1150000799D0000799D0000799D000028
:1000A000799D0000799D0000799D0000799D0000F8
:1000B000799D0000E5870000F1870000F5870000CA
:1000C000018800000588000009880000799D000073
:1000D000799D0000799D0000799D0000799D0000C8
:1000E000799D0000799D0000799D0000799D0000B8
:1000F000799D0000799D0000799D0000ADAC000065
:10010000799D0000D5B30000799D0000799D000025
:10011000799D0000799D0000799D0000799D000087
:10012000799D0000799D0000799D0000799D000077
:10013000799D0000799D0000799D0000799D000067
:10014000799D0000799D0000799D0000799D000057
:10015000799D0000799D0000799D0000799D000047
:10016000799D0000D5B60000799D0000799D0000C2
:10017000799D0000799D0000799D0000799D000027
:10018000799D0000799D0000799D0000799D000017
:10019000799D0000799D0000799D0000799D000007
:1001A000799D0000799D0000799D0000799D0000F7
:1001B000799D0000799D0000799D0000574B4CF21D
:1001C000205210B5DA814DF62812DA8100BF00BF47
:1001D00009F0D6FD524B4FF010621A63514A9A63F0
:1001E000514ADA63514A136913F4807303D153619E
:1001F0004FF4A85313614E4B9A78110703D59A78A0
:1002000042F008029A704B4B4B482A221A704B4B13
:10021000DA1C121AC11E22F00302994288BF002282
:10022000474909F0B3FC474B4748DA1C121AC11E74
:1002300022F00302994288BF002200210DF074FED3
:10024000424943484FF4DE7209F0A0FC414B424A58
:10025000802103F8011B9342FBD14FF0E0233C4A7D
:10026000C3F8082D3D4B8A221A70A3F5805324222F
:100270005A70A0221A709A799207FCD59A79D406FE
:10028000FCD4374B9A7902F00C02082AFAD10322E7
:100290001A7140225A719A799006FCD5304A9379A6
:1002A0005906FCD51E4B2F4959640221996420211F
:1002B0001170917901F00C010C29FAD12A4A5A6087
:1002C0004FF0E023294A5A6100229A6107221A61FD
:1002D000274AC3F8202D62B609F084FE134B5B69F0
:1002E000DA0705D5234809F071FE234B234ADA616A
:1002F000234B1B785B0609D51F4C204BE2699A42C1
:1003000004D11C4809F062FE0023E36109F03EFDC0
:100310000DF000FF09F032FCFEE700BF00200540B1
:1003200000800440823F04000100002B00D0034005
:1003300000D0074000E007402087FF1F6891FF1FA3
:100340003C5A010014E2FF1F6891FF1F00000000EB
:100350000082FF1F00E400E05FE400E00050064080
:100360000040064000000301C0100500FF760100B8
:100370000000202001E0B76400E00340A5C3945AC8
:1003800000F00740FFFFFFFFFFFFFFFFFFFFFFFF42
:10039000FFFFFFFFFFFFFFFFFFFFFFFFFFFFFFFF6D
:1003A000FFFFFFFFFFFFFFFFFFFFFFFFFFFFFFFF5D
:1003B000FFFFFFFFFFFFFFFFFFFFFFFFFFFFFFFF4D
:1003C000FFFFFFFFFFFFFFFFFFFFFFFFFFFFFFFF3D
:1003D000FFFFFFFFFFFFFFFFFFFFFFFFFFFFFFFF2D
:1003E000FFFFFFFFFFFFFFFFFFFFFFFFFFFFFFFF1D
:1003F000FFFFFFFFFFFFFFFFFFFFFFFFFFFFFFFF0D
:10040000FFFFFFFFFFFFFFFFFFFFFFFFDEF9FFFF23
:100410000548064B1B1AD90F01EBA301491002D066
:10042000034B03B1184770476891FF1F6891FF1F86
:100430000000000008B5054B1BB105490548AFF3A6
:100440000080BDE80840FFF7E3BF00BF00000000E8
:100450006891FF1F3C5A010010B54022002104465C
:100460000DF062FD164904F13C0304F17C0243F8EF
:10047000041F9A42FBD14022002104F180000DF0BC
:1004800053FD002200230F490F4884F80021C4F8CF
:10049000D800C4F8C030C4F8C430C4F8C830C4F8B8
:1004A000CC30C4F8D030C4F8D410C4F8DC10C4F890
:1004B000E030A4F8E820C4F80C21204610BD00BFAD
:1004C0000000A040000048430000C8C22DE9F843E6
:1004D000DFF840900746CE1D00F1C40500F1D408B6
:1004E00016F8010F28380CF049FC494645F8040B72
:1004F00004460CF053FE40B1B7F914010CF03EFC79
:1005000021460CF087FB45F8040C4545E8D1BDE8D1
:10051000F88300BF000020C22DE9F0418046144658
:1005200006291AD8DFE811F0070053008100AF0058
:10053000DF000F013F00617A237AA27A03EB0123E7
:1005400003EB0243E27A03EB0263C0F80C31627BF7
:10055000237B03EB0223C0F80831934FA8F1040476
:1005600008F13C06606C54F8045F29460CF016FE56
:10057000034628462BB1D8F8E4100CF005FE00B174
:100580002564D4F8801028460CF008FE034639464E
:10059000284623B10CF002FE08B1C4F88050B442E2
:1005A000E0D1BDE8F081D0F80821002AD5D1002B98
:1005B000D3D1637A207A03F03F0300EB03200CF0E1
:1005C000DDFB7A490CF0E2FCC8F83C00C5E7D0F846
:1005D0000821002AC1D1002BBFD1637A207A03F011
:1005E0003F0300EB03200CF0C9FB70490CF0CEFC7C
:1005F000C8F80000E37AA07A03F03F0300EB032081
:100600000CF0BCFB69490CF0C1FCC8F80400637B2A
:10061000207B03F03F0300EB03200CF0AFFB6349AA
:100620000CF0B4FCC8F8080097E7D0F80821002ABD
:1006300093D1002B91D1637A207A03F03F0300EB32
:1006400003200CF09BFB59490CF0A0FCC8F80C00EF
:10065000E37AA07A03F03F0300EB03200CF08EFB5B
:1006600052490CF093FCC8F81000637B207B03F028
:100670003F0300EB03200CF081FB4C490CF086FC9F
:10068000C8F8140069E7D0F80821002A7FF465AFA4
:10069000002B7FF462AF637A207A03F03F0300EB14
:1006A00003200CF06BFB41490CF070FCC8F81800FB
:1006B000E37AA07A03F03F0300EB03200CF05EFB2B
:1006C0003A490CF063FCC8F81C00637B207B03F004
:1006D0003F0300EB03200CF051FB34490CF056FCB7
:1006E000C8F8200039E7D0F80821002A7FF435AF98
:1006F000002B7FF432AF637A207A03F03F0300EBE4
:1007000003200CF03BFB29490CF040FCC8F8240006
:10071000E37AA07A03F03F0300EB03200CF02EFBFA
:1007200022490CF033FCC8F82800637B207B03F0DF
:100730003F0300EB03200CF021FB1C490CF026FCCE
:10074000C8F82C0009E7D0F80821002A7FF405AF8B
:10075000002B7FF402AF637A207A03F03F0300EBB3
:1007600003200CF00BFB11490CF010FCC8F8300012
:10077000E37AA07A03F03F0300EB03200CF0FEFACB
:100780000A490CF003FCC8F83400637B207B03F0BB
:100790003F0300EB03200CF0F1FA04490CF0F6FBE8
:1007A000C8F83800D9E600BF0000A04000007A4435
:1007B00090F8F000704700BF90F8EC00704700BF61
:1007C00090F8F400704700BF90F8F800704700BF41
:1007D000102994BF50F82100002070472DE9F04106
:1007E0000C4E8046051F00F12C0755F8044F31468A
:1007F00020460CF0B5FC034620462BB1D8F8E41097
:100800000CF0CCFC00B12646BD42EED13046BDE82E
:10081000F08100BF000020412DE9F843D0F8E480CA
:100820000F4F4FF00009051F00F13C0655F8044F2B
:10083000414620460CF0B2FC0346394620464BB1F7
:100840000CF08EFC0346494620461BB10CF0A6FC7A
:1008500000B1A146B542E9D14846BDE8F88300BFE2
:100860000000A0402DE9F84FD0F8E490144F8346E3
:100870000026051F00F13C084FF0000A55F8044F10
:10088000494620460CF08AFC0346394620464BB1C7
:100890000CF066FC30B1304621460CF0BBF90AF191
:1008A000010A06464545E9D1CBF804A150460CF0B3
:1008B00065FA014630460CF069FBBDE8F88F00BFD1
:1008C0000000A040D0F80401704700BFD0F8080134
:1008D000704700BF38B5D0F8C850D0F8C44029469A
:1008E00020460CF03DFC00B92C46204638BD00BF28
:1008F00038B5D0F8C850D0F8C440294620460CF08E
:100900004DFC00B92C46204638BD00BF70B5D0F86C
:10091000C4601249054630460CF040FCD0B1304668
:1009200000210CF077F901240646D5F8C8500B4990
:1009300028460CF033FC28B1304629460CF06AF901
:100940000134064620460CF019FA014630460CF0F8
:100950001DFB70BD04460026E7E700BF000020C273
:100960002DE9F0470026D0F8E490104FC0F8C060A1
:100970008246051F00F13C0855F8044F49462046C1
:100980000CF00CFC03463946204653B10CF0E8FB52
:1009900003462146304623B10CF03CF90646CAF81E
:1009A000C0004545E8D13046BDE8F0870000A040D2
:1009B00003299ABF00EB8100D0F8C40000207047E3
:1009C0003E2998BF80F80011704700BFD0F80C0195
:1009D000704700BF90F8E800704700BF90F8E9004A
:1009E000704700BFC0F8FC10704700BF80F8E810E7
:1009F000704700BF80F8E910704700BFC0F8E410EE
:100A0000704700BFA0F81411704700BF70B500F523
:100A10008A45064600F12C041435204604F58C74F2
:100A2000FFF71AFDAC42F8D106F5A275012428465D
:100A30000021FFF7DBFF214628460134FFF7C0FF06
:100A40003F2C05F58C75F2D10749716106F580439D
:100A50000022B26105480649F06100223162304649
:100A600083F81C2570BD00BF00007A440000484395
:100A70000000C8C270B500F58A4600F5A2741436AD
:100A8000002508E001252046002104F58C74FFF7BD
:100A9000B1FFB4420BD02046FFF79CFF034620462F
:100AA000002BF0D0FFF79AFF0028EBD170BD28464D
:100AB00070BD00BF70B500F5B05600F5A2740C36DD
:100AC00003E004F58C74B4420CD02046FFF782FF9B
:100AD00005460028F5D02046FFF778FFC307F0D57C
:100AE000284670BD0025284670BD00BFF8B500F54A
:100AF0008047002300F58A46C7F8203500F5A27428
:100B0000143603E004F58C74B44210D02046FFF78D
:100B100061FF0028F6D02046D7F82055FFF7D2FE17
:100B200004F58C740544B442C7F82055EED1D7F8CB
:100B30002005F8BD00F58040D0F81805704700BFCB
:100B400038B50C68154604F00F0C1A464FF48C7338
:100B50000CFB03332C3318440CF10104FFF7B6FCF3
:100B6000012D00D038BD064808F030FD214604486C
:100B700008F024FDBDE8384002480B210BF072BAA2
:100B8000FC89FF1F4C3B0100F0B50C6804F0F00538
:100B9000402D04F00F0483B00E46074604F1010413
:100BA0004AD025DC202D4CD0302D1BD10D2C4FF000
:100BB000020501D8012A28D04FF48C7303FB04747A
:100BC0002C3420460121FFF711FF20460121FFF7B9
:100BD00011FF3B7832462946204603B0BDE8F0407D
:100BE000FFF79ABC7DBB0D2CE6D8012AE4D10CE0BE
:100BF000602D1CD0702D01D10625F4E7502DDBD1DE
:100C00000D2C4FF00405D5D9D6E7214610480192A6
:100C100008F0D4FC019A0F4811460BF023FA29463C
:100C20000B4808F0CBFC0A4808F0D0FCC4E70D2CB8
:100C30004FF00505BED9BFE70D2C4FF00305B9D91C
:100C4000BAE70125CFE70D2CB6D8062DB2DDB3E704
:100C5000FC89FF1F583B01002DE9F04F0023DFF80E
:100C60006491DFF86481594F436083B0064600F514
:100C7000A274012504E001353F2D04F58C7468D081
:100C80002046FFF7A7FE0028F5D0484607F042F8B7
:100C90002946404607F03EF82046FFF761FE0BF07C
:100CA0009DFE02460B46384607F034F82046FFF713
:100CB00095FD82462046FFF7AFFD834650460BF078
:100CC0008DFE0246584692468B460BF087FE5B46E9
:100CD0005246CDE900013E4807F01CF800212046AD
:100CE000FFF766FE012182462046FFF761FE83463C
:100CF00050460BF073FE0246584692468B460BF068
:100D00006DFE5246CDE900015B46324807F002F81D
:100D10002046FFF725FE014670680BF07BFF7060F0
:100D20002046FFF7D7FDF1690CF01AFA002833D1FD
:100D30002046FFF7DDFD316A0CF030FA00289AD02A
:100D40002046FFF7D5FD01353F2D306204F58C7448
:100D500096D1B0680CF012F8014670680CF016F9E4
:100D6000B169706004460CF019FA00B1B4617169A0
:100D700020460CF0F5F900B174610B2009F026FB58
:100D800006F5804696F81C3558B9B3B1012386F8AC
:100D90001C3503B0BDE8F08F2046FFF79BFDF061E6
:100DA000C6E72BB9002386F81C3503B0BDE8F08FE9
:100DB000094806F0C1FF0023F5E7084806F0D0FF18
:100DC000E4E700BF284201005C3B0100983B0100C2
:100DD000AC3B0100D83B01002C3C0100F43B01007E
:100DE00070B5124BC36000F58A45064600F5A27443
:100DF000143503E004F58C74AC4214D02046FFF7A0
:100E0000E9FD0028F6D02046FFF7E8FCF1680CF079
:100E1000A7F90028EED02046FFF7E0FC04F58C741B
:100E2000AC42F060EAD1F06870BD00BF0000A040A5
:100E300070B5002300F58A450646036100F5A274EB
:100E4000143503E004F58C74AC4214D02046FFF74F
:100E5000C1FD0028F6D02046FFF7DEFC31690CF01A
:100E60009DF90028EED02046FFF7D6FC04F58C74DF
:100E7000AC423061EAD1306970BD00BF4068704754
:100E800001707047816070472DE9F04100F58A4597
:100E90008846174600F5A27414351EB203E004F527
:100EA0008C74AC4214D02046FFF794FD0028F6D095
:100EB00020464146FFF796FD20463946FFF79EFD46
:100EC0002046314604F58C74FFF79CFDAC42EAD114
:100ED000BDE8F0812DE9F04700F580462E4A2F4B02
:100EE0008262002700F58A454362DFF8B4A0C6F8A5
:100EF0001875814600F5A27414354FF0000803E020
:100F000004F58C74A54216D02046FFF763FD002837
:100F1000F6D0D6F8183501332046C6F81835FFF755
:100F2000F5FC51460CF03AF980B904F58C74A542F1
:100F300007F10107E8D1D6F81805C01B0BF01EFF1A
:100F4000014640460CF022F8BDE8F0872046FFF746
:100F5000DDFC014640460BF05DFE80462046FFF773
:100F6000C7FCD9F824100CF019F970B92046FFF726
:100F7000B1FCD9F828100CF0F3F80028C0D02046B6
:100F8000FFF7A8FCC9F82800BAE72046FFF7B0FC35
:100F9000C9F82400EAE700BF00C0794400C079C462
:100FA00000008CC2406A7047806A7047F8B500F54F
:100FB0008A460746002500F5A274143603E004F5BE
:100FC0008C74B44210D02046FFF704FD0028F6D000
:100FD0002046FFF747FC014628460BF01BFE04F5B0
:100FE0008C74B4420546EED107F58047D7F8180552
:100FF0000BF0C4FE014628460BF0C8FFF8BD00BF49
:101000002DE9F04F93B08046AC480D9108F580472C
:1010100006F026FEA94806F023FE08F58A44A748F4
:1010200006F01EFE08F5A275D7F818250C920023CD
:101030001434C7F820352E46A14603E006F58C7619
:101040004E4510D03046FFF7C5FC0028F6D030469C
:10105000D7F82045FFF736FC06F58C7620444E4540
:10106000C7F82005EED1D8F804000BF0B7FC4C46C9
:10107000CDE90E01D7F820B5D8F808A00026A9467A
:1010800003E009F58C79A14510D04846FFF7A2FC92
:101090000028F6D04846FFF7E5FB014630460BF046
:1010A000B9FD09F58C79A1450646EED1D7F81805AA
:1010B0000BF064FE014630460BF068FF0BF08EFC2F
:1010C00002460B464046CDE91023D8F80C40D8F82C
:1010D0001060FFF7FFFE0BF081FCCDE90A0121460D
:1010E00030460BF095FD76490BF09CFE0BF076FC3C
:1010F000CDE9080130460BF071FCCDE90601204630
:101100000BF06CFCDDE91023CDE90223DDE90E34A0
:10111000CDE90401CDE900340C996A486A4E534682
:101120005A4606F09DFD654806F09AFD00234FF0F3
:1011300001080C9307E008F10108B8F13F0F05F52D
:101140008C7500F0B3802846FFF744FC0028F2D0ED
:101150002846FFF72DFB2846FFF72EFB2846FFF712
:101160002FFB2846FFF730FB082158480AF07AFF8A
:101170004146304608F022FAB8F1090F40F3998051
:1011800002215348DFF84CA10AF06CFF2846FFF714
:10119000E7FB0BF023FC9DF83490CDF800900B4654
:1011A0000246304608F034FA4B4801210AF05AFF53
:1011B0002B46DDF830B04D46002499461FE006214D
:1011C00046480AF04FFF5946304608F0F7F9022129
:1011D00043480AF047FF21464846FFF7F9FA0BF06B
:1011E000FDFB009502460B46304608F011FA01342B
:1011F000394801210AF036FF102C0AD0BB46BBF15A
:10120000090F0BF10107DADC012150460AF02AFF31
:10121000D5E7304608F0DAF9092132480AF022FF12
:1012200000214846FFF7C4FB0BF0D8FB022702461B
:101230000B460097304608F0EBF90A212A480AF0DD
:1012400011FF01214846FFF7B3FB0BF0C7FB0097E6
:1012500002460B46304608F0DBF90C2123480AF021
:1012600001FF4846FFF7B2FB002322460146304605
:1012700008F0C4F908211E480AF0F4FE4846FFF7BA
:1012800025FB002301462246304608F0B7F90C9BA7
:101290003046103308F101084D460C9308F096F9DA
:1012A000B8F13F0F05F58C757FF44DAF13B0BDE875
:1012B000F08F012107480AF0D5FE61E728420100BE
:1012C00000007A44DC3E0100FC89FF1F7C3F0100E6
:1012D000C0430100FC3F0100883F01008C3F01003A
:1012E000EC3F0100943F0100A03F0100AC3F010032
:1012F000BC3F01002DE9F04F87B000F5A275DFF883
:101300002492DFF824A20391049298462E460127E6
:101310000595934604E001373F2F06F58C7675D08E
:101320003046FFF757FB0028F5D000230A22039927
:10133000484608F063F9012150460AF093FE5846EA
:101340000BF04CFB0B46002102460091484608F08A
:101350005FF9012150460AF085FE4146484608F0F3
:101360002DF9012150460AF07DFE3946484608F025
:1013700025F9012150460AF075FE00240225214678
:101380003046FFF725FA0BF029FB009502460B4685
:10139000484608F03DF90134012150460AF062FE4A
:1013A000082CECD100213046FFF702FB0BF016FBB6
:1013B000009502460B46484608F02AF9012150469E
:1013C0000AF050FE01213046FFF7F2FA0BF006FB5F
:1013D000009502460B46484608F01AF9012150468E
:1013E0000AF040FE02213046FFF7E2FA0BF0F6FA6F
:1013F000009502460B46484608F00AF90137484670
:1014000008F0E4F83F2F06F58C7689D1059D474F0B
:10141000DFF8149101264FF0000B04E001363F2E57
:1014200005F58C757AD02846FFF7D4FA0028F5D058
:1014300000230A220399384608F0E0F801214846C3
:1014400009F0E4FA04980BF0C9FACDF800B00246AE
:101450000B46384608F0DCF80121484609F0D6FA78
:101460004146384608F0AAF80121484609F0CEFA6C
:101470003146384608F0A2F80121484609F0C6FA7C
:1014800000244FF0020A21462846FFF7A1F90BF08D
:10149000A5FACDF800A002460B46384608F0B8F889
:1014A00001340121484609F0B1FA082CEBD10021A2
:1014B0002846FFF77DFA0BF091FACDF800A002461E
:1014C0000B46384608F0A4F80121484609F09EFA78
:1014D00001212846FFF76CFA0BF080FACDF800A046
:1014E00002460B46384608F093F80121484609F0B9
:1014F0008DFA02212846FFF75BFA0BF06FFACDF860
:1015000000A002460B46384608F082F801363846FD
:1015100008F05CF83F2E05F58C7584D107B0BDE866
:10152000F08F00BFFC89FF1F583B0100BC88FF1FE4
:1015300070B5132008F04AFF58B9114C08F090FF1D
:101540002268104B801A80B2188008F089FF206052
:1015500070BD0C4D0A4B2C881E6808F081FFA4B2A8
:101560003444201A2A880849C0EB00139B0092B229
:10157000A3F63403B3FBF2F39BB20B8070BD00BF44
:10158000B8D9FF1FB0D8FF1FCC91FF1FDDF800C0F6
:10159000521AACEB030C1CD0401ABCF1000F0CFB30
:1015A00000F002EBD27109DB00EB610000FB02F1FD
:1015B000002990FBF2F0184410DB7047A0EB6100AB
:1015C00000FB02F1002990FBF2F01844F5DB01303A
:1015D00070470CEBDC7C03EB6C0070470138704704
:1015E0000B4B10B54FF47A701C7808F009FA84425E
:1015F00004D021464FF47A7008F01CFA054B5A7853
:1016000042F040025A701A7842F040021A7010BD3F
:101610002488FF1F00D0074038B5044649B108466A
:101620000D460CF0ADFD236802465B682946204656
:1016300098472046BDE8384007F0C8BF2DE9F0477D
:101640004B484C4E4C4CDFF834814D4F06F008FBB4
:101650004C4B4D491962596159644C49D9624C4906
:101660001963002199634FF4FA7199864949D96346
:10167000494919644FF07C51D96448491965484972
:1016800059654849596040F2012119810C21996539
:10169000454959624FF496715966196740F61C41E5
:1016A00059671E610A21414E99679E6141F204010A
:1016B0003F4EDC6000220120642540F21124D967EE
:1016C0009E6232213B4E1C804FF05A094FF0960A21
:1016D00083F84820D865D966DE611D66A3F868A046
:1016E000C3F88090C3F89810C3F8B810FF21022403
:1016F000C3F88420C3F88C00C3F8C000C3F890205E
:1017000040F20110C3F8B420C3F8BC1083F8D6200F
:101710004FF47A71A3F8D82044F62062DFF898E0FD
:10172000264EDFF89CC0C3F88840C3F8C440A3F835
:10173000D40041F288343C20C3F89C10C3F8A820A0
:101740005521F022C3F8A080C3F8A4E0C3F8AC7020
:10175000C3F8C850C3F8CC60C3F8D0C0C3F89440F5
:10176000A3F8B000C3F8DC10C3F8E020BDE8F087B0
:10177000C83F0100000040406666864000006842A5
:10178000D606D606C0D9FF1FCDCC4C3E0000824203
:10179000000020C1000020420000A0409A9979403A
:1017A0000AD7233D20A107003333734033338340EE
:1017B000CDCCCC3DCDCC4C4000C02044881305009E
:1017C0009A99993E70B5454D454C4648E6680023C8
:1017D0002B70FFF72DFB014630460BF0C1FC08B122
:1017E00004232B703F48FFF7FBFA21690BF0B8FC8C
:1017F00018B12B7843F010032B703A48FFF7D2FB57
:10180000E16A0BF0CBFC18B12B7843F040032B704E
:10181000002334486B70FFF7C7FB216B0BF0A0FC73
:1018200008B101236B700023EB702E48FFF700FB1B
:1018300006462C48FFF7D4FA014630460BF0E8F98B
:10184000616C0BF0ABFC08B10123EB70264D254811
:1018500000232B70FFF7ECFAA16A0646E0680BF054
:10186000D7F9014630460BF099FC08B104232B70E0
:101870001C48FFF7B5FAA16A064620690BF0CAF9C1
:10188000014630460BF06CFC18B12B7843F0100386
:101890002B701448FFF786FB216C0646E06A0BF0BC
:1018A000B7F9014630460BF079FC18B12B7843F0BC
:1018B00040032B7000236B700A48FFF775FB216C07
:1018C0000346206B1C460BF0A5F9014620460BF0A1
:1018D00047FC08B101236B7070BD00BFD491FF1F9E
:1018E000C0D9FF1FE891FF1FBCDAFF1F534B1B68D5
:1018F000002B7CD0F0B5524E30680530B0F57A7FC1
:1019000083B070DC30600BF039FA4E490BF08AFA84
:1019100007464D4DD5F8B8000BF030FA0446D5F81F
:10192000BC000BF02BFA21460BF072F939460BF094
:1019300079FA46490BF02AFB21460BF06BF90BF0C4
:1019400037FC0146062008F09FFB022140480AF0C0
:1019500089FB404807F03AFE06213F480AF082FB27
:1019600030680BF00BFA37490BF05CFA0BF036F8E5
:10197000022702460B460097364807F049FE0D2124
:1019800036480AF06FFBD5F8B8000BF0F7F90446BB
:1019900030680BF0F3F92B490BF044FA0346D5F805
:1019A000BC001D460BF0EAF921460BF031F9014667
:1019B00028460BF037FA25490BF0E8FA21460BF0E0
:1019C00029F90BF00BF8009702460B46214807F067
:1019D0001FFE39461E480AF045FB1E4803B0BDE80D
:1019E000F04007F0F3BD00230027336091E7164B6A
:1019F0001B48D3F8B810D3F8BC2003681948521A12
:101A0000002A02FB03F30BDB323380FB0320DA17DF
:101A1000C2EB6012002B11440DDB062008F034BB32
:101A2000323B80FB0320DA17C2EB6012002B11441B
:101A3000F3DB0131F1E70139EFE700BFBCD8FF1F4D
:101A4000C091FF1FCDCCCC3DC0D9FF1F0000C842C4
:101A5000C0430100FC89FF1FE83F0100F03F010087
:101A60002488FF1F1F85EB5130B5A748A74C85B0D0
:101A700007F0ACFDA44807F0A9FDA34807F0A6FDB8
:101A8000A3480D210AF0EEFAD4F8B430012B11D09E
:101A9000A04D9D48297800230A2207F0AFFD2B783E
:101AA000052B4FD8DFE813F0C401C901CE01BA01FC
:101AB000BF01B501092198480AF0D4FA9748FFF709
:101AC0008FF921690BF04CFB002840F0DE81934830
:101AD000FFF7AEF9E1680BF061FB002840F0E98107
:101AE0008E48FFF7A5F905468C48FFF779F90146BE
:101AF00028460BF08DF8616C0BF050FB002840F08D
:101B0000D3818648FFF7E6F9E16A0BF047FB00282E
:101B100040F0C5818148FFF7DDF9216B0BF020FB18
:101B2000002840F0B7817E4B7C481B68012B00F0F9
:101B3000A081FFF755F921690BF030FB002840F038
:101B40008681744D774802210AF08CFA122008F041
:101B50003DFC012800F00A81112008F037FC012823
:101B600000F00E81704B1C68012C00F012810221E4
:101B70006C486E4C0AF076FA6D4B6348196807F0B2
:101B80001DFD614807F022FD04216A480AF06AFA47
:101B90000B2008F01BFC002301460A225A4807F0DC
:101BA0002DFD0C2008F012FC002301460A225648A5
:101BB00007F024FD142008F009FC002301460A2246
:101BC000514807F01BFD152008F000FC0A220146D1
:101BD00000234D4807F012FD062157480AF042FA4B
:101BE0002368D8074BBF01210121544854480AF00B
:101BF00039FA236899074BBF012101214F4850480A
:101C00000AF030FA23685A074BBF012101214B48E3
:101C10004B480AF027FA23681B074BBF012101211B
:101C2000464847480AF01EFA042146480AF01AFAC4
:101C3000112008F0CBFB002301460A22324807F0AE
:101C4000DDFC102008F0C2FB002301460A222E48CA
:101C500007F0D4FC122008F0B9FB002301460A2249
:101C6000294807F0CBFC132008F0B0FB0A220146FC
:101C70000023254807F0C2FC182133480AF0F2F986
:101C8000324B18880BF07AF831490BF0CBF80AF098
:101C9000A5FE002402460B4600941B4807F0B8FC42
:101CA0001D212C480AF0DEF92B4B18680BF066F862
:101CB00027490BF0B7F80AF091FE00940B46024654
:101CC0001148264C07F0A4FC254802210AF0CAF965
:101CD0002B78032B02D023889BB29BB1172121487C
:101CE0000AF0C0F92188084889B207F067FC1C484F
:101CF00002210AF0B7F92B78032B03D11A4B1B787A
:101D0000002B68D105B030BDFC89FF1FC0D9FF1F73
:101D1000004001000CD7FF1F10400100E891FF1F99
:101D2000A4DAFF1FC0430100DC91FF1F94D7FF1FFF
:101D300014D7FF1F0C410100144101001C41010098
:101D400020410100244101002C41010018D7FF1F50
:101D5000CDCCCC3D48410100ACD8FF1FCC91FF1F3A
:101D6000684101006C4101008491FF1F0E215A4817
:101D70000AF078F9112008F029FB01287FF4F2AE6F
:101D800056480A210AF06EF9554B1C68012C7FF465
:101D9000EEAE112153480AF065F9214652480AF087
:101DA00061F9524A524B126803921868039BC01A99
:101DB0000AF0E0FF4F490BF035F80AF00FFE0B4632
:101DC0000021024600914C4807F022FC214646487B
:101DD0000AF048F9CBE60B2148480AF043F9484B92
:101DE0004548198889B207F0E9FB112145480AF0F6
:101DF00039F9454B4048198807F0E0FB434B1B7805
:101E0000002B65D14248192105B0BDE830400AF0E9
:101E100029B907213F480AF025F993E608213E48F1
:101E20000AF020F98EE60B213C480AF01BF989E6FE
:101E300006213B480AF016F984E6072139480AF0E2
:101E400011F97FE6072138480AF00CF97AE637489D
:101E5000374DFEF7EDFFE1680BF082F900283FF403
:101E600071AE2B78052B0BD10A2132480AF0FAF813
:101E700068E6FEF7B5FF616A0BF090F9F0B92C4DFA
:101E80002D4808210AF0EEF85CE60F212B480AF0F5
:101E9000E9F81CE60D212A480AF0E4F843E60C2193
:101EA00028480AF0DFF835E6112127480AF0DAF869
:101EB00027E60E2125480AF0D5F811E61621244818
:101EC0001B4D0AF0CFF81B480A210AF0CBF839E67F
:101ED00020481D2198E700BFD8400100E8400100DC
:101EE000DC91FF1FF440010008410100C8DCFF1F26
:101EF000E491FF1F6F12833AFC89FF1F84410100A8
:101F0000B0D8FF1F9041010024D7FF1F1AD7FF1F31
:101F1000A4410100D0400100C4400100B0400100D4
:101F2000A0400100A8400100BC400100E891FF1F53
:101F30000CD7FF1F88400100944001001C400100A5
:101F400060400100504001003C4001002C40010075
:101F500070400100C04101002DE9F047B54CD4F8B4
:101F60008860012E8CB000F04581032E5DD0DFF833
:101F7000C882B24FB24ED4F88430B248012B09BFA8
:101F80003168316801F10041316007F0C3F83B6806
:101F9000002B40F01581AB4807F090F83B68C8F87B
:101FA00000000546002B40F0FB80D4F88830012B60
:101FB00000F0BA80A44928460BF0F0F830B9A349E4
:101FC00028460BF0CDF8002800F0DF81DFF880A272
:101FD000DFF88092DAF800300A930A98D9F80030D6
:101FE0009D4FC01A0AF0C6FE29460AF01BFF9B4906
:101FF0000AF0CCFF99490AF0C9FF39680AF00AFED5
:10200000DAF800300993099B3860C9F80030D4F839
:10201000C0000AF0B3FE29460AF004FF0023C8F806
:10202000000033600CB0BDE8F0878D4D8D4F2A68FD
:10203000DFF80482D2F8840001230F213B6006F010
:1020400027FF3B687D4F012B3B6800F02B81002B65
:1020500040F0AE812B68DFF81092D3F88400436B18
:102060001E69B6B2C9F8006006F05AFCB4F8AE209A
:1020700040F6E44306FB03F3B3FBF0F0801A00B232
:102080000AF07CFE79490646D4F8A0000AF0CAFEA0
:10209000014630460AF07AFFD9F80030684E632BCB
:1020A000306000F37981002333603B68002B3FF4FC
:1020B00062AF02216E4809F0D5FF2B68D9F80050B5
:1020C000D3F8840040F6E44303FB05F506F028FC52
:1020D000B5FBF0F00AF04EFE0546B4F8AE000AF08B
:1020E0004DFE014628460AF093FD0AF077FC0225D2
:1020F00002460B4600955F4807F08AFA29465C487D
:1021000009F0B0FF30680AF069FC009502460B4602
:10211000584807F07DFA2946574809F0A3FF294699
:10212000534809F09FFF26E74E4B1B68012B00F038
:102130007481022B7FF46BAFD4F8A87038460AF094
:102140001DFE29460BF00CF840B978420AF016FE45
:1021500029460BF023F8002800F0CD81DFF8F0A02D
:10216000DFF8F090DAF8003007930798D9F80030DC
:10217000394FC01A0AF0FEFD29460AF053FE3749CE
:102180000AF004FF35490AF001FF39680AF042FD00
:10219000DAF800300693069B3860C9F8003036E75D
:1021A0000AF01CFC0B46022102460091314807F060
:1021B0002FFA3248042109F055FFD8F80050F4E610
:1021C000204806F07BFF0AF009FC0B46022102467C
:1021D0000091284807F01CFA0321294809F042FF22
:1021E000D4F8A810234807F0E9F90321244809F09E
:1021F00039FFD0E6DFF84080D4F8A870D8F8005056
:1022000038460AF0BBFD29460AF0C8FF002839D03D
:1022100078420AF0B3FD014628460AF0BFFF88B3B2
:102220000F4D104F2B683E60D3F884000F2106F04D
:102230002FFE06E7C0D9FF1FA4D8FF1FA8D8FF1F95
:10224000B091FF1FECD8FF1F0000FA430000FAC353
:10225000C8DCFF1FE0D8FF1FD891FF1F00007A44A1
:10226000D091FF1F7488FF1FB0DAFF1F9175DD3614
:10227000C0430100FC89FF1F1C42010024420100F1
:10228000204201009F4FA04D02233B602B680E218E
:10229000D3F8840006F0FCFD3B689C4F012B3B68A3
:1022A0007FF4D5AE002B40F0E5802B68DFF860921C
:1022B000D3F88400436B1E69B6B2C9F8006006F01B
:1022C0002FFBB4F8AC3040F6E44A0AFB06F6B6FB46
:1022D000F0F6F01A00B20AF051FD8E490646D4F825
:1022E000A4000AF09FFD014630460AF04FFE2B681D
:1022F000894E0246D3F88400D9F8003032600AFBD8
:1023000003FA06F00DFBB4F8AC20BAFBF0F31BB2F5
:102310009B1A002BB4F8CE20B8BF5B429A42C4BFD0
:10232000002333603B68002B3FF425AE02217B483D
:1023300009F098FE2B68D9F80050D3F8840040F6D5
:10234000E44303FB05F506F0EBFAB4F8AC10B5FB7B
:10235000F0F52DB2691A724807F030F902216F4882
:1023600009F080FE30680AF039FB022502460B4670
:1023700000956B4807F04CF903216A4809F072FE9A
:102380002946664809F06EFEF5E5674B1B680B931E
:10239000664B0B9A1A603AE62B68D3F8840006F075
:1023A000BFFAD9F8003064389842FFF47CAE7CE67E
:1023B0005B48DFF85C9107F009F90C215C4809F0F3
:1023C00051FE5C480C2109F04DFE2B683A68D3F8A9
:1023D0008400436B1E69B6B2C9F80060002A3FF45E
:1023E00043AE06F09DFA40F6E442002306FB02F2FB
:1023F000B2FBF0F10A224A4807F000F902214748EF
:1024000009F030FEB4F8AE10454807F0D7F82B6855
:10241000D9F80060D3F8840026E6474928460AF038
:10242000BDFE28B9454928460AF09AFE00285BD02F
:10243000DFF8F4A0DFF8F490DAF8003004930498A1
:10244000D9F800303E4FC01A0AF094FC29460AF031
:10245000E9FC3C490AF09AFD3A490AF097FD3968CF
:102460000AF0D8FBDAF800300393039B3860C9F810
:102470000030CCE52A48DFF8989007F0A7F8D4F8A8
:102480008830012B0CBF304830480B2109F0EAFDA1
:1024900028480C2109F0E6FD2A683B68D2F8840040
:1024A000426B1669B6B2C9F80060002B3FF407AF63
:1024B00006F036FA40F6E44306FB03F30A22B3FBC8
:1024C000F0F10023164807F099F80121204809F09F
:1024D000C9FDB4F8AC10124807F070F82B68D9F8B1
:1024E0000060D3F88400EAE60F4B1B6805930F4B9E
:1024F000059A1A608BE50C4B1B6808930B4B089AE6
:102500001A6084E57488FF1FD091FF1FA8D8FF1FB1
:10251000B0DAFF1F9175DD36B091FF1FC043010097
:10252000FC89FF1F08420100C8DCFF1FE0D8FF1F25
:102530000C420100F84101000000FA430000FAC318
:10254000D891FF1F00007A44E0410100EC410100F6
:10255000FC3F01002DE9F04FAB4DAC4C2B68012B3B
:1025600087B000F00C81AA4EAA4FDFF8AC92D9F8E0
:102570000030002B00F0A780D4F860B0E56DDFF8E4
:102580009C82A74938680AF04DFC05FB0BF5814693
:102590004FF47A7005FB00F00AF0F0FB0146484664
:1025A0000AF0F4FC9F490AF03DFC0AF001FED4F861
:1025B00090303060012B054656D0D4F88830002B7F
:1025C00052D0632D74DDE36D206E03FB00F04FF4F9
:1025D0007A7303FB00F00AF0D1FB91490AF0D6FCB4
:1025E00064233360D8F800303860002B68D0D4F80A
:1025F0008830012B00F0EB80032B00F0F680022BDB
:1026000000F0FC800221884809F02CFD874B1868F7
:102610000AF0E4F9022402460B460094844806F0CE
:10262000F7FF2146834809F01DFD21467E4809F049
:1026300019FD31687E4806F0C1FF06217E4809F089
:1026400011FD386876490AF0EDFB0AF0C7F90094ED
:1026500002460B46764806F0DBFF7848032107B0B8
:10266000BDE8F04F09F0FEBC7548FEF7B9FB7549AF
:102670000AF0D8FB0AF0C2FDD4F88050E26F616F17
:10268000A36F009580B2FEF781FF05463060206E93
:10269000E36D05FB00F003FB00F000EB8000400061
:1026A0000AF06CFB5E490AF071FC632D38608ADC2D
:1026B000002DBCBF00233360D8F80030002B96D12A
:1026C00007B0BDE8F08FDFF880A1DAF80030002B0A
:1026D00037D0D4F860B0E56DDFF84081012B7FF48E
:1026E00050AF306800FB0BF005FB00F000EB800002
:1026F000564D40000AF042FB49490AF047FC2B685E
:102700000493049A386042F228339A4200F2E78038
:102710002B680593059A42F210739A420DD9D8F8A6
:1027200000300122C9F80020002B40F0E180D4F8ED
:10273000B430012B04BF464A1370D4F860B0E56D85
:102740001FE7424D2A680292029A42F228339A42C7
:1027500000F2BC802B680393039A42F210739A42F2
:1027600000F28280D9F80030D4F860B0E56DDFF86F
:10277000AC80002B7FF405AFDAF80030AEE73048CC
:10278000FEF72EFB2F49E66FA76F0AF04BFB0AF00E
:1027900035FD3246D4F88060616F00963B4680B2CA
:1027A000FEF7F4FE1A4E236E306003FB00F0E36D7B
:1027B000184F03FB00F000EB800040000AF0DEFA47
:1027C00017490AF0E3FB002338602B60CDE6214B6C
:1027D0001B68012B0CBF204820480A2109F042FC4D
:1027E000D4F88830032B7FF40AAF1D48102109F07C
:1027F00039FCD4F88830022B7FF404AF0721194844
:1028000009F030FCFEE600BFB891FF1FC0D9FF1FE2
:102810002488FF1FD891FF1FBC91FF1F4888FF1F0E
:10282000E4388E3E0000C842C0430100A4D8FF1F18
:10283000FC89FF1F1C420100BC420100C442010090
:10284000E891FF1F00007A44B491FF1FC8DCFF1F0E
:102850000CD7FF1F7488FF1F8842010094420100BB
:10286000A0420100B44201003648DFF8DC80FEF7E8
:10287000B7FA36490AF0D6FA0AF0C0FCD4F880500C
:10288000A36FE26F616F009580B2FEF77FFED4F810
:1028900060B0E56D30600BFB00F005FB00F000EB75
:1028A000800040000AF06AFA29490AF06FFBD8F864
:1028B000003038600122C9F8002043BBD4F8B4309E
:1028C000012B7FF45EAE234A13705AE6B4F9D83078
:1028D000E26C94F848101B48FEF7D6FA3AE7B4F9D0
:1028E000D830E26C94F848101648FEF7CDFA0FE79E
:1028F0000221194809F0B6FB184806F067FE592175
:10290000174809F0AFFB154806F060FE0FE70221FB
:10291000114809F0A7FB114806F058FE592110484C
:1029200009F0A0FB0D4806F051FED4F8B430D4F8FD
:1029300060B0E56D012B04BF064A1370D9F8003072
:1029400017E700BFE891FF1F4888FF1F00007A4487
:10295000E4388E3E0CD7FF1FC0430100FC89FF1FE7
:102960002C42010030B5112083B007F02FFD012863
:1029700004D0122007F02AFD012822D101211520C0
:1029800007F0FEFC2A4B2B4A2B4C1B682B4D116881
:1029900001930222D4F894302A60019A0B449342A6
:1029A00008D8D4F89C000AF0E9F9254B19680AF018
:1029B000D7FBD0B101210C2003B0BDE8304007F0B7
:1029C000DFBC00210B2007F0DBFC00210C2007F00E
:1029D000D7FC0021152007F0D3FC1A49174B012022
:1029E000002208701A6003B030BD01210B2007F0EF
:1029F000C7FC94F8D43003242C604BB1114B022255
:102A00001A7000210C2003B0BDE8304007F0B8BCBC
:102A1000122007F0DBFC012808BF0A4B4FF0110021
:102A200008BF1C7007F0D2FC0128EAD1E6E700BF1E
:102A3000C8DCFF1FA891FF1FC0D9FF1F90D7FF1F41
:102A4000A4D8FF1F0CD7FF1FF0B5714E714C33682F
:102A50002568AB4287B02DD013F001014BD013F0A5
:102A600002015FD013F0040151D0DA070ED52268BD
:102A7000D7070BD4684D2A68002A00F09380674B73
:102A80001B680193019B93427FD833689D0714D440
:102A9000590722D5226852070DD4614F3A68002A9F
:102AA00000F09E805D4B1B680593059B934200F2EE
:102AB00086803568A5B107B0F0BD226890073DD487
:102AC000584D2A68002A49D0544B1B680393039B36
:102AD0009A4236D333685907DCD41D46002DEAD11B
:102AE0002946162007F0D0FA2946172007B0BDE87E
:102AF000F04007F0C9BA162007F0C6FA226833681A
:102B000002F0FE0213F002012260ABD10AE00520C0
:102B100007F0BAFA2268336802F0FB022260DA0793
:102B2000B4D5A4E7172007F0AFFA2268336802F0A3
:102B3000FD0213F00401226097D1E8E75B07AAD4F5
:102B4000B9E7394B1720D3F8981007F09DFA23689E
:102B5000002243F0020323602A60BBE7334806F0FB
:102B600035FD0C21324809F07DFA304806F02EFD83
:102B7000FF21172007F088FA284B2E491A68029285
:102B8000029A09680A442A609FE7274B1620D3F867
:102B9000981007F079FA2368002243F001032360BC
:102BA0002A6072E7FF21162007F06EFA1B4B2149BD
:102BB0001A680092009A09680A442A6060E71A4B72
:102BC0000520D3F8981007F05FFA236835680022D3
:102BD00043F0040323603A60002D7FF46CAF7FE77D
:102BE000124806F0F3FC0C21134809F03BFA0F4899
:102BF00006F0ECFCFF21052007F046FA074B0D49D3
:102C00001A680492049A09680A443A604BE700BFC4
:102C100090D7FF1F94D7FF1F98D7FF1FC8DCFF1F57
:102C2000A0D7FF1F9CD7FF1FC0D9FF1FFC89FF1F24
:102C3000C84201006488FF1FD84201002DE9F84F07
:102C4000534EDFF850A13368DFF84C91D3F884007D
:102C5000524D0F2106F01CF90123CAF800305048EC
:102C600000232221C9F8003009F0FCF9D9F800301E
:102C7000132B21DC4B4F40F6E4483368B5F8ACB079
:102C8000D3F88400436B1C6905F04AFEA4B201210D
:102C900008FB04F4B4FBF0F43846A344A5F8ACB048
:102CA00009F0E0F9642007F0FBFBD9F800300133AC
:102CB000132BC9F80030E0DDB5F8AC303A493B4899
:102CC000A1FB03215B1A01EB5301C1F30F11A5F81E
:102CD000AC1006F073FC1D21354809F0C3F9022140
:102CE000344809F0BFF9314806F070FC00220E218B
:102CF0003068C9F8002005F0BDFD02232848CAF855
:102D00000030222109F0AEF9D9F80030132B22DC73
:102D1000DFF8908040F6E4473368B5F8AEA0D3F80A
:102D20008400436B1C6905F0FBFDA4B2012107FB85
:102D300004F4B4FBF0F44046A244A5F8AEA009F0B8
:102D400091F9642007F0ACFBD9F800300133132B64
:102D5000C9F80030E0DDB5F8AE3013491348A1FBE7
:102D600003215B1A01EB5301C1F30F11A5F8AE105B
:102D700006F024FC1D21104809F074F90D480221C9
:102D800009F070F9BDE8F84F084806F01FBC00BF15
:102D9000D091FF1F7488FF1FC0DAFF1FC0D9FF1F2B
:102DA000E84201000C43010087611886FC89FF1F7F
:102DB00010430100C0430100304301002DE9F04100
:102DC000A44DD5F8C430062B00F06A81A24BA34C69
:102DD0001B68A86D40F2513108222160E271002B7E
:102DE00000F0338109F0CAFF696A06460AF01AF852
:102DF0009B490AF017F80AF001FAC2B22272994A06
:102E0000E969C0F30723637213886381964B3046E8
:102E10001B88A3810AF006F891490AF003F80AF02A
:102E2000EDF98E4903469148E38105F0FFFA904A97
:102E30008E4813681288228103EB83038D4A08268B
:102E40005B0040F25531128821602373834962810F
:102E5000334100276373E671E78105F0E7FA40F23A
:102E6000563385482360E671FEF708F8834909F078
:102E7000D9FF0AF0C3F920727F48FDF7FFFF7F49B1
:102E800009F0D0FF0AF0BAF97D4B7C49C0F3072066
:102E9000607218680AF07AF80AF08AF96081764858
:102EA000FEF718F86E4909F0BDFF0AF081F92073AA
:102EB0007148FEF70FF86A4909F0B4FF0AF078F993
:102EC00040F30720654960736848E78105F0AEFA72
:102ED000022007F0E5FA6B4A6B4B12681B686348E7
:102EE000A26040F25A3121605C49E360E67105F06E
:102EF0009DFA664B59495D48E67140F25E322260A8
:102F0000D3E90023A260E36005F090FA022007F005
:102F1000C7FA5F4B51495548E6714FF45C72226025
:102F2000D3E90023E360A26005F080FA594B1B68E7
:102F3000012B00F00382022007F0B2FA082640F2CB
:102F400073334D482360E671FDF74AFF524909F09B
:102F500069FF0AF053F9034647482372FDF740FF23
:102F60004D4909F05FFF0AF049F9C0F307234248D1
:102F70006372FDF75DFF484909F054FF0AF03EF91E
:102F800003463D48A372FDF753FF434909F04AFF4A
:102F90000AF034F9C0F307233748E372FEF704F868
:102FA0003E4909F037FE0AF029F9034632482373F7
:102FB000FDF7FAFF394909F02DFE0AF01FF9C0F3B9
:102FC00007232D486373FDF7EDFF344909F022FE16
:102FD0000AF014F903462848A373FDF7E3FF2F49CD
:102FE00009F018FE0AF00AF9C0F307201B49E07344
:102FF0001E4805F01BFA022007F052FA2A6EEB6D0C
:1030000013FB02F3C3F3072240F27931022021605F
:1030100062722372E07107F043FA40F2723316488D
:103020002360E671FDF786FD034613482372FDF722
:1030300081FD002240FA06F363726281E260074973
:103040000A48BDE8F04105F0F1B909F097FEA96919
:10305000CBE600BFC0D9FF1FA4DAFF1F18D9FF1F9E
:103060000000204118D7FF1FACD8FF1FD4DAFF1F84
:103070002488FF1F2888FF1FE891FF1F0000C84217
:10308000A4D8FF1FD491FF1FBCDAFF1F3488FF1F95
:103090002C88FF1FDC91FF1F00007A443393884384
:1030A000C04CDFF80483C148C4F8088008264FF4F8
:1030B000C363214600272360E671E76005F0B6F997
:1030C000022007F0EDF94FF4BB632146B7482360B7
:1030D000C4F80880E671E76005F0A8F9022007F05F
:1030E000DFF9E86D2B6EB24AA96DA2604FF4AB62B6
:1030F000226000FB03F201FB02F213FB00F313FB5F
:1031000001F302EBC20102EB81023241227303EBB5
:10311000C30203EB8203214640F20572A348E28119
:103120006373E67105F082F9022007F0B9F9A14B4B
:10313000A3604FF4B362A04B9C4822602146E36039
:10314000E67105F073F9022007F0AAF99B4BA86D10
:103150001B68E6714FF456722260002B00F0EA8083
:1031600009F00CFE696A064609F05CFE944909F014
:1031700059FE0AF043F8E969C0F30722C3B23046AA
:103180002272637209F04EFE8D4909F04BFE0AF07F
:1031900035F88C4A8C4B12881B88824940BA52BA47
:1031A0005BBA60818148A281E38105F03FF902208A
:1031B00007F076F9854B864A1B681188854803EB32
:1031C0008302642505FB03F302EB820208252B41F1
:1031D0009200237262724BBA4FF476727E49006895
:1031E00022606381E57109F01DFE0AF007F8F922FB
:1031F00043BA6C496D48E281A38105F017F90220BA
:1032000007F04EF94FF48B606A4A6649734B2060B1
:103210006648A260E360E57105F008F9022007F056
:103220003FF94FF4A3636E482360E571FDF7BAFEE2
:10323000634909F0F7FD09F0E1FFC0F3072368488F
:103240002372FDF7AFFE5E4909F0ECFD09F0D6FFF1
:10325000034663486372FDF7A7FE594909F0E2FD92
:1032600009F0CCFFC0F307235D48A372FDF79CFE75
:10327000534909F0D7FD09F0C1FF4FF0FF32034673
:1032800048494A48E260E37205F0D0F8022007F0AE
:1032900007F94FF49B6352482360E571FDF7EEFD9B
:1032A000474909F0BFFD09F0A9FFC0F307234C48C7
:1032B0002372FDF7E3FD424909F0B4FD09F09EFFDA
:1032C000484A494903461068637209F05FFE09F0F5
:1032D0006FFF43BA42486381FDF7FCFD384909F0AE
:1032E000A1FD09F065FF40F307233D482373FDF777
:1032F000F1FD334909F096FD09F05AFF40F603024B
:10330000034628492948E281637305F08FF80220BB
:1033100007F0C6F8354A364B12681B68E5714FF462
:10332000AC712160A260E3601E492048BDE8F04115
:1033300005F07CB809F022FDA96914E72848FDF7DB
:103340004FFD696D09F066FC07462548FDF770FDE5
:103350000146384609F004FF00283FF4ECAD40F286
:10336000C3331F48E6712360FDF73AFD2E6D3146E9
:1033700009F0F6FE00283FD01E49304609F052FD04
:1033800009F03CFFC0F307232372C0B240F20142B0
:1033900003236072034905486281E36005F046F843
:1033A000C9E500BF18D9FF1F00425944D4DAFF1FF6
:1033B00003120004000012340000044FA4DAFF1FBF
:1033C00000002041ACD8FF1F18D7FF1F2488FF1F23
:1033D0002888FF1FD891FF1F620B363B00005678EC
:1033E000E891FF1FA4D8FF1F0000C842D491FF1F1F
:1033F000BCDAFF1F00007A440A48FDF7F1FC0A49D5
:1034000009F010FD09F0FAFEC0F307230548237206
:10341000FDF7E6FC044909F005FD09F0EFFEC0B236
:10342000B4E700BFE891FF1F00007A4438B5184C9C
:10343000184B2268181D13F8011F984241EA022216
:10344000F9D1154B154DD3F88830226002F10040B8
:10345000022B286004D0124B1B68012B0AD038BD08
:1034600009F08CFC0F4C2060FEF776FD0C4B1B68BE
:10347000012BF4D10C4806F0A9F829680A4806F097
:103480009DF8BDE838400948032108F0EBBD00BFB6
:10349000D0D8FF1FC7D8FF1FC0D9FF1F8091FF1FC3
:1034A00010D7FF1FB091FF1FFC89FF1F5043010081
:1034B00070B51E4B1E4C597A9A7ADB7A1D4D42EA42
:1034C000012243EA022322681B492B60012A0B6078
:1034D0000CD01846194BD3F88830A0F50000022B09
:1034E00028601BD02368012B0BD070BD144806F058
:1034F0006DF8296812480023102206F07FF828682A
:10350000E8E70F4806F062F829680D4806F056F81B
:10351000BDE870400B48032108F0A4BD09F02EFC63
:10352000094E3060FEF718FDDCE700BFC0D8FF1F72
:1035300010D7FF1F8091FF1FD0D8FF1FC0D9FF1FDA
:10354000FC89FF1F50430100B091FF1F2DE9F04F90
:10355000AC4CDFF8B482AD4883B0214604F0AAFE3B
:10356000D8F88830022B79D02368F02B00F09F80A8
:10357000A3F19A02E52A19D8A54BA64D1B68012B89
:1035800003D12A68012A00F01D819E49A248002229
:10359000FDF7FAFA236803F47F63B3F5C07F0BD01D
:1035A0002B68012B19D003B0BDE8F08F03F47F63C3
:1035B000B3F5C07F974DF3D1954B92491B68964860
:1035C000012B98F8D63002D12A68012A00D00022B7
:1035D000FDF7B6FA2B68012BE5D18D4B1B68012B4B
:1035E000E1D18E4B8E481B680193019900230A227A
:1035F00006F004F82268E3798A48002AB6BF8A49AF
:103600008A4922F060420AF0ADFB86480AF0B8FD14
:103610000146844808F026FD256815F0804540F0F5
:10362000D780E379A3B1824F7E4E2B46234439469F
:103630001A7A30460AF096FB30460AF0A1FD0146A0
:10364000304608F00FFD0135E279EBB29A42EDD831
:10365000734803B0BDE8F04F05F0B8BFD8F88C2030
:103660002368012A00F09F80022A7DD0032A7FF47C
:103670007CAF40F22252934200F0F38040F223529A
:10368000934200F0E58040F2215293427FF46DAF07
:10369000A2896089674B684D40EA024000BA186011
:1036A00009F06CFB2860FEF757FC23685DE75B4B75
:1036B000624A1B68009313780099594801331370CC
:1036C00000230A2205F09AFF2268E3795548002A70
:1036D000B6BF5549554922F060420AF043FB5148B4
:1036E0000AF04EFD01464F4808F0BCFC266816F073
:1036F000804645D1E379EBB1DFF844B1DFF830A182
:10370000484F354604EB0509514699F808203846DC
:103710000AF028FB99F808300BF8053038460AF013
:103720002FFD0146384608F09DFC0136E379F5B2DD
:10373000AB42E7D83A48434D394F434E05F046FF78
:1037400005F1080915F8011F00231022384605F07D
:1037500055FF0121304608F085FC4D45F2D1304837
:1037600005F034FF236803E76FF470729A18012A9A
:103770003FF6FBAEFFF79CFED8F88C20236875E778
:10378000324E284D0FCE0FC596E8030045F8040BC6
:10379000284620F814190AF0F3FC0146A5F114009C
:1037A00008F060FCC6E740F2C132934223D040F2F9
:1037B000C23293427FF4D9AEFFF738FED8F88C209E
:1037C000236851E70F491448FDF7DEF92368E2E664
:1037D0001E4D144C0FCD0FC495E8030044F8040BA4
:1037E000204620F814190AF0CBFC0146A4F114007D
:1037F00008F038FC2CE7FFF75BFED8F88C20236834
:1038000032E700BFC0D8FF1FC0D9FF1FD4DAFF1FA7
:1038100010D7FF1F4888FF1FE891FF1FC8DCFF1F5C
:10382000FC89FF1F28D9FF1F544301007C4301007E
:10383000A84301008091FF1FB091FF1FC491FF1F9B
:103840009091FF1F8F91FF1F0841010090430100DD
:10385000A1896289074D42EA0142074912BA0A600A
:1038600099E6A1896289034D42EA0142034912BAED
:103870000A6090E64888FF1FB8DAFF1FB4DAFF1F1E
:103880002DE9F84F984B1B78052B6BD0974F984C30
:10389000984E3B78226F3260002B60D0B4F86830CD
:1038A000954D96482B80FDF77FFB216B09F058FC66
:1038B00008B100232B809148FDF774FBE16A09F001
:1038C0006DFC10B1002333602B808C48FDF7B0FAFB
:1038D000E16809F063FC08B100232B808748FDF7FD
:1038E000A7FAE16809F05AFC08B100232B8083484D
:1038F000FDF776FA216909F033FC002870D0002327
:1039000033602B8803B33B787C48002B40F0BF80AA
:10391000FDF74AFBA16B09F023FC002840F0BE81B3
:10392000774B76481B68012B00F04481FDF780FA45
:10393000216A0746A06909F06BF90146384609F08B
:103940002DFC002840F0D98133686E4A002BBCBFA3
:103950000023336013889BB273B9BDE8F88FB4F8C5
:1039600064309DE7634A644D00231360654A2B80F1
:1039700013889BB2002BF0D05D4E1388D6F8E02060
:10398000D6F8DC009BB202FB03F303FB00F009F066
:10399000F5F95D4909F046FA09F030FC5B4B84B259
:1039A00056481C80FDF702FB04EB840407466000C8
:1039B00009F0E4F90446B06D09F0E0F9394609F080
:1039C00031FA0146204609F0E1FA09F017FC2B888C
:1039D0004F4A80B28342108088BF2880BDE8F88FAC
:1039E0004648FDF7FDF9E16909F0BAFB002886D1E8
:1039F0003368002B85DD4148FDF7D4FAE16B09F00F
:103A0000CDFB002840F086803C48FDF7E9F9D4F86A
:103A1000D0108046E06909F0FDF80146404609F003
:103A20009FFB00283FF46DAF306809F0A7F981468D
:103A30003248FDF7D5F98246206FD4F81CB009F062
:103A40009DF959468046504609F0E2F841468246C3
:103A5000002009F0DDF80146504609F0E3F9D4F8FA
:103A6000D0108246584609F0D5F8594609F0D0F8EA
:103A70000146504609F08AFA414609F0CBF8014662
:103A8000484609F0C5F809F093FB306039E7FDF7C7
:103A90008BFAA16B09F064FB002840F0CF80184B33
:103AA00016481B68012B5FD0FDF7C2F9216A074653
:103AB000A06909F0ADF80146384609F06FFB00280F
:103AC0003FF442AF288809F059F980460B48FDF7CA
:103AD000AFF9D4F81890216A8246484609F098F860
:103AE0000746B4F8680018E10CD7FF1F1AD7FF1F6C
:103AF000C0D9FF1FACD8FF1F18D7FF1FE891FF1FC9
:103B0000A4DAFF1FCC91FF1F0AD7233C24D7FF1F45
:103B1000A8DAFF1F306809F031F980468F48FDF7B9
:103B200041FA8346206FD4F83CA009F027F95146AA
:103B30008146584609F06CF80146484609F072F98A
:103B400051468146E06A09F063F80146484609F0AB
:103B50001DFA002109F05EF80146404609F058F8C8
:103B600009F026FB30604FE7FDF762F9216A07464E
:103B7000606A09F04DF80146384609F00FFB00284D
:103B80003FF4E2AE288809F0F9F881467348FDF762
:103B90004FF9D4F824A0216A8346504609F038F83A
:103BA0008046E06E09F0EAF80746B4F8680009F0CC
:103BB000E1F823E0FDF73CF9216A0746606A09F065
:103BC00027F80146384609F0E9FA00283FF4BCAE70
:103BD000288809F0D3F881466048FDF729F9D4F820
:103BE00024A0216A8346504609F012F88046E06E10
:103BF00009F0C4F80746606E09F0C0F8394609F0CC
:103C000007F841460446584609F002F801462046A6
:103C100009F008F941460446504608F0F9FF01460C
:103C2000204609F0B3F9394608F0F4FF014648464A
:103C300008F0EEFF09F0E2FA288085E6288809F00E
:103C40009DF880464548FDF7AFF98146B4F8680015
:103C5000D4F830A009F08EF851460746484608F0DF
:103C6000D7FF39468146002008F0D2FF014648467A
:103C700009F0D8F851468146A06B08F0C9FF01460B
:103C8000484609F083F9394608F0C4FF014640462A
:103C900008F0BEFF09F0B2FA288000E7288809F092
:103CA0006DF880462D48FDF77FF98146606ED4F8A7
:103CB00030A009F063F851460746484608F0A8FFCF
:103CC00039468146002008F0A3FF0146484609F026
:103CD000A9F851468146A06B08F09AFF0146484674
:103CE00009F054F9394608F095FF0146404608F0BE
:103CF0008FFF09F083FA288012E6288809F03EF841
:103D000080461648FDF794F8D4F81890216A824648
:103D1000484608F07DFF0746606EE36EC01A09F062
:103D20002DF839460446504608F072FF01462046F9
:103D300009F078F839460446484608F069FF01461C
:103D4000204609F023F9002108F064FF01464046AF
:103D500008F05EFF09F052FA2880F5E5E891FF1FB0
:103D600008B5284805F032FC2748072108F07AF901
:103D7000112006F02BFB00B32448062108F072F94D
:103D8000102006F023FB08B32148062108F06AF949
:103D9000122006F01BFB10B31E48062108F062F942
:103DA000132006F013FB18B31B48062108F05AF93C
:103DB000BDE80840134805F009BC1848062108F082
:103DC00051F9102006F002FB0028DDD1144806212D
:103DD00008F048F9122006F0F9FA0028DCD1114861
:103DE000062108F03FF9132006F0F0FA0028DBD195
:103DF0000D48062108F036F9BDE80840014805F0F5
:103E0000E5BB00BFFC89FF1FB4430100BC430100B8
:103E1000CC430100DC430100EC430100C44301003A
:103E2000D4430100E4430100F443010010B5294CE0
:103E30002368042B26DC01210B2006F0A1FA0121C6
:103E40000C2006F09DFA0121142006F099FA0121B8
:103E5000152006F095FAFF21162006F015F9FF212E
:103E6000172006F011F9FF21052006F00DF9FF21BA
:103E7000062006F009F9236801330A2BC8BF002386
:103E8000236010BD00210B2006F07AFA00210C20DF
:103E900006F076FA0021142006F072FA00211520AF
:103EA00006F06EFA0021162006F0EEF80021172029
:103EB00006F0EAF80021052006F0E6F800210620C9
:103EC00006F0E2F8236801330A2BC8BF0023236001
:103ED00010BD00BFB0D9FF1F30B5AF4883B0092176
:103EE00006F094FD222006F015FDAC4BD3F8B4305B
:103EF000012BAB4B1B7809D0052B10D8DFE813F052
:103F0000320137013C0141012D010B00002B00F073
:103F10003D81052B03D1A348072106F077FD222020
:103F200006F0F8FCFF2006F0F5FCFF2006F0F2FC9E
:103F30009D4CFF2006F0EEFC9C48082106F066FD33
:103F400021689B4805F03AFBFF2006F0E3FCFF20C8
:103F500006F0E0FCFF2006F0DDFC9648092106F0A3
:103F600055FD2168924805F029FBFF2006F0D2FCA0
:103F7000FF2006F0CFFCFF2006F0CCFC8E480C2181
:103F800006F044FD8D4B8E49186808F0FFFF08F0DD
:103F900025FD002402460B460094854805F038FBB9
:103FA000FF2006F0B7FCFF2006F0B4FCFF2006F06F
:103FB000B1FC0921834806F029FD8348FCF78AFFFC
:103FC00008F00CFD009402460B46794805F020FBF2
:103FD000FF2006F09FFCFF2006F09CFCFF2006F06F
:103FE00099FC0C21794806F011FD7748FCF7DCFFBD
:103FF00008F0F4FC009402460B466D4805F008FBFF
:10400000FF2006F087FCFF2006F084FCFF2006F06E
:1040100081FC0D216E4806F0F9FC6B48FCF7C2FFED
:1040200008F0DCFC009402460B46614805F0F0FA0B
:10403000FF2006F06FFCFF2006F06CFCFF2006F06E
:1040400069FC0921634806F0E1FC5F48FCF716FFB4
:10405000614908F0E7FE08F0C1FC009402460B46F7
:10406000534805F0D5FAFF2006F054FCFF2006F077
:1040700051FCFF2006F04EFC0C21584806F0C6FC0F
:104080005148FCF7ADFE564908F0CCFE08F0A6FCFE
:10409000009402460B46464805F0BAFAFF2006F0A7
:1040A00039FCFF2006F036FCFF2006F033FC0D2122
:1040B0004C4806F0ABFC4448FCF7BAFE484908F00F
:1040C000B1FE08F08BFC009402460B46384805F020
:1040D0009FFAFF2006F01EFCFF2006F01BFCFF20CD
:1040E00006F018FC4048092106F090FC3F4B304890
:1040F000196805F063FAFF2006F00CFCFF2006F0BB
:1041000009FCFF2006F006FC0E21394806F07EFC73
:104110002D48FCF78DFE05462B48FCF761FE014655
:10412000284608F075FD2E4908F07CFE08F056FC84
:10413000009402460B461E4805F06AFAFF2006F07E
:10414000E9FBFF2006F0E6FBFF2006F0E3FBFF2083
:1041500003B0BDE8304006F0DDBB26480B2106F079
:1041600055FCDCE62448062106F050FCD7E623483F
:10417000072106F04BFCD2E62148072106F046FC59
:10418000CDE62048082106F041FCC8E61E4808217B
:1041900006F03CFCC3E600BFFC430100C0D9FF1F92
:1041A0000CD7FF1FD04001002488FF1F14440100DA
:1041B000BC88FF1F204401002C440100A4D8FF1F2D
:1041C0000000C8423C440100E891FF1F4844010040
:1041D000584401006844010000002041744401007B
:1041E00000007A4484440100944401005488FF1F75
:1041F000A0440100B0400100A0400100A84001001F
:10420000BC400100C440010008440100F8B58B4DDA
:10421000D5F8C430042B07D0032B33D0012B5BD04F
:10422000022B00F0CD80F8BD854C864AE388A86D4E
:10423000226003F0FE0343F4006343F00103E380D4
:1042400008F09CFDA96908F0EDFD7F4908F0EAFD42
:1042500008F0D4FF7D4B7E4A1B88126893FBF2F373
:1042600040BA5BBA0026208121467A486381E66025
:1042700004F0DCF8A279D5F8C43066F30002032B11
:10428000A271CBD16E4CA86DA37240F2FF224EF604
:10429000010322600722E271238108F06FFDA96902
:1042A00008F0C0FD684908F0BDFD08F0A7FF684AA6
:1042B000664B11681B8893FBF1F380B2020AE0722F
:1042C0006373644822731B122146A37304F0AEF893
:1042D000D5F8C430012BA3D15F4B594C196821602C
:1042E000072280231020E271237206F06FF8002865
:1042F00000F09680594B1B68544E554FA86D03EB48
:1043000083035A00D2B2C3F3C7136372A272338815
:104310003A6893FBF2F3A3731B12637308F02EFD4C
:10432000A96908F07FFD4E4B196808F071FC4649F9
:1043300008F078FD08F062FF2073C0F307204049C1
:10434000E072444804F072F8022006F0A9F8454BE8
:104350001B6823600723E37110208023237206F07B
:1043600035F8002868D1404B1B68A86D03EB830328
:104370005A00D2B2C3F3C713A272637208F0FEFCF4
:10438000A96908F04FFD394B196808F041FC2E4926
:1043900008F048FD08F032FF2073C0F307203A68A8
:1043A0003388E07293FBF2F325492A48A3731A126B
:1043B000627304F03BF8D5F8C430022B7FF433AFBE
:1043C0001F4C2448237240F20E3222602146012203
:1043D000E27104F02BF81D4BA86D1B885B00FF2BCE
:1043E0004FF00402D4BFDBB2FF234FF44171E271FE
:1043F000402221602272637208F0C0FCA96908F0B3
:1044000011FD1B49054608F0C9FE58B90122902349
:10441000A272E3720A490F48BDE8F84004F006B8FA
:10442000114B68E72946284608F0F4FB08F0E6FE41
:10443000C0F30722C3B2EBE7084B95E7C0D9FF1FD3
:1044400018D9FF1FF4E506180000204118D7FF1FF8
:104450006088FF1FD4DAFF1F3C88FF1F5C88FF1FA6
:1044600020D7FF1F4088FF1F5888FF1F1CD7FF1F42
:104470000000484330B50388C27985B05BBA012A91
:10448000ADF804300C4602F1010506DD00F108012B
:10449000013A0DF1060005F079FB044B04481B5D61
:1044A0002A4601A903F0F0FA05B030BD30520100F0
:1044B000A4D7FF1F2DE9F041684D2B78062B82B061
:1044C0006DD0674B674E1B78674F002B41D0DFF8EC
:1044D0009C812978664C0023C8F8003041F08003A5
:1044E00023600823E37141F2C70323813B78002254
:1044F000022B628120D833784FF020024FEA031359
:10450000A281DBB200D10433A3735948FFF7B2FF95
:104510000346E373022005F0C3FF5549554803F0F5
:1045200085FF2B78544801332B70FCF7C3FA002821
:1045300047D102B0BDE8F081D8F800203378012AD5
:104540000CBF482240221B01227301226273A37315
:10455000DBE7DFF818812978D8F8002041F08003E4
:10456000434C012A23604FF00803E371BBD142485A
:10457000FCF736FC414908F055FC08F03FFE0530D9
:1045800020723D48FCF72CFC3C4908F04BFC08F03D
:1045900035FE83B205331B1229786372A6E7314ECC
:1045A000314F337800222A703A780133032ADBB284
:1045B0009CBF01323A700F2B337015D0284B1B78FB
:1045C00083E7E3882E4D2B48A560B021216003F0DE
:1045D000FE03274943F400630022E380E26002B057
:1045E000BDE8F04103F022BF264A274C1368009330
:1045F000009B206800219842317015D2234BDFF8D0
:10460000608019680123994288F8003014D012683C
:1046100001921F4AB2F8B010019A3C314FF47A70FF
:1046200000FB0122226050E70D4BDFF8408019703B
:10463000D8F80020802393E7164804F0C7FF132121
:10464000154807F00FFD134804F0C0FF114804F0AF
:10465000BDFF98F800300B4AD9E700BFA8D9FF1F6B
:10466000E091FF1F14D9FF1FAADAFF1FDC91FF1F83
:1046700018D9FF1FD4DAFF1FE891FF1F00007A440A
:10468000FF00CDA2C8DCFF1FE491FF1F4888FF1F79
:10469000C0D9FF1FFC89FF1FB04401002DE9F04184
:1046A0001A4CDFF86C800025A027E388657203F0C0
:1046B000FE0343F400634FF0A10C4FF6FF72214656
:1046C0004FF0FF364046E38084F808C062812760DF
:1046D000E660013503F0AAFE022005F0E1FE0F2D91
:1046E000E3D10C4B276000221A70E388E66003F0E8
:1046F000FE036FF0C80243F40063E380A260034945
:104700000348BDE8F04103F091BE00BF18D9FF1F78
:10471000D4DAFF1FC491FF1FF0B5AB4CAB4D83B093
:1047200007F032FC23682860042B59D0022B40F09C
:104730002981A0F13103422B00F21B81DFE813F045
:104740006A0601070E071B073D0775074C075A0746
:104750001901190119011901190119011901190189
:104760001901190119011901190119011901190179
:104770001901190119011901190119011901190169
:104780001901190119011901190119011901190159
:104790001901190119011901190119011901190149
:1047A000190119011E011901190119011901190134
:1047B0001901190119011901190119011901190129
:1047C000460019016707712840F0D3800022732347
:1047D00022602B602368002B00F0A78203B0F0BD9D
:1047E000A0F13103482B00F2C48001A252F823F05B
:1047F0002F59000033590000375900008F56000030
:10480000FB580000155900002B59000053590000B7
:104810009F5900007349000073490000734900006C
:104820007349000073490000734900007349000098
:104830007349000073490000734900007349000088
:104840007349000073490000734900007349000078
:104850007349000073490000734900007349000068
:104860007349000073490000734900007349000058
:104870007349000073490000734900007349000048
:104880007349000073490000734900007349000038
:104890007349000073490000734900007349000028
:1048A0007349000073490000734900007349000018
:1048B0007349000057590000734900007349000014
:1048C00073490000734900007349000073490000F8
:1048D00073490000734900007349000073490000E8
:1048E00073490000734900007349000073490000D8
:1048F000CD47000073590000734900007349000060
:1049000073490000734900007349000045560000D8
:104910007156000007F074FB00280DDD2C482D4E69
:1049200004F0B2FF08F02AFA2B4908F02FFB01220D
:104930006223706222602B6007F062FB00280EDDAC
:104940002348244E04F0A0FF08F018FA224908F08A
:104950001DFB01226223C6F8D00022602B6007F005
:104960004FFB002801F3468123682868012B00F0E3
:10497000988673283FF42EAF03B0F0BDFEF75EF9C2
:1049800023682868082B10D1342800F04F813FF7A6
:104990001AAF312800F058813228EAD107F030FBF5
:1049A000002800F3658223682868072B1DD134286E
:1049B0003FF709AF3028DCDD3238022801F24786A4
:1049C000DFE800F0A00CB40010D9FF1FD4D8FF1FFF
:1049D000FC89FF1FC0D9FF1F00007A4407F010FBBD
:1049E000002800F35D8223682868062B40F06B8264
:1049F000A0F13103402BBCD801A252F823F000BF34
:104A0000B951000009530000B94E0000F1530000F5
:104A1000D5530000B55300007349000099530000BE
:104A20007753000073490000734900007349000088
:104A30007349000073490000734900007349000086
:104A40007349000073490000734900007349000076
:104A50007349000073490000734900007349000066
:104A60007349000073490000734900007349000056
:104A70007349000073490000734900007349000046
:104A80007349000073490000734900007349000036
:104A90007349000073490000734900007349000026
:104AA0007349000073490000734900007349000016
:104AB0007349000073490000734900007349000006
:104AC00051530000315300008D5B0000734900001A
:104AD00073490000734900007349000073490000E6
:104AE00073490000734900007349000073490000D6
:104AF00073490000734900007349000073490000C6
:104B0000CD47000007F07CFA00287FF76CAFB8486B
:104B1000B84E04F0B9FE08F031F9B74908F082F94F
:104B200001232360612370642B6010E007F068FAB2
:104B300000287FF758AFAE48AE4E04F0A5FE012323
:104B400023606123B0862B6001E007F01DFA07F0B7
:104B500057FA05460028F8D1A54804F037FDA448C7
:104B600004F034FDA24804F031FDA14804F02EFD0C
:104B70009F4804F02BFD1F21A04807F073FA9C48C2
:104B800004F024FD1C219E4807F06CFAB06A9D4990
:104B900008F048F907F022FF009502460B469448BA
:104BA00004F036FD0221984807F05CFA904804F0C2
:104BB0000DFD2321954807F055FA706C914908F0D6
:104BC00031F907F00BFF009502460B46884804F0C8
:104BD0001FFD02218C4807F045FA854804F0F6FCD9
:104BE00019218B4807F03EFA306C07F0F7FE0225DA
:104BF0000B46024600957E4804F00AFD294685488A
:104C000007F030FA7A4804F0E1FC2221824807F0EC
:104C100029FAB18E764804F0D1FC03217F4807F0D1
:104C200021FA734804F0D2FC07237BE007F0E8F98F
:104C300000287FF7B8AE6E486E4E04F025FE03B232
:104C4000F26CA6F8D83020E107F0DAF9002800F37A
:104C50001F81684E96F84810B6F9D830F26C0229D8
:104C600084BF002186F848106D48FCF70DF9012239
:104C7000692322602B6001E007F086F907F0C0F994
:104C800005460028F8D15A4804F0A0FC584804F022
:104C90009DFC574804F09AFC554804F097FC544892
:104CA00004F094FC15215F4807F0DCF9504804F04B
:104CB0008DFC18215C4807F0D5F92B460A2296F89E
:104CC00048104B4804F09AFC494804F07FFC282126
:104CD000564807F0C7F9F06C4A4908F0A3F807F006
:104CE0007DFE00950B460246414804F091FC0221EE
:104CF000454807F0B7F93E4804F068FC18214C48D5
:104D000007F0B0F9B6F9D810394804F057FC384824
:104D100004F05CFC1321474807F0A4F9344804F080
:104D200055FC0823236003B0F0BD434E304804F027
:104D30004DFC0421414807F095F92D4804F046FC4C
:104D400010213F4807F08EF9294804F03FFC132159
:104D50003C4807F087F93C4B2548196804F02EFCC5
:104D6000234804F033FC1421384807F07BF920482D
:104D700004F02CFC1E21364807F074F91C4804F09E
:104D800025FC1521334807F06DF9194804F01EFC85
:104D90001E21314807F066F9154804F017FC202160
:104DA0002E4807F05FF9124804F010FC19212C4836
:104DB00007F058F90E4804F009FC1221294807F0C1
:104DC00051F90B4804F002FC0F21274807F04AF97B
:104DD000074804F0FBFB0D21244807F043F9044881
:104DE00004F0F4FB002201233260236003B0F0BD25
:104DF000FC89FF1FC0D9FF1F6F12833A5C47010077
:104E00007C47010000007A44304501009C470100C6
:104E1000C0470100E8460100DC47010000480100EE
:104E2000E891FF1FD8490100E84401000445010052
:104E300034450100504501004888FF1F104901001A
:104E4000184901002C4901005488FF1F4049010006
:104E5000584901007849010090490100B04901001A
:104E6000D4490100F0490100044A0100144A01003C
:104E7000C548C64E04F008FD07F080FFC44907F09E
:104E8000D1FFB6F9D830F064024696F84810EBE648
:104E9000BD48BE4E04F0F8FCC1B286F84810DBE60F
:104EA000B948BA4E04F0F0FC07F068FF0123236014
:104EB000612330642B604AE607F0A2F8002801F372
:104EC0001B8323682868052B17D1362800F38686B4
:104ED00030287FF783AC3238042801F2A783DFE85B
:104EE00010F035012501A9000500450107F088F8FB
:104EF000002801F3078123682868032B7FF436AD6F
:104F0000A0F13003482B3FF634AD01A252F823F054
:104F10007D640000A96400005B6400003F64000041
:104F20002364000001640000E1630000CB63000023
:104F3000AF6300008F6300007349000073490000F5
:104F40007349000073490000734900007349000071
:104F50007349000073490000734900007349000061
:104F60007349000073490000734900007349000051
:104F70007349000073490000734900007349000041
:104F80007349000073490000734900007349000031
:104F90007349000073490000734900007349000021
:104FA0007349000073490000734900007349000011
:104FB0007349000073490000734900007349000001
:104FC00073490000734900007349000073490000F1
:104FD0007349000079630000F7620000E16200009D
:104FE000CB620000B36200000362000015490000BC
:104FF00039490000734900005F49000093620000D6
:1050000073490000734900007349000073490000B0
:105010007349000085620000676200007349000068
:105020007349000073490000734900007349000090
:105030005162000006F0E4FF00287FF75CAF5248A1
:10504000524E04F021FC534BC6F8B80002221A60FD
:10505000FCF74CFC01226B2322602B6001E006F080
:1050600093FF06F0CDFF0028F9D1474804F0AEFACF
:10507000454804F0ABFA444804F0A8FA424804F06A
:10508000A5FA414804F0A2FA2121434806F0EAFFBC
:105090003D4804F09BFA1521404806F0E3FFD6F89E
:1050A0009410394804F08AFA02213D4806F0DAFFEC
:1050B000354804F08BFA1E213A4806F0D3FFD6F8A3
:1050C0009C10314804F07AFA0321374806F0CAFFF1
:1050D0002D4804F07BFA1E21344806F0C3FFD6F8B1
:1050E0009810294804F06AFA274804F06FFA1D2145
:1050F0002F4806F0B7FFD6F8B810234804F05EFA40
:10510000214804F063FA1E212A4806F0ABFFD6F8C6
:10511000BC101D4804F052FA1B4804F057FAD6F8A8
:10512000B430012B01F048820523FBE506F068FF4F
:1051300000287FF7E0AE1448144E04F0A5FB0123CD
:1051400023606B23C6F898002B608AE706F058FFAF
:1051500000287FF7D0AE0C480C4E04F095FB0123DD
:1051600023606B23C6F89C002B607AE7074E96F805
:10517000D5300122B3FA83F322605B096B2286F8F3
:10518000D5302A606DE700BFFC89FF1FC0D9FF1F23
:105190006F12833ABCD8FF1F044801002848010061
:1051A0007C460100404801000842010060480100BF
:1051B00080480100A048010006F022FF00287FF788
:1051C00080AE9B489B4E04F05FFB07F0D7FD9A49E9
:1051D00007F0DCFE012323606523B0612B6001E052
:1051E00006F0D2FE06F00CFF05460028F8D19048E4
:1051F00004F0ECF98E4804F0E9F98D4804F0E6F982
:105200008B4804F0E3F98A4804F0E0F911218B4857
:1052100006F028FF864804F0D9F92821884806F0CE
:1052200021FFB069844907F0FDFD07F0D7FB009529
:1052300002460B467E4804F0EBF90221814806F055
:1052400011FF7B4804F0C2F916217F4806F00AFFDF
:10525000306A794907F0E6FD07F0C0FB00950B4680
:105260000246734804F0D4F90221764806F0FAFEAB
:105270006F4804F0ABF9D6F8C430002B32DD1D21A5
:10528000724806F0EFFE706E07F078FD704907F087
:10529000C9FD07F0A3FB022502460B4664480095B2
:1052A00004F0B6F901216B4806F0DCFE604804F01A
:1052B0008DF91F21684806F0D5FEF06E07F05EFDFF
:1052C000634907F0AFFD07F089FB009502460B46E6
:1052D000574804F09DF95F48012106F0C3FE544889
:1052E00004F074F95D48112106F0BCFED6F8C43014
:1052F000062B00F2A983DFE813F0300435042B04F9
:105300003F043A044404A30306F07AFE00287FF722
:10531000D8AD4748474E04F0B7FA07F02FFD46498D
:1053200007F034FE01232360652330622B6059E7C8
:1053300006F066FE00287FF7C4AD3D483D4E04F000
:10534000A3FA012323606523C6F8DC002B6049E73C
:1053500006F056FE00287FF7B4AD3548354E04F010
:1053600093FA00EB800043000122A6F86830652321
:1053700022602B6036E706F043FE00287FF7A1ADE0
:105380002B482C4E04F080FA07F0F8FC0123236030
:105390006523B0632B6025E7264E96F8D430002BAA
:1053A00001F09380012300222360652386F8D42036
:1053B0002B6017E706F024FE00287FF782AD1C481B
:1053C0001C4E04F061FA012323606523C6F8C8006F
:1053D0002B6007E7174ED6F8C43001221344072B81
:1053E0002260A8BF00236522C6F8C4302A60F9E60F
:1053F00006F006FE00287FF764AD0D480D4E04F060
:1054000043FA00EB8000400001226523F066226031
:105410002B60E7E6074ED6F88430B3FA83F35B09D6
:105420000122C6F88430632322602B601AE000BF9B
:10543000FC89FF1FC0D9FF1F00007A447C4901008E
:10544000644501003045010090450100A845010078
:10545000CDCCCC3DBC4C0100C8450100E845010065
:1054600006F092FD06F0CCFD0028F9D1B14804F019
:10547000ADF8B04804F0AAF8AE4804F0A7F8AD487B
:1054800004F0A4F8AB4804F0A1F81F21AA4806F0E4
:10549000E9FDA84804F09AF81E21A84806F0E2FDAC
:1054A000A44804F093F8A6481A2106F0DBFDD6F8CC
:1054B0008830022B01F04780032B01F03B80012B49
:1054C00001F02F809F48092106F0CCFD994804F097
:1054D0007DF814219C4806F0C5FDD6F88410954847
:1054E00004F06CF8934804F071F81C21974806F01A
:1054F000B9FDD6F890108F4804F060F88D4804F09C
:1055000065F81C21924806F0ADFDD6F8C010894818
:1055100004F054F8874804F059F8D6F8883023F09E
:105520000202012A00F0FD85022B01F032801321D6
:10553000884806F097FD7F4804F048F80223FFF7FB
:10554000F1BB854ED6F89030B3FA83F35B090122A4
:10555000C6F89030632322602B6083E70123236029
:1055600006F04EFD002800F3B8877B4E012263232E
:1055700022602B6076E70123236006F041FD0028BE
:1055800007DD6C48744E04F07FF907F0F7FBC6F8AE
:10559000A40023686322072B2A603FF41FA9062B6F
:1055A00000F0F482052B3FF419A9032B00F0988634
:1055B000012B7FF413A9684E54E70123236006F002
:1055C0001FFD0028E5DD5B48634E04F05DF907F040
:1055D000D5FBC6F8A000DCE75F4ED6F88C30012280
:1055E0001344052BA8BF134622606322C6F88C30F3
:1055F0002A6037E70123236006F002FD0028B4DDAE
:105600004C48554E04F040F9C6F8A800AEE7524E9B
:10561000D6F8883001221344042B2260A8BF00234F
:105620006322C6F888302A601CE70123236006F055
:10563000E7FC0028ADDD3F48474E04F025F9A6F809
:10564000CE00A6E701232360FFF728F86422236831
:105650002A60082B3FF4C2A8072B3FF4BFA8062BF3
:105660003FF4BCA8052B18BF64203FF4B7A844E45E
:105670000123236006F0C4FC002804DD2D4804F05B
:1056800003F9364B1870642223682A60E1E7344A34
:105690001368B3FA83F3642001215B09216013606E
:1056A0002860A0F152031F2B3FF663A901A252F814
:1056B00023F000BFAF5B0000734900007349000096
:1056C00073490000734900007349000073490000EA
:1056D00073490000734900007349000073490000DA
:1056E00073490000734900007349000073490000CA
:1056F0001B66000015660000B755000069570000E2
:1057000027660000734900007349000073490000D8
:1057100021660000734900000F6600007349000015
:105720007349000073490000734900007349000089
:10573000BD5B0000FC89FF1F7C4B01009C4B0100FE
:10574000BC4B0100344C0100404C0100584C01009E
:10575000784C010050450100C0D9FF1FA091FF1FE8
:10576000D8D8FF1F06F010FC06F04AFC05460028BA
:10577000F8D19248924E03F029FF904803F026FF9B
:105780008E4803F023FF8D4803F020FF8B4803F081
:105790001DFF13218B4806F065FC884803F016FFB7
:1057A0000D21894806F05EFC844803F00FFF0F21AD
:1057B000864806F057FC864B8048196803F0FEFEC9
:1057C0007E4803F003FF1321824806F04BFC824B16
:1057D0007A48196803F0F2FE784803F0F7FE1221C8
:1057E0007E4806F03FFC7E4B7448196803F0E6FEE5
:1057F000724803F0EBFE11217A4806F033FC7A4B35
:105800006E48196803F0DAFE6C4803F0DFFE0E21E3
:10581000764806F027FCD6F8B410684803F0CEFEB0
:10582000664803F0D3FE1921714806F01BFC714B4A
:105830006248196803F0C2FE604803F0C7FE1121F8
:105840006D4806F00FFC6D4B5C48196803F0B6FE1E
:105850005A4803F0BBFE1021694806F003FC694B6F
:105860005648196803F0AAFE544803F0AFFE1C2105
:10587000654806F0F7FB654B5048196803F09EFE3B
:105880004E4803F0A3FE1621614806F0EBFBB6F884
:10589000B0104A4803F092FE1E215E4806F0E2FB7B
:1058A000464803F093FE0C215B4806F0DBFB5B49A6
:1058B000424809782B460A2203F0A0FE3F4803F035
:1058C00085FE1021564806F0CDFB2946554806F0C6
:1058D000C9FB3A4803F07AFE1721534806F0C2FB91
:1058E000364803F073FE1321504806F0BBFB3348E3
:1058F00003F06CFE0423FFF715BA314ED6F8B4302E
:10590000B3FA83F3642001225B092260C6F8B43045
:105910002860C6E6012346482360FBF7E7F8354BCD
:10592000642218602A60236893E6344AB0E6284A65
:10593000AEE6294AACE62A4B1A680121002A0CBFC0
:105940000A46002221601A6040F006866420286022
:10595000A7E62C4A9CE60123236006F051FB0028B1
:105960007FF791AE1548164E03F08EFFA6F8B000F3
:1059700089E63049304ACB888A6003F0FE0343F45D
:1059800000630120CB8000232060CB602B48B02334
:105990000B6002F04BFD642223682A6059E6012364
:1059A000236006F02DFB002800F3B485174B186820
:1059B00004287FF768AE02221A6064E6FC89FF1FA4
:1059C000C0D9FF1F244A0100384A0100484A01009B
:1059D00010D7FF1F584A0100A8D8FF1F6C4A0100CA
:1059E000ACD9FF1F804A0100D8D8FF1F944A01009C
:1059F000A44A010014D7FF1FC04A0100BCD8FF1FF2
:105A0000D44A01008891FF1FE84A01004C88FF1F1B
:105A1000084B0100204B0100404B0100A091FF1FEB
:105A2000504B010028420100644B01005045010029
:105A3000E891FF1F18D9FF1FFF00CDA2D4DAFF1F86
:105A40007248042106F00EFB714803F0BFFDD6F842
:105A5000C430002B0FDD18216E4806F003FBD6F88A
:105A6000C8106B4803F0AAFD6B48022106F0FAFA51
:105A7000674803F0ABFD69481B2106F0F3FA96F87E
:105A8000D430002B40F048836548122106F0EAFA32
:105A90005F4803F09BFD1F21624806F0E3FAB06BFC
:105AA00006F09CFF02250B4602460095584803F07D
:105AB000AFFD29465C4806F0D5FA554803F086FD4F
:105AC000D6F8C430002B39DD2721584806F0CAFA31
:105AD000B6F8680007F052F9554907F0A3F906F047
