:1000000000800020BD010000319D0000ED9C00003B
:10001000ED9C0000ED9C0000ED9C0000ED9C0000BC
:10002000ED9C0000ED9C0000ED9C0000319D000067
:10003000319D0000ED9C0000F9910000FD91000051
:10004000319D0000319D0000319D0000319D000078
:10005000319D0000319D0000319D0000319D000068
:10006000319D0000319D0000319D0000319D000058
:10007000319D0000319D0000319D0000319D000048
:10008000319D0000319D0000319D0000319D000038
:10009000D9740000319D0000319D0000319D0000A9
:1000A000319D0000319D0000319D0000319D000018
:1000B000319D000099870000A5870000A9870000F6
:1000C000B5870000B9870000BD870000319D0000A2
:1000D000319D0000319D0000319D0000319D0000E8
:1000E000319D0000319D0000319D0000319D0000D8
:1000F000319D0000319D0000319D000055AC000095
:10010000319D00007DB30000319D0000319D000055
:10011000319D0000319D0000319D0000319D0000A7
:10012000319D0000319D0000319D0000319D000097
:10013000319D0000319D0000319D0000319D000087
:10014000319D0000319D0000319D0000319D000077
:10015000319D0000319D0000319D0000319D000067
:10016000319D00007DB60000319D0000319D0000F2
:10017000319D0000319D0000319D0000319D000047
:10018000319D0000319D0000319D0000319D000037
:10019000319D0000319D0000319D0000319D000027
:1001A000319D0000319D0000319D0000319D000017
:1001B000319D0000319D0000319D0000574B4CF2F5
:1001C000205210B5DA814DF62812DA8100BF00BF47
:1001D00009F0B2FD524B4FF010621A63514A9A6314
:1001E000514ADA63514A136913F4807303D153619E
:1001F0004FF4A85313614E4B9A78110703D59A78A0
:1002000042F008029A704B4B4B482A221A704B4B13
:10021000DA1C121AC11E22F00302994288BF002282
:10022000474909F08FFC474B4748DA1C121AC11E98
:1002300022F00302994288BF002200210DF048FEFF
:10024000424943484FF4DE7209F07CFC414B424A7C
:10025000802103F8011B9342FBD14FF0E0233C4A7D
:10026000C3F8082D3D4B8A221A70A3F5805324222F
:100270005A70A0221A709A799207FCD59A79D406FE
:10028000FCD4374B9A7902F00C02082AFAD10322E7
:100290001A7140225A719A799006FCD5304A9379A6
:1002A0005906FCD51E4B2F4959640221996420211F
:1002B0001170917901F00C010C29FAD12A4A5A6087
:1002C0004FF0E023294A5A6100229A6107221A61FD
:1002D000274AC3F8202D62B609F058FE134B5B691C
:1002E000DA0705D5234809F045FE234B234ADA6196
:1002F000234B1B785B0609D51F4C204BE2699A42C1
:1003000004D11C4809F036FE0023E36109F01AFD10
:100310000DF0D4FE09F00EFCFEE700BF0020054002
:1003200000800440823F04000100002B00D0034005
:1003300000D0074000E007402087FF1F6891FF1FA3
:10034000EC59010014E2FF1F6891FF1F000000003C
:100350000082FF1F00E400E05FE400E00050064080
:100360000040064000000301C0100500FF760100B8
:1003700000002020CC655D6400E00340A5C3945AD2
:1003800000F00740FFFFFFFFFFFFFFFFFFFFFFFF42
:10039000FFFFFFFFFFFFFFFFFFFFFFFFFFFFFFFF6D
:1003A000FFFFFFFFFFFFFFFFFFFFFFFFFFFFFFFF5D
:1003B000FFFFFFFFFFFFFFFFFFFFFFFFFFFFFFFF4D
:1003C000FFFFFFFFFFFFFFFFFFFFFFFFFFFFFFFF3D
:1003D000FFFFFFFFFFFFFFFFFFFFFFFFFFFFFFFF2D
:1003E000FFFFFFFFFFFFFFFFFFFFFFFFFFFFFFFF1D
:1003F000FFFFFFFFFFFFFFFFFFFFFFFFFFFFFFFF0D
:10040000FFFFFFFFFFFFFFFFFFFFFFFFDEF9FFFF23
:100410000548064B1B1AD90F01EBA301491002D066
:10042000034B03B1184770476891FF1F6891FF1F86
:100430000000000008B5054B1BB105490548AFF3A6
:100440000080BDE80840FFF7E3BF00BF00000000E8
:100450006891FF1FEC59010010B5402200210446AD
:100460000DF036FD164904F13C0304F17C0243F81B
:10047000041F9A42FBD14022002104F180000DF0BC
:1004800027FD002200230F490F4884F80021C4F8FB
:10049000D800C4F8C030C4F8C430C4F8C830C4F8B8
:1004A000CC30C4F8D030C4F8D410C4F8DC10C4F890
:1004B000E030A4F8E820C4F80C21204610BD00BFAD
:1004C0000000A040000048430000C8C22DE9F843E6
:1004D000DFF840900746CE1D00F1C40500F1D408B6
:1004E00016F8010F28380CF01DFC494645F8040B9E
:1004F00004460CF027FE40B1B7F914010CF012FCD1
:1005000021460CF05BFB45F8040C4545E8D1BDE8FD
:10051000F88300BF000020C22DE9F0418046144658
:1005200006291AD8DFE811F0070053008100AF0058
:10053000DF000F013F00617A237AA27A03EB0123E7
:1005400003EB0243E27A03EB0263C0F80C31627BF7
:10055000237B03EB0223C0F80831934FA8F1040476
:1005600008F13C06606C54F8045F29460CF0EAFD83
:10057000034628462BB1D8F8E4100CF0D9FD00B1A1
:100580002564D4F8801028460CF0DCFD034639467B
:10059000284623B10CF0D6FD08B1C4F88050B4420F
:1005A000E0D1BDE8F081D0F80821002AD5D1002B98
:1005B000D3D1637A207A03F03F0300EB03200CF0E1
:1005C000B1FB7A490CF0B6FCC8F83C00C5E7D0F89E
:1005D0000821002AC1D1002BBFD1637A207A03F011
:1005E0003F0300EB03200CF09DFB70490CF0A2FCD4
:1005F000C8F80000E37AA07A03F03F0300EB032081
:100600000CF090FB69490CF095FCC8F80400637B82
:10061000207B03F03F0300EB03200CF083FB6349D6
:100620000CF088FCC8F8080097E7D0F80821002AE9
:1006300093D1002B91D1637A207A03F03F0300EB32
:1006400003200CF06FFB59490CF074FCC8F80C0047
:10065000E37AA07A03F03F0300EB03200CF062FB87
:1006600052490CF067FCC8F81000637B207B03F054
:100670003F0300EB03200CF055FB4C490CF05AFCF7
:10068000C8F8140069E7D0F80821002A7FF465AFA4
:10069000002B7FF462AF637A207A03F03F0300EB14
:1006A00003200CF03FFB41490CF044FCC8F8180053
:1006B000E37AA07A03F03F0300EB03200CF032FB57
:1006C0003A490CF037FCC8F81C00637B207B03F030
:1006D0003F0300EB03200CF025FB34490CF02AFC0F
:1006E000C8F8200039E7D0F80821002A7FF435AF98
:1006F000002B7FF432AF637A207A03F03F0300EBE4
:1007000003200CF00FFB29490CF014FCC8F824005E
:10071000E37AA07A03F03F0300EB03200CF002FB26
:1007200022490CF007FCC8F82800637B207B03F00B
:100730003F0300EB03200CF0F5FA1C490CF0FAFB28
:10074000C8F82C0009E7D0F80821002A7FF405AF8B
:10075000002B7FF402AF637A207A03F03F0300EBB3
:1007600003200CF0DFFA11490CF0E4FBC8F830006C
:10077000E37AA07A03F03F0300EB03200CF0D2FAF7
:100780000A490CF0D7FBC8F83400637B207B03F0E8
:100790003F0300EB03200CF0C5FA04490CF0CAFB40
:1007A000C8F83800D9E600BF0000A04000007A4435
:1007B00090F8F000704700BF90F8EC00704700BF61
:1007C00090F8F400704700BF90F8F800704700BF41
:1007D000102994BF50F82100002070472DE9F04106
:1007E0000C4E8046051F00F12C0755F8044F31468A
:1007F00020460CF089FC034620462BB1D8F8E410C3
:100800000CF0A0FC00B12646BD42EED13046BDE85A
:10081000F08100BF000020412DE9F843D0F8E480CA
:100820000F4F4FF00009051F00F13C0655F8044F2B
:10083000414620460CF086FC0346394620464BB123
:100840000CF062FC0346494620461BB10CF07AFCD2
:1008500000B1A146B542E9D14846BDE8F88300BFE2
:100860000000A0402DE9F84FD0F8E490144F8346E3
:100870000026051F00F13C084FF0000A55F8044F10
:10088000494620460CF05EFC0346394620464BB1F3
:100890000CF03AFC30B1304621460CF08FF90AF1E9
:1008A000010A06464545E9D1CBF804A150460CF0B3
:1008B00039FA014630460CF03DFBBDE8F88F00BF29
:1008C0000000A040D0F80401704700BFD0F8080134
:1008D000704700BF38B5D0F8C850D0F8C44029469A
:1008E00020460CF011FC00B92C46204638BD00BF54
:1008F00038B5D0F8C850D0F8C440294620460CF08E
:1009000021FC00B92C46204638BD00BF70B5D0F898
:10091000C4601249054630460CF014FCD0B1304694
:1009200000210CF04BF901240646D5F8C8500B49BC
:1009300028460CF007FC28B1304629460CF03EF959
:100940000134064620460CF0EDF9014630460CF025
:10095000F1FA70BD04460026E7E700BF000020C2A0
:100960002DE9F0470026D0F8E490104FC0F8C060A1
:100970008246051F00F13C0855F8044F49462046C1
:100980000CF0E0FB03463946204653B10CF0BCFBAB
:1009900003462146304623B10CF010F90646CAF84A
:1009A000C0004545E8D13046BDE8F0870000A040D2
:1009B00003299ABF00EB8100D0F8C40000207047E3
:1009C0003E2998BF80F80011704700BFD0F80C0195
:1009D000704700BF90F8E800704700BF90F8E9004A
:1009E000704700BFC0F8FC10704700BF80F8E810E7
:1009F000704700BF80F8E910704700BFC0F8E410EE
:100A0000704700BFA0F81411704700BF70B500F523
:100A10008A45064600F12C041435204604F58C74F2
:100A2000FFF71AFDAC42F8D106F5A275012428465D
:100A30000021FFF7DBFF214628460134FFF7C0FF06
:100A40003F2C05F58C75F2D10749716106F580439D
:100A50000022B26105480649F06100223162304649
:100A600083F81C2570BD00BF00007A440000484395
:100A70000000C8C270B500F58A4600F5A2741436AD
:100A8000002508E001252046002104F58C74FFF7BD
:100A9000B1FFB4420BD02046FFF79CFF034620462F
:100AA000002BF0D0FFF79AFF0028EBD170BD28464D
:100AB00070BD00BF70B500F5B05600F5A2740C36DD
:100AC00003E004F58C74B4420CD02046FFF782FF9B
:100AD00005460028F5D02046FFF778FFC307F0D57C
:100AE000284670BD0025284670BD00BFF8B500F54A
:100AF0008047002300F58A46C7F8203500F5A27428
:100B0000143603E004F58C74B44210D02046FFF78D
:100B100061FF0028F6D02046D7F82055FFF7D2FE17
:100B200004F58C740544B442C7F82055EED1D7F8CB
:100B30002005F8BD00F58040D0F81805704700BFCB
:100B400038B50C68154604F00F0C1A464FF48C7338
:100B50000CFB03332C3318440CF10104FFF7B6FCF3
:100B6000012D00D038BD064808F00AFD2146044892
:100B700008F0FEFCBDE8384002480B210BF046BAF5
:100B8000FC89FF1F0C3B0100F0B50C6804F0F00578
:100B9000402D04F00F0483B00E46074604F1010413
:100BA0004AD025DC202D4CD0302D1BD10D2C4FF000
:100BB000020501D8012A28D04FF48C7303FB04747A
:100BC0002C3420460121FFF711FF20460121FFF7B9
:100BD00011FF3B7832462946204603B0BDE8F0407D
:100BE000FFF79ABC7DBB0D2CE6D8012AE4D10CE0BE
:100BF000602D1CD0702D01D10625F4E7502DDBD1DE
:100C00000D2C4FF00405D5D9D6E7214610480192A6
:100C100008F0AEFC019A0F4811460BF0F7F929468F
:100C20000B4808F0A5FC0A4808F0AAFCC4E70D2C04
:100C30004FF00505BED9BFE70D2C4FF00305B9D91C
:100C4000BAE70125CFE70D2CB6D8062DB2DDB3E704
:100C5000FC89FF1F183B01002DE9F04F0023DFF84E
:100C60006491DFF86481594F436083B0064600F514
:100C7000A274012504E001353F2D04F58C7468D081
:100C80002046FFF7A7FE0028F5D0484607F01CF8DD
:100C90002946404607F018F82046FFF761FE0BF0A2
:100CA00071FE02460B46384607F00EF82046FFF765
:100CB00095FD82462046FFF7AFFD834650460BF078
:100CC00061FE0246584692468B460BF05BFE5B4641
:100CD0005246CDE900013E4806F0F6FF00212046CD
:100CE000FFF766FE012182462046FFF761FE83463C
:100CF00050460BF047FE0246584692468B460BF094
:100D000041FE5246CDE900015B46324806F0DCFF69
:100D10002046FFF725FE014670680BF04FFF70601C
:100D20002046FFF7D7FDF1690CF0EEF9002833D12A
:100D30002046FFF7DDFD316A0CF004FA00289AD056
:100D40002046FFF7D5FD01353F2D306204F58C7448
:100D500096D1B0680BF0E6FF014670680CF0EAF837
:100D6000B169706004460CF0EDF900B1B4617169CD
:100D700020460CF0C9F900B174610B2009F0FAFAB1
:100D800006F5804696F81C3558B9B3B1012386F8AC
:100D90001C3503B0BDE8F08F2046FFF79BFDF061E6
:100DA000C6E72BB9002386F81C3503B0BDE8F08FE9
:100DB000094806F09BFF0023F5E7084806F0AAFF64
:100DC000E4E700BFE84101001C3B0100583B010083
:100DD0006C3B0100983B0100EC3B0100B43B01007F
:100DE00070B5124BC36000F58A45064600F5A27443
:100DF000143503E004F58C74AC4214D02046FFF7A0
:100E0000E9FD0028F6D02046FFF7E8FCF1680CF079
:100E10007BF90028EED02046FFF7E0FC04F58C7447
:100E2000AC42F060EAD1F06870BD00BF0000A040A5
:100E300070B5002300F58A450646036100F5A274EB
:100E4000143503E004F58C74AC4214D02046FFF74F
:100E5000C1FD0028F6D02046FFF7DEFC31690CF01A
:100E600071F90028EED02046FFF7D6FC04F58C740B
:100E7000AC423061EAD1306970BD00BF4068704754
:100E800001707047816070472DE9F04100F58A4597
:100E90008846174600F5A27414351EB203E004F527
:100EA0008C74AC4214D02046FFF794FD0028F6D095
:100EB00020464146FFF796FD20463946FFF79EFD46
:100EC0002046314604F58C74FFF79CFDAC42EAD114
:100ED000BDE8F0812DE9F04700F580462E4A2F4B02
:100EE0008262002700F58A454362DFF8B4A0C6F8A5
:100EF0001875814600F5A27414354FF0000803E020
:100F000004F58C74A54216D02046FFF763FD002837
:100F1000F6D0D6F8183501332046C6F81835FFF755
:100F2000F5FC51460CF00EF980B904F58C74A5421D
:100F300007F10107E8D1D6F81805C01B0BF0F2FE47
:100F4000014640460BF0F6FFBDE8F0872046FFF76C
:100F5000DDFC014640460BF031FE80462046FFF79F
:100F6000C7FCD9F824100CF0EDF870B92046FFF753
:100F7000B1FCD9F828100CF0C7F80028C0D02046E2
:100F8000FFF7A8FCC9F82800BAE72046FFF7B0FC35
:100F9000C9F82400EAE700BF00C0794400C079C462
:100FA00000008CC2406A7047806A7047F8B500F54F
:100FB0008A460746002500F5A274143603E004F5BE
:100FC0008C74B44210D02046FFF704FD0028F6D000
:100FD0002046FFF747FC014628460BF0EFFD04F5DD
:100FE0008C74B4420546EED107F58047D7F8180552
:100FF0000BF098FE014628460BF09CFFF8BD00BFA1
:101000002DE9F04F93B08046AC480D9108F580472C
:1010100006F000FEA94806F0FDFD08F58A44A74841
:1010200006F0F8FD08F5A275D7F818250C920023F4
:101030001434C7F820352E46A14603E006F58C7619
:101040004E4510D03046FFF7C5FC0028F6D030469C
:10105000D7F82045FFF736FC06F58C7620444E4540
:10106000C7F82005EED1D8F804000BF08BFC4C46F5
:10107000CDE90E01D7F820B5D8F808A00026A9467A
:1010800003E009F58C79A14510D04846FFF7A2FC92
:101090000028F6D04846FFF7E5FB014630460BF046
:1010A0008DFD09F58C79A1450646EED1D7F81805D6
:1010B0000BF038FE014630460BF03CFF0BF062FCB3
:1010C00002460B464046CDE91023D8F80C40D8F82C
:1010D0001060FFF7FFFE0BF055FCCDE90A01214639
:1010E00030460BF069FD76490BF070FE0BF04AFCC0
:1010F000CDE9080130460BF045FCCDE9060120465C
:101100000BF040FCDDE91023CDE90223DDE90E34CC
:10111000CDE90401CDE900340C996A486A4E534682
:101120005A4606F077FD654806F074FD00234FF03F
:1011300001080C9307E008F10108B8F13F0F05F52D
:101140008C7500F0B3802846FFF744FC0028F2D0ED
:101150002846FFF72DFB2846FFF72EFB2846FFF712
:101160002FFB2846FFF730FB082158480AF04EFFB6
:101170004146304608F0FCF9B8F1090F40F3998078
:1011800002215348DFF84CA10AF040FF2846FFF740
:10119000E7FB0BF0F7FB9DF83490CDF800900B4681
:1011A0000246304608F010FA4B4801210AF02EFFA3
:1011B0002B46DDF830B04D46002499461FE006214D
:1011C00046480AF023FF5946304608F0D1F902217B
:1011D00043480AF01BFF21464846FFF7F9FA0BF097
:1011E000D1FB009502460B46304608F0EDF901347C
:1011F000394801210AF00AFF102C0AD0BB46BBF186
:10120000090F0BF10107DADC012150460AF0FEFE5E
:10121000D5E7304608F0B4F9092132480AF0F6FE65
:1012200000214846FFF7C4FB0BF0ACFB0227024647
:101230000B460097304608F0C7F90A212A480AF001
:10124000E5FE01214846FFF7B3FB0BF09BFB00973F
:1012500002460B46304608F0B7F90C2123480AF045
:10126000D5FE4846FFF7B2FB002322460146304632
:1012700008F09EF908211E480AF0C8FE4846FFF70C
:1012800025FB002301462246304608F091F90C9BCD
:101290003046103308F101084D460C9308F070F900
:1012A000B8F13F0F05F58C757FF44DAF13B0BDE875
:1012B000F08F012107480AF0A9FE61E7E84101002B
:1012C00000007A449C3E0100FC89FF1F3C3F010066
:1012D00080430100BC3F0100483F01004C3F01003A
:1012E000AC3F0100543F0100603F01006C3F010032
:1012F0007C3F01002DE9F04F87B000F5A275DFF8C3
:101300002492DFF824A20391049298462E460127E6
:101310000595934604E001373F2F06F58C7675D08E
:101320003046FFF757FB0028F5D000230A22039927
:10133000484608F03DF9012150460AF067FE58463C
:101340000BF020FB0B46002102460091484608F0B6
:101350003BF9012150460AF059FE4146484608F043
:1013600007F9012150460AF051FE3946484608F077
:10137000FFF8012150460AF049FE002402252146CB
:101380003046FFF725FA0BF0FDFA009502460B46B2
:10139000484608F019F90134012150460AF036FE9A
:1013A000082CECD100213046FFF702FB0BF0EAFAE3
:1013B000009502460B46484608F006F901215046C2
:1013C0000AF024FE01213046FFF7F2FA0BF0DAFAB8
:1013D000009502460B46484608F0F6F801215046B3
:1013E0000AF014FE02213046FFF7E2FA0BF0CAFAC7
:1013F000009502460B46484608F0E6F80137484695
:1014000008F0BEF83F2F06F58C7689D1059D474F31
:10141000DFF8149101264FF0000B04E001363F2E57
:1014200005F58C757AD02846FFF7D4FA0028F5D058
:1014300000230A220399384608F0BAF801214846E9
:1014400009F0B8FA04980BF09DFACDF800B0024606
:101450000B46384608F0B8F80121484609F0AAFAC8
:101460004146384608F084F80121484609F0A2FABE
:101470003146384608F07CF80121484609F09AFACE
:1014800000244FF0020A21462846FFF7A1F90BF08D
:1014900079FACDF800A002460B46384608F094F8D9
:1014A00001340121484609F085FA082CEBD10021CE
:1014B0002846FFF77DFA0BF065FACDF800A002464A
:1014C0000B46384608F080F80121484609F072FAC8
:1014D00001212846FFF76CFA0BF054FACDF800A072
:1014E00002460B46384608F06FF80121484609F0DD
:1014F00061FA02212846FFF75BFA0BF043FACDF8B8
:1015000000A002460B46384608F05EF80136384621
:1015100008F036F83F2E05F58C7584D107B0BDE88C
:10152000F08F00BFFC89FF1F183B0100BC88FF1F24
:1015300070B5132008F01EFF58B9114C08F064FF75
:101540002268104B801A80B2188008F05DFF20607E
:1015500070BD0C4D0A4B2C881E6808F055FFA4B2D4
:101560003444201A2A880849C0EB00139B0092B229
:10157000A3F63403B3FBF2F39BB20B8070BD00BF44
:10158000B8D9FF1FB0D8FF1FCC91FF1FDDF800C0F6
:10159000521AACEB030C1CD0401ABCF1000F0CFB30
:1015A00000F002EBD27109DB00EB610000FB02F1FD
:1015B000002990FBF2F0184410DB7047A0EB6100AB
:1015C00000FB02F1002990FBF2F01844F5DB01303A
:1015D00070470CEBDC7C03EB6C0070470138704704
:1015E00038B5044649B108460D460CF0A9FD2368FC
:1015F00002465B682946204698472046BDE83840A9
:1016000007F0BEBF2DE9F0474B484C4E4C4CDFF87D
:1016100034814D4F06F0FEFA4C4B4D491962596129
:1016200059644C49D9624C491963002199634FF4BC
:10163000FA7199864949D963494919644FF07C5137
:10164000D96448491965484959654849596040F283
:10165000012119810C219965454959624FF4967110
:101660005966196740F61C4159671E610A21414EAF
:1016700099679E6141F204013F4EDC600022012027
:10168000642540F21124D9679E6232213B4E1C80B2
:101690004FF05A094FF0960A83F84820D865D9666A
:1016A000DE611D66A3F868A0C3F88090C3F89810A7
:1016B000C3F8B810FF210224C3F88420C3F88C00BB
:1016C000C3F8C000C3F8902040F20110C3F8B42062
:1016D000C3F8BC1083F8D6204FF47A71A3F8D82051
:1016E00044F62062DFF898E0264EDFF89CC0C3F88D
:1016F0008840C3F8C440A3F8D40041F288343C20A9
:10170000C3F89C10C3F8A8205521F022C3F8A0808C
:10171000C3F8A4E0C3F8AC70C3F8C850C3F8CC60F9
:10172000C3F8D0C0C3F89440A3F8B000C3F8DC10ED
:10173000C3F8E020BDE8F087883F0100000040408A
:101740006666864000006842D606D606C0D9FF1FEE
:10175000CDCC4C3E00008242000020C1000020425F
:101760000000A0409A9979400AD7233D20A10700A4
:101770003333734033338340CDCCCC3DCDCC4C4060
:1017800000C02044881305009A99993E70B5454DD4
:10179000454C4648E66800232B70FFF749FB01469D
:1017A00030460BF0B1FC08B104232B703F48FFF723
:1017B00017FB21690BF0A8FC18B12B7843F010033C
:1017C0002B703A48FFF7EEFBE16A0BF0BBFC18B157
:1017D0002B7843F040032B70002334486B70FFF7E5
:1017E000E3FB216B0BF090FC08B101236B7000232D
:1017F000EB702E48FFF71CFB06462C48FFF7F0FA6B
:10180000014630460BF0D8F9616C0BF09BFC08B137
:101810000123EB70264D254800232B70FFF708FBB2
:10182000A16A0646E0680BF0C7F9014630460BF0A6
:1018300089FC08B104232B701C48FFF7D1FAA16A78
:10184000064620690BF0BAF9014630460BF05CFC05
:1018500018B12B7843F010032B701448FFF7A2FB4C
:10186000216C0646E06A0BF0A7F9014630460BF002
:1018700069FC18B12B7843F040032B7000236B7088
:101880000A48FFF791FB216C0346206B1C460BF0C6
:1018900095F9014620460BF037FC08B101236B7027
:1018A00070BD00BFD491FF1FC0D9FF1FE891FF1F7B
:1018B000BCDAFF1F534B1B68002B7CD0F0B5524E97
:1018C00030680530B0F57A7F83B070DC30600BF0A3
:1018D00029FA4E490BF07AFA07464D4DD5F8B80073
:1018E0000BF020FA0446D5F8BC000BF01BFA214699
:1018F0000BF062F939460BF069FA46490BF01AFB16
:1019000021460BF05BF90BF027FC0146062008F09E
:101910008FFB022140480AF079FB404807F030FE77
:1019200006213F480AF072FB30680BF0FBF937499B
:101930000BF04CFA0BF026F8022702460B460097F4
:10194000364807F041FE0D2136480AF05FFBD5F816
:10195000B8000BF0E7F9044630680BF0E3F92B49C7
:101960000BF034FA0346D5F8BC001D460BF0DAF94B
:1019700021460BF021F9014628460BF027FA2549AC
:101980000BF0D8FA21460BF019F90AF0FBFF00978B
:1019900002460B46214807F017FE39461E480AF05A
:1019A00035FB1E4803B0BDE8F04007F0E9BD002359
:1019B0000027336091E7164B1B48D3F8B810D3F8D3
:1019C000BC2003681948521A002A02FB03F30BDB00
:1019D000323380FB0320DA17C2EB6012002B114474
:1019E0000DDB062008F024BB323B80FB0320DA1716
:1019F000C2EB6012002B1144F3DB0131F1E7013936
:101A0000EFE700BFBCD8FF1FC091FF1FCDCCCC3D7E
:101A1000C0D9FF1F0000C84280430100FC89FF1F9E
:101A2000A83F0100B03F01002488FF1F1F85EB5134
:101A300030B5A748A74C85B007F0A2FDA44807F031
:101A40009FFDA34807F09CFDA3480D210AF0DEFA94
:101A5000D4F8B430012B11D0A04D9D482978002333
:101A60000A2207F0A5FD2B78052B4FD8DFE813F0ED
:101A7000C401C901CE01BA01BF01B50109219848CD
:101A80000AF0C4FA9748FFF7ABF921690BF03CFB69
:101A9000002840F0DE819348FFF7CAF9E1680BF0B7
:101AA00051FB002840F0E9818E48FFF7C1F9054657
:101AB0008C48FFF795F9014628460BF07DF8616CDC
:101AC0000BF040FB002840F0D3818648FFF702FA74
:101AD000E16A0BF037FB002840F0C5818148FFF731
:101AE000F9F9216B0BF010FB002840F0B7817E4B19
:101AF0007C481B68012B00F0A081FFF771F9216978
:101B00000BF020FB002840F08681744D77480221BD
:101B10000AF07CFA122008F02DFC012800F00A815E
:101B2000112008F027FC012800F00E81704B1C6882
:101B3000012C00F0128102216C486E4C0AF066FA0A
:101B40006D4B6348196807F013FD614807F018FDF5
:101B500004216A480AF05AFA0B2008F00BFC002313
:101B600001460A225A4807F023FD0C2008F002FC27
:101B7000002301460A22564807F01AFD142008F0F7
:101B8000F9FB002301460A22514807F011FD1520F8
:101B900008F0F0FB0A22014600234D4807F008FD3B
:101BA000062157480AF032FA2368D8074BBF0121B3
:101BB0000121544854480AF029FA236899074BBF79
:101BC000012101214F4850480AF020FA23685A07A2
:101BD0004BBF012101214B484B480AF017FA2368FB
:101BE0001B074BBF01210121464847480AF00EFA66
:101BF000042146480AF00AFA112008F0BBFB002332
:101C000001460A22324807F0D3FC102008F0B2FB4C
:101C1000002301460A222E4807F0CAFC122008F0D1
:101C2000A9FB002301460A22294807F0C1FC132022
:101C300008F0A0FB0A2201460023254807F0B8FC63
:101C4000182133480AF0E2F9324B18880BF06AF891
:101C500031490BF0BBF80AF095FE002402460B4612
:101C600000941B4807F0B0FC1D212C480AF0CEF967
:101C70002B4B18680BF056F827490BF0A7F80AF021
:101C800081FE00940B4602461148264C07F09CFC4E
:101C9000254802210AF0BAF92B78032B02D02388B9
:101CA0009BB29BB1172121480AF0B0F9218808485E
:101CB00089B207F05DFC1C4802210AF0A7F92B78D5
:101CC000032B03D11A4B1B78002B68D105B030BD14
:101CD000FC89FF1FC0D9FF1FC03F01000CD7FF1FA9
:101CE000D03F0100E891FF1FA4DAFF1F80430100ED
:101CF000DC91FF1F94D7FF1F14D7FF1FCC400100BA
:101D0000D4400100DC400100E0400100E44001005B
:101D1000EC40010018D7FF1FCDCCCC3D084101009D
:101D2000ACD8FF1FCC91FF1F284101002C410100BE
:101D30008491FF1F0E215A480AF068F9112008F01B
:101D400019FB01287FF4F2AE56480A210AF05EF929
:101D5000554B1C68012C7FF4EEAE112153480AF05C
:101D600055F9214652480AF051F9524A524B12682D
:101D700003921868039BC01A0AF0D0FF4F490BF07A
:101D800025F80AF0FFFD0B460021024600914C4861
:101D900007F01AFC214646480AF038F9CBE60B2139
:101DA00048480AF033F9484B4548198889B207F08A
:101DB000DFFB112145480AF029F9454B40481988B5
:101DC00007F0D6FB434B1B78002B65D14248192105
:101DD00005B0BDE830400AF019B907213F480AF0C4
:101DE00015F993E608213E480AF010F98EE60B211A
:101DF0003C480AF00BF989E606213B480AF006F94F
:101E000084E6072139480AF001F97FE607213848BE
:101E10000AF0FCF87AE63748374DFFF709F8E16831
:101E20000BF072F900283FF471AE2B78052B0BD123
:101E30000A2132480AF0EAF868E6FEF7D1FF616A43
:101E40000BF080F9F0B92C4D2D4808210AF0DEF88E
:101E50005CE60F212B480AF0D9F81CE60D212A4830
:101E60000AF0D4F843E60C2128480AF0CFF835E60A
:101E7000112127480AF0CAF827E60E2125480AF062
:101E8000C5F811E6162124481B4D0AF0BFF81B487F
:101E90000A210AF0BBF839E620481D2198E700BF67
:101EA00098400100A8400100DC91FF1FB4400100F0
:101EB000C8400100C8DCFF1FE491FF1F6F12833A86
:101EC000FC89FF1F44410100B0D8FF1F50410100B1
:101ED00024D7FF1F1AD7FF1F644101009040010063
:101EE0008440010070400100604001006840010032
:101EF0007C400100E891FF1F0CD7FF1F4840010004
:101F000054400100DC3F010020400100104001006E
:101F1000FC3F0100EC3F0100304001008041010026
:101F20002DE9F047B54CD4F88860012E8CB000F054
:101F30004581032E5DD0DFF8C882B24FB24ED4F88F
:101F40008430B248012B09BF3168316801F100418A
:101F5000316007F0B9F83B68002B40F01581AB48C1
:101F600007F086F83B68C8F800000546002B40F0F3
:101F7000FB80D4F88830012B00F0BA80A4492846B1
:101F80000BF0E0F830B9A34928460BF0BDF8002863
:101F900000F0DF81DFF880A2DFF88092DAF800300D
:101FA0000A930A98D9F800309D4FC01A0AF0B6FE7D
:101FB00029460AF00BFF9B490AF0BCFF99490AF039
:101FC000B9FF39680AF0FAFDDAF800300993099B85
:101FD0003860C9F80030D4F8C0000AF0A3FE2946E2
:101FE0000AF0F4FE0023C8F8000033600CB0BDE82E
:101FF000F0878D4D8D4F2A68DFF80482D2F8840077
:1020000001230F213B6006F01DFF3B687D4F012B34
:102010003B6800F02B81002B40F0AE812B68DFF88D
:102020001092D3F88400436B1E69B6B2C9F8006001
:1020300006F050FCB4F8AE2040F6E44306FB03F390
:10204000B3FBF0F0801A00B20AF06CFE7949064644
:10205000D4F8A0000AF0BAFE014630460AF06AFF42
:10206000D9F80030684E632B306000F3798100238B
:1020700033603B68002B3FF462AF02216E4809F0E9
:10208000C5FF2B68D9F80050D3F8840040F6E4432C
:1020900003FB05F506F01EFCB5FBF0F00AF03EFE72
:1020A0000546B4F8AE000AF03DFE014628460AF0A7
:1020B00083FD0AF067FC022502460B4600955F4847
:1020C00007F082FA29465C4809F0A0FF30680AF060
:1020D00059FC009502460B46584807F075FA294608
:1020E000574809F093FF2946534809F08FFF26E728
:1020F0004E4B1B68012B00F07481022B7FF46BAFF9
:10210000D4F8A87038460AF00DFE29460AF0FCFF04
:1021100040B978420AF006FE29460BF013F8002871
:1021200000F0CD81DFF8F0A0DFF8F090DAF80030B1
:1021300007930798D9F80030394FC01A0AF0EEFD1E
:1021400029460AF043FE37490AF0F4FE35490AF001
:10215000F1FE39680AF032FDDAF800300693069B8A
:102160003860C9F8003036E70AF00CFC0B46022153
:1021700002460091314807F027FA3248042109F05D
:1021800045FFD8F80050F4E6204806F071FF0AF049
:10219000F9FB0B46022102460091284807F014FA89
:1021A0000321294809F032FFD4F8A810234807F08A
:1021B000DFF90321244809F029FFD0E6DFF8408049
:1021C000D4F8A870D8F8005038460AF0ABFD29467C
:1021D0000AF0B8FF002839D078420AF0A3FD014682
:1021E00028460AF0AFFF88B30F4D104F2B683E60B2
:1021F000D3F884000F2106F025FE06E7C0D9FF1FA3
:10220000A4D8FF1FA8D8FF1FB091FF1FECD8FF1F55
:102210000000FA430000FAC3C8DCFF1FE0D8FF1F2C
:10222000D891FF1F00007A44D091FF1F7488FF1FD0
:10223000B0DAFF1F9175DD3680430100FC89FF1F76
:10224000DC410100E4410100E04101009F4FA04D4D
:1022500002233B602B680E21D3F8840006F0F2FDC8
:102260003B689C4F012B3B687FF4D5AE002B40F0C0
:10227000E5802B68DFF86092D3F88400436B1E6919
:10228000B6B2C9F8006006F025FBB4F8AC3040F6F1
:10229000E44A0AFB06F6B6FBF0F6F01A00B20AF0C2
:1022A00041FD8E490646D4F8A4000AF08FFD014690
:1022B00030460AF03FFE2B68894E0246D3F8840070
:1022C000D9F8003032600AFB03FA06F003FBB4F8D9
:1022D000AC20BAFBF0F31BB29B1A002BB4F8CE2053
:1022E000B8BF5B429A42C4BF002333603B68002BF7
:1022F0003FF425AE02217B4809F088FE2B68D9F80F
:102300000050D3F8840040F6E44303FB05F506F0E3
:10231000E1FAB4F8AC10B5FBF0F52DB2691A7248C9
:1023200007F026F902216F4809F070FE30680AF0C4
:1023300029FB022502460B4600956B4807F044F93D
:1023400003216A4809F062FE2946664809F05EFEEC
:10235000F5E5674B1B680B93664B0B9A1A603AE6E0
:102360002B68D3F8840006F0B5FAD9F80030643849
:102370009842FFF47CAE7CE65B48DFF85C9107F0A6
:10238000FFF80C215C4809F041FE5C480C2109F083
:102390003DFE2B683A68D3F88400436B1E69B6B2E1
:1023A000C9F80060002A3FF443AE06F093FA40F605
:1023B000E442002306FB02F2B2FBF0F10A224A4893
:1023C00007F0F6F80221474809F020FEB4F8AE10F5
:1023D000454807F0CDF82B68D9F80060D3F88400A1
:1023E00026E6474928460AF0ADFE28B94549284661
:1023F0000AF08AFE00285BD0DFF8F4A0DFF8F49042
:10240000DAF8003004930498D9F800303E4FC01A2F
:102410000AF084FC29460AF0D9FC3C490AF08AFDFE
:102420003A490AF087FD39680AF0C8FBDAF800304B
:102430000393039B3860C9F80030CCE52A48DFF8E5
:10244000989007F09DF8D4F88830012B0CBF3048E5
:1024500030480B2109F0DAFD28480C2109F0D6FD9F
:102460002A683B68D2F88400426B1669B6B2C9F894
:102470000060002B3FF407AF06F02CFA40F6E4436F
:1024800006FB03F30A22B3FBF0F10023164807F022
:102490008FF80121204809F0B9FDB4F8AC101248BA
:1024A00007F066F82B68D9F80060D3F88400EAE6F4
:1024B0000F4B1B6805930F4B059A1A608BE50C4B6D
:1024C0001B6808930B4B089A1A6084E57488FF1FF9
:1024D000D091FF1FA8D8FF1FB0DAFF1F9175DD361E
:1024E000B091FF1F80430100FC89FF1FC84101001C
:1024F000C8DCFF1FE0D8FF1FCC410100B84101003C
:102500000000FA430000FAC3D891FF1F00007A448C
:10251000A0410100AC410100BC3F01002DE9F04F9A
:10252000AB4DAC4C2B68012B87B000F00C81AA4E50
:10253000AA4FDFF8AC92D9F80030002B00F0A7804A
:10254000D4F860B0E56DDFF89C82A74938680AF0DE
:102550003DFC05FB0BF581464FF47A7005FB00F05E
:102560000AF0E0FB014648460AF0E4FC9F490AF005
:102570002DFC0AF0F1FDD4F890303060012B0546B7
:1025800056D0D4F88830002B52D0632D74DDE36D23
:10259000206E03FB00F04FF47A7303FB00F00AF0A7
:1025A000C1FB91490AF0C6FC64233360D8F80030BF
:1025B0003860002B68D0D4F88830012B00F0EB8015
:1025C000032B00F0F680022B00F0FC8002218848EB
:1025D00009F01CFD874B18680AF0D4F90224024662
:1025E0000B460094844806F0EFFF2146834809F02B
:1025F0000DFD21467E4809F009FD31687E4806F050
:10260000B7FF06217E4809F001FD386876490AF0D7
:10261000DDFB0AF0B7F9009402460B46764806F057
:10262000D3FF7848032107B0BDE8F04F09F0EEBCB6
:102630007548FEF7D5FB75490AF0C8FB0AF0B2FDF4
:10264000D4F88050E26F616FA36F009580B2FEF7FF
:102650009DFF05463060206EE36D05FB00F003FB37
:1026600000F000EB800040000AF05CFB5E490AF0DD
:1026700061FC632D38608ADC002DBCBF0023336011
:10268000D8F80030002B96D107B0BDE8F08FDFF806
:1026900080A1DAF80030002B37D0D4F860B0E56DB7
:1026A000DFF84081012B7FF450AF306800FB0BF066
:1026B00005FB00F000EB8000564D40000AF032FBB5
:1026C00049490AF037FC2B680493049A386042F2B7
:1026D00028339A4200F2E7802B680593059A42F26C
:1026E00010739A420DD9D8F800300122C9F80020A1
:1026F000002B40F0E180D4F8B430012B04BF464AEF
:102700001370D4F860B0E56D1FE7424D2A6802925D
:10271000029A42F228339A4200F2BC802B6803935B
:10272000039A42F210739A4200F28280D9F8003084
:10273000D4F860B0E56DDFF8AC80002B7FF405AF16
:10274000DAF80030AEE73048FEF74AFB2F49E66F73
:10275000A76F0AF03BFB0AF025FD3246D4F88060F3
:10276000616F00963B4680B2FEF710FF1A4E236E53
:10277000306003FB00F0E36D184F03FB00F000EB4B
:10278000800040000AF0CEFA17490AF0D3FB00237C
:1027900038602B60CDE6214B1B68012B0CBF204815
:1027A00020480A2109F032FCD4F88830032B7FF44A
:1027B0000AAF1D48102109F029FCD4F88830022BFB
:1027C0007FF404AF0721194809F020FCFEE600BFA2
:1027D000B891FF1FC0D9FF1F2488FF1FD891FF1F8A
:1027E000BC91FF1F4888FF1FE4388E3E0000C8429E
:1027F00080430100A4D8FF1FFC89FF1FDC410100BA
:102800007C42010084420100E891FF1F00007A44ED
:10281000B491FF1FC8DCFF1F0CD7FF1F7488FF1F78
:10282000484201005442010060420100744201002C
:102830003648DFF8DC80FEF7D3FA36490AF0C6FAEC
:102840000AF0B0FCD4F88050A36FE26F616F00957E
:1028500080B2FEF79BFED4F860B0E56D30600BFBF4
:1028600000F005FB00F000EB800040000AF05AFA8F
:1028700029490AF05FFBD8F8003038600122C9F816
:10288000002043BBD4F8B430012B7FF45EAE234A62
:1028900013705AE6B4F9D830E26C94F848101B482B
:1028A000FEF7F2FA3AE7B4F9D830E26C94F848103F
:1028B0001648FEF7E9FA0FE70221194809F0A6FBCE
:1028C000184806F05DFE5921174809F09FFB15488E
:1028D00006F056FE0FE70221114809F097FB114858
:1028E00006F04EFE5921104809F090FB0D4806F005
:1028F00047FED4F8B430D4F860B0E56D012B04BFC6
:10290000064A1370D9F8003017E700BFE891FF1F9F
:102910004888FF1F00007A44E4388E3E0CD7FF1F22
:1029200080430100FC89FF1FEC41010030B51120FC
:1029300083B007F01FFD012804D0122007F01AFD14
:10294000012822D10121152007F0EEFC2A4B2B4A49
:102950002B4C1B682B4D116801930222D4F8943044
:102960002A60019A0B44934208D8D4F89C000AF0DC
:10297000D9F9254B19680AF0C7FBD0B101210C2009
:1029800003B0BDE8304007F0CFBC00210B2007F0BA
:10299000CBFC00210C2007F0C7FC0021152007F01C
:1029A000C3FC1A49174B0120002208701A6003B0BB
:1029B00030BD01210B2007F0B7FC94F8D43003247C
:1029C0002C604BB1114B02221A7000210C2003B075
:1029D000BDE8304007F0A8BC122007F0CBFC01286E
:1029E00008BF0A4B4FF0110008BF1C7007F0C2FC73
:1029F0000128EAD1E6E700BFC8DCFF1FA891FF1F4E
:102A0000C0D9FF1F90D7FF1FA4D8FF1F0CD7FF1FEF
:102A1000F0B5714E714C33682568AB4287B02DD04C
:102A200013F001014BD013F002015FD013F0040149
:102A300051D0DA070ED52268D7070BD4684D2A6823
:102A4000002A00F09380674B1B680193019B93421F
:102A50007FD833689D0714D4590722D522685207BE
:102A60000DD4614F3A68002A00F09E805D4B1B68D0
:102A70000593059B934200F286803568A5B107B0A7
:102A8000F0BD226890073DD4584D2A68002A49D0ED
:102A9000544B1B680393039B9A4236D33368590700
:102AA000DCD41D46002DEAD12946162007F0C0FAD5
:102AB0002946172007B0BDE8F04007F0B9BA162044
:102AC00007F0B6FA2268336802F0FE0213F0020142
:102AD0002260ABD10AE0052007F0AAFA2268336829
:102AE00002F0FB022260DA07B4D5A4E7172007F052
:102AF0009FFA2268336802F0FD0213F0040122609D
:102B000097D1E8E75B07AAD4B9E7394B1720D3F888
:102B1000981007F08DFA2368002243F00203236027
:102B20002A60BBE7334806F02BFD0C21324809F040
:102B30006DFA304806F024FDFF21172007F078FADF
:102B4000284B2E491A680292029A09680A442A60A0
:102B50009FE7274B1620D3F8981007F069FA2368EF
:102B6000002243F0010323602A6072E7FF21162050
:102B700007F05EFA1B4B21491A680092009A096817
:102B80000A442A6060E71A4B0520D3F8981007F032
:102B90004FFA23683568002243F0040323603A604B
:102BA000002D7FF46CAF7FE7124806F0E9FC0C21A2
:102BB000134809F02BFA0F4806F0E2FCFF2105202C
:102BC00007F036FA074B0D491A680492049A09680F
:102BD0000A443A604BE700BF90D7FF1F94D7FF1F0E
:102BE00098D7FF1FC8DCFF1FA0D7FF1F9CD7FF1F70
:102BF000C0D9FF1FFC89FF1F884201006488FF1FA6
:102C0000984201002DE9F84F534EDFF850A1336888
:102C1000DFF84C91D3F88400524D0F2106F012F9E1
:102C20000123CAF80030504800232221C9F800309F
:102C300009F0ECF9D9F80030132B21DC4B4F40F6AA
:102C4000E4483368B5F8ACB0D3F88400436B1C6932
:102C500005F040FEA4B2012108FB04F4B4FBF0F43B
:102C60003846A344A5F8ACB009F0D0F9642007F0C9
:102C7000EBFBD9F800300133132BC9F80030E0DD4D
:102C8000B5F8AC303A493B48A1FB03215B1A01EB94
:102C90005301C1F30F11A5F8AC1006F069FC1D211A
:102CA000354809F0B3F90221344809F0AFF9314849
:102CB00006F066FC00220E213068C9F8002005F0FD
:102CC000B3FD02232848CAF80030222109F09EF9FA
:102CD000D9F80030132B22DCDFF8908040F6E4476F
:102CE0003368B5F8AEA0D3F88400436B1C6905F0D7
:102CF000F1FDA4B2012107FB04F4B4FBF0F440465B
:102D0000A244A5F8AEA009F081F9642007F09CFB6D
:102D1000D9F800300133132BC9F80030E0DDB5F8E5
:102D2000AE3013491348A1FB03215B1A01EB530199
:102D3000C1F30F11A5F8AE1006F01AFC1D211048C2
:102D400009F064F90D48022109F060F9BDE8F84F77
:102D5000084806F015BC00BFD091FF1F7488FF1F04
:102D6000C0DAFF1FC0D9FF1FA8420100CC420100FA
:102D700087611886FC89FF1FD04201008043010053
:102D8000F04201002DE9F041A44DD5F8C430062BE6
:102D900000F06A81A24BA34C1B68A86D40F2513130
:102DA00008222160E271002B00F0338109F0BAFFA4
:102DB000696A06460AF00AF89B490AF007F80AF021
:102DC000F1F9C2B22272994AE969C0F3072363722A
:102DD00013886381964B30461B88A38109F0F6FF68
:102DE000914909F0F3FF0AF0DDF98E490346914855
:102DF000E38105F0F5FA904A8E4813681288228123
:102E000003EB83038D4A08265B0040F2553112889C
:102E10002160237383496281334100276373E67124
:102E2000E78105F0DDFA40F2563385482360E6710C
:102E3000FEF724F8834909F0C9FF0AF0B3F92072BC
:102E40007F48FEF71BF87F4909F0C0FF0AF0AAF996
:102E50007D4B7C49C0F30720607218680AF06AF85D
:102E60000AF07AF960817648FEF734F86E4909F085
:102E7000ADFF0AF071F920737148FEF72BF86A492B
:102E800009F0A4FF0AF068F940F307206549607370
:102E90006848E78105F0A4FA022007F0D5FA6B4AEA
:102EA0006B4B12681B686348A26040F25A31216084
:102EB0005C49E360E67105F093FA664B59495D4859
:102EC000E67140F25E322260D3E90023A260E36043
:102ED00005F086FA022007F0B7FA5F4B51495548D2
:102EE000E6714FF45C722260D3E90023E360A260D4
:102EF00005F076FA594B1B68012B00F00382022083
:102F000007F0A2FA082640F273334D482360E671B9
:102F1000FDF766FF524909F059FF0AF043F90346ED
:102F200047482372FDF75CFF4D4909F04FFF0AF057
:102F300039F9C0F3072342486372FDF779FF484926
:102F400009F044FF0AF02EF903463D48A372FDF74D
:102F50006FFF434909F03AFF0AF024F9C0F3072351
:102F60003748E372FEF720F83E4909F027FE0AF0E1
:102F700019F9034632482373FEF716F8394909F068
:102F80001DFE0AF00FF9C0F307232D486373FEF707
:102F900009F8344909F012FE0AF004F903462848FA
:102FA000A373FDF7FFFF2F4909F008FE0AF0FAF8B6
:102FB000C0F307201B49E0731E4805F011FA0220F8
:102FC00007F042FA2A6EEB6D13FB02F3C3F30722FC
:102FD00040F279310220216062722372E07107F0C1
:102FE00033FA40F2723316482360E671FDF7A2FD12
:102FF000034613482372FDF79DFD002240FA06F3B5
:1030000063726281E26007490A48BDE8F04105F059
:10301000E7B909F087FEA969CBE600BFC0D9FF1F59
:10302000A4DAFF1F18D9FF1F0000204118D7FF1F87
:10303000ACD8FF1FD4DAFF1F2488FF1F2888FF1F8A
:10304000E891FF1F0000C842A4D8FF1FD491FF1FC2
:10305000BCDAFF1F3488FF1F2C88FF1FDC91FF1F85
:1030600000007A4433938843C04CDFF80483C1489E
:10307000C4F8088008264FF4C36321460027236064
:10308000E671E76005F0ACF9022007F0DDF94FF4D6
:10309000BB632146B7482360C4F80880E671E76047
:1030A00005F09EF9022007F0CFF9E86D2B6EB24AC9
:1030B000A96DA2604FF4AB62226000FB03F201FB3A
:1030C00002F213FB00F313FB01F302EBC20102EB6C
:1030D00081023241227303EBC30203EB82032146D8
:1030E00040F20572A348E2816373E67105F078F956
:1030F000022007F0A9F9A14BA3604FF4B362A04BE3
:103100009C4822602146E360E67105F069F90220DF
:1031100007F09AF99B4BA86D1B68E6714FF4567245
:103120002260002B00F0EA8009F0FCFD696A064687
:1031300009F04CFE944909F049FE0AF033F8E969B8
:10314000C0F30722C3B230462272637209F03EFE1A
:103150008D4909F03BFE0AF025F88C4A8C4B128809
:103160001B88824940BA52BA5BBA60818148A28109
:10317000E38105F035F9022007F066F9854B864AB0
:103180001B681188854803EB8302642505FB03F364
:1031900002EB820208252B419200237262724BBA25
:1031A0004FF476727E49006822606381E57109F010
:1031B0000DFE09F0F7FFF92243BA6C496D48E28130
:1031C000A38105F00DF9022007F03EF94FF48B6062
:1031D0006A4A6649734B20606648A260E360E57105
:1031E00005F0FEF8022007F02FF94FF4A3636E48B4
:1031F0002360E571FDF7D6FE634909F0E7FD09F0AC
:10320000D1FFC0F3072368482372FDF7CBFE5E4968
:1032100009F0DCFD09F0C6FF034663486372FDF761
:10322000C3FE594909F0D2FD09F0BCFFC0F30723E2
:103230005D48A372FDF7B8FE534909F0C7FD09F0D8
:10324000B1FF4FF0FF32034648494A48E260E3725B
:1032500005F0C6F8022007F0F7F84FF49B635248D8
:103260002360E571FDF70AFE474909F0AFFD09F05B
:1032700099FFC0F307234C482372FDF7FFFD424935
:1032800009F0A4FD09F08EFF484A49490346106839
:10329000637209F04FFE09F05FFF43BA4248638151
:1032A000FDF718FE384909F091FD09F055FF40F38C
:1032B00007233D482373FDF70DFE334909F086FDD2
:1032C00009F04AFF40F60302034628492948E281F3
:1032D000637305F085F8022007F0B6F8354A364BDF
:1032E00012681B68E5714FF4AC712160A260E36065
:1032F0001E492048BDE8F04105F072B809F012FD02
:10330000A96914E72848FDF76BFD696D09F056FCC3
:1033100007462548FDF78CFD0146384609F0F4FEC6
:1033200000283FF4ECAD40F2C3331F48E671236040
:10333000FDF756FD2E6D314609F0E6FE00283FD020
:103340001E49304609F042FD09F02CFFC0F3072367
:103350002372C0B240F20142032360720349054860
:103360006281E36005F03CF8C9E500BF18D9FF1F92
:1033700000425944D4DAFF1F031200040000123443
:103380000000044FA4DAFF1F00002041ACD8FF1F4B
:1033900018D7FF1F2488FF1F2888FF1FD891FF1F01
:1033A000620B363B00005678E891FF1FA4D8FF1F40
:1033B0000000C842D491FF1FBCDAFF1F00007A440E
:1033C0000A48FDF70DFD0A4909F000FD09F0EAFE83
:1033D000C0F3072305482372FDF702FD044909F0F5
:1033E000F5FC09F0DFFEC0B2B4E700BFE891FF1FB3
:1033F00000007A4438B5184C184B2268181D13F891
:10340000011F984241EA0222F9D1154B154DD3F81C
:103410008830226002F10040022B286004D0124B59
:103420001B68012B0AD038BD09F07CFC0F4C2060D2
:10343000FEF776FD0C4B1B68012BF4D10C4806F00F
:103440009FF829680A4806F093F8BDE83840094813
:10345000032108F0DBBD00BFD0D8FF1FC7D8FF1F76
:10346000C0D9FF1F8091FF1F10D7FF1FB091FF1F12
:10347000FC89FF1F1043010070B51E4B1E4C597A8A
:103480009A7ADB7A1D4D42EA012243EA022322683E
:103490001B492B60012A0B600CD01846194BD3F83E
:1034A0008830A0F50000022B28601BD02368012B78
:1034B0000BD070BD144806F063F829681248002349
:1034C000102206F075F82868E8E70F4806F058F86B
:1034D00029680D4806F04CF8BDE870400B48032100
:1034E00008F094BD09F01EFC094E3060FEF718FD8F
:1034F000DCE700BFC0D8FF1F10D7FF1F8091FF1F60
:10350000D0D8FF1FC0D9FF1FFC89FF1F1043010047
:10351000B091FF1F2DE9F04FAC4CDFF8B482AD48FD
:1035200083B0214604F0A0FED8F88830022B79D071
:103530002368F02B00F09F80A3F19A02E52A19D8A6
:10354000A54BA64D1B68012B03D12A68012A00F068
:103550001D819E49A2480022FDF716FB236803F453
:103560007F63B3F5C07F0BD02B68012B19D003B05C
:10357000BDE8F08F03F47F63B3F5C07F974DF3D1BF
:10358000954B92491B689648012B98F8D63002D18A
:103590002A68012A00D00022FDF7D2FA2B68012BFD
:1035A000E5D18D4B1B68012BE1D18E4B8E481B68FA
:1035B0000193019900230A2205F0FAFF2268E379BA
:1035C0008A48002AB6BF8A498A4922F060420AF036
:1035D0009DFB86480AF0B4FD0146844808F016FDBC
:1035E000256815F0804540F0D780E379A3B1824F7C
:1035F0007E4E2B46234439461A7A30460AF086FB23
:1036000030460AF09DFD0146304608F0FFFC0135CA
:10361000E279EBB29A42EDD8734803B0BDE8F04FBF
:1036200005F0AEBFD8F88C202368012A00F09F80F7
:10363000022A7DD0032A7FF47CAF40F222529342CB
:1036400000F0F38040F22352934200F0E58040F214
:10365000215293427FF46DAFA2896089674B684D18
:1036600040EA024000BA186009F05CFB2860FEF7EF
:1036700057FC23685DE75B4B624A1B680093137835
:10368000009959480133137000230A2205F090FF76
:103690002268E3795548002AB6BF5549554922F0BA
:1036A00060420AF033FB51480AF04AFD01464F4898
:1036B00008F0ACFC266816F0804645D1E379EBB102
:1036C000DFF844B1DFF830A1484F354604EB050977
:1036D000514699F8082038460AF018FB99F8083046
:1036E0000BF8053038460AF02BFD0146384608F045
:1036F0008DFC0136E379F5B2AB42E7D83A48434D49
:10370000394F434E05F03CFF05F1080915F8011F3C
:1037100000231022384605F04BFF0121304608F007
:1037200075FC4D45F2D1304805F02AFF236803E7C8
:103730006FF470729A18012A3FF6FBAEFFF79CFEF9
:10374000D8F88C20236875E7324E284D0FCE0FC570
:1037500096E8030045F8040B284620F814190AF0EF
:10376000EFFC0146A5F1140008F050FCC6E740F25A
:10377000C132934223D040F2C23293427FF4D9AE99
:10378000FFF738FED8F88C20236851E70F4914481A
:10379000FDF7FAF92368E2E61E4D144C0FCD0FC475
:1037A00095E8030044F8040B204620F814190AF0A9
:1037B000C7FC0146A4F1140008F028FC2CE7FFF731
:1037C0005BFED8F88C20236832E700BFC0D8FF1F0B
:1037D000C0D9FF1FD4DAFF1F10D7FF1F4888FF1F73
:1037E000E891FF1FC8DCFF1FFC89FF1F28D9FF1FBE
:1037F000144301003C430100684301008091FF1F16
:10380000B091FF1FC491FF1F9091FF1F8F91FF1F69
:10381000C840010050430100A1896289074D42EA76
:103820000142074912BA0A6099E6A1896289034DEB
:1038300042EA0142034912BA0A6090E64888FF1F33
:10384000B8DAFF1FB4DAFF1F2DE9F84F984B1B7849
:10385000052B6BD0974F984C984E3B78226F326077
:10386000002B60D0B4F86830954D96482B80FDF75A
:103870009BFB216B09F048FC08B100232B80914889
:10388000FDF790FBE16A09F05DFC10B100233360A5
:103890002B808C48FDF7CCFAE16809F053FC08B1A5
:1038A00000232B808748FDF7C3FAE16809F04AFC42
:1038B00008B100232B808348FDF792FA216909F0B3
:1038C00023FC002870D0002333602B8803B33B789F
:1038D0007C48002B40F0BF80FDF766FBA16B09F030
:1038E00013FC002840F0BE81774B76481B68012B03
:1038F00000F04481FDF79CFA216A0746A06909F0AF
:103900005BF90146384609F01DFC002840F0D981DA
:1039100033686E4A002BBCBF0023336013889BB210
:1039200073B9BDE8F88FB4F864309DE7634A644D1D
:1039300000231360654A2B8013889BB2002BF0D0C4
:103940005D4E1388D6F8E020D6F8DC009BB202FB6F
:1039500003F303FB00F009F0E5F95D4909F036FADD
:1039600009F020FC5B4B84B256481C80FDF71EFB1F
:1039700004EB84040746600009F0D4F90446B06DF6
:1039800009F0D0F9394609F021FA0146204609F03C
:10399000D1FA09F007FC2B884F4A80B2834210808D
:1039A00088BF2880BDE8F88F4648FDF719FAE1691D
:1039B00009F0AAFB002886D13368002B85DD414839
:1039C000FDF7F0FAE16B09F0BDFB002840F08680BE
:1039D0003C48FDF705FAD4F8D0108046E06909F0BC
:1039E000EDF80146404609F08FFB00283FF46DAF2B
:1039F000306809F097F981463248FDF7F1F98246BF
:103A0000206FD4F81CB009F08DF959468046504615
:103A100009F0D2F841468246002009F0CDF801466F
:103A2000504609F0D3F9D4F8D0108246584609F030
:103A3000C5F8594609F0C0F80146504609F07AFA2F
:103A4000414609F0BBF80146484609F0B5F809F0CF
:103A500083FB306039E7FDF7A7FAA16B09F054FB4F
:103A6000002840F0CF80184B16481B68012B5FD010
:103A7000FDF7DEF9216A0746A06909F09DF80146C5
:103A8000384609F05FFB00283FF442AF288809F070
:103A900049F980460B48FDF7CBF9D4F81890216A14
:103AA0008246484609F088F80746B4F8680018E1ED
:103AB0000CD7FF1F1AD7FF1FC0D9FF1FACD8FF1F9D
:103AC00018D7FF1FE891FF1FA4DAFF1FCC91FF1F3B
:103AD0000AD7233C24D7FF1FA8DAFF1F306809F05C
:103AE00021F980468F48FDF75DFA8346206FD4F8B0
:103AF0003CA009F017F951468146584609F05CF898
:103B00000146484609F062F951468146E06A09F0EB
:103B100053F80146484609F00DFA002109F04EF825
:103B20000146404609F048F809F016FB30604FE7BF
:103B3000FDF77EF9216A0746606A09F03DF8014603
:103B4000384609F0FFFA00283FF4E2AE288809F071
:103B5000E9F881467348FDF76BF9D4F824A0216A8F
:103B60008346504609F028F88046E06E09F0DAF8FE
:103B70000746B4F8680009F0D1F823E0FDF758F9DA
:103B8000216A0746606A09F017F80146384609F0CD
:103B9000D9FA00283FF4BCAE288809F0C3F8814662
:103BA0006048FDF745F9D4F824A0216A83465046C1
:103BB00009F002F88046E06E09F0B4F80746606E3E
:103BC00009F0B0F8394608F0F7FF41460446584678
:103BD00008F0F2FF0146204609F0F8F84146044695
:103BE000504608F0E9FF0146204609F0A3F939469E
:103BF00008F0E4FF0146484608F0DEFF09F0D2FA7B
:103C0000288085E6288809F08DF880464548FDF72C
:103C1000CBF98146B4F86800D4F830A009F07EF8FA
:103C200051460746484608F0C7FF394681460020FE
:103C300008F0C2FF0146484609F0C8F851468146DF
:103C4000A06B08F0B9FF0146484609F073F9394600
:103C500008F0B4FF0146404608F0AEFF09F0A2FAB2
:103C6000288000E7288809F05DF880462D48FDF798
:103C70009BF98146606ED4F830A009F053F85146A4
:103C80000746484608F098FF39468146002008F06C
:103C900093FF0146484609F099F851468146A06BCA
:103CA00008F08AFF0146484609F044F9394608F011
:103CB00085FF0146404608F07FFF09F073FA28802F
:103CC00012E6288809F02EF880461648FDF7B0F86D
:103CD000D4F81890216A8246484608F06DFF0746DE
:103CE000606EE36EC01A09F01DF83946044650466E
:103CF00008F062FF0146204609F068F8394604469C
:103D0000484608F059FF0146204609F013F9002102
:103D100008F054FF0146404608F04EFF09F042FA11
:103D20002880F5E5E891FF1F08B5284805F028FC34
:103D30002748072108F06AF9112006F01BFB00B3A1
:103D40002448062108F062F9102006F013FB08B39E
:103D50002148062108F05AF9122006F00BFB10B397
:103D60001E48062108F052F9132006F003FB18B391
:103D70001B48062108F04AF9BDE80840134805F041
:103D8000FFBB1848062108F041F9102006F0F2FAAE
:103D90000028DDD11448062108F038F9122006F079
:103DA000E9FA0028DCD11148062108F02FF9132088
:103DB00006F0E0FA0028DBD10D48062108F026F9CC
:103DC000BDE80840014805F0DBBB00BFFC89FF1FD0
:103DD000744301007C4301008C4301009C430100BB
:103DE000AC4301008443010094430100A44301005B
:103DF000B443010010B5294C2368042B26DC0121B3
:103E00000B2006F091FA01210C2006F08DFA012119
:103E1000142006F089FA0121152006F085FAFF2109
:103E2000162006F005F9FF21172006F001F9FF2101
:103E3000052006F0FDF8FF21062006F0F9F82368BA
:103E400001330A2BC8BF0023236010BD00210B20C3
:103E500006F06AFA00210C2006F066FA0021142010
:103E600006F062FA0021152006F05EFA0021162005
:103E700006F0DEF80021172006F0DAF80021052010
:103E800006F0D6F80021062006F0D2F823680133A8
:103E90000A2BC8BF0023236010BD00BFB0D9FF1F8D
:103EA00030B5AF4883B0092106F084FD222006F02A
:103EB00005FDAC4BD3F8B430012BAB4B1B7809D0CC
:103EC000052B10D8DFE813F0320137013C01410126
:103ED0002D010B00002B00F03D81052B03D1A348E1
:103EE000072106F067FD222006F0E8FCFF2006F01F
:103EF000E5FCFF2006F0E2FC9D4CFF2006F0DEFC16
:103F00009C48082106F056FD21689B4805F030FBCF
:103F1000FF2006F0D3FCFF2006F0D0FCFF2006F0C7
:103F2000CDFC9648092106F045FD2168924805F030
:103F30001FFBFF2006F0C2FCFF2006F0BFFCFF20A5
:103F400006F0BCFC8E480C2106F034FD8D4B8E49EA
:103F5000186808F0EFFF08F015FD002402460B4634
:103F60000094854805F030FBFF2006F0A7FCFF20F9
:103F700006F0A4FCFF2006F0A1FC0921834806F00E
:103F800019FD8348FCF7A6FF08F0FCFC00940246EC
:103F90000B46794805F018FBFF2006F08FFCFF2048
:103FA00006F08CFCFF2006F089FC0C21794806F015
:103FB00001FD7748FCF7F8FF08F0E4FC00940246A6
:103FC0000B466D4805F000FBFF2006F077FCFF2054
:103FD00006F074FCFF2006F071FC0D216E4806F01F
:103FE000E9FC6B48FCF7DEFF08F0CCFC00940246CD
:103FF0000B46614805F0E8FAFF2006F05FFCFF2061
:1040000006F05CFCFF2006F059FC0921634806F02D
:10401000D1FC5F48FCF732FF614908F0D7FE08F099
:10402000B1FC009402460B46534805F0CDFAFF2040
:1040300006F044FCFF2006F041FCFF2006F03EFCA9
:104040000C21584806F0B6FC5148FCF7C9FE564909
:1040500008F0BCFE08F096FC009402460B46464869
:1040600005F0B2FAFF2006F029FCFF2006F026FC3E
:10407000FF2006F023FC0D214C4806F09BFC444831
:10408000FCF7D6FE484908F0A1FE08F07BFC00943E
:1040900002460B46384805F097FAFF2006F00EFC62
:1040A000FF2006F00BFCFF2006F008FC4048092129
:1040B00006F080FC3F4B3048196805F059FAFF20A4
:1040C00006F0FCFBFF2006F0F9FBFF2006F0F6FBF4
:1040D0000E21394806F06EFC2D48FCF7A9FE054676
:1040E0002B48FCF77DFE0146284608F065FD2E4969
:1040F00008F06CFE08F046FC009402460B461E4891
:1041000005F062FAFF2006F0D9FBFF2006F0D6FB8F
:10411000FF2006F0D3FBFF2003B0BDE8304006F0DF
:10412000CDBB26480B2106F045FCDCE624480621E1
:1041300006F040FCD7E62348072106F03BFCD2E618
:104140002148072106F036FCCDE62048082106F07C
:1041500031FCC8E61E48082106F02CFCC3E600BF6F
:10416000BC430100C0D9FF1F0CD7FF1F90400100C6
:104170002488FF1FD4430100BC88FF1FE0430100D7
:10418000EC430100A4D8FF1F0000C842FC4301001B
:10419000E891FF1F08440100184401002844010071
:1041A000000020413444010000007A4444440100EE
:1041B000544401005488FF1F604401007040010016
:1041C00060400100684001007C4001008440010023
:1041D000C8430100F8B58B4DD5F8C430042B07D087
:1041E000032B33D0012B5BD0022B00F0CD80F8BD28
:1041F000854C864AE388A86D226003F0FE0343F4F1
:10420000006343F00103E38008F08CFDA96908F026
:10421000DDFD7F4908F0DAFD08F0C4FF7D4B7E4AE2
:104220001B88126893FBF2F340BA5BBA0026208128
:1042300021467A486381E66004F0D2F8A279D5F885
:10424000C43066F30002032BA271CBD16E4CA86D73
:10425000A37240F2FF224EF6010322600722E271B0
:10426000238108F05FFDA96908F0B0FD684908F0F6
:10427000ADFD08F097FF684A664B11681B8893FBF9
:10428000F1F380B2020AE0726373644822731B1276
:104290002146A37304F0A4F8D5F8C430012BA3D1B0
:1042A0005F4B594C19682160072280231020E2716E
:1042B000237206F05FF8002800F09680594B1B68C7
:1042C000544E554FA86D03EB83035A00D2B2C3F38B
:1042D000C7136372A27233883A6893FBF2F3A37335
:1042E0001B12637308F01EFDA96908F06FFD4E4BA9
:1042F000196808F061FC464908F068FD08F052FFB3
:104300002073C0F307204049E072444804F068F885
:10431000022006F099F8454B1B6823600723E371E0
:1043200010208023237206F025F8002868D1404B26
:104330001B68A86D03EB83035A00D2B2C3F3C71303
:10434000A272637208F0EEFCA96908F03FFD394BD8
:10435000196808F031FC2E4908F038FD08F022FFFA
:104360002073C0F307203A683388E07293FBF2F3BE
:1043700025492A48A3731A12627304F031F8D5F85C
:10438000C430022B7FF433AF1F4C2448237240F219
:104390000E32226021460122E27104F021F81D4B09
:1043A000A86D1B885B00FF2B4FF00402D4BFDBB26B
:1043B000FF234FF44171E271402221602272637247
:1043C00008F0B0FCA96908F001FD1B49054608F09A
:1043D000B9FE58B901229023A272E3720A490F482C
:1043E000BDE8F84003F0FCBF114B68E729462846BA
:1043F00008F0E4FB08F0D6FEC0F30722C3B2EBE7F7
:10440000084B95E7C0D9FF1F18D9FF1FF4E5061820
:104410000000204118D7FF1F6088FF1FD4DAFF1F5C
:104420003C88FF1F5C88FF1F20D7FF1F4088FF1FAD
:104430005888FF1F1CD7FF1F0000484330B5038872
:10444000C27985B05BBA012AADF804300C4602F19E
:10445000010506DD00F10801013A0DF1060005F045
:1044600071FB044B04481B5D2A4601A903F0E6FAE0
:1044700005B030BDE0510100A4D7FF1F2DE9F04188
:10448000684D2B78062B82B06DD0674B674E1B783A
:10449000674F002B41D0DFF89C812978664C0023C0
:1044A000C8F8003041F0800323600823E37141F233
:1044B000C70323813B780022022B628120D8337806
:1044C0004FF020024FEA0313A281DBB200D1043384
:1044D000A3735948FFF7B2FF0346E373022005F0C8
:1044E000B3FF5549554803F07BFF2B7854480133FF
:1044F0002B70FCF7DFFA002847D102B0BDE8F0814D
:10450000D8F800203378012A0CBF482240221B0132
:10451000227301226273A373DBE7DFF81881297825
:10452000D8F8002041F08003434C012A23604FF06B
:104530000803E371BBD14248FCF752FC414908F043
:1045400045FC08F02FFE053020723D48FCF748FC82
:104550003C4908F03BFC08F025FE83B205331B12F2
:1045600029786372A6E7314E314F337800222A70E2
:104570003A780133032ADBB29CBF01323A700F2B29
:10458000337015D0284B1B7883E7E3882E4D2B48DA
:10459000A560B021216003F0FE03274943F40063C6
:1045A0000022E380E26002B0BDE8F04103F018BFF2
:1045B000264A274C13680093009B206800219842EC
:1045C000317015D2234BDFF86080196801239942BE
:1045D00088F8003014D0126801921F4AB2F8B01067
:1045E000019A3C314FF47A7000FB0122226050E7BF
:1045F0000D4BDFF840801970D8F80020802393E736
:10460000164804F0BDFF1321154807F0FFFC1348BE
:1046100004F0B6FF114804F0B3FF98F800300B4ADD
:10462000D9E700BFA8D9FF1FE091FF1F14D9FF1FD2
:10463000AADAFF1FDC91FF1F18D9FF1FD4DAFF1F72
:10464000E891FF1F00007A44FF00CDA2C8DCFF1FE5
:10465000E491FF1F4888FF1FC0D9FF1FFC89FF1F7F
:10466000704401002DE9F0411A4CDFF86C80002500
:10467000A027E388657203F0FE0343F400634FF064
:10468000A10C4FF6FF7221464FF0FF364046E38003
:1046900084F808C062812760E660013503F0A0FE5F
:1046A000022005F0D1FE0F2DE3D10C4B2760002234
:1046B0001A70E388E66003F0FE036FF0C80243F46B
:1046C0000063E380A26003490348BDE8F04103F0C2
:1046D00087BE00BF18D9FF1FD4DAFF1FC491FF1F88
:1046E000F0B5AB4CAB4D83B007F022FC23682860DB
:1046F000042B59D0022B40F02981A0F13103422B29
:1047000000F21B81DFE813F06A0601070E071B07A2
:104710003D0775074C075A071901190119011901BD
:1047200019011901190119011901190119011901B9
:1047300019011901190119011901190119011901A9
:104740001901190119011901190119011901190199
:104750001901190119011901190119011901190189
:104760001901190119011901190119011E01190174
:104770001901190119011901190119011901190169
:10478000190119011901190146001901670771285A
:1047900040F0D3800022732322602B602368002B1B
:1047A00000F0A78203B0F0BDA0F13103482B00F266
:1047B000C48001A252F823F0F7580000FB58000013
:1047C000FF58000057560000C3580000DD58000095
:1047D000F35800001B590000675900003B490000D6
:1047E0003B4900003B4900003B4900003B490000B9
:1047F0003B4900003B4900003B4900003B490000A9
:104800003B4900003B4900003B4900003B49000098
:104810003B4900003B4900003B4900003B49000088
:104820003B4900003B4900003B4900003B49000078
:104830003B4900003B4900003B4900003B49000068
:104840003B4900003B4900003B4900003B49000058
:104850003B4900003B4900003B4900003B49000048
:104860003B4900003B4900003B4900003B49000038
:104870003B4900003B4900003B4900001F59000034
:104880003B4900003B4900003B4900003B49000018
:104890003B4900003B4900003B4900003B49000008
:1048A0003B4900003B4900003B4900003B490000F8
:1048B0003B4900003B490000954700003B59000080
:1048C0003B4900003B4900003B4900003B490000D8
:1048D0003B4900000D5600003956000007F064FB0C
:1048E00000280DDD2C482D4E04F0AAFF08F01AFA1E
:1048F0002B4908F01FFB01226223706222602B60AB
:1049000007F052FB00280EDD2348244E04F098FFE8
:1049100008F008FA224908F00DFB01226223C6F8CC
:10492000D00022602B6007F03FFB002801F3468196
:1049300023682868012B00F0988673283FF42EAF77
:1049400003B0F0BDFEF75EF923682868082B10D18C
:10495000342800F04F813FF71AAF312800F058811A
:104960003228EAD107F020FB002800F36582236893
:104970002868072B1DD134283FF709AF3028DCDD2C
:104980003238022801F24786DFE800F0A00CB400BC
:1049900010D9FF1FD4D8FF1FFC89FF1FC0D9FF1FEC
:1049A00000007A4407F000FB002800F35D822368D2
:1049B0002868062B40F06B82A0F13103402BBCD855
:1049C00001A252F823F000BF81510000D152000033
:1049D000814E0000B95300009D5300007D5300003C
:1049E0003B490000615300003F5300003B49000079
:1049F0003B4900003B4900003B4900003B490000A7
:104A00003B4900003B4900003B4900003B49000096
:104A10003B4900003B4900003B4900003B49000086
:104A20003B4900003B4900003B4900003B49000076
:104A30003B4900003B4900003B4900003B49000066
:104A40003B4900003B4900003B4900003B49000056
:104A50003B4900003B4900003B4900003B49000046
:104A60003B4900003B4900003B4900003B49000036
:104A70003B4900003B4900003B4900003B49000026
:104A80003B4900003B49000019530000F952000067
:104A9000555B00003B4900003B4900003B490000DA
:104AA0003B4900003B4900003B4900003B490000F6
:104AB0003B4900003B4900003B4900003B490000E6
:104AC0003B4900003B4900009547000007F06CFAA5
:104AD00000287FF76CAFB848B84E04F0B1FE08F07C
:104AE00021F9B74908F072F901232360612370644A
:104AF0002B6010E007F058FA00287FF758AFAE4857
:104B0000AE4E04F09DFE012323606123B0862B602E
:104B100001E007F00DFA07F047FA05460028F8D142
:104B2000A54804F02DFDA44804F02AFDA24804F095
:104B300027FDA14804F024FD9F4804F021FD1F211A
:104B4000A04807F063FA9C4804F01AFD1C219E4817
:104B500007F05CFAB06A9D4908F038F907F012FFD7
:104B6000009502460B46944804F02EFD0221984819
:104B700007F04CFA904804F003FD2321954807F014
:104B800045FA706C914908F021F907F0FBFE009599
:104B900002460B46884804F017FD02218C4807F0B6
:104BA00035FA854804F0ECFC19218B4807F02EFA01
:104BB000306C07F0E7FE02250B46024600957E4862
:104BC00004F002FD2946854807F020FA7A4804F0EF
:104BD000D7FC2221824807F019FAB18E764804F0FA
:104BE000C7FC03217F4807F011FA734804F0C8FCA2
:104BF00007237BE007F0D8F900287FF7B8AE6E48AE
:104C00006E4E04F01DFE03B2F26CA6F8D83020E11F
:104C100007F0CAF9002800F31F81684E96F8481083
:104C2000B6F9D830F26C022984BF002186F848100A
:104C30006D48FCF729F90122692322602B6001E00D
:104C400007F076F907F0B0F905460028F8D15A4880
:104C500004F096FC584804F093FC574804F090FC8C
:104C6000554804F08DFC544804F08AFC15215F4837
:104C700007F0CCF9504804F083FC18215C4807F099
:104C8000C5F92B460A2296F848104B4804F090FCD0
:104C9000494804F075FC2821564807F0B7F9F06C34
:104CA0004A4908F093F807F06DFE00950B4602465E
:104CB000414804F089FC0221454807F0A7F93E4825
:104CC00004F05EFC18214C4807F0A0F9B6F9D810A2
:104CD000394804F04DFC384804F052FC1321474891
:104CE00007F094F9344804F04BFC0823236003B028
:104CF000F0BD434E304804F043FC0421414807F026
:104D000085F92D4804F03CFC10213F4807F07EF95E
:104D1000294804F035FC13213C4807F077F93C4B57
:104D20002548196804F024FC234804F029FC1421C8
:104D3000384807F06BF9204804F022FC1E21364861
:104D400007F064F91C4804F01BFC1521334807F0F8
:104D50005DF9194804F014FC1E21314807F056F99A
:104D6000154804F00DFC20212E4807F04FF9124899
:104D700004F006FC19212C4807F048F90E4804F00D
:104D8000FFFB1221294807F041F90B4804F0F8FB1A
:104D90000F21274807F03AF9074804F0F1FB0D21ED
:104DA000244807F033F9044804F0EAFB0022012309
:104DB0003260236003B0F0BDFC89FF1FC0D9FF1F24
:104DC0006F12833A1C4701003C47010000007A44FF
:104DD000F04401005C47010080470100A846010043
:104DE0009C470100C0470100E891FF1F984901005E
:104DF000A8440100C4440100F4440100104501002E
:104E00004888FF1FD0480100D8480100EC48010045
:104E10005488FF1F0049010018490100384901006A
:104E2000504901007049010094490100B049010056
:104E3000C4490100D4490100C548C64E04F000FD34
:104E400007F070FFC44907F0C1FFB6F9D830F0642D
:104E5000024696F84810EBE6BD48BE4E04F0F0FC62
:104E6000C1B286F84810DBE6B948BA4E04F0E8FC57
:104E700007F058FF01232360612330642B604AE66A
:104E800007F092F8002801F31B8323682868052B9C
:104E900017D1362800F3868630287FF783AC323866
:104EA000042801F2A783DFE810F035012501A900ED
:104EB0000500450107F078F8002801F30781236811
:104EC0002868032B7FF436ADA0F13003482B3FF662
:104ED00034AD01A252F823F0456400007164000073
:104EE0002364000007640000EB630000C963000056
:104EF000A96300009363000077630000576300001C
:104F00003B4900003B4900003B4900003B49000091
:104F10003B4900003B4900003B4900003B49000081
:104F20003B4900003B4900003B4900003B49000071
:104F30003B4900003B4900003B4900003B49000061
:104F40003B4900003B4900003B4900003B49000051
:104F50003B4900003B4900003B4900003B49000041
:104F60003B4900003B4900003B4900003B49000031
:104F70003B4900003B4900003B4900003B49000021
:104F80003B4900003B4900003B4900003B49000011
:104F90003B4900003B4900003B49000041630000E1
:104FA000BF620000A9620000936200007B62000003
:104FB000CB610000DD480000014900003B490000D2
:104FC000274900005B6200003B4900003B490000AC
:104FD0003B4900003B4900003B4900004D62000096
:104FE0002F6200003B4900003B4900003B490000A4
:104FF0003B4900003B4900001962000006F0D4FF65
:1050000000287FF75CAF5248524E04F019FC534B16
:10501000C6F8B80002221A60FCF74CFC01226B2390
:1050200022602B6001E006F083FF06F0BDFF002840
:10503000F9D1474804F0A4FA454804F0A1FA4448DD
:1050400004F09EFA424804F09BFA414804F098FAB2
:105050002121434806F0DAFF3D4804F091FA15217A
:10506000404806F0D3FFD6F89410394804F080FA8F
:1050700002213D4806F0CAFF354804F081FA1E219E
:105080003A4806F0C3FFD6F89C10314804F070FA95
:105090000321374806F0BAFF2D4804F071FA1E21AB
:1050A000344806F0B3FFD6F89810294804F060FAA7
:1050B000274804F065FA1D212F4806F0A7FFD6F80F
:1050C000B810234804F054FA214804F059FA1E217C
:1050D0002A4806F09BFFD6F8BC101D4804F048FA99
:1050E0001B4804F04DFAD6F8B430012B01F0488289
:1050F0000523FBE506F058FF00287FF7E0AE1448D3
:10510000144E04F09DFB012323606B23C6F8980026
:105110002B608AE706F048FF00287FF7D0AE0C48E6
:105120000C4E04F08DFB012323606B23C6F89C001A
:105130002B607AE7074E96F8D5300122B3FA83F355
:1051400022605B096B2286F8D5302A606DE700BFCC
:10515000FC89FF1FC0D9FF1F6F12833ABCD8FF1F05
:10516000C4470100E84701003C4601000048010037
:10517000C84101002048010040480100604801008A
:1051800006F012FF00287FF780AE9B489B4E04F08C
:1051900057FB07F0C7FD9A4907F0CCFE01232360B7
:1051A0006523B0612B6001E006F0C2FE06F0FCFE54
:1051B00005460028F8D1904804F0E2F98E4804F042
:1051C000DFF98D4804F0DCF98B4804F0D9F98A48FE
:1051D00004F0D6F911218B4806F018FF864804F038
:1051E000CFF92821884806F011FFB069844907F0FB
:1051F000EDFD07F0C7FB009502460B467E4804F024
:10520000E3F90221814806F001FF7B4804F0B8F978
:1052100016217F4806F0FAFE306A794907F0D6FD7C
:1052200007F0B0FB00950B460246734804F0CCF93A
:105230000221764806F0EAFE6F4804F0A1F9D6F89C
:10524000C430002B32DD1D21724806F0DFFE706E87
:1052500007F068FD704907F0B9FD07F093FB0225E0
:1052600002460B466448009504F0AEF901216B48F4
:1052700006F0CCFE604804F083F91F21684806F070
:10528000C5FEF06E07F04EFD634907F09FFD07F085
:1052900079FB009502460B46574804F095F95F48A4
:1052A000012106F0B3FE544804F06AF95D4811216B
:1052B00006F0ACFED6F8C430062B00F2A983DFE876
:1052C00013F0300435042B043F043A044404A303D0
:1052D00006F06AFE00287FF7D8AD4748474E04F035
:1052E000AFFA07F01FFD464907F024FE01232360B3
:1052F000652330622B6059E706F056FE00287FF7E1
:10530000C4AD3D483D4E04F09BFA01232360652364
:10531000C6F8DC002B6049E706F046FE00287FF760
:10532000B4AD3548354E04F08BFA00EB80004300F5
:105330000122A6F86830652322602B6036E706F06C
:1053400033FE00287FF7A1AD2B482C4E04F078FAED
:1053500007F0E8FC012323606523B0632B6025E799
:10536000264E96F8D430002B01F0938001230022C2
:105370002360652386F8D4202B6017E706F014FE1F
:1053800000287FF782AD1C481C4E04F059FA012317
:1053900023606523C6F8C8002B6007E7174ED6F8D0
:1053A000C43001221344072B2260A8BF00236522CA
:1053B000C6F8C4302A60F9E606F0F6FD00287FF74B
:1053C00064AD0D480D4E04F03BFA00EB8000400048
:1053D00001226523F06622602B60E7E6074ED6F8CF
:1053E0008430B3FA83F35B090122C6F88430632367
:1053F00022602B601AE000BFFC89FF1FC0D9FF1F8D
:1054000000007A443C49010024450100F0440100B9
:105410005045010068450100CDCCCC3D7C4C0100DD
:1054200088450100A845010006F082FD06F0BCFD9C
:105430000028F9D1B14804F0A3F8B04804F0A0F86E
:10544000AE4804F09DF8AD4804F09AF8AB4804F07B
:1054500097F81F21AA4806F0D9FDA84804F090F853
:105460001E21A84806F0D2FDA44804F089F8A648F9
:105470001A2106F0CBFDD6F88830022B01F04780C8
:10548000032B01F03B80012B01F02F809F48092165
:1054900006F0BCFD994804F073F814219C4806F00E
:1054A000B5FDD6F88410954804F062F8934804F0EE
:1054B00067F81C21974806F0A9FDD6F890108F4890
:1054C00004F056F88D4804F05BF81C21924806F071
:1054D0009DFDD6F8C010894804F04AF8874804F0CA
:1054E0004FF8D6F8883023F00202012A00F0FD853B
:1054F000022B01F032801321884806F087FD7F4897
:1055000004F03EF80223FFF7F1BB854ED6F8903049
:10551000B3FA83F35B090122C6F89030632322605B
:105520002B6083E70123236006F03EFD002800F393
:10553000B8877B4E0122632322602B6076E701232C
:10554000236006F031FD002807DD6C48744E04F03E
:1055500077F907F0E7FBC6F8A40023686322072B5E
:105560002A603FF41FA9062B00F0F482052B3FF4BC
:1055700019A9032B00F09886012B7FF413A9684E1C
:1055800054E70123236006F00FFD0028E5DD5B48AA
:10559000634E04F055F907F0C5FBC6F8A000DCE740
:1055A0005F4ED6F88C3001221344052BA8BF13465A
:1055B00022606322C6F88C302A6037E7012323601B
:1055C00006F0F2FC0028B4DD4C48554E04F038F9E2
:1055D000C6F8A800AEE7524ED6F888300122134430
:1055E000042B2260A8BF00236322C6F888302A60FB
:1055F0001CE70123236006F0D7FC0028ADDD3F48FF
:10560000474E04F01DF9A6F8CE00A6E7012323605B
:10561000FFF728F8642223682A60082B3FF4C2A809
:10562000072B3FF4BFA8062B3FF4BCA8052B18BFDF
:1056300064203FF4B7A844E40123236006F0B4FCDF
:10564000002804DD2D4804F0FBF8364B1870642266
:1056500023682A60E1E7344A1368B3FA83F36420CD
:1056600001215B09216013602860A0F152031F2B08
:105670003FF663A901A252F823F000BF775B000058
:105680003B4900003B4900003B4900003B4900000A
:105690003B4900003B4900003B4900003B490000FA
:1056A0003B4900003B4900003B4900003B490000EA
:1056B0003B4900003B490000E3650000DD65000058
:1056C0007F55000031570000EF6500003B490000A6
:1056D0003B4900003B490000E96500003B490000F0
:1056E000D76500003B4900003B4900003B490000F2
:1056F0003B4900003B490000855B0000FC89FF1F1F
:105700003C4B01005C4B01007C4B0100F44B010061
:10571000004C0100184C0100384C010010450100FC
:10572000C0D9FF1FA091FF1FD8D8FF1F06F000FCB3
:1057300006F03AFC05460028F8D19248924E03F054
:105740001FFF904803F01CFF8E4803F019FF8D489F
:1057500003F016FF8B4803F013FF13218B4806F06C
:1057600055FC884803F00CFF0D21894806F04EFCDB
:10577000844803F005FF0F21864806F047FC864B5E
:105780008048196803F0F4FE7E4803F0F9FE132107
:10579000824806F03BFC824B7A48196803F0E8FE29
:1057A000784803F0EDFE12217E4806F02FFC7E4B78
:1057B0007448196803F0DCFE724803F0E1FE112121
:1057C0007A4806F023FC7A4B6E48196803F0D0FE45
:1057D0006C4803F0D5FE0E21764806F017FCD6F88B
:1057E000B410684803F0C4FE664803F0C9FE1921EE
:1057F000714806F00BFC714B6248196803F0B8FE63
:10580000604803F0BDFE11216D4806F0FFFB6D4BB3
:105810005C48196803F0ACFE5A4803F0B1FE102151
:10582000694806F0F3FB694B5648196803F0A0FE7F
:10583000544803F0A5FE1C21654806F0E7FB654BC4
:105840005048196803F094FE4E4803F099FE162163
:10585000614806F0DBFBB6F8B0104A4803F088FE5A
:105860001E215E4806F0D2FB464803F089FE0C215B
:105870005B4806F0CBFB5B49424809782B460A227D
:1058800003F096FE3F4803F07BFE1021564806F0D9
:10589000BDFB2946554806F0B9FB3A4803F070FEB7
:1058A0001721534806F0B2FB364803F069FE132176
:1058B000504806F0ABFB334803F062FE0423FFF7C9
:1058C00015BA314ED6F8B430B3FA83F3642001220E
:1058D0005B092260C6F8B4302860C6E6012346485A
:1058E0002360FBF703F9354B642218602A602368B4
:1058F00093E6344AB0E6284AAEE6294AACE62A4B9B
:105900001A680121002A0CBF0A46002221601A6091
:1059100040F0068664202860A7E62C4A9CE6012316
:10592000236006F041FB00287FF791AE1548164E24
:1059300003F086FFA6F8B00089E63049304ACB88EC
:105940008A6003F0FE0343F400630120CB80002350
:105950002060CB602B48B0230B6002F041FD642235
:1059600023682A6059E60123236006F01DFB002806
:1059700000F3B485174B186804287FF768AE02223D
:105980001A6064E6FC89FF1FC0D9FF1FE4490100CB
:10599000F8490100084A010010D7FF1F184A01000A
:1059A000A8D8FF1F2C4A0100ACD9FF1F404A0100B4
:1059B000D8D8FF1F544A0100644A010014D7FF1FC2
:1059C000804A0100BCD8FF1F944A01008891FF1F44
:1059D000A84A01004C88FF1FC84A0100E04A0100A4
:1059E000004B0100A091FF1F104B0100E841010096
:1059F000244B010010450100E891FF1F18D9FF1F3B
:105A0000FF00CDA2D4DAFF1F7248042106F0FEFA8F
:105A1000714803F0B5FDD6F8C430002B0FDD182116
:105A20006E4806F0F3FAD6F8C8106B4803F0A0FDF4
:105A30006B48022106F0EAFA674803F0A1FD6948C5
:105A40001B2106F0E3FA96F8D430002B40F048838F
:105A50006548122106F0DAFA5F4803F091FD1F2134
:105A6000624806F0D3FAB06B06F08CFF02250B46B5
:105A700002460095584803F0A7FD29465C4806F009
:105A8000C5FA554803F07CFDD6F8C430002B39DD4B
:105A90002721584806F0BAFAB6F8680007F042F92C
:105AA000554907F093F906F06DFF009502460B4645
:105AB000494803F089FD0121504806F0A7FA4648FD
:105AC00003F05EFD21214E4806F0A0FAD6F8DC1066
:105AD000414803F04DFD01214A4806F097FA3E483F
