:1000000000800020BD010000B99B0000759B00002E
:10001000759B0000759B0000759B0000759B0000A0
:10002000759B0000759B0000759B0000B99B00004C
:10003000B99B0000759B000085900000899000002E
:10004000B99B0000B99B0000B99B0000B99B000060
:10005000B99B0000B99B0000B99B0000B99B000050
:10006000B99B0000B99B0000B99B0000B99B000040
:10007000B99B0000B99B0000B99B0000B99B000030
:10008000B99B0000B99B0000B99B0000B99B000020
:1000900065730000B99B0000B99B0000B99B00008C
:1000A000B99B0000B99B0000B99B0000B99B000000
:1000B000B99B0000258600003186000035860000CF
:1000C000418600004586000049860000B99B00007B
:1000D000B99B0000B99B0000B99B0000B99B0000D0
:1000E000B99B0000B99B0000B99B0000B99B0000C0
:1000F000B99B0000B99B0000B99B0000DDAA00007D
:10010000B99B000005B20000B99B0000B99B00003C
:10011000B99B0000B99B0000B99B0000B99B00008F
:10012000B99B0000B99B0000B99B0000B99B00007F
:10013000B99B0000B99B0000B99B0000B99B00006F
:10014000B99B0000B99B0000B99B0000B99B00005F
:10015000B99B0000B99B0000B99B0000B99B00004F
:10016000B99B000005B50000B99B0000B99B0000D9
:10017000B99B0000B99B0000B99B0000B99B00002F
:10018000B99B0000B99B0000B99B0000B99B00001F
:10019000B99B0000B99B0000B99B0000B99B00000F
:1001A000B99B0000B99B0000B99B0000B99B0000FF
:1001B000B99B0000B99B0000B99B0000574B4CF263
:1001C000205210B5DA814DF62812DA8100BF00BF47
:1001D00009F0F6FC524B4FF010621A63514A9A63D1
:1001E000514ADA63514A136913F4807303D153619E
:1001F0004FF4A85313614E4B9A78110703D59A78A0
:1002000042F008029A704B4B4B482A221A704B4B13
:10021000DA1C121AC11E22F00302994288BF002282
:10022000474909F0D3FB474B4748DA1C121AC11E55
:1002300022F00302994288BF002200210DF08CFDBC
:10024000424943484FF4DE7209F0C0FB414B424A39
:10025000802103F8011B9342FBD14FF0E0233C4A7D
:10026000C3F8082D3D4B8A221A70A3F5805324222F
:100270005A70A0221A709A799207FCD59A79D406FE
:10028000FCD4374B9A7902F00C02082AFAD10322E7
:100290001A7140225A719A799006FCD5304A9379A6
:1002A0005906FCD51E4B2F4959640221996420211F
:1002B0001170917901F00C010C29FAD12A4A5A6087
:1002C0004FF0E023294A5A6100229A6107221A61FD
:1002D000274AC3F8202D62B609F09CFD134B5B69D9
:1002E000DA0705D5234809F089FD234B234ADA6153
:1002F000234B1B785B0609D51F4C204BE2699A42C1
:1003000004D11C4809F07AFD0023E36109F05EFC8A
:100310000DF018FE09F052FBFEE700BF002005407B
:1003200000800440823F04000100002B00D0034005
:1003300000D0074000E007402087FF1F6891FF1FA3
:100340006C58010010E2FF1F6891FF1F00000000C1
:100350000082FF1F00E400E05FE400E00050064080
:100360000040064000000301C0100500FF760100B8
:1003700000002020F7225C6400E00340A5C3945AEB
:1003800000F00740FFFFFFFFFFFFFFFFFFFFFFFF42
:10039000FFFFFFFFFFFFFFFFFFFFFFFFFFFFFFFF6D
:1003A000FFFFFFFFFFFFFFFFFFFFFFFFFFFFFFFF5D
:1003B000FFFFFFFFFFFFFFFFFFFFFFFFFFFFFFFF4D
:1003C000FFFFFFFFFFFFFFFFFFFFFFFFFFFFFFFF3D
:1003D000FFFFFFFFFFFFFFFFFFFFFFFFFFFFFFFF2D
:1003E000FFFFFFFFFFFFFFFFFFFFFFFFFFFFFFFF1D
:1003F000FFFFFFFFFFFFFFFFFFFFFFFFFFFFFFFF0D
:10040000FFFFFFFFFFFFFFFFFFFFFFFFDEF9FFFF23
:100410000548064B1B1AD90F01EBA301491002D066
:10042000034B03B1184770476891FF1F6891FF1F86
:100430000000000008B5054B1BB105490548AFF3A6
:100440000080BDE80840FFF7E3BF00BF00000000E8
:100450006891FF1F6C58010010B54022002104462E
:100460000DF07AFC164904F13C0304F17C0243F8D8
:10047000041F9A42FBD14022002104F180000DF0BC
:100480006BFC002200230F490F4884F80021C4F8B8
:10049000D800C4F8C030C4F8C430C4F8C830C4F8B8
:1004A000CC30C4F8D030C4F8D410C4F8DC10C4F890
:1004B000E030A4F8E820C4F80C21204610BD00BFAD
:1004C0000000A040000048430000C8C22DE9F843E6
:1004D000DFF840900746CE1D00F1C40500F1D408B6
:1004E00016F8010F28380CF061FB494645F8040B5B
:1004F00004460CF06BFD40B1B7F914010CF056FB4B
:1005000021460CF09FFA45F8040C4545E8D1BDE8BA
:10051000F88300BF000020C22DE9F0418046144658
:1005200006291AD8DFE811F0070053008100AF0058
:10053000DF000F013F00617A237AA27A03EB0123E7
:1005400003EB0243E27A03EB0263C0F80C31627BF7
:10055000237B03EB0223C0F80831934FA8F1040476
:1005600008F13C06606C54F8045F29460CF02EFD3F
:10057000034628462BB1D8F8E4100CF01DFD00B15D
:100580002564D4F8801028460CF020FD0346394637
:10059000284623B10CF01AFD08B1C4F88050B442CB
:1005A000E0D1BDE8F081D0F80821002AD5D1002B98
:1005B000D3D1637A207A03F03F0300EB03200CF0E1
:1005C000F5FA7A490CF0FAFBC8F83C00C5E7D0F818
:1005D0000821002AC1D1002BBFD1637A207A03F011
:1005E0003F0300EB03200CF0E1FA70490CF0E6FB4E
:1005F000C8F80000E37AA07A03F03F0300EB032081
:100600000CF0D4FA69490CF0D9FBC8F80400637BFC
:10061000207B03F03F0300EB03200CF0C7FA634993
:100620000CF0CCFBC8F8080097E7D0F80821002AA6
:1006300093D1002B91D1637A207A03F03F0300EB32
:1006400003200CF0B3FA59490CF0B8FBC8F80C00C1
:10065000E37AA07A03F03F0300EB03200CF0A6FA44
:1006600052490CF0ABFBC8F81000637B207B03F011
:100670003F0300EB03200CF099FA4C490CF09EFB71
:10068000C8F8140069E7D0F80821002A7FF465AFA4
:10069000002B7FF462AF637A207A03F03F0300EB14
:1006A00003200CF083FA41490CF088FBC8F81800CD
:1006B000E37AA07A03F03F0300EB03200CF076FA14
:1006C0003A490CF07BFBC8F81C00637B207B03F0ED
:1006D0003F0300EB03200CF069FA34490CF06EFB89
:1006E000C8F8200039E7D0F80821002A7FF435AF98
:1006F000002B7FF432AF637A207A03F03F0300EBE4
:1007000003200CF053FA29490CF058FBC8F82400D8
:10071000E37AA07A03F03F0300EB03200CF046FAE3
:1007200022490CF04BFBC8F82800637B207B03F0C8
:100730003F0300EB03200CF039FA1C490CF03EFBA0
:10074000C8F82C0009E7D0F80821002A7FF405AF8B
:10075000002B7FF402AF637A207A03F03F0300EBB3
:1007600003200CF023FA11490CF028FBC8F83000E4
:10077000E37AA07A03F03F0300EB03200CF016FAB3
:100780000A490CF01BFBC8F83400637B207B03F0A4
:100790003F0300EB03200CF009FA04490CF00EFBB8
:1007A000C8F83800D9E600BF0000A04000007A4435
:1007B00090F8F000704700BF90F8EC00704700BF61
:1007C00090F8F400704700BF90F8F800704700BF41
:1007D000102994BF50F82100002070472DE9F04106
:1007E0000C4E8046051F00F12C0755F8044F31468A
:1007F00020460CF0CDFB034620462BB1D8F8E41080
:100800000CF0E4FB00B12646BD42EED13046BDE817
:10081000F08100BF000020412DE9F843D0F8E480CA
:100820000F4F4FF00009051F00F13C0655F8044F2B
:10083000414620460CF0CAFB0346394620464BB1E0
:100840000CF0A6FB0346494620461BB10CF0BEFB4C
:1008500000B1A146B542E9D14846BDE8F88300BFE2
:100860000000A0402DE9F84FD0F8E490144F8346E3
:100870000026051F00F13C084FF0000A55F8044F10
:10088000494620460CF0A2FB0346394620464BB1B0
:100890000CF07EFB30B1304621460CF0D3F80AF163
:1008A000010A06464545E9D1CBF804A150460CF0B3
:1008B0007DF9014630460CF081FABDE8F88F00BFA3
:1008C0000000A040D0F80401704700BFD0F8080134
:1008D000704700BF38B5D0F8C850D0F8C44029469A
:1008E00020460CF055FB00B92C46204638BD00BF11
:1008F00038B5D0F8C850D0F8C440294620460CF08E
:1009000065FB00B92C46204638BD00BF70B5D0F855
:10091000C4601249054630460CF058FBD0B1304651
:1009200000210CF08FF801240646D5F8C8500B4979
:1009300028460CF04BFB28B1304629460CF082F8D3
:100940000134064620460CF031F9014630460CF0E1
:1009500035FA70BD04460026E7E700BF000020C25C
:100960002DE9F0470026D0F8E490104FC0F8C060A1
:100970008246051F00F13C0855F8044F49462046C1
:100980000CF024FB03463946204653B10CF000FB23
:1009900003462146304623B10CF054F80646CAF807
:1009A000C0004545E8D13046BDE8F0870000A040D2
:1009B00003299ABF00EB8100D0F8C40000207047E3
:1009C0003E2998BF80F80011704700BFD0F80C0195
:1009D000704700BF90F8E800704700BF90F8E9004A
:1009E000704700BFC0F8FC10704700BF80F8E810E7
:1009F000704700BF80F8E910704700BFC0F8E410EE
:100A0000704700BFA0F81411704700BF70B500F523
:100A10008A45064600F12C041435204604F58C74F2
:100A2000FFF71AFDAC42F8D106F5A275012428465D
:100A30000021FFF7DBFF214628460134FFF7C0FF06
:100A40003F2C05F58C75F2D10749716106F580439D
:100A50000022B26105480649F06100223162304649
:100A600083F81C2570BD00BF00007A440000484395
:100A70000000C8C270B500F58A4600F5A2741436AD
:100A8000002508E001252046002104F58C74FFF7BD
:100A9000B1FFB4420BD02046FFF79CFF034620462F
:100AA000002BF0D0FFF79AFF0028EBD170BD28464D
:100AB00070BD00BF70B500F5B05600F5A2740C36DD
:100AC00003E004F58C74B4420CD02046FFF782FF9B
:100AD00005460028F5D02046FFF778FFC307F0D57C
:100AE000284670BD0025284670BD00BFF8B500F54A
:100AF0008047002300F58A46C7F8203500F5A27428
:100B0000143603E004F58C74B44210D02046FFF78D
:100B100061FF0028F6D02046D7F82055FFF7D2FE17
:100B200004F58C740544B442C7F82055EED1D7F8CB
:100B30002005F8BD00F58040D0F81805704700BFCB
:100B400038B50C68154604F00F0C1A464FF48C7338
:100B50000CFB03332C3318440CF10104FFF7B6FCF3
:100B6000012D00D038BD064808F050FC214604484D
:100B700008F044FCBDE8384002480B210BF08AB96C
:100B8000FC89FF1F8C390100F0B50C6804F0F005FA
:100B9000402D04F00F0483B00E46074604F1010413
:100BA0004AD025DC202D4CD0302D1BD10D2C4FF000
:100BB000020501D8012A28D04FF48C7303FB04747A
:100BC0002C3420460121FFF711FF20460121FFF7B9
:100BD00011FF3B7832462946204603B0BDE8F0407D
:100BE000FFF79ABC7DBB0D2CE6D8012AE4D10CE0BE
:100BF000602D1CD0702D01D10625F4E7502DDBD1DE
:100C00000D2C4FF00405D5D9D6E7214610480192A6
:100C100008F0F4FB019A0F4811460BF03BF9294606
:100C20000B4808F0EBFB0A4808F0F0FBC4E70D2C7A
:100C30004FF00505BED9BFE70D2C4FF00305B9D91C
:100C4000BAE70125CFE70D2CB6D8062DB2DDB3E704
:100C5000FC89FF1F983901002DE9F04F0023DFF8D0
:100C60006491DFF86481594F436083B0064600F514
:100C7000A274012504E001353F2D04F58C7468D081
:100C80002046FFF7A7FE0028F5D0484606F062FF91
:100C90002946404606F05EFF2046FFF761FE0BF056
:100CA000B5FD02460B46384606F054FF2046FFF7D6
:100CB00095FD82462046FFF7AFFD834650460BF078
:100CC000A5FD0246584692468B460BF09FFD5B46BB
:100CD0005246CDE900013E4806F03CFF0021204687
:100CE000FFF766FE012182462046FFF761FE83463C
:100CF00050460BF08BFD0246584692468B460BF051
:100D000085FD5246CDE900015B46324806F022FFE0
:100D10002046FFF725FE014670680BF093FE7060D9
:100D20002046FFF7D7FDF1690CF032F9002833D1E6
:100D30002046FFF7DDFD316A0CF048F900289AD013
:100D40002046FFF7D5FD01353F2D306204F58C7448
:100D500096D1B0680BF02AFF014670680CF02EF8AF
:100D6000B169706004460CF031F900B1B461716989
:100D700020460CF00DF900B174610B2009F03EFA29
:100D800006F5804696F81C3558B9B3B1012386F8AC
:100D90001C3503B0BDE8F08F2046FFF79BFDF061E6
:100DA000C6E72BB9002386F81C3503B0BDE8F08FE9
:100DB000094806F0E1FE0023F5E7084806F0F0FEDA
:100DC000E4E700BF684001009C390100D839010008
:100DD000EC390100183A01006C3A0100343A010084
:100DE00070B5124BC36000F58A45064600F5A27443
:100DF000143503E004F58C74AC4214D02046FFF7A0
:100E0000E9FD0028F6D02046FFF7E8FCF1680CF079
:100E1000BFF80028EED02046FFF7E0FC04F58C7404
:100E2000AC42F060EAD1F06870BD00BF0000A040A5
:100E300070B5002300F58A450646036100F5A274EB
:100E4000143503E004F58C74AC4214D02046FFF74F
:100E5000C1FD0028F6D02046FFF7DEFC31690CF01A
:100E6000B5F80028EED02046FFF7D6FC04F58C74C8
:100E7000AC423061EAD1306970BD00BF4068704754
:100E800001707047816070472DE9F04100F58A4597
:100E90008846174600F5A27414351EB203E004F527
:100EA0008C74AC4214D02046FFF794FD0028F6D095
:100EB00020464146FFF796FD20463946FFF79EFD46
:100EC0002046314604F58C74FFF79CFDAC42EAD114
:100ED000BDE8F0812DE9F04700F580462E4A2F4B02
:100EE0008262002700F58A454362DFF8B4A0C6F8A5
:100EF0001875814600F5A27414354FF0000803E020
:100F000004F58C74A54216D02046FFF763FD002837
:100F1000F6D0D6F8183501332046C6F81835FFF755
:100F2000F5FC51460CF052F880B904F58C74A542DA
:100F300007F10107E8D1D6F81805C01B0BF036FE03
:100F4000014640460BF03AFFBDE8F0872046FFF728
:100F5000DDFC014640460BF075FD80462046FFF75C
:100F6000C7FCD9F824100CF031F870B92046FFF70F
:100F7000B1FCD9F828100CF00BF80028C0D020469E
:100F8000FFF7A8FCC9F82800BAE72046FFF7B0FC35
:100F9000C9F82400EAE700BF00C0794400C079C462
:100FA00000008CC2406A7047806A7047F8B500F54F
:100FB0008A460746002500F5A274143603E004F5BE
:100FC0008C74B44210D02046FFF704FD0028F6D000
:100FD0002046FFF747FC014628460BF033FD04F599
:100FE0008C74B4420546EED107F58047D7F8180552
:100FF0000BF0DCFD014628460BF0E0FEF8BD00BF1B
:101000002DE9F04F93B08046AC480D9108F580472C
:1010100006F046FDA94806F043FD08F58A44A748B6
:1010200006F03EFD08F5A275D7F818250C920023AE
:101030001434C7F820352E46A14603E006F58C7619
:101040004E4510D03046FFF7C5FC0028F6D030469C
:10105000D7F82045FFF736FC06F58C7620444E4540
:10106000C7F82005EED1D8F804000BF0CFFB4C46B2
:10107000CDE90E01D7F820B5D8F808A00026A9467A
:1010800003E009F58C79A14510D04846FFF7A2FC92
:101090000028F6D04846FFF7E5FB014630460BF046
:1010A000D1FC09F58C79A1450646EED1D7F8180593
:1010B0000BF07CFD014630460BF080FE0BF0A6FBEA
:1010C00002460B464046CDE91023D8F80C40D8F82C
:1010D0001060FFF7FFFE0BF099FBCDE90A012146F6
:1010E00030460BF0ADFC76490BF0B4FD0BF08EFBF7
:1010F000CDE9080130460BF089FBCDE90601204619
:101100000BF084FBDDE91023CDE90223DDE90E3489
:10111000CDE90401CDE900340C996A486A4E534682
:101120005A4606F0BDFC654806F0BAFC00234FF0B5
:1011300001080C9307E008F10108B8F13F0F05F52D
:101140008C7500F0B3802846FFF744FC0028F2D0ED
:101150002846FFF72DFB2846FFF72EFB2846FFF712
:101160002FFB2846FFF730FB082158480AF092FE73
:101170004146304608F042F9B8F1090F40F3998032
:1011800002215348DFF84CA10AF084FE2846FFF7FD
:10119000E7FB0BF03BFB9DF83490CDF800900B463D
:1011A0000246304608F054F94B4801210AF072FE1D
:1011B0002B46DDF830B04D46002499461FE006214D
:1011C00046480AF067FE5946304608F017F90221F2
:1011D00043480AF05FFE21464846FFF7F9FA0BF054
:1011E00015FB009502460B46304608F031F90134F4
:1011F000394801210AF04EFE102C0AD0BB46BBF143
:10120000090F0BF10107DADC012150460AF042FE1A
:10121000D5E7304608F0FAF8092132480AF03AFEDC
:1012200000214846FFF7C4FB0BF0F0FA0227024604
:101230000B460097304608F00BF90A212A480AF0BD
:1012400029FE01214846FFF7B3FB0BF0DFFA0097B8
:1012500002460B46304608F0FBF80C2123480AF002
:1012600019FE4846FFF7B2FB0023224601463046EE
:1012700008F0E4F808211E480AF00CFE4846FFF783
:1012800025FB002301462246304608F0D7F80C9B88
:101290003046103308F101084D460C9308F0B6F8BB
:1012A000B8F13F0F05F58C757FF44DAF13B0BDE875
:1012B000F08F012107480AF0EDFD61E76840010069
:1012C00000007A441C3D0100FC89FF1FBC3D010069
:1012D000004201003C3E0100C83D0100CC3D010040
:1012E0002C3E0100D43D0100E03D0100EC3D010039
:1012F000FC3D01002DE9F04F87B000F5A275DFF845
:101300002492DFF824A20391049298462E460127E6
:101310000595934604E001373F2F06F58C7675D08E
:101320003046FFF757FB0028F5D000230A22039927
:10133000484608F083F8012150460AF0ABFD5846B4
:101340000BF064FA0B46002102460091484608F073
:101350007FF8012150460AF09DFD4146484608F0BD
:101360004DF8012150460AF095FD3946484608F0EF
:1013700045F8012150460AF08DFD00240225214642
:101380003046FFF725FA0BF041FA009502460B466E
:10139000484608F05DF80134012150460AF07AFD14
:1013A000082CECD100213046FFF702FB0BF02EFA9F
:1013B000009502460B46484608F04AF8012150467F
:1013C0000AF068FD01213046FFF7F2FA0BF01EFA31
:1013D000009502460B46484608F03AF8012150466F
:1013E0000AF058FD02213046FFF7E2FA0BF00EFA40
:1013F000009502460B46484608F02AF80137484651
:1014000008F004F83F2F06F58C7689D1059D474FEB
:10141000DFF8149101264FF0000B04E001363F2E57
:1014200005F58C757AD02846FFF7D4FA0028F5D058
:1014300000230A220399384608F000F801214846A3
:1014400009F0FCF904980BF0E1F9CDF800B0024680
:101450000B46384607F0FCFF0121484609F0EEF93B
:101460004146384607F0CAFF0121484609F0E6F92F
:101470003146384607F0C2FF0121484609F0DEF93F
:1014800000244FF0020A21462846FFF7A1F90BF08D
:10149000BDF9CDF800A002460B46384607F0D8FF4C
:1014A00001340121484609F0C9F9082CEBD100218B
:1014B0002846FFF77DFA0BF0A9F9CDF800A0024607
:1014C0000B46384607F0C4FF0121484609F0B6F93B
:1014D00001212846FFF76CFA0BF098F9CDF800A02F
:1014E00002460B46384607F0B3FF0121484609F093
:1014F000A5F902212846FFF75BFA0BF087F9CDF832
:1015000000A002460B46384607F0A2FF01363846D7
:1015100007F07CFF3F2E05F58C7584D107B0BDE840
:10152000F08F00BFFC89FF1F98390100BC88FF1FA6
:1015300070B5132008F062FE58B9114C08F0A8FEEF
:101540002268104B801A80B2188008F0A1FE20603B
:1015500070BD0C4D0A4B2C881E6808F099FEA4B291
:101560003444201A2A880849C0EB00139B0092B229
:10157000A3F63403B3FBF2F39BB20B8070BD00BF44
:10158000B4D9FF1FACD8FF1FC891FF1FDDF800C002
:10159000521AACEB030C1CD0401ABCF1000F0CFB30
:1015A00000F002EBD27109DB00EB610000FB02F1FD
:1015B000002990FBF2F0184410DB7047A0EB6100AB
:1015C00000FB02F1002990FBF2F01844F5DB01303A
:1015D00070470CEBDC7C03EB6C0070470138704704
:1015E00038B5044649B108460D460CF0E9FC2368BD
:1015F00002465B682946204698472046BDE83840A9
:1016000007F004BF2DE9F0474B484C4E4C4CDFF837
:1016100034814D4F06F044FA4C4B4D4919625961E3
:1016200059644C49D9624C491963002199634FF4BC
:10163000FA7199864949D963494919644FF07C5137
:10164000D96448491965484959654849596040F283
:10165000012119810C219965454959624FF4967110
:101660005966196740F61C4159671E610A21414EAF
:1016700099679E6141F204013F4EDC600022012027
:10168000642540F21124D9679E6232213B4E1C80B2
:101690004FF05A094FF0960A83F84820D865D9666A
:1016A000DE611D66A3F868A0C3F88090C3F89810A7
:1016B000C3F8B810FF210224C3F88420C3F88C00BB
:1016C000C3F8C000C3F8902040F20110C3F8B42062
:1016D000C3F8BC1083F8D6204FF47A71A3F8D82051
:1016E00044F62062DFF898E0264EDFF89CC0C3F88D
:1016F0008840C3F8C440A3F8D40041F288343C20A9
:10170000C3F89C10C3F8A8205521F022C3F8A0808C
:10171000C3F8A4E0C3F8AC70C3F8C850C3F8CC60F9
:10172000C3F8D0C0C3F89440A3F8B000C3F8DC10ED
:10173000C3F8E020BDE8F087083E0100000040400B
:101740006666864000006842D606D606BCD9FF1FF2
:10175000CDCC4C3E00008242000020C1000020425F
:101760000000A0409A9979400AD7233D20A10700A4
:101770003333734033338340CDCCCC3DCDCC4C4060
:1017800000C02044881305009A99993E70B5454DD4
:10179000454C4648E66800232B70FFF749FB01469D
:1017A00030460BF0F5FB08B104232B703F48FFF7E0
:1017B00017FB21690BF0ECFB18B12B7843F01003F9
:1017C0002B703A48FFF7EEFBE16A0BF0FFFB18B114
:1017D0002B7843F040032B70002334486B70FFF7E5
:1017E000E3FB216B0BF0D4FB08B101236B700023EA
:1017F000EB702E48FFF71CFB06462C48FFF7F0FA6B
:10180000014630460BF01CF9616C0BF0DFFB08B1B0
:101810000123EB70264D254800232B70FFF708FBB2
:10182000A16A0646E0680BF00BF9014630460BF062
:10183000CDFB08B104232B701C48FFF7D1FAA16A35
:10184000064620690BF0FEF8014630460BF0A0FB7F
:1018500018B12B7843F010032B701448FFF7A2FB4C
:10186000216C0646E06A0BF0EBF8014630460BF0BF
:10187000ADFB18B12B7843F040032B7000236B7045
:101880000A48FFF791FB216C0346206B1C460BF0C6
:10189000D9F8014620460BF07BFB08B101236B70A1
:1018A00070BD00BFD091FF1FBCD9FF1FE491FF1F87
:1018B000B8DAFF1F534B1B68002B7CD0F0B5524E9B
:1018C00030680530B0F57A7F83B070DC30600BF0A3
:1018D0006DF94E490BF0BEF907464D4DD5F8B800ED
:1018E0000BF064F90446D5F8BC000BF05FF9214613
:1018F0000BF0A6F839460BF0ADF946490BF05EFA4D
:1019000021460BF09FF80BF06BFB0146062008F018
:10191000D3FA022140480AF0BDFA404807F076FDAC
:1019200006213F480AF0B6FA30680BF03FF9374914
:101930000BF090F90AF06AFF022702460B46009767
:10194000364807F085FD0D2136480AF0A3FAD5F890
:10195000B8000BF02BF9044630680BF027F92B493F
:101960000BF078F90346D5F8BC001D460BF01EF9C4
:1019700021460BF065F8014628460BF06BF9254926
:101980000BF01CFA21460BF05DF80AF03FFF0097C0
:1019900002460B46214807F05BFD39461E480AF017
:1019A00079FA1E4803B0BDE8F04007F02FBD0023D0
:1019B0000027336091E7164B1B48D3F8B810D3F8D3
:1019C000BC2003681948521A002A02FB03F30BDB00
:1019D000323380FB0320DA17C2EB6012002B114474
:1019E0000DDB062008F068BA323B80FB0320DA17D3
:1019F000C2EB6012002B1144F3DB0131F1E7013936
:101A0000EFE700BFB8D8FF1FBC91FF1FCDCCCC3D86
:101A1000BCD9FF1F0000C84200420100FC89FF1F23
:101A2000283E0100303E01002488FF1F1F85EB5136
:101A300030B5A748A74C85B007F0E8FCA44807F0EC
:101A4000E5FCA34807F0E2FCA3480D210AF022FAC6
:101A5000D4F8B430012B11D0A04D9D482978002333
:101A60000A2207F0EBFC2B78052B4FD8DFE813F0A8
:101A7000C401C901CE01BA01BF01B50109219848CD
:101A80000AF008FA9748FFF7ABF921690BF080FAE2
:101A9000002840F0DE819348FFF7CAF9E1680BF0B7
:101AA00095FA002840F0E9818E48FFF7C1F9054614
:101AB0008C48FFF795F9014628460AF0C1FF616C92
:101AC0000BF084FA002840F0D3818648FFF702FA31
:101AD000E16A0BF07BFA002840F0C5818148FFF7EE
:101AE000F9F9216B0BF054FA002840F0B7817E4BD6
:101AF0007C481B68012B00F0A081FFF771F9216978
:101B00000BF064FA002840F08681744D774802217A
:101B10000AF0C0F9122008F071FB012800F00A81D8
:101B2000112008F06BFB012800F00E81704B1C683F
:101B3000012C00F0128102216C486E4C0AF0AAF9C7
:101B40006D4B6348196807F059FC614807F05EFC6B
:101B500004216A480AF09EF90B2008F04FFB00238D
:101B600001460A225A4807F069FC0C2008F046FB9F
:101B7000002301460A22564807F060FC142008F0B2
:101B80003DFB002301460A22514807F057FC15206F
:101B900008F034FB0A22014600234D4807F04EFCB2
:101BA000062157480AF076F92368D8074BBF012170
:101BB0000121544854480AF06DF9236899074BBF36
:101BC000012101214F4850480AF064F923685A075F
:101BD0004BBF012101214B484B480AF05BF92368B8
:101BE0001B074BBF01210121464847480AF052F923
:101BF000042146480AF04EF9112008F0FFFA0023AC
:101C000001460A22324807F019FC102008F0F6FAC3
:101C1000002301460A222E4807F010FC122008F08B
:101C2000EDFA002301460A22294807F007FC132099
:101C300008F0E4FA0A2201460023254807F0FEFBDB
:101C4000182133480AF026F9324B18880AF0AEFF03
:101C500031490AF0FFFF0AF0D9FD002402460B4685
:101C600000941B4807F0F4FB1D212C480AF012F9E0
:101C70002B4B18680AF09AFF27490AF0EBFF0AF08D
:101C8000C5FD00940B4602461148264C07F0E0FBC8
:101C9000254802210AF0FEF82B78032B02D0238876
:101CA0009BB29BB1172121480AF0F4F8218808481B
:101CB00089B207F0A3FB1C4802210AF0EBF82B784D
:101CC000032B03D11A4B1B78002B68D105B030BD14
:101CD000FC89FF1FBCD9FF1F403E010008D7FF1F32
:101CE000503E0100E491FF1FA0DAFF1F00420100F7
:101CF000D891FF1F90D7FF1F10D7FF1F4C3F010047
:101D0000543F01005C3F0100603F0100643F01005F
:101D10006C3F010014D7FF1FCDCCCC3D883F0100A4
:101D2000A8D8FF1FC891FF1FA83F0100AC3F0100CA
:101D30008491FF1F0E215A480AF0ACF8112008F0D8
:101D40005DFA01287FF4F2AE56480A210AF0A2F8A3
:101D5000554B1C68012C7FF4EEAE112153480AF05C
:101D600099F8214652480AF095F8524A524B1268A7
:101D700003921868039BC01A0AF014FF4F490AF037
:101D800069FF0AF043FD0B460021024600914C48D2
:101D900007F05EFB214646480AF07CF8CBE60B21B3
:101DA00048480AF077F8484B4548198889B207F047
:101DB00025FB112145480AF06DF8454B404819882C
:101DC00007F01CFB434B1B78002B65D142481921BF
:101DD00005B0BDE830400AF05DB807213F480AF081
:101DE00059F893E608213E480AF054F88EE60B2194
:101DF0003C480AF04FF889E606213B480AF04AF8C9
:101E000084E6072139480AF045F87FE6072138487B
:101E10000AF040F87AE63748374DFFF709F8E168ED
:101E20000BF0B6F800283FF471AE2B78052B0BD1E0
:101E30000A2132480AF02EF868E6FEF7D1FF616AFF
:101E40000BF0C4F8F0B92C4D2D4808210AF022F807
:101E50005CE60F212B480AF01DF81CE60D212A48EC
:101E60000AF018F843E60C2128480AF013F835E682
:101E7000112127480AF00EF827E60E2125480AF01E
:101E800009F811E6162124481B4D0AF003F81B48F7
:101E90000A2109F0FFFF39E620481D2198E700BF1D
:101EA000183F0100283F0100D891FF1F343F010077
:101EB000483F0100C4DCFF1FE091FF1F6F12833A0F
:101EC000FC89FF1FC43F0100ACD8FF1FD03F0100B9
:101ED00020D7FF1F16D7FF1FE43F0100103F01006E
:101EE000043F0100F03E0100E03E0100E83E010039
:101EF000FC3E0100E491FF1F08D7FF1FC83E010010
:101F0000D43E01005C3E0100A03E0100903E010075
:101F10007C3E01006C3E0100B03E0100004001002B
:101F20002DE9F047B54CD4F88860012E8CB000F054
:101F30004581032E5DD0DFF8C882B24FB24ED4F88F
:101F40008430B248012B09BF3168316801F100418A
:101F5000316006F0FFFF3B68002B40F01581AB4875
:101F600006F0CCFF3B68C8F800000546002B40F0A7
:101F7000FB80D4F88830012B00F0BA80A4492846B1
:101F80000BF024F830B9A34928460BF001F80028DB
:101F900000F0DF81DFF880A2DFF88092DAF800300D
:101FA0000A930A98D9F800309D4FC01A0AF0FAFD3A
:101FB00029460AF04FFE9B490AF000FF99490AF0B2
:101FC000FDFE39680AF03EFDDAF800300993099BFE
:101FD0003860C9F80030D4F8C0000AF0E7FD29469F
:101FE0000AF038FE0023C8F8000033600CB0BDE8EA
:101FF000F0878D4D8D4F2A68DFF80482D2F8840077
:1020000001230F213B6006F063FE3B687D4F012BEF
:102010003B6800F02B81002B40F0AE812B68DFF88D
:102020001092D3F88400436B1E69B6B2C9F8006001
:1020300006F096FBB4F8AE2040F6E44306FB03F34B
:10204000B3FBF0F0801A00B20AF0B0FD7949064601
:10205000D4F8A0000AF0FEFD014630460AF0AEFEBC
:10206000D9F80030684E632B306000F3798100238B
:1020700033603B68002B3FF462AF02216E4809F0E9
:1020800009FF2B68D9F80050D3F8840040F6E443E8
:1020900003FB05F506F064FBB5FBF0F00AF082FDEA
:1020A0000546B4F8AE000AF081FD014628460AF064
:1020B000C7FC0AF0ABFB022502460B4600955F48C1
:1020C00007F0C6F929465C4809F0E4FE30680AF0DA
:1020D0009DFB009502460B46584807F0B9F9294682
:1020E000574809F0D7FE2946534809F0D3FE26E7A2
:1020F0004E4B1B68012B00F07481022B7FF46BAFF9
:10210000D4F8A87038460AF051FD29460AF040FF7D
:1021100040B978420AF04AFD29460AF057FF0028E4
:1021200000F0CD81DFF8F0A0DFF8F090DAF80030B1
:1021300007930798D9F80030394FC01A0AF032FDDA
:1021400029460AF087FD37490AF038FE35490AF07A
:1021500035FE39680AF076FCDAF800300693069B03
:102160003860C9F8003036E70AF050FB0B46022110
:1021700002460091314807F06BF93248042109F01A
:1021800089FED8F80050F4E6204806F0B7FE0AF0C1
:102190003DFB0B46022102460091284807F058F902
:1021A0000321294809F076FED4F8A810234807F047
:1021B00025F90321244809F06DFED0E6DFF84080C0
:1021C000D4F8A870D8F8005038460AF0EFFC294639
:1021D0000AF0FCFE002839D078420AF0E7FC0146FC
:1021E00028460AF0F3FE88B30F4D104F2B683E606F
:1021F000D3F884000F2106F06BFD06E7BCD9FF1F62
:10220000A0D8FF1FA4D8FF1FB091FF1FE8D8FF1F61
:102210000000FA430000FAC3C4DCFF1FDCD8FF1F34
:10222000D491FF1F00007A44CC91FF1F7488FF1FD8
:10223000ACDAFF1F9175DD3600420100FC89FF1FFB
:102240005C40010064400100604001009F4FA04DD0
:1022500002233B602B680E21D3F8840006F038FD82
:102260003B689C4F012B3B687FF4D5AE002B40F0C0
:10227000E5802B68DFF86092D3F88400436B1E6919
:10228000B6B2C9F8006006F06BFAB4F8AC3040F6AC
:10229000E44A0AFB06F6B6FBF0F6F01A00B20AF0C2
:1022A00085FC8E490646D4F8A4000AF0D3FC01460A
:1022B00030460AF083FD2B68894E0246D3F884002D
:1022C000D9F8003032600AFB03FA06F049FAB4F894
:1022D000AC20BAFBF0F31BB29B1A002BB4F8CE2053
:1022E000B8BF5B429A42C4BF002333603B68002BF7
:1022F0003FF425AE02217B4809F0CCFD2B68D9F8CC
:102300000050D3F8840040F6E44303FB05F506F0E3
:1023100027FAB4F8AC10B5FBF0F52DB2691A724883
:1023200007F06CF802216F4809F0B4FD30680AF03C
:102330006DFA022502460B4600956B4807F088F8B7
:1023400003216A4809F0A6FD2946664809F0A2FD66
:10235000F5E5674B1B680B93664B0B9A1A603AE6E0
:102360002B68D3F8840006F0FBF9D9F80030643804
:102370009842FFF47CAE7CE65B48DFF85C9107F0A6
:1023800045F80C215C4809F085FD5C480C2109F0FA
:1023900081FD2B683A68D3F88400436B1E69B6B29E
:1023A000C9F80060002A3FF443AE06F0D9F940F6C0
:1023B000E442002306FB02F2B2FBF0F10A224A4893
:1023C00007F03CF80221474809F064FDB4F8AE106C
:1023D000454807F013F82B68D9F80060D3F884005B
:1023E00026E6474928460AF0F1FD28B9454928461E
:1023F0000AF0CEFD00285BD0DFF8F4A0DFF8F490FF
:10240000DAF8003004930498D9F800303E4FC01A2F
:102410000AF0C8FB29460AF01DFC3C490AF0CEFC34
:102420003A490AF0CBFC39680AF00CFBDAF80030C4
:102430000393039B3860C9F80030CCE52A48DFF8E5
:10244000989006F0E3FFD4F88830012B0CBF304899
:1024500030480B2109F01EFD28480C2109F01AFD17
:102460002A683B68D2F88400426B1669B6B2C9F894
:102470000060002B3FF407AF06F072F940F6E4432A
:1024800006FB03F30A22B3FBF0F10023164806F023
:10249000D5FF0121204809F0FDFCB4F8AC1012482A
:1024A00006F0ACFF2B68D9F80060D3F88400EAE6A8
:1024B0000F4B1B6805930F4B059A1A608BE50C4B6D
:1024C0001B6808930B4B089A1A6084E57488FF1FF9
:1024D000CC91FF1FA4D8FF1FACDAFF1F9175DD362A
:1024E000B091FF1F00420100FC89FF1F484001001E
:1024F000C4DCFF1FDCD8FF1F4C4001003840010046
:102500000000FA430000FAC3D491FF1F00007A4490
:10251000204001002C4001003C3E01002DE9F04725
:102520008E4A8F4D12682B68134384B03CD18D4E78
:102530008D4C32680292029A42F228339A4200F29B
:10254000C68033680393039A42F210739A4200F2F2
:10255000C780D4F89030854E854FDFF81882012B64
:102560002BD18548FEF73CFC84490AF073FB0AF046
:102570005DFDD4F88050A36FE26F616F009580B26B
:10258000FFF704F8D4F860A0E56D0AFB00F005FB46
:1025900000F000EB800040000AF008FB78490AF0E8
:1025A0000DFC814638600DE06F4C704E704FDFF8C7
:1025B000C481D4F89030012BD3D0D7F80090D4F850
:1025C00060A0E56D0AFB05F54FF47A7005FB00F09D
:1025D0000AF0ECFA6A49054648460AF03BFB2946F0
:1025E0000AF0ECFB67490AF035FB0AF0F9FC6328B6
:1025F000306047DD624928460AF0E0FB642333601F
:10260000D8F800303860002B44D0D4F88830012B43
:1026100043D0032B4ED0022B54D002215A4809F04C
:1026200039FC5A4B18680AF0F1F8022402460B46AE
:102630000094574806F00CFF2146564809F02AFC42
:102640002146514809F026FC3168514806F0D6FE73
:102650000621514809F01EFC386849490AF0FAFA87
:102660000AF0D4F8009402460B46494806F0F0FE02
:1026700003214A4809F00EFC454804B0BDE8F04784
:1026800006F0C4BE0028BCBF00233360D8F8003079
:10269000002BBAD104B0BDE8F087414B1B68012B79
:1026A0000CBF404840480A2109F0F4FBD4F88830B8
:1026B000032BB0D13D48102109F0ECFBD4F8883051
:1026C000022BAAD107213A4809F0E4FBA5E7B4F9A7
:1026D000D830E26C94F848102748FEF7D5FB30E775
:1026E0002548DFF89080FEF77BFB2449E66FA76F53
:1026F0000AF0B0FA0AF09AFC3246D4F88060616FB2
:1027000000963B4680B2FEF741FF184E236E3060C4
:1027100003FB00F0E36D164F03FB00F000EB8000BD
:1027200040000AF043FA16490AF048FBD8F8003096
:10273000386001222A60002B3FF43BAF022112488F
:1027400009F0A8FB124806F061FE5921194809F06A
:10275000A1FB0F4806F05AFE2BE700BFB491FF1F04
:10276000B891FF1FC4DCFF1FBCD9FF1F2488FF1FC7
:10277000D491FF1F4888FF1FE491FF1F00007A4497
:10278000E4388E3E0000C84200420100A0D8FF1F7E
:10279000FC89FF1F5C400100FC4001000441010076
:1027A0007488FF1FC8400100D4400100E0400100D0
:1027B000F44001006C40010030B5112083B007F0F7
:1027C0001DFD012804D0122007F018FD012822D198
:1027D0000121152007F0ECFC2A4B2B4A2B4C1B68DF
:1027E0002B4D116801930222D4F894302A60019A8B
:1027F0000B44934208D8D4F89C000AF0D7F9254B33
:1028000019680AF0C5FBD0B101210C2003B0BDE866
:10281000304007F0CDBC00210B2007F0C9FC00219F
:102820000C2007F0C5FC0021152007F0C1FC1A4957
:10283000174B0120002208701A6003B030BD01213F
:102840000B2007F0B5FC94F8D43003242C604BB176
:10285000114B02221A7000210C2003B0BDE8304059
:1028600007F0A6BC122007F0C9FC012808BF0A4BDC
:102870004FF0110008BF1C7007F0C0FC0128EAD11E
:10288000E6E700BFC4DCFF1FA891FF1FBCD9FF1FF4
:102890008CD7FF1FA0D8FF1F08D7FF1FF0B5714EC0
:1028A000714C33682568AB4287B02DD013F001011D
:1028B0004BD013F002015FD013F0040151D0DA07BE
:1028C0000ED52268D7070BD4684D2A68002A00F07D
:1028D0009380674B1B680193019B93427FD83368B9
:1028E0009D0714D4590722D5226852070DD4614F91
:1028F0003A68002A00F09E805D4B1B680593059B9B
:10290000934200F286803568A5B107B0F0BD226819
:1029100090073DD4584D2A68002A49D0544B1B6873
:102920000393039B9A4236D333685907DCD41D4680
:10293000002DEAD12946162007F0BEFA29461720B5
:1029400007B0BDE8F04007F0B7BA162007F0B4FAB8
:102950002268336802F0FE0213F002012260ABD15C
:102960000AE0052007F0A8FA2268336802F0FB02AB
:102970002260DA07B4D5A4E7172007F09DFA226891
:10298000336802F0FD0213F00401226097D1E8E7FA
:102990005B07AAD4B9E7394B1720D3F8981007F092
:1029A0008BFA2368002243F0020323602A60BBE70E
:1029B000334806F02BFD0C21324809F06BFA304801
:1029C00006F024FDFF21172007F076FA284B2E4948
:1029D0001A680292029A09680A442A609FE7274B04
:1029E0001620D3F8981007F067FA2368002243F006
:1029F000010323602A6072E7FF21162007F05CFACA
:102A00001B4B21491A680092009A09680A442A60FF
:102A100060E71A4B0520D3F8981007F04DFA2368A9
:102A20003568002243F0040323603A60002D7FF4F0
:102A30006CAF7FE7124806F0E9FC0C21134809F05F
:102A400029FA0F4806F0E2FCFF21052007F034FACE
:102A5000074B0D491A680492049A09680A443A60BF
:102A60004BE700BF8CD7FF1F90D7FF1F94D7FF1FE6
:102A7000C4DCFF1F9CD7FF1F98D7FF1FBCD9FF1FC7
:102A8000FC89FF1F084101006488FF1F18410100F5
:102A90002DE9F84F534EDFF850A13368DFF84C9121
:102AA000D3F88400524D0F2106F012F90123CAF821
:102AB0000030504800232221C9F8003009F0EAF91B
:102AC000D9F80030132B21DC4B4F40F6E448336833
:102AD000B5F8ACB0D3F88400436B1C6905F040FE38
:102AE000A4B2012108FB04F4B4FBF0F43846A3447B
:102AF000A5F8ACB009F0CEF9642007F0E9FBD9F8ED
:102B000000300133132BC9F80030E0DDB5F8AC30EC
:102B10003A493B48A1FB03215B1A01EB5301C1F386
:102B20000F11A5F8AC1006F069FC1D21354809F01D
:102B3000B1F90221344809F0ADF9314806F066FCDC
:102B400000220E213068C9F8002005F0B3FD0223F1
:102B50002848CAF80030222109F09CF9D9F8003041
:102B6000132B22DCDFF8908040F6E4473368B5F899
:102B7000AEA0D3F88400436B1C6905F0F1FDA4B24C
:102B8000012107FB04F4B4FBF0F44046A244A5F88D
:102B9000AEA009F07FF9642007F09AFBD9F8003065
:102BA0000133132BC9F80030E0DDB5F8AE3013491E
:102BB0001348A1FB03215B1A01EB5301C1F30F1171
:102BC000A5F8AE1006F01AFC1D21104809F062F9B4
:102BD0000D48022109F05EF9BDE8F84F084806F0FB
:102BE00015BC00BFCC91FF1F7488FF1FBCDAFF1F0C
:102BF000BCD9FF1F284101004C41010087611886A4
:102C0000FC89FF1F5041010000420100704101009A
:102C10002DE9F041A44DD5F8C430062B00F06A81AF
:102C2000A24BA34C1B68A86D40F2513108222160D1
:102C3000E271002B00F0338109F0B8FF696A0646A3
:102C40000AF008F89B490AF005F80AF0EFF9C2B259
:102C50002272994AE969C0F307236372138863817A
:102C6000964B30461B88A38109F0F4FF914909F087
:102C7000F1FF0AF0DBF98E4903469148E38105F044
:102C8000F5FA904A8E4813681288228103EB830379
:102C90008D4A08265B0040F255311288216023736B
:102CA00083496281334100276373E671E78105F050
:102CB000DDFA40F2563385482360E671FEF7DEF810
:102CC000834909F0C7FF0AF0B1F920727F48FEF787
:102CD000D5F87F4909F0BEFF0AF0A8F97D4B7C4981
:102CE000C0F30720607218680AF068F80AF078F9F3
:102CF00060817648FEF7EEF86E4909F0ABFF0AF006
:102D00006FF920737148FEF7E5F86A4909F0A2FFF0
:102D10000AF066F940F30720654960736848E78167
:102D200005F0A4FA022007F0D3FA6B4A6B4B126845
:102D30001B686348A26040F25A3121605C49E3603D
:102D4000E67105F093FA664B59495D48E67140F229
:102D50005E322260D3E90023A260E36005F086FAC8
:102D6000022007F0B5FA5F4B51495548E6714FF420
:102D70005C722260D3E90023E360A26005F076FA7A
:102D8000594B1B68012B00F00382022007F0A0FAC8
:102D9000082640F273334D482360E671FEF720F8B1
:102DA000524909F057FF0AF041F903464748237298
:102DB000FEF716F84D4909F04DFF0AF037F9C0F358
:102DC000072342486372FEF733F8484909F042FF8F
:102DD0000AF02CF903463D48A372FEF729F843494F
:102DE00009F038FF0AF022F9C0F307233748E372ED
:102DF000FEF7DAF83E4909F025FE0AF017F9034616
:102E000032482373FEF7D0F8394909F01BFE0AF067
:102E10000DF9C0F307232D486373FEF7C3F8344957
:102E200009F010FE0AF002F903462848A373FEF7E2
:102E3000B9F82F4909F006FE0AF0F8F8C0F30720A8
:102E40001B49E0731E4805F011FA022007F040FA12
:102E50002A6EEB6D13FB02F3C3F3072240F27931C4
:102E60000220216062722372E07107F031FA40F2B1
:102E7000723316482360E671FDF75CFE0346134883
:102E80002372FDF757FE002240FA06F36372628157
:102E9000E26007490A48BDE8F04105F0E7B909F0EA
:102EA00085FEA969CBE600BFBCD9FF1FA0DAFF1FD2
:102EB00014D9FF1F0000204114D7FF1FA8D8FF1FFF
:102EC000D0DAFF1F2488FF1F2888FF1FE491FF1F0F
:102ED0000000C842A0D8FF1FD091FF1FB8DAFF1F23
:102EE0003488FF1F2C88FF1FD891FF1F00007A44F1
:102EF00033938843C04CDFF80483C148C4F808808A
:102F000008264FF4C363214600272360E671E7607B
:102F100005F0ACF9022007F0DBF94FF4BB63214662
:102F2000B7482360C4F80880E671E76005F09EF9B1
:102F3000022007F0CDF9E86D2B6EB24AA96DA260B0
:102F40004FF4AB62226000FB03F201FB02F213FBC1
:102F500000F313FB01F302EBC20102EB81023241E9
:102F6000227303EBC30203EB8203214640F2057296
:102F7000A348E2816373E67105F078F9022007F057
:102F8000A7F9A14BA3604FF4B362A04B9C48226009
:102F90002146E360E67105F069F9022007F098F92F
:102FA0009B4BA86D1B68E6714FF456722260002B94
:102FB00000F0EA8009F0FAFD696A064609F04AFE67
:102FC000944909F047FE0AF031F8E969C0F3072295
:102FD000C3B230462272637209F03CFE8D4909F09B
:102FE00039FE0AF023F88C4A8C4B12881B888249E0
:102FF00040BA52BA5BBA60818148A281E38105F090
:1030000035F9022007F064F9854B864A1B68118860
:10301000854803EB8302642505FB03F302EB820280
:1030200008252B419200237262724BBA4FF47672DC
:103030007E49006822606381E57109F00BFE09F0AA
:10304000F5FFF92243BA6C496D48E281A38105F08E
:103050000DF9022007F03CF94FF48B606A4A66498B
:10306000734B20606648A260E360E57105F0FEF8EE
:10307000022007F02DF94FF4A3636E482360E57139
:10308000FDF790FF634909F0E5FD09F0CFFFC0F3BC
:10309000072368482372FDF785FF5E4909F0DAFDD2
:1030A00009F0C4FF034663486372FDF77DFF594989
:1030B00009F0D0FD09F0BAFFC0F307235D48A37201
:1030C000FDF772FF534909F0C5FD09F0AFFF4FF05E
:1030D000FF32034648494A48E260E37205F0C6F809
:1030E000022007F0F5F84FF49B6352482360E57126
:1030F000FDF7C4FE474909F0ADFD09F097FFC0F3A5
:1031000007234C482372FDF7B9FE424909F0A2FD9E
:1031100009F08CFF484A494903461068637209F078
:103120004DFE09F05DFF43BA42486381FDF7D2FED0
:10313000384909F08FFD09F053FF40F307233D485C
:103140002373FDF7C7FE334909F084FD09F048FFFA
:1031500040F60302034628492948E281637305F0DB
:1031600085F8022007F0B4F8354A364B12681B6820
:10317000E5714FF4AC712160A260E3601E49204804
:10318000BDE8F04105F072B809F010FDA96914E737
:103190002848FDF725FE696D09F054FC07462548CF
:1031A000FDF746FE0146384609F0F2FE00283FF4DE
:1031B000ECAD40F2C3331F48E6712360FDF710FE0B
:1031C0002E6D314609F0E4FE00283FD01E493046FE
:1031D00009F040FD09F02AFFC0F307232372C0B2B3
:1031E00040F2014203236072034905486281E360B3
:1031F00005F03CF8C9E500BF14D9FF1F004259444F
:10320000D0DAFF1F03120004000012340000044F44
:10321000A0DAFF1F00002041A8D8FF1F14D7FF1F0E
:103220002488FF1F2888FF1FD491FF1F620B363BA5
:1032300000005678E491FF1FA0D8FF1F0000C8428D
:10324000D091FF1FB8DAFF1F00007A440A48FDF74B
:10325000C7FD0A4909F0FEFC09F0E8FEC0F30723A8
:1032600005482372FDF7BCFD044909F0F3FC09F0A1
:10327000DDFEC0B2B4E700BFE491FF1F00007A4456
:1032800038B5184C184B2268181D13F8011F9842C6
:1032900041EA0222F9D1154B154DD3F8883022604E
:1032A00002F10040022B286004D0124B1B68012B56
:1032B0000AD038BD09F07AFC0F4C2060FEF730FED2
:1032C0000C4B1B68012BF4D10C4806F09FF82968C1
:1032D0000A4806F093F8BDE838400948032108F091
:1032E000D9BD00BFCCD8FF1FC3D8FF1FBCD9FF1F5B
:1032F0008091FF1F0CD7FF1FB091FF1FFC89FF1F9C
:103300009041010070B51E4B1E4C597A9A7ADB7AB7
:103310001D4D42EA012243EA022322681B492B6029
:10332000012A0B600CD01846194BD3F88830A0F551
:103330000000022B28601BD02368012B0BD070BD2E
:10334000144806F063F8296812480023102206F09A
:1033500075F82868E8E70F4806F058F829680D481E
:1033600006F04CF8BDE870400B48032108F092BD10
:1033700009F01CFC094E3060FEF7D2FDDCE700BF0F
:10338000BCD8FF1F0CD7FF1F8091FF1FCCD8FF1F99
:10339000BCD9FF1FFC89FF1F90410100B091FF1FA6
:1033A0002DE9F04FAC4CDFF8B482AD4883B0214634
:1033B00004F0A0FED8F88830022B79D02368F02BD7
:1033C00000F09F80A3F19A02E52A19D8A54BA64DDB
:1033D0001B68012B03D12A68012A00F01D819E4938
:1033E000A2480022FDF7D0FB236803F47F63B3F506
:1033F000C07F0BD02B68012B19D003B0BDE8F08F34
:1034000003F47F63B3F5C07F974DF3D1954B924999
:103410001B689648012B98F8D63002D12A68012AF9
:1034200000D00022FDF78CFB2B68012BE5D18D4BE2
:103430001B68012BE1D18E4B8E481B6801930199CB
:1034400000230A2205F0FAFF2268E3798A48002A5D
:10345000B6BF8A498A4922F060420AF09BFB86483F
:103460000AF0AEFD0146844808F014FD256815F009
:10347000804540F0D780E379A3B1824F7E4E2B4642
:10348000234439461A7A30460AF084FB30460AF063
:1034900097FD0146304608F0FDFC0135E279EBB2BC
:1034A0009A42EDD8734803B0BDE8F04F05F0AEBFC7
:1034B000D8F88C202368012A00F09F80022A7DD052
:1034C000032A7FF47CAF40F22252934200F0F38053
:1034D00040F22352934200F0E58040F221529342A1
:1034E0007FF46DAFA2896089674B684D40EA024066
:1034F00000BA186009F05AFB2860FEF711FD236836
:103500005DE75B4B624A1B6800931378009959484A
:103510000133137000230A2205F090FF2268E3793B
:103520005548002AB6BF5549554922F060420AF075
:1035300031FB51480AF044FD01464F4808F0AAFC0F
:10354000266816F0804645D1E379EBB1DFF844B147
:10355000DFF830A1484F354604EB0509514699F88C
:10356000082038460AF016FB99F808300BF80530A9
:1035700038460AF025FD0146384608F08BFC013636
:10358000E379F5B2AB42E7D83A48434D394F434E61
:1035900005F03CFF05F1080915F8011F0023102272
:1035A000384605F04BFF0121304608F073FC4D45CD
:1035B000F2D1304805F02AFF236803E76FF47072F8
:1035C0009A18012A3FF6FBAEFFF79CFED8F88C2034
:1035D000236875E7324E284D0FCE0FC596E80300DD
:1035E00045F8040B284620F814190AF0E9FC0146B6
:1035F000A5F1140008F04EFCC6E740F2C132934238
:1036000023D040F2C23293427FF4D9AEFFF738FEA6
:10361000D8F88C20236851E70F491448FDF7B4FA15
:103620002368E2E61E4D144C0FCD0FC495E803004D
:1036300044F8040B204620F814190AF0C1FC014696
:10364000A4F1140008F026FC2CE7FFF75BFED8F885
:103650008C20236832E700BFBCD8FF1FBCD9FF1FF6
:10366000D0DAFF1F0CD7FF1F4888FF1FE491FF1F10
:10367000C4DCFF1FFC89FF1F24D9FF1F94410100F8
:10368000BC410100E84101008091FF1FB091FF1F84
:10369000C091FF1F9091FF1F8F91FF1F483F0100B6
:1036A000D0410100A1896289074D42EA01420749E0
:1036B00012BA0A6099E6A1896289034D42EA014281
:1036C000034912BA0A6090E64888FF1FB4DAFF1F68
:1036D000B0DAFF1F2DE9F84F984B1B78052B6BD004
:1036E000974F984C984E3B78226F3260002B60D0F9
:1036F000B4F86830954D96482B80FDF755FC216B4A
:1037000009F046FC08B100232B809148FDF74AFCE4
:10371000E16A09F05BFC10B1002333602B808C4818
:10372000FDF786FBE16809F051FC08B100232B800E
:103730008748FDF77DFBE16809F048FC08B10023EC
:103740002B808348FDF74CFB216909F021FC002800
:1037500070D0002333602B8803B33B787C48002B68
:1037600040F0BF80FDF720FCA16B09F011FC0028A0
:1037700040F0BE81774B76481B68012B00F04481F6
:10378000FDF756FB216A0746A06909F059F9014681
:10379000384609F01BFC002840F0D98133686E4A96
:1037A000002BBCBF0023336013889BB273B9BDE804
:1037B000F88FB4F864309DE7634A644D00231360CA
:1037C000654A2B8013889BB2002BF0D05D4E138886
:1037D000D6F8E020D6F8DC009BB202FB03F303FB33
:1037E00000F009F0E3F95D4909F034FA09F01EFC34
:1037F0005B4B84B256481C80FDF7D8FB04EB840475
:103800000746600009F0D2F90446B06D09F0CEF920
:10381000394609F01FFA0146204609F0CFFA09F0AF
:1038200005FC2B884F4A80B28342108088BF2880D5
:10383000BDE8F88F4648FDF7D3FAE16909F0A8FB27
:10384000002886D13368002B85DD4148FDF7AAFBAF
:10385000E16B09F0BBFB002840F086803C48FDF797
:10386000BFFAD4F8D0108046E06909F0EBF80146C1
:10387000404609F08DFB00283FF46DAF306809F039
:1038800095F981463248FDF7ABFA8246206FD4F8AD
:103890001CB009F08BF959468046504609F0D0F823
:1038A00041468246002009F0CBF80146504609F017
:1038B000D1F9D4F8D0108246584609F0C3F85946D9
:1038C00009F0BEF80146504609F078FA414609F081
:1038D000B9F80146484609F0B3F809F081FB3060B9
:1038E00039E7FDF761FBA16B09F052FB002840F0BE
:1038F000CF80184B16481B68012B5FD0FDF798FA54
:10390000216A0746A06909F09BF80146384609F08C
:103910005DFB00283FF442AF288809F047F9804654
:103920000B48FDF785FAD4F81890216A824648467C
:1039300009F086F80746B4F8680018E108D7FF1FB9
:1039400016D7FF1FBCD9FF1FA8D8FF1F14D7FF1F12
:10395000E491FF1FA0DAFF1FC891FF1F0AD7233C85
:1039600020D7FF1FA4DAFF1F306809F01FF9804637
:103970008F48FDF717FB8346206FD4F83CA009F071
:1039800015F951468146584609F05AF8014648460D
:1039900009F060F951468146E06A09F051F80146A4
:1039A000484609F00BFA002109F04CF80146404660
:1039B00009F046F809F014FB30604FE7FDF738FADC
:1039C000216A0746606A09F03BF80146384609F06B
:1039D000FDFA00283FF4E2AE288809F0E7F88146B6
:1039E0007348FDF725FAD4F824A0216A834650468F
:1039F00009F026F88046E06E09F0D8F80746B4F8DA
:103A0000680009F0CFF823E0FDF712FA216A0746B3
:103A1000606A09F015F80146384609F0D7FA00281F
:103A20003FF4BCAE288809F0C1F881466048FDF734
:103A3000FFF9D4F824A0216A8346504609F000F823
:103A40008046E06E09F0B2F80746606E09F0AEF805
:103A5000394608F0F5FF41460446584608F0F0FFA5
:103A60000146204609F0F6F841460446504608F063
:103A7000E7FF0146204609F0A1F9394608F0E2FFC8
:103A80000146484608F0DCFF09F0D0FA288085E6B8
:103A9000288809F08BF880464548FDF785FA81466D
:103AA000B4F86800D4F830A009F07CF85146074615
:103AB000484608F0C5FF39468146002008F0C0FF9F
:103AC0000146484609F0C6F851468146A06B08F009
:103AD000B7FF0146484609F071F9394608F0B2FFD0
:103AE0000146404608F0ACFF09F0A0FA288000E744
:103AF000288809F05BF880462D48FDF755FA814685
:103B0000606ED4F830A009F051F851460746484697
:103B100008F096FF39468146002008F091FF0146E3
:103B2000484609F097F851468146A06B08F088FF97
:103B30000146484609F042F9394608F083FF01463C
:103B4000404608F07DFF09F071FA288012E62888C7
:103B500009F02CF880461648FDF76AF9D4F8189059
:103B6000216A8246484608F06BFF0746606EE36EA6
:103B7000C01A09F01BF839460446504608F060FFA9
:103B80000146204609F066F839460446484608F0E2
:103B900057FF0146204609F011F9002108F052FFB5
:103BA0000146404608F04CFF09F040FA2880F5E550
:103BB000E491FF1F08B5284805F028FC2748072195
:103BC00008F068F9112006F019FB00B3244806211B
:103BD00008F060F9102006F011FB08B32148062117
:103BE00008F058F9122006F009FB10B31E48062110
:103BF00008F050F9132006F001FB18B31B4806210A
:103C000008F048F9BDE80840134805F0FFBB184824
:103C1000062108F03FF9102006F0F0FA0028DDD167
:103C20001448062108F036F9122006F0E7FA0028B9
:103C3000DCD11148062108F02DF9132006F0DEFA38
:103C40000028DBD10D48062108F024F9BDE8084022
:103C5000014805F0DBBB00BFFC89FF1FF4410100F8
:103C6000FC4101000C4201001C4201002C420100F9
:103C700004420100144201002442010034420100C8
:103C800010B5294C2368042B26DC01210B2006F0FB
:103C90008FFA01210C2006F08BFA0121142006F086
:103CA00087FA0121152006F083FAFF21162006F07D
:103CB00003F9FF21172006F0FFF8FF21052006F089
:103CC000FBF8FF21062006F0F7F8236801330A2BE2
:103CD000C8BF0023236010BD00210B2006F068FA46
:103CE00000210C2006F064FA0021142006F060FA8E
:103CF0000021152006F05CFA0021162006F0DCF801
:103D00000021172006F0D8F80021052006F0D4F88D
:103D10000021062006F0D0F8236801330A2BC8BF23
:103D20000023236010BD00BFACD9FF1F30B5AF48E2
:103D300083B0092106F082FD222006F003FDAC4B82
:103D4000D3F8B430012BAB4B1B7809D0052B10D81E
:103D5000DFE813F0320137013C0141012D010B0076
:103D6000002B00F03D81052B03D1A348072106F06D
:103D700065FD222006F0E6FCFF2006F0E3FCFF20B4
:103D800006F0E0FC9D4CFF2006F0DCFC9C4808217E
:103D900006F054FD21689B4805F030FBFF2006F03B
:103DA000D1FCFF2006F0CEFCFF2006F0CBFC9648AD
:103DB000092106F043FD2168924805F01FFBFF2012
:103DC00006F0C0FCFF2006F0BDFCFF2006F0BAFCA8
:103DD0008E480C2106F032FD8D4B8E49186808F094
:103DE000EDFF08F013FD002402460B4600948548C1
:103DF00005F02EFBFF2006F0A5FCFF2006F0A2FC3C
:103E0000FF2006F09FFC0921834806F017FD834838
:103E1000FDF760F808F0FAFC009402460B4679487A
:103E200005F016FBFF2006F08DFCFF2006F08AFC53
:103E3000FF2006F087FC0C21794806F0FFFC77484C
:103E4000FDF7B2F808F0E2FC009402460B466D481C
:103E500005F0FEFAFF2006F075FCFF2006F072FC6C
:103E6000FF2006F06FFC0D216E4806F0E7FC6B4862
:103E7000FDF798F808F0CAFC009402460B4661482A
:103E800005F0E6FAFF2006F05DFCFF2006F05AFC84
:103E9000FF2006F057FC0921634806F0CFFC5F487D
:103EA000FCF7ECFF614908F0D5FE08F0AFFC009488
:103EB00002460B46534805F0CBFAFF2006F042FCC1
:103EC000FF2006F03FFCFF2006F03CFC0C21584888
:103ED00006F0B4FC5148FCF783FF564908F0BAFEDF
:103EE00008F094FC009402460B46464805F0B0FAF0
:103EF000FF2006F027FCFF2006F024FCFF2006F040
:103F000021FC0D214C4806F099FC4448FCF790FF39
:103F1000484908F09FFE08F079FC009402460B46E1
:103F2000384805F095FAFF2006F00CFCFF2006F05B
:103F300009FCFF2006F006FC4048092106F07EFC43
:103F40003F4B3048196805F059FAFF2006F0FAFB9C
:103F5000FF2006F0F7FBFF2006F0F4FB0E213948A6
:103F600006F06CFC2D48FCF763FF05462B48FCF778
:103F700037FF0146284608F063FD2E4908F06AFE27
:103F800008F044FC009402460B461E4805F060FA17
:103F9000FF2006F0D7FBFF2006F0D4FBFF2006F041
:103FA000D1FBFF2003B0BDE8304006F0CBBB264874
:103FB0000B2106F043FCDCE62448062106F03EFC1B
:103FC000D7E62348072106F039FCD2E6214807212D
:103FD00006F034FCCDE62048082106F02FFCC8E6A8
:103FE0001E48082106F02AFCC3E600BF3C4201003F
:103FF000BCD9FF1F08D7FF1F103F01002488FF1FF7
:1040000054420100BC88FF1F604201006C42010065
:10401000A0D8FF1F0000C8427C420100E491FF1FAE
:104020008842010098420100A8420100000020419E
:10403000B442010000007A44C4420100D4420100AD
:104040005488FF1FE0420100F03E0100E03E010005
:10405000E83E0100FC3E0100043F0100484201002F
:10406000F8B58B4DD5F8C430042B07D0032B33D0D3
:10407000012B5BD0022B00F0CD80F8BD854C864A29
:10408000E388A86D226003F0FE0343F4006343F06D
:104090000103E38008F08AFDA96908F0DBFD7F4990
:1040A00008F0D8FD08F0C2FF7D4B7E4A1B881268DD
:1040B00093FBF2F340BA5BBA0026208121467A488E
:1040C0006381E66004F0D2F8A279D5F8C43066F3D3
:1040D0000002032BA271CBD16E4CA86DA37240F2EB
:1040E000FF224EF6010322600722E271238108F0CD
:1040F0005DFDA96908F0AEFD684908F0ABFD08F068
:1041000095FF684A664B11681B8893FBF1F380B2F8
:10411000020AE0726373644822731B122146A37380
:1041200004F0A4F8D5F8C430012BA3D15F4B594C4F
:1041300019682160072280231020E271237206F0A3
:104140005DF8002800F09680594B1B68544E554F7F
:10415000A86D03EB83035A00D2B2C3F3C713637293
:10416000A27233883A6893FBF2F3A3731B12637352
:1041700008F01CFDA96908F06DFD4E4B196808F0A8
:104180005FFC464908F066FD08F050FF2073C0F35D
:1041900007204049E072444804F068F8022006F025
:1041A00097F8454B1B6823600723E3711020802399
:1041B000237206F023F8002868D1404B1B68A86DD5
:1041C00003EB83035A00D2B2C3F3C713A272637224
:1041D00008F0ECFCA96908F03DFD394B196808F0BE
:1041E0002FFC2E4908F036FD08F020FF2073C0F3A5
:1041F00007203A683388E07293FBF2F325492A4896
:10420000A3731A12627304F031F8D5F8C430022B8C
:104210007FF433AF1F4C2448237240F20E322260E9
:1042200021460122E27104F021F81D4BA86D1B8884
:104230005B00FF2B4FF00402D4BFDBB2FF234FF42F
:104240004171E271402221602272637208F0AEFC7B
:10425000A96908F0FFFC1B49054608F0B7FE58B9EC
:1042600001229023A272E3720A490F48BDE8F84088
:1042700003F0FCBF114B68E72946284608F0E2FB33
:1042800008F0D4FEC0F30722C3B2EBE7084B95E772
:10429000BCD9FF1F14D9FF1FF4E506180000204108
:1042A00014D7FF1F6088FF1FD0DAFF1F3C88FF1F55
:1042B0005C88FF1F1CD7FF1F4088FF1F5888FF1F07
:1042C00018D7FF1F0000484330B50388C27985B076
:1042D0005BBA012AADF804300C4602F1010506DD97
:1042E00000F10801013A0DF1060005F06FFB044BE7
:1042F00004481B5D2A4601A903F0E6FA05B030BD6B
:1043000060500100A0D7FF1F2DE9F041684D2B78C8
:10431000062B82B06DD0674B674E1B78674F002B22
:1043200041D0DFF89C812978664C0023C8F8003022
:1043300041F0800323600823E37141F2C703238126
:104340003B780022022B628120D833784FF0200284
:104350004FEA0313A281DBB200D10433A37359489F
:10436000FFF7B2FF0346E373022005F0B1FF5549A2
:10437000554803F07BFF2B78544801332B70FCF732
:1043800099FB002847D102B0BDE8F081D8F80020A1
:104390003378012A0CBF482240221B0122730122DC
:1043A0006273A373DBE7DFF818812978D8F800205F
:1043B00041F08003434C012A23604FF00803E3716E
:1043C000BBD14248FCF70CFD414908F043FC08F022
:1043D0002DFE053020723D48FCF702FD3C4908F0F7
:1043E00039FC08F023FE83B205331B12297863726F
:1043F000A6E7314E314F337800222A703A780133E4
:10440000032ADBB29CBF01323A700F2B337015D0F8
:10441000284B1B7883E7E3882E4D2B48A560B021FD
:10442000216003F0FE03274943F400630022E38088
:10443000E26002B0BDE8F04103F018BF264A274C05
:1044400013680093009B206800219842317015D2B8
:10445000234BDFF8608019680123994288F8003007
:1044600014D0126801921F4AB2F8B010019A3C3180
:104470004FF47A7000FB0122226050E70D4BDFF809
:1044800040801970D8F80020802393E7164804F084
:10449000BDFF1321154807F0FDFC134804F0B6FFDB
:1044A000114804F0B3FF98F800300B4AD9E700BF79
:1044B000A4D9FF1FDC91FF1F10D9FF1FA6DAFF1F31
:1044C000D891FF1F14D9FF1FD0DAFF1FE491FF1FFF
:1044D00000007A44FF00CDA2C4DCFF1FE091FF1F63
:1044E0004888FF1FBCD9FF1FFC89FF1FF042010055
:1044F0002DE9F0411A4CDFF86C800025A027E388F5
:10450000657203F0FE0343F400634FF0A10C4FF615
:10451000FF7221464FF0FF364046E38084F808C022
:1045200062812760E660013503F0A0FE022005F0FD
:10453000CFFE0F2DE3D10C4B276000221A70E388C9
:10454000E66003F0FE036FF0C80243F40063E3800B
:10455000A26003490348BDE8F04103F087BE00BFF5
:1045600014D9FF1FD0DAFF1FC091FF1FF0B5AB4C6D
:10457000AB4D83B007F020FC23682860042B59D092
:10458000022B40F02981A0F13103422B00F21B8164
:10459000DFE813F06A0601070E071B073D077507E2
:1045A0004C075A07190119011901190119011901BB
:1045B000190119011901190119011901190119012B
:1045C000190119011901190119011901190119011B
:1045D000190119011901190119011901190119010B
:1045E00019011901190119011901190119011901FB
:1045F00019011901190119011E01190119011901E6
:1046000019011901190119011901190119011901DA
:1046100019011901460019016707712840F0D3807C
:104620000022732322602B602368002B00F0A782F6
:1046300003B0F0BDA0F13103482B00F2C48001A209
:1046400052F823F083570000875700008B57000073
:10465000E35400004F570000695700007F570000E7
:10466000A7570000F3570000C7470000C7470000E6
:10467000C7470000C7470000C7470000C747000002
:10468000C7470000C7470000C7470000C7470000F2
:10469000C7470000C7470000C7470000C7470000E2
:1046A000C7470000C7470000C7470000C7470000D2
:1046B000C7470000C7470000C7470000C7470000C2
:1046C000C7470000C7470000C7470000C7470000B2
:1046D000C7470000C7470000C7470000C7470000A2
:1046E000C7470000C7470000C7470000C747000092
:1046F000C7470000C7470000C7470000C747000082
:10470000C7470000C7470000AB570000C74700007D
:10471000C7470000C7470000C7470000C747000061
:10472000C7470000C7470000C7470000C747000051
:10473000C7470000C7470000C7470000C747000041
:10474000C747000021460000C7570000C7470000C8
:10475000C7470000C7470000C7470000C747000021
:1047600099540000C554000007F062FB00280DDDDD
:104770002C482D4E04F0A8FF08F018FA2B4908F039
:104780001DFB01226223706222602B6007F050FB48
:1047900000280EDD2348244E04F096FF08F006FAA8
:1047A000224908F00BFB01226223C6F8D0002260E8
:1047B0002B6007F03DFB002801F346812368286841
:1047C000012B00F0988673283FF42EAF03B0F0BDA4
:1047D000FEF75EF923682868082B10D1342800F012
:1047E0004F813FF71AAF312800F058813228EAD1C3
:1047F00007F01EFB002800F3658223682868072B5A
:104800001DD134283FF709AF3028DCDD32380228CB
:1048100001F24786DFE800F0A00CB4000CD9FF1FBE
:10482000D0D8FF1FFC89FF1FBCD9FF1F00007A44AE
:1048300007F0FEFA002800F35D8223682868062B43
:1048400040F06B82A0F13103402BBCD801A252F89A
:1048500023F000BF0D5000005D5100000D4D000021
:10486000455200002952000009520000C7470000CD
:10487000ED510000CB510000C7470000C7470000C2
:10488000C7470000C7470000C7470000C7470000F0
:10489000C7470000C7470000C7470000C7470000E0
:1048A000C7470000C7470000C7470000C7470000D0
:1048B000C7470000C7470000C7470000C7470000C0
:1048C000C7470000C7470000C7470000C7470000B0
:1048D000C7470000C7470000C7470000C7470000A0
:1048E000C7470000C7470000C7470000C747000090
:1048F000C7470000C7470000C7470000C747000080
:10490000C7470000C7470000C7470000C74700006F
:10491000C7470000A551000085510000E159000083
:10492000C7470000C7470000C7470000C74700004F
:10493000C7470000C7470000C7470000C74700003F
:10494000C7470000C7470000C7470000C74700002F
:10495000C74700002146000007F06AFA00287FF7E9
:104960006CAFB848B84E04F0AFFE08F01FF9B74975
:1049700008F070F901232360612370642B6010E05C
:1049800007F056FA00287FF758AFAE48AE4E04F055
:104990009BFE012323606123B0862B6001E007F0BA
:1049A0000BFA07F045FA05460028F8D1A54804F0AF
:1049B0002DFDA44804F02AFDA24804F027FDA148DB
:1049C00004F024FD9F4804F021FD1F21A04807F0BA
:1049D00061FA9C4804F01AFD1C219E4807F05AFA1F
:1049E000B06A9D4908F036F907F010FF00950246BD
:1049F0000B46944804F02CFD0221984807F04AFA2F
:104A0000904804F003FD2321954807F043FA706CA9
:104A1000914908F01FF907F0F9FE009502460B4690
:104A2000884804F015FD02218C4807F033FA8548C8
:104A300004F0ECFC19218B4807F02CFA306C07F0DD
:104A4000E5FE02250B46024600957E4804F000FD77
:104A50002946854807F01EFA7A4804F0D7FC22213F
:104A6000824807F017FAB18E764804F0C7FC03219C
:104A70007F4807F00FFA734804F0C8FC07237BE077
:104A800007F0D6F900287FF7B8AE6E486E4E04F0F6
:104A90001BFE03B2F26CA6F8D83020E107F0C8F98B
:104AA000002800F31F81684E96F84810B6F9D830F8
:104AB000F26C022984BF002186F848106D48FCF78B
:104AC000E3F90122692322602B6001E007F074F909
:104AD00007F0AEF905460028F8D15A4804F096FCD4
:104AE000584804F093FC574804F090FC554804F0F3
:104AF0008DFC544804F08AFC15215F4807F0CAF980
:104B0000504804F083FC18215C4807F0C3F92B4699
:104B10000A2296F848104B4804F090FC494804F0EB
:104B200075FC2821564807F0B5F9F06C4A4908F0A1
:104B300091F807F06BFE00950B460246414804F0E1
:104B400087FC0221454807F0A5F93E4804F05EFCC9
:104B500018214C4807F09EF9B6F9D810394804F0EE
:104B60004DFC384804F052FC1321474807F092F9F5
:104B7000344804F04BFC0823236003B0F0BD434EDF
:104B8000304804F043FC0421414807F083F92D48E4
:104B900004F03CFC10213F4807F07CF9294804F060
:104BA00035FC13213C4807F075F93C4B2548196842
:104BB00004F024FC234804F029FC1421384807F0B1
:104BC00069F9204804F022FC1E21364807F062F9FA
:104BD0001C4804F01BFC1521334807F05BF9194809
:104BE00004F014FC1E21314807F054F9154804F074
:104BF0000DFC20212E4807F04DF9124804F006FC68
:104C000019212C4807F046F90E4804F0FFFB122149
:104C1000294807F03FF90B4804F0F8FB0F2127481B
:104C200007F038F9074804F0F1FB0D21244807F09C
:104C300031F9044804F0EAFB0022012332602360CA
:104C400003B0F0BDFC89FF1FBCD9FF1F6F12833A70
:104C50009C450100BC45010000007A4470430100FE
:104C6000DC45010000460100284501001C4601000A
:104C700040460100E491FF1F18480100284301004D
:104C80004443010074430100904301004888FF1F22
:104C900050470100584701006C4701005488FF1F2E
:104CA0008047010098470100B8470100D047010044
:104CB000F047010014480100304801004448010059
:104CC00054480100C548C64E04F0FEFC07F06EFFD4
:104CD000C44907F0BFFFB6F9D830F064024696F831
:104CE0004810EBE6BD48BE4E04F0EEFCC1B286F8BB
:104CF0004810DBE6B948BA4E04F0E6FC07F056FF70
:104D000001232360612330642B604AE607F090F8AA
:104D1000002801F31B8323682868052B17D1362848
:104D200000F3868630287FF783AC3238042801F2FE
:104D3000A783DFE810F035012501A9000500450132
:104D400007F076F8002801F3078123682868032B11
:104D50007FF436ADA0F13003482B3FF634AD01A20D
:104D600052F823F0D1620000FD620000AF62000043
:104D70009362000077620000556200003562000017
:104D80001F62000003620000E3610000C7470000EB
:104D9000C7470000C7470000C7470000C7470000DB
:104DA000C7470000C7470000C7470000C7470000CB
:104DB000C7470000C7470000C7470000C7470000BB
:104DC000C7470000C7470000C7470000C7470000AB
:104DD000C7470000C7470000C7470000C74700009B
:104DE000C7470000C7470000C7470000C74700008B
:104DF000C7470000C7470000C7470000C74700007B
:104E0000C7470000C7470000C7470000C74700006A
:104E1000C7470000C7470000C7470000C74700005A
:104E2000C7470000C7470000CD6100004B6100008C
:104E3000356100001F61000007610000576000003D
:104E4000694700008D470000C7470000B3470000D6
:104E5000E7600000C7470000C7470000C7470000E1
:104E6000C7470000C7470000D9600000BB600000D2
:104E7000C7470000C7470000C7470000C7470000FA
:104E8000C7470000A560000006F0D2FF00287FF7AA
:104E90005CAF5248524E04F017FC534BC6F8B800B2
:104EA00002221A60FCF706FD01226B2322602B60B0
:104EB00001E006F081FF06F0BBFF0028F9D147486A
:104EC00004F0A4FA454804F0A1FA444804F09EFA1C
:104ED000424804F09BFA414804F098FA21214348E3
:104EE00006F0D8FF3D4804F091FA1521404806F03D
:104EF000D1FFD6F89410394804F080FA02213D48D9
:104F000006F0C8FF354804F081FA1E213A4806F041
:104F1000C1FFD6F89C10314804F070FA03213748DD
:104F200006F0B8FF2D4804F071FA1E21344806F04F
:104F3000B1FFD6F89810294804F060FA274804F029
:104F400065FA1D212F4806F0A5FFD6F8B8102348B2
:104F500004F054FA214804F059FA1E212A4806F0B8
:104F600099FFD6F8BC101D4804F048FA1B4804F01D
:104F70004DFAD6F8B430012B01F048820523FBE549
:104F800006F056FF00287FF7E0AE1448144E04F0F8
:104F90009BFB012323606B23C6F898002B608AE7F4
:104FA00006F046FF00287FF7D0AE0C480C4E04F008
:104FB0008BFB012323606B23C6F89C002B607AE7F0
:104FC000074E96F8D5300122B3FA83F322605B09CD
:104FD0006B2286F8D5302A606DE700BFFC89FF1F81
:104FE000BCD9FF1F6F12833AB8D8FF1F4446010097
:104FF00068460100BC4401008046010048400100B1
:10500000A0460100C0460100E046010006F010FF86
:1050100000287FF780AE9B489B4E04F055FB07F0BD
:10502000C5FD9A4907F0CAFE012323606523B061DC
:105030002B6001E006F0C0FE06F0FAFE05460028EF
:10504000F8D1904804F0E2F98E4804F0DFF98D4879
:1050500004F0DCF98B4804F0D9F98A4804F0D6F959
:1050600011218B4806F016FF864804F0CFF928215D
:10507000884806F00FFFB069844907F0EBFD07F0A0
:10508000C5FB009502460B467E4804F0E1F902217B
:10509000814806F0FFFE7B4804F0B8F916217F48EE
:1050A00006F0F8FE306A794907F0D4FD07F0AEFB50
:1050B00000950B460246734804F0CAF9022176486F
:1050C00006F0E8FE6F4804F0A1F9D6F8C430002BD2
:1050D00032DD1D21724806F0DDFE706E07F066FDC0
:1050E000704907F0B7FD07F091FB022502460B4619
:1050F0006448009504F0ACF901216B4806F0CAFE43
:10510000604804F083F91F21684806F0C3FEF06E82
:1051100007F04CFD634907F09DFD07F077FB009514
:1051200002460B46574804F093F95F48012106F008
:10513000B1FE544804F06AF95D48112106F0AAFE58
:10514000D6F8C430062B00F2A983DFE813F0300450
:1051500035042B043F043A044404A30306F068FE1C
:1051600000287FF7D8AD4748474E04F0ADFA07F066
:105170001DFD464907F022FE0123236065233062AE
:105180002B6059E706F054FE00287FF7C4AD3D4878
:105190003D4E04F099FA012323606523C6F8DC0034
:1051A0002B6049E706F044FE00287FF7B4AD354890
:1051B000354E04F089FA00EB800043000122A6F886
:1051C0006830652322602B6036E706F031FE002848
:1051D0007FF7A1AD2B482C4E04F076FA07F0E6FCE1
:1051E000012323606523B0632B6025E7264E96F8E4
:1051F000D430002B01F0938001230022236065232B
:1052000086F8D4202B6017E706F012FE00287FF7FF
:1052100082AD1C481C4E04F057FA0123236065231D
:10522000C6F8C8002B6007E7174ED6F8C430012235
:105230001344072B2260A8BF00236522C6F8C430A0
:105240002A60F9E606F0F4FD00287FF764AD0D480A
:105250000D4E04F039FA00EB800040000122652376
:10526000F06622602B60E7E6074ED6F88430B3FA8A
:1052700083F35B090122C6F88430632322602B602C
:105280001AE000BFFC89FF1FBCD9FF1F00007A4451
:10529000BC470100A443010070430100D04301005A
:1052A000E8430100CDCCCC3DFC4A0100084401009C
:1052B0002844010006F080FD06F0BAFD0028F9D16F
:1052C000B14804F0A3F8B04804F0A0F8AE4804F0E8
:1052D0009DF8AD4804F09AF8AB4804F097F81F2108
:1052E000AA4806F0D7FDA84804F090F81E21A84867
:1052F00006F0D0FDA44804F089F8A6481A2106F06B
:10530000C9FDD6F88830022B01F04780032B01F04D
:105310003B80012B01F02F809F48092106F0BAFD48
:10532000994804F073F814219C4806F0B3FDD6F8B0
:105330008410954804F062F8934804F067F81C2143
:10534000974806F0A7FDD6F890108F4804F056F85D
:105350008D4804F05BF81C21924806F09BFDD6F8BE
:10536000C010894804F04AF8874804F04FF8D6F88E
:10537000883023F00202012A00F0FD85022B01F0A3
:1053800032801321884806F085FD7F4804F03EF8FE
:105390000223FFF7F1BB854ED6F89030B3FA83F3C2
:1053A0005B090122C6F89030632322602B6083E7FB
:1053B0000123236006F03CFD002800F3B8877B4EF4
:1053C0000122632322602B6076E70123236006F02D
:1053D0002FFD002807DD6C48744E04F075F907F0C6
:1053E000E5FBC6F8A40023686322072B2A603FF47C
:1053F0001FA9062B00F0F482052B3FF419A9032BFB
:1054000000F09886012B7FF413A9684E54E701231E
:10541000236006F00DFD0028E5DD5B48634E04F0D7
:1054200053F907F0C3FBC6F8A000DCE75F4ED6F8DF
:105430008C3001221344052BA8BF1346226063223F
:10544000C6F88C302A6037E70123236006F0F0FCB1
:105450000028B4DD4C48554E04F036F9C6F8A800D3
:10546000AEE7524ED6F8883001221344042B226056
:10547000A8BF00236322C6F888302A601CE70123F6
:10548000236006F0D5FC0028ADDD3F48474E04F010
:105490001BF9A6F8CE00A6E701232360FFF728F842
:1054A000642223682A60082B3FF4C2A8072B3FF42C
:1054B000BFA8062B3FF4BCA8052B18BF64203FF4FF
:1054C000B7A844E40123236006F0B2FC002804DD01
:1054D0002D4804F0F9F8364B1870642223682A60CE
:1054E000E1E7344A1368B3FA83F3642001215B09CE
:1054F000216013602860A0F152031F2B3FF663A9BF
:1055000001A252F823F000BF035A0000C747000071
:10551000C7470000C7470000C7470000C747000053
:10552000C7470000C7470000C7470000C747000043
:10553000C7470000C7470000C7470000C747000033
:10554000C74700006F640000696400000B5400004E
:10555000BD5500007B640000C7470000C74700003E
:10556000C747000075640000C7470000636400007F
:10557000C7470000C7470000C7470000C7470000F3
:10558000C7470000115A0000FC89FF1FBC490100F9
:10559000DC490100FC490100744A0100804A010015
:1055A000984A0100B84A010090430100BCD9FF1F8E
:1055B000A091FF1FD4D8FF1F06F0FEFB06F038FCB9
:1055C00005460028F8D19248924E03F01FFF9048FC
:1055D00003F01CFF8E4803F019FF8D4803F016FFFF
:1055E0008B4803F013FF13218B4806F053FC8848C7
:1055F00003F00CFF0D21894806F04CFC844803F0B1
:1056000005FF0F21864806F045FC864B8048196847
:1056100003F0F4FE7E4803F0F9FE1321824806F001
:1056200039FC824B7A48196803F0E8FE784803F0A9
:10563000EDFE12217E4806F02DFC7E4B7448196861
:1056400003F0DCFE724803F0E1FE11217A4806F017
:1056500021FC7A4B6E48196803F0D0FE6C4803F0C9
:10566000D5FE0E21764806F015FCD6F8B410684831
:1056700003F0C4FE664803F0C9FE1921714806F024
:1056800009FC714B6248196803F0B8FE604803F0EA
:10569000BDFE11216D4806F0FDFB6D4B5C4819689D
:1056A00003F0ACFE5A4803F0B1FE1021694806F041
:1056B000F1FB694B5648196803F0A0FE544803F00B
:1056C000A5FE1C21654806F0E5FB654B50481968AE
:1056D00003F094FE4E4803F099FE1621614806F04F
:1056E000D9FBB6F8B0104A4803F088FE1E215E4888
:1056F00006F0D0FB464803F089FE0C215B4806F01B
:10570000C9FB5B49424809782B460A2203F096FE02
:105710003F4803F07BFE1021564806F0BBFB2946AC
:10572000554806F0B7FB3A4803F070FE172153487E
:1057300006F0B0FB364803F069FE1321504806F02E
:10574000A9FB334803F062FE0423FFF715BA314E7C
:10575000D6F8B430B3FA83F3642001225B092260E7
:10576000C6F8B4302860C6E6012346482360FBF73C
:10577000BDF9354B642218602A60236893E6344AE9
:10578000B0E6284AAEE6294AACE62A4B1A6801215F
:10579000002A0CBF0A46002221601A6040F00686EB
:1057A00064202860A7E62C4A9CE60123236006F0CB
:1057B0003FFB00287FF791AE1548164E03F084FF9B
:1057C000A6F8B00089E63049304ACB888A6003F0F9
:1057D000FE0343F400630120CB8000232060CB60F4
:1057E0002B48B0230B6002F041FD642223682A603D
:1057F00059E60123236006F01BFB002800F3B48563
:10580000174B186804287FF768AE02221A6064E616
:10581000FC89FF1FBCD9FF1F6448010078480100C4
:10582000884801000CD7FF1F98480100A4D8FF1F2B
:10583000AC480100A8D9FF1FC0480100D4D8FF1F01
:10584000D4480100E448010010D7FF1F00490100BF
:10585000B8D8FF1F144901008891FF1F2849010093
:105860004C88FF1F48490100604901008049010040
:10587000A091FF1F9049010068400100A449010068
:1058800090430100E491FF1F14D9FF1FFF00CDA238
:10589000D0DAFF1F7248042106F0FCFA714803F0C9
:1058A000B5FDD6F8C430002B0FDD18216E4806F088
:1058B000F1FAD6F8C8106B4803F0A0FD6B4802213E
:1058C00006F0E8FA674803F0A1FD69481B2106F0DD
:1058D000E1FA96F8D430002B40F048836548122155
:1058E00006F0D8FA5F4803F091FD1F21624806F0E8
:1058F000D1FAB06B06F08AFF02250B4602460095EE
:10590000584803F0A5FD29465C4806F0C3FA5548FF
:1059100003F07CFDD6F8C430002B39DD2721584830
:1059200006F0B8FAB6F8680007F040F9554907F0F4
:1059300091F906F06BFF009502460B46494803F0CB
:1059400087FD0121504806F0A5FA464803F05EFDA8
:1059500021214E4806F09EFAD6F8DC10414803F0AB
:105960004DFD01214A4806F095FA3E4803F04EFDF0
:105970001821484806F08EFAD6F8E010394803F0AE
:105980003DFD4548032106F085FA364803F03EFD0B
:105990001321424806F07EFA324803F037FD062311
:1059A000FFF7EAB80C213E4806F074FA76E70D21BD
:1059B0003C4806F06FFA71E70C213B4806F06AFAA2
:1059C0006CE70D21394806F065FA67E70D21384884
:1059D00006F060FA62E70B21364806F05BFA5DE7F5
:1059E00006F026FA00287FF796A91E48324E03F0EB
:1059F0006BFE012323606523C6F8E0002B60FFF7F0
:105A00001BBB4FF0E0232D4AC3F80C2DFEF710BE50
:105A1000E422002128482A4E03F052FF2B6800217F
:105A20000122732B216032607EF402AEFFF7A8B82A
:105A300071287EF4C8AE2349214E002373220B60E7
:105A400023602A60FFF79CB806481B4E03F03CFE1B
:105A500007F0ACF8F0630122622322602B6035E08E
:105A600098440100FC89FF1FA0440100BC440100D0
:105A7000C0440100DC440100084501002845010044
:105A80002C450100CDCCCC3DFC4A01005445010021
:105A9000784501007C4501009845010090430100D4
:105AA0005C4401003C4401004C4401007C44010082
:105AB0006C4401008C440100BCD9FF1F0400FA05AE
:105AC0004888FF1FB8D8FF1F06F076F906F0B0F936
:105AD00005460028F8D1C34803F098FCC14803F0FC
