:1000000000800020BD01000011880000C9870000A9
:10001000C9870000C9870000C9870000C9870000A0
:10002000C9870000C9870000C98700001188000047
:1000300011880000C9870000D5A80000D9A90000D8
:10004000118800001188000011880000118800004C
:10005000118800001188000011880000118800003C
:10006000118800001188000011880000118800002C
:10007000118800001188000011880000118800001C
:10008000118800001188000011880000118800000C
:1000900011880000118800001188000011880000FC
:1000A00011880000118800001188000011880000EC
:1000B00011880000F97C0000057D0000097D00002A
:1000C000157D0000197D00001D7D000011880000D5
:1000D00011880000118800001188000011880000BC
:1000E00011880000118800001188000011880000AC
:1000F00011880000E5B0000011880000B1940000F4
:10010000118800007D960000118800001188000011
:10011000118800001188000011880000118800007B
:10012000118800001188000011880000118800006B
:10013000118800001188000011880000118800005B
:10014000118800001188000011880000118800004B
:10015000118800001188000011880000118800003B
:100160001188000009990000118800001188000022
:10017000118800001188000011880000118800001B
:10018000118800001188000011880000118800000B
:1001900011880000118800001188000011880000FB
:1001A00011880000118800001188000011880000EB
:1001B000118800001188000011880000564B4CF295
:1001C000205210B51A804DF628121A8000BF00BFC9
:1001D00008F022FB514B4FF010621A60504A9A60AF
:1001E000504ADA60504A136813F4807304D14F49BF
:1001F0000B604FF4A85313604D4B1A78110703D5C9
:100200001A7842F008021A704A4B4B492A221A7097
:100210004A4A4B4B8B4204D252F8040F43F8040B6A
:10022000F8E7484B484900228B4202D243F8042B9E
:10023000FAE74649464A002352F8230041F82300D2
:1002400001336F2BF8D1434B434A802103F8011B44
:100250009342FBD1414B3D4A1A60414B8A221A70AE
:10026000A3F5805324225A70A0221A709A7992071B
:10027000FCD59A79D406FCD43A4A937903F00C035E
:10028000082B384BF9D103221A7140225A719A79FE
:100290009006FCD5334A9179324B4906FBD5324A58
:1002A000324911600221516020221A709A7902F0BD
:1002B0000C020C2AFAD12E4B2E4A1A602E4B2F4AD2
:1002C0001A6000225A60072243F8042C2C4AC3F813
:1002D0000C2D62B608F056FD144B1B68DA0705D5E5
:1002E000284808F033FB284B284A1A60284B1B7813
:1002F0005B0609D5244C254B22689A4204D121483B
:1003000008F024FB002323600CF0D4F908F08AFAEB
:100310000AF0A8FDFEE700BF0E2005403080044033
:10032000823F04000100002B10D0034014D0034092
:1003300002D0074000E007403092FF1FEC2301008D
:100340002087FF1F3092FF1F24D4FF1F0082FF1F52
:100350000000000000E400E05FE400E008ED00E0E1
:100360000050064000400640448004400000030165
:1003700004800440C010050014E000E0FF76010096
:1003800000002020D52CF95E1CE00340A5C3945A40
:1003900000F00740FFFFFFFFFFFFFFFFFFFFFFFF32
:1003A000FFFFFFFFFFFFFFFFFFFFFFFFFFFFFFFF5D
:1003B000FFFFFFFFFFFFFFFFFFFFFFFFFFFFFFFF4D
:1003C000FFFFFFFFFFFFFFFFFFFFFFFFFFFFFFFF3D
:1003D000FFFFFFFFFFFFFFFFFFFFFFFFFFFFFFFF2D
:1003E000FFFFFFFFFFFFFFFFFFFFFFFFFFFFFFFF1D
:1003F000FFFFFFFFFFFFFFFFFFFFFFFFFFFFFFFF0D
:10040000FFFFFFFFFFFFFFFFFFFFFFFFDEF9FFFF23
:1004100010B5054C237833B9044B13B10448AFF33E
:1004200000800123237010BD3092FF1F00000000E8
:10043000E8230100084B10B51BB108490848AFF389
:1004400000800848036803B910BD074B002BFBD0A0
:10045000BDE81040184700BF000000003492FF1FA5
:10046000E82301003092FF1F00000000F0B4194F94
:100470000024031F00F12C0100F15C0200F13C0696
:1004800043F8044FB34241F8047F4FF0000542F8AF
:10049000044FF5D10023104A1049C0F89050C0F81D
:1004A0009450C0F89850C0F89C50C0F8A050C0F8C4
:1004B000B050C0F8A420C0F8AC20C0F8A81080F854
:1004C000B83080F8B93080F8D030C0F8DC30F0BCFB
:1004D000704700BF0000A040000048430000C8C2B1
:1004E0002DE9F047824682B006290ED8DFE811F0E8
:1004F0005300070064009900D00007013B00DAF8C0
:10050000D81011B9002B00F03081DAF83080DAF819
:1005100000400AF1300955460AF15C07002602E066
:1005200059F8048F2C68214640460CF06DF80136CE
:10053000214628B1DAF8B4000CF052F800B12C636F
:10054000214657F8040F0CF041F89F4920B120468E
:100550000CF05AF800B12C66102E05F10405DFD11D
:1005600002B0BDE8F087DAF8D8100029CDD1002B11
:10057000CBD1537A107A03F03F0300EB03200BF04A
:1005800033FE92490BF038FFDAF83080CAF83C00AD
:10059000DAF80040BDE7557A117A937AD07ADAF822
:1005A0003080DAF8004001EB052202EB034303EB55
:1005B0000063CAF8DC30ACE7DAF8D8100029A4D11F
:1005C000002BA2D1537A107A019203F03F0300EB83
:1005D00003200BF009FE7D490BF00EFF019ACAF8CB
:1005E0000C00D37A907A03F03F0300EB03200BF06A
:1005F000FBFD76490BF000FF019ACAF81000537B0F
:10060000107B03F03F0300EB03200BF0EDFD6F497F
:100610000BF0F2FEDAF83080CAF81400DAF8004085
:1006200077E7DAF8D81000297FF46FAF002B7FF45A
:100630006CAF537A107A019203F03F0300EB032072
:100640000BF0D2FD61490BF0D7FE019ACAF81800F1
:10065000D37A907A03F03F0300EB03200BF0C4FD44
:100660005A490BF0C9FE019ACAF81C00537B107B53
:1006700003F03F0300EB03200BF0B6FD53490BF0F2
:10068000BBFEDAF83080CAF82000DAF8004040E714
:10069000DAF8D81000297FF438AF002B7FF435AF9B
:1006A000537A107A019203F03F0300EB03200BF022
:1006B0009BFD46490BF0A0FE019ACAF82400D37AAC
:1006C000907A03F03F0300EB03200BF08DFD3F49D0
:1006D0000BF092FE019ACAF82800537B107B03F0BE
:1006E0003F0300EB03200BF07FFD38490BF084FE45
:1006F000DAF83080CAF82C00DAF8004009E7DAF8B6
:10070000D81000297FF401AF002B7FF4FEAE537A9E
:10071000107A019203F03F0300EB03200BF064FD1D
:100720002A490BF069FE019ACAF83000D37A804654
:10073000907A03F03F0300EB03200BF055FD2349B3
:100740000BF05AFE019ACAF83400537B107B03F079
:100750003F0300EB03200BF047FD1C490BF04CFE60
:10076000DAF80040CAF83800D3E6537A107A0192DA
:1007700003F03F0300EB03200BF036FD13490BF0B1
:100780003BFE019ACAF80000D37A0446907A03F03F
:100790003F0300EB03200BF027FD0C490BF02CFE70
:1007A000019ACAF80400537B107B03F03F0300EB6F
:1007B00003200BF019FD05490BF01EFEDAF830801E
:1007C000CAF80800A5E600BF0000A04000007A4477
:1007D00090F8C000704700BF90F8BC00704700BFA1
:1007E00090F8C400704700BF90F8C800704700BF81
:1007F0000C2994BF50F82100002070472DE9F041EA
:100800000B4E8046041F00F12C0754F8045F31465C
:1008100028460BF0DBFE30B1D8F8B41028460BF0B8
:10082000F3FE00B12E46BC42EFD13046BDE8F08168
:10083000000020412DE9F041D0F8B4704FF00008DD
:10084000041F00F12C0654F8045F394628460BF0CB
:10085000DBFE084948B128460BF0B8FE414620B1FE
:1008600028460BF0D1FE00B1A846B442EBD1404679
:10087000BDE8F0810000A0402DE9F047D0F8B47049
:1008800082464FF00009041F00F12C064FF00008CB
:1008900054F8045F394628460BF0B6FE0C4950B1B7
:1008A00028460BF093FE30B1484629460BF0E8FB92
:1008B00008F101088146B442EAD1CAF8D480404622
:1008C0000BF092FC014648460BF096FDBDE8F08720
:1008D0000000A040D0F8D400704700BFD0F8D80086
:1008E000704700BF38B5D0F89850D0F894402946EA
:1008F00020460BF06BFE00B92C46204638BD00BFE9
:1009000038B5D0F89850D0F89440294620460BF0DE
:100910007BFE00B92C46204638BD00BF70B5D0F82C
:1009200094401249054620460BF06EFED0B1204699
:1009300000210BF0A5FB01240646D5F898500B4981
:1009400028460BF061FE28B1304629460BF098FB93
:100950000134064620460BF047FC014630460BF0BA
:100960004BFD70BD00260446E7E700BF000020C233
:100970002DE9F8430026D0F8B480C0F89060814695
:10098000041F00F12C0754F8045F414628460BF081
:100990003BFE094950B128460BF018FE30B13046F5
:1009A00029460BF06DFB0646C9F89000BC42EAD11F
:1009B0003046BDE8F88300BF0000A04003299ABF7D
:1009C00000EB8100D0F89400002070473E2998BFCA
:1009D00080F8D010704700BFD0F8DC00704700BF2F
:1009E00090F8B800704700BF90F8B900704700BF9A
:1009F000C0F8CC10704700BF80F8B810704700BF37
:100A000080F8B910704700BFC0F8B410704700BF3D
:100A1000A0F8E410704700BF70B500F565550646B4
:100A2000043500F12C042046E834FFF71FFDAC42EA
:100A3000F9D106F58A75012428460021FFF7DCFF6D
:100A4000214628460134FFF7C1FF3F2C05F1E80598
:100A5000F2D143F64C1400250548064A064B35559D
:100A600000217061B161F2613362304670BD00BF38
:100A700000007A44000048430000C8C270B500F589
:100A80006556043600F58A74002507E001252046E6
:100A90000021E834FFF7B4FFB4420AD02046FFF744
:100AA0009FFF0028F3D02046FFF79EFF0028EDD1DE
:100AB00070BD284670BD00BF70B500F592560C366B
:100AC00000F58A7402E0E834B4420CD02046FFF707
:100AD00087FF05460028F6D02046FFF77DFFC307B5
:100AE000F1D5284670BD0025284670BD2DE9F0419E
:100AF00043F6501300F56556374600228046C25033
:100B00000436103700F58A7402E0E834B4420DD0A0
:100B10002046FFF765FF0028F7D020463D68FFF725
:100B2000D9FEE8342844B4423860F1D143F650137A
:100B300058F80300BDE8F08143F64813C0587047E9
:100B4000F0B50D6805F00F0405F0F005402D83B0F9
:100B50000F46064604F1010445D01EDD602D3CD051
:100B6000702D36D0502D3AD0072C01D8042D1CDD25
:100B7000E82303FB04642C3420460121FFF73CFFEB
:100B800020460121FFF73CFF337820463A462946AC
:100B900003B0BDE8F040FFF7A3BC202D21D0302DDD
:100BA00019D0002DE0D1072CE2D8012AE0D121464E
:100BB0000E4801920AF00EF8019A0D48114609F00C
:100BC00023FD294609480AF005F8084809F0B2FF54
:100BD000CEE70625CCE70225E5E70525C8E704258D
:100BE000E1E70125DFE70325DDE700BFD487FF1F2D
:100BF000640801002DE9F043002383B006464360FA
:100C000000F58A74012504E001353F2D04F1E80464
:100C100066D02046FFF7E4FE0028F5D04E4806F0E7
:100C2000EBFA29464D4806F0E7FA2046FFF7A0FE0A
:100C30000AF084FE02460B46494806F0DDFA2046DB
:100C4000FFF7DCFD80462046FFF7F4FD07464046EF
:100C50000AF074FE8046384689460AF06FFE424626
:100C60004B46CDE900013F4806F0C6FA0021204678
:100C7000FFF7A4FE012180462046FFF79FFE0746AE
:100C800040460AF05BFE8046384689460AF056FE2A
:100C900042464B46CDE90001334806F0ADFA204606
:100CA000FFF766FE014670680BF0EAF970602046B7
:100CB000FFF718FEF1690BF089FC002833D12046BC
:100CC000FFF71EFE316A0BF09FFC00289CD02046E7
:100CD000FFF716FE01353F2D306204F1E80498D18C
:100CE000B0680BF081FA014670680BF085FBB169C2
:100CF000706004460BF088FC00B1B4617169204655
:100D00000BF064FC00B174610B2007F0B7FF43F6F1
:100D10004C13F35C60B99BB143F64C130122F254BF
:100D200003B0BDE8F0832046FFF7DCFDF061C6E7C5
:100D300053B943F64C130022F25403B0BDE8F083DC
:100D40000A4806F087FAE7E7094806F06DFA43F625
:100D50004C130022F254F0E7980F010068080100DC
:100D6000A4080100B8080100E4080100000901001E
:100D70003809010070B5114BC36000F56555064692
:100D8000043500F58A7402E0E834AC4213D0204602
:100D9000FFF726FE0028F7D02046FFF72FFDF16869
:100DA0000BF014FC0028EFD02046FFF727FDE834B5
:100DB000AC42F060EBD1F06870BD00BF0000A04015
:100DC00070B5002300F5655506460361043500F54E
:100DD0008A7402E0E834AC4213D02046FFF700FEEC
:100DE0000028F7D02046FFF725FD31690BF00CFCF9
:100DF0000028EFD02046FFF71DFDE834AC423061FB
:100E0000EBD1306970BD00BF40687047017070471A
:100E1000816070472DE9F04100F565558846174619
:100E20001EB2043500F58A7402E0E834AC4213D0F7
:100E30002046FFF7D5FD0028F7D020464146FFF7B2
:100E4000D7FD20463946FFF7DFFD20463146E8341E
:100E5000FFF7DEFDAC42EBD1BDE8F0812DE9F843B0
:100E600043F6481300F565550027C7502E462A4A19
:100E70002A4B826280464FF00009436204350836EF
:100E800000F58A7402E0E834A54213D02046FFF74B
:100E9000A7FD0028F7D03368013333602046FFF701
:100EA0003DFD1F490BF0B0FB88B9E834A54207F1BE
:100EB0000107EBD143F6481358F80300C01B0BF0B1
:100EC00093F9014648460BF097FABDE8F8832046AF
:100ED000FFF724FD014648460BF0D2F88146204634
:100EE000FFF70EFDD8F824100BF08EFB70B92046EA
:100EF000FFF7F8FCD8F828100BF068FB0028C2D0E8
:100F00002046FFF7EFFCC8F82800BCE72046FFF7B3
:100F1000F7FCC8F82400EAE700C0794400C079C4AF
:100F200000008CC2406A7047806A7047F8B500F5CF
:100F3000655507460026043500F58A7402E0E8345A
:100F4000AC420FD02046FFF74BFD0028F7D02046DB
:100F5000FFF792FC014630460BF092F8E834AC42C1
:100F60000646EFD143F64813F8580BF03DF9014619
:100F700030460BF041FAF8BD2DE9F04F06468FB030
:100F800086488B4606F0E0F8844806F0DDF8834892
:100F900006F0DAF843F648133046F2580D92FFF7A0
:100FA000A5FDB3680C93074670680AF0C7FC80463D
:100FB00030468946FFF7BAFF82463046F468356905
:100FC000FFF74CFF0AF0BAFCCDE90A01214628469A
:100FD0000BF054F872490BF05BF90AF0AFFCCDE965
:100FE000080128460AF0AAFCCDE9060120460AF0CD
:100FF000A5FCCDE9040150460AF0A0FC0D9A0C9B1B
:10100000CDE90201CDE90089114666483A4606F06D
:101010009BF8624806F098F806F58A764FF00109C9
:101020004FF0000A07E009F10109B9F13F0F06F19D
:10103000E80600F0AB803046FFF7D2FC0028F2D083
:101040003046FFF7C5FB3046FFF7C6FB3046FFF7DB
:10105000C7FB3046FFF7C8FB0821534809F0D4FA14
:101060004946524809F0B6FDB9F1090F40F39180A5
:1010700002214F4809F0C8FA3046FFF779FC0AF020
:101080005DFC5FFA8BF802460B46CDF800804748BE
:1010900009F0AAFD0121474809F0B6FA5546002497
:1010A00020E00621444809F0AFFA29463F4809F0FC
:1010B00091FD0221414809F0A7FA21463046FFF789
:1010C00097FB0AF03BFCCDF8008002460B46374800
:1010D00009F08AFD01340121364809F095FA102CF7
:1010E00009D03D46092D05F10107DADC012134481C
:1010F00009F08AFAD5E72D4809F01CFD092131488D
:1011000009F082FA00213046FFF758FC0AF016FC7D
:10111000022502460B460095244809F065FD0A2188
:10112000294809F071FA01213046FFF747FC0AF01F
:1011300005FC009502460B461C4809F055FD0C21A4
:10114000224809F061FA3046FFF746FC00232246A8
:101150000146164809F0FEFC08211D4809F054FA22
:101160003046FFF7BBFB2246014600230F4809F03B
:10117000F1FC09F101090D4809F0DCFCB9F13F0F60
:101180000AF1100A06F1E8067FF455AF0FB0BDE88A
:10119000F08F01210A4809F037FA69E7980F01003A
:1011A00000007A44E80B0100880C0100D487FF1F7F
:1011B000A0110100940C0100980C0100440E0100E4
:1011C000540E0100A00C0100AC0C0100B80C010091
:1011D000C80C01002DE9F04F85B000F58A758A46EC
:1011E00003929B462E464FF0010806E008F10108E5
:1011F000B8F13F0F06F1E8067BD03046FFF7F0FB71
:101200000028F3D000230A2251467D4809F0A2FCB1
:1012100001217C4809F0F8F903980AF08FFB0023BC
:101220000246009376480B4609F0DEFC0121754822
:1012300009F0EAF95946724809F0CCFC01217148DD
:1012400009F0E2F941466E4809F0C4FC01216D48FD
:1012500009F0DAF900244FF0020921463046FFF781
:10126000C7FA0AF06BFBCDF8009002460B466448C3
:1012700009F0BAFC01340121624809F0C5F9082CD3
:101280004FF00207E9D100213046FFF797FB0AF043
:1012900055FB009702460B46594809F0A5FC012171
:1012A000584809F0B1F901213046FFF787FB0AF0F1
:1012B00045FB009702460B46514809F095FC012179
:1012C000504809F0A1F939463046FFF777FB0AF09C
:1012D00035FB009702460B46494809F085FC08F1AA
:1012E0000108474809F026FCB8F13F0F06F1E8066F
:1012F00083D101274FF0000904E001373F2F05F1AA
:10130000E80579D02846FFF76BFB0028F5D00023CD
:101310000A2251463C4809F01DFC0121394807F0DA
:10132000C3FF03980AF00AFBCDF8009002460B4673
:10133000354809F059FC0121324807F0B5FF5946FC
:10134000314809F047FC01212E4807F0ADFF39462E
:101350002D4809F03FFC01212A4807F0A5FF002491
:101360004FF0020821462846FFF742FA0AF0E6FA53
:10137000CDF8008002460B46234809F035FC0134C5
:101380000121204807F090FF082C4FF00206E9D118
:1013900000212846FFF712FB0AF0D0FA0096024619
:1013A0000B46194809F020FC0121164807F07CFF84
:1013B00001212846FFF702FB0AF0C0FA0096024618
:1013C0000B46114809F010FC01210E4807F06CFF94
:1013D00031462846FFF7F2FA0AF0B0FA00960246C4
:1013E0000B46094809F000FC0137074809F0A2FB49
:1013F0003F2F05F1E80585D105B0BDE8F08F00BFAE
:10140000D487FF1F64080100C487FF1F0A4A0B49E5
:10141000106ED36D03FB00F34FF47A7000FB03F002
:10142000642310B50B600AF0DFFE0549054C0AF095
:10143000E3FF206010BD00BF0CCEFF1F3087FF1FF1
:10144000E4388E3E34CFFF1F38B5044608460D46BB
:101450000BF016FF2368024629465B682046984732
:101460000546204609F066FB284438BD2DE9F041C9
:101470004548464E464F474C05F066FE464B4749A9
:10148000474A4848596011251D70474D4749DA6061
:101490001E6100224FF4FA769F619C62444F454CD6
:1014A0001D63454DD861D9624FF07C5043499A6322
:1014B0009E863C220C26DF631C64414F414C5D65D7
:1014C000414DD864196502200121A3F8A4209E652E
:1014D000002264265F62C3F8C4404FF4967732243A
:1014E0001D625D615D6440F61C455870587219724A
:1014F000D96583F848201E66DF665F669C664FF0FC
:101500000A081D6741F2040CC3F88020C3F8840068
:10151000C3F88820C3F89040C3F8AC404FF05A0E8F
:10152000C3F8A820C3F8B410C3F8B8004FF47A7712
:10153000C3F8BC6083F8C810244E83F8C910244D4A
:1015400083F8CA2041F28831A3F8CC20FF2440F26E
:10155000D6620520C3F87480C3F878C0C3F87CE075
:10156000C3F89470C3F89860C3F89C50C3F8B040B7
:10157000A3F8C200C3F88C10A3F8C010A3F8A020F1
:10158000A3F8A220BDE8F081D40C01000000404087
:1015900033338340CDCCCC3D0CCEFF1F20A10700C0
:1015A00066668640CDCC4C40000020C100008242DF
:1015B000000020420000A0400AD7233D9A997940BC
:1015C000333373409A99993ECDCC4C3E000068422B
:1015D00000C02044F0B5002185B0112007F05CFB6D
:1015E0000021102007F058FB0021122007F054FBC7
:1015F0000021132007F050FB01210B2007F04CFBCA
:1016000001210C2007F048FB0121142007F044FBC6
:101610000121152007F040FB0121162007F03CFBBB
:101620000121172007F038FB0121052007F034FBCA
:10163000974C984D0121062007F02EFB01210D202B
:1016400007F02AFB20880AF0CBFD0146162007F0A0
:101650008DFA20880AF0C4FD0146172007F086FAAB
:1016600020880AF0BDFD0146052007F07FFA20889A
:101670000AF0B6FD00240146062007F077FA009430
:101680002346854A8549864805F0DEFFE6B23246A4
:101690008049834805F086FF2B797E4980486FF3A7
:1016A0000003013432462B7105F072FF082CEDD196
:1016B0000924E6B232467749794805F073FF2B7961
:1016C0007449774843F00103013432462B7105F029
:1016D0005FFF0D2CEDD1734C23681021D3F88400EB
:1016E00006F084FC23681021D3F8840006F012FD74
:1016F00023680221D3F8840006F0CEFB2368022180
:10170000D3F8840006F056FD23680F21D3F8840037
:1017100006F03EFE0C21644808F076FF634809F0AD
:1017200009FA1121624808F06FFF604809F002FAD7
:1017300040F2836007F096FB5C4809F0FBF9172143
:101740005C4808F061FF594809F0F4F95A4B1B78DE
:101750009A0600F1D580584B1B781B0700F1DC80FE
:10176000554B1B785F0700F1E380534B1B789E07B6
:1017700000F1EA80514B1B781D0600F1F1804F4BC0
:101780001B785C0600F1F8804C4B1B78980600F142
:10179000FF804A4B1B78590700F10681474B1B78A5
:1017A0001A0700F10D81454B1B789B0700F114814E
:1017B0003E4809F0BFF972B6414A4CF220534DF64B
:1017C00028112024138023461180013BFDD13D4D7B
:1017D0003D483E4900234FF480562E8003800B8005
:1017E00032F80E3C9BB243F0D30322F80E3C62B6B3
:1017F0009D2007F0E3FE21463548364D08F004FFF2
:101800002A4809F097F905F1D0062F462C46601BAF
:1018100006F048FF04F8010BB442F8D13B78112BD5
:1018200001D0FFF723FE042005F0E2FB2A4B2B48F2
:101830002B4D00221A6005F0ADFB01210D2007F0B1
:1018400017FAF96D2748FFF7E3FAB7F9CC30FA6CCD
:1018500097F848102348FFF7DDFA2348234B046824
:1018600003941B682249234A039E00680290126871
:10187000214C2E6081FB0301DB172048A3EB2113D1
:101880000299216013FB02F3038005B0F0BD00BF95
:101890003487FF1FE4CEFF1F20D1FF1F20A10700C8
:1018A00084CFFF1F64CFFF1FF40C0100D487FF1FFC
:1018B000040D0100180D010001F0074000F0074081
:1018C0000E20054004200540062005401620054056
:1018D0001C0E01000CCEFF1F8492FF1FFC92FF1F05
:1018E00064CDFF1FFC93FF1F2CD1FF1F5487FF1FE8
:1018F0001F85EB515087FF1F6CCDFF1F1CCFFF1FB3
:101900002121394808F080FE384809F013F9384B96
:101910001B781B077FF524AF0C21364808F074FEB6
:10192000324809F007F9324B1B785F077FF51DAF8E
:101930000E21314808F068FE2C4809F0FBF82C4BCA
:101940001B789E077FF516AF17212C4808F05CFE28
:10195000264809F0EFF82A4B1B781D067FF50FAFDC
:101960000E21284808F050FE204809F0E3F8244BE7
:101970001B785C067FF508AF1221234808F044FE6F
:101980001A4809F0D7F81E4B1B7898067FF501AF6F
:1019900013211E4808F038FE144809F0CBF8184B04
:1019A0001B7859077FF5FAAE1C21194808F02CFE68
:1019B0000E4809F0BFF8124B1B781A077FF5F3AEFB
:1019C0001921144808F020FE084809F0B3F80C4B20
:1019D0001B789B077FF5ECAE18210F4808F014FE2A
:1019E000024809F0A7F8E3E6300D0100D487FF1F95
:1019F00001F00740540D0100640D0100740D010059
:101A000000F007408C0D01009C0D0100B00D01009D
:101A1000C40D0100E40D0100000E010070B5464C3C
:101A2000464D4748E66800232B70FFF7C9F9014689
:101A300030460AF0CBFD08B104232B704048FFF775
:101A400099F921690AF0C2FD18B12B7843F010030F
:101A50002B703B48FFF766FAE16A0AF0D5FD18B132
:101A60002B7843F040032B70002335486B70FFF751
:101A70005BFA216B314E0AF0A9FD08B101237370A6
:101A800000232F48EB70FFF79BF905462C482B4E9F
:101A9000FFF770F9014628460AF0F0FA616C0AF087
:101AA000B3FD08B10123F370264D254800232B70A8
:101AB000FFF786F9A16A0646E0680AF0DFFA0146F8
:101AC00030460AF0A1FD08B104232B701C48FFF733
:101AD00051F9A16A064620690AF0D2FA0146304659
:101AE0000AF074FD18B12B7843F010032B701448E2
:101AF000FFF718FA216C0646E06A0AF0BFFA0146C1
:101B000030460AF081FD18B12B7843F040032B706A
:101B100000230B486B70FFF707FA216C0546206B1A
:101B2000084C0AF0ADFA014628460AF04FFD08B10C
:101B30000123637070BD00BF0CCEFF1FF4CDFF1FEB
:101B4000FC93FF1F5092FF1F514B1B68002B74D05A
:101B5000F0B5504D2B680533B3F57A7F83B040F371
:101B60008E80002300272B604B4CD4F8AC000AF089
:101B70003BFB0646D4F8B0000AF036FB31460AF0CB
:101B80007DFA39460AF084FB44490AF035FC3146B7
:101B90000AF076FA0AF042FD0146062006F0E8FE59
:101BA00002213F4808F030FD3E4808F0C3FF0621FF
:101BB0003D4808F029FD28680AF016FB3B490AF069
:101BC00067FB09F0BBFE022602460B46009635482D
:101BD00009F00AF80D21364808F016FDD4F8AC00DB
:101BE0000AF002FB074628680AF0FEFA2F490AF0BD
:101BF0004FFB0546D4F8B0000AF0F6FA39460AF071
:101C00003DFA014628460AF043FB24490AF0F4FB5A
:101C100039460AF035FA09F091FE009602460B4665
:101C2000204808F0E1FF31461D4808F0EDFC1D4852
:101C300003B0BDE8F04008F07DBF174B1D4AD3F854
:101C4000AC10D3F8B03012685B1A632B0BDD1A4866
:101C500003FB02F380FB0302DB17C3EB621319449F
:101C6000062006F085BE154803FB022380FB030215
:101C7000DB17C3EB22121144062006F079BE18468A
:101C80002B600AF0B1FA09490AF002FB07466BE73C
:101C90008092FF1FDCCEFF1F0CCEFF1F0000C8424A
:101CA000A0110100D487FF1F400E0100CDCCCC3D18
:101CB000480E01003087FF1F1F85EB51CBF08D28A8
:101CC00030B5B448B44C85B008F034FFB14808F0E2
:101CD00031FFB04808F02EFF0D21B04808F094FC09
:101CE000D4F8A830012B11D0AD4CAA48217800239C
:101CF0000A2208F02FFF2378052B67D8DFE813F0BE
:101D0000310136013B01400145012C010921A54863
:101D100008F07AFCA448FFF72DF821690AF056FC78
:101D200018B10F21A14808F06FFC9F48FFF748F851
:101D3000E1680AF069FC18B10E219D4808F064FCC6
:101D40009948FFF73DF805469748FFF713F8014615
:101D500028460AF093F9616C0AF056FC18B111217B
:101D6000944808F051FC9048FFF778F8E16A0AF0CF
:101D70004BFC18B10C21904808F046FC8A48FFF74C
:101D80006DF8216B0AF022FC18B10D218B4808F088
:101D90003BFC8B4B84481B68012B00F07481FEF7E1
:101DA000E9FF21697C4D0AF02FFC78B17E48FFF7EE
:101DB00007F8E9680AF00AFC40B1794B1B78052B5B
:101DC00000F0728108217F4808F01EFC02217E4845
:101DD00008F01AFC122006F051FF012800F01E81C5
:101DE000112006F04BFF012800F02281774B1C6880
:101DF000012C00F0268102217348754C08F004FC88
:101E0000744B6448196808F0E5FE624808F092FED9
:101E10000421714808F0F8FB0B2006F02FFF002387
:101E200001460A225B4808F095FE0C2006F026FFCA
:101E3000002301460A22574808F08CFE142006F0C1
:101E40001DFF002301460A22524808F083FE152098
:101E500006F014FF0A22002301464E4808F07AFEDD
:101E600006215E4808F0D0FB2368DD074FF0010132
:101E70004CBF5B485B4808F0C7FB236898074FF0EE
:101E800001014CBF5648574808F0BEFB23685A076B
:101E90004FF001014CBF5248524808F0B5FB23688F
:101EA0001B074CBF4E484F48012108F0ADFB0421F1
:101EB0004D4808F0A9FB112006F0E0FE0023014682
:101EC0000A22344808F046FE102006F0D7FE002310
:101ED00001460A222F4808F03DFE122006F0CEFEF1
:101EE000002301460A222B4808F034FE132006F096
:101EF000C5FE0A2200230146264808F02BFE1821C1
:101F00003A4808F081FB3A4B18680AF06DF93949F4
:101F10000AF0BEF909F012FD002402460B460094B7
:101F20001C4808F061FE1D21334808F06DFB334B5F
:101F300018680AF059F92F490AF0AAF909F0FEFCCD
:101F4000009402460B46134808F04EFE02212C482E
:101F500008F05AFB05B030BD07212A4808F054FBB1
:101F600034E70621284808F04FFB2FE707212748D0
:101F700008F04AFB2AE70721254808F045FB25E73A
:101F80000821244808F040FB20E70B21224808F0F4
:101F90003BFB1BE7D487FF1F0CCEFF1F580E010031
:101FA00000CEFF1F680E0100FC93FF1F740E01009E
:101FB000840E0100940E0100A80E0100B80E01006D
:101FC0008C92FF1FEC0E0100A0110100F8CEFF1F44
:101FD00054CFFF1F5C92FF1F640F01006C0F0100C4
:101FE000740F0100FC1D0100780F0100800F01003B
:101FF0007C92FF1FCDCCCC3D9C0F01004CCFFF1F2E
:10200000BC0F0100280F0100F80E0100000F0100B5
:10201000140F01001C0F0100080F01000E212548BC
:1020200008F0F2FA112006F029FE01287FF4DEAE56
:102030000A21214808F0E8FA204B1C68012C7FF4A3
:10204000DAAE11211E4808F0DFFA21461D4808F0DB
:10205000DBFA1D4B1D4A1B680393039B1068C01AD3
:102060000AF0BEF81A490AF013F909F067FC0025D6
:1020700002460B460095174808F0B6FD2146114868
:1020800008F0C2FAB7E6FEF775FE616A0AF0BCFA1C
:1020900000283FF497AE16210F4808F0B5FA0A2140
:1020A0000E4808F0B1FA91E60A210C4808F0ACFAA3
:1020B0008CE600BF300F0100400F0100F8CEFF1F7B
:1020C0004C0F0100600F01002CD1FF1F28CFFF1F14
:1020D0006F12833AD487FF1FC80E0100E00E010083
:1020E0002DE9F04F904C914FD4F88430012B8DB0F6
:1020F00000F04281032B52D08D4E8E4DD4F88030AB
:102100008D48012B09BF2968296801F10041296028
:1021100006F0BAF93368002B40F0C680864806F016
:1021200089F9D4F884303860012B064600F0C98064
:1021300082490AF069FA78B9814930460AF046FACC
:1021400050B9804A804B12680B920B9A1A60002398
:102150002B600DB0BDE8F08FDFF8E8817A4CD8F83D
:1021600000300A930A982368784FC01A0AF038F8AA
:1021700031460AF08DF876490AF03EF974490AF0C2
:102180003BF9396809F07CFFD8F800300993099BC6
:102190002360002338602B600DB0BDE8F08FDFF8BE
:1021A000D0816C4DD8F80000614E012300220F2130
:1021B0002B6005F0E9FD2B68012B336800F0FA80F5
:1021C000002B40F07E81D8F80030DFF8A891D3F8DA
:1021D0008400436B19698DB2C9F8005005F05AFEAE
:1021E000B4F8A22040F6E44303FB05F1B1FBF0F0A4
:1021F000801A00B209F0F8FF57494E4D8246D4F8D4
:1022000098000AF045F8014650460AF0F5F8D9F86A
:1022100000302860632BDFF85CA100F345810023C8
:102220002B603368002B3FF469AF02214B4808F064
:10223000EBF9D8F80030D9F80020D3F8840040F644
:10224000E44303FB02F805F025FEB8FBF0F009F0CB
:10225000C7FF8046B4F8A20009F0C6FF0146404619
:1022600009F00CFF09F06AFB4FF0020802460B462A
:10227000CDF800803A4808F0B7FC4146374808F0EE
:10228000C3F9286809F05AFBCDF8008002460B46D6
:10229000334808F0A9FC4146324808F0B5F94146F8
:1022A0002E4808F0B1F929E7234806F0C3F809F0F1
:1022B00045FB022602460B460096294808F094FC8E
:1022C0002CE7244B1B68012B00F03481022B7FF498
:1022D0003EAF25490AF098F930B9244930460AF052
:1022E00075F9002800F05581DFF85880164CD8F8B1
:1022F0000030079307982368144FC01A09F070FF45
:10230000314609F0C5FF12490AF076F810490AF083
:1023100073F8396809F0B4FED8F800300693069BCC
:102320003860236013E700BF0CCEFF1FF8CDFF1FFE
:10233000F0CDFF1F48CFFF1FFCCEFF1F0000FA4368
:102340000000FAC32CD1FF1F5892FF1F34CFFF1F8C
:1023500000007A444887FF1F17B7D138A011010049
:10236000D487FF1FFC0F010000C82F4800A08CC6B7
:1023700064CFFF1F70CFFF1F3D68A84928460AF0B1
:1023800025F930B12846A6490AF03EF900287FF425
:1023900006AFDFF8CC82A34DD8F80000A24E02238E
:1023A00000220E212B6005F0EFFC2B68012B336817
:1023B0007FF406AF002B40F0F380D8F80030DFF850
:1023C000B092D3F88400436B19691FFA81FBC9F8F6
:1023D00000B005F05FFDB4F8A030944D40F6E44A3B
:1023E0000AFB0BFBBBFBF0F0C01A00B209F0FCFECD
:1023F0008F498346D4F89C0009F04AFF01465846AD
:1024000009F0FAFFD8F80020D9F800302860D2F897
:1024100084000AFB03FA05F03DFDB4F8A030BAFBD6
:10242000F0F00FFA80FAC3EB0A03002BB4F8C220D5
:10243000B8BF5B429342BCBF00232B603368002BC4
:102440003FF45CAE02217B4808F0DEF8D8F800309B
:10245000D9F80020D3F8840040F6E44303FB02F8E7
:1024600005F018FDB4F8A010B8FBF0F000B2411A66
:10247000714808F0AFFB02216E4808F0C5F82868E3
:1024800009F05CFA4FF0020802460B46CDF80080D6
:10249000694808F0A9FB0321684808F0B5F84146EF
:1024A000644808F0B1F829E6D8F80030D3F8840081
:1024B00005F0F0FCDAF8003064389842FFF4AFAE73
:1024C000AFE65D48DFF8A891DFF894A108F032FB91
:1024D0000C215B4808F098F80C215A4808F094F851
:1024E000D8F800203368D2F88400426B11698DB2AD
:1024F000C9F80050002B3FF471AE05F0CBFC40F65C
:10250000E44100230A2201FB05F1B1FBF0F14A4846
:1025100008F020FB0221474808F076F8B4F8A21032
:10252000454808F057FBDAF80030D9F80050D3F8E6
:10253000840053E644490AF067F858B943493046E5
:102540000AF044F830B9424A424B12680592059AA3
:102550001A60FCE5DFF8F8803E4CD8F800300493B0
:10256000049823683C4FC01A09F03AFE314609F03E
:102570008FFE3A4909F040FF384909F03DFF3968BC
:1025800009F07EFDD8F800300393039B3860236088
:10259000DDE52F4A2F4B12680892089A1A60D6E59B
:1025A0002548DFF8CC902E4D08F0C4FAD4F88430DA
:1025B000012B4FF00B010CBF2A482B4808F024F8E0
:1025C0000C21204808F020F8D8F800203368D2F811
:1025D0008400426B11691FFA81FBC9F800B0002B1F
:1025E0003FF4F7AE05F056FC40F6E44100230A2222
:1025F00001FB0BF1B1FBF0F10F4808F0ABFA012140
:102600001A4808F001F8B4F8A0100B4808F0E2FAF4
:102610002B68D9F800B0D3F88400DAE6007094464D
:10262000007094C64887FF1FF0CDFF1F48CFFF1FE3
:1026300017B7D138A0110100D487FF1FE80F0100A0
:10264000EC0F0100D80F01000000FA430000FAC3AC
:102650002CD1FF1F5892FF1F34CFFF1F00007A4478
:1026600064CFFF1FC00F0100CC0F0100540E01000A
:1026700070CFFF1F2DE9F04F9B4D2B6885B0002BCD
:102680007CD09A4CDFF86C82994FDFF8B092D4F886
:102690008830964E012B00F08C80D7F800A0D6F839
:1026A00060B0F56D934E05FB0BF54FF47A7000FBAF
:1026B00005F009F099FD90490546504609F0E8FDFE
:1026C000294609F099FE8D4909F0E2FD09F0A6FFBF
:1026D0006328C8F800004CDD2846874909F08CFEC5
:1026E000642338603360D9F80030002B3ED0D4F832
:1026F00084307E4D012B00F08A80032B00F0E280B5
:10270000022B00F0E68002217D4807F07DFF7D4B23
:10271000186809F013F9022402460B4600947A481F
:1027200008F062FA2146794807F06EFF21467448A6
:1027300007F06AFFD8F80010734808F04BFA06213A
:10274000734807F061FF38686B4909F0A1FD09F093
:10275000F5F8009402460B466B4808F045FA032151
:102760006C4807F051FF684808F0E4F905B0BDE88F
:10277000F08F0028BCBF00233360B4E7664E5B4C8B
:1027800033680293029A42F228339A424CD8336853
:102790000393039A42F210739A424ED8D4F88830C9
:1027A000DFF85081524FDFF89491504E012B7FF4A7
:1027B00074AF5A48FEF7BAFB5949D6F870A0756F46
:1027C00009F066FD09F050FFB26FF36FD4F860B006
:1027D000CAEB02025B1B80B29A42CAEB0000C6BF82
:1027E00003FB00000132584390FBF2F02844E56DF2
:1027F00000FB0BF005FB00F000EB8000400009F04F
:10280000F3FC3D4909F0F8FD824638604AE7454B44
:102810001B68012B4FF00A010CBF4348434807F0E7
:10282000F3FED5F8843068E73C48B4F9CC30E26C6C
:1028300094F84810FEF7EEFAA9E73848FEF776FB61
:102840003749276F666F09F023FD09F00DFFA26F6E
:10285000E36FD21B9B1B80B29A42A0EB07003DDDC9
:1028600003FB0000531C90FBF3F31E44206EE36D4A
:10287000DFF88080DFF8C490C8F8006000FB06F045
:1028800003FB00F000EB8000400009F0ADFC1A49AA
:10289000174F09F0B1FDD9F80030386001222A60E5
:1028A000002B3FF4F4AE0221154807F0ADFE1648A8
:1028B00008F040F959211E4807F0A6FE124808F01A
:1028C00039F9E4E610211B4807F09EFED4F8843065
:1028D00016E70721184807F097FE14E703FB00F3FB
:1028E00093FBF2F31E44C1E7ECCEFF1F0CCEFF1F9B
:1028F00034CFFF1F3087FF1FE4388E3E0000C842F0
:10290000A0110100F8CDFF1FD487FF1FFC0F0100AD
:1029100090100100981001002CD1FF1FFC93FF1FA5
:1029200000007A444887FF1F5C1001006810010016
:102930000010010074100100881001002487FF1F9F
:1029400030B5112083B006F099F9012818D0122073
:1029500006F094F9012813D000210B2006F088F925
:1029600000210C2006F084F90021152006F080F9E2
:102970002649274B0120002208701A6003B030BDA1
:102980000121152006F074F9224A234C234B1268CA
:10299000D4F88C1001921B68019A1D4D0B44934290
:1029A0004FF00201296005D901210C2006F060F9E1
:1029B00003B030BDD4F8940009F016FC184B196828
:1029C00009F004FE0028EFD101210B2006F050F998
:1029D00094F8C83003242C6043B10C4B02221A70C7
:1029E00000210C2006F044F903B030BD122006F09F
:1029F00045F9012808BF054B4FF0110008BF1C70B6
:102A000006F03CF90128EBD1E7E700BF00CEFF1F3D
:102A1000F892FF1F2CD1FF1F0CCEFF1F64CDFF1FAC
:102A2000F8CDFF1FF0B5684E684D34682B689C42A6
:102A300087B039D014F0010155D014F0020149D00B
:102A400014F004013DD0E3070ED52B68DF070BD44B
:102A50005F4F3A68002A00F082805E4B1B6801934A
:102A6000019B93426DD83468A0070DD52B68990758
:102A70000AD4594F3A68002A4CD0564B1B6803932E
:102A8000039B934238D8346862070DD52B685B07E7
:102A90000BD4524F3A68002A7ED04E4B1B680593E8
:102AA000059B934268D834680CB107B0F0BD21464D
:102AB000162005F05DFF2146172005F059FF07B0ED
:102AC000F0BD052005F054FF2B68346803F0FB03CC
:102AD0002B60B8E7172005F04BFF2B68346803F034
:102AE000FD032B60ACE7162005F042FF2B6834682D
:102AF00003F0FE032B60A0E7394B1720D3F89010AA
:102B000005F036FF2B68346843F0020300222B6087
:102B10003A60B9E7334808F00DF80C21324807F065
:102B200073FD304808F006F8FF21172005F020FF5C
:102B3000284B2E4A19680291029912680A443A6099
:102B40009CE7274B1620D3F8901005F011FF2B6857
:102B5000346843F0010300222B603A6084E7FF21D0
:102B6000162005F005FF1B4B204A196800910099BB
:102B700012680A443A6071E7194B0520D3F89010A7
:102B800005F0F6FE2B68346843F0040300222B6046
:102B90003A60002C89D18AE7124807F0CBFF0C215C
:102BA000134807F031FD0F4807F0C4FFFF2105204F
:102BB00005F0DEFE074B0D4A19680491049912686E
:102BC0000A443A606AE700BFF892FF1F54CFFF1F24
:102BD000E0CEFF1F2CD1FF1FF0CEFF1FF4CEFF1F52
:102BE0000CCEFF1FD487FF1F9C1001003887FF1FEA
:102BF000AC1001002DE9F047534EDFF870813368C7
:102C0000DFF86C91D3F88400504D0F2105F0C0FB24
:102C10000023012222214E48C8F80030C9F80020C4
:102C200007F0F2FCD8F80030132B20DC40F6E44724
:102C30003368B5F8A0A0D3F88400436B1C6905F095
:102C400029F9A4B2012107FB04F4B4FBF0F44148D4
:102C50005444A5F8A04007F0D7FC642006F044F8DF
:102C6000D8F800300133132BC8F80030E0DDB5F898
:102C7000A030394A3948A2FB03129B1A02EB5303D6
:102C8000C3F30F131946A5F8A03007F0A3FF1D21C9
:102C9000334807F0B9FC0221324807F0B5FC2F4851
:102CA00007F048FF00231A460E213068C8F80030AC
:102CB00005F06AF8022322212548C9F8003007F000
:102CC000A3FCD8F80030132B20DC40F6E44733682F
:102CD000B5F8A290D3F88400436B1C6905F0DAF8CC
:102CE000A4B2012107FB04F4B4FBF0F419484C44EE
:102CF000A5F8A24007F088FC642005F0F5FFD8F89D
:102D000000300133132BC8F80030E0DDB5F8A230F5
:102D1000114A1248A2FB03129B1A02EB5303C3F39E
:102D20000F131946A5F8A23007F054FF1D210E48D5
:102D300007F06AFC02210B4807F066FC0748BDE873
:102D4000F04707F0F7BE00BF64CFFF1F0CCEFF1F98
:102D5000BC1001000011010087611886D487FF1F95
:102D6000E0100100A0110100041101006492FF1F96
:102D70004887FF1F2DE9F047C64DD5F8B830062B20
:102D800000F0AE81C44BC54C1B68A86D40F25131B8
:102D900008222160E271002B00F0778109F024FA0B
:102DA000696A064609F074FABD49BA4F09F070FA2B
:102DB00009F05AFC80B203126372BA4ABA4B126825
:102DC0001B68E9692072A37230461B121612E37267
:102DD0002273667309F05CFAB149B04E09F058FAF3
:102DE00009F042FC83B21A123146B048A373E27371
:102DF00004F022FEAE4AAF4B12681988A172D3B21A
:102E0000237203EB83035B00237302EB820343F320
:102E1000D7134FEA212E12124FF008084FF0000985
:102E200031466373A14884F80BE040F25533627277
:102E3000236084F8078084F80E9084F80F9004F0E3
:102E4000FBFD40F256339C48236084F80780FDF771
:102E5000DBFF9A4909F01CFA09F006FC207296483B
:102E6000FDF7D2FF954909F013FA09F0FDFB944AEA
:102E70009249C0F307231068637209F0BDFA09F0A4
:102E8000CDFB40FA08F3A0728B48E372FDF7E6FF32
:102E9000834909F0FDF909F0C1FB20738648FDF76D
:102EA000DDFF7F4909F0F4F909F0B8FB40F3072092
:102EB000314660737D4884F80E9084F80F9004F0DA
:102EC000BBFD022005F010FF7E4A7F4B1178217276
:102ED000517890786172D178A0721A789878E172FE
:102EE000597822736173DA78A07340F25A3331460D
:102EF0006E48E273236084F8078004F09DFD734BF5
:102F00006A481A7822725A7862729A78A272DA78CB
:102F1000E2721A7922735A7962739A79DB79E373D0
:102F2000314640F25E33A273236084F8078004F0D8
:102F300083FD022005F0D8FE654B5C481A782272AA
:102F40005A7862729A78A272DA78E2721A792273E7
:102F50005A7962739A79DB79E37331464FF45C7383
:102F6000236084F80780A27304F066FD594B1B6848
:102F7000012B00F06F82022005F0B6FE082640F219
:102F800073334D482360E671FDF7F4FE524909F0B2
:102F90007FF909F069FB20724748FDF7EBFE4E49C7
:102FA00009F076F909F060FBC0F307234248637229
:102FB000FDF706FF484909F06BF909F055FBA072CF
:102FC0003D48FDF7FDFE444909F062F909F04CFB6C
:102FD000C0F307233848E372FDF7A6FF3F4909F025
:102FE0004FF809F041FB20733348FDF79DFF3B4943
:102FF00009F046F809F038FBC0F307232E48637345
:10300000FDF790FF354909F03BF809F02DFBA0735F
:103010002948FDF787FF314909F032F809F024FB10
:103020001E49C0F307232148E37304F005FD022085
:1030300005F05AFEE96D2B6E022211FB03F31046D8
:1030400040F27931C3F30725E27121602372657282
:1030500005F04AFE40F2723317482360E671FDF72F
:103060006BFD20721448FDF767FD002340FA06F25D
:103070006272A372E37223736373A373E3730749EA
:103080000A48BDE8F04704F0D7BC09F0ADF8A969DB
:10309000064687E60CCEFF1F8C92FF1F6892FF1F2B
:1030A000000020414CCFFF1F7C92FF1F84CFFF1FE9
:1030B0003087FF1F3687FF1FFC93FF1F0000C842A9
:1030C000F8CDFF1FF4CDFF1F5092FF1F5887FF1F41
:1030D0006087FF1FF8CEFF1F00007A4433938843B8
:1030E000CD4CCE48002608274FF4C36321464FF04D
:1030F00059094FF044084FF0420A236084F80A90BF
:1031000084F80B80E771267226736673A673E673E4
:1031100084F809A004F090FC022005F0E5FD4FF4CE
:10312000BB632146BD48236084F80A9084F80B8075
:10313000E771267284F809A026736673A673E67396
:1031400004F07AFC022005F0CFFDE96D2A6ED5F877
:1031500058E0B248E77101FB02F312FB01F203EB06
:10316000C30103EB810302EBC2010EFB03F302EB8D
:1031700081024FF4AB68032112FB0EF24FF0050CF5
:103180003B414FF0070EC4F8008021724FF0120946
:1031900021464FF0040884F80EC02373627384F84C
:1031A0000FE0A67284F8099084F80B8004F044FCC8
:1031B000022005F099FD34224F234FF4B36E2146CF
:1031C0009648E272E373C4F800E0E7712672667213
:1031D00084F80A902673667384F80E8004F02CFC41
:1031E000022005F081FD8E4BE7711B68A86D4FF43E
:1031F00056722260002B40F0658108F0F5FFA96946
:10320000064609F045F8874909F042F809F02CFA1A
:1032100080B240FA07F360722372E969304609F020
:1032200037F8804909F034F809F01EFA7E4B7F4ADE
:103230001B6812687849637385B216121B122F122D
:1032400076482373E273E572A772A67304F0F4FB69
:10325000022005F049FD764A764B16681D88764BAC
:1032600076491868E57206EB8603642202FB06F2D3
:1032700003EB83039B0012122E124FF4767708257E
:1032800063722272A6722760E57109F001F809F0F5
:10329000EBF983B243FA05F70026F9225E495F484D
:1032A0006373A2732773E67304F0C6FB022005F074
:1032B0001BFD4FF48B604FF0120E562278235649B7
:1032C00020603427554884F80AE0A273E373E5715F
:1032D0002672667226736673E77204F0ADFB0220F5
:1032E00005F002FD4FF4A36355482360E571FDF737
:1032F00019FE4C4908F0CCFF09F0B6F9C0F30723DA
:103300004F482372FDF70EFE464908F0C1FF09F051
:10331000ABF960724A48FDF707FE424908F0B8FF72
:1033200009F0A2F9C0F307234548A372FDF7FCFD9D
:103330003C4908F0ADFF09F097F9FF233649E072E8
:10334000364823736373A373E37304F075FB0220A1
:1033500005F0CAFC4FF49B6339482360E571FDF723
:1033600053FD304908F094FF09F07EF9C0F30723BC
:1033700033482372FDF748FD2A4908F089FF09F018
:1033800073F9304B30496072186809F035F809F06C
:1033900045F940FA05F203462948A272E372FDF7A7
:1033A0005DFD204908F074FF09F038F940F3072368
:1033B00023482373FDF752FD1A4908F069FF09F00D
:1033C0002DF90323607314491448A373E57304F0C3
:1033D00033FB022005F088FC1C4A1D4B92F801E0EB
:1033E0009178D0781F785E7892F800C0E571DA782D
:1033F0009D78A1724FF4AC73E07284F808C084F831
:1034000009E027736673A573E273236002490348DA
:10341000BDE8F04704F010BB6892FF1F84CFFF1F88
:103420008C92FF1F000020414CCFFF1F7C92FF1F9A
:103430003087FF1F3687FF1F34CFFF1F620B363BDD
:10344000FC93FF1FF8CDFF1F0000C842F4CDFF1F03
:103450005092FF1F2E48FDF78DFC796D08F010FE8D
:1034600081462B48FDF7ACFC0146484609F0AEF812
:1034700000283FF480AD40F2C333254886F807802A
:103480003360FDF777FC3F6D394609F09FF848B38C
:103490002049384608F0FCFE09F0E6F880B240FA10
:1034A00008F37072337200230127042603221A499D
:1034B0001A48A772E67222736373A373E37304F06E
:1034C000BBFA58E508F090FE696A064608F0E0FE8F
:1034D000134908F0DDFE09F0C7F880B203126072EC
:1034E00023729AE60A48FDF745FC0A4908F0D0FE27
:1034F00009F0BAF8C0F3072305483372FDF73AFC28
:10350000044908F0C5FE09F0AFF87072CBE700BFC0
:10351000FC93FF1F00007A446892FF1F84CFFF1FB7
:103520000000204138B5174C174A2368101D12F8C7
:10353000011F904241EA0323F9D12360134C03F1A8
:1035400000432360124BD3F88430022B11D0114B6F
:103550001B68012B00D038BD0F4807F0EBFA21683B
:103560000D4807F037FB03210C48BDE8384007F051
:103570004BB820680A4D08F037FE2860FEF7B0FD12
:10358000E5E700BF50CFFF1F5BCDFF1FF092FF1F8D
:103590000CCEFF1F60CFFF1FD487FF1F301101002B
:1035A00048CFFF1F30B53C4C3C4883B0214604F067
:1035B0003BF9236840F2C232934253D09A3BE52B49
:1035C00005D9374D2B68012B0ED003B030BD354BDC
:1035D000334D1B68012B41D000222F493248FDF7A3
:1035E000AFFA2B68012BF0D12E4B1B68012BECD1CD
:1035F0002E4B2F481B6801930A220023019907F0E4
:10360000A9FA2268244B002ADB793EDB29492A48A3
:1036100009F006FE284809F033FE0146264806F068
:10362000F3FF25681C4B15F080451FD1DB798BB16A
:10363000631922491A7A204809F0F2FD1E4809F060
:103640001FFE01461C4806F0DFFF0135E379EDB2AD
:10365000AB42EDD8164807F06DFAB6E72A68012AA2
:10366000BAD1BAE7FFF75EFF2368A7E7144D124C03
:103670000FCD0FC495E8030044F8040B204620F852
:103680001419152106F0C0FFE4E70E490A4822F09C
:10369000604209F0C5FDBDE754CDFF1F84CFFF1F79
:1036A0002487FF1F60CFFF1FFC93FF1F2CD1FF1F3C
:1036B000D487FF1F5C11010070CDFF1F881101002E
:1036C00070110100341101009A4B1B78052B00F09A
:1036D0009B802DE9F04F984C984E994DE26E636EA9
:1036E0009848326083B02B60FDF71EFC216B08F018
:1036F0006DFF08B100232B609248FDF713FCE16ACF
:1037000008F082FF10B1002333602B608D48FDF775
:1037100057FBE16808F078FF08B100232B60894867
:10372000FDF74EFBE16808F06FFF08B100232B6046
:103730008448814FFDF71EFB216908F047FF0028F0
:1037400068D0002333602B687D4F002B4DDD7D4812
:10375000DFF8E481FDF7E8FBA16B08F037FF0028F4
:1037600040F0B480784B77481B68734F012B00F012
:10377000ED80FDF725FB216A8046A06908F07EFCFC
:103780000146404608F040FF00282ED0286808F087
:103790002BFD81466B48FDF713FBBC69396A8246F5
:1037A000204608F06BFCBB6E8046786EC01A08F0AD
:1037B0001BFD41460746504608F060FC014638466E
:1037C00008F066FD41460746204608F057FC0146D2
:1037D000384608F011FE002108F052FC0146484628
:1037E00008F04CFC08F01AFF28603368534A002B9D
:1037F000AFBF2B682B6800211160002B01DA00237A
:103800002B6003B0BDE8F08F4C494D4A00230B609C
:10381000136070474B48FDF7ADFAF96908F0D6FE22
:1038200000288ED13368DFF81491002B8BDD4548DA
:10383000FDF778FBF96B08F0E7FE002840F0CA803E
:103840004048DFF8F480FDF795FAD4F8C410074635
:10385000E06908F015FC0146384608F0B7FE00287C
:103860003FF471AF306808F0BFFC82463548FDF781
:1038700081FA8346D8F86C00D8F81C7008F0B4FCC4
:1038800039468146584608F0F9FB494683460020F0
:1038900008F0F4FB0146584608F0FAFCD8F8C410CA
:1038A0008346384608F0ECFB394608F0E7FB014652
:1038B000584608F0A1FD494608F0E2FB0146504693
:1038C00008F0DCFB08F0AAFE30603CE7386808F03E
:1038D0008BFC83461B48FDF727FB0190D8F864005A
:1038E000D8F830A008F080FC019B8146514618466C
:1038F00008F0C4FB49460190002008F0BFFB019B83
:103900000146184608F0C4FC51460190D8F838002A
:1039100008F0B4FB019B0146184608F06DFD4946CE
:1039200008F0AEFB0146584608F0A8FB08F076FE0A
:10393000386017E700CEFF1F0CCEFF1F4CCFFF1FD4
:103940007C92FF1FFC93FF1F8C92FF1FFDF738FA3C
:10395000216A8046606A08F091FB0146404608F003
:1039600053FE00283FF441AF286808F03DFC824632
:103970002F48FDF725FAD7F82480396A8346404658
:1039800008F07CFB8146B86E08F02EFC0446786E89
:1039900008F02AFC214608F071FB494607465846C4
:1039A00008F06CFB0146384608F072FC49460746B1
:1039B000404608F063FB0146384608F01DFD2146ED
:1039C00008F05EFB0146504608F058FB08F026FE62
:1039D00028600AE7D9F8000008F006FC824614487F
:1039E000FDF7A0FA0190F86ED7F83C8008F0FCFBD8
:1039F000019B83464146184608F040FB0146584665
:103A000008F046FC41468346F86A08F037FB014659
:103A1000584608F0F1FC002108F032FB0146504600
:103A200008F02CFB08F0FAFDC9F8000008E700BF19
:103A3000FC93FF1F08B5274807F07CF807212648AC
:103A400006F0E2FD112005F019F90621F8B123482E
:103A500006F0DAFD102005F011F9062100B3204828
:103A600006F0D2FD122005F009F9062108B31D4821
:103A700006F0CAFD132005F001F9062110BB1A4813
:103A800006F0C2FD1348BDE8084007F053B81748D8
:103A900006F0BAFD102005F0F1F806210028DED16D
:103AA000134806F0B1FD122005F0E8F806210028C1
:103AB000DDD1104806F0A8FD132005F0DFF806213F
:103AC0000028DCD00C4806F09FFD0248BDE8084005
:103AD00007F030B8D487FF1F941101009C1101003A
:103AE000AC110100BC110100D4110100A4110100AE
:103AF000B4110100C4110100CC11010010B5254C16
:103B00002368042B27DC01210B2005F0B1F80121EB
:103B10000C2005F0ADF80121142005F0A9F80121D1
:103B2000152005F0A5F8FF21162004F021FFFF2144
:103B3000172004F01DFFFF21052004F019FFFF21CD
:103B4000062004F015FF236801330A2B2360C4BF4D
:103B50000023236010BD00210B2005F089F800210F
:103B60000C2005F085F80021142005F081F80021D3
:103B7000152005F07DF80021162004F0F9FE002143
:103B8000172004F0F5FE0021052004F0F1FE0021CD
:103B9000D6E700BF5492FF1F30B5092183B0AE486D
:103BA00005F082FB222005F027FBAC4BD3F8A830B0
:103BB000012BAB4B1B7809D0052B10D8DFE813F095
:103BC0002D0132013C01410137010B00002B00F0B7
:103BD0003D81052B03D10721A24805F065FB22207A
:103BE00005F00AFBFF2005F007FBFF2005F004FBB2
:103BF0009D4CFF2005F000FB08219C4805F054FB7C
:103C000021689B4806F0E6FFFF2005F0F5FAFF204B
:103C100005F0F2FAFF2005F0EFFA0921954805F0CA
:103C200043FB2168924806F0D5FFFF2005F0E4FA37
:103C3000FF2005F0E1FAFF2005F0DEFA0C218E48A6
:103C400005F032FB8D4B8E49186808F0D5FB07F064
:103C500075FE002402460B460094854806F0C4FF1A
:103C6000FF2005F0C9FAFF2005F0C6FAFF2005F095
:103C7000C3FA0921834805F017FB8348FDF7EEF8E6
:103C800007F05CFE009402460B46794806F0ACFF54
:103C9000FF2005F0B1FAFF2005F0AEFAFF2005F095
:103CA000ABFA0C21794805F0FFFA7748FDF73CF9AB
:103CB00007F044FE009402460B466D4806F094FF60
:103CC000FF2005F099FAFF2005F096FAFF2005F095
:103CD00093FA0D216E4805F0E7FA6B48FDF722F9DB
:103CE00007F02CFE009402460B46614806F07CFF6C
:103CF000FF2005F081FAFF2005F07EFAFF2005F095
:103D00007BFA0921634805F0CFFA5F48FDF77CF89C
:103D1000614908F0BDFA07F011FE009402460B4617
:103D2000534806F061FFFF2005F066FAFF2005F01A
:103D300063FAFF2005F060FA0C21584805F0B4FA48
:103D40005148FDF717F8564908F0A2FA07F0F6FDBA
:103D5000009402460B46464806F046FFFF2005F059
:103D60004BFAFF2005F048FAFF2005F045FA0D2137
:103D70004C4805F099FA4448FDF722F8484908F004
:103D800087FA07F0DBFD009402460B46384806F040
:103D90002BFFFF2005F030FAFF2005F02DFAFF2061
:103DA00005F02AFA0921404805F07EFA3F4B3048D9
:103DB000196806F00FFFFF2005F01EFAFF2005F03E
:103DC0001BFAFF2005F018FA0E21394805F06CFAAD
:103DD0002D48FCF7F5FF05462B48FCF7CBFF0146C5
:103DE000284608F04BF92E4908F052FA07F0A6FDD4
:103DF000009402460B461E4806F0F6FEFF2005F032
:103E0000FBF9FF2005F0F8F9FF2005F0F5F9FF2098
:103E100003B0BDE8304005F0EFB90621254805F0B4
:103E200043FADCE60721244805F03EFAD7E60B21E9
:103E3000224805F039FAD2E60721214805F034FA84
:103E4000CDE608211F4805F02FFAC8E608211E48D4
:103E500005F02AFAC3E600BFDC1101000CCEFF1FFB
:103E600000CEFF1F280F01003087FF1FF411010053
:103E7000C487FF1F001201000C120100F8CDFF1FC4
:103E80000000C8421C120100FC93FF1F2812010011
:103E900038120100481201000000204154120100B4
:103EA00000007A4464120100741201004487FF1F6D
:103EB00080120100F80E0100000F0100080F010040
:103EC000140F01001C0F0100E81101002DE9F04161
:103ED0008D4DD5F8B830042B3ED0032B6ED0012B7E
:103EE00000F09880022B01D0BDE8F081874C884813
:103EF000237240F20E32012321462260E37103F067
:103F00009BFD844B1B685B00FF2BC8BFFF23042174
:103F100040224FF441702060E17122726372A86DFB
:103F200008F062F9A96908F0B3F97B49054608F081
:103F30006BFB002800F0DE802946284608F0A0F838
:103F400008F092FB80B20312E072A3726F497048CE
:103F5000BDE8F04103F070BD6C4C704AA37922605B
:103F600043F001030822E271A371A86D08F03CF947
:103F7000A96908F08DF96A4908F08AF908F074FB1C
:103F8000644B684A1B68126893FBF2F380B2002608
:103F90001A120712607221465D48E372A2722772FC
:103FA00026736673A673E67303F046FDA279D5F80F
:103FB000B83066F30002032BA27190D1534CA86D68
:103FC000A3720122E823072140F2FF2622726372C6
:103FD0002660E17108F008F9A96908F059F950491B
:103FE00008F056F908F040FB4A4B4E4A1B6812682D
:103FF00093FBF2F382B21E121712214644486373F8
:10400000E2722773A67303F017FDD5F8B830012BC1
:104010007FF468AF444B3D4C1B682360072280232C
:104020001020E271237204F029FE002869D13F4B71
:104030001B68DFF8E0803B4FA86D344E03EB830331
:104040005B001A12A3726272D8F800303A6893FBD0
:10405000F2F31A126273A37308F0C6F8A96908F0A4
:1040600017F9334B196808F009F82D4908F010F9D1
:1040700008F0FAFA80B20312314620732448E37242
:1040800003F0DAFC022004F02FFE2A4B1B682360A9
:10409000072280231020E271237204F0EFFD70BB31
:1040A000224B1B68A86D03EB83035B001A1272722C
:1040B000B37208F099F8A96908F0EAF81E4B19687C
:1040C00007F0DCFF164908F0E3F808F0CDFA82B2F9
:1040D00016123868D8F80030227393FBF0F30B49BE
:1040E0000B48A3731A12E672627303F0A5FCD5F8AD
:1040F000B830F7E601229023A272E37226E70F4B55
:10410000CFE70E4B94E700BF0CCEFF1F6892FF1F56
:1041100084CFFF1F7C92FF1F00004843F4E5061880
:10412000000020412C87FF1F6887FF1F2887FF1F83
:104130007892FF1F6C87FF1F38CFFF1F3C87FF1F40
:1041400070B50368C57984B0012D8DF805304FEA4C
:1041500013230E468DF8043005F1010201A909DD93
:1041600007300D440DF1050310F8014F03F8014F1E
:10417000AB42F9D1034B04489B5D02F027FF04B02A
:1041800070BD00BF201E0100FC92FF1FF0B40D4B5C
:104190000D489C790822FF27CD26A225DA7100223E
:1041A000B0216FF300041F729E72DD725A721A738F
:1041B0005A739A73DA7319609C711946F0BC03F054
:1041C0003BBC00BF6892FF1F84CFFF1FF0B5574E66
:1041D00033780F2B83B05FD0554B1B78002B49D021
:1041E000544B00221A60544D2B78062B48D0534F65
:1041F00043F08003524C0821012A2360E1716ED004
:1042000042220E232272637239784D4AFF2302291B
:10421000A372E37233780CD84FF020004FEA0313F7
:104220004FF00001DBB21073517308D10433937364
:1042300006E060201B010121DBB210735173A373F0
:1042400029783F48FFF77CFFE073022004F04CFD23
:104250003B493C4803F0F0FB32782B783A48013276
:10426000013332702B70FCF727FC08B1FFF78EFF8B
:1042700003B0F0BD2F4B304D1A682B78062BB6D10A
:104280002E4F3B78032B98BF01334FF0000198BFAE
:104290003B7029708023ADE72C4D2D4C2B6800938B
:1042A000009A216800239142337013D2294B204F8A
:1042B0001A6801239A423B7029D0274A2968019144
:1042C000B2F8A410019A3C314FF47A7000FB01223D
:1042D000226083E71649174A0B70126883E71A4871
:1042E000FCF748FD1D4907F0D3FF08F0BDF900F1C8
:1042F0000A0315482372FCF73DFD184907F0C8FF73
:1043000008F0B2F980B20A30001260727CE71448FB
:1043100006F010FC1321134806F076F9104806F059
:1043200009FC0F4806F006FC3B78C6E73CCFFF1FB0
:1043300044CFFF1FF8CEFF1F5CCFFF1F68CFFF1FCA
:104340006892FF1F84CFFF1FFC93FF1F2CD1FF1F1C
:1043500028CFFF1F2487FF1F0CCEFF1F00007A44C9
:10436000D487FF1F901201002DE9F041AE4CAF4DF4
:1043700082B006F0E3F823682860042B00F056832F
:10438000022B00F0C280082B48D0072B40F074812C
:10439000332801F00B8600F3DB83312801F0F08530
:1043A000322840F00F8206F005F9002840F36281C0
:1043B0009F48A04E06F052FD07F016FF9E4907F0F9
:1043C00067FF61230122706422602B601846A0F110
:1043D00052031F2B00F2F681DFE813F0B60DF40153
:1043E000F401F401F401F401F401F401F401F40125
:1043F000F401F401F401F401F4010E04F40E930548
:104400002C06FE04F401F401F4018104F401F10E20
:10441000F401F401F401F401F401BB0D322800F0C1
:10442000AA8340F3CD83342800F0C183712840F083
:10443000C9810022732322602B602368002B40F087
:10444000C4817E4E7A4806F075FB04217C4806F054
:10445000DBF8774806F06EFB10217A4806F0D4F8B6
:10446000734806F067FB1321774806F0CDF8774BC9
:104470006F48196806F0AEFB6D4806F05BFB14212F
:10448000734806F0C1F86A4806F054FB1E217148D3
:1044900006F0BAF8664806F04DFB15216E4806F0A6
:1044A000B3F8634806F046FB1E216C4806F0ACF8F2
:1044B0005F4806F03FFB2021694806F0A5F85C48FC
:1044C00006F038FB1921674806F09EF8584806F0B8
:1044D00031FB1221644806F097F8554806F02AFB94
:1044E0000F21624806F090F8514806F023FB0D2199
:1044F0005F4806F089F84E4806F01CFB00220123B5
:104500003260236002B0BDE8F081A0F13103422B9C
:1045100000F2588101A252F823F000BFF1540000CC
:104520000D55000029550000435500007555000049
:1045300093550000C5470000C5470000C54700006F
:10454000C5470000C5470000C5470000C54700003B
:10455000C5470000C5470000C5470000C54700002B
:10456000C5470000C5470000C5470000C54700001B
:10457000C5470000C5470000C5470000C54700000B
:10458000C5470000C5470000C5470000C5470000FB
:10459000C5470000C5470000C5470000C5470000EB
:1045A000C5470000C5470000C5470000C5470000DB
:1045B000C5470000C5470000C5470000C5470000CB
:1045C000C5470000C5470000C5470000C5470000BB
:1045D000C5470000C5470000C5470000C5470000AB
:1045E000C547000069550000C5470000C5470000E9
:1045F000C5470000C5470000C5470000C54700008B
:10460000C5470000C5470000C5470000C54700007A
:10461000C5470000C5470000C547000033440000FF
:10462000C5470000D35400006CCFFF1F50CDFF1FC3
:10463000D487FF1F0CCEFF1F6F12833A2487FF1F02
:1046400060160100681601007C1601004487FF1FF8
:1046500090160100A8160100C8160100E01601001E
:104660000017010024170100401701005417010032
:104670006417010023682868062B40F0AB80A0F186
:104680003103402B00F29E8001A252F823F000BFBC
:10469000BD530000E9530000915400001554000080
:1046A0003B540000595400007D540000C5470000F1
:1046B000C5470000C5470000C5470000C5470000CA
:1046C000C5470000C5470000C5470000C5470000BA
:1046D000C5470000C5470000C5470000C5470000AA
:1046E000C5470000C5470000C5470000C54700009A
:1046F000C5470000C5470000C5470000C54700008A
:10470000C5470000C5470000C5470000C547000079
:10471000C5470000C5470000C5470000C547000069
:10472000C5470000C5470000C5470000C547000059
:10473000C5470000C5470000C5470000C547000049
:10474000C5470000C5470000C5470000C547000039
:10475000C5470000C5470000C5470000C547000029
:10476000C5470000C5470000C5470000C547000019
:10477000C5470000C5470000C5470000C547000009
:10478000C5470000C5470000C5470000C5470000F9
:104790003344000005F00EFF002841F3EA83E948A6
:1047A000E94E06F05BFB0127034601466222E7481B
:1047B000F36527602A60FCF72BFB23682868012B30
:1047C0003FF405AE73283FF438AE02B0BDE8F08187
:1047D00023682868052B40F08B80A0F13103402B23
:1047E000F0D801A252F823F0AD520000CD520000E3
:1047F000ED5200000D53000095510000935200004F
:10480000C5470000C5470000C5470000C547000078
:10481000C5470000C5470000C5470000C547000068
:10482000C5470000C5470000C5470000C547000058
:10483000C5470000C5470000C5470000C547000048
:10484000C5470000C5470000C5470000C547000038
:10485000C5470000C5470000C5470000C547000028
:10486000C5470000C5470000C5470000C547000018
:10487000C5470000C5470000C5470000C547000008
:10488000C5470000C5470000C5470000C5470000F8
:10489000C5470000C5470000C5470000C5470000E8
:1048A000C5470000C5470000C5470000C5470000D8
:1048B000C5470000C5470000C5470000C5470000C8
:1048C000C5470000C5470000C5470000C5470000B8
:1048D000C5470000C5470000C5470000C5470000A8
:1048E000C5470000C5470000295300002368286819
:1048F000032B7FF464AFA0F13003482B3FF662AF87
:1049000001A252F823F000BF95470000355D00007A
:104910005D5D0000855D0000E55D0000075E000054
:104920002F5E0000575E0000755E0000C35B000054
:10493000C5470000C5470000C5470000C547000047
:10494000C5470000C5470000C5470000C547000037
:10495000C5470000C5470000C5470000C547000027
:10496000C5470000C5470000C5470000C547000017
:10497000C5470000C5470000C5470000C547000007
:10498000C5470000C5470000C5470000C5470000F7
:10499000C5470000C5470000C5470000C5470000E7
:1049A000C5470000C5470000C5470000C5470000D7
:1049B000C5470000C5470000C5470000C5470000C7
:1049C000C5470000C5470000C5470000EB5B00007D
:1049D000095C0000275C0000455C0000635C00008F
:1049E000815C0000B5560000D9560000C5470000A4
:1049F000FF560000ED5C0000C5470000C547000001
:104A0000C5470000C5470000C5470000334400000B
:104A1000155D0000C5470000C5470000C547000000
:104A2000C5470000C5470000D75C0000A0F1310376
:104A3000412B3FF6C7AE01A252F823F06D5600009D
:104A400071560000B7550000E3550000FB5500000B
:104A500017560000295600002D5600003156000060
:104A6000C5470000C5470000C5470000C547000016
:104A7000C5470000C5470000C5470000C547000006
:104A8000C5470000C5470000C5470000C5470000F6
:104A9000C5470000C5470000C5470000C5470000E6
:104AA000C5470000C5470000C5470000C5470000D6
:104AB000C5470000C5470000C5470000C5470000C6
:104AC000C5470000C5470000C5470000C5470000B6
:104AD000C5470000C5470000C5470000C5470000A6
:104AE000C5470000C5470000C5470000C547000096
:104AF000C5470000C5470000C5470000C547000086
:104B000053560000C5470000C5470000C5470000D8
:104B1000C5470000C5470000C5470000C547000065
:104B2000C5470000C5470000C5470000C547000055
:104B3000C5470000C5470000C547000033440000DA
:104B400075560000D487FF1F0CCEFF1FFC93FF1F7C
:104B500034287FF46BAC05F02DFD00287FF78AAD7B
:104B60008A488B4E06F07AF961230122B0862260D2
:104B70002B6018462BE405F01DFD00281CDD834842
:104B8000834E06F06BF907F02FFB824907F080FB9C
:104B9000B6F9CC3096F84810074602467E48F764CE
:104BA000FCF738F901236920236028600FE405F041
:104BB00001FD002800F37F8423682868FFF7E5BB28
:104BC00031287FF4FFAD05F0F5FC002840F3EE84BA
:104BD0006E486F4E06F042F9C0B286F848000228CF
:104BE0008ABF0021014686F84810B6F9CC30F26C35
:104BF0006948D5E705F0A2FC05F0DCFC0546002875
:104C0000F8D16248624E05F095FF604805F092FFCA
:104C10005E4805F08FFF5D4805F08CFF5B4805F0AE
:104C200089FF1F215D4805F0EFFC584805F082FF21
:104C30001C215B4805F0E8FCB06A5A4907F028FBE4
:104C400006F07CFE009502460B46504805F0CCFF6E
:104C50000221554805F0D8FC4C4805F06BFF232194
:104C6000524805F0D1FC706C4E4907F011FB06F07C
:104C700065FE009502460B46444805F0B5FF02214B
:104C8000494805F0C1FC414805F054FF1921484846
:104C900005F0BAFC306C06F051FE02250B460246C8
:104CA00000953A4805F0A0FF2946424805F0ACFCC3
:104CB000364805F03FFF22213F4805F0A5FCB18EA4
:104CC000324805F087FF03213C4805F09DFC2F4842
:104CD00005F030FF0723236077E505F02FFC05F092
:104CE00069FC05460028F8D12848294E05F022FF26
:104CF000264805F01FFF254805F01CFF234805F056
:104D000019FF224805F016FF15212D4805F07CFCFF
:104D10001E4805F00FFF18212A4805F075FC2B46A8
:104D20000A2296F84810194805F014FF174805F0B4
:104D300001FF2821244805F067FCF06C194907F0B1
:104D4000A7FA06F0FBFD00950B4602460F4805F05A
:104D50004BFF0221144805F057FC0C4805F0EAFE11
:104D600018211A4805F050FCB6F9CC10074805F098
:104D700031FF064805F0DEFE1321154805F044FC1E
:104D8000024805F0D7FE082323601EE5D487FF1FE5
:104D90000CCEFF1F6F12833AFC93FF1FA814010073
:104DA000C814010000007A4410130100E814010047
:104DB0000C150100281501002C15010050150100EB
:104DC00028170100C8120100E412010014130100A9
:104DD0003013010005F0B2FB05F0ECFB054600289E
:104DE000F8D17F487F4E05F0A5FE7D4805F0A2FE74
:104DF0007B4805F09FFE7A4805F09CFE784805F058
:104E000099FE1121784805F0FFFB754805F092FEE8
:104E10002821764805F0F8FBB069754907F038FAA3
:104E200006F08CFD009502460B466D4805F0DCFE51
:104E30000221704805F0E8FB694805F07BFE162169
:104E40006D4805F0E1FB306A694907F021FA06F088
:104E500075FD00950B460246614805F0C5FE02212E
:104E6000644805F0D1FB5E4805F064FED6F8B83022
:104E7000002B32DD1D21614805F0C6FB706E07F086
:104E8000B3F95F4907F004FA06F058FD022502461F
:104E90000B460095524805F0A7FE0121594805F040
:104EA000B3FB4F4805F046FE1F21574805F0ACFB09
:104EB000B06E07F099F9524907F0EAF906F03EFDA5
:104EC000009502460B46464805F08EFE01214D48EE
:104ED00005F09AFB424805F02DFE11214B4805F0E4
:104EE00093FBD6F8B830062B00F2D987DFE813F031
:104EF0000E081308D307270822081D08180805F014
:104F00001DFB05F057FB0028F9D13548354E05F05B
:104F100011FE334805F00EFE314805F00BFE304817
:104F200005F008FE2E4805F005FE1F21384805F063
:104F30006BFB2B4805F0FEFD1E21364805F064FB97
:104F4000274805F0F7FD1A21334805F05DFBD6F838
:104F50008430022B01F09580032B01F08980012B16
:104F600001F07D8009212D4805F04EFB1C4805F01D
:104F7000E1FD14212A481B4F05F046FBD6F88010AE
:104F8000174805F027FE164805F0D4FD1C212548DA
:104F900005F03AFBD6F88810114805F01BFE1048C2
:104FA00005F0C8FD1C21204805F02EFBD6F8B410F2
:104FB0000B4805F00FFE0A4805F0BCFDD6F88450FA
:104FC00025F00205012D01F011801321174805F08D
:104FD0001BFB034805F0AEFD02232360FFF7F5BB82
:104FE000D487FF1F0CCEFF1FCC1601004413010015
:104FF00000007A44101301007013010088130100AF
:10500000CDCCCC3DE8190100A8130100C813010064
:10501000A8180100C8180100E81801006019010073
:105020006C19010084190100A4190100301301005A
:1050300005F084FA05F0BEFA0028F9D1BE48BF4D4C
:1050400005F078FDBC4805F075FDBB4805F072FD24
:10505000B94805F06FFDB84805F06CFD1321B8485C
:1050600005F0D2FAB44805F065FD0D21B54805F00C
:10507000CBFAB14805F05EFD0F21B34805F0C4FA44
:10508000B24BAD48196805F0A5FDAB4805F052FDDF
:105090001321AF4805F0B8FAAE4BA748196805F0E0
:1050A00099FDA54805F046FD1221AB4805F0ACFA84
:1050B000AA4BA148196805F08DFD9F4805F03AFDFF
:1050C0001121A74805F0A0FAA64B9B48196805F0E6
:1050D00081FD994805F02EFD0E21A34805F094FAB4
:1050E000D5F8A810944805F075FD934805F022FD09
:1050F00019219E4805F088FA9D4B8F48196805F0E4
:1051000069FD8D4805F016FD11219A4805F07CFADD
:10511000994B8948196805F05DFD874805F00AFD3F
:105120001021964805F070FA954B8348196805F0F0
:1051300051FD814805F0FEFC1C21924805F064FAFF
:10514000914B7D48196805F045FD7B4805F0F2FC60
:1051500016218E4805F058FAB5F8A410764805F0E7
:1051600039FD1E218A4805F04FFA734805F0E2FC2C
:105170001721884805F048FA6F4805F0DBFC132139
:10518000854805F041FA6C4805F0D4FC04232360FF
:10519000FFF71BBB05F00EFA00287FF7A7AB6648A8
:1051A000664E05F05BFE744BC6F8B00003221A6031
:1051B000FCF7CAFC01226B2322602B6001E005F0A2
:1051C000BDF905F0F7F90028F9D15B485B4D05F012
:1051D000B1FC594805F0AEFC574805F0ABFC564809
:1051E00005F0A8FC544805F0A5FC21216B4805F00A
:1051F0000BFA514805F09EFC1521694805F004FAA8
:10520000D6F88C104C4805F0E5FC0221654805F005
:10521000FBF9494805F08EFC1E21634805F0F4F9BE
:10522000D6F89410444805F0D5FC03215F4805F0FA
:10523000EBF9414805F07EFC1E215D4805F0E4F9DC
:10524000D6F890103C4805F0C5FC3B4805F072FCD0
:105250001D21584805F0D8F9D6F8AC10364805F0AD
:10526000B9FC354805F066FC1E21534805F0CCF921
:10527000D6F8B010304805F0ADFC2F4805F05AFCC8
:10528000D6F8A830012B00F01B8705232360FFF719
:105290009CBA2A4E96F8C930B3FA83F35B09012110
:1052A0006B2286F8C93021602A608AE705F082F90E
:1052B00000287FF71BAB2048204E05F0CFFD0122D0
:1052C0006B23C6F88C0022602B607AE705F072F938
:1052D00000287FF70BAB1848184E05F0BFFD0122E0
:1052E0006B23C6F8940022602B606AE705F062F930
:1052F00000287FF7FBAA1048104E05F0AFFD0122F1
:105300006B23C6F8900022602B605AE705F052F933
:1053100000287FF7EBAA0848084E05F09FFD164BC2
:10532000C6F8AC00022242E71349002373220B6047
:1053300023602A60FFF781B8D487FF1F0CCEFF1FC0
:1053400074170100881701009817010060CFFF1F34
:10535000A8170100F0CDFF1FBC17010024CFFF1FCD
:10536000D017010004CEFF1FE4170100F41701005D
:105370005C92FF1F101801008092FF1F241801008B
:105380004C92FF1F381801004087FF1F581801007A
:10539000701801009018010030130100541501002D
:1053A000781501005C14010090150100E80F010060
:1053B000B0150100D0150100F015010005F0FAF854
:1053C00000287FF705AAAE48AE4E05F047FD06F06F
:1053D0000BFFAD4907F010F865230122B061226090
:1053E0002B601846FEF7F3BF05F0E4F800287FF7BE
:1053F000EFA9A348A34E05F031FD06F0F5FEA24942
:1054000006F0FAFF65230122306222602B60184605
:10541000FEF7DDBF05F0CEF800287FF7D9A9984840
:10542000984E05F01BFD00EB800043000122652033
:10543000B36622602860FEF7CABF924AD2F8B8303D
:105440000133062BC8BF0023C2F8B8300123652002
:1054500023602860FEF7BBBF05F0ACF800287FF79B
:10546000B7A98748874E05F0F9FC65230122C6F8E5
:10547000BC0022602B601846FEF7A9BF814B93F851
:10548000C820002A00F0A585002283F8C820DDE7A7
:1054900005F090F800287FF79BA97948794E05F030
:1054A000DDFC00EB80004300012265207366226072
:1054B0002860FEF78CBF7248724E05F0CFFC07B231
:1054C0003B46F26C96F848107048A6F8CC70FFF78F
:1054D00067BB6C4AD2F884300133032BC8BF00236A
:1054E000C2F884300123632023602860FEF76FBF79
:1054F000644ED6F88030B3FA83F35B09012263204F
:10550000C6F8803022602860FEF761BF5D4ED6F895
:105510008830B3FA83F35B0901226320C6F8883030
:1055200022602860FEF753BF0123236005F042F894
:105530000028D7DD5248534E05F090FCC6F8B40061
:10554000D0E70123236005F035F8002807DD4C483B
:105550004C4E05F083FC06F047FEC6F89C00632025
:1055600028602368FEF711BFFDF744FB2368286815
:10557000FEF709BF0123236005F01CF80028EEDDCB
:105580003F48404E05F06AFC06F02EFEC6F8980033
:10559000E5E70123236005F00DF80028DFDD38483A
:1055A000384E05F05BFCA6F8C200D8E7354E96F8F9
:1055B0004800FFF714BB364A364F1368002B0CBF68
:1055C000012100214FF001031160236040F062854A
:1055D00064222A60082B4FF064007EF4D6AEFEF7FA
:1055E0001DBF2D4A1368B3FA83F35B0901216420C0
:1055F000136021602860FEF7EABE224ED6F8A8307C
:10560000B3FA83F35B0901226420C6F8A830226054
:105610002860FEF7DCBE01231C482360FBF766FA16
:105620001E4A23681060D3E71D4ADBE71D4AD9E70D
:105630000123236004F0BEFF002800F3CF841A4B3F
:105640001A68042A01DD02221A6064232B60236891
:10565000C0E70123236004F0ADFF0028F5DD084812
:10566000084E05F0FBFBA6F8A400EEE70F4AB9E7E9
:105670000F4AB7E701232360FEF788FDE5E700BF87
:10568000D487FF1F0CCEFF1F00007A44FC93FF1F3E
:1056900024CFFF1F6CCFFF1F04CEFF1F5C92FF1FA4
:1056A0008092FF1F4C92FF1F4087FF1F60CFFF1F9C
:1056B000F0CDFF1F04F07EFF00280DDD1848194EC5
:1056C00005F0CCFB06F090FD174906F095FE01228F
:1056D0006223706222602B6004F06CFF00280EDDF4
:1056E0000F48104E05F0BAFB06F07EFD0E4906F09D
:1056F00083FE01226223C6F8C40022602B6004F0FE
:1057000059FF002840F335840548064E05F0A6FBF6
:1057100006F06AFD01226223F06322602B6007E03D
:10572000D487FF1F0CCEFF1F00007A4404F006FF51
:1057300004F040FF05460028F8D1C348DFF878831D
:1057400005F0F8F9C04805F0F5F9BF4805F0F2F9A1
:10575000BD4805F0EFF9BC4805F0ECF91521BB4850
:1057600004F052FFB84805F0E5F91421B84804F0F8
:105770004BFFB54805F0DEF91B21B64804F044FFA5
:10578000B14805F0D7F91321B34804F03DFFAE4806
:1057900005F0D0F9AC4805F0CDF9AB4805F0CAF9F1
:1057A0002021AE4804F030FFF068AD4906F070FDEE
:1057B00006F0C4F8009502460B46A34805F014FA1B
:1057C0000221A84804F020FF0221A74804F01CFF92
:1057D0009D4805F0AFF92121A44804F015FF306978
:1057E0009F4906F055FD06F0A9F8009502460B46C4
:1057F000954805F0F9F902219A4804F005FF0221C5
:10580000994804F001FF904805F094F91F21984849
:1058100004F0FAFEF06A06F091F8022702460B4601
:105820000097894805F0E0F90121924804F0ECFE68
:1058300039468D4804F0E8FE834805F07BF92021C5
:105840008D4804F0E1FE306B06F078F800970246D0
:105850000B467D4805F0C8F90121864804F0D4FEC6
:105860003946814804F0D0FE774805F063F92321DA
:10587000824804F0C9FE306D794906F009FD06F052
:105880005DF8009502460B466F4805F0ADF93946C4
:10589000744804F0B9FE3946734804F0B5FE6A480E
:1058A00005F048F91F21764804F0AEFE706D6C4992
:1058B00006F0EEFC06F042F8009502460B46624800
:1058C00005F092F93946674804F09EFE394666486D
:1058D00004F09AFE5C4805F02DF91921694804F09E
:1058E00093FE316E584805F075F93946664804F064
:1058F0008BFE39465C4804F087FE534805F01AF9E0
:105900001821624804F080FEF06E06F06DFC6049DC
:1059100006F0BEFC06F012F8009702460B464A4815
:1059200005F062F901215B4804F06EFE39464E48ED
:1059300004F06AFE444805F0FDF82B21564804F0B7
:1059400063FEF069464906F0A3FC05F0F7FF0095F9
:1059500002460B463C4805F047F93946414804F0F9
:1059600053FE3946404804F04FFE374805F0E2F850
:105970001F214A4804F048FEF16D334805F02AF92A
:105980003946394804F040FE2F4805F0D3F820216D
:10599000434804F039FEB16D2B4805F01BF9394638
:1059A000314804F031FE284805F0C4F810213D4884
:1059B00004F02AFE316F244805F00CF939462948D5
:1059C00004F022FE3946284804F01EFE1E4805F069
:1059D000B1F81321344804F017FE716F1A4805F02E
:1059E000F9F80121314804F00FFE39461E4804F051
:1059F0000BFE154805F09EF810212D4804F004FE1A
:105A0000B16F114805F0E6F83946164804F0FCFD80
:105A10003946154804F0F8FD0B4805F08BF81421C1
:105A2000244804F0F1FDF16F074805F0D3F8012197
:105A30001E4804F0E9FD39460B4804F0E5FD024834
:105A400005F078F8162139E0D487FF1F301A0100DD
:105A5000481A0100601A0100301301007C1A01008D
:105A600000007A4410130100A0110100A01A0100E7
:105A7000C41A0100E41A0100E81A01000C1B01001D
:105A8000301B0100501B01006C1B0100701B01004A
:105A9000CDCCCC3DE81901008C1B0100B81B0100E6
:105AA000D81B0100FC1B0100101C0100241C01007C
:105AB000281C01003C1C01000CCEFF1FBA4804F05A
:105AC000A3FD706AB94906F0E3FB05F037FF0095C6
:105AD00002460B46B64805F087F83946B54804F04B
