:1000000000800020BD0100008195000039950000AE
:1000100039950000399500003995000039950000A8
:100020003995000039950000399500008195000050
:10003000819500003995000055B4000059B40000C6
:100040008195000081950000819500008195000058
:100050008195000081950000819500008195000048
:100060008195000081950000819500008195000038
:100070008195000081950000819500008195000028
:100080008195000081950000819500008195000018
:10009000F1750000819500008195000081950000B8
:1000A00081950000819500008195000081950000F8
:1000B00081950000718800007D8800008188000023
:1000C0008D880000918800009588000081950000CF
:1000D00081950000819500008195000081950000C8
:1000E00081950000819500008195000081950000B8
:1000F00081950000819500008195000045A40000D5
:10010000819500003DC100008195000081950000AF
:100110008195000081950000819500008195000087
:100120008195000081950000819500008195000077
:100130008195000081950000819500008195000067
:100140008195000081950000819500008195000057
:100150008195000081950000819500008195000047
:100160008195000089A7000081950000819500001D
:100170008195000081950000819500008195000027
:100180008195000081950000819500008195000017
:100190008195000081950000819500008195000007
:1001A00081950000819500008195000081950000F7
:1001B000819500008195000081950000564B4CF21E
:1001C000205210B51A804DF628121A8000BF00BFC9
:1001D00009F0DAF9514B4FF010621A60504A9A60F8
:1001E000504ADA60504A136813F4807304D14F49BF
:1001F0000B604FF4A85313604D4B1A78110703D5C9
:100200001A7842F008021A704A4B4B492A221A7097
:100210004A4A4B4B8B4204D252F8040F43F8040B6A
:10022000F8E7484B484900228B4202D243F8042B9E
:10023000FAE74649464A002352F8230041F82300D2
:1002400001336F2BF8D1434B434A802103F8011B44
:100250009342FBD1414B3D4A1A60414B8A221A70AE
:10026000A3F5805324225A70A0221A709A7992071B
:10027000FCD59A79D406FCD43A4A937903F00C035E
:10028000082B384BF9D103221A7140225A719A79FE
:100290009006FCD5334A9179324B4906FBD5324A58
:1002A000324911600221516020221A709A7902F0BD
:1002B0000C020C2AFAD12E4B2E4A1A602E4B2F4AD2
:1002C0001A6000225A60072243F8042C2C4AC3F813
:1002D0000C2D62B609F08EFC144B1B68DA0705D5AD
:1002E000284809F069FA284B284A1A60284B1B78DD
:1002F0005B0609D5244C254B22689A4204D121483B
:1003000009F05AFA0023236009F044F90DF0EAFBE2
:100310000BF0B4FBFEE700BF0E2005403080044028
:10032000823F04000100002B10D0034014D0034092
:1003300002D0074000E007403894FF1F3837010023
:100340002087FF1F3894FF1FC0E1FF1F0082FF1F9F
:100350000000000000E400E05FE400E008ED00E0E1
:100360000050064000400640448004400000030165
:1003700004800440C010050014E000E0FF76010096
:1003800000002020B95DC5621CE00340A5C3945A5B
:1003900000F00740FFFFFFFFFFFFFFFFFFFFFFFF32
:1003A000FFFFFFFFFFFFFFFFFFFFFFFFFFFFFFFF5D
:1003B000FFFFFFFFFFFFFFFFFFFFFFFFFFFFFFFF4D
:1003C000FFFFFFFFFFFFFFFFFFFFFFFFFFFFFFFF3D
:1003D000FFFFFFFFFFFFFFFFFFFFFFFFFFFFFFFF2D
:1003E000FFFFFFFFFFFFFFFFFFFFFFFFFFFFFFFF1D
:1003F000FFFFFFFFFFFFFFFFFFFFFFFFFFFFFFFF0D
:10040000FFFFFFFFFFFFFFFFFFFFFFFFDEF9FFFF23
:1004100010B5054C237833B9044B13B10448AFF33E
:1004200000800123237010BD3894FF1F00000000DE
:1004300034370100084B10B51BB108490848AFF329
:1004400000800848036803B910BD074B002BFBD0A0
:10045000BDE81040184700BF000000003C94FF1F9B
:10046000343701003894FF1F00000000F0B400F1A1
:100470003C06174F00243146031F00F17C0243F86D
:10048000044FB34241F8047F4FF0000542F8044F97
:10049000F5D100230F4A1049C0F8C050C0F8C4502D
:1004A000C0F8C850C0F8CC50C0F8D050C0F8E050E8
:1004B000C0F8D420C0F8DC20C0F8D81080F8E830AC
:1004C00080F8E93080F80031C0F80C31F0BC70479A
:1004D0000000A040000048430000C8C22DE9F041E0
:1004E0008046CE1D00F1C00400F1D00716F8010FC0
:1004F00028380CF005FF094944F8040F05460DF0B3
:100500000FF938B1B8F914010CF0FAFE29460CF0D5
:1005100043FE2060BC42E9D1BDE8F081000020C26A
:100520002DE9F043814683B006290ED8DFE811F0AB
:100530004E00070063009600CB0000013800D9F898
:10054000081111B9002B00F02881D9F8004009F1F9
:100550004006C84609F18005002701E058F8044F1D
:10056000306821460DF0DCF80137214628B1D9F872
:10057000E4000DF0C1F800B13460214628680DF0A8
:10058000B1F804369B4920B120460DF0C9F800B1FE
:100590002C60102F05F10405E0D103B0BDE8F08315
:1005A000D9F808110029D0D1002BCED1537A107A76
:1005B00003F03F0300EB03200CF0A2FE8E490CF089
:1005C000A7FFD9F80040C9F83C00C0E7557A117A76
:1005D000937AD07AD9F8004001EB052101EB03436F
:1005E00003EB0063C9F80C31517B137B03EB012350
:1005F000C9F80831ABE7D9F808110029A5D1002BBB
:10060000A3D1537A107A019203F03F0300EB032049
:100610000CF076FE78490CF07BFF019AC9F80C00CB
:10062000D37A907A03F03F0300EB03200CF068FECE
:1006300071490CF06DFF019AC9F81000537B107BD3
:1006400003F03F0300EB03200CF05AFE6A490CF064
:100650005FFFD9F80040C9F8140078E7D9F808110D
:1006600000297FF472AF002B7FF46FAF537A107ABA
:10067000019203F03F0300EB03200CF041FE5E49C2
:100680000CF046FF019AC9F81800D37A907A03F06B
:100690003F0300EB03200CF033FE57490CF038FF0A
:1006A000019AC9F81C00537B107B03F03F0300EB59
:1006B00003200CF025FE50490CF02AFFD9F8004029
:1006C000C9F8200043E7D9F8081100297FF43DAFAD
:1006D000002B7FF43AAF537A107A019203F03F0374
:1006E00000EB03200CF00CFE43490CF011FF019AC3
:1006F000C9F82400D37A907A03F03F0300EB03207B
:100700000CF0FEFD3C490CF003FF019AC9F82800EB
:10071000537B107B03F03F0300EB03200CF0F0FD54
:1007200035490CF0F5FED9F80040C9F82C000EE769
:10073000D9F8081100297FF408AF002B7FF405AF2A
:10074000537A107A019203F03F0300EB03200CF080
:10075000D7FD29490CF0DCFE019AC9F83000D37AA4
:10076000907A03F03F0300EB03200CF0C9FD22490F
:100770000CF0CEFE019AC9F83400537B107B03F0D5
:100780003F0300EB03200CF0BBFD1B490CF0C0FE47
:10079000D9F80040C9F83800D9E6537A107A0192A6
:1007A00003F03F0300EB03200CF0AAFD12490CF00C
:1007B000AFFE019AC9F80000D37A0446907A03F09C
:1007C0003F0300EB03200CF09BFD0B490CF0A0FE57
:1007D000019AC9F80400537B107B03F03F0300EB40
:1007E00003200CF08DFD04490CF092FEC9F80800BE
:1007F000ADE600BF0000A04000007A4490F8F00091
:10080000704700BF90F8EC00704700BF90F8F4000C
:10081000704700BF90F8F800704700BF102994BFE0
:1008200050F82100002070472DE9F0410B4E804622
:10083000041F00F12C0754F8045F314628460CF0E1
:1008400051FF30B1D8F8E41028460CF069FF00B130
:100850002E46BC42EFD13046BDE8F0810000204179
:100860002DE9F041D0F8E4704FF00008041F00F1CA
:100870003C0654F8045F394628460CF051FF0849FD
:1008800048B128460CF02EFF414620B128460CF016
:1008900047FF00B1A846B442EBD14046BDE8F08125
:1008A0000000A0402DE9F047D0F8E47082464FF0F8
:1008B0000009041F00F13C064FF0000854F8045FE3
:1008C000394628460CF02CFF0C4950B128460CF054
:1008D00009FF30B1484629460CF05EFC08F10108DA
:1008E0008146B442EAD1CAF8048140460CF008FDC2
:1008F000014648460CF00CFEBDE8F0870000A04021
:10090000D0F80401704700BFD0F80801704700BF5D
:1009100038B5D0F8C850D0F8C440294620460CF06D
:10092000E1FE00B92C46204638BD00BF38B5D0F8EE
:10093000C850D0F8C440294620460CF0F1FE00B95A
:100940002C46204638BD00BF70B5D0F8C4401249CF
:10095000054620460CF0E4FED0B1204600210CF004
:100960001BFC01240646D5F8C8500B4928460CF05C
:10097000D7FE28B1304629460CF00EFC013406465D
:1009800020460CF0BDFC014630460CF0C1FD70BDA8
:1009900000260446E7E700BF000020C22DE9F84327
:1009A0004FF00008D0F8E470C0F8C0808146041F02
:1009B00000F13C0654F8045F394628460CF0B0FEBE
:1009C000084950B128460CF08DFE30B1404629460A
:1009D0000CF0E2FB8046C9F8C000B442EAD14046C0
:1009E000BDE8F8830000A04003299ABF00EB810016
:1009F000D0F8C400002070473E2998BF80F800114D
:100A0000704700BFD0F80C01704700BF90F8E800B5
:100A1000704700BF90F8E900704700BFC0F8FC10B5
:100A2000704700BF80F8E810704700BF80F8E910F9
:100A3000704700BFC0F8E410704700BFA0F8141161
:100A4000704700BF70B500F58A450646143500F1C1
:100A50002C04204604F58C74FFF708FDAC42F8D155
:100A600006F5A275012428460021FFF7DBFF214689
:100A700028460134FFF7C0FF3F2C05F58C75F2D1F5
:100A800044F21C5400250548054A064B3555002103
:100A90007061B161F2613362304670BD00007A442A
:100AA000000048430000C8C270B500F58A461436FD
:100AB00000F5A274002508E001252046002104F578
:100AC0008C74FFF7B3FFB4420AD02046FFF79EFFB5
:100AD0000028F2D02046FFF79DFF0028ECD170BD22
:100AE000284670BD70B500F5B0560C3600F5A274FE
:100AF00003E004F58C74B4420CD02046FFF786FF67
:100B000005460028F5D02046FFF77CFFC307F0D547
:100B1000284670BD0025284670BD00BF2DE9F04174
:100B200044F2205300F58A46374600228046C250E0
:100B30001436203700F5A27403E004F58C74B44237
:100B40000ED02046FFF762FF0028F6D020463D6811
:100B5000FFF7D6FE04F58C742844B4423860F0D117
:100B600044F2205358F80300BDE8F08144F21853D2
:100B7000C058704738B50C6804F00F044FF48C75FA
:100B8000013405FB04002C3015461A46FFF7A6FC7D
:100B9000012D00D038BD06480AF0D6FD2146044894
:100BA0000AF026FE0B210348BDE838400AF02CBBB2
:100BB000C489FF1F80190100F0B50D6805F00F040E
:100BC00005F0F005402D83B00F46064604F1010400
:100BD00046D01FDD602D3DD0702D37D0502D3BD03D
:100BE0000D2C01D8062D1DDD4FF48C7303FB04641E
:100BF0002C3420460121FFF715FF20460121FFF785
:100C000015FF337820463A46294603B0BDE8F04048
:100C1000FFF786BC202D21D0302D19D0002DDFD13B
:100C20000D2CE1D8012ADFD121460E4801920AF0AD
:100C3000DFFD019A0C4811460AF0E6FA29460948F8
:100C40000AF0D6FD07480AF07FFDCDE70625E7E765
:100C50000225E5E70525E3E70425E1E70125DFE7D0
:100C60000325DDE7C489FF1F8C1901002DE9F0433E
:100C7000002383B00646436000F5A274012504E01A
:100C800001353F2D04F58C7466D02046FFF7BEFE7B
:100C90000028F5D04E4807F075F829464D4807F072
:100CA00071F82046FFF77AFE0BF0D4FE02460B46A1
:100CB000494807F067F82046FFF7B6FD8046204612
:100CC000FFF7CEFD074640460BF0C4FE804638468F
:100CD00089460BF0BFFE42464B46CDE900013F4836
:100CE00007F050F800212046FFF77EFE01218046E4
:100CF0002046FFF779FE074640460BF0ABFE8046E4
:100D0000384689460BF0A6FE42464B46CDE9000127
:100D1000334807F037F82046FFF740FE0146706879
:100D20000CF03AFA70602046FFF7F2FDF1690CF022
:100D3000D9FC002833D12046FFF7F8FD316A0CF0CA
:100D4000EFFC00289CD02046FFF7F0FD01353F2D39
:100D5000306204F58C7498D1B0680CF0D1FA014679
:100D600070680CF0D5FBB169706004460CF0D8FCDB
:100D700000B1B461716920460CF0B4FC00B174613B
:100D80000B2008F0B3FE44F21C53F35C60B99BB136
:100D900044F21C530122F25403B0BDE8F083204614
:100DA000FFF7B6FDF061C6E753B944F21C530022C9
:100DB000F25403B0BDE8F0830A4807F011F8E7E702
:100DC000094806F0F7FF44F21C530022F254F0E702
:100DD0005820010090190100CC190100E019010010
:100DE0000C1A0100281A0100601A010070B5124B9C
:100DF000C36000F58A450646143500F5A27403E089
:100E000004F58C74AC4214D02046FFF7FFFD002897
:100E1000F6D02046FFF708FDF1680CF063FC0028CF
:100E2000EED02046FFF700FD04F58C74AC42F06074
:100E3000EAD1F06870BD00BF0000A04070B500238B
:100E400000F58A4506460361143500F5A27403E0F7
:100E500004F58C74AC4214D02046FFF7D7FD00286F
:100E6000F6D02046FFF7FCFC31690CF059FC002855
:100E7000EED02046FFF7F4FC04F58C74AC423061F0
:100E8000EAD1306970BD00BF40687047017070479B
:100E9000816070472DE9F04100F58A458846174684
:100EA0001EB2143500F5A27403E004F58C74AC4254
:100EB00014D02046FFF7AAFD0028F6D02046414670
:100EC000FFF7ACFD20463946FFF7B4FD204631461A
:100ED00004F58C74FFF7B2FDAC42EAD1BDE8F081B5
:100EE0002DE9F84344F2185300F58A450027C7500E
:100EF0002E462B4A2B4B826280464FF000094362FC
:100F00001435183600F5A27403E004F58C74A5427C
:100F100014D02046FFF77AFD0028F6D0336801335D
:100F200033602046FFF710FD1F490CF0F9FB90B924
:100F300004F58C74A54207F10107EAD144F2185375
:100F400058F80300C01B0CF0DBF9014648460CF0D2
:100F5000DFFABDE8F8832046FFF7F6FC0146484675
:100F60000CF01AF981462046FFF7E0FCD8F824106F
:100F70000CF0D6FB70B92046FFF7CAFCD8F8281051
:100F80000CF0B0FB0028C0D02046FFF7C1FCC8F829
:100F90002800BAE72046FFF7C9FCC8F82400EAE7B2
:100FA00000C0794400C079C400008CC2406A704718
:100FB000806A7047F8B500F58A4507460026143563
:100FC00000F5A27403E004F58C74AC4210D0204606
:100FD000FFF71CFD0028F6D02046FFF763FC014612
:100FE00030460CF0D9F804F58C74AC420646EED1CC
:100FF00044F21853F8580CF083F9014630460CF0CF
:1010000087FAF8BD2DE9F04F06468FB086488B462B
:1010100006F060FE844806F05DFE834806F05AFE46
:1010200044F218533046F2580D92FFF777FDB3683B
:101030000C93074670680BF00DFD804630468946DC
:10104000FFF7B8FF82463046F4683569FFF748FF7E
:101050000BF000FDCDE90A01214628460CF09AF874
:1010600072490CF0A1F90BF0F5FCCDE90801284616
:101070000BF0F0FCCDE9060120460BF0EBFCCDE9CE
:10108000040150460BF0E6FC0D9A0C9BCDE90201E1
:10109000CDE90089114666483A4606F01BFE6248D3
:1010A00006F018FE06F5A2764FF001094FF0000A8F
:1010B00007E009F10109B9F13F0F06F58C7600F060
:1010C000AB803046FFF7A2FC0028F2D03046FFF795
:1010D00095FB3046FFF796FB3046FFF797FB30460F
:1010E000FFF798FB082153480AF08EF8494652480A
:1010F0000AF07EFBB9F1090F40F3918002214F48BD
:101100000AF082F83046FFF749FC0BF0A3FC5FFAC7
:101110008BF802460B46CDF8008047480AF070FB7A
:10112000012147480AF070F85546002420E00621C6
:1011300044480AF069F829463F480AF059FB022161
:1011400041480AF061F821463046FFF767FB0BF093
:1011500081FCCDF8008002460B4637480AF050FB70
:101160000134012136480AF04FF8102C09D03D46D1
:10117000092D05F10107DADC012134480AF044F8B1
:10118000D5E72D480AF0E0FA092131480AF03CF889
:1011900000213046FFF728FC0BF05CFC02250246DC
:1011A0000B46009524480AF02BFB0A2129480AF037
:1011B0002BF801213046FFF717FC0BF04BFC009594
:1011C00002460B461C480AF01BFB0C2122480AF081
:1011D0001BF83046FFF716FC00232246014616484E
:1011E0000AF0C6FA08211D480AF00EF83046FFF74B
:1011F0008BFB2246014600230F480AF0B9FA09F199
:1012000001090D480AF0A0FAB9F13F0F0AF1100ADE
:1012100006F58C767FF455AF0FB0BDE8F08F012155
:101220000A4809F0F1FF69E75820010000007A44FC
:10123000101D0100B01D0100C489FF1FFC21010029
:10124000BC1D0100C01D0100201E0100301E010058
:10125000C81D0100D41D0100E01D0100F01D0100AA
:101260002DE9F04F85B000F5A2758A4603929B46A2
:101270002E464FF0010806E008F10108B8F13F0FD3
:1012800006F58C767BD03046FFF7C0FB0028F3D004
:1012900000230A2251467D480AF06AFA01217C485F
:1012A00009F0B2FF03980BF0D5FB00230246009330
:1012B00076480B460AF0A4FA0121754809F0A4FF0C
:1012C000594672480AF094FA0121714809F09CFFCE
:1012D00041466E480AF08CFA01216D4809F094FFEE
:1012E00000244FF0020921463046FFF797FA0BF031
:1012F000B1FBCDF8009002460B4664480AF080FA34
:1013000001340121624809F07FFF082C4FF00207E9
:10131000E9D100213046FFF767FB0BF09BFB0097FC
:1013200002460B4659480AF06BFA0121584809F069
:101330006BFF01213046FFF757FB0BF08BFB00974B
:1013400002460B4651480AF05BFA0121504809F069
:101350005BFF39463046FFF747FB0BF07BFB0097FE
:1013600002460B4649480AF04BFA08F10108474883
:101370000AF0EAF9B8F13F0F06F58C7683D1012720
:101380004FF0000904E001373F2F05F58C7579D047
:101390002846FFF73BFB0028F5D000230A225146E0
:1013A0003C480AF0E5F90121394808F0F7FE0398B6
:1013B0000BF050FBCDF8009002460B4635480AF082
:1013C0001FFA0121324808F0E9FE594631480AF077
:1013D0000FFA01212E4808F0E1FE39462D480AF0A7
:1013E00007FA01212A4808F0D9FE00244FF002082C
:1013F00021462846FFF712FA0BF02CFBCDF80080AF
:1014000002460B4623480AF0FBF90134012120482B
:1014100008F0C4FE082C4FF00206E9D1002128464E
:10142000FFF7E2FA0BF016FB009602460B4619484E
:101430000AF0E6F90121164808F0B0FE012128461D
:10144000FFF7D2FA0BF006FB009602460B46114856
:101450000AF0D6F901210E4808F0A0FE31462846D0
:10146000FFF7C2FA0BF0F6FA009602460B4609485F
:101470000AF0C6F9013707480AF066F93F2F05F56B
:101480008C7585D105B0BDE8F08F00BFC489FF1F02
:101490008C1901009889FF1F70B5132008F026FBF6
:1014A000A8B1114E114B35881C6808F033FBADB262
:1014B0002C44201A33880E4AC0EB00108000A0F69E
:1014C00034009BB2B0FBF3F39BB2138070BD074CAA
:1014D00008F020FB2368044AC01A80B2108008F08C
:1014E00019FB206070BD00BFECDCFF1F60DDFF1F3B
:1014F00070DDFF1F0A4A0B49106ED36D03FB00F32A
:101500004FF47A7000FB03F0642310B50B600BF00E
:10151000F7FE0549054C0BF0FBFF206010BD00BF36
:1015200000DCFF1F0C88FF1FE4388E3E4CDDFF1FE0
:1015300010B4019C521AA4EB030412D0401A002CE0
:1015400004FB00F002EBD27111DB00EB610101FB47
:1015500002F0002891FBF2F10B4414DB184610BC9A
:10156000704704EBD47003EB600010BC7047A0EB35
:10157000610000FB02F1002990FBF2F01844EEDB61
:10158000013010BC7047581E10BC704738B5044677
:1015900008460D460DF094F82368024629465B681C
:1015A00020469847054620460AF0CEF8284438BD24
:1015B000F8B54C484C4D4D4E4D4F4E4C06F08AFB05
:1015C0004D4B4E494E4A596011214E481970DD600D
:1015D0004D491A6100254FF4FA729E619F624B4E8D
:1015E0004B4FDC614FF07C54D862196349484A493B
:1015F0009D639A863C250C22DE631F64474E484F4C
:10160000DC6496241865596502200121A3F8B050C6
:101610009A65444D5E6200226426C3F8D070A3F838
:1016200068404FF496773224587058721972D96511
:101630001D625D615D6483F848201E661F675F66FA
:1016400041F20405DC66C3F88420C3F88800C3F8BF
:101650008C10C3F89020C3F89840C3F8B840C3F882
:10166000B4205A24C3F8C010C3F8C40083F8D410BF
:101670004FF47A7083F8D51083F8D6202A49A3F85E
:10168000D8202A4AC3F8C86040F61C4C4FF00A0E16
:1016900044F62067FF26DD67C3F880405525F02417
:1016A000C3F89C00C3F8A010052041F28831C3F8AC
:1016B000A42040F2D662C3F874C0C3F878E0C3F83F
:1016C000A870C3F8BC60C3F8DC50C3F8E040A3F8CE
:1016D000CE00C3F89410A3F8CC10A3F8AC20A3F864
:1016E000AE20F8BDFC1D01006666864033338340A2
:1016F000CDCCCC3DCDCC4C4000DCFF1F20A1070061
:101700000000404000008242000020C10000204252
:101710000000A0409A9979400AD7233D33337340A3
:101720009A99993ECDCC4C3E0000684200C02044BE
:1017300070B5464C464D4748E66800232B70FFF7CE
:101740007DFB014630460BF0CDFF08B104232B7022
:101750004048FFF74BFB21690BF0C4FF18B12B7811
:1017600043F010032B703B48FFF720FCE16A0BF0BD
:10177000D7FF18B12B7843F040032B700023354876
:101780006B70FFF715FC216B314E0BF0ABFF08B10E
:101790000123737000232F48EB70FFF74FFB0546C2
:1017A0002C482B4EFFF722FB014628460BF0F2FC9B
:1017B000616C0BF0B5FF08B10123F370264D25488D
:1017C00000232B70FFF73AFBA16A0646E0680BF096
:1017D000E1FC014630460BF0A3FF08B104232B7057
:1017E0001C48FFF703FBA16A064620690BF0D4FCF6
:1017F000014630460BF076FF18B12B7843F010030A
:101800002B701448FFF7D2FB216C0646E06A0BF000
:10181000C1FC014630460BF083FF18B12B7843F032
:1018200040032B7000230B486B70FFF7C1FB216C4A
:101830000546206B084C0BF0AFFC014628460BF028
:1018400051FF08B10123637070BD00BF00DCFF1FB2
:10185000E0DBFF1F0C96FF1F5894FF1F544B1B68C3
:10186000002B74D0F0B5534D2B680533B3F57A7F58
:1018700083B040F38580002300272B604E4CD4F8C2
:10188000B8000BF03DFD0646D4F8BC000BF038FD67
:1018900031460BF07FFC39460BF086FD47490BF0D3
:1018A00037FE31460BF078FC0BF044FF0146062072
:1018B00007F096FF0221424809F0A6FC414809F0D2
:1018C00043FF0621404809F09FFC28680BF018FDF3
:1018D0003E490BF069FD0BF0BDF8022602460B46AF
:1018E0000096384809F08CFF0D21394809F08CFC2E
:1018F000D4F8B8000BF004FD074628680BF000FD93
:1019000032490BF051FD0546D4F8BC000BF0F8FC51
:1019100039460BF03FFC014628460BF045FD2749B0
:101920000BF0F6FD39460BF037FC0BF093F8009600
:1019300002460B46234809F063FF3146204809F070
:1019400063FC204803B0BDE8F04009F0FDBE1A4B2F
:101950002048D3F8B820D3F8BC100368891A0029AE
:1019600003FB01F31C4914DB323381FB0310D9174D
:10197000C1EB6011002B114416DB062007F030BFCD
:1019800018462B600BF0BCFC10490BF00DFD074610
:1019900074E7323B81FB0310D917C1EB6011002BB8
:1019A0000A4403DB511CE8E70139E6E71146E4E7A6
:1019B0008894FF1FE4DCFF1F00DCFF1F0000C8420B
:1019C000FC210100C489FF1F1C1E0100CDCCCC3DB1
:1019D000241E01000C88FF1F1F85EB5170B5B44811
:1019E000B44C84B009F0B0FEB14809F0ADFEB04887
:1019F00009F0AAFE0D21B04809F006FCD4F8B43075
:101A0000012B11D0AD4DAA48297800230A2209F0F4
:101A1000AFFE2B78052B69D8DFE813F0A601AB01E8
:101A2000B001B501BA01BF010921A54809F0ECFBDD
:101A3000A448FFF7DBF921690BF054FE18B10F2120
:101A4000A14809F0E1FB9F48FFF7F8F9E1680BF0C6
:101A500067FE18B10E219D4809F0D6FB9948FFF7A3
:101A6000EDF905469748FFF7C1F9014628460BF006
:101A700091FB616C0BF054FE18B11121944809F0F0
:101A8000C3FB9048FFF72CFAE16A0BF049FE18B14E
:101A90000C21904809F0B8FB8A48FFF721FA216B26
:101AA0000BF020FE18B10D218B4809F0ADFB8B4BDC
:101AB00084481B68012B00F0A581FFF797F9216985
:101AC0007C4D0BF02DFE002800F04C817D48FFF787
:101AD000B5F9E968794D0BF005FE38B12B78052B87
:101AE00000F0A78108217E4809F08EFB02217D4885
:101AF00009F08AFB122007F0F9FF012800F07D8130
:101B0000112007F0F3FF012800F04C81764B1C6890
:101B1000012C00F0508102217248744C09F074FBD2
:101B2000734B6348196809F063FE614809F00CFEC5
:101B30000421704809F068FB0B2007F0D7FF002351
:101B400001460A225A4809F013FE0C2007F0CEFF86
:101B5000002301460A22564809F00AFE142007F025
:101B6000C5FF002301460A22514809F001FE152055
:101B700007F0BCFF0A22002301464D4809F0F8FD9A
:101B800006215D4809F040FB2368DE074FF00101A4
:101B90004CBF5A485A4809F037FB236898074FF062
:101BA00001014CBF5548564809F02EFB23685A07DF
:101BB0004FF001014CBF5148514809F025FB236803
:101BC0001B074CBF4D484E48012109F01DFB042165
:101BD0004C4809F019FB112007F088FF002301464B
:101BE0000A22334809F0C4FD102007F07FFF0023CC
:101BF00001460A222E4809F0BBFD122007F076FFAD
:101C0000002301460A222A4809F0B2FD132007F0FA
:101C10006DFF0A2200230146254809F0A9FD18217D
:101C2000394809F0F1FA394B18880BF069FB38494B
:101C30000BF0BAFB0AF00EFF002402460B4600949C
:101C40001B4809F0DDFD1D21324809F0DDFA324B59
:101C500018680BF055FB2E490BF0A6FB0AF0FAFEB4
:101C600000940B46024612482C4C09F0C9FD022193
:101C70002B4809F0C9FA2B78032B02D023889BB29A
:101C80009BB11721274809F0BFFA2188084889B27B
:101C900009F0AEFD0221224809F0B6FA2B78032B99
:101CA00003D1214B1B78002B40D104B070BD00BF85
:101CB000C489FF1F00DCFF1F341E01008C94FF1F2E
:101CC000441E01000C96FF1F501E0100601E010003
:101CD000701E0100841E0100941E01009894FF1FD5
:101CE000C81E0100FC21010004DDFF1F74DDFF1F81
:101CF0006494FF1F401F0100481F0100501F010096
:101D0000D0300100541F01005C1F01008494FF1FAC
:101D1000CDCCCC3D781F010068DDFF1F70DDFF1FBB
:101D2000981F0100F81F010048DBFF1F0B214348EB
:101D300009F06AFA424B4348198889B209F058FD04
:101D40001121414809F060FA404B3E48198809F0DA
:101D50004FFD3F4B1B78002B64D01D213D4809F0FF
:101D600053FAA2E73C4DC1E606213C4809F04CFA83
:101D7000BCE607213A4809F047FAB7E60721394897
:101D800009F042FAB2E60821374809F03DFAADE61B
:101D90000B21364809F038FAA8E60721344809F043
:101DA00033FAA3E60A21334809F02EFA324B1C68B5
:101DB000012C7FF4B0AE1121304809F025FA2146FC
:101DC0002F4809F021FA2F4B2F4A1B680393039BDE
:101DD0001068C01A0BF090FA2C490BF0E5FA0AF0E3
:101DE00039FE002602460B460096164809F008FD0B
:101DF0002146234809F008FA8DE60E21244809F00F
:101E000003FA7DE6FEF7F2FF616A0BF089FC70B120
:101E100016212048104D09F0F7F90A211E4809F053
:101E2000F3F963E619211D4809F0EEF93DE70A4D83
:101E300058E60A21184809F0E7F957E69C1F010007
:101E4000ECDCFF1FC489FF1FA81F010056DDFF1F28
:101E5000FC94FF1FD81F01008C94FF1FD41E0100AB
:101E6000DC1E0100F01E0100F81E0100E41E01004E
:101E7000041F01001C1F010004DDFF1F281F0100BB
:101E80003C1F010048DFFF1F3CDDFF1F6F12833A3C
:101E90000C1F0100A41E0100BC1E0100BC1F01009C
:101EA0002DE9F04FAB4CD4F88860012E8DB000F0D6
:101EB0007981032E00F0CD80DFF8DC82A64FA74E9B
:101EC000D4F88430A648012B09BF3168316801F18C
:101ED0000041316007F08AF83B68002B40F09F809A
:101EE0009F48DFF8B49207F057F83B68C8F8000045
:101EF0000546002B44D1D4F88830964A012B53D0A4
:101F0000984928460BF00CFCC0B9974928460BF0BD
:101F1000E9FB98B9954A964B12680B920B9A1A6096
:101F2000D4F8C0000BF0ECF929460BF03DFA002381
:101F3000C8F8000033600DB0BDE8F08FDFF82CA2C8
:101F40008B4FDAF800300A930A983B68DFF84C921E
:101F5000C01A0BF0D1F929460BF026FA85490BF08F
:101F6000D7FA84490BF0D4FAD9F800100BF014F921
:101F7000DAF800300993099BC9F800003B60CFE70D
:101F80000AF068FD022502460B4600957A4809F0E2
:101F900037FC0421794809F037F9D4F88830D9F8AA
:101FA00000506C4A012BABD1754B1B68012B00F024
:101FB000D981022BB4D1D2F8A87038460BF0A0F921
:101FC00029460BF08FFB40B978420BF099F929466E
:101FD0000BF0A6FB002800F0F881DFF890A1644F19
:101FE000DAF80030079307983B68DFF8B091C01A21
:101FF0000BF082F929460BF0D7F95E490BF088FA0D
:102000005C490BF085FAD9F800100BF0C5F8DAF846
:1020100000300693069BC9F800003B6080E75048FB
:1020200006F0BAFF0AF016FD022502460B4600959F
:10203000514809F0E5FB0321524809F0E5F8D4F8CE
:10204000A8104D4809F0D4FB03214E4809F0DCF8F4
:1020500046E74D4D4A4F2B68DFF83C81D3F88400AA
:102060000F2101233B6006F04FFF3B683A4F012BE5
:102070003B6800F0BE80002B40F03C812B68DFF80D
:102080002091D3F88400436B19698EB2C9F80060BF
:1020900006F0BCFCB4F8AE2040F6E44303FB06F1C6
:1020A000B1FBF0F0801A00B20BF02AF937492B4E41
:1020B0008246D4F8A0000BF077F9014650460BF0A9
:1020C00027FAD9F800303060632BDFF8D4A000F392
:1020D0000581002333603B68002B3FF4F1AE022101
:1020E0002B4809F091F82B68D9F80050D3F88400F8
:1020F00040F6E44303FB05F506F088FCB5FBF0F081
:102100000BF0FAF80546B4F8AE000BF0F9F801460A
:1021100028460BF03FF80AF09DFC022502460B46CC
:102120000095154809F06CFB2946194809F06CF830
:1021300030680AF08FFC009502460B460E4809F005
:102140005FFB2946134809F05FF82946104809F05B
:102150005BF8B5E600DCFF1F30DDFF1F64DDFF1F0D
:102160000CDDFF1F0000FA430000FAC348DFFF1F29
:10217000DCDBFF1F00007A44C489FF1F54200100EC
:102180002488FF1F5020010084DDFF1F9175DD367C
:10219000FC2101004C200100E4DBFF1F4CDDFF1F90
:1021A0008CDDFF1FDFF80883D4F8A870D8F8005042
:1021B00038460BF0A5F829460BF0B2FA48B1784240
:1021C0000BF09EF8014628460BF0AAFA002840F0D2
:1021D0000381A54DA54F2A680223D2F884003B60F5
:1021E0000E2106F091FE3B68A14F012B3B687FF466
:1021F00042AF002B40F0FA802B68DFF8B892D3F89A
:102200008400436B19691FFA81FBC9F800B006F01E
:10221000FDFBB4F8AC30974E40F6E44A0AFB0BFBEA
:10222000BBFBF0F0C01A00B20BF06AF8924983468B
:10223000D4F8A4000BF0B8F8014658460BF068F942
:102240002A68D9F800303060D2F884000AFB03FA1B
:1022500006F0DCFBB4F8AC30BAFBF0F00FFA80FA11
:10226000C3EB0A03002BB4F8CE20B8BF5B42934205
:10227000BCBF002333603B68002B3FF421AE02213A
:102280007E4808F0C1FF2B68D9F80050D3F88400CD
:1022900040F6E44303FB05F506F0B8FBB4F8AC10D8
:1022A000B5FBF0F000B2411A754809F0A1FA02211D
:1022B000724808F0A9FF30680AF0CCFB02250246FC
:1022C0000B4600956E4809F09BFA03216D4808F013
:1022D0009BFF2946694808F097FFF1E52B68D3F882
:1022E000840006F093FBDAF8003064389842FFF47B
:1022F000F0AEF0E66248DFF8BC91DFF86CA109F0BF
:1023000023FA0C21604808F07FFF0C215F4808F099
:102310007BFF2A683B68D2F88400426B11698EB259
:10232000C9F80060002B3FF4B3AE06F06FFB40F637
:10233000E44100230A2201FB06F1B1FBF0F1504811
:1023400009F016FA02214D4808F05EFFB4F8AE100D
:102350004B4809F04DFADAF80030D9F80060D3F8AC
:10236000840095E64A4928460BF0DAF958B94949FC
:1023700028460BF0B7F930B9474A484B1268059226
:10238000059A1A60CCE5DFF810A1444FDAF8003066
:10239000049304983B68DFF82091C01A0AF0ACFF60
:1023A00029460BF001F83E490BF0B2F83C490BF01E
:1023B000AFF8D9F800100AF0EFFEDAF80030039316
:1023C000039BC9F800003B60AAE5334A334B12680F
:1023D0000892089A1A60A3E5234D244F2B683E60AB
:1023E000D3F884000F2106F08FFD3EE62448DFF885
:1023F000C4901D4E09F0A8F9D4F88830012B4FF095
:102400000B010CBF2748284808F0FEFE0C211F488E
:1024100008F0FAFE2A683B68D2F88400426B116922
:102420001FFA81FBC9F800B0002B3FF4F0AE06F0B4
:10243000EDFA40F6E44100230A2201FB0BF1B1FB67
:10244000F0F10F4809F094F90121184808F0DCFE7A
:10245000B4F8AC100A4809F0CBF93368D9F800B0E9
:10246000D3F88400D3E600BF84DDFF1F2488FF1F5C
:1024700030DDFF1F64DDFF1F9175DD36FC2101009B
:10248000C489FF1F382001003C20010028200100E2
:102490000000FA430000FAC348DFFF1FDCDBFF1F28
:1024A00000007A44102001001C200100301E0100B1
:1024B000E4DBFF1F8CDDFF1F4CDDFF1F2DE9F04F1C
:1024C000944C236885B01BB9934B1B68002B7BD0C1
:1024D000924EDFF85482924FDFF89092D6F8903007
:1024E0008E4D012B00F08C802C6ED7F800A0ED6D86
:1024F00004FB05F44FF47A7000FB04F00AF000FFCF
:102500008849894D044650460AF04EFF21460AF09C
:10251000FFFF86490AF048FF0BF00CF96328C8F862
:1025200000004CDD20467F490AF0F2FF642338604A
:102530002B60D9F80030002B3ED0D6F88830774C8D
:10254000012B00F08480032B00F0D880022B00F0D8
:10255000DC800221764808F057FE764B18680AF0B6
:1025600079FA022402460B460094734809F048F9B0
:102570002146724808F048FE21466D4808F044FEA6
:10258000D8F800106C4809F033F906216C4808F0BF
:102590003BFE386863490AF007FF0AF05BFA0094D3
:1025A00002460B46644809F02BF90321654808F000
:1025B0002BFE614809F0C8F805B0BDE8F08F00288F
:1025C000BCBF00232B60B4E75F4D544E2B680293D1
:1025D000029A42F228339A4200F287802B680393D2
:1025E000039A42F210739A423ED8D6F89030DFF840
:1025F00038814B4FDFF87491484D012B7FF474AF55
:102600005248FEF7F3FB5249D5F87CA06C6FD5F821
:1026100078B00AF0C9FE0BF0B3F8D5F8803000931B
:10262000524621465B4680B2FEF782FF2C6EED6D6E
:1026300004FB00F005FB00F000EB800040000AF016
:102640005FFE38490AF064FF8246386050E7414B2C
:102650001B68012B4FF00A010CBF3F483F4808F0B0
:10266000D3FDD4F888306EE73848DFF8BC80FEF739
:10267000BDFB3749D6F87890F76F756F0AF094FE76
:102680000BF07EF8D6F8803000933A464B46294648
:1026900080B2FEF74DFF326EF36DC8F8000002FB0A
:1026A00000F003FB00F000EB800040000AF028FE81
:1026B000DFF8B8901B491A4F0AF02AFFD9F800300A
:1026C000386001222260002B3FF408AF0221184835
:1026D00008F09AFD184809F037F85921204808F009
:1026E00093FD154809F030F8F8E61848B6F9D830E7
:1026F000F26C96F84810FEF7CDFB6FE710211948F1
:1027000008F082FDD6F8883020E70721164808F047
:102710007BFD1EE7F8DCFF1F80DDFF1F00DCFF1FD5
:102720004CDDFF1FE4388E3E0C88FF1F0000C842BE
:10273000FC210100E4DBFF1FC489FF1F4C200100C6
:10274000EC200100F420010048DFFF1F0C96FF1F62
:1027500000007A442488FF1FB8200100C420010033
:102760005C200100D0200100E42001000088FF1F50
:1027700030B5112083B007F0B9F9012818D0122024
:1027800007F0B4F9012813D000210B2007F0A8F9B5
:1027900000210C2007F0A4F90021152007F0A0F972
:1027A0002649274B0120002208701A6003B030BD73
:1027B0000121152007F094F9224A234C234B12687B
:1027C000D4F8941001921B68019A1D4D0B4493425A
:1027D0004FF00201296005D901210C2007F080F992
:1027E00003B030BDD4F89C000AF08AFD184B19687C
:1027F0000AF078FF0028EFD101210B2007F070F9D3
:1028000094F8D43003242C6043B10C4B02221A708C
:1028100000210C2007F064F903B030BD122007F04E
:1028200065F9012808BF054B4FF0110008BF1C7067
:1028300007F05CF90128EBD1E7E700BF8C94FF1F9C
:102840000895FF1F48DFFF1F00DCFF1F44DBFF1F51
:10285000E4DBFF1FF0B5684E684D34682B689C427E
:1028600087B039D014F0010155D014F0020149D0DD
:1028700014F004013DD0E3070ED52B68DF070BD41D
:102880005F4F3A68002A00F082805E4B1B6801931C
:10289000019B93426DD83468A0070DD52B6899072A
:1028A0000AD4594F3A68002A4CD0564B1B68039300
:1028B000039B934238D8346862070DD52B685B07B9
:1028C0000BD4524F3A68002A7ED04E4B1B680593BA
:1028D000059B934268D834680CB107B0F0BD21461F
:1028E000162006F07DFF2146172006F079FF07B07D
:1028F000F0BD052006F074FF2B68346803F0FB037D
:102900002B60B8E7172006F06BFF2B68346803F0E4
:10291000FD032B60ACE7162006F062FF2B683468DD
:1029200003F0FE032B60A0E7394B1720D3F8981073
:1029300006F056FF2B68346843F0020300222B6038
:102940003A60B9E7334808F0FFFE0C21324808F03E
:102950005BFC304808F0F8FEFF21172006F040FF2E
:10296000284B2E4A19680291029912680A443A606B
:102970009CE7274B1620D3F8981006F031FF2B6800
:10298000346843F0010300222B603A6084E7FF21A2
:10299000162006F025FF1B4B204A1968009100996C
:1029A00012680A443A6071E7194B0520D3F8981071
:1029B00006F016FF2B68346843F0040300222B60F6
:1029C0003A60002C89D18AE7124808F0BDFE0C213C
:1029D000134808F019FC0F4808F0B6FEFF21052047
:1029E00006F0FEFE074B0D4A19680491049912681F
:1029F0000A443A606AE700BF0895FF1F74DDFF1FB5
:102A0000E8DCFF1F48DFFF1FFCDCFF1F00DDFF1FAE
:102A100000DCFF1FC489FF1FF82001001488FF1F7E
:102A2000082101002DE9F047534EDFF8708133682B
:102A3000DFF86C91D3F88400504D0F2106F064FA52
:102A40000023012222214E48C8F80030C9F8002096
:102A500008F0DAFBD8F80030132B20DC40F6E4470E
:102A60003368B5F8ACA0D3F88400436B1C6905F05B
:102A7000CDFFA4B2012107FB04F4B4FBF0F44148FC
:102A80005444A5F8AC4008F0BFFB642007F064F89C
:102A9000D8F800300133132BC8F80030E0DDB5F86A
:102AA000AC30394A3948A2FB03129B1A02EB53039C
:102AB000C3F30F131946A5F8AC3008F099FE1D2199
:102AC000334808F0A1FB0221324808F09DFB2F4853
:102AD00008F03AFE00231A460E213068C8F800308C
:102AE00005F00EFF022322212548C9F8003008F026
:102AF0008BFBD8F80030132B20DC40F6E44733681A
:102B0000B5F8AE90D3F88400436B1C6905F07EFFE6
:102B1000A4B2012107FB04F4B4FBF0F419484C44BF
:102B2000A5F8AE4008F070FB642007F015F8D8F85F
:102B300000300133132BC8F80030E0DDB5F8AE30BB
:102B4000114A1248A2FB03129B1A02EB5303C3F370
:102B50000F131946A5F8AE3008F04AFE1D210E48A5
:102B600008F052FB02210B4808F04EFB0748BDE875
:102B7000F04708F0E9BD00BF84DDFF1F00DCFF1F48
:102B8000182101005C21010087611886C489FF1F9C
:102B90003C210100FC210100602101006C94FF1F19
:102BA0002488FF1F2DE9F047C64DD5F8C430062B09
:102BB00000F0AE81C44BC54C1B68A86D40F251318A
:102BC00008222160E271002B00F077810AF098FB67
:102BD000696A06460AF0E8FBBD49BA4F0AF0E4FB11
:102BE0000AF0CEFD80B203126372BA4ABA4B126881
:102BF0001B88E9692072A37230461B121612E37219
:102C0000227366730AF0D0FBB149B04E0AF0CCFBD8
:102C10000AF0B6FD83B21A123146B048A373E273CC
:102C200005F0C6FCAE4AAF4B12681988A172D3B248
:102C3000237203EB83035B00237302EB820343F3F2
:102C4000D7134FEA212E12124FF008084FF0000957
:102C500031466373A14884F80BE040F25533627249
:102C6000236084F8078084F80E9084F80F9005F0B4
:102C70009FFC40F256339C48236084F80780FEF79F
:102C800003F99A490AF090FB0AF07AFD20729648FF
:102C9000FEF7FAF895490AF087FB0AF071FD944AAD
:102CA0009249C0F30723106863720AF031FC0AF0FE
:102CB00041FD40FA08F3A0728B48E372FEF710F969
:102CC00083490AF071FB0AF035FD20738648FEF750
:102CD00007F97F490AF068FB0AF02CFD40F3072052
:102CE000314660737D4884F80E9084F80F9005F0AB
:102CF0005FFC022006F030FF7E4A7F4B1178217284
:102D0000517890786172D178A0721A789878E172CF
:102D1000597822736173DA78A07340F25A333146DE
:102D20006E48E273236084F8078005F041FC734B22
:102D30006A481A7822725A7862729A78A272DA789D
:102D4000E2721A7922735A7962739A79DB79E373A2
:102D5000314640F25E33A273236084F8078005F0A9
:102D600027FC022006F0F8FE654B5C481A782272B8
:102D70005A7862729A78A272DA78E2721A792273B9
:102D80005A7962739A79DB79E37331464FF45C7355
:102D9000236084F80780A27305F00AFC594B1B6876
:102DA000012B00F06F82022006F0D6FE082640F2CA
:102DB00073334D482360E671FEF718F852490AF064
:102DC000F3FA0AF0DDFC20724748FEF70FF84E498F
:102DD0000AF0EAFA0AF0D4FCC0F30723424863720F
:102DE000FEF72CF848490AF0DFFA0AF0C9FCA07295
:102DF0003D48FEF723F844490AF0D6FA0AF0C0FC31
:102E0000C0F307233848E372FEF7D2F83F490AF0CF
:102E1000C3F90AF0B5FC20733348FEF7C9F83B4903
:102E20000AF0BAF90AF0ACFCC0F307232E4863732A
:102E3000FEF7BCF835490AF0AFF90AF0A1FCA0731F
:102E40002948FEF7B3F831490AF0A6F90AF098FCD0
:102E50001E49C0F307232148E37305F0A9FB0220B4
:102E600006F07AFEE96D2B6E022211FB03F3104689
:102E700040F27931C3F30725E27121602372657254
:102E800006F06AFE40F2723317482360E671FDF7E0
:102E90006DFE20721448FDF769FE002340FA06F229
:102EA0006272A372E37223736373A373E3730749BC
:102EB0000A48BDE8F04705F07BBB0AF021FAA96992
:102EC000064687E600DCFF1F9894FF1F7094FF1FE3
:102ED0000000204168DDFF1F8494FF1FA0DDFF1F5D
:102EE0000C88FF1F1088FF1F0C96FF1F0000C842B0
:102EF000E4DBFF1FE0DBFF1F5894FF1F3488FF1F38
:102F00003C88FF1F04DDFF1F00007A443393884391
:102F1000CD4CCE48002608274FF4C36321464FF01E
:102F200059094FF044084FF0420A236084F80A9090
:102F300084F80B80E771267226736673A673E673B6
:102F400084F809A005F034FB022006F005FE4FF4DA
:102F5000BB632146BD48236084F80A9084F80B8047
:102F6000E771267284F809A026736673A673E67368
:102F700005F01EFB022006F0EFFDE96D2A6ED5F884
:102F800058E0B248E77101FB02F312FB01F203EBD8
:102F9000C30103EB810302EBC2010EFB03F302EB5F
:102FA00081024FF4AB68032112FB0EF24FF0050CC7
:102FB0003B414FF0070EC4F8008021724FF0120918
:102FC00021464FF0040884F80EC02373627384F81E
:102FD0000FE0A67284F8099084F80B8005F0E8FAF7
:102FE000022006F0B9FD34224F234FF4B36E214680
:102FF0009648E272E373C4F800E0E77126726672E5
:1030000084F80A902673667384F80E8005F0D0FA6F
:10301000022006F0A1FD8E4BE7711B68A86D4FF4EE
:1030200056722260002B40F065810AF069F9A969A7
:1030300006460AF0B9F987490AF0B6F90AF0A0FB8A
:1030400080B240FA07F360722372E96930460AF0F1
:10305000ABF980490AF0A8F90AF092FB7E4B7F4A4F
:103060001B6812887849637385B216121B122F12DF
:1030700076482373E273E572A772A67305F098FA97
:10308000022006F069FD764A764B16681D88764B5D
:1030900076491868E57206EB8603642202FB06F2A5
:1030A00003EB83039B0012122E124FF47677082550
:1030B00063722272A6722760E5710AF075F90AF050
:1030C0005FFB83B243FA05F70026F9225E495F48A9
:1030D0006373A2732773E67305F06AFA022006F0A1
:1030E0003BFD4FF48B604FF0120E56227823564969
:1030F00020603427554884F80AE0A273E373E57131
:103100002672667226736673E77205F051FA022022
:1031100006F022FD4FF4A36355482360E571FDF7E7
:1031200045FF4C490AF040F90AF02AFBC0F3072397
:103130004F482372FDF73AFF46490AF035F90AF085
:103140001FFB60724A48FDF733FF42490AF02CF931
:103150000AF016FBC0F307234548A372FDF728FFCA
:103160003C490AF021F90AF00BFBFF233649E072D3
:10317000364823736373A373E37305F019FA0220CF
:1031800006F0EAFC4FF49B6339482360E571FDF7D4
:103190007BFE30490AF008F90AF0F2FAC0F307237F
:1031A00033482372FDF770FE2A490AF0FDF80AF051
:1031B000E7FA304B3049607218680AF0A9F90AF052
:1031C000B9FA40FA05F203462948A272E372FDF704
:1031D00087FE20490AF0E8F80AF0ACFA40F307232A
:1031E00023482373FDF77CFE1A490AF0DDF80AF044
:1031F000A1FA0323607314491448A373E57305F01F
:10320000D7F9022006F0A8FC1C4A1D4B92F801E0F9
:103210009178D0781F785E7892F800C0E571DA78FE
:103220009D78A1724FF4AC73E07284F808C084F802
:1032300009E027736673A573E273236002490348AC
:10324000BDE8F04705F0B4B97094FF1FA0DDFF1F83
:103250009894FF1F0000204168DDFF1F8494FF1F2A
:103260000C88FF1F1088FF1F4CDDFF1F620B363BD1
:103270000C96FF1FE4DBFF1F0000C842E0DBFF1FCE
:103280005894FF1F2E48FDF7B1FD796D09F084FFBA
:1032900081462B48FDF7D2FD014648460AF022FA46
:1032A00000283FF480AD40F2C333254886F80780FC
:1032B0003360FDF79BFD3F6D39460AF013FA48B3C2
:1032C000204938460AF070F80AF05AFA80B240FAFB
:1032D00008F37072337200230127042603221A496F
:1032E0001A48A772E67222736373A373E37305F03F
:1032F0005FF958E50AF004F8696A06460AF054F8DE
:1033000013490AF051F80AF03BFA80B203126072D6
:1033100023729AE60A48FDF769FD0A490AF044F863
:103320000AF02EFAC0F3072305483372FDF75EFD5D
:1033300004490AF039F80AF023FA7072CBE700BFAB
:103340000C96FF1F00007A447094FF1FA0DDFF1F42
:103350000000204138B5174C174A2368101D12F899
:10336000011F904241EA0323F9D12360134C03F17A
:1033700000432360124BD3F88830022B11D0114B3D
:103380001B68012B00D038BD0F4808F0DDF921681B
:103390000D4808F02DFA03210C48BDE8384007F02D
:1033A00033BF20680A4D09F0ABFF2860FEF778FDB7
:1033B000E5E700BF6CDDFF1F3BDBFF1F0095FF1F34
:1033C00000DCFF1F7CDDFF1FC489FF1F8C21010073
:1033D00064DDFF1F70B51E4A1E4C507A937A216837
:1033E000D27A1D4E1D4D43EA002342EA03230129F0
:1033F00033602B6019D01846194BD3F88830A0F5EC
:103400000000022B28601BD02368012B00D070BD68
:10341000144808F099F92968124808F0E9F90321DD
:103420001148BDE8704007F0EFBE0E4808F08CF977
:103430000023102229680B4808F09AF92868DBE776
:1034400009F05EFF094B1860FEF72AFDDCE700BFBC
:1034500034DBFF1F7CDDFF1F6CDDFF1F0095FF1FAE
:1034600000DCFF1FC489FF1F8C21010064DDFF1FEA
:103470002DE9F041B04DB14EB14882B0294604F07B
:1034800095FFD6F88830022B63D02B68F02B00F024
:10349000A380A3F19A02E52A00F28880A94BAA4CE6
:1034A0001B68012B00F08E800022A349A748FDF77E
:1034B00083FB2B6803F47F63B3F5C07F7CD1A14B02
:1034C0009D491B68A148012B96F8D6307FD0002279
:1034D000FDF750FB2368012B71D19A4B1B68012B20
:1034E0006DD19B4B9B481B6801930A2200230199D5
:1034F00008F03EF92A68904B002ADB79C0F20E8171
:10350000954996480BF0A4F894480BF0D9F8014679
:10351000924807F079FE2C68874B14F0804440F005
:10352000EE80DB798BB12B198D491A7A8B480BF021
:103530008FF88A480BF0C4F80146884807F064FE0B
:103540000134EB79E4B2A342EDD8824808F0FCF8EC
:1035500035E0D6F88C202B68012A00F09080022AF2
:103560000CD140F2C132934203D040F2C2329342B6
:103570008CD1FFF72FFFD6F88C202B68032A85D13A
:1035800040F22252934200F0D08040F22352934204
:1035900040F084802F7B697BEA7AAC7A714801EB3A
:1035A000072101EB024202EB0462026003F47F6335
:1035B000B3F5C07F644C82D02368012B8DD002B05C
:1035C000BDE8F0812268012A7FF46EAF6DE72268C2
:1035D000012A7FF47CAF7BE7634F5D4B3C781B682F
:1035E00000930A22002300995A4801343C7008F0E5
:1035F000BFF82A68504B002ADB7973DB56495748DD
:103600000BF026F855480BF05BF80146534807F0DD
:10361000FBFD2C68484B14F0804454D1DB79B3B1E6
:10362000DFF860814E494D482F193A7A0BF010F8B7
:103630003B7A4A4808F804300BF042F80146474804
:1036400007F0E2FD0134EB79E4B2A342EAD8414845
:10365000464C08F079F804F1080714F8011F3D48BA
:103660000023102208F084F80121414807F0CCFD26
:10367000A742F2D1374808F067F82B6809E740F213
:10368000C132934235D040F2C23293427FF4FEAE53
:10369000FFF760FED6F88C202B6860E740F22152DD
:1036A00093427FF4F3AE2C7B6A7BEB7AA87A3149A4
:1036B00002EB042202EB034303EB00630B60FEF713
:1036C000EFFB2B68E2E62C4F244C0FCF0FC497E89A
:1036D000030044F8040B204620F81419152107F0C4
:1036E00093FDB4E725491D4822F060420AF0B0FF7F
:1036F00088E7FFF76FFED6F88C202B682FE71E4D6A
:10370000164C0FCD0FC495E8030044F8040B204677
:1037100020F81419152107F077FD16E717490F480F
:1037200022F060420AF094FFEEE62F7B697BEA7A92
:10373000AC7A134833E700BF34DBFF1F00DCFF1F08
:10374000A0DDFF1F7CDDFF1F0088FF1F0C96FF1F01
:1037500048DFFF1FC489FF1FB821010058DBFF1F8E
:10376000E421010008DDFF1F44DDFF1F5B94FF1F04
:103770003C1F01000095FF1FCC210100902101009A
:10378000D8DBFF1F5C94FF1F2DE9F04FA24B1B7885
:10379000052B83B000F0AA80A04FA14CA14E3B782E
:1037A000226F3260A04D002B67D0B4F868302B80B8
:1037B0009E48FDF7FDFB216B09F094FF08B1002343
:1037C0002B809A48FDF7F2FBE16A09F0A9FF10B1DE
:1037D000002333602B809548FDF730FBE16809F04A
:1037E0009FFF08B100232B809048FDF727FBE1687D
:1037F00009F096FF08B100232B808C48DFF8208267
:10380000FDF7F4FA216909F06DFF002874D0002358
:1038100033602B88DFF8108213B33B788348804FE6
:10382000002B40F0CB80FDF7C3FBA16B09F05AFFE2
:10383000002840F038817E4B7C481B68784F012B74
:1038400000F09A81FDF7FAFA216A8046A06909F032
:10385000A1FC0146404609F063FF002840F0F681D4
:103860003368704A002BBCBF00231360714A138871
:103870009BB22BB903B0BDE8F08F636E2B8097E746
:10388000674E1288D6F8E030D6F8DC0092B203FB1F
:1038900002F300FB03F009F033FD674909F084FDF2
:1038A00009F06EFF654B84B260481C80FDF782FB17
:1038B000074604EB8400400009F022FD0446B06D89
:1038C00009F01EFD394609F06FFD0146204609F05A
:1038D0001FFE09F055FF2B88594A534980B2834295
:1038E0001080C7D9088003B0BDE8F08F4D4A4E4D17
:1038F000002313602B80B9E74C48FDF777FAD8F81E
:103900001C1009F0EFFE002881D13368DFF814A104
:10391000002B7FF77EAF4548FDF748FBD8F83C10F9
:1039200009F0FEFE002840F08D804048DFF8F0905E
:10393000FDF75CFAD4F8D0108046E06909F02CFC61
:103940000146404609F0CEFE00283FF462AF3068E1
:1039500009F0D6FC83463548FDF748FA0090D9F8BF
:103960007000D9F81C8009F0CBFC009B82464146D0
:10397000184609F00FFC51460090002009F00AFC9F
:10398000009B0146184609F00FFDD9F8D0100090B1
:10399000404609F001FC414609F0FCFB009B014652
:1039A000184609F0B5FD514609F0F6FB01465846A8
:1039B00009F0F0FB09F0BEFE30602AE7FDF7F8FAE7
:1039C000A16B09F08FFE002840F0A180184B17482A
:1039D0001B68134F012B00F0F480FDF72FFA216ACA
:1039E0008046A06909F0D6FB0146404609F098FEE2
:1039F00000283FF435AF288809F082FC81460B4847
:103A0000FDF71CFABC69396A8246204609F0C2FB00
:103A10008046B7F8680028E18C94FF1FFC94FF1FD4
:103A200000DCFF1F68DDFF1F8494FF1F0C96FF1F43
:103A30009894FF1F70DDFF1F0AD7233C56DDFF1F40
:103A40008694FF1FDAF8000009F05AFC8346974875
:103A5000FDF7ACFA0190D8F87000D8F83C9009F066
:103A60004FFC019A00904946104609F093FB009BD9
:103A70000146184609F098FC49460090D8F82C00F9
:103A800009F088FB009B0146184609F041FD002122
:103A900009F082FB0146584609F07CFB09F04AFE1A
:103AA000CAF8000041E7B8F8000009F029FC834695
:103AB0007E48FDF77DFA0090786ED7F830A009F0C7
:103AC0001FFC009B81465146184609F063FB49469E
:103AD0000090002009F05EFB009B0146184609F0AB
:103AE00063FC51460090B86B09F054FB009B014603
:103AF000184609F00DFD494609F04EFB01465846AF
:103B000009F048FB09F03CFEA8F8000093E6B8F87D
:103B1000000009F0F5FB83466448FDF749FA009080
:103B2000B7F86800D7F830A009F0E6FB009B8146A3
:103B30005146184609F02EFB49460090002009F036
:103B400029FB009B0146184609F02EFC51460090C7
:103B5000B86B09F01FFB009B0146184609F0D8FC22
:103B6000494609F019FB0146584609F013FB09F0D4
:103B700007FEA8F8000029E7FDF760F9216A8046F2
:103B8000606A09F007FB0146404609F0C9FD0028BC
:103B90003FF466AE288809F0B3FB82464348FDF740
:103BA0004DF9D7F82480396A8346404609F0F2FA85
:103BB0008146F86E09F0A4FB0446786E09F0A0FB7C
:103BC00024E0FDF73BF9216A8046606A09F0E2FAD9
:103BD0000146404609F0A4FD00283FF441AE288884
:103BE00009F08EFB82463148FDF728F9D7F824808A
:103BF000396A8346404609F0CDFA8146F86E09F0ED
:103C00007FFB0446B7F8680009F076FB214609F00F
:103C1000C1FA49460746584609F0BCFA01463846FB
:103C200009F0C2FB49460746404609F0B3FA01468F
:103C3000384609F06DFC214609F0AEFA01465046BF
:103C400009F0A8FA09F09CFD288009E6288809F007
:103C500057FB81461548FDF7F1F8BC69396A824681
:103C6000204609F097FA8046786EFB6EC01A09F07C
:103C700047FB41460746504609F08CFA0146384654
:103C800009F092FB41460746204609F083FA0146B7
:103C9000384609F03DFC002109F07EFA014648460D
:103CA00009F078FA09F06CFD2880D9E50C96FF1F21
:103CB00008B5274807F048FD0721264807F0A4FA71
:103CC000112005F013FF0621F8B1234807F09CFAF4
:103CD000102005F00BFF062100B3204807F094FAEE
:103CE000122005F003FF062108B31D4807F08CFAE7
:103CF000132005F0FBFE062110BB1A4807F084FADA
:103D00001348BDE8084007F01FBD174807F07CFACC
:103D1000102005F0EBFE06210028DED1134807F045
:103D200073FA122005F0E2FE06210028DDD11048CA
:103D300007F06AFA132005F0D9FE06210028DCD02E
:103D40000C4807F061FA0248BDE8084007F0FCBCE7
:103D5000C489FF1FF0210100F821010008220100A1
:103D6000182201003022010000220100102201006F
:103D7000202201002822010010B5254C2368042BC5
:103D800027DC01210B2005F0ABFE01210C2005F002
:103D9000A7FE0121142005F0A3FE0121152005F046
:103DA0009FFEFF21162005F01BFDFF21172005F0C7
:103DB00017FDFF21052005F013FDFF21062005F06A
:103DC0000FFD236801330A2B2360C4BF0023236047
:103DD00010BD00210B2005F083FE00210C2005F012
:103DE0007FFE0021142005F07BFE0021152005F048
:103DF00077FE0021162005F0F3FC0021172005F0C6
:103E0000EFFC0021052005F0EBFC0021D6E700BF08
:103E100050DDFF1F30B5092183B0AE4806F0BEF972
:103E2000222006F049F9AC4BD3F8B430012BAB4B50
:103E30001B7809D0052B10D8DFE813F02D013201D3
:103E40003C01410137010B00002B00F03D81052BA7
:103E500003D10721A24806F0A1F9222006F02CF98F
:103E6000FF2006F029F9FF2006F026F99D4CFF20DF
:103E700006F022F908219C4806F090F921689B4839
:103E800007F0B6FCFF2006F017F9FF2006F014F942
:103E9000FF2006F011F90921954806F07FF9216805
:103EA000924807F0A5FCFF2006F006F9FF2006F077
:103EB00003F9FF2006F000F90C218E4806F06EF998
:103EC0008D4B8E49186809F023FB08F0C3FD0024D0
:103ED00002460B460094854807F092FCFF2006F04E
:103EE000EBF8FF2006F0E8F8FF2006F0E5F80921DE
:103EF000834806F053F98348FCF7F2FF08F0AAFD67
:103F0000009402460B46794807F07AFCFF2006F041
:103F1000D3F8FF2006F0D0F8FF2006F0CDF80C21F2
:103F2000794806F03BF97748FDF742F808F092FD32
:103F3000009402460B466D4807F062FCFF2006F035
:103F4000BBF8FF2006F0B8F8FF2006F0B5F80D2109
:103F50006E4806F023F96B48FDF728F808F07AFD63
:103F6000009402460B46614807F04AFCFF2006F029
:103F7000A3F8FF2006F0A0F8FF2006F09DF8092125
:103F8000634806F00BF95F48FCF77EFF614909F0D2
:103F90000BFA08F05FFD009402460B46534807F009
:103FA0002FFCFF2006F088F8FF2006F085F8FF20A0
:103FB00006F082F80C21584806F0F0F85148FCF75A
:103FC00015FF564909F0F0F908F044FD0094024647
:103FD0000B46464807F014FCFF2006F06DF8FF2062
:103FE00006F06AF8FF2006F067F80D214C4806F04D
:103FF000D5F84448FCF722FF484909F0D5F908F004
:1040000029FD009402460B46384807F0F9FBFF20D3
:1040100006F052F8FF2006F04FF8FF2006F04CF8AB
:104020000921404806F0BAF83F4B3048196807F0BC
:10403000DFFBFF2006F040F8FF2006F03DF8FF20F0
:1040400006F03AF80E21394806F0A8F82D48FCF79A
:10405000F5FE05462B48FCF7C9FE0146284609F047
:1040600099F82E4909F0A0F908F0F4FC00940246F2
:104070000B461E4807F0C4FBFF2006F01DF8FF208A
:1040800006F01AF8FF2006F017F8FF2003B0BDE88D
:10409000304006F011B80621254806F07FF8DCE62E
:1040A0000721244806F07AF8D7E60B21224806F0CB
:1040B00075F8D2E60721214806F070F8CDE6082110
:1040C0001F4806F06BF8C8E608211E4806F066F89F
:1040D000C3E600BF3822010000DCFF1F8C94FF1FE5
:1040E000041F01000C88FF1F502201009889FF1F48
:1040F0005C22010068220100E4DBFF1F0000C842CF
:10410000782201000C96FF1F8422010094220100F6
:10411000A422010000002041B022010000007A44E6
:10412000C0220100D02201002088FF1FDC220100F4
:10413000D41E0100DC1E0100E41E0100F01E01007F
:10414000F81E0100442201002DE9F0418D4DD5F803
:10415000C430042B3ED0032B6ED0012B00F098808E
:10416000022B01D0BDE8F081874C8848237240F2D1
:104170000E32012321462260E37104F019FA844BC8
:104180001B885B00FF2BC8BFFF23042140224FF494
:1041900041702060E17122726372A86D09F0B0F87D
:1041A000A96909F001F97B49054609F0B9FA002827
:1041B00000F0DE802946284608F0EEFF09F0E0FA1C
:1041C00080B20312E072A3726F497048BDE8F041FB
:1041D00004F0EEB96C4C704AA379226043F00103FD
:1041E0000822E271A371A86D09F08AF8A96909F0A3
:1041F000DBF86A4909F0D8F809F0C2FA644B684A5A
:104200001B88126893FBF2F380B200261A12071281
:10421000607221465D48E372A2722772267366734C
:10422000A673E67304F0C4F9A279D5F8C43066F336
:104230000002032BA27190D1534CA86DA3720122EE
:10424000E823072140F2FF26227263722660E171A3
:1042500009F056F8A96909F0A7F8504909F0A4F83F
:1042600009F08EFA4A4B4E4A1B88126893FBF2F310
:1042700082B21E121712214644486373E2722773FA
:10428000A67304F095F9D5F8C430012B7FF468AF1C
:10429000444B3D4C1B682360072280231020E271B1
:1042A000237205F023FC002869D13F4B1B68384F6F
:1042B000DFF8EC80A86D344E03EB83035B001A1229
:1042C000A37262723B88D8F8002093FBF2F31A12B3
:1042D0006273A37309F014F8A96909F065F8334B08
:1042E000196808F057FF2D4909F05EF809F048FAFF
:1042F00080B20312314620732448E37204F058F967
:10430000022005F029FC2A4B1B682360072280232A
:104310001020E271237205F0E9FB70BB224B1B6891
:10432000A86D03EB83035B001A127272B37208F07C
:10433000E7FFA96909F038F81E4B196808F02AFF51
:10434000164909F031F809F01BFA82B21612D8F8B2
:1043500000003B88227393FBF0F30B490B48A373D7
:104360001A12E672627304F023F9D5F8C430F7E646
:1043700001229023A272E37226E70F4BCFE70E4B88
:1043800094E700BF00DCFF1F7094FF1FA0DDFF1F3C
:104390008494FF1F00004843F4E506180000204104
:1043A0000888FF1F4488FF1F0488FF1F8094FF1F99
:1043B0004888FF1F54DBFF1F1888FF1F70B5036874
:1043C000C57984B0012D8DF805304FEA13230E46D0
:1043D0008DF8043005F1010201A909DD07300D4413
:1043E0000DF1050310F8014F03F8014FAB42F9D16D
:1043F000034B04489B5D03F0AFFB04B070BD00BFEE
:10440000F43001000C95FF1FF0B40D4B0D489C7962
:104410000822FF27CD26A225DA710022B0216FF3F2
:1044200000041F729E72DD725A721A735A739A7365
:10443000DA7319609C711946F0BC04F0B9B800BF7A
:104440007094FF1FA0DDFF1F2DE9F043604D2B7816
:10445000062B83B06ED05F4B5F4E1B78DFF8A881D0
:10446000002B45D02B785D4C5D4F43F08003082135
:1044700000222360E1713A60C72210232272637226
:1044800098F8003055490022022BA272E2720BD834
:1044900033784A734FEA03134FF02002DBB20A73FA
:1044A0000DD104338B730BE03B68012B0CBF482309
:1044B00040230B73337801221B01DBB26273A373B9
:1044C00029784648FFF77AFFE073022005F044FBA5
:1044D0004249444804F06CF82B78434801332B7070
:1044E000FCF700FB08B1FFF78FFF03B0BDE8F083D6
:1044F0003B4F2B78396843F08003384C0822012960
:104500002360E271B8D13848FCF770FC374908F0F5
:104510004BFF09F035F9431D33482372FCF766FC65
:10452000324908F041FF09F02BF980B20530001242
:104530006072A5E7284EDFF8D080337898F8002025
:104540000133032ADBB298BF01324FF0000198BF5C
:1045500088F800200F2B3370297002D01D4B1B7878
:104560007EE7234F234C3B680093009A2168002389
:104570009142337015D2204BDFF858901A6801230E
:104580009A4289F8003012D01C4A39680191B2F879
:10459000B010019A3C314FF47A7000FB0122226086
:1045A0005EE70C4A0E4F137039688023A5E7144864
:1045B00007F0CAF81321134806F026FE104807F04A
:1045C000C3F80F4807F0C0F899F80030DCE700BFE7
:1045D00078DDFF1F5CDDFF1F54DDFF1F7094FF1FA0
:1045E00004DDFF1FA0DDFF1F0C96FF1F00007A44B3
:1045F00048DFFF1F3CDDFF1F0088FF1F00DCFF1F9F
:10460000C489FF1FEC220100FCDBFF1F2DE9F843EA
:104610001E4C00264FF0A009A3791C4F1C4866725F
:10462000FF256FF30003A12239464FF00808A3715C
:104630002272C4F80090013684F80780A572E572F2
:1046400025736573A573E57303F0B2FF022005F0CF
:1046500083FA0F2E4FF0A003DED1BA790D4E3B60E6
:104660003724002363F3000287F807807D72BD7250
:10467000FD723D737D73BD73FD7333703C723946BB
:10468000BA710348BDE8F84303F092BF7094FF1F6E
:10469000A0DDFF1F44DDFF1F2DE9F0418C4C8D4D47
:1046A00082B006F04BFD23682860042B00F01283D3
:1046B000022B4BD0082B00F09380072B40F0308169
:1046C000332801F0CF8600F3A583312801F0B486AA
:1046D000322840F0CB8106F06DFD002840F31E81AA
:1046E0007D487E4E07F0C6F908F00AFE7C4908F0C6
:1046F0005BFE61230122706422602B601846A0F1EA
:1047000052031F2B00F2B281DFE813F07A0EB001E2
:10471000B001B001B001B001B001B001B001B00111
:10472000B001B001B001B001B001D803F00F5D05D8
:10473000FA05C804B001B001B0014B04B001F30F99
:10474000B001B001B001B001B0017F0EA0F13103A2
:10475000422B00F28B81DFE813F0CD07DB07E9077E
:10476000FB071E082D083A084408890189018901C0
:1047700089018901890189018901890189018901E9
:1047800089018901890189018901890189018901D9
:1047900089018901890189018901890189018901C9
:1047A00089018901890189018901890189018901B9
:1047B00089018901890189018901890189010E081D
:1047C0008901890189018901890189018901890199
:1047D000890189018901890189014E008901140833
:1047E000322800F04B8340F32883342800F05C83A8
:1047F000712840F03B810022732322602B602368E4
:10480000002B40F03681374E334806F09DFF0421DF
:10481000354806F0F9FC304806F096FF1021334881
:1048200006F0F2FC2C4806F08FFF1321304806F00A
:10483000EBFC304B2848196806F0DAFF264806F0F2
:1048400083FF14212C4806F0DFFC234806F07CFF90
:104850001E212A4806F0D8FC1F4806F075FF1521D6
:10486000274806F0D1FC1C4806F06EFF1E212548A3
:1048700006F0CAFC184806F067FF2021224806F01F
:10488000C3FC154806F060FF1921204806F0BCFC67
:10489000114806F059FF12211D4806F0B5FC0E48DC
:1048A00006F052FF0F211B4806F0AEFC0A4806F046
:1048B0004BFF0D21184806F0A7FC074806F044FFFF
:1048C000002201233260236002B0BDE8F08100BF06
:1048D00088DDFF1F30DBFF1FC489FF1F00DCFF1FC7
:1048E0006F12833A0088FF1F4C27010054270100F4
:1048F000682701002088FF1F7C2701009427010002
:10490000B4270100CC270100EC270100102801008A
:104910002C28010040280100502801002368286845
:10492000062B40F0AB80A0F13103402B00F29E80BB
:1049300001A252F823F000BF8D580000B9580000C2
:10494000095900002F590000555900007359000003
:104950006D4A0000FD5700001B5800006D4A000022
:104960006D4A00006D4A00006D4A00006D4A00006B
:104970006D4A00006D4A00006D4A00006D4A00005B
:104980006D4A00006D4A00006D4A00006D4A00004B
:104990006D4A00006D4A00006D4A00006D4A00003B
:1049A0006D4A00006D4A00006D4A00006D4A00002B
:1049B0006D4A00006D4A00006D4A00006D4A00001B
:1049C0006D4A00006D4A00006D4A00006D4A00000B
:1049D0006D4A00006D4A00006D4A00006D4A0000FB
:1049E0006D4A00006D4A00006D4A00006D4A0000EB
:1049F0006D4A00006D4A00004158000069580000EF
:104A0000E55800006D4A00006D4A00006D4A000044
:104A10006D4A00006D4A00006D4A00006D4A0000BA
:104A20006D4A00006D4A00006D4A00006D4A0000AA
:104A30006D4A00006D4A0000F747000006F0BAFB1F
:104A4000002841F3F284F048F04E07F013F80127F4
:104A5000034601466222EE48F36527602A60FCF7B0
:104A600017FA23682868012B3FF449AE73283FF4F6
:104A7000C6AE02B0BDE8F08123682868052B40F07F
:104A80008B80A0F13103402BF0D801A252F823F023
:104A90009554000089550000A9550000C955000033
:104AA00089560000A55600006D4A00006D4A0000BE
:104AB0006D4A00006D4A00006D4A00006D4A00001A
:104AC0006D4A00006D4A00006D4A00006D4A00000A
:104AD0006D4A00006D4A00006D4A00006D4A0000FA
:104AE0006D4A00006D4A00006D4A00006D4A0000EA
:104AF0006D4A00006D4A00006D4A00006D4A0000DA
:104B00006D4A00006D4A00006D4A00006D4A0000C9
:104B10006D4A00006D4A00006D4A00006D4A0000B9
:104B20006D4A00006D4A00006D4A00006D4A0000A9
:104B30006D4A00006D4A00006D4A00006D4A000099
:104B40006D4A00006D4A00006D4A00006D4A000089
:104B50006D4A00006D4A00006D4A00006D4A000079
:104B60006D4A00006D4A00006D4A00006D4A000069
:104B70006D4A00006D4A00006D4A00006D4A000059
:104B80006D4A00006D4A00006D4A00006D4A000049
:104B9000BF56000023682868032B7FF464AFA0F1A0
:104BA0003003482B3FF662AF01A252F823F000BF5A
:104BB0003D4A00000B600000336000005B600000B5
:104BC0007D6000009F600000C7600000EF60000093
:104BD0000D610000316100006D4A00006D4A000067
:104BE0006D4A00006D4A00006D4A00006D4A0000E9
:104BF0006D4A00006D4A00006D4A00006D4A0000D9
:104C00006D4A00006D4A00006D4A00006D4A0000C8
:104C10006D4A00006D4A00006D4A00006D4A0000B8
:104C20006D4A00006D4A00006D4A00006D4A0000A8
:104C30006D4A00006D4A00006D4A00006D4A000098
:104C40006D4A00006D4A00006D4A00006D4A000088
:104C50006D4A00006D4A00006D4A00006D4A000078
:104C60006D4A00006D4A00006D4A00006D4A000068
:104C70006D4A0000596100007761000095610000F5
:104C8000B36100000162000021620000A35A00002D
:104C9000C75A00006D4A0000ED5A0000E35F0000B3
:104CA0006D4A00006D4A00006D4A00006D4A000028
:104CB0006D4A0000F7470000776200006D4A00006F
:104CC0006D4A00006D4A00006D4A00006D4A000008
:104CD00097620000A0F13103482B3FF6C7AE01A256
:104CE00052F823F0455A0000495A00004D5A00007E
:104CF0006D5A0000875A0000715A0000835A000064
:104D0000AD590000C55900006D4A00006D4A000011
:104D10006D4A00006D4A00006D4A00006D4A0000B7
:104D20006D4A00006D4A00006D4A00006D4A0000A7
:104D30006D4A00006D4A00006D4A00006D4A000097
:104D40006D4A00006D4A00006D4A00006D4A000087
:104D50006D4A00006D4A00006D4A00006D4A000077
:104D60006D4A00006D4A00006D4A00006D4A000067
:104D70006D4A00006D4A00006D4A00006D4A000057
:104D80006D4A00006D4A00006D4A00006D4A000047
:104D90006D4A00006D4A00006D4A00006D4A000037
:104DA0006D4A00006D4A0000F35900006D4A000092
:104DB0006D4A00006D4A00006D4A00006D4A000017
:104DC0006D4A00006D4A00006D4A00006D4A000007
:104DD0006D4A00006D4A00006D4A00006D4A0000F7
:104DE0006D4A0000F74700000D5A00006D4A0000B0
:104DF0006D4A00006D4A00006D4A00006D4A0000D7
:104E00001D5A00002D5A0000C489FF1F00DCFF1F3F
:104E10000C96FF1F34287FF4EBAC06F0CBF900288A
:104E20007FF77CAD8A488B4E06F024FE6123012279
:104E3000B08622602B60184661E431287FF416AEFC
:104E400006F0B8F9002840F350848148814E06F0FE
:104E500011FEC0B286F84800022894BF0146002126
:104E6000B6F9D830F26C7C4888BF86F84810FCF759
:104E700011F8012369202360286040E406F09AF9C4
:104E8000002816DD7248734E06F0F4FD08F038FA7B
:104E9000724908F089FA07460246B6F9D83096F802
:104EA00048106D48F764E2E706F084F9002800F343
:104EB0000E842368286800E406F040F906F07AF9C9
:104EC00005460028F8D16248624E06F03DFC604875
:104ED00006F03AFC5E4806F037FC5D4806F034FC0C
:104EE0005B4806F031FC1F215D4806F08DF95848FB
:104EF00006F02AFC1C215B4806F086F9B06A5A4984
:104F000008F052FA07F0A6FD009502460B465048FD
:104F100006F076FC0221554806F076F94C4806F07A
:104F200013FC2321524806F06FF9706C4E4908F0CB
:104F30003BFA07F08FFD009502460B46444806F009
:104F40005FFC0221494806F05FF9414806F0FCFB8E
:104F50001921484806F058F9306C07F07BFD02250E
:104F60000B46024600953A4806F04AFC294642485C
:104F700006F04AF9364806F0E7FB22213F4806F0E2
:104F800043F9B18E324806F033FC03213C4806F069
:104F90003BF92F4806F0D8FB0723236069E506F0AC
:104FA000CDF806F007F905460028F8D12848294E23
:104FB00006F0CAFB264806F0C7FB254806F0C4FBEE
:104FC000234806F0C1FB224806F0BEFB15212D4800
:104FD00006F01AF91E4806F0B7FB18212A4806F019
:104FE00013F92B460A2296F84810194806F0C0FB20
:104FF000174806F0A9FB2821244806F005F9F06CB3
:10500000194908F0D1F907F025FD00950B46024635
:105010000F4806F0F5FB0221144806F0F5F80C489D
:1050200006F092FB18211A4806F0EEF8B6F9D810EF
:10503000074806F0DDFB064806F086FB13211548FD
:1050400006F0E2F8024806F07FFB0823236010E533
:10505000C489FF1F00DCFF1F0C96FF1F6F12833AED
:1050600098250100B825010000007A446C23010056
:10507000D8250100FC250100242501001826010087
:105080003C260100142801002423010040230100D4
:10509000702301008C23010006F050F806F08AF816
:1050A00005460028F8D18148814E06F04DFB7F4827
:1050B00006F04AFB7D4806F047FB7C4806F044FBBF
:1050C0007A4806F041FB11217A4806F09DF87748AE
:1050D00006F03AFB2821784806F096F8B06977493F
:1050E00008F062F907F0B6FC009502460B466F48DF
:1050F00006F086FB0221724806F086F86B4806F03F
:1051000023FB16216F4806F07FF8306A6B4908F0E0
:105110004BF907F09FFC00950B460246634806F0EA
:105120006FFB0221664806F06FF8604806F00CFB42
:10513000D6F8C430002B32DD1D21634806F064F838
:10514000706E08F0DDF8614908F02EF907F082FC76
:10515000022502460B460095544806F051FB0121FA
:105160005B4806F051F8514806F0EEFA1F21594805
:1051700006F04AF8F06E08F0C3F8544908F014F944
:1051800007F068FC009502460B46484806F038FBDD
:1051900001214F4806F038F8444806F0D5FA1121AD
:1051A0004D4806F031F8D6F8C430062B01F2828063
:1051B000DFE813F01C092109170912090D09080974
:1051C0007C0805F0BBFF05F0F5FF0028F9D1374852
:1051D000374E06F0B9FA354806F0B6FA334806F00D
:1051E000B3FA324806F0B0FA304806F0ADFA1F21A3
:1051F0003A4806F009F82D4806F0A6FA1E2138486C
:1052000006F002F8294806F09FFA1A21354805F001
:10521000FBFFD6F88830022B01F00982032B01F046
:10522000FD81012B01F00C8209212F4805F0ECFFD4
:105230001E4806F089FA14212C481D4D05F0E4FFA4
:10524000D6F88410194806F0D3FA184806F07CFA0C
:105250001C21274805F0D8FFD6F89010134806F017
:10526000C7FA124806F070FA1C21224805F0CCFF5C
:10527000D6F8C0100D4806F0BBFA0C4806F064FAE8
:10528000D6F8883023F00202012A01F04781022B70
:1052900001F0FA811321184805F0B6FF034806F023
:1052A00053FA02232360FFF7E4BB00BFC489FF1F4A
:1052B00000DCFF1FB8270100A023010000007A4492
:1052C0006C230100CC230100E4230100CDCCCC3DB4
:1052D000F82A01000424010024240100B829010057
:1052E000D8290100F8290100702A01007C2A010058
:1052F000942A0100B42A01008C23010005F01EFF4E
:1053000005F058FF05460028F8D1BA48BA4E06F015
:105310001BFAB84806F018FAB64806F015FAB54870
:1053200006F012FAB34806F00FFA1321B34805F05D
:105330006BFFB04806F008FA0D21B14805F064FF94
:10534000AC4806F001FA0F21AE4805F05DFFAE4B08
:10535000A848196806F04CFAA64806F0F5F913219A
:10536000AA4805F051FFAA4BA248196806F040FA76
:10537000A04806F0E9F91221A64805F045FFA64B22
:105380009C48196806F034FA9A4806F0DDF91121B4
:10539000A24805F039FFA24B9648196806F028FA92
:1053A000944806F0D1F90E219E4805F02DFFD6F85D
:1053B000B410904806F01CFA8E4806F0C5F9192181
:1053C000994805F021FF994B8A48196806F010FAB0
:1053D000884806F0B9F91121954805F015FF954B5D
:1053E0008448196806F004FA824806F0ADF91021E5
:1053F000914805F009FF914B7E48196806F0F8F9CD
:105400007C4806F0A1F91C218D4805F0FDFE8D4B6E
:105410007848196806F0ECF9764806F095F91621F7
:10542000894805F0F1FEB6F8B010724806F0E0F9D0
:105430001E21864805F0E8FE6E4806F085F90C212D
:10544000834805F0E1FE834B6A4819780A222B460F
:1054500006F08EF9674806F077F910217E4805F0CE
:10546000D3FE29467D4805F0CFFE624806F06CF970
:1054700017217B4805F0C8FE5E4806F065F9132148
:10548000784805F0C1FE5B4806F05EF9042323600E
:10549000FFF7EFBA05F08EFE00287FF77BAB55488B
:1054A000554E06F0E7FA01226B23C6F894002260FD
:1054B0002B6001E005F042FE05F07CFE0028F9D1EA
:1054C0004C484D4D06F040F94A4806F03DF9494830
:1054D00006F03AF9474806F037F9464806F034F93D
:1054E0002121614805F090FE424806F02DF9152172
:1054F0005E4805F089FED6F894103E4806F078F92B
:1055000002215B4805F080FE3A4806F01DF91E2195
:10551000584805F079FED6F89C10364806F068F930
:105520000321554805F070FE324806F00DF91E21A2
:10553000524805F069FED6F898102E4806F058F942
:105540002C4806F001F91D214D4805F05DFED6F806
:10555000B810284806F04CF9264806F0F5F81E2148
:10556000484805F051FED6F8BC10224806F040F934
:10557000204806F0E9F8D6F8B430012B01F0978006
:1055800005232360FFF775BA05F014FE00287FF7A6
:1055900001AB1848184E06F06DFA01226B23C6F8CD
:1055A0009C0022602B6087E705F004FE00287FF74F
:1055B000F1AA1048104E06F05DFA01226B23C6F8DE
:1055C000980022602B6077E705F0F4FD00287FF754
:1055D000E1AA0848084E06F04DFA164BC6F8B80086
:1055E00002221A60FCF73AF901226B2322602B6039
:1055F00062E700BFC489FF1F00DCFF1F60280100B5
:1056000074280100842801007CDDFF1F942801001C
:1056100030DDFF1FA828010038DDFF1FBC28010076
:10562000F4DBFF1FD0280100E02801006494FF1F75
:10563000FC2801008894FF1F10290100F0DBFF1FE8
:10564000242901001C88FF1F442901005C29010056
:105650007C290100E8DBFF1F8C2901005820010094
:10566000A02901008C2301004026010064260100CE
:10567000B82401007C260100382001009C2601008E
:10568000BC260100DC26010005F094FD00287FF710
:1056900081AAC148C14E06F0EDF9C14BC6F8BC0065
:1056A00003229EE7BD4E96F8D530B3FA83F35B092B
:1056B00001216B2286F8D53021602A60FCE6B849CA
:1056C000002373220B6023602A60FFF798B8B2486A
:1056D000B24E06F0CFF907B23B46F26C96F848108E
:1056E000B048A6F8D870FFF7C2BBAC4E96F8480099
:1056F000FFF7B2BBA94ED6F88430B3FA83F35B0947
:1057000001226320C6F8843022602860FEF7F7BFCC
:10571000A24ED6F89030B3FA83F35B0901226320DE
:10572000C6F8903022602860FEF7E9BF01232360AD
:1057300005F040FD002805DD9748984E06F09AF9DF
:10574000C6F8C0000123632023602860FEF7D7BF9E
:105750000123236005F02EFD002807DD8E488F4EC3
:1057600006F088F907F0CCFDC6F8A4006320286095
:105770002368FEF7A2BFFDF755F923682868FEF7F6
:1057800099BF864AD2F888300133032BC8BF002363
:10579000C2F88830D6E70123236005F00BFD00280E
:1057A000E4DD7D487D4E06F065F907F0A9FDC6F8F9
:1057B000A000DBE70123236005F0FCFC0028D5DD19
:1057C0007548764E06F056F9A6F8CE00CEE7734A35
:1057D000D2F88C300133042BC8BF0123C2F88C30BF
:1057E000B0E70123236005F0E5FC0028AADD6A4844
:1057F0006A4E06F03FF9C6F8A800A3E7674B93F896
:10580000D420002A00F0418600210122652083F87F
:10581000D41022602860FEF772BF05F0CBFC002890
:105820007FF72AA95C485D4E06F024F907F068FD71
:1058300065230122B06322602B601846FEF75FBF2C
:1058400005F0B8FC00287FF717A95348534E06F01F
:1058500011F900EB8000430001226520A6F86830B2
:1058600022602860FEF74BBF05F0A4FC00287FF7FC
:1058700003A94948494E06F0FDF865230122C6F800
:10588000DC0022602B601846FEF739BF05F092FC61
:1058900000287FF7F1A84048404E06F0EBF807F0EB
:1058A0002FFD414907F034FE65230122B0612260DB
:1058B0002B601846FEF723BF05F07CFC00287FF71D
:1058C000DBA83548354E06F0D5F807F019FD364906
:1058D00007F01EFE65230122306222602B6018460D
:1058E000FEF70DBF05F066FC00287FF7C5A82A4823
:1058F0002A4E06F0BFF865230122C6F8E0002260B8
:105900002B601846FEF7FBBE05F054FC00287FF71D
:10591000B3A82148214E06F0ADF800EB800043000B
:1059200001226520736622602860FEF7E8BE05F05C
:1059300041FC00287FF7A0A81748184E06F09AF8F7
:1059400000EB8000430001226520F366226028609E
:10595000FEF7D5BE114AD2F8C4300133062BC8BFBA
:105960000023C2F8C4306520012323602860FEF7BD
:10597000C6BE05F01FFC00287FF77EA80648074E2C
:1059800006F078F865230122C6F8C80022602B6073
:105990001846FEF7B4BE00BFC489FF1F00DCFF1F1E
:1059A0008894FF1F0C96FF1F00007A44584A136822
:1059B000B3FA83F35B09012164201360216028603E
:1059C000FEF79DBE0123236005F0F4FB002800F3E1
:1059D0001686504B1A68042A01DD02221A606423DD
:1059E0002B602368082B4FF064007EF466AEFEF750
:1059F000F7BE0123236005F0DDFB0028EFDD4648FC
:105A0000464E06F037F8A6F8B000E8E70123236019
:105A1000FEF7FAFC64232B602368E3E7012323608D
:105A2000FEF7F4FD64232B602368DBE7012323608A
:105A300005F0C0FB0028D2DD374806F01BF8384BD4
:105A40001870CCE7374AB2E7374AB0E7374A384FE1
:105A50001368002B0CBF012100214FF001031160DE
:105A6000236040F0F68564222A60BBE7314A9EE756
:105A7000012331482360FBF751F8304A2368106056
:105A8000F1E72F4A93E7254ED6F8B430B3FA83F303
:105A90005B0901226420C6F8B43022602860FEF75A
:105AA0002EBE05F087FB00280DDD1B481B4E05F0C0
:105AB000E1FF07F025FC234907F02AFD01226223BC
:105AC000706222602B6005F075FB00280EDD124825
:105AD000124E05F0CFFF07F013FC1A4907F018FD2E
