:1000000000800020BD010000CD8800008588000030
:1000100085880000858800008588000085880000AC
:10002000858800008588000085880000CD88000054
:10003000CD8800008588000091A9000095AA0000E5
:10004000CD880000CD880000CD880000CD8800005C
:10005000CD880000CD880000CD880000CD8800004C
:10006000CD880000CD880000CD880000CD8800003C
:10007000CD880000CD880000CD880000CD8800002C
:10008000CD880000CD880000CD880000CD8800001C
:10009000CD880000CD880000CD880000CD8800000C
:1000A000CD880000CD880000CD880000CD880000FC
:1000B000CD880000B57D0000C17D0000C57D000039
:1000C000D17D0000D57D0000D97D0000CD880000E5
:1000D000CD880000CD880000CD880000CD880000CC
:1000E000CD880000CD880000CD880000CD880000BC
:1000F000CD8800009DB10000CD8800006D95000006
:10010000CD88000039970000CD880000CD88000020
:10011000CD880000CD880000CD880000CD8800008B
:10012000CD880000CD880000CD880000CD8800007B
:10013000CD880000CD880000CD880000CD8800006B
:10014000CD880000CD880000CD880000CD8800005B
:10015000CD880000CD880000CD880000CD8800004B
:10016000CD880000C5990000CD880000CD88000032
:10017000CD880000CD880000CD880000CD8800002B
:10018000CD880000CD880000CD880000CD8800001B
:10019000CD880000CD880000CD880000CD8800000B
:1001A000CD880000CD880000CD880000CD880000FB
:1001B000CD880000CD880000CD880000564B4CF261
:1001C000205210B51A804DF628121A8000BF00BFC9
:1001D00008F080FB514B4FF010621A60504A9A6051
:1001E000504ADA60504A136813F4807304D14F49BF
:1001F0000B604FF4A85313604D4B1A78110703D5C9
:100200001A7842F008021A704A4B4B492A221A7097
:100210004A4A4B4B8B4204D252F8040F43F8040B6A
:10022000F8E7484B484900228B4202D243F8042B9E
:10023000FAE74649464A002352F8230041F82300D2
:1002400001336F2BF8D1434B434A802103F8011B44
:100250009342FBD1414B3D4A1A60414B8A221A70AE
:10026000A3F5805324225A70A0221A709A7992071B
:10027000FCD59A79D406FCD43A4A937903F00C035E
:10028000082B384BF9D103221A7140225A719A79FE
:100290009006FCD5334A9179324B4906FBD5324A58
:1002A000324911600221516020221A709A7902F0BD
:1002B0000C020C2AFAD12E4B2E4A1A602E4B2F4AD2
:1002C0001A6000225A60072243F8042C2C4AC3F813
:1002D0000C2D62B608F0B4FD144B1B68DA0705D587
:1002E000284808F091FB284B284A1A60284B1B78B5
:1002F0005B0609D5244C254B22689A4204D121483B
:1003000008F082FB002323600CF030FA08F0E8FAD2
:100310000AF004FEFEE700BF0E20054030800440D6
:10032000823F04000100002B10D0034014D0034092
:1003300002D0074000E007403092FF1FAC240100CC
:100340002087FF1F3092FF1FF4DFFF1F0082FF1F77
:100350000000000000E400E05FE400E008ED00E0E1
:100360000050064000400640448004400000030165
:1003700004800440C010050014E000E0FF76010096
:10038000000020207142FA5E1CE00340A5C3945A8D
:1003900000F00740FFFFFFFFFFFFFFFFFFFFFFFF32
:1003A000FFFFFFFFFFFFFFFFFFFFFFFFFFFFFFFF5D
:1003B000FFFFFFFFFFFFFFFFFFFFFFFFFFFFFFFF4D
:1003C000FFFFFFFFFFFFFFFFFFFFFFFFFFFFFFFF3D
:1003D000FFFFFFFFFFFFFFFFFFFFFFFFFFFFFFFF2D
:1003E000FFFFFFFFFFFFFFFFFFFFFFFFFFFFFFFF1D
:1003F000FFFFFFFFFFFFFFFFFFFFFFFFFFFFFFFF0D
:10040000FFFFFFFFFFFFFFFFFFFFFFFFDEF9FFFF23
:1004100010B5054C237833B9044B13B10448AFF33E
:1004200000800123237010BD3092FF1F00000000E8
:10043000A8240100084B10B51BB108490848AFF3C8
:1004400000800848036803B910BD074B002BFBD0A0
:10045000BDE81040184700BF000000003492FF1FA5
:10046000A82401003092FF1F00000000F0B400F14A
:100470003C06174F00243146031F00F17C0243F86D
:10048000044FB34241F8047F4FF0000542F8044F97
:10049000F5D100230F4A1049C0F8C050C0F8C4502D
:1004A000C0F8C850C0F8CC50C0F8D050C0F8E050E8
:1004B000C0F8D420C0F8DC20C0F8D81080F8E830AC
:1004C00080F8E93080F80031C0F80C31F0BC70479A
:1004D0000000A040000048430000C8C22DE9F041E0
:1004E0008046CE1D00F1C00400F1D00716F8010FC0
:1004F00028380BF0D5FE094944F8040F05460CF0E6
:10050000DFF838B1B8F914010BF0CAFE29460BF038
:1005100013FE2060BC42E9D1BDE8F081000020C29A
:100520002DE9F043814683B006290ED8DFE811F0AB
:100530004E0007005D009000C500FA003800D9F8B1
:10054000081111B9002B00F02281D9F8004009F1FF
:100550004006C84609F18005002701E058F8044F1D
:10056000306821460CF0ACF80137214628B1D9F8A3
:10057000E4000CF091F800B13460214628680CF0DA
:1005800081F80436984920B120460CF099F800B162
:100590002C60102F05F10405E0D103B0BDE8F08315
:1005A000D9F808110029D0D1002BCED1537A107A76
:1005B00003F03F0300EB03200BF072FE8B490BF0BE
:1005C00077FFD9F80040C9F83C00C0E7557A117AA6
:1005D000937AD07AD9F8004001EB052202EB03436D
:1005E00003EB0063C9F80C31B1E7D9F80811002911
:1005F000ABD1002BA9D1537A107A019203F03F03BB
:1006000000EB03200BF04CFE78490BF051FF019AF0
:10061000C9F80C00D37A907A03F03F0300EB032073
:100620000BF03EFE71490BF043FF019AC9F8100030
:10063000537B107B03F03F0300EB03200BF030FEF5
:100640006A490BF035FFD9F80040C9F814007EE77D
:10065000D9F8081100297FF478AF002B7FF475AF2B
:10066000537A107A019203F03F0300EB03200BF062
:1006700017FE5E490BF01CFF019AC9F81800D37AE7
:10068000907A03F03F0300EB03200BF009FE57497B
:100690000BF00EFF019AC9F81C00537B107B03F08E
:1006A0003F0300EB03200BF0FBFD50490BF000FF74
:1006B000D9F80040C9F8200049E7D9F80811002905
:1006C0007FF443AF002B7FF440AF537A107A01924E
:1006D00003F03F0300EB03200BF0E2FD43490BF076
:1006E000E7FE019AC9F82400D37A907A03F03F0319
:1006F00000EB03200BF0D4FD3C490BF0D9FE019A2E
:10070000C9F82800537B107B03F03F0300EB032064
:100710000BF0C6FD35490BF0CBFED9F80040C9F807
:100720002C0014E7D9F8081100297FF40EAF002B34
:100730007FF40BAF537A107A019203F03F0300EB82
:1007400003200BF0ADFD29490BF0B2FE019AC9F868
:100750003000D37A907A03F03F0300EB03200BF0D4
:100760009FFD22490BF0A4FE019AC9F83400537B87
:10077000107B03F03F0300EB03200BF091FD1B49BE
:100780000BF096FED9F80040C9F83800DFE6537A3E
:10079000107A019203F03F0300EB03200BF080FD81
:1007A00012490BF085FE019AC9F80000D37A04467D
:1007B000907A03F03F0300EB03200BF071FD0B492F
:1007C0000BF076FE019AC9F80400537B107B03F00E
:1007D0003F0300EB03200BF063FD04490BF068FEC0
:1007E000C9F80800B3E600BF0000A04000007A444A
:1007F00090F8F000704700BF90F8EC00704700BF21
:1008000090F8F400704700BF90F8F800704700BF00
:10081000102994BF50F82100002070472DE9F041C5
:100820000B4E8046041F00F12C0754F8045F31463C
:1008300028460BF027FF30B1D8F8E41028460BF01B
:100840003FFF00B12E46BC42EFD13046BDE8F081FB
:10085000000020412DE9F041D0F8E4704FF000088D
:10086000041F00F13C0654F8045F394628460BF09B
:1008700027FF084948B128460BF004FF414620B144
:1008800028460BF01DFF00B1A846B442EBD140460C
:10089000BDE8F0810000A0402DE9F047D0F8E470F9
:1008A00082464FF00009041F00F13C064FF000089B
:1008B00054F8045F394628460BF002FF0C4950B14A
:1008C00028460BF0DFFE30B1484629460BF034FCD9
:1008D00008F101088146B442EAD1CAF804814046D1
:1008E0000BF0DEFC014648460BF0E2FDBDE8F08768
:1008F0000000A040D0F80401704700BFD0F8080104
:10090000704700BF38B5D0F8C850D0F8C440294669
:1009100020460BF0B7FE00B92C46204638BD00BF7C
:1009200038B5D0F8C850D0F8C440294620460BF05E
:10093000C7FE00B92C46204638BD00BF70B5D0F8C0
:10094000C4401249054620460BF0BAFED0B12046FD
:1009500000210BF0F1FB01240646D5F8C8500B49E5
:1009600028460BF0ADFE28B1304629460BF0E4FBDB
:100970000134064620460BF093FC014630460BF04E
:1009800097FD70BD00260446E7E700BF000020C2C7
:100990002DE9F8434FF00008D0F8E470C0F8C080AB
:1009A0008146041F00F13C0654F8045F394628468E
:1009B0000BF086FE084950B128460BF063FE30B1BB
:1009C000404629460BF0B8FB8046C9F8C000B44247
:1009D000EAD14046BDE8F8830000A04003299ABF51
:1009E00000EB8100D0F8C400002070473E2998BF7A
:1009F00080F80011704700BFD0F80C01704700BFAD
:100A000090F8E800704700BF90F8E900704700BF19
:100A1000C0F8FC10704700BF80F8E810704700BFB6
:100A200080F8E910704700BFC0F8E410704700BFBD
:100A3000A0F81411704700BF70B500F58A4506464E
:100A4000143500F12C04204604F58C74FFF70EFDDC
:100A5000AC42F8D106F5A275012428460021FFF723
:100A6000DBFF214628460134FFF7C0FF3F2C05F588
:100A70008C75F2D144F21C5400250548054A064BFA
:100A8000355500217061B161F2613362304670BD4D
:100A900000007A44000048430000C8C270B500F569
:100AA0008A46143600F5A274002508E00125204688
:100AB000002104F58C74FFF7B3FFB4420AD020463E
:100AC000FFF79EFF0028F2D02046FFF79DFF002889
:100AD000ECD170BD284670BD70B500F5B0560C362F
:100AE00000F5A27403E004F58C74B4420CD02046E7
:100AF000FFF786FF05460028F5D02046FFF77CFF6C
:100B0000C307F0D5284670BD0025284670BD00BF3C
:100B10002DE9F04144F2205300F58A463746002281
:100B20008046C2501436203700F5A27403E004F565
:100B30008C74B4420ED02046FFF762FF0028F6D036
:100B400020463D68FFF7D6FE04F58C742844B44275
:100B50003860F0D144F2205358F80300BDE8F0812A
:100B600044F21853C058704738B50C6804F00F04AD
:100B70004FF48C75013405FB04002C3015461A46E1
:100B8000FFF7ACFC012D00D038BD06480AF030F864
:100B9000214604480AF07CF80B210348BDE83840A0
:100BA00009F090BDD487FF1F18090100F0B50D684A
:100BB00005F00F0405F0F005402D83B00F46064602
:100BC00004F1010446D01FDD602D3DD0702D37D0DB
:100BD000502D3BD00D2C01D8062D1DDD4FF48C730C
:100BE00003FB04642C3420460121FFF715FF204647
:100BF0000121FFF715FF337820463A46294603B016
:100C0000BDE8F040FFF78CBC202D21D0302D19D04D
:100C1000002DDFD10D2CE1D8012ADFD121460E486D
:100C200001920AF035F8019A0C48114609F04AFD84
:100C3000294609480AF02CF8074809F0D9FFCDE702
:100C40000625E7E70225E5E70525E3E70425E1E7D3
:100C50000125DFE70325DDE7D487FF1F2409010015
:100C60002DE9F043002383B00646436000F5A274EB
:100C7000012504E001353F2D04F58C7466D0204633
:100C8000FFF7BEFE0028F5D04E4806F013FB2946BC
:100C90004D4806F00FFB2046FFF77AFE0AF0AAFE49
:100CA00002460B46494806F005FB2046FFF7B6FD15
:100CB00080462046FFF7CEFD074640460AF09AFEE2
:100CC0008046384689460AF095FE42464B46CDE9B5
:100CD00000013F4806F0EEFA00212046FFF77EFEB5
:100CE000012180462046FFF779FE074640460AF07C
:100CF00081FE8046384689460AF07CFE42464B46D5
:100D0000CDE90001334806F0D5FA2046FFF740FE52
:100D1000014670680BF010FA70602046FFF7F2FD94
:100D2000F1690BF0AFFC002833D12046FFF7F8FD46
:100D3000316A0BF0C5FC00289CD02046FFF7F0FD7F
:100D400001353F2D306204F58C7498D1B0680BF0FA
:100D5000A7FA014670680BF0ABFBB16970600446FE
:100D60000BF0AEFC00B1B461716920460BF08AFC57
:100D700000B174610B2007F0DFFF44F21C53F35CF9
:100D800060B99BB144F21C530122F25403B0BDE898
:100D9000F0832046FFF7B6FDF061C6E753B944F291
:100DA0001C530022F25403B0BDE8F0830A4806F059
:100DB000AFFAE7E7094806F095FA44F21C5300221F
:100DC000F254F0E7581001002809010064090100FD
:100DD00078090100A4090100C0090100F809010017
:100DE00070B5124BC36000F58A450646143500F510
:100DF000A27403E004F58C74AC4214D02046FFF7D3
:100E0000FFFD0028F6D02046FFF708FDF1680BF043
:100E100039FC0028EED02046FFF700FD04F58C7465
:100E2000AC42F060EAD1F06870BD00BF0000A040A5
:100E300070B5002300F58A4506460361143500F5B8
:100E4000A27403E004F58C74AC4214D02046FFF782
:100E5000D7FD0028F6D02046FFF7FCFC31690BF0E7
:100E60002FFC0028EED02046FFF7F4FC04F58C742C
:100E7000AC423061EAD1306970BD00BF4068704754
:100E800001707047816070472DE9F04100F58A4597
:100E9000884617461EB2143500F5A27403E004F527
:100EA0008C74AC4214D02046FFF7AAFD0028F6D07F
:100EB00020464146FFF7ACFD20463946FFF7B4FD1A
:100EC0002046314604F58C74FFF7B2FDAC42EAD1FE
:100ED000BDE8F0812DE9F84344F2185300F58A4546
:100EE0000027C7502E462B4A2B4B826280464FF07C
:100EF000000943621435183600F5A27403E004F5C6
:100F00008C74A54214D02046FFF77AFD0028F6D055
:100F10003368013333602046FFF710FD1F490BF0A3
:100F2000CFFB90B904F58C74A54207F10107EAD113
:100F300044F2185358F80300C01B0BF0B1F90146F6
:100F400048460BF0B5FABDE8F8832046FFF7F6FCFB
:100F5000014648460BF0F0F881462046FFF7E0FCDA
:100F6000D8F824100BF0ACFB70B92046FFF7CAFC90
:100F7000D8F828100BF086FB0028C0D02046FFF7D9
:100F8000C1FCC8F82800BAE72046FFF7C9FCC8F83A
:100F90002400EAE700C0794400C079C400008CC294
:100FA000406A7047806A7047F8B500F58A45074681
:100FB0000026143500F5A27403E004F58C74AC42ED
:100FC00010D02046FFF71CFD0028F6D02046FFF782
:100FD00063FC014630460BF0AFF804F58C74AC426C
:100FE0000646EED144F21853F8580BF059F9014671
:100FF00030460BF05DFAF8BD2DE9F04F06468FB094
:1010000086488B4606F0FEF8844806F0FBF88348D5
:1010100006F0F8F844F218533046F2580D92FFF7F4
:1010200077FDB3680C93074670680AF0E3FC8046CE
:1010300030468946FFF7B8FF82463046F468356986
:10104000FFF748FF0AF0D6FCCDE90A012146284601
:101050000BF070F872490BF077F90AF0CBFCCDE990
:10106000080128460AF0C6FCCDE9060120460AF030
:10107000C1FCCDE9040150460AF0BCFC0D9A0C9B62
:10108000CDE90201CDE90089114666483A4606F0ED
:10109000B9F8624806F0B6F806F5A2764FF00109F5
:1010A0004FF0000A07E009F10109B9F13F0F06F519
:1010B0008C7600F0AB803046FFF7A2FC0028F2D01F
:1010C0003046FFF795FB3046FFF796FB3046FFF7BB
:1010D00097FB3046FFF798FB0821534809F0F2FAD6
:1010E0004946524809F0D4FDB9F1090F40F3918007
:1010F00002214F4809F0E6FA3046FFF749FC0AF0B2
:1011000079FC5FFA8BF802460B46CDF80080474821
:1011100009F0C6FD0121474809F0D4FA55460024DC
:1011200020E00621444809F0CDFA29463F4809F05D
:10113000AFFD0221414809F0C5FA21463046FFF7CC
:1011400067FB0AF057FCCDF8008002460B46374893
:1011500009F0A6FD01340121364809F0B3FA102C3C
:1011600009D03D46092D05F10107DADC012134489B
:1011700009F0A8FAD5E72D4809F03AFD09213148D0
:1011800009F0A0FA00213046FFF728FC0AF032FCF3
:10119000022502460B460095244809F081FD0A21EC
:1011A000294809F08FFA01213046FFF717FC0AF0B1
:1011B00021FC009502460B461C4809F071FD0C21EC
:1011C000224809F07FFA3046FFF716FC002322463A
:1011D0000146164809F01CFD08211D4809F072FA65
:1011E0003046FFF78BFB2246014600230F4809F0EB
:1011F0000FFD09F101090D4809F0FAFCB9F13F0FA3
:101200000AF1100A06F58C767FF455AF0FB0BDE8F1
:10121000F08F01210A4809F055FA69E758100100DA
:1012200000007A44A80C0100480D0100D487FF1F7C
:1012300060120100540D0100580D0100040F01005F
:10124000140F0100600D01006C0D0100780D01000C
:10125000880D01002DE9F04F85B000F5A2758A4692
:1012600003929B462E464FF0010806E008F1010864
:10127000B8F13F0F06F58C767BD03046FFF7C0FB08
:101280000028F3D000230A2251467D4809F0C0FC13
:1012900001217C4809F016FA03980AF0ABFB002301
:1012A0000246009376480B4609F0FAFC0121754886
:1012B00009F008FA5946724809F0EAFC0121714820
:1012C00009F000FA41466E4809F0E2FC01216D4840
:1012D00009F0F8F900244FF0020921463046FFF7E3
:1012E00097FA0AF087FBCDF8009002460B46644857
:1012F00009F0D6FC01340121624809F0E3F9082C19
:101300004FF00207E9D100213046FFF767FB0AF0F2
:1013100071FB009702460B46594809F0C1FC0121B8
:10132000584809F0CFF901213046FFF757FB0AF082
:1013300061FB009702460B46514809F0B1FC0121C0
:10134000504809F0BFF939463046FFF747FB0AF02D
:1013500051FB009702460B46494809F0A1FC08F1F1
:101360000108474809F044FCB8F13F0F06F58C76B8
:1013700083D101274FF0000904E001373F2F05F525
:101380008C7579D02846FFF73BFB0028F5D0002369
:101390000A2251463C4809F03BFC0121394807F03C
:1013A000E1FF03980AF026FBCDF8009002460B46B9
:1013B000354809F075FC0121324807F0D3FF594642
:1013C000314809F065FC01212E4807F0CBFF394672
:1013D0002D4809F05DFC01212A4807F0C3FF0024D5
:1013E0004FF0020821462846FFF712FA0AF002FBE6
:1013F000CDF8008002460B46234809F051FC013429
:101400000121204807F0AEFF082C4FF00206E9D179
:1014100000212846FFF7E2FA0AF0ECFA00960246AD
:101420000B46194809F03CFC0121164807F09AFFC9
:1014300001212846FFF7D2FA0AF0DCFA00960246AC
:101440000B46114809F02CFC01210E4807F08AFFD9
:1014500031462846FFF7C2FA0AF0CCFA0096024657
:101460000B46094809F01CFC0137074809F0C0FB8E
:101470003F2F05F58C7585D105B0BDE8F08F00BF15
:10148000D487FF1F24090100C487FF1F0A4A0B49A4
:10149000106ED36D03FB00F34FF47A7000FB03F082
:1014A000642310B50B600AF0FBFE0549054C0AF0F9
:1014B000FFFF206010BD00BFDCD9FF1F3087FF1F7A
:1014C000E4388E3E04DBFF1F38B5044608460D465F
:1014D0000BF036FF2368024629465B682046984792
:1014E0000546204609F084FB284438BD2DE9F0412B
:1014F0004548464E464F474C05F084FE464B47490B
:10150000474A4848596011251D70474D4749DA60E0
:101510001E6100224FF4FA769F619C62444F454C55
:101520001D63454DD861D9624FF07C5043499A63A1
:101530009E863C220C26DF631C64414F414C5D6556
:10154000414DD864196502200121A3F8A4209E65AD
:10155000002264265F62C3F8C4404FF496773224B9
:101560001D625D615D6440F61C45587058721972C9
:10157000D96583F848201E66DF665F669C664FF07B
:101580000A081D6741F2040CC3F88020C3F88400E8
:10159000C3F88820C3F89040C3F8AC404FF05A0E0F
:1015A000C3F8A820C3F8B410C3F8B8004FF47A7792
:1015B000C3F8BC6083F8C810244E83F8C910244DCA
:1015C00083F8CA2041F28831A3F8CC20FF2440F2EE
:1015D000D6620520C3F87480C3F878C0C3F87CE0F5
:1015E000C3F89470C3F89860C3F89C50C3F8B04037
:1015F000A3F8C200C3F88C10A3F8C010A3F8A02071
:10160000A3F8A220BDE8F081940D01000000404045
:1016100033338340CDCCCC3DDCD9FF1F20A1070064
:1016200066668640CDCC4C40000020C1000082425E
:10163000000020420000A0400AD7233D9A9979403B
:10164000333373409A99993ECDCC4C3E00006842AA
:1016500000C02044F0B5002185B0112007F07AFBCE
:101660000021102007F076FB0021122007F072FB0A
:101670000021132007F06EFB01210B2007F06AFB0D
:1016800001210C2007F066FB0121142007F062FB0A
:101690000121152007F05EFB0121162007F05AFBFF
:1016A0000121172007F056FB0121052007F052FB0E
:1016B000974C984D0121062007F04CFB01210D208D
:1016C00007F048FB20880AF0E7FD0146162007F0E6
:1016D000ABFA20880AF0E0FD0146172007F0A4FAD3
:1016E00020880AF0D9FD0146052007F09DFA2088E0
:1016F0000AF0D2FD00240146062007F095FA009476
:101700002346854A8549864805F0FCFFE6B2324605
:101710008049834805F0A4FF2B797E4980486FF308
:101720000003013432462B7105F090FF082CEDD1F7
:101730000924E6B232467749794805F091FF2B79C2
:101740007449774843F00103013432462B7105F0A8
:101750007DFF0D2CEDD1734C23681021D3F884004C
:1017600006F0A2FC23681021D3F8840006F030FDB7
:1017700023680221D3F8840006F0ECFB23680221E1
:10178000D3F8840006F074FD23680F21D3F8840099
:1017900006F05CFE0C21644808F094FF634809F0F1
:1017A00027FA1121624808F08DFF604809F020FAFD
:1017B00040F2836007F0B4FB5C4809F019FA172186
:1017C0005C4808F07FFF594809F012FA5A4B1B7821
:1017D0009A0600F1D580584B1B781B0700F1DC807E
:1017E000554B1B785F0700F1E380534B1B789E0736
:1017F00000F1EA80514B1B781D0600F1F1804F4B40
:101800001B785C0600F1F8804C4B1B78980600F1C1
:10181000FF804A4B1B78590700F10681474B1B7824
:101820001A0700F10D81454B1B789B0700F11481CD
:101830003E4809F0DDF972B6414A4CF220534DF6AC
:1018400028112024138023461180013BFDD13D4DFA
:101850003D483E4900234FF480562E8003800B8084
:1018600032F80E3C9BB243F0D30322F80E3C62B632
:101870009D2007F001FF21463548364D08F022FF34
:101880002A4809F0B5F905F1D0062F462C46601B11
:1018900006F066FF04F8010BB442F8D13B78112B37
:1018A00001D0FFF723FE042005F000FC2A4B2B4853
:1018B0002B4D00221A6005F0CBFB01210D2007F013
:1018C00035FAF96D2748FFF7DDFAB7F9CC30FA6C35
:1018D00097F848102348FFF7D7FA2348234B0468AA
:1018E00003941B682249234A039E006802901268F1
:1018F000214C2E6081FB0301DB172048A3EB211351
:101900000299216013FB02F3038005B0F0BD00BF14
:101910003487FF1FB4DAFF1FF0DCFF1F20A1070090
:1019200054DBFF1F34DBFF1FB40D0100D487FF1F02
:10193000C40D0100D80D010001F0074000F0074080
:101940000E200540042005400620054016200540D5
:10195000DC0E0100DCD9FF1F8492FF1FFC92FF1FE9
:1019600034D9FF1FFC93FF1FFCDCFF1F5487FF1FB0
:101970001F85EB515087FF1F3CD9FF1FECDAFF1F7B
:101980002121394808F09EFE384809F031F9384BDA
:101990001B781B077FF524AF0C21364808F092FE18
:1019A000324809F025F9324B1B785F077FF51DAFF0
:1019B0000E21314808F086FE2C4809F019F92C4B0D
:1019C0001B789E077FF516AF17212C4808F07AFE8A
:1019D000264809F00DF92A4B1B781D067FF50FAF3D
:1019E0000E21284808F06EFE204809F001F9244B2A
:1019F0001B785C067FF508AF1221234808F062FED1
:101A00001A4809F0F5F81E4B1B7898067FF501AFD0
:101A100013211E4808F056FE144809F0E9F8184B47
:101A20001B7859077FF5FAAE1C21194808F04AFEC9
:101A30000E4809F0DDF8124B1B781A077FF5F3AE5C
:101A40001921144808F03EFE084809F0D1F80C4B63
:101A50001B789B077FF5ECAE18210F4808F032FE8B
:101A6000024809F0C5F8E3E6F00D0100D487FF1F36
:101A700001F00740140E0100240E0100340E010095
:101A800000F007404C0E01005C0E0100700E0100DA
:101A9000840E0100A40E0100C00E010070B5464C7A
:101AA000464D4748E66800232B70FFF7C1F9014611
:101AB00030460AF0E7FD08B104232B704048FFF7D9
:101AC0008FF921690AF0DEFD18B12B7843F010037D
:101AD0002B703B48FFF764FAE16A0AF0F1FD18B198
:101AE0002B7843F040032B70002335486B70FFF7D1
:101AF00059FA216B314E0AF0C5FD08B1012373700C
:101B000000232F48EB70FFF793F905462C482B4E26
:101B1000FFF766F9014628460AF00CFB616C0AF0F3
:101B2000CFFD08B10123F370264D254800232B700B
:101B3000FFF77EF9A16A0646E0680AF0FBFA014663
:101B400030460AF0BDFD08B104232B701C48FFF796
:101B500047F9A16A064620690AF0EEFA01463046C6
:101B60000AF090FD18B12B7843F010032B70144845
:101B7000FFF716FA216C0646E06A0AF0DBFA014626
:101B800030460AF09DFD18B12B7843F040032B70CE
:101B900000230B486B70FFF705FA216C0546206B9C
:101BA000084C0AF0C9FA014628460AF06BFD08B154
:101BB0000123637070BD00BFDCD9FF1FC4D9FF1FB4
:101BC000FC93FF1F5092FF1F514B1B68002B74D0DA
:101BD000F0B5504D2B680533B3F57A7F83B040F3F1
:101BE0008E80002300272B604B4CD4F8AC000AF009
:101BF00057FB0646D4F8B0000AF052FB31460AF013
:101C000099FA39460AF0A0FB44490AF051FC3146E2
:101C10000AF092FA0AF05EFD0146062006F006FF81
:101C200002213F4808F04EFD3E4808F0E1FF062142
:101C30003D4808F047FD28680AF032FB3B490AF0AE
:101C400083FB09F0D7FE022602460B460096354874
:101C500009F026F80D21364808F034FDD4F8AC0020
:101C60000AF01EFB074628680AF01AFB2F490AF003
:101C70006BFB0546D4F8B0000AF012FB39460AF0B7
:101C800059FA014628460AF05FFB24490AF010FC85
:101C900039460AF051FA09F0ADFE009602460B46AD
:101CA000204808F0FDFF31461D4808F00BFD1D4897
:101CB00003B0BDE8F04008F09BBF174B1D4AD3F8B6
:101CC000AC10D3F8B03012685B1A632B0BDD1A48E6
:101CD00003FB02F380FB0302DB17C3EB621319441F
:101CE000062006F0A3BE154803FB022380FB030277
:101CF000DB17C3EB22121144062006F097BE1846EC
:101D00002B600AF0CDFA09490AF01EFB07466BE783
:101D10008092FF1FACDAFF1FDCD9FF1F0000C84212
:101D200060120100D487FF1F000F0100CDCCCC3D15
:101D3000080F01003087FF1F1F85EB51CBF08D2866
:101D400030B5B448B44C85B008F052FFB14808F043
:101D50004FFFB04808F04CFF0D21B04808F0B2FC2E
:101D6000D4F8A830012B11D0AD4CAA48217800231B
:101D70000A2208F04DFF2378052B67D8DFE813F01F
:101D8000310136013B01400145012C010921A548E3
:101D900008F098FCA448FFF723F821690AF072FCC8
:101DA00018B10F21A14808F08DFC9F48FFF740F8BB
:101DB000E1680AF085FC18B10E219D4808F082FC0C
:101DC0009948FFF735F805469748FFF709F80146A7
:101DD00028460AF0AFF9616C0AF072FC18B11121C3
:101DE000944808F06FFC9048FFF774F8E16A0AF035
:101DF00067FC18B10C21904808F064FC8A48FFF792
:101E000069F8216B0AF03EFC18B10D218B4808F0EF
:101E100059FC8B4B84481B68012B00F07481FEF742
:101E2000DFFF21697C4D0AF04BFC78B17E48FEF75C
:101E3000FFFFE9680AF026FC40B1794B1B78052BBF
:101E400000F0728108217F4808F03CFC02217E48A6
:101E500008F038FC122006F06FFF012800F01E8108
:101E6000112006F069FF012800F02281774B1C68E1
:101E7000012C00F0268102217348754C08F022FCE9
:101E8000744B6448196808F003FF624808F0B0FE1C
:101E90000421714808F016FC0B2006F04DFF0023CA
:101EA00001460A225B4808F0B3FE0C2006F044FF0E
:101EB000002301460A22574808F0AAFE142006F023
:101EC0003BFF002301460A22524808F0A1FE1520DC
:101ED00006F032FF0A22002301464E4808F098FE21
:101EE00006215E4808F0EEFB2368DD074FF0010194
:101EF0004CBF5B485B4808F0E5FB236898074FF050
:101F000001014CBF5648574808F0DCFB23685A07CC
:101F10004FF001014CBF5248524808F0D3FB2368F0
:101F20001B074CBF4E484F48012108F0CBFB042152
:101F30004D4808F0C7FB112006F0FEFE00230146C5
:101F40000A22344808F064FE102006F0F5FE002353
:101F500001460A222F4808F05BFE122006F0ECFE34
:101F6000002301460A222B4808F052FE132006F0F7
:101F7000E3FE0A2200230146264808F049FE182104
:101F80003A4808F09FFB3A4B18680AF089F939493A
:101F90000AF0DAF909F02EFD002402460B460094FF
:101FA0001C4808F07DFE1D21334808F08BFB334BA5
:101FB00018680AF075F92F490AF0C6F909F01AFDF8
:101FC000009402460B46134808F06AFE02212C4892
:101FD00008F078FB05B030BD07212A4808F072FBF5
:101FE00034E70621284808F06DFB2FE70721274832
:101FF00008F068FB2AE70721254808F063FB25E77E
:102000000821244808F05EFB20E70B21224808F055
:1020100059FB1BE7D487FF1FDCD9FF1F180F0100F6
:10202000D0D9FF1F280F0100FC93FF1F340F0100C0
:10203000440F0100540F0100680F0100780F0100E8
:102040008C92FF1FAC0F010060120100C8DAFF1F65
:1020500024DBFF1F5C92FF1F241001002C100100E5
:1020600034100100BC1E01003810010040100100B6
:102070007C92FF1FCDCCCC3D5C1001001CDBFF1F10
:102080007C100100E80F0100B80F0100C00F010033
:10209000D40F0100DC0F0100C80F01000E212548FC
:1020A00008F010FB112006F047FE01287FF4DEAE99
:1020B0000A21214808F006FB204B1C68012C7FF404
:1020C000DAAE11211E4808F0FDFA21461D4808F03D
:1020D000F9FA1D4B1D4A1B680393039B1068C01A35
:1020E0000AF0DAF81A490AF02FF909F083FC002502
:1020F00002460B460095174808F0D2FD21461148CC
:1021000008F0E0FAB7E6FEF76BFE616A0AF0D8FA6B
:1021100000283FF497AE16210F4808F0D3FA0A21A1
:102120000E4808F0CFFA91E60A210C4808F0CAFAE6
:102130008CE600BFF00F010000100100C8DAFF1F9D
:102140000C10010020100100FCDCFF1FF8DAFF1F5B
:102150006F12833AD487FF1F880F0100A00F010080
:102160002DE9F04F904C914FD4F88430012B8DB075
:1021700000F04281032B52D08D4E8E4DD4F880302A
:102180008D48012B09BF2968296801F100412960A8
:1021900006F0D8F93368002B40F0C680864806F078
:1021A000A7F9D4F884303860012B064600F0C980C6
:1021B00082490AF085FA78B9814930460AF062FA14
:1021C00050B9804A804B12680B920B9A1A60002318
:1021D0002B600DB0BDE8F08FDFF8E8817A4CD8F8BD
:1021E00000300A930A982368784FC01A0AF054F80E
:1021F00031460AF0A9F876490AF05AF974490AF00A
:1022000057F9396809F098FFD8F800300993099B0D
:102210002360002338602B600DB0BDE8F08FDFF83D
:10222000D0816C4DD8F80000614E012300220F21AF
:102230002B6005F007FE2B68012B336800F0FA8055
:10224000002B40F07E81D8F80030DFF8A891D3F859
:102250008400436B19698DB2C9F8005005F078FE0F
:10226000B4F8A22040F6E44303FB05F1B1FBF0F023
:10227000801A00B20AF014F857494E4D8246D4F83D
:1022800098000AF061F8014650460AF011F9D9F8B1
:1022900000302860632BDFF85CA100F34581002348
:1022A0002B603368002B3FF469AF02214B4808F0E4
:1022B00009FAD8F80030D9F80020D3F8840040F6A5
:1022C000E44303FB02F805F043FEB8FBF0F009F02D
:1022D000E3FF8046B4F8A20009F0E2FF0146404661
:1022E00009F028FF09F086FB4FF0020802460B4672
:1022F000CDF800803A4808F0D3FC4146374808F052
:10230000E1F9286809F076FBCDF8008002460B461B
:10231000334808F0C5FC4146324808F0D3F941463D
:102320002E4808F0CFF929E7234806F0E1F809F034
:1023300061FB022602460B460096294808F0B0FCD5
:102340002CE7244B1B68012B00F03481022B7FF417
:102350003EAF25490AF0B4F930B9244930460AF0B5
:1023600091F9002800F05581DFF85880164CD8F814
:102370000030079307982368144FC01A09F08CFFA8
:10238000314609F0E1FF12490AF092F810490AF0CB
:102390008FF8396809F0D0FED8F800300693069B14
:1023A0003860236013E700BFDCD9FF1FC8D9FF1FC7
:1023B000C0D9FF1F18DBFF1FCCDAFF1F0000FA4354
:1023C0000000FAC3FCDCFF1F5892FF1F04DBFF1F55
:1023D00000007A444887FF1F17B7D1386012010008
:1023E000D487FF1FBC10010000C82F4800A08CC676
:1023F00034DBFF1F40DBFF1F3D68A84928460AF079
:1024000041F930B12846A6490AF05AF900287FF46C
:1024100006AFDFF8CC82A34DD8F80000A24E02230D
:1024200000220E212B6005F00DFD2B68012B336877
:102430007FF406AF002B40F0F380D8F80030DFF8CF
:10244000B092D3F88400436B19691FFA81FBC9F875
:1024500000B005F07DFDB4F8A030944D40F6E44A9C
:102460000AFB0BFBBBFBF0F0C01A00B209F018FF2F
:102470008F498346D4F89C0009F066FF0146584610
:102480000AF016F8D8F80020D9F800302860D2F801
:1024900084000AFB03FA05F05BFDB4F8A030BAFB38
:1024A000F0F00FFA80FAC3EB0A03002BB4F8C22055
:1024B000B8BF5B429342BCBF00232B603368002B44
:1024C0003FF45CAE02217B4808F0FCF8D8F80030FD
:1024D000D9F80020D3F8840040F6E44303FB02F867
:1024E00005F036FDB4F8A010B8FBF0F000B2411AC8
:1024F000714808F0CDFB02216E4808F0E3F8286827
:1025000009F078FA4FF0020802460B46CDF8008039
:10251000694808F0C5FB0321684808F0D3F8414634
:10252000644808F0CFF829E6D8F80030D3F88400E2
:1025300005F00EFDDAF8003064389842FFF4AFAED3
:10254000AFE65D48DFF8A891DFF894A108F050FBF2
:102550000C215B4808F0B6F80C215A4808F0B2F894
:10256000D8F800203368D2F88400426B11698DB22C
:10257000C9F80050002B3FF471AE05F0E9FC40F6BD
:10258000E44100230A2201FB05F1B1FBF0F14A48C6
:1025900008F03EFB0221474808F094F8B4F8A21076
:1025A000454808F075FBDAF80030D9F80050D3F848
:1025B000840053E644490AF083F858B94349304649
:1025C0000AF060F830B9424A424B12680592059A07
:1025D0001A60FCE5DFF8F8803E4CD8F80030049330
:1025E000049823683C4FC01A09F056FE314609F0A2
:1025F000ABFE3A4909F05CFF384909F059FF3968E8
:1026000009F09AFDD8F800300393039B38602360EB
:10261000DDE52F4A2F4B12680892089A1A60D6E51A
:102620002548DFF8CC902E4D08F0E2FAD4F884303B
:10263000012B4FF00B010CBF2A482B4808F042F841
:102640000C21204808F03EF8D8F800203368D2F872
:102650008400426B11691FFA81FBC9F800B0002B9E
:102660003FF4F7AE05F074FC40F6E44100230A2283
:1026700001FB0BF1B1FBF0F10F4808F0C9FA0121A1
:102680001A4808F01FF8B4F8A0100B4808F000FB37
:102690002B68D9F800B0D3F88400DAE600709446CD
:1026A000007094C64887FF1FC0D9FF1F18DBFF1FAB
:1026B00017B7D13860120100D487FF1FA81001009E
:1026C000AC100100981001000000FA430000FAC3AA
:1026D000FCDCFF1F5892FF1F04DBFF1F00007A4441
:1026E00034DBFF1F801001008C100100140F01006B
:1026F00040DBFF1F2DE9F04F9B4D2B6885B0002B71
:102700007CD09A4CDFF86C82994FDFF8B092D4F805
:102710008830964E012B00F08C80D7F800A0D6F8B8
:1027200060B0F56D934E05FB0BF54FF47A7000FB2E
:1027300005F009F0B5FD90490546504609F004FE44
:10274000294609F0B5FE8D4909F0FEFD09F0C2FFEA
:102750006328C8F800004CDD2846874909F0A8FE28
:10276000642338603360D9F80030002B3ED0D4F8B1
:1027700084307E4D012B00F08A80032B00F0E28034
:10278000022B00F0E68002217D4807F09BFF7D4B85
:10279000186809F02FF9022402460B4600947A4883
:1027A00008F07EFA2146794807F08CFF21467448EC
:1027B00007F088FFD8F80010734808F069FA06217E
:1027C000734807F07FFF38686B4909F0BDFD09F0D9
:1027D00011F9009402460B466B4808F061FA032198
:1027E0006C4807F06FFF684808F002FA05B0BDE8D2
:1027F000F08F0028BCBF00233360B4E7664E5B4C0B
:1028000033680293029A42F228339A424CD83368D2
:102810000393039A42F210739A424ED8D4F8883048
:10282000DFF85081524FDFF89491504E012B7FF426
:1028300074AF5A48FEF7B8FB5949D6F870A0756FC7
:1028400009F082FD09F06CFFB26FF36FD4F860B04D
:10285000CAEB02025B1B80B29A42CAEB0000C6BF01
:1028600003FB00000132584390FBF2F02844E56D71
:1028700000FB0BF005FB00F000EB8000400009F0CE
:102880000FFD3D4909F014FE824638604AE7454B8A
:102890001B68012B4FF00A010CBF4348434807F067
:1028A00011FFD5F8843068E73C48B4F9CC30E26CCD
:1028B00094F84810FEF7E8FAA9E73848FEF774FBE9
:1028C0003749276F666F09F03FFD09F029FFA26FB6
:1028D000E36FD21B9B1B80B29A42A0EB07003DDD49
:1028E00003FB0000531C90FBF3F31E44206EE36DCA
:1028F000DFF88080DFF8C490C8F8006000FB06F0C5
:1029000003FB00F000EB8000400009F0C9FC1A490D
:10291000174F09F0CDFDD9F80030386001222A6048
:10292000002B3FF4F4AE0221154807F0CBFE164809
:1029300008F05EF959211E4807F0C4FE124808F05D
:1029400057F9E4E610211B4807F0BCFED4F88430A8
:1029500016E70721184807F0B5FE14E703FB00F35C
:1029600093FBF2F31E44C1E7BCDAFF1FDCD9FF1F63
:1029700004DBFF1F3087FF1FE4388E3E0000C84293
:1029800060120100C8D9FF1FD487FF1FBC100100CF
:102990005011010058110100FCDCFF1FFC93FF1FC8
:1029A00000007A444887FF1F1C1101002811010014
:1029B000C010010034110100481101002487FF1FDD
:1029C00030B5112083B006F0B7F9012818D01220D5
:1029D00006F0B2F9012813D000210B2006F0A6F969
:1029E00000210C2006F0A2F90021152006F09EF926
:1029F0002649274B0120002208701A6003B030BD21
:102A00000121152006F092F9224A234C234B12682B
:102A1000D4F88C1001921B68019A1D4D0B4493420F
:102A20004FF00201296005D901210C2006F07EF942
:102A300003B030BDD4F8940009F032FC184B19688B
:102A400009F020FE0028EFD101210B2006F06EF9DD
:102A500094F8C83003242C6043B10C4B02221A7046
:102A600000210C2006F062F903B030BD122006F000
:102A700063F9012808BF054B4FF0110008BF1C7017
:102A800006F05AF90128EBD1E7E700BFD0D9FF1FC4
:102A9000F892FF1FFCDCFF1FDCD9FF1F34D9FF1F9A
:102AA000C8D9FF1FF0B5684E684D34682B689C424A
:102AB00087B039D014F0010155D014F0020149D08B
:102AC00014F004013DD0E3070ED52B68DF070BD4CB
:102AD0005F4F3A68002A00F082805E4B1B680193CA
:102AE000019B93426DD83468A0070DD52B689907D8
:102AF0000AD4594F3A68002A4CD0564B1B680393AE
:102B0000039B934238D8346862070DD52B685B0766
:102B10000BD4524F3A68002A7ED04E4B1B68059367
:102B2000059B934268D834680CB107B0F0BD2146CC
:102B3000162005F07BFF2146172005F077FF07B030
:102B4000F0BD052005F072FF2B68346803F0FB032D
:102B50002B60B8E7172005F069FF2B68346803F095
:102B6000FD032B60ACE7162005F060FF2B6834688E
:102B700003F0FE032B60A0E7394B1720D3F8901029
:102B800005F054FF2B68346843F0020300222B60E9
:102B90003A60B9E7334808F02BF80C21324807F0C7
:102BA00091FD304808F024F8FF21172005F03EFF82
:102BB000284B2E4A19680291029912680A443A6019
:102BC0009CE7274B1620D3F8901005F02FFF2B68B9
:102BD000346843F0010300222B603A6084E7FF2150
:102BE000162005F023FF1B4B204A1968009100991D
:102BF00012680A443A6071E7194B0520D3F8901027
:102C000005F014FF2B68346843F0040300222B60A6
:102C10003A60002C89D18AE7124807F0E9FF0C21BD
:102C2000134807F04FFD0F4807F0E2FFFF21052092
:102C300005F0FCFE074B0D4A1968049104991268CF
:102C40000A443A606AE700BFF892FF1F24DBFF1FC7
:102C5000B0DAFF1FFCDCFF1FC0DAFF1FC4DAFF1F62
:102C6000DCD9FF1FD487FF1F5C1101003887FF1FCD
:102C70006C1101002DE9F047534EDFF87081336885
:102C8000DFF86C91D3F88400504D0F2105F0DEFB86
:102C90000023012222214E48C8F80030C9F8002044
:102CA00007F010FDD8F80030132B20DC40F6E44785
:102CB0003368B5F8A0A0D3F88400436B1C6905F015
:102CC00047F9A4B2012107FB04F4B4FBF0F4414836
:102CD0005444A5F8A04007F0F5FC642006F062F823
:102CE000D8F800300133132BC8F80030E0DDB5F818
:102CF000A030394A3948A2FB03129B1A02EB530356
:102D0000C3F30F131946A5F8A03007F0C1FF1D212A
:102D1000334807F0D7FC0221324807F0D3FC2F4894
:102D200007F066FF00231A460E213068C8F800300D
:102D300005F088F8022322212548C9F8003007F061
:102D4000C1FCD8F80030132B20DC40F6E447336890
:102D5000B5F8A290D3F88400436B1C6905F0F8F82D
:102D6000A4B2012107FB04F4B4FBF0F419484C446D
:102D7000A5F8A24007F0A6FC642006F013F8D8F8E6
:102D800000300133132BC8F80030E0DDB5F8A23075
:102D9000114A1248A2FB03129B1A02EB5303C3F31E
:102DA0000F131946A5F8A23007F072FF1D210E4837
:102DB00007F088FC02210B4807F084FC0748BDE8B7
:102DC000F04707F015BF00BF34DBFF1FDCD9FF1F42
:102DD0007C110100C011010087611886D487FF1F94
:102DE000A011010060120100C41101006492FF1FD4
:102DF0004887FF1F2DE9F047C64DD5F8B830062BA0
:102E000000F0AE81C44BC54C1B68A86D40F2513137
:102E100008222160E271002B00F0778109F040FA6E
:102E2000696A064609F090FABD49BA4F09F08CFA72
:102E300009F076FC80B203126372BA4ABA4B126888
:102E40001B68E9692072A37230461B121612E372E6
:102E50002273667309F078FAB149B04E09F074FA3A
:102E600009F05EFC83B21A123146B048A373E273D4
:102E700004F040FEAE4AAF4B12681988A172D3B27B
:102E8000237203EB83035B00237302EB820343F3A0
:102E9000D7134FEA212E12124FF008084FF0000905
:102EA00031466373A14884F80BE040F255336272F7
:102EB000236084F8078084F80E9084F80F9004F063
:102EC00019FE40F256339C48236084F80780FDF7D2
:102ED000D5FF9A4909F038FA09F022FC2072964889
:102EE000FDF7CCFF954909F02FFA09F019FC944A37
:102EF0009249C0F307231068637209F0D9FA09F008
:102F0000E9FB40FA08F3A0728B48E372FDF7E2FF99
:102F1000834909F019FA09F0DDFB20738648FDF7B3
:102F2000D9FF7F4909F010FA09F0D4FB40F30720DC
:102F3000314660737D4884F80E9084F80F9004F059
:102F4000D9FD022005F02EFF7E4A7F4B11782172B9
:102F5000517890786172D178A0721A789878E1727D
:102F6000597822736173DA78A07340F25A3331468C
:102F70006E48E273236084F8078004F0BBFD734B56
:102F80006A481A7822725A7862729A78A272DA784B
:102F9000E2721A7922735A7962739A79DB79E37350
:102FA000314640F25E33A273236084F8078004F058
:102FB000A1FD022005F0F6FE654B5C481A782272EE
:102FC0005A7862729A78A272DA78E2721A79227367
:102FD0005A7962739A79DB79E37331464FF45C7303
:102FE000236084F80780A27304F084FD594B1B68AA
:102FF000012B00F06F82022005F0D4FE082640F27B
:1030000073334D482360E671FDF7EAFE524909F03B
:103010009BF909F085FB20724748FDF7E1FE4E4918
:1030200009F092F909F07CFBC0F307234248637270
:10303000FDF7FEFE484909F087F909F071FBA0721F
:103040003D48FDF7F5FE444909F07EF909F068FBBB
:10305000C0F307233848E372FDF7A4FF3F4909F0A6
:103060006BF809F05DFB20733348FDF79BFF3B498C
:1030700009F062F809F054FBC0F307232E4863738C
:10308000FDF78EFF354909F057F809F049FBA073A9
:103090002948FDF785FF314909F04EF809F040FB5A
:1030A0001E49C0F307232148E37304F023FD0220E7
:1030B00005F078FEE96D2B6E022211FB03F310463A
:1030C00040F27931C3F30725E27121602372657202
:1030D00005F068FE40F2723317482360E671FDF791
:1030E0003FFD20721448FDF73BFD002340FA06F235
:1030F0006272A372E37223736373A373E37307496A
:103100000A48BDE8F04704F0F5BC09F0C9F8A96920
:10311000064687E6DCD9FF1F8C92FF1F6892FF1FCF
:10312000000020411CDBFF1F7C92FF1F54DBFF1FB0
:103130003087FF1F3687FF1FFC93FF1F0000C84228
:10314000C8D9FF1FC4D9FF1F5092FF1F5887FF1F08
:103150006087FF1FC8DAFF1F00007A44339388435B
:10316000CD4CCE48002608274FF4C36321464FF0CC
:1031700059094FF044084FF0420A236084F80A903E
:1031800084F80B80E771267226736673A673E67364
:1031900084F809A004F0AEFC022005F003FE4FF411
:1031A000BB632146BD48236084F80A9084F80B80F5
:1031B000E771267284F809A026736673A673E67316
:1031C00004F098FC022005F0EDFDE96D2A6ED5F8BB
:1031D00058E0B248E77101FB02F312FB01F203EB86
:1031E000C30103EB810302EBC2010EFB03F302EB0D
:1031F00081024FF4AB68032112FB0EF24FF0050C75
:103200003B414FF0070EC4F8008021724FF01209C5
:1032100021464FF0040884F80EC02373627384F8CB
:103220000FE0A67284F8099084F80B8004F062FC29
:10323000022005F0B7FD34224F234FF4B36E214630
:103240009648E272E373C4F800E0E7712672667292
:1032500084F80A902673667384F80E8004F04AFCA2
:10326000022005F09FFD8E4BE7711B68A86D4FF49F
:1032700056722260002B40F0658109F011F8A969AF
:10328000064609F061F8874909F05EF809F048FA46
:1032900080B240FA07F360722372E969304609F0A0
:1032A00053F8804909F050F809F03AFA7E4B7F4A0A
:1032B0001B6812687849637385B216121B122F12AD
:1032C00076482373E273E572A772A67304F012FCCA
:1032D000022005F067FD764A764B16681D88764B0E
:1032E00076491868E57206EB8603642202FB06F253
:1032F00003EB83039B0012122E124FF476770825FE
:1033000063722272A6722760E57109F01DF809F058
:1033100007FA83B243FA05F70026F9225E495F48AF
:103320006373A2732773E67304F0E4FB022005F0D5
:1033300039FD4FF48B604FF0120E56227823564918
:1033400020603427554884F80AE0A273E373E571DE
:103350002672667226736673E77204F0CBFB022056
:1033600005F020FD4FF4A36355482360E571FDF798
:1033700017FE4C4908F0E8FF09F0D2F9C0F3072323
:103380004F482372FDF70CFE464908F0DDFF09F0B7
:10339000C7F960724A48FDF705FE424908F0D4FFBC
:1033A00009F0BEF9C0F307234548A372FDF7FAFD03
:1033B0003C4908F0C9FF09F0B3F9FF233649E07230
:1033C000364823736373A373E37304F093FB022003
:1033D00005F0E8FC4FF49B6339482360E571FDF785
:1033E0004DFD304908F0B0FF09F09AF9C0F307230A
:1033F00033482372FDF742FD2A4908F0A5FF09F082
:103400008FF9304B30496072186809F051F809F0B3
:1034100061F940FA05F203462948A272E372FDF70A
:1034200059FD204908F090FF09F054F940F30723B3
:1034300023482373FDF74EFD1A4908F085FF09F074
:1034400049F90323607314491448A373E57304F026
:1034500051FB022005F0A6FC1C4A1D4B92F801E02E
:103460009178D0781F785E7892F800C0E571DA78AC
:103470009D78A1724FF4AC73E07284F808C084F8B0
:1034800009E027736673A573E2732360024903485A
:10349000BDE8F04704F02EBB6892FF1F54DBFF1F0E
:1034A0008C92FF1F000020411CDBFF1F7C92FF1F3E
:1034B0003087FF1F3687FF1F04DBFF1F620B363B81
:1034C000FC93FF1FC8D9FF1F0000C842C4D9FF1FCB
:1034D0005092FF1F2E48FDF783FC796D08F02CFEFB
:1034E00081462B48FDF7A4FC0146484609F0CAF87E
:1034F00000283FF480AD40F2C333254886F80780AA
:103500003360FDF76DFC3F6D394609F0BBF848B3F9
:103510002049384608F018FF09F002F980B240FA55
:1035200008F37072337200230127042603221A491C
:103530001A48A772E67222736373A373E37304F0ED
:10354000D9FA58E508F0ACFE696A064608F0FCFEB8
:10355000134908F0F9FE09F0E3F880B20312607233
:1035600023729AE60A48FDF73BFC0A4908F0ECFE94
:1035700009F0D6F8C0F3072305483372FDF730FC95
:10358000044908F0E1FE09F0CBF87072CBE700BF08
:10359000FC93FF1F00007A446892FF1F54DBFF1F5B
:1035A0000000204138B5174C174A2368101D12F847
:1035B000011F904241EA0323F9D12360134C03F128
:1035C00000432360124BD3F88430022B11D0114BEF
:1035D0001B68012B00D038BD0F4807F009FB21689C
:1035E0000D4807F055FB03210C48BDE8384007F0B3
:1035F00069B820680A4D08F053FE2860FEF7B0FD58
:10360000E5E700BF20DBFF1F2BD9FF1FF092FF1F54
:10361000DCD9FF1F30DBFF1FD487FF1FF011010033
:1036200018DBFF1F30B54A4C4A4883B0214604F0EE
:1036300059F9236840F2C23293426FD0A3F19A0243
:10364000E52A0AD903F47F63B3F5C07F424D14D055
:103650002B68012B20D003B030BD404B3E4D1B6882
:10366000012B53D000223A493D48FDF79FFA2368C9
:1036700003F47F63B3F5C07FEAD1384B34491B684C
:103680003748012B374B93F8CA3043D00022FDF75F
:103690006BFA2B68012BDED1304B1B68012BDAD182
:1036A000314B32481B6801930A220023019907F02D
:1036B000AFFA2268264B002ADB7942DB2C492D48E1
:1036C00009F00AFE2B4809F03BFE0146294806F0A6
:1036D000F9FF25681E4B15F0804523D1DB798BB1AE
:1036E000631925491A7A234809F0F6FD214809F0A3
:1036F00027FE01461F4806F0E5FF0135E379EDB2EC
:10370000AB42EDD8194807F073FAA4E72A68012AFA
:10371000A8D1A8E72A68012AB8D1B8E7FFF742FF85
:1037200023688BE7154D134C0FCD0FC495E80300AC
:1037300044F8040B204620F81419152106F0C2FFA6
:10374000E0E70F490B4822F0604209F0C5FDB9E7F8
:1037500024D9FF1F54DBFF1F2487FF1F30DBFF1F0F
:10376000FC93FF1FDCD9FF1FFCDCFF1FD487FF1F6A
:103770001C12010040D9FF1F481201003012010045
:10378000F41101009A4B1B78052B00F09B802DE96A
:10379000F04F984C984E994DE26E636E98483260A7
:1037A00083B02B60FDF7FEFB216B08F06BFF08B1C7
:1037B00000232B609248FDF7F3FBE16A08F080FFDD
:1037C00010B1002333602B608D48FDF731FBE168B9
:1037D00008F076FF08B100232B608948FDF728FB2D
:1037E000E16808F06DFF08B100232B608448814F29
:1037F000FDF7F6FA216908F045FF002868D000239C
:1038000033602B687D4F002B4DDD7D48DFF8E48170
:10381000FDF7C8FBA16B08F035FF002840F0B4802D
:10382000784B77481B68734F012B00F0ED80FDF754
:10383000FFFA216A8046A06908F07CFC01464046F8
:1038400008F03EFF00282ED0286808F029FD8146A8
:103850006B48FDF7EDFABC69396A8246204608F0EC
:1038600069FCBB6E8046786EC01A08F019FD4146AF
:103870000746504608F05EFC0146384608F064FDF5
:1038800041460746204608F055FC0146384608F0F8
:103890000FFE002108F050FC0146484608F04AFCA3
:1038A00008F018FF28603368534A002BAFBF2B681D
:1038B0002B6800211160002B01DA00232B6003B07C
:1038C000BDE8F08F4C494D4A00230B6013607047F0
:1038D0004B48FDF785FAF96908F0D4FE00288ED12F
:1038E0003368DFF81491002B8BDD4548FDF758FB5A
:1038F000F96B08F0E5FE002840F0CA804048DFF888
:10390000F480FDF76DFAD4F8C4100746E06908F0BA
:1039100013FC0146384608F0B5FE00283FF471AFAD
:10392000306808F0BDFC82463548FDF759FA8346F9
:10393000D8F86C00D8F81C7008F0B2FC3946814603
:10394000584608F0F7FB49468346002008F0F2FB92
:103950000146584608F0F8FCD8F8C41083463846AB
:1039600008F0EAFB394608F0E5FB0146584608F046
:103970009FFD494608F0E0FB0146504608F0DAFB9F
:1039800008F0A8FE30603CE7386808F089FC834600
:103990001B48FDF707FB0190D8F86400D8F830A069
:1039A00008F07EFC019B81465146184608F0C2FB98
:1039B00049460190002008F0BDFB019B01461846D6
:1039C00008F0C2FC51460190D8F8380008F0B2FB6C
:1039D000019B0146184608F06BFD494608F0ACFB18
:1039E0000146584608F0A6FB08F074FE386017E759
:1039F000D0D9FF1FDCD9FF1F1CDBFF1F7C92FF1FEC
:103A0000FC93FF1F8C92FF1FFDF712FA216A80467C
:103A1000606A08F08FFB0146404608F051FE00281E
:103A20003FF441AF286808F03BFC82462F48FDF781
:103A3000FFF9D7F82480396A8346404608F07AFBBC
:103A40008146B86E08F02CFC0446786E08F028FC1D
:103A5000214608F06FFB49460746584608F06AFBC6
:103A60000146384608F070FC49460746404608F0D3
:103A700061FB0146384608F01BFD214608F05CFB5F
:103A80000146504608F056FB08F024FE28600AE77D
:103A9000D9F8000008F004FC82461448FDF780FACB
:103AA0000190F86ED7F83C8008F0FAFB019B834642
:103AB0004146184608F03EFB0146584608F044FCD3
:103AC00041468346F86A08F035FB0146584608F03F
:103AD000EFFC002108F030FB0146504608F02AFBBD
:103AE00008F0F8FDC9F8000008E700BFFC93FF1FCD
:103AF00008B5274807F07CF80721264806F0E2FDC4
:103B0000112005F019F90621F8B1234806F0DAFD75
:103B1000102005F011F9062100B3204806F0D2FD6F
:103B2000122005F009F9062108B31D4806F0CAFD68
:103B3000132005F001F9062110BB1A4806F0C2FD5A
:103B40001348BDE8084007F053B8174806F0BAFD1F
:103B5000102005F0F1F806210028DED1134806F008
:103B6000B1FD122005F0E8F806210028DDD110484B
:103B700006F0A8FD132005F0DFF806210028DCD0B0
:103B80000C4806F09FFD0248BDE8084007F030B839
:103B9000D487FF1F541201005C1201006C12010057
:103BA0007C120100941201006412010074120100E1
:103BB000841201008C12010010B5254C2368042BDF
:103BC00027DC01210B2005F0B1F801210C2005F0C4
:103BD000ADF80121142005F0A9F80121152005F008
:103BE000A5F8FF21162004F021FFFF21172004F083
:103BF0001DFFFF21052004F019FFFF21062004F01E
:103C000015FF236801330A2B2360C4BF0023236000
:103C100010BD00210B2005F089F800210C2005F0D3
:103C200085F80021142005F081F80021152005F009
:103C30007DF80021162004F0F9FE0021172004F081
:103C4000F5FE0021052004F0F1FE0021D6E700BFBB
:103C50005492FF1F30B5092183B0AE4805F082FBB6
:103C6000222005F027FBAC4BD3F8A830012BAB4B3F
:103C70001B7809D0052B10D8DFE813F02D01320195
:103C80003C01410137010B00002B00F03D81052B69
:103C900003D10721A24805F065FB222005F00AFBAD
:103CA000FF2005F007FBFF2005F004FB9D4CFF20E3
:103CB00005F000FB08219C4805F054FB21689B4857
:103CC00006F0E6FFFF2005F0F5FAFF2005F0F2FA16
:103CD000FF2005F0EFFA0921954805F043FB216824
:103CE000924806F0D5FFFF2005F0E4FAFF2005F02A
:103CF000E1FAFF2005F0DEFA0C218E4805F032FBD8
:103D00008D4B8E49186808F0D3FB07F073FE002432
:103D100002460B460094854806F0C2FFFF2005F0DE
:103D2000C9FAFF2005F0C6FAFF2005F0C3FA092101
:103D3000834805F017FB8348FDF7CCF807F05AFEDF
:103D4000009402460B46794806F0AAFFFF2005F0D2
:103D5000B1FAFF2005F0AEFAFF2005F0ABFA0C2116
:103D6000794805F0FFFA7748FDF71CF907F042FEA5
:103D7000009402460B466D4806F092FFFF2005F0C6
:103D800099FAFF2005F096FAFF2005F093FA0D212D
:103D90006E4805F0E7FA6B48FDF702F907F02AFED6
:103DA000009402460B46614806F07AFFFF2005F0BA
:103DB00081FAFF2005F07EFAFF2005F07BFA092149
:103DC000634805F0CFFA5F48FDF758F8614908F0FD
:103DD000BBFA07F00FFE009402460B46534806F06C
:103DE0005FFFFF2005F066FAFF2005F063FAFF2071
:103DF00005F060FA0C21584805F0B4FA5148FCF778
:103E0000EFFF564908F0A0FA07F0F4FD00940246CF
:103E10000B46464806F044FFFF2005F04BFAFF2012
:103E200005F048FAFF2005F045FA0D214C4805F051
:103E300099FA4448FCF7FCFF484908F085FA07F076
:103E4000D9FD009402460B46384806F029FFFF20B2
:103E500005F030FAFF2005F02DFAFF2005F02AFAD0
:103E60000921404805F07EFA3F4B3048196806F0BA
:103E70000FFFFF2005F01EFAFF2005F01BFAFF20C0
:103E800005F018FA0E21394805F06CFA2D48FCF7B8
:103E9000CFFF05462B48FCF7A3FF0146284608F054
:103EA00049F92E4908F050FA07F0A4FD00940246A3
:103EB0000B461E4806F0F4FEFF2005F0FBF9FF203C
:103EC00005F0F8F9FF2005F0F5F9FF2003B0BDE893
:103ED000304005F0EFB90621254805F043FADCE64D
:103EE0000721244805F03EFAD7E60B21224805F0C9
:103EF00039FAD2E60721214805F034FACDE6082147
:103F00001F4805F02FFAC8E608211E4805F02AFAD6
:103F1000C3E600BF9C120100DCD9FF1FD0D9FF1FF0
:103F2000E80F01003087FF1FB4120100C487FF1F94
:103F3000C0120100CC120100C8D9FF1F0000C84206
:103F4000DC120100FC93FF1FE8120100F8120100CF
:103F500008130100000020411413010000007A44FE
:103F600024130100341301004487FF1F4013010094
:103F7000B80F0100C00F0100C80F0100D40F0100ED
:103F8000DC0F0100A81201002DE9F0418D4DD5F89C
:103F9000B830042B3ED0032B6ED0012B00F098805C
:103FA000022B01D0BDE8F081874C8848237240F293
:103FB0000E32012321462260E37103F09BFD844B06
:103FC0001B685B00FF2BC8BFFF23042140224FF476
:103FD00041702060E17122726372A86D08F060F98F
:103FE000A96908F0B1F97B49054608F069FB00288A
:103FF00000F0DE802946284608F09EF808F090FB85
:1040000080B20312E072A3726F497048BDE8F041BC
:1040100003F070BD6C4C704AA379226043F0010339
:104020000822E271A371A86D08F03AF9A96908F0B5
:104030008BF96A4908F088F908F072FB644B684A0A
:104040001B68126893FBF2F380B200261A12071263
:10405000607221465D48E372A2722772267366730E
:10406000A673E67303F046FDA279D5F8B83066F37F
:104070000002032BA27190D1534CA86DA3720122B0
:10408000E823072140F2FF26227263722660E17165
:1040900008F006F9A96908F057F9504908F054F9F1
:1040A00008F03EFB4A4B4E4A1B68126893FBF2F342
:1040B00082B21E121712214644486373E2722773BC
:1040C000A67303F017FDD5F8B830012B7FF468AF65
:1040D000444B3D4C1B682360072280231020E27173
:1040E000237204F029FE002869D13F4B1B68DFF8DA
:1040F000E0803B4FA86D344E03EB83035B001A1244
:10410000A3726272D8F800303A6893FBF2F31A1285
:104110006273A37308F0C4F8A96908F015F9334B6A
:10412000196808F007F82D4908F00EF908F0F8FAB8
:1041300080B20312314620732448E37203F0DAFCA4
:10414000022004F02FFE2A4B1B68236007228023E5
:104150001020E271237204F0EFFD70BB224B1B684C
:10416000A86D03EB83035B001A127272B37208F03E
:1041700097F8A96908F0E8F81E4B196807F0DAFF0C
:10418000164908F0E1F808F0CBFA82B21612386846
:10419000D8F80030227393FBF0F30B490B48A3735C
:1041A0001A12E672627303F0A5FCD5F8B830F7E690
:1041B00001229023A272E37226E70F4BCFE70E4B4A
:1041C00094E700BFDCD9FF1F6892FF1F54DBFF1F7D
:1041D0007C92FF1F00004843F4E5061800002041D0
:1041E0002C87FF1F6887FF1F2887FF1F7892FF1FFC
:1041F0006C87FF1F08DBFF1F3C87FF1F70B503683C
:10420000C57984B0012D8DF805304FEA13230E4691
:104210008DF8043005F1010201A909DD07300D44D4
:104220000DF1050310F8014F03F8014FAB42F9D12E
:10423000034B04489B5D02F027FF04B070BD00BF34
:10424000E01E0100FC92FF1FF0B40D4B0D489C795D
:104250000822FF27CD26A225DA710022B0216FF3B4
:1042600000041F729E72DD725A721A735A739A7327
:10427000DA7319609C711946F0BC03F03BBC00BFB7
:104280006892FF1F54DBFF1FF0B5574E33780F2B9A
:1042900083B05FD0554B1B78002B49D0544B002284
:1042A0001A60544D2B78062B48D0534F43F08003AF
:1042B000524C0821012A2360E1716ED042220E2364
:1042C0002272637239784D4AFF230229A372E37286
:1042D00033780CD84FF020004FEA03134FF0000161
:1042E000DBB21073517308D10433937306E060207E
:1042F0001B010121DBB210735173A37329783F486E
:10430000FFF77CFFE073022004F04CFD3B493C4882
:1043100003F0F0FB32782B783A48013201333270E7
:104320002B70FCF7D9FB08B1FFF78EFF03B0F0BD8F
:104330002F4B304D1A682B78062BB6D12E4F3B7879
:10434000032B98BF01334FF0000198BF3B702970D9
:104350008023ADE72C4D2D4C2B680093009A2168EB
:1043600000239142337013D2294B204F1A68012346
:104370009A423B7029D0274A29680191B2F8A410CB
:10438000019A3C314FF47A7000FB0122226083E7EE
:104390001649174A0B70126883E71A48FCF720FD8C
:1043A0001D4907F0D1FF08F0BBF900F10A031548D9
:1043B0002372FCF715FD184907F0C6FF08F0B0F9A5
:1043C00080B20A30001260727CE7144806F010FCDC
:1043D0001321134806F076F9104806F009FC0F483F
:1043E00006F006FC3B78C6E70CDBFF1F14DBFF1F63
:1043F000C8DAFF1F2CDBFF1F38DBFF1F6892FF1F8F
:1044000054DBFF1FFC93FF1FFCDCFF1FF8DAFF1FCC
:104410002487FF1FDCD9FF1F00007A44D487FF1FC9
:10442000501301002DE9F041AE4CAF4D82B006F0C3
:10443000E3F823682860042B00F05683022B00F079
:10444000C280082B48D0072B40F07481332801F03C
:104450000B8600F3DB83312801F0F085322840F031
:104460000F8206F005F9002840F362819F48A04EB4
:1044700006F050FD07F014FF9E4907F065FF612329
:104480000122706422602B601846A0F152031F2B9A
:1044900000F2F681DFE813F0B60DF401F401F40147
:1044A000F401F401F401F401F401F401F401F40164
:1044B000F401F401F4010E04F40E93052C06FE043D
:1044C000F401F401F4018104F401F10EF401F401AA
:1044D000F401F401F401BB0D322800F0AA8340F38B
:1044E000CD83342800F0C183712840F0C9810022B7
:1044F000732322602B602368002B40F0C4817E4E22
:104500007A4806F075FB04217C4806F0DBF8774812
:1045100006F06EFB10217A4806F0D4F8734806F0D6
:1045200067FB1321774806F0CDF8774B6F48196881
:1045300006F0AEFB6D4806F05BFB1421734806F0F5
:10454000C1F86A4806F054FB1E21714806F0BAF81B
:10455000664806F04DFB15216E4806F0B3F8634837
:1045600006F046FB1E216C4806F0ACF85F4806F0EA
:104570003FFB2021694806F0A5F85C4806F038FBAF
:104580001921674806F09EF8584806F031FB1221C1
:10459000644806F097F8554806F02AFB0F21624858
:1045A00006F090F8514806F023FB0D215F4806F015
:1045B00089F84E4806F01CFB00220123326023607C
:1045C00002B0BDE8F081A0F13103422B00F2588126
:1045D00001A252F823F000BFAD550000C9550000FC
:1045E000E5550000FF550000315600004F56000011
:1045F0008148000081480000814800008148000097
:104600008148000081480000814800008148000086
:104610008148000081480000814800008148000076
:104620008148000081480000814800008148000066
:104630008148000081480000814800008148000056
:104640008148000081480000814800008148000046
:104650008148000081480000814800008148000036
:104660008148000081480000814800008148000026
:104670008148000081480000814800008148000016
:104680008148000081480000814800008148000006
:1046900081480000814800008148000081480000F6
:1046A0002556000081480000814800008148000034
:1046B00081480000814800008148000081480000D6
:1046C00081480000814800008148000081480000C6
:1046D0008148000081480000EF440000814800004C
:1046E0008F5500003CDBFF1F20D9FF1FD487FF1F21
:1046F000DCD9FF1F6F12833A2487FF1F20170100A8
:10470000281701003C1701004487FF1F50170100C4
:104710006817010088170100A0170100C0170100E9
:10472000E41701000018010014180100241801000A
:1047300023682868062B40F0AB80A0F13103402BA2
:1047400000F29E8001A252F823F000BF79540000CD
:10475000A55400004D550000D1540000F75400004E
:1047600015550000395500008148000081480000BF
:104770008148000081480000814800008148000015
:104780008148000081480000814800008148000005
:1047900081480000814800008148000081480000F5
:1047A00081480000814800008148000081480000E5
:1047B00081480000814800008148000081480000D5
:1047C00081480000814800008148000081480000C5
:1047D00081480000814800008148000081480000B5
:1047E00081480000814800008148000081480000A5
:1047F0008148000081480000814800008148000095
:104800008148000081480000814800008148000084
:104810008148000081480000814800008148000074
:104820008148000081480000814800008148000064
:104830008148000081480000814800008148000054
:10484000814800008148000081480000EF440000DA
:1048500005F00EFF002841F3EA83E948E94E06F02F
:1048600059FB0127034601466222E748F3652760AA
:104870002A60FCF707FB23682868012B3FF405AE8C
:1048800073283FF438AE02B0BDE8F0812368286891
:10489000052B40F08B80A0F13103402BF0D801A212
:1048A00052F823F06953000089530000A953000017
:1048B000C9530000515200004F53000081480000CE
:1048C00081480000814800008148000081480000C4
:1048D00081480000814800008148000081480000B4
:1048E00081480000814800008148000081480000A4
:1048F0008148000081480000814800008148000094
:104900008148000081480000814800008148000083
:104910008148000081480000814800008148000073
:104920008148000081480000814800008148000063
:104930008148000081480000814800008148000053
:104940008148000081480000814800008148000043
:104950008148000081480000814800008148000033
:104960008148000081480000814800008148000023
:104970008148000081480000814800008148000013
:104980008148000081480000814800008148000003
:1049900081480000814800008148000081480000F3
:1049A00081480000E553000023682868032B7FF44A
:1049B00064AFA0F13003482B3FF662AF01A252F87A
:1049C00023F000BF51480000F15D0000195E0000B7
:1049D000415E0000A15E0000C35E0000EB5E0000CF
:1049E000135F0000315F00007F5C00008148000021
:1049F0008148000081480000814800008148000093
:104A00008148000081480000814800008148000082
:104A10008148000081480000814800008148000072
:104A20008148000081480000814800008148000062
:104A30008148000081480000814800008148000052
:104A40008148000081480000814800008148000042
:104A50008148000081480000814800008148000032
:104A60008148000081480000814800008148000022
:104A70008148000081480000814800008148000012
:104A80008148000081480000A75C0000C55C000070
:104A9000E35C0000015D00001F5D00003D5D000063
:104AA000715700009557000081480000BB57000077
:104AB000A95D000081480000814800008148000095
:104AC0008148000081480000EF440000D15D0000F3
:104AD00081480000814800008148000081480000B2
:104AE00081480000935D0000A0F13103412B3FF6A7
:104AF000C7AE01A252F823F0295700002D5700003D
:104B0000735600009F560000B7560000D3560000B1
:104B1000E5560000E9560000ED560000814800000F
:104B20008148000081480000814800008148000061
:104B30008148000081480000814800008148000051
:104B40008148000081480000814800008148000041
:104B50008148000081480000814800008148000031
:104B60008148000081480000814800008148000021
:104B70008148000081480000814800008148000011
:104B80008148000081480000814800008148000001
:104B900081480000814800008148000081480000F1
:104BA00081480000814800008148000081480000E1
:104BB0008148000081480000814800000F57000034
:104BC00081480000814800008148000081480000C1
:104BD00081480000814800008148000081480000B1
:104BE00081480000814800008148000081480000A1
:104BF0008148000081480000EF4400003157000068
:104C0000D487FF1FDCD9FF1FFC93FF1F34287FF4DC
:104C10006BAC05F02DFD00287FF78AAD8A488B4EDE
:104C200006F078F961230122B08622602B601846D5
:104C30002BE405F01DFD00281CDD8348834E06F0A3
:104C400069F907F02DFB824907F07EFBB6F9CC30FD
:104C500096F84810074602467E48F764FCF714F9B8
:104C600001236920236028600FE405F001FD00287E
:104C700000F37F8423682868FFF7E5BB31287FF4C1
:104C8000FFAD05F0F5FC002840F3EE846E486F4E52
:104C900006F040F9C0B286F8480002288ABF002119
:104CA000014686F84810B6F9CC30F26C6948D5E771
:104CB00005F0A2FC05F0DCFC05460028F8D16248AE
:104CC000624E05F095FF604805F092FF5E4805F0E2
:104CD0008FFF5D4805F08CFF5B4805F089FF1F21C1
:104CE0005D4805F0EFFC584805F082FF1C215B4849
:104CF00005F0E8FCB06A5A4907F026FB06F07AFE98
:104D0000009502460B46504805F0CAFF022155485F
:104D100005F0D8FC4C4805F06BFF2321524805F004
:104D2000D1FC706C4E4907F00FFB06F063FE009556
:104D300002460B46444805F0B3FF0221494805F0FE
:104D4000C1FC414805F054FF1921484805F0BAFC60
:104D5000306C06F04FFE02250B46024600953A489D
:104D600005F09EFF2946424805F0ACFC364805F0A8
:104D70003FFF22213F4805F0A5FCB18E324805F0E7
:104D800087FF03213C4805F09DFC2F4805F030FFCC
:104D90000723236077E505F02FFC05F069FC054645
:104DA0000028F8D12848294E05F022FF264805F0B2
:104DB0001FFF254805F01CFF234805F019FF224876
:104DC00005F016FF15212D4805F07CFC1E4805F066
:104DD0000FFF18212A4805F075FC2B460A2296F889
:104DE0004810194805F014FF174805F001FF282165
:104DF000244805F067FCF06C194907F0A5FA06F0A5
:104E0000F9FD00950B4602460F4805F049FF0221C7
:104E1000144805F057FC0C4805F0EAFE18211A4822
:104E200005F050FCB6F9CC10074805F031FF0648F4
:104E300005F0DEFE1321154805F044FC024805F09C
:104E4000D7FE082323601EE5D487FF1FDCD9FF1F90
:104E50006F12833AFC93FF1F68150100881501004B
:104E600000007A44D0130100A8150100CC15010000
:104E7000E8150100EC15010010160100E81701000B
:104E800088130100A4130100D4130100F0130100E2
:104E900005F0B2FB05F0ECFB05460028F8D17F4891
:104EA0007F4E05F0A5FE7D4805F0A2FE7B4805F08B
:104EB0009FFE7A4805F09CFE784805F099FE112186
:104EC000784805F0FFFB754805F092FE28217648EA
:104ED00005F0F8FBB069754907F036FA06F08AFD6F
:104EE000009502460B466D4805F0DAFE0221704837
:104EF00005F0E8FB694805F07BFE16216D4805F0DA
:104F0000E1FB306A694907F01FFA06F073FD00956E
:104F10000B460246614805F0C3FE0221644805F0D5
:104F2000D1FB5E4805F064FED6F8B830002B32DDC8
:104F30001D21614805F0C6FB706E07F0B1F95F49AD
:104F400007F002FA06F056FD022502460B460095D0
:104F5000524805F0A5FE0121594805F0B3FB4F4822
:104F600005F046FE1F21574805F0ACFBB06E07F078
:104F700097F9524907F0E8F906F03CFD0095024622
:104F80000B46464805F08CFE01214D4805F09AFB82
:104F9000424805F02DFE11214B4805F093FBD6F851
:104FA000B830062B00F2D987DFE813F00E0813089B
:104FB000D307270822081D08180805F01DFB05F077
:104FC00057FB0028F9D13548354E05F011FE33481E
:104FD00005F00EFE314805F00BFE304805F008FEE6
:104FE0002E4805F005FE1F21384805F06BFB2B48C5
:104FF00005F0FEFD1E21364805F064FB274805F04C
:10500000F7FD1A21334805F05DFBD6F88430022BFA
:1050100001F09580032B01F08980012B01F07D8048
:1050200009212D4805F04EFB1C4805F0E1FD142137
:105030002A481B4F05F046FBD6F88010174805F0AC
:1050400027FE164805F0D4FD1C21254805F03AFB43
:10505000D6F88810114805F01BFE104805F0C8FD71
:105060001C21204805F02EFBD6F8B4100B4805F0A3
:105070000FFE0A4805F0BCFDD6F8845025F0020565
:10508000012D01F011801321174805F01BFB034887
:1050900005F0AEFD02232360FFF7F5BBD487FF1FA9
:1050A000DCD9FF1F8C1701000414010000007A44B2
:1050B000D01301003014010048140100CDCCCC3DC8
:1050C000A81A010068140100881401006819010081
:1050D00088190100A8190100201A01002C1A0100EA
:1050E000441A0100641A0100F013010005F084FA6B
:1050F00005F0BEFA0028F9D1BE48BF4D05F078FD95
:10510000BC4805F075FDBB4805F072FDB94805F0D7
:105110006FFDB84805F06CFD1321B84805F0D2FAD0
:10512000B44805F065FD0D21B54805F0CBFAB1484E
:1051300005F05EFD0F21B34805F0C4FAB24BAD484F
:10514000196805F0A5FDAB4805F052FD1321AF48E5
:1051500005F0B8FAAE4BA748196805F099FDA548C7
:1051600005F046FD1221AB4805F0ACFAAA4BA14868
:10517000196805F08DFD9F4805F03AFD1121A748FB
:1051800005F0A0FAA64B9B48196805F081FD9948E7
:1051900005F02EFD0E21A34805F094FAD5F8A810CD
:1051A000944805F075FD934805F022FD19219E48AD
:1051B00005F088FA9D4B8F48196805F069FD8D4808
:1051C00005F016FD11219A4805F07CFA994B8948A3
:1051D000196805F05DFD874805F00AFD1021964825
:1051E00005F070FA954B8348196805F051FD814828
:1051F00005F0FEFC1C21924805F064FA914B7D48B5
:10520000196805F045FD7B4805F0F2FC16218E4833
:1052100005F058FAB5F8A410764805F039FD1E21BE
:105220008A4805F04FFA734805F0E2FC17218848D8
:1052300005F048FA6F4805F0DBFC1321854805F0BE
:1052400041FA6C4805F0D4FC04232360FFF71BBB34
:1052500005F00EFA00287FF7A7AB6648664E05F00A
:1052600059FE744BC6F8B00003221A60FCF7ACFC80
:1052700001226B2322602B6001E005F0BDF905F0EF
:10528000F7F90028F9D15B485B4D05F0B1FC5948AE
:1052900005F0AEFC574805F0ABFC564805F0A8FCFD
:1052A000544805F0A5FC21216B4805F00BFA514844
:1052B00005F09EFC1521694805F004FAD6F88C101B
:1052C0004C4805F0E5FC0221654805F0FBF949482A
:1052D00005F08EFC1E21634805F0F4F9D6F8941011
:1052E000444805F0D5FC03215F4805F0EBF941483F
:1052F00005F07EFC1E215D4805F0E4F9D6F890101B
:105300003C4805F0C5FC3B4805F072FC1D2158489F
:1053100005F0D8F9D6F8AC10364805F0B9FC354898
:1053200005F066FC1E21534805F0CCF9D6F8B01004
:10533000304805F0ADFC2F4805F05AFCD6F8A830EF
:10534000012B00F01B8705232360FFF79CBA2A4E30
:1053500096F8C930B3FA83F35B0901216B2286F812
:10536000C93021602A608AE705F082F900287FF7BA
:105370001BAB2048204E05F0CDFD01226B23C6F863
:105380008C0022602B607AE705F072F900287FF725
:105390000BAB1848184E05F0BDFD01226B23C6F873
:1053A000940022602B606AE705F062F900287FF71D
:1053B000FBAA1048104E05F0ADFD01226B23C6F884
:1053C000900022602B605AE705F052F900287FF721
:1053D000EBAA0848084E05F09DFD164BC6F8AC0038
:1053E000022242E71349002373220B6023602A60E4
:1053F000FFF781B8D487FF1FDCD9FF1F34180100E5
:10540000481801005818010030DBFF1F6818010020
:10541000C0D9FF1F7C180100F4DAFF1F90180100AB
:10542000D4D9FF1FA4180100B41801005C92FF1F1B
:10543000D01801008092FF1FE41801004C92FF1F5A
:10544000F81801004087FF1F1819010030190100EA
:1054500050190100F0130100141601003816010064
:105460001C15010050160100A81001007016010063
:1054700090160100B016010005F0FAF800287FF739
:1054800005AAAE48AE4E05F045FD06F009FFAD4950
:1054900007F00EF865230122B06122602B601846E8
:1054A000FEF7F3BF05F0E4F800287FF7EFA9A34863
:1054B000A34E05F02FFD06F0F3FEA24906F0F8FF1B
:1054C00065230122306222602B601846FEF7DDBFA3
:1054D00005F0CEF800287FF7D9A99848984E05F036
:1054E00019FD00EB8000430001226520B3662260B5
:1054F0002860FEF7CABF924AD2F8B8300133062BB3
:10550000C8BF0023C2F8B83001236520236028609B
:10551000FEF7BBBF05F0ACF800287FF7B7A98748B6
:10552000874E05F0F7FC65230122C6F8BC00226017
:105530002B601846FEF7A9BF814B93F8C820002ABC
:1055400000F0A585002283F8C820DDE705F090F87B
:1055500000287FF79BA97948794E05F0DBFC00EB2A
:105560008000430001226520736622602860FEF7F8
:105570008CBF7248724E05F0CDFC07B23B46F26C10
:1055800096F848107048A6F8CC70FFF767BB6C4AD5
:10559000D2F884300133032BC8BF0023C2F8843013
:1055A0000123632023602860FEF76FBF644ED6F8A6
:1055B0008030B3FA83F35B0901226320C6F88030A0
:1055C00022602860FEF761BF5D4ED6F88830B3FADE
:1055D00083F35B0901226320C6F8883022602860CB
:1055E000FEF753BF0123236005F042F80028D7DD02
:1055F0005248534E05F08EFCC6F8B400D0E70123A4
:10560000236005F035F8002807DD4C484C4E05F0C6
:1056100081FC06F045FEC6F89C00632028602368E4
:10562000FEF711BFFDF726FB23682868FEF709BFC8
:105630000123236005F01CF80028EEDD3F48404EB2
:1056400005F068FC06F02CFEC6F89800E5E701239B
:10565000236005F00DF80028DFDD3848384E05F0EE
:1056600059FCA6F8C200D8E7354E96F84800FFF777
:1056700014BB364A364F1368002B0CBF01210021A2
:105680004FF001031160236040F0628564222A60BC
:10569000082B4FF064007EF4D6AEFEF71DBF2D4AF6
:1056A0001368B3FA83F35B0901216420136021605E
:1056B0002860FEF7EABE224ED6F8A830B3FA83F38C
:1056C0005B0901226420C6F8A83022602860FEF73A
:1056D000DCBE01231C482360FBF71AFA1E4A23682C
:1056E0001060D3E71D4ADBE71D4AD9E70123236099
:1056F00004F0BEFF002800F3CF841A4B1A68042A76
:1057000001DD02221A6064232B602368C0E70123B5
:10571000236004F0ADFF0028F5DD0848084E05F0D1
:10572000F9FBA6F8A400EEE70F4AB9E70F4AB7E77E
:1057300001232360FEF788FDE5E700BFD487FF1F44
:10574000DCD9FF1F00007A44FC93FF1FF4DAFF1F2F
:105750003CDBFF1FD4D9FF1F5C92FF1F8092FF1F0D
:105760004C92FF1F4087FF1F30DBFF1FC0D9FF1F78
:1057700004F07EFF00280DDD1848194E05F0CAFB25
:1057800006F08EFD174906F093FE01226223706237
:1057900022602B6004F06CFF00280EDD0F48104ED5
:1057A00005F0B8FB06F07CFD0E4906F081FE0122F3
:1057B0006223C6F8C40022602B6004F059FF002861
:1057C00040F335840548064E05F0A4FB06F068FD5D
:1057D00001226223F06322602B6007E0D487FF1F61
:1057E000DCD9FF1F00007A4404F006FF04F040FFFC
:1057F00005460028F8D1C348DFF8788305F0F8F9AA
:10580000C04805F0F5F9BF4805F0F2F9BD4805F0CC
:10581000EFF9BC4805F0ECF91521BB4804F052FF44
:10582000B84805F0E5F91421B84804F04BFFB54835
:1058300005F0DEF91B21B64804F044FFB14805F03D
:10584000D7F91321B34804F03DFFAE4805F0D0F975
:10585000AC4805F0CDF9AB4805F0CAF92021AE48B7
:1058600004F030FFF068AD4906F06EFD06F0C2F8B6
:10587000009502460B46A34805F012FA0221A848FB
:1058800004F020FF0221A74804F01CFF9D4805F00A
:10589000AFF92121A44804F015FF30699F4906F0B3
:1058A00053FD06F0A7F8009502460B46954805F013
:1058B000F7F902219A4804F005FF0221994804F003
:1058C00001FF904805F094F91F21984804F0FAFE72
:1058D000F06A06F08FF8022702460B4600978948C7
:1058E00005F0DEF90121924804F0ECFE39468D48BE
:1058F00004F0E8FE834805F07BF920218D4804F090
:10590000E1FE306B06F076F8009702460B467D48C4
:1059100005F0C6F90121864804F0D4FE39468148D5
:1059200004F0D0FE774805F063F92321824804F0A3
:10593000C9FE306D794906F007FD06F05BF8009569
:1059400002460B466F4805F0ABF93946744804F03F
:10595000B9FE3946734804F0B5FE6A4805F048F9C7
:105960001F21764804F0AEFE706D6C4906F0ECFC29
:1059700006F040F8009502460B46624805F090F9A3
:105980003946674804F09EFE3946664804F09AFEA0
:105990005C4805F02DF91921694804F093FE316E39
:1059A000584805F075F93946664804F08BFE3946CB
:1059B0005C4804F087FE534805F01AF91821624844
:1059C00004F080FEF06E06F06BFC604906F0BCFC53
:1059D00006F010F8009702460B464A4805F060F9B9
:1059E00001215B4804F06EFE39464E4804F06AFE21
:1059F000444805F0FDF82B21564804F063FEF06999
:105A0000464906F0A1FC05F0F5FF009502460B465D
:105A10003C4805F045F93946414804F053FE394603
:105A2000404804F04FFE374805F0E2F81F214A488D
:105A300004F048FEF16D334805F02AF9394639483B
:105A400004F040FE2F4805F0D3F82021434804F02D
:105A500039FEB16D2B4805F01BF93946314804F089
:105A600031FE284805F0C4F810213D4804F02AFE14
:105A7000316F244805F00CF93946294804F022FE1C
:105A80003946284804F01EFE1E4805F0B1F81321DF
:105A9000344804F017FE716F1A4805F0F9F8012137
:105AA000314804F00FFE39461E4804F00BFE15483D
:105AB00005F09EF810212D4804F004FEB16F114846
:105AC00005F0E6F83946164804F0FCFD394615485D
:105AD00004F0F8FD0B4805F08BF81421244804F07D
