:1000000000800020BD010000E18800009988000008
:10001000998800009988000099880000998800005C
:10002000998800009988000099880000E188000004
:10003000E188000099880000A5A90000A9AA000095
:10004000E1880000E1880000E1880000E18800000C
:10005000E1880000E1880000E1880000E1880000FC
:10006000E1880000E1880000E1880000E1880000EC
:10007000E1880000E1880000E1880000E1880000DC
:10008000E1880000E1880000E1880000E1880000CC
:10009000E1880000E1880000E1880000E1880000BC
:1000A000E1880000E1880000E1880000E1880000AC
:1000B000E1880000C97D0000D57D0000D97D0000E9
:1000C000E57D0000E97D0000ED7D0000E188000095
:1000D000E1880000E1880000E1880000E18800007C
:1000E000E1880000E1880000E1880000E18800006C
:1000F000E1880000B5B10000E188000081950000B2
:10010000E18800004D970000E1880000E1880000D0
:10011000E1880000E1880000E1880000E18800003B
:10012000E1880000E1880000E1880000E18800002B
:10013000E1880000E1880000E1880000E18800001B
:10014000E1880000E1880000E1880000E18800000B
:10015000E1880000E1880000E1880000E1880000FB
:10016000E1880000D9990000E1880000E1880000E2
:10017000E1880000E1880000E1880000E1880000DB
:10018000E1880000E1880000E1880000E1880000CB
:10019000E1880000E1880000E1880000E1880000BB
:1001A000E1880000E1880000E1880000E1880000AB
:1001B000E1880000E1880000E1880000564B4CF225
:1001C000205210B51A804DF628121A8000BF00BFC9
:1001D00008F08AFB514B4FF010621A60504A9A6047
:1001E000504ADA60504A136813F4807304D14F49BF
:1001F0000B604FF4A85313604D4B1A78110703D5C9
:100200001A7842F008021A704A4B4B492A221A7097
:100210004A4A4B4B8B4204D252F8040F43F8040B6A
:10022000F8E7484B484900228B4202D243F8042B9E
:10023000FAE74649464A002352F8230041F82300D2
:1002400001336F2BF8D1434B434A802103F8011B44
:100250009342FBD1414B3D4A1A60414B8A221A70AE
:10026000A3F5805324225A70A0221A709A7992071B
:10027000FCD59A79D406FCD43A4A937903F00C035E
:10028000082B384BF9D103221A7140225A719A79FE
:100290009006FCD5334A9179324B4906FBD5324A58
:1002A000324911600221516020221A709A7902F0BD
:1002B0000C020C2AFAD12E4B2E4A1A602E4B2F4AD2
:1002C0001A6000225A60072243F8042C2C4AC3F813
:1002D0000C2D62B608F0BEFD144B1B68DA0705D57D
:1002E000284808F09BFB284B284A1A60284B1B78AB
:1002F0005B0609D5244C254B22689A4204D121483B
:1003000008F08CFB002323600CF03CFA08F0F2FAB2
:100310000AF010FEFEE700BF0E20054030800440CA
:10032000823F04000100002B10D0034014D0034092
:1003300002D0074000E007403092FF1FAC240100CC
:100340002087FF1F3092FF1FF4DFFF1F0082FF1F77
:100350000000000000E400E05FE400E008ED00E0E1
:100360000050064000400640448004400000030165
:1003700004800440C010050014E000E0FF76010096
:10038000000020206179FF5E1CE00340A5C3945A61
:1003900000F00740FFFFFFFFFFFFFFFFFFFFFFFF32
:1003A000FFFFFFFFFFFFFFFFFFFFFFFFFFFFFFFF5D
:1003B000FFFFFFFFFFFFFFFFFFFFFFFFFFFFFFFF4D
:1003C000FFFFFFFFFFFFFFFFFFFFFFFFFFFFFFFF3D
:1003D000FFFFFFFFFFFFFFFFFFFFFFFFFFFFFFFF2D
:1003E000FFFFFFFFFFFFFFFFFFFFFFFFFFFFFFFF1D
:1003F000FFFFFFFFFFFFFFFFFFFFFFFFFFFFFFFF0D
:10040000FFFFFFFFFFFFFFFFFFFFFFFFDEF9FFFF23
:1004100010B5054C237833B9044B13B10448AFF33E
:1004200000800123237010BD3092FF1F00000000E8
:10043000A8240100084B10B51BB108490848AFF3C8
:1004400000800848036803B910BD074B002BFBD0A0
:10045000BDE81040184700BF000000003492FF1FA5
:10046000A82401003092FF1F00000000F0B400F14A
:100470003C06174F00243146031F00F17C0243F86D
:10048000044FB34241F8047F4FF0000542F8044F97
:10049000F5D100230F4A1049C0F8C050C0F8C4502D
:1004A000C0F8C850C0F8CC50C0F8D050C0F8E050E8
:1004B000C0F8D420C0F8DC20C0F8D81080F8E830AC
:1004C00080F8E93080F80031C0F80C31F0BC70479A
:1004D0000000A040000048430000C8C22DE9F041E0
:1004E0008046CE1D00F1C00400F1D00716F8010FC0
:1004F00028380BF0E1FE094944F8040F05460CF0DA
:10050000EBF838B1B8F914010BF0D6FE29460BF020
:100510001FFE2060BC42E9D1BDE8F081000020C28E
:100520002DE9F043814683B006290ED8DFE811F0AB
:100530004E0007005D009000C500FA003800D9F8B1
:10054000081111B9002B00F02281D9F8004009F1FF
:100550004006C84609F18005002701E058F8044F1D
:10056000306821460CF0B8F80137214628B1D9F897
:10057000E4000CF09DF800B13460214628680CF0CE
:100580008DF80436984920B120460CF0A5F800B14A
:100590002C60102F05F10405E0D103B0BDE8F08315
:1005A000D9F808110029D0D1002BCED1537A107A76
:1005B00003F03F0300EB03200BF07EFE8B490BF0B2
:1005C00083FFD9F80040C9F83C00C0E7557A117A9A
:1005D000937AD07AD9F8004001EB052202EB03436D
:1005E00003EB0063C9F80C31B1E7D9F80811002911
:1005F000ABD1002BA9D1537A107A019203F03F03BB
:1006000000EB03200BF058FE78490BF05DFF019AD8
:10061000C9F80C00D37A907A03F03F0300EB032073
:100620000BF04AFE71490BF04FFF019AC9F8100018
:10063000537B107B03F03F0300EB03200BF03CFEE9
:100640006A490BF041FFD9F80040C9F814007EE771
:10065000D9F8081100297FF478AF002B7FF475AF2B
:10066000537A107A019203F03F0300EB03200BF062
:1006700023FE5E490BF028FF019AC9F81800D37ACF
:10068000907A03F03F0300EB03200BF015FE57496F
:100690000BF01AFF019AC9F81C00537B107B03F082
:1006A0003F0300EB03200BF007FE50490BF00CFF5B
:1006B000D9F80040C9F8200049E7D9F80811002905
:1006C0007FF443AF002B7FF440AF537A107A01924E
:1006D00003F03F0300EB03200BF0EEFD43490BF06A
:1006E000F3FE019AC9F82400D37A907A03F03F030D
:1006F00000EB03200BF0E0FD3C490BF0E5FE019A16
:10070000C9F82800537B107B03F03F0300EB032064
:100710000BF0D2FD35490BF0D7FED9F80040C9F8EF
:100720002C0014E7D9F8081100297FF40EAF002B34
:100730007FF40BAF537A107A019203F03F0300EB82
:1007400003200BF0B9FD29490BF0BEFE019AC9F850
:100750003000D37A907A03F03F0300EB03200BF0D4
:10076000ABFD22490BF0B0FE019AC9F83400537B6F
:10077000107B03F03F0300EB03200BF09DFD1B49B2
:100780000BF0A2FED9F80040C9F83800DFE6537A32
:10079000107A019203F03F0300EB03200BF08CFD75
:1007A00012490BF091FE019AC9F80000D37A044671
:1007B000907A03F03F0300EB03200BF07DFD0B4923
:1007C0000BF082FE019AC9F80400537B107B03F002
:1007D0003F0300EB03200BF06FFD04490BF074FEA8
:1007E000C9F80800B3E600BF0000A04000007A444A
:1007F00090F8F000704700BF90F8EC00704700BF21
:1008000090F8F400704700BF90F8F800704700BF00
:10081000102994BF50F82100002070472DE9F041C5
:100820000B4E8046041F00F12C0754F8045F31463C
:1008300028460BF033FF30B1D8F8E41028460BF00F
:100840004BFF00B12E46BC42EFD13046BDE8F081EF
:10085000000020412DE9F041D0F8E4704FF000088D
:10086000041F00F13C0654F8045F394628460BF09B
:1008700033FF084948B128460BF010FF414620B12C
:1008800028460BF029FF00B1A846B442EBD1404600
:10089000BDE8F0810000A0402DE9F047D0F8E470F9
:1008A00082464FF00009041F00F13C064FF000089B
:1008B00054F8045F394628460BF00EFF0C4950B13E
:1008C00028460BF0EBFE30B1484629460BF040FCC1
:1008D00008F101088146B442EAD1CAF804814046D1
:1008E0000BF0EAFC014648460BF0EEFDBDE8F08750
:1008F0000000A040D0F80401704700BFD0F8080104
:10090000704700BF38B5D0F8C850D0F8C440294669
:1009100020460BF0C3FE00B92C46204638BD00BF70
:1009200038B5D0F8C850D0F8C440294620460BF05E
:10093000D3FE00B92C46204638BD00BF70B5D0F8B4
:10094000C4401249054620460BF0C6FED0B12046F1
:1009500000210BF0FDFB01240646D5F8C8500B49D9
:1009600028460BF0B9FE28B1304629460BF0F0FBC3
:100970000134064620460BF09FFC014630460BF042
:10098000A3FD70BD00260446E7E700BF000020C2BB
:100990002DE9F8434FF00008D0F8E470C0F8C080AB
:1009A0008146041F00F13C0654F8045F394628468E
:1009B0000BF092FE084950B128460BF06FFE30B1A3
:1009C000404629460BF0C4FB8046C9F8C000B4423B
:1009D000EAD14046BDE8F8830000A04003299ABF51
:1009E00000EB8100D0F8C400002070473E2998BF7A
:1009F00080F80011704700BFD0F80C01704700BFAD
:100A000090F8E800704700BF90F8E900704700BF19
:100A1000C0F8FC10704700BF80F8E810704700BFB6
:100A200080F8E910704700BFC0F8E410704700BFBD
:100A3000A0F81411704700BF70B500F58A4506464E
:100A4000143500F12C04204604F58C74FFF70EFDDC
:100A5000AC42F8D106F5A275012428460021FFF723
:100A6000DBFF214628460134FFF7C0FF3F2C05F588
:100A70008C75F2D144F21C5400250548054A064BFA
:100A8000355500217061B161F2613362304670BD4D
:100A900000007A44000048430000C8C270B500F569
:100AA0008A46143600F5A274002508E00125204688
:100AB000002104F58C74FFF7B3FFB4420AD020463E
:100AC000FFF79EFF0028F2D02046FFF79DFF002889
:100AD000ECD170BD284670BD70B500F5B0560C362F
:100AE00000F5A27403E004F58C74B4420CD02046E7
:100AF000FFF786FF05460028F5D02046FFF77CFF6C
:100B0000C307F0D5284670BD0025284670BD00BF3C
:100B10002DE9F04144F2205300F58A463746002281
:100B20008046C2501436203700F5A27403E004F565
:100B30008C74B4420ED02046FFF762FF0028F6D036
:100B400020463D68FFF7D6FE04F58C742844B44275
:100B50003860F0D144F2205358F80300BDE8F0812A
:100B600044F21853C058704738B50C6804F00F04AD
:100B70004FF48C75013405FB04002C3015461A46E1
:100B8000FFF7ACFC012D00D038BD06480AF03AF85A
:100B9000214604480AF086F80B210348BDE8384096
:100BA00009F09ABDD487FF1F18090100F0B50D6840
:100BB00005F00F0405F0F005402D83B00F46064602
:100BC00004F1010446D01FDD602D3DD0702D37D0DB
:100BD000502D3BD00D2C01D8062D1DDD4FF48C730C
:100BE00003FB04642C3420460121FFF715FF204647
:100BF0000121FFF715FF337820463A46294603B016
:100C0000BDE8F040FFF78CBC202D21D0302D19D04D
:100C1000002DDFD10D2CE1D8012ADFD121460E486D
:100C200001920AF03FF8019A0C48114609F054FD70
:100C3000294609480AF036F8074809F0E3FFCDE7EE
:100C40000625E7E70225E5E70525E3E70425E1E7D3
:100C50000125DFE70325DDE7D487FF1F2409010015
:100C60002DE9F043002383B00646436000F5A274EB
:100C7000012504E001353F2D04F58C7466D0204633
:100C8000FFF7BEFE0028F5D04E4806F01DFB2946B2
:100C90004D4806F019FB2046FFF77AFE0AF0B6FE33
:100CA00002460B46494806F00FFB2046FFF7B6FD0B
:100CB00080462046FFF7CEFD074640460AF0A6FED6
:100CC0008046384689460AF0A1FE42464B46CDE9A9
:100CD00000013F4806F0F8FA00212046FFF77EFEAB
:100CE000012180462046FFF779FE074640460AF07C
:100CF0008DFE8046384689460AF088FE42464B46BD
:100D0000CDE90001334806F0DFFA2046FFF740FE48
:100D1000014670680BF01CFA70602046FFF7F2FD88
:100D2000F1690BF0BBFC002833D12046FFF7F8FD3A
:100D3000316A0BF0D1FC00289CD02046FFF7F0FD73
:100D400001353F2D306204F58C7498D1B0680BF0FA
:100D5000B3FA014670680BF0B7FBB16970600446E6
:100D60000BF0BAFC00B1B461716920460BF096FC3F
:100D700000B174610B2007F0E9FF44F21C53F35CEF
:100D800060B99BB144F21C530122F25403B0BDE898
:100D9000F0832046FFF7B6FDF061C6E753B944F291
:100DA0001C530022F25403B0BDE8F0830A4806F059
:100DB000B9FAE7E7094806F09FFA44F21C5300220B
:100DC000F254F0E7581001002809010064090100FD
:100DD00078090100A4090100C0090100F809010017
:100DE00070B5124BC36000F58A450646143500F510
:100DF000A27403E004F58C74AC4214D02046FFF7D3
:100E0000FFFD0028F6D02046FFF708FDF1680BF043
:100E100045FC0028EED02046FFF700FD04F58C7459
:100E2000AC42F060EAD1F06870BD00BF0000A040A5
:100E300070B5002300F58A4506460361143500F5B8
:100E4000A27403E004F58C74AC4214D02046FFF782
:100E5000D7FD0028F6D02046FFF7FCFC31690BF0E7
:100E60003BFC0028EED02046FFF7F4FC04F58C7420
:100E7000AC423061EAD1306970BD00BF4068704754
:100E800001707047816070472DE9F04100F58A4597
:100E9000884617461EB2143500F5A27403E004F527
:100EA0008C74AC4214D02046FFF7AAFD0028F6D07F
:100EB00020464146FFF7ACFD20463946FFF7B4FD1A
:100EC0002046314604F58C74FFF7B2FDAC42EAD1FE
:100ED000BDE8F0812DE9F84344F2185300F58A4546
:100EE0000027C7502E462B4A2B4B826280464FF07C
:100EF000000943621435183600F5A27403E004F5C6
:100F00008C74A54214D02046FFF77AFD0028F6D055
:100F10003368013333602046FFF710FD1F490BF0A3
:100F2000DBFB90B904F58C74A54207F10107EAD107
:100F300044F2185358F80300C01B0BF0BDF90146EA
:100F400048460BF0C1FABDE8F8832046FFF7F6FCEF
:100F5000014648460BF0FCF881462046FFF7E0FCCE
:100F6000D8F824100BF0B8FB70B92046FFF7CAFC84
:100F7000D8F828100BF092FB0028C0D02046FFF7CD
:100F8000C1FCC8F82800BAE72046FFF7C9FCC8F83A
:100F90002400EAE700C0794400C079C400008CC294
:100FA000406A7047806A7047F8B500F58A45074681
:100FB0000026143500F5A27403E004F58C74AC42ED
:100FC00010D02046FFF71CFD0028F6D02046FFF782
:100FD00063FC014630460BF0BBF804F58C74AC4260
:100FE0000646EED144F21853F8580BF065F9014665
:100FF00030460BF069FAF8BD2DE9F04F06468FB088
:1010000086488B4606F008F9844806F005F98348BF
:1010100006F002F944F218533046F2580D92FFF7E9
:1010200077FDB3680C93074670680AF0EFFC8046C2
:1010300030468946FFF7B8FF82463046F468356986
:10104000FFF748FF0AF0E2FCCDE90A0121462846F5
:101050000BF07CF872490BF083F90AF0D7FCCDE96C
:10106000080128460AF0D2FCCDE9060120460AF024
:10107000CDFCCDE9040150460AF0C8FC0D9A0C9B4A
:10108000CDE90201CDE90089114666483A4606F0ED
:10109000C3F8624806F0C0F806F5A2764FF00109E1
:1010A0004FF0000A07E009F10109B9F13F0F06F519
:1010B0008C7600F0AB803046FFF7A2FC0028F2D01F
:1010C0003046FFF795FB3046FFF796FB3046FFF7BB
:1010D00097FB3046FFF798FB0821534809F0FCFACC
:1010E0004946524809F0DEFDB9F1090F40F39180FD
:1010F00002214F4809F0F0FA3046FFF749FC0AF0A8
:1011000085FC5FFA8BF802460B46CDF80080474815
:1011100009F0D2FD0121474809F0DEFA55460024C6
:1011200020E00621444809F0D7FA29463F4809F053
:10113000B9FD0221414809F0CFFA21463046FFF7B8
:1011400067FB0AF063FCCDF8008002460B46374887
:1011500009F0B2FD01340121364809F0BDFA102C26
:1011600009D03D46092D05F10107DADC012134489B
:1011700009F0B2FAD5E72D4809F044FD09213148BC
:1011800009F0AAFA00213046FFF728FC0AF03EFCDD
:10119000022502460B460095244809F08DFD0A21E0
:1011A000294809F099FA01213046FFF717FC0AF0A7
:1011B0002DFC009502460B461C4809F07DFD0C21D4
:1011C000224809F089FA3046FFF716FC0023224630
:1011D0000146164809F026FD08211D4809F07CFA51
:1011E0003046FFF78BFB2246014600230F4809F0EB
:1011F00019FD09F101090D4809F004FDB9F13F0F8E
:101200000AF1100A06F58C767FF455AF0FB0BDE8F1
:10121000F08F01210A4809F05FFA69E758100100D0
:1012200000007A44A80C0100480D0100D487FF1F7C
:1012300060120100540D0100580D0100040F01005F
:10124000140F0100600D01006C0D0100780D01000C
:10125000880D01002DE9F04F85B000F5A2758A4692
:1012600003929B462E464FF0010806E008F1010864
:10127000B8F13F0F06F58C767BD03046FFF7C0FB08
:101280000028F3D000230A2251467D4809F0CAFC09
:1012900001217C4809F020FA03980AF0B7FB0023EB
:1012A0000246009376480B4609F006FD0121754879
:1012B00009F012FA5946724809F0F4FC012171480C
:1012C00009F00AFA41466E4809F0ECFC01216D482C
:1012D00009F002FA00244FF0020921463046FFF7D8
:1012E00097FA0AF093FBCDF8009002460B4664484B
:1012F00009F0E2FC01340121624809F0EDF9082C03
:101300004FF00207E9D100213046FFF767FB0AF0F2
:101310007DFB009702460B46594809F0CDFC0121A0
:10132000584809F0D9F901213046FFF757FB0AF078
:101330006DFB009702460B46514809F0BDFC0121A8
:10134000504809F0C9F939463046FFF747FB0AF023
:101350005DFB009702460B46494809F0ADFC08F1D9
:101360000108474809F04EFCB8F13F0F06F58C76AE
:1013700083D101274FF0000904E001373F2F05F525
:101380008C7579D02846FFF73BFB0028F5D0002369
:101390000A2251463C4809F045FC0121394807F032
:1013A000EBFF03980AF032FBCDF8009002460B46A3
:1013B000354809F081FC0121324807F0DDFF59462C
:1013C000314809F06FFC01212E4807F0D5FF39465E
:1013D0002D4809F067FC01212A4807F0CDFF0024C1
:1013E0004FF0020821462846FFF712FA0AF00EFBDA
:1013F000CDF8008002460B46234809F05DFC01341D
:101400000121204807F0B8FF082C4FF00206E9D16F
:1014100000212846FFF7E2FA0AF0F8FA00960246A1
:101420000B46194809F048FC0121164807F0A4FFB3
:1014300001212846FFF7D2FA0AF0E8FA00960246A0
:101440000B46114809F038FC01210E4807F094FFC3
:1014500031462846FFF7C2FA0AF0D8FA009602464B
:101460000B46094809F028FC0137074809F0CAFB78
:101470003F2F05F58C7585D105B0BDE8F08F00BF15
:10148000D487FF1F24090100C487FF1F0A4A0B49A4
:10149000106ED36D03FB00F34FF47A7000FB03F082
:1014A000642310B50B600AF007FF0549054C0BF0EB
:1014B0000BF8206010BD00BFDCD9FF1F3087FF1F75
:1014C000E4388E3E04DBFF1F38B5044608460D465F
:1014D0000BF036FF2368024629465B682046984792
:1014E0000546204609F08EFB284438BD2DE9F04121
:1014F0004548464E464F474C05F08EFE464B474901
:10150000474A4848596011251D70474D4749DA60E0
:101510001E6100224FF4FA769F619C62444F454C55
:101520001D63454DD861D9624FF07C5043499A63A1
:101530009E863C220C26DF631C64414F414C5D6556
:10154000414DD864196502200121A3F8A4209E65AD
:10155000002264265F62C3F8C4404FF496773224B9
:101560001D625D615D6440F61C45587058721972C9
:10157000D96583F848201E66DF665F669C664FF07B
:101580000A081D6741F2040CC3F88020C3F88400E8
:10159000C3F88820C3F89040C3F8AC404FF05A0E0F
:1015A000C3F8A820C3F8B410C3F8B8004FF47A7792
:1015B000C3F8BC6083F8C810244E83F8C910244DCA
:1015C00083F8CA2041F28831A3F8CC20FF2440F2EE
:1015D000D6620520C3F87480C3F878C0C3F87CE0F5
:1015E000C3F89470C3F89860C3F89C50C3F8B04037
:1015F000A3F8C200C3F88C10A3F8C010A3F8A02071
:10160000A3F8A220BDE8F081940D01000000404045
:1016100033338340CDCCCC3DDCD9FF1F20A1070064
:1016200066668640CDCC4C40000020C1000082425E
:10163000000020420000A0400AD7233D9A9979403B
:10164000333373409A99993ECDCC4C3E00006842AA
:1016500000C02044F0B5002185B0112007F084FBC4
:101660000021102007F080FB0021122007F07CFBF6
:101670000021132007F078FB01210B2007F074FBF9
:1016800001210C2007F070FB0121142007F06CFBF6
:101690000121152007F068FB0121162007F064FBEB
:1016A0000121172007F060FB0121052007F05CFBFA
:1016B000974C984D0121062007F056FB01210D2083
:1016C00007F052FB20880AF0F3FD0146162007F0D0
:1016D000B5FA20880AF0ECFD0146172007F0AEFAB3
:1016E00020880AF0E5FD0146052007F0A7FA2088CA
:1016F0000AF0DEFD00240146062007F09FFA009460
:101700002346854A8549864806F006F8E6B2324601
:101710008049834805F0AEFF2B797E4980486FF3FE
:101720000003013432462B7105F09AFF082CEDD1ED
:101730000924E6B232467749794805F09BFF2B79B8
:101740007449774843F00103013432462B7105F0A8
:1017500087FF0D2CEDD1734C23681021D3F8840042
:1017600006F0ACFC23681021D3F8840006F03AFDA3
:1017700023680221D3F8840006F0F6FB23680221D7
:10178000D3F8840006F07EFD23680F21D3F884008F
:1017900006F066FE0C21644808F09EFF634809F0DD
:1017A00031FA1121624808F097FF604809F02AFADF
:1017B00040F2836007F0BEFB5C4809F023FA172172
:1017C0005C4808F089FF594809F01CFA5A4B1B780D
:1017D0009A0600F1D580584B1B781B0700F1DC807E
:1017E000554B1B785F0700F1E380534B1B789E0736
:1017F00000F1EA80514B1B781D0600F1F1804F4B40
:101800001B785C0600F1F8804C4B1B78980600F1C1
:10181000FF804A4B1B78590700F10681474B1B7824
:101820001A0700F10D81454B1B789B0700F11481CD
:101830003E4809F0E7F972B6414A4CF220534DF6A2
:1018400028112024138023461180013BFDD13D4DFA
:101850003D483E4900234FF480562E8003800B8084
:1018600032F80E3C9BB243F0D30322F80E3C62B632
:101870009D2007F00BFF21463548364D08F02CFF20
:101880002A4809F0BFF905F1D0062F462C46601B07
:1018900006F070FF04F8010BB442F8D13B78112B2D
:1018A00001D0FFF723FE042005F00AFC2A4B2B4849
:1018B0002B4D00221A6005F0D5FB01210D2007F009
:1018C0003FFAF96D2748FFF7DDFAB7F9CC30FA6C2B
:1018D00097F848102348FFF7D7FA2348234B0468AA
:1018E00003941B682249234A039E006802901268F1
:1018F000214C2E6081FB0301DB172048A3EB211351
:101900000299216013FB02F3038005B0F0BD00BF14
:101910003487FF1FB4DAFF1FF0DCFF1F20A1070090
:1019200054DBFF1F34DBFF1FB40D0100D487FF1F02
:10193000C40D0100D80D010001F0074000F0074080
:101940000E200540042005400620054016200540D5
:10195000DC0E0100DCD9FF1F8492FF1FFC92FF1FE9
:1019600034D9FF1FFC93FF1FFCDCFF1F5487FF1FB0
:101970001F85EB515087FF1F3CD9FF1FECDAFF1F7B
:101980002121394808F0A8FE384809F03BF9384BC6
:101990001B781B077FF524AF0C21364808F09CFE0E
:1019A000324809F02FF9324B1B785F077FF51DAFE6
:1019B0000E21314808F090FE2C4809F023F92C4BF9
:1019C0001B789E077FF516AF17212C4808F084FE80
:1019D000264809F017F92A4B1B781D067FF50FAF33
:1019E0000E21284808F078FE204809F00BF9244B16
:1019F0001B785C067FF508AF1221234808F06CFEC7
:101A00001A4809F0FFF81E4B1B7898067FF501AFC6
:101A100013211E4808F060FE144809F0F3F8184B33
:101A20001B7859077FF5FAAE1C21194808F054FEBF
:101A30000E4809F0E7F8124B1B781A077FF5F3AE52
:101A40001921144808F048FE084809F0DBF80C4B4F
:101A50001B789B077FF5ECAE18210F4808F03CFE81
:101A6000024809F0CFF8E3E6F00D0100D487FF1F2C
:101A700001F00740140E0100240E0100340E010095
:101A800000F007404C0E01005C0E0100700E0100DA
:101A9000840E0100A40E0100C00E010070B5464C7A
:101AA000464D4748E66800232B70FFF7C1F9014611
:101AB00030460AF0F3FD08B104232B704048FFF7CD
:101AC0008FF921690AF0EAFD18B12B7843F0100371
:101AD0002B703B48FFF764FAE16A0AF0FDFD18B18C
:101AE0002B7843F040032B70002335486B70FFF7D1
:101AF00059FA216B314E0AF0D1FD08B10123737000
:101B000000232F48EB70FFF793F905462C482B4E26
:101B1000FFF766F9014628460AF018FB616C0AF0E7
:101B2000DBFD08B10123F370264D254800232B70FF
:101B3000FFF77EF9A16A0646E0680AF007FB014656
:101B400030460AF0C9FD08B104232B701C48FFF78A
:101B500047F9A16A064620690AF0FAFA01463046BA
:101B60000AF09CFD18B12B7843F010032B70144839
:101B7000FFF716FA216C0646E06A0AF0E7FA01461A
:101B800030460AF0A9FD18B12B7843F040032B70C2
:101B900000230B486B70FFF705FA216C0546206B9C
:101BA000084C0AF0D5FA014628460AF077FD08B13C
:101BB0000123637070BD00BFDCD9FF1FC4D9FF1FB4
:101BC000FC93FF1F5092FF1F514B1B68002B74D0DA
:101BD000F0B5504D2B680533B3F57A7F83B040F3F1
:101BE0008E80002300272B604B4CD4F8AC000AF009
:101BF00063FB0646D4F8B0000AF05EFB31460AF0FB
:101C0000A5FA39460AF0ACFB44490AF05DFC3146BE
:101C10000AF09EFA0AF06AFD0146062006F010FF5F
:101C200002213F4808F058FD3E4808F0EBFF06212E
:101C30003D4808F051FD28680AF03EFB3B490AF098
:101C40008FFB09F0E3FE022602460B46009635485C
:101C500009F032F80D21364808F03EFDD4F8AC000A
:101C60000AF02AFB074628680AF026FB2F490AF0EB
:101C700077FB0546D4F8B0000AF01EFB39460AF09F
:101C800065FA014628460AF06BFB24490AF01CFC61
:101C900039460AF05DFA09F0B9FE009602460B4695
:101CA000204809F009F831461D4808F015FD1D4887
:101CB00003B0BDE8F04008F0A5BF174B1D4AD3F8AC
:101CC000AC10D3F8B03012685B1A632B0BDD1A48E6
:101CD00003FB02F380FB0302DB17C3EB621319441F
:101CE000062006F0ADBE154803FB022380FB03026D
:101CF000DB17C3EB22121144062006F0A1BE1846E2
:101D00002B600AF0D9FA09490AF02AFB07466BE76B
:101D10008092FF1FACDAFF1FDCD9FF1F0000C84212
:101D200060120100D487FF1F000F0100CDCCCC3D15
:101D3000080F01003087FF1F1F85EB51CBF08D2866
:101D400030B5B448B44C85B008F05CFFB14808F039
:101D500059FFB04808F056FF0D21B04808F0BCFC10
:101D6000D4F8A830012B11D0AD4CAA48217800231B
:101D70000A2208F057FF2378052B67D8DFE813F015
:101D8000310136013B01400145012C010921A548E3
:101D900008F0A2FCA448FFF723F821690AF07EFCB2
:101DA00018B10F21A14808F097FC9F48FFF740F8B1
:101DB000E1680AF091FC18B10E219D4808F08CFCF6
:101DC0009948FFF735F805469748FFF709F80146A7
:101DD00028460AF0BBF9616C0AF07EFC18B11121AB
:101DE000944808F079FC9048FFF774F8E16A0AF02B
:101DF00073FC18B10C21904808F06EFC8A48FFF77C
:101E000069F8216B0AF04AFC18B10D218B4808F0E3
:101E100063FC8B4B84481B68012B00F07481FEF738
:101E2000DFFF21697C4D0AF057FC78B17E48FEF750
:101E3000FFFFE9680AF032FC40B1794B1B78052BB3
:101E400000F0728108217F4808F046FC02217E489C
:101E500008F042FC122006F079FF012800F01E81F4
:101E6000112006F073FF012800F02281774B1C68D7
:101E7000012C00F0268102217348754C08F02CFCDF
:101E8000744B6448196808F00DFF624808F0BAFE08
:101E90000421714808F020FC0B2006F057FF0023B6
:101EA00001460A225B4808F0BDFE0C2006F04EFFFA
:101EB000002301460A22574808F0B4FE142006F019
:101EC00045FF002301460A22524808F0ABFE1520C8
:101ED00006F03CFF0A22002301464E4808F0A2FE0D
:101EE00006215E4808F0F8FB2368DD074FF001018A
:101EF0004CBF5B485B4808F0EFFB236898074FF046
:101F000001014CBF5648574808F0E6FB23685A07C2
:101F10004FF001014CBF5248524808F0DDFB2368E6
:101F20001B074CBF4E484F48012108F0D5FB042148
:101F30004D4808F0D1FB112006F008FF00230146B0
:101F40000A22344808F06EFE102006F0FFFE00233F
:101F500001460A222F4808F065FE122006F0F6FE20
:101F6000002301460A222B4808F05CFE132006F0ED
:101F7000EDFE0A2200230146264808F053FE1821F0
:101F80003A4808F0A9FB3A4B18680AF095F9394924
:101F90000AF0E6F909F03AFD002402460B460094E7
:101FA0001C4808F089FE1D21334808F095FB334B8F
:101FB00018680AF081F92F490AF0D2F909F026FDD4
:101FC000009402460B46134808F076FE02212C4886
:101FD00008F082FB05B030BD07212A4808F07CFBE1
:101FE00034E70621284808F077FB2FE70721274828
:101FF00008F072FB2AE70721254808F06DFB25E76A
:102000000821244808F068FB20E70B21224808F04B
:1020100063FB1BE7D487FF1FDCD9FF1F180F0100EC
:10202000D0D9FF1F280F0100FC93FF1F340F0100C0
:10203000440F0100540F0100680F0100780F0100E8
:102040008C92FF1FAC0F010060120100C8DAFF1F65
:1020500024DBFF1F5C92FF1F241001002C100100E5
:1020600034100100BC1E01003810010040100100B6
:102070007C92FF1FCDCCCC3D5C1001001CDBFF1F10
:102080007C100100E80F0100B80F0100C00F010033
:10209000D40F0100DC0F0100C80F01000E212548FC
:1020A00008F01AFB112006F051FE01287FF4DEAE85
:1020B0000A21214808F010FB204B1C68012C7FF4FA
:1020C000DAAE11211E4808F007FB21461D4808F032
:1020D00003FB1D4B1D4A1B680393039B1068C01A2A
:1020E0000AF0E6F81A490AF03BF909F08FFC0025DE
:1020F00002460B460095174808F0DEFD21461148C0
:1021000008F0EAFAB7E6FEF76BFE616A0AF0E4FA55
:1021100000283FF497AE16210F4808F0DDFA0A2197
:102120000E4808F0D9FA91E60A210C4808F0D4FAD2
:102130008CE600BFF00F010000100100C8DAFF1F9D
:102140000C10010020100100FCDCFF1FF8DAFF1F5B
:102150006F12833AD487FF1F880F0100A00F010080
:102160002DE9F04F904C914FD4F88430012B8DB075
:1021700000F04281032B52D08D4E8E4DD4F880302A
:102180008D48012B09BF2968296801F100412960A8
:1021900006F0E2F93368002B40F0C680864806F06E
:1021A000B1F9D4F884303860012B064600F0C980BC
:1021B00082490AF091FA78B9814930460AF06EFAFC
:1021C00050B9804A804B12680B920B9A1A60002318
:1021D0002B600DB0BDE8F08FDFF8E8817A4CD8F8BD
:1021E00000300A930A982368784FC01A0AF060F802
:1021F00031460AF0B5F876490AF066F974490AF0F2
:1022000063F9396809F0A4FFD8F800300993099BF5
:102210002360002338602B600DB0BDE8F08FDFF83D
:10222000D0816C4DD8F80000614E012300220F21AF
:102230002B6005F011FE2B68012B336800F0FA804B
:10224000002B40F07E81D8F80030DFF8A891D3F859
:102250008400436B19698DB2C9F8005005F082FE05
:10226000B4F8A22040F6E44303FB05F1B1FBF0F023
:10227000801A00B20AF020F857494E4D8246D4F831
:1022800098000AF06DF8014650460AF01DF9D9F899
:1022900000302860632BDFF85CA100F34581002348
:1022A0002B603368002B3FF469AF02214B4808F0E4
:1022B00013FAD8F80030D9F80020D3F8840040F69B
:1022C000E44303FB02F805F04DFEB8FBF0F009F023
:1022D000EFFF8046B4F8A20009F0EEFF0146404649
:1022E00009F034FF09F092FB4FF0020802460B465A
:1022F000CDF800803A4808F0DFFC4146374808F046
:10230000EBF9286809F082FBCDF8008002460B4605
:10231000334808F0D1FC4146324808F0DDF9414627
:102320002E4808F0D9F929E7234806F0EBF809F020
:102330006DFB022602460B460096294808F0BCFCBD
:102340002CE7244B1B68012B00F03481022B7FF417
:102350003EAF25490AF0C0F930B9244930460AF0A9
:102360009DF9002800F05581DFF85880164CD8F808
:102370000030079307982368144FC01A09F098FF9C
:10238000314609F0EDFF12490AF09EF810490AF0B3
:102390009BF8396809F0DCFED8F800300693069BFC
:1023A0003860236013E700BFDCD9FF1FC8D9FF1FC7
:1023B000C0D9FF1F18DBFF1FCCDAFF1F0000FA4354
:1023C0000000FAC3FCDCFF1F5892FF1F04DBFF1F55
:1023D00000007A444887FF1F17B7D1386012010008
:1023E000D487FF1FBC10010000C82F4800A08CC676
:1023F00034DBFF1F40DBFF1F3D68A84928460AF079
:102400004DF930B12846A6490AF066F900287FF454
:1024100006AFDFF8CC82A34DD8F80000A24E02230D
:1024200000220E212B6005F017FD2B68012B33686D
:102430007FF406AF002B40F0F380D8F80030DFF8CF
:10244000B092D3F88400436B19691FFA81FBC9F875
:1024500000B005F087FDB4F8A030944D40F6E44A92
:102460000AFB0BFBBBFBF0F0C01A00B209F024FF23
:102470008F498346D4F89C0009F072FF0146584604
:102480000AF022F8D8F80020D9F800302860D2F8F5
:1024900084000AFB03FA05F065FDB4F8A030BAFB2E
:1024A000F0F00FFA80FAC3EB0A03002BB4F8C22055
:1024B000B8BF5B429342BCBF00232B603368002B44
:1024C0003FF45CAE02217B4808F006F9D8F80030F2
:1024D000D9F80020D3F8840040F6E44303FB02F867
:1024E00005F040FDB4F8A010B8FBF0F000B2411ABE
:1024F000714808F0D7FB02216E4808F0EDF8286813
:1025000009F084FA4FF0020802460B46CDF800802D
:10251000694808F0D1FB0321684808F0DDF841461E
:10252000644808F0D9F829E6D8F80030D3F88400D8
:1025300005F018FDDAF8003064389842FFF4AFAEC9
:10254000AFE65D48DFF8A891DFF894A108F05AFBE8
:102550000C215B4808F0C0F80C215A4808F0BCF880
:10256000D8F800203368D2F88400426B11698DB22C
:10257000C9F80050002B3FF471AE05F0F3FC40F6B3
:10258000E44100230A2201FB05F1B1FBF0F14A48C6
:1025900008F048FB0221474808F09EF8B4F8A21062
:1025A000454808F07FFBDAF80030D9F80050D3F83E
:1025B000840053E644490AF08FF858B9434930463D
:1025C0000AF06CF830B9424A424B12680592059AFB
:1025D0001A60FCE5DFF8F8803E4CD8F80030049330
:1025E000049823683C4FC01A09F062FE314609F096
:1025F000B7FE3A4909F068FF384909F065FF3968C4
:1026000009F0A6FDD8F800300393039B38602360DF
:10261000DDE52F4A2F4B12680892089A1A60D6E51A
:102620002548DFF8CC902E4D08F0ECFAD4F8843031
:10263000012B4FF00B010CBF2A482B4808F04CF837
:102640000C21204808F048F8D8F800203368D2F868
:102650008400426B11691FFA81FBC9F800B0002B9E
:102660003FF4F7AE05F07EFC40F6E44100230A2279
:1026700001FB0BF1B1FBF0F10F4808F0D3FA012197
:102680001A4808F029F8B4F8A0100B4808F00AFB23
:102690002B68D9F800B0D3F88400DAE600709446CD
:1026A000007094C64887FF1FC0D9FF1F18DBFF1FAB
:1026B00017B7D13860120100D487FF1FA81001009E
:1026C000AC100100981001000000FA430000FAC3AA
:1026D000FCDCFF1F5892FF1F04DBFF1F00007A4441
:1026E00034DBFF1F801001008C100100140F01006B
:1026F00040DBFF1F2DE9F04F9B4D2B6885B0002B71
:102700007CD09A4CDFF86C82994FDFF8B092D4F805
:102710008830964E012B00F08C80D7F800A0D6F8B8
:1027200060B0F56D934E05FB0BF54FF47A7000FB2E
:1027300005F009F0C1FD90490546504609F010FE2C
:10274000294609F0C1FE8D4909F00AFE09F0CEFFC5
:102750006328C8F800004CDD2846874909F0B4FE1C
:10276000642338603360D9F80030002B3ED0D4F8B1
:1027700084307E4D012B00F08A80032B00F0E28034
:10278000022B00F0E68002217D4807F0A5FF7D4B7B
:10279000186809F03BF9022402460B4600947A4877
:1027A00008F08AFA2146794807F096FF21467448D6
:1027B00007F092FFD8F80010734808F073FA06216A
:1027C000734807F089FF38686B4909F0C9FD09F0C3
:1027D0001DF9009402460B466B4808F06DFA032180
:1027E0006C4807F079FF684808F00CFA05B0BDE8BE
:1027F000F08F0028BCBF00233360B4E7664E5B4C0B
:1028000033680293029A42F228339A424CD83368D2
:102810000393039A42F210739A424ED8D4F8883048
:10282000DFF85081524FDFF89491504E012B7FF426
:1028300074AF5A48FEF7B8FB5949D6F870A0756FC7
:1028400009F08EFD09F078FFB26FF36FD4F860B035
:10285000CAEB02025B1B80B29A42CAEB0000C6BF01
:1028600003FB00000132584390FBF2F02844E56D71
:1028700000FB0BF005FB00F000EB8000400009F0CE
:102880001BFD3D4909F020FE824638604AE7454B72
:102890001B68012B4FF00A010CBF4348434807F067
:1028A0001BFFD5F8843068E73C48B4F9CC30E26CC3
:1028B00094F84810FEF7E8FAA9E73848FEF774FBE9
:1028C0003749276F666F09F04BFD09F035FFA26F9E
:1028D000E36FD21B9B1B80B29A42A0EB07003DDD49
:1028E00003FB0000531C90FBF3F31E44206EE36DCA
:1028F000DFF88080DFF8C490C8F8006000FB06F0C5
:1029000003FB00F000EB8000400009F0D5FC1A4901
:10291000174F09F0D9FDD9F80030386001222A603C
:10292000002B3FF4F4AE0221154807F0D5FE1648FF
:1029300008F068F959211E4807F0CEFE124808F049
:1029400061F9E4E610211B4807F0C6FED4F8843094
:1029500016E70721184807F0BFFE14E703FB00F352
:1029600093FBF2F31E44C1E7BCDAFF1FDCD9FF1F63
:1029700004DBFF1F3087FF1FE4388E3E0000C84293
:1029800060120100C8D9FF1FD487FF1FBC100100CF
:102990005011010058110100FCDCFF1FFC93FF1FC8
:1029A00000007A444887FF1F1C1101002811010014
:1029B000C010010034110100481101002487FF1FDD
:1029C00030B5112083B006F0C1F9012818D01220CB
:1029D00006F0BCF9012813D000210B2006F0B0F955
:1029E00000210C2006F0ACF90021152006F0A8F912
:1029F0002649274B0120002208701A6003B030BD21
:102A00000121152006F09CF9224A234C234B126821
:102A1000D4F88C1001921B68019A1D4D0B4493420F
:102A20004FF00201296005D901210C2006F088F938
:102A300003B030BDD4F8940009F03EFC184B19687F
:102A400009F02CFE0028EFD101210B2006F078F9C7
:102A500094F8C83003242C6043B10C4B02221A7046
:102A600000210C2006F06CF903B030BD122006F0F6
:102A70006DF9012808BF054B4FF0110008BF1C700D
:102A800006F064F90128EBD1E7E700BFD0D9FF1FBA
:102A9000F892FF1FFCDCFF1FDCD9FF1F34D9FF1F9A
:102AA000C8D9FF1FF0B5684E684D34682B689C424A
:102AB00087B039D014F0010155D014F0020149D08B
:102AC00014F004013DD0E3070ED52B68DF070BD4CB
:102AD0005F4F3A68002A00F082805E4B1B680193CA
:102AE000019B93426DD83468A0070DD52B689907D8
:102AF0000AD4594F3A68002A4CD0564B1B680393AE
:102B0000039B934238D8346862070DD52B685B0766
:102B10000BD4524F3A68002A7ED04E4B1B68059367
:102B2000059B934268D834680CB107B0F0BD2146CC
:102B3000162005F085FF2146172005F081FF07B01C
:102B4000F0BD052005F07CFF2B68346803F0FB0323
:102B50002B60B8E7172005F073FF2B68346803F08B
:102B6000FD032B60ACE7162005F06AFF2B68346884
:102B700003F0FE032B60A0E7394B1720D3F8901029
:102B800005F05EFF2B68346843F0020300222B60DF
:102B90003A60B9E7334808F035F80C21324807F0BD
:102BA0009BFD304808F02EF8FF21172005F048FF64
:102BB000284B2E4A19680291029912680A443A6019
:102BC0009CE7274B1620D3F8901005F039FF2B68AF
:102BD000346843F0010300222B603A6084E7FF2150
:102BE000162005F02DFF1B4B204A19680091009913
:102BF00012680A443A6071E7194B0520D3F8901027
:102C000005F01EFF2B68346843F0040300222B609C
:102C10003A60002C89D18AE7124807F0F3FF0C21B3
:102C2000134807F059FD0F4807F0ECFFFF2105207E
:102C300005F006FF074B0D4A1968049104991268C4
:102C40000A443A606AE700BFF892FF1F24DBFF1FC7
:102C5000B0DAFF1FFCDCFF1FC0DAFF1FC4DAFF1F62
:102C6000DCD9FF1FD487FF1F5C1101003887FF1FCD
:102C70006C1101002DE9F047534EDFF87081336885
:102C8000DFF86C91D3F88400504D0F2105F0E8FB7C
:102C90000023012222214E48C8F80030C9F8002044
:102CA00007F01AFDD8F80030132B20DC40F6E4477B
:102CB0003368B5F8A0A0D3F88400436B1C6905F015
:102CC00051F9A4B2012107FB04F4B4FBF0F441482C
:102CD0005444A5F8A04007F0FFFC642006F06CF80F
:102CE000D8F800300133132BC8F80030E0DDB5F818
:102CF000A030394A3948A2FB03129B1A02EB530356
:102D0000C3F30F131946A5F8A03007F0CBFF1D2120
:102D1000334807F0E1FC0221324807F0DDFC2F4880
:102D200007F070FF00231A460E213068C8F8003003
:102D300005F092F8022322212548C9F8003007F057
:102D4000CBFCD8F80030132B20DC40F6E447336886
:102D5000B5F8A290D3F88400436B1C6905F002F922
:102D6000A4B2012107FB04F4B4FBF0F419484C446D
:102D7000A5F8A24007F0B0FC642006F01DF8D8F8D2
:102D800000300133132BC8F80030E0DDB5F8A23075
:102D9000114A1248A2FB03129B1A02EB5303C3F31E
:102DA0000F131946A5F8A23007F07CFF1D210E482D
:102DB00007F092FC02210B4807F08EFC0748BDE8A3
:102DC000F04707F01FBF00BF34DBFF1FDCD9FF1F38
:102DD0007C110100C011010087611886D487FF1F94
:102DE000A011010060120100C41101006492FF1FD4
:102DF0004887FF1F2DE9F047C64DD5F8B830062BA0
:102E000000F0AE81C44BC54C1B68A86D40F2513137
:102E100008222160E271002B00F0778109F04CFA62
:102E2000696A064609F09CFABD49BA4F09F098FA5A
:102E300009F082FC80B203126372BA4ABA4B12687C
:102E40001B68E9692072A37230461B121612E372E6
:102E50002273667309F084FAB149B04E09F080FA22
:102E600009F06AFC83B21A123146B048A373E273C8
:102E700004F04AFEAE4AAF4B12681988A172D3B271
:102E8000237203EB83035B00237302EB820343F3A0
:102E9000D7134FEA212E12124FF008084FF0000905
:102EA00031466373A14884F80BE040F255336272F7
:102EB000236084F8078084F80E9084F80F9004F063
:102EC00023FE40F256339C48236084F80780FDF7C8
:102ED000D5FF9A4909F044FA09F02EFC2072964871
:102EE000FDF7CCFF954909F03BFA09F025FC944A1F
:102EF0009249C0F307231068637209F0E5FA09F0FC
:102F0000F5FB40FA08F3A0728B48E372FDF7E2FF8D
:102F1000834909F025FA09F0E9FB20738648FDF79B
:102F2000D9FF7F4909F01CFA09F0E0FB40F30720C4
:102F3000314660737D4884F80E9084F80F9004F059
:102F4000E3FD022005F038FF7E4A7F4B11782172A5
:102F5000517890786172D178A0721A789878E1727D
:102F6000597822736173DA78A07340F25A3331468C
:102F70006E48E273236084F8078004F0C5FD734B4C
:102F80006A481A7822725A7862729A78A272DA784B
:102F9000E2721A7922735A7962739A79DB79E37350
:102FA000314640F25E33A273236084F8078004F058
:102FB000ABFD022005F000FF654B5C481A782272D9
:102FC0005A7862729A78A272DA78E2721A79227367
:102FD0005A7962739A79DB79E37331464FF45C7303
:102FE000236084F80780A27304F08EFD594B1B68A0
:102FF000012B00F06F82022005F0DEFE082640F271
:1030000073334D482360E671FDF7EAFE524909F03B
:10301000A7F909F091FB20724748FDF7E1FE4E4900
:1030200009F09EF909F088FBC0F307234248637258
:10303000FDF7FEFE484909F093F909F07DFBA07207
:103040003D48FDF7F5FE444909F08AF909F074FBA3
:10305000C0F307233848E372FDF7A4FF3F4909F0A6
:1030600077F809F069FB20733348FDF79BFF3B4974
:1030700009F06EF809F060FBC0F307232E48637374
:10308000FDF78EFF354909F063F809F055FBA07391
:103090002948FDF785FF314909F05AF809F04CFB42
:1030A0001E49C0F307232148E37304F02DFD0220DD
:1030B00005F082FEE96D2B6E022211FB03F3104630
:1030C00040F27931C3F30725E27121602372657202
:1030D00005F072FE40F2723317482360E671FDF787
:1030E0003FFD20721448FDF73BFD002340FA06F235
:1030F0006272A372E37223736373A373E37307496A
:103100000A48BDE8F04704F0FFBC09F0D5F8A9690A
:10311000064687E6DCD9FF1F8C92FF1F6892FF1FCF
:10312000000020411CDBFF1F7C92FF1F54DBFF1FB0
:103130003087FF1F3687FF1FFC93FF1F0000C84228
:10314000C8D9FF1FC4D9FF1F5092FF1F5887FF1F08
:103150006087FF1FC8DAFF1F00007A44339388435B
:10316000CD4CCE48002608274FF4C36321464FF0CC
:1031700059094FF044084FF0420A236084F80A903E
:1031800084F80B80E771267226736673A673E67364
:1031900084F809A004F0B8FC022005F00DFE4FF4FD
:1031A000BB632146BD48236084F80A9084F80B80F5
:1031B000E771267284F809A026736673A673E67316
:1031C00004F0A2FC022005F0F7FDE96D2A6ED5F8A7
:1031D00058E0B248E77101FB02F312FB01F203EB86
:1031E000C30103EB810302EBC2010EFB03F302EB0D
:1031F00081024FF4AB68032112FB0EF24FF0050C75
:103200003B414FF0070EC4F8008021724FF01209C5
:1032100021464FF0040884F80EC02373627384F8CB
:103220000FE0A67284F8099084F80B8004F06CFC1F
:10323000022005F0C1FD34224F234FF4B36E214626
:103240009648E272E373C4F800E0E7712672667292
:1032500084F80A902673667384F80E8004F054FC98
:10326000022005F0A9FD8E4BE7711B68A86D4FF495
:1032700056722260002B40F0658109F01DF8A969A3
:10328000064609F06DF8874909F06AF809F054FA22
:1032900080B240FA07F360722372E969304609F0A0
:1032A0005FF8804909F05CF809F046FA7E4B7F4AE6
:1032B0001B6812687849637385B216121B122F12AD
:1032C00076482373E273E572A772A67304F01CFCC0
:1032D000022005F071FD764A764B16681D88764B04
:1032E00076491868E57206EB8603642202FB06F253
:1032F00003EB83039B0012122E124FF476770825FE
:1033000063722272A6722760E57109F029F809F04C
:1033100013FA83B243FA05F70026F9225E495F48A3
:103320006373A2732773E67304F0EEFB022005F0CB
:1033300043FD4FF48B604FF0120E5622782356490E
:1033400020603427554884F80AE0A273E373E571DE
:103350002672667226736673E77204F0D5FB02204C
:1033600005F02AFD4FF4A36355482360E571FDF78E
:1033700017FE4C4908F0F4FF09F0DEF9C0F307230B
:103380004F482372FDF70CFE464908F0E9FF09F0AB
:10339000D3F960724A48FDF705FE424908F0E0FFA4
:1033A00009F0CAF9C0F307234548A372FDF7FAFDF7
:1033B0003C4908F0D5FF09F0BFF9FF233649E07218
:1033C000364823736373A373E37304F09DFB0220F9
:1033D00005F0F2FC4FF49B6339482360E571FDF77B
:1033E0004DFD304908F0BCFF09F0A6F9C0F30723F2
:1033F00033482372FDF742FD2A4908F0B1FF09F076
:103400009BF9304B30496072186809F05DF809F09B
:103410006DF940FA05F203462948A272E372FDF7FE
:1034200059FD204908F09CFF09F060F940F307239B
:1034300023482373FDF74EFD1A4908F091FF09F068
:1034400055F90323607314491448A373E57304F01A
:103450005BFB022005F0B0FC1C4A1D4B92F801E01A
:103460009178D0781F785E7892F800C0E571DA78AC
:103470009D78A1724FF4AC73E07284F808C084F8B0
:1034800009E027736673A573E2732360024903485A
:10349000BDE8F04704F038BB6892FF1F54DBFF1F04
:1034A0008C92FF1F000020411CDBFF1F7C92FF1F3E
:1034B0003087FF1F3687FF1F04DBFF1F620B363B81
:1034C000FC93FF1FC8D9FF1F0000C842C4D9FF1FCB
:1034D0005092FF1F2E48FDF783FC796D08F038FEEF
:1034E00081462B48FDF7A4FC0146484609F0D6F872
:1034F00000283FF480AD40F2C333254886F80780AA
:103500003360FDF76DFC3F6D394609F0C7F848B3ED
:103510002049384608F024FF09F00EF980B240FA3D
:1035200008F37072337200230127042603221A491C
:103530001A48A772E67222736373A373E37304F0ED
:10354000E3FA58E508F0B8FE696A064608F008FF95
:10355000134908F005FF09F0EFF880B2031260721A
:1035600023729AE60A48FDF73BFC0A4908F0F8FE88
:1035700009F0E2F8C0F3072305483372FDF730FC89
:10358000044908F0EDFE09F0D7F87072CBE700BFF0
:10359000FC93FF1F00007A446892FF1F54DBFF1F5B
:1035A0000000204138B5174C174A2368101D12F847
:1035B000011F904241EA0323F9D12360134C03F128
:1035C00000432360124BD3F88430022B11D0114BEF
:1035D0001B68012B00D038BD0F4807F013FB216892
:1035E0000D4807F05FFB03210C48BDE8384007F0A9
:1035F00073B820680A4D08F05FFE2860FEF7B0FD42
:10360000E5E700BF20DBFF1F2BD9FF1FF092FF1F54
:10361000DCD9FF1F30DBFF1FD487FF1FF011010033
:1036200018DBFF1F30B54A4C4A4883B0214604F0EE
:1036300063F9236840F2C23293426FD0A3F19A0239
:10364000E52A0AD903F47F63B3F5C07F424D14D055
:103650002B68012B20D003B030BD404B3E4D1B6882
:10366000012B53D000223A493D48FDF79FFA2368C9
:1036700003F47F63B3F5C07FEAD1384B34491B684C
:103680003748012B374B93F8CA3043D00022FDF75F
:103690006BFA2B68012BDED1304B1B68012BDAD182
:1036A000314B32481B6801930A220023019907F02D
:1036B000B9FA2268264B002ADB7942DB2C492D48D7
:1036C00009F016FE2B4809F03BFE0146294807F099
:1036D00003F825681E4B15F0804523D1DB798BB1AB
:1036E000631925491A7A234809F002FE214809F096
:1036F00027FE01461F4806F0EFFF0135E379EDB2E2
:10370000AB42EDD8194807F07DFAA4E72A68012AF0
:10371000A8D1A8E72A68012AB8D1B8E7FFF742FF85
:1037200023688BE7154D134C0FCD0FC495E80300AC
:1037300044F8040B204620F81419152106F0CCFF9C
:10374000E0E70F490B4822F0604209F0D1FDB9E7EC
:1037500024D9FF1F54DBFF1F2487FF1F30DBFF1F0F
:10376000FC93FF1FDCD9FF1FFCDCFF1FD487FF1F6A
:103770001C12010040D9FF1F481201003012010045
:10378000F41101009A4B1B78052B00F09B802DE96A
:10379000F04F984C984E994DE26E636E98483260A7
:1037A00083B02B60FDF7FEFB216B08F077FF08B1BB
:1037B00000232B609248FDF7F3FBE16A08F08CFFD1
:1037C00010B1002333602B608D48FDF731FBE168B9
:1037D00008F082FF08B100232B608948FDF728FB21
:1037E000E16808F079FF08B100232B608448814F1D
:1037F000FDF7F6FA216908F051FF002868D0002390
:1038000033602B687D4F002B4DDD7D48DFF8E48170
:10381000FDF7C8FBA16B08F041FF002840F0B48021
:10382000784B77481B68734F012B00F0ED80FDF754
:10383000FFFA216A8046A06908F088FC01464046EC
:1038400008F04AFF00282ED0286808F035FD814690
:103850006B48FDF7EDFABC69396A8246204608F0EC
:1038600075FCBB6E8046786EC01A08F025FD414697
:103870000746504608F06AFC0146384608F070FDDD
:1038800041460746204608F061FC0146384608F0EC
:103890001BFE002108F05CFC0146484608F056FC7F
:1038A00008F024FF28603368534A002BAFBF2B6811
:1038B0002B6800211160002B01DA00232B6003B07C
:1038C000BDE8F08F4C494D4A00230B6013607047F0
:1038D0004B48FDF785FAF96908F0E0FE00288ED123
:1038E0003368DFF81491002B8BDD4548FDF758FB5A
:1038F000F96B08F0F1FE002840F0CA804048DFF87C
:10390000F480FDF76DFAD4F8C4100746E06908F0BA
:103910001FFC0146384608F0C1FE00283FF471AF95
:10392000306808F0C9FC82463548FDF759FA8346ED
:10393000D8F86C00D8F81C7008F0BEFC39468146F7
:10394000584608F003FC49468346002008F0FEFB79
:103950000146584608F004FDD8F8C410834638469E
:1039600008F0F6FB394608F0F1FB0146584608F02E
:10397000ABFD494608F0ECFB0146504608F0E6FB7B
:1039800008F0B4FE30603CE7386808F095FC8346E8
:103990001B48FDF707FB0190D8F86400D8F830A069
:1039A00008F08AFC019B81465146184608F0CEFB80
:1039B00049460190002008F0C9FB019B01461846CA
:1039C00008F0CEFC51460190D8F8380008F0BEFB54
:1039D000019B0146184608F077FD494608F0B8FB00
:1039E0000146584608F0B2FB08F080FE386017E741
:1039F000D0D9FF1FDCD9FF1F1CDBFF1F7C92FF1FEC
:103A0000FC93FF1F8C92FF1FFDF712FA216A80467C
:103A1000606A08F09BFB0146404608F05DFE002806
:103A20003FF441AF286808F047FC82462F48FDF775
:103A3000FFF9D7F82480396A8346404608F086FBB0
:103A40008146B86E08F038FC0446786E08F034FC05
:103A5000214608F07BFB49460746584608F076FBAE
:103A60000146384608F07CFC49460746404608F0C7
:103A70006DFB0146384608F027FD214608F068FB3B
:103A80000146504608F062FB08F030FE28600AE765
:103A9000D9F8000008F010FC82461448FDF780FABF
:103AA0000190F86ED7F83C8008F006FC019B834635
:103AB0004146184608F04AFB0146584608F050FCBB
:103AC00041468346F86A08F041FB0146584608F033
:103AD000FBFC002108F03CFB0146504608F036FB99
:103AE00008F004FEC9F8000008E700BFFC93FF1FC0
:103AF00008B5274807F086F80721264806F0ECFDB0
:103B0000112005F023F90621F8B1234806F0E4FD61
:103B1000102005F01BF9062100B3204806F0DCFD5B
:103B2000122005F013F9062108B31D4806F0D4FD54
:103B3000132005F00BF9062110BB1A4806F0CCFD46
:103B40001348BDE8084007F05DB8174806F0C4FD0B
:103B5000102005F0FBF806210028DED1134806F0FE
:103B6000BBFD122005F0F2F806210028DDD1104837
:103B700006F0B2FD132005F0E9F806210028DCD09C
:103B80000C4806F0A9FD0248BDE8084007F03AB825
:103B9000D487FF1F541201005C1201006C12010057
:103BA0007C120100941201006412010074120100E1
:103BB000841201008C12010010B5254C2368042BDF
:103BC00027DC01210B2005F0BBF801210C2005F0BA
:103BD000B7F80121142005F0B3F80121152005F0F4
:103BE000AFF8FF21162004F02BFFFF21172004F06F
:103BF00027FFFF21052004F023FFFF21062004F00A
:103C00001FFF236801330A2B2360C4BF00232360F6
:103C100010BD00210B2005F093F800210C2005F0C9
:103C20008FF80021142005F08BF80021152005F0F5
:103C300087F80021162004F003FF0021172004F06C
:103C4000FFFE0021052004F0FBFE0021D6E700BFA7
:103C50005492FF1F30B5092183B0AE4805F08CFBAC
:103C6000222005F031FBAC4BD3F8A830012BAB4B35
:103C70001B7809D0052B10D8DFE813F02D01320195
:103C80003C01410137010B00002B00F03D81052B69
:103C900003D10721A24805F06FFB222005F014FB99
:103CA000FF2005F011FBFF2005F00EFB9D4CFF20CF
:103CB00005F00AFB08219C4805F05EFB21689B4843
:103CC00006F0F0FFFF2005F0FFFAFF2005F0FCFAF8
:103CD000FF2005F0F9FA0921954805F04DFB216810
:103CE000924806F0DFFFFF2005F0EEFAFF2005F016
:103CF000EBFAFF2005F0E8FA0C218E4805F03CFBBA
:103D00008D4B8E49186808F0DFFB07F07FFE00241A
:103D100002460B460094854806F0CEFFFF2005F0D2
:103D2000D3FAFF2005F0D0FAFF2005F0CDFA0921E3
:103D3000834805F021FB8348FDF7CCF807F066FEC9
:103D4000009402460B46794806F0B6FFFF2005F0C6
:103D5000BBFAFF2005F0B8FAFF2005F0B5FA0C21F8
:103D6000794805F009FB7748FDF71CF907F04EFE8E
:103D7000009402460B466D4806F09EFFFF2005F0BA
:103D8000A3FAFF2005F0A0FAFF2005F09DFA0D210F
:103D90006E4805F0F1FA6B48FDF702F907F036FEC0
:103DA000009402460B46614806F086FFFF2005F0AE
:103DB0008BFAFF2005F088FAFF2005F085FA09212B
:103DC000634805F0D9FA5F48FDF758F8614908F0F3
:103DD000C7FA07F01BFE009402460B46534806F054
:103DE0006BFFFF2005F070FAFF2005F06DFAFF2051
:103DF00005F06AFA0C21584805F0BEFA5148FCF764
:103E0000EFFF564908F0ACFA07F000FE00940246B6
:103E10000B46464806F050FFFF2005F055FAFF20FC
:103E200005F052FAFF2005F04FFA0D214C4805F03D
:103E3000A3FA4448FCF7FCFF484908F091FA07F060
:103E4000E5FD009402460B46384806F035FFFF209A
:103E500005F03AFAFF2005F037FAFF2005F034FAB2
:103E60000921404805F088FA3F4B3048196806F0B0
:103E700019FFFF2005F028FAFF2005F025FAFF20A2
:103E800005F022FA0E21394805F076FA2D48FCF7A4
:103E9000CFFF05462B48FCF7A3FF0146284608F054
:103EA00055F92E4908F05CFA07F0B0FD009402467F
:103EB0000B461E4806F000FFFF2005F005FAFF2024
:103EC00005F002FAFF2005F0FFF9FF2003B0BDE87E
:103ED000304005F0F9B90621254805F04DFADCE639
:103EE0000721244805F048FAD7E60B21224805F0BF
:103EF00043FAD2E60721214805F03EFACDE6082133
:103F00001F4805F039FAC8E608211E4805F034FAC2
:103F1000C3E600BF9C120100DCD9FF1FD0D9FF1FF0
:103F2000E80F01003087FF1FB4120100C487FF1F94
:103F3000C0120100CC120100C8D9FF1F0000C84206
:103F4000DC120100FC93FF1FE8120100F8120100CF
:103F500008130100000020411413010000007A44FE
:103F600024130100341301004487FF1F4013010094
:103F7000B80F0100C00F0100C80F0100D40F0100ED
:103F8000DC0F0100A81201002DE9F0418D4DD5F89C
:103F9000B830042B3ED0032B6ED0012B00F098805C
:103FA000022B01D0BDE8F081874C8848237240F293
:103FB0000E32012321462260E37103F0A5FD844BFC
:103FC0001B685B00FF2BC8BFFF23042140224FF476
:103FD00041702060E17122726372A86D08F06CF983
:103FE000A96908F0BDF97B49054608F075FB002872
:103FF00000F0DE802946284608F0AAF808F09CFB6D
:1040000080B20312E072A3726F497048BDE8F041BC
:1040100003F07ABD6C4C704AA379226043F001032F
:104020000822E271A371A86D08F046F9A96908F0A9
:1040300097F96A4908F094F908F07EFB644B684AE6
:104040001B68126893FBF2F380B200261A12071263
:10405000607221465D48E372A2722772267366730E
:10406000A673E67303F050FDA279D5F8B83066F375
:104070000002032BA27190D1534CA86DA3720122B0
:10408000E823072140F2FF26227263722660E17165
:1040900008F012F9A96908F063F9504908F060F9CD
:1040A00008F04AFB4A4B4E4A1B68126893FBF2F336
:1040B00082B21E121712214644486373E2722773BC
:1040C000A67303F021FDD5F8B830012B7FF468AF5B
:1040D000444B3D4C1B682360072280231020E27173
:1040E000237204F033FE002869D13F4B1B68DFF8D0
:1040F000E0803B4FA86D344E03EB83035B001A1244
:10410000A3726272D8F800303A6893FBF2F31A1285
:104110006273A37308F0D0F8A96908F021F9334B52
:10412000196808F013F82D4908F01AF908F004FB93
:1041300080B20312314620732448E37203F0E4FC9A
:10414000022004F039FE2A4B1B68236007228023DB
:104150001020E271237204F0F9FD70BB224B1B6842
:10416000A86D03EB83035B001A127272B37208F03E
:10417000A3F8A96908F0F4F81E4B196807F0E6FFE8
:10418000164908F0EDF808F0D7FA82B2161238682E
:10419000D8F80030227393FBF0F30B490B48A3735C
:1041A0001A12E672627303F0AFFCD5F8B830F7E686
:1041B00001229023A272E37226E70F4BCFE70E4B4A
:1041C00094E700BFDCD9FF1F6892FF1F54DBFF1F7D
:1041D0007C92FF1F00004843F4E5061800002041D0
:1041E0002C87FF1F6887FF1F2887FF1F7892FF1FFC
:1041F0006C87FF1F08DBFF1F3C87FF1F70B503683C
:10420000C57984B0012D8DF805304FEA13230E4691
:104210008DF8043005F1010201A909DD07300D44D4
:104220000DF1050310F8014F03F8014FAB42F9D12E
:10423000034B04489B5D02F031FF04B070BD00BF2A
:10424000E01E0100FC92FF1FF0B40D4B0D489C795D
:104250000822FF27CD26A225DA710022B0216FF3B4
:1042600000041F729E72DD725A721A735A739A7327
:10427000DA7319609C711946F0BC03F045BC00BFAD
:104280006892FF1F54DBFF1F2DE9F0415B4E33782E
:104290000F2B82B067D05A4B1B785A4F002B4ED051
:1042A00000223A60584D2B78062B4DD0DFF88481E0
:1042B00043F08003554C0821012A2360E17175D039
:1042C00042220E232272637298F800304F49002276
:1042D000022BA272E2720BD833784A734FEA0313AF
:1042E0004FF02002DBB20A730DD104338B730BE065
:1042F0003B68012B0CBF682360230B7333780122CA
:104300001B01DBB26273A37329784048FFF776FF85
:10431000E073022004F050FD3C493D4803F0F4FBFB
:1043200032782B783B480132013332702B70FCF726
:10433000D3FB08B1FFF788FF02B0BDE8F081324D32
:104340003A682B78062BB1D1DFF8E88098F8003076
:10435000032B98BF01334FF0000198BF88F800305D
:1043600029708023A6E72C4D2C4C2B680093009AD3
:10437000216800239142337013D2294B204F1A68D1
:1043800001239A423B7029D0264A29680191B2F84C
:10439000A410019A3C314FF47A7000FB0122226094
:1043A0007BE7174A174F13703A687BE71948FCF709
:1043B00017FD1D4907F0D4FF08F0BEF900F10A030C
:1043C00014482372FCF70CFD174907F0C9FF08F0E9
:1043D000B3F980B20A300012607275E7134806F034
:1043E00011FC1321124806F077F9104806F00AFC78
:1043F0000E4806F007FC3B78C6E700BF0CDBFF1F4A
:1044000014DBFF1FC8DAFF1F2CDBFF1F6892FF1FA2
:1044100054DBFF1FFC93FF1FFCDCFF1FF8DAFF1FBC
:104420002487FF1FDCD9FF1F00007A44D487FF1FB9
:104430005013010038DBFF1F2DE9F041AE4CAF4DAA
:1044400082B006F0E3F823682860042B00F056835E
:10445000022B00F0C280082B48D0072B40F074815B
:10446000332801F00B8600F3DB83312801F0F0855F
:10447000322840F00F8206F005F9002840F36281EF
:104480009F48A04E06F052FD07F016FF9E4907F028
:1044900067FF61230122706422602B601846A0F13F
:1044A00052031F2B00F2F681DFE813F0B60DF40182
:1044B000F401F401F401F401F401F401F401F40154
:1044C000F401F401F401F401F4010E04F40E930577
:1044D0002C06FE04F401F401F4018104F401F10E50
:1044E000F401F401F401F401F401BB0D322800F0F1
:1044F000AA8340F3CD83342800F0C183712840F0B3
:10450000C9810022732322602B602368002B40F0B6
:10451000C4817E4E7A4806F075FB04217C4806F083
:10452000DBF8774806F06EFB10217A4806F0D4F8E5
:10453000734806F067FB1321774806F0CDF8774BF8
:104540006F48196806F0AEFB6D4806F05BFB14215E
:10455000734806F0C1F86A4806F054FB1E21714802
:1045600006F0BAF8664806F04DFB15216E4806F0D5
:10457000B3F8634806F046FB1E216C4806F0ACF821
:104580005F4806F03FFB2021694806F0A5F85C482B
:1045900006F038FB1921674806F09EF8584806F0E7
:1045A00031FB1221644806F097F8554806F02AFBC3
:1045B0000F21624806F090F8514806F023FB0D21C8
:1045C0005F4806F089F84E4806F01CFB00220123E4
:1045D0003260236002B0BDE8F081A0F13103422BCC
:1045E00000F2588101A252F823F000BFC15500002B
:1045F000DD550000F9550000135600004556000037
:10460000635600009548000095480000954800005A
:104610009548000095480000954800009548000026
:104620009548000095480000954800009548000016
:104630009548000095480000954800009548000006
:1046400095480000954800009548000095480000F6
:1046500095480000954800009548000095480000E6
:1046600095480000954800009548000095480000D6
:1046700095480000954800009548000095480000C6
:1046800095480000954800009548000095480000B6
:1046900095480000954800009548000095480000A6
:1046A0009548000095480000954800009548000096
:1046B00095480000395600009548000095480000D4
:1046C0009548000095480000954800009548000076
:1046D0009548000095480000954800009548000066
:1046E00095480000954800009548000003450000EB
:1046F00095480000A35500003CDBFF1F20D9FF1F99
:10470000D487FF1FDCD9FF1F6F12833A2487FF1F56
:1047100020170100281701003C1701004487FF1FE4
:10472000501701006817010088170100A017010049
:10473000C0170100E417010000180100141801005F
:104740002418010023682868062B40F0AB80A0F1F4
:104750003103402B00F29E8001A252F823F000BFEB
:104760008D540000B954000061550000E55400006C
:104770000B550000295500004D55000095480000DC
:1047800095480000954800009548000095480000B5
:1047900095480000954800009548000095480000A5
:1047A0009548000095480000954800009548000095
:1047B0009548000095480000954800009548000085
:1047C0009548000095480000954800009548000075
:1047D0009548000095480000954800009548000065
:1047E0009548000095480000954800009548000055
:1047F0009548000095480000954800009548000045
:104800009548000095480000954800009548000034
:104810009548000095480000954800009548000024
:104820009548000095480000954800009548000014
:104830009548000095480000954800009548000004
:1048400095480000954800009548000095480000F4
:1048500095480000954800009548000095480000E4
:104860000345000005F00EFF002841F3EA83E94804
:10487000E94E06F05BFB0127034601466222E7484A
:10488000F36527602A60FCF7FDFA23682868012B8E
:104890003FF405AE73283FF438AE02B0BDE8F081B6
:1048A00023682868052B40F08B80A0F13103402B52
:1048B000F0D801A252F823F07D5300009D53000070
:1048C000BD530000DD53000065520000635300003B
:1048D0009548000095480000954800009548000064
:1048E0009548000095480000954800009548000054
:1048F0009548000095480000954800009548000044
:104900009548000095480000954800009548000033
:104910009548000095480000954800009548000023
:104920009548000095480000954800009548000013
:104930009548000095480000954800009548000003
:1049400095480000954800009548000095480000F3
:1049500095480000954800009548000095480000E3
:1049600095480000954800009548000095480000D3
:1049700095480000954800009548000095480000C3
:1049800095480000954800009548000095480000B3
:1049900095480000954800009548000095480000A3
:1049A0009548000095480000954800009548000093
:1049B0009548000095480000F953000023682868D6
:1049C000032B7FF464AFA0F13003482B3FF662AFB6
:1049D00001A252F823F000BF65480000055E000008
:1049E0002D5E0000555E0000B55E0000D75E000041
:1049F000FF5E0000275F0000455F0000935C000041
:104A00009548000095480000954800009548000032
:104A10009548000095480000954800009548000022
:104A20009548000095480000954800009548000012
:104A30009548000095480000954800009548000002
:104A400095480000954800009548000095480000F2
:104A500095480000954800009548000095480000E2
:104A600095480000954800009548000095480000D2
:104A700095480000954800009548000095480000C2
:104A800095480000954800009548000095480000B2
:104A9000954800009548000095480000BB5C000068
:104AA000D95C0000F75C0000155D0000335D00007C
:104AB000515D000085570000A9570000954800008F
:104AC000CF570000BD5D00009548000095480000EC
:104AD00095480000954800009548000003450000F7
:104AE000E55D0000954800009548000095480000ED
:104AF0009548000095480000A75D0000A0F1310333
:104B0000412B3FF6C7AE01A252F823F03D570000FB
:104B10004157000087560000B3560000CB560000F6
:104B2000E7560000F9560000FD560000015700004E
:104B30009548000095480000954800009548000001
:104B400095480000954800009548000095480000F1
:104B500095480000954800009548000095480000E1
:104B600095480000954800009548000095480000D1
:104B700095480000954800009548000095480000C1
:104B800095480000954800009548000095480000B1
:104B900095480000954800009548000095480000A1
:104BA0009548000095480000954800009548000091
:104BB0009548000095480000954800009548000081
:104BC0009548000095480000954800009548000071
:104BD00023570000954800009548000095480000C4
:104BE0009548000095480000954800009548000051
:104BF0009548000095480000954800009548000041
:104C000095480000954800009548000003450000C5
:104C100045570000D487FF1FDCD9FF1FFC93FF1FFF
:104C200034287FF46BAC05F02DFD00287FF78AADAA
:104C30008A488B4E06F07AF961230122B086226001
:104C40002B6018462BE405F01DFD00281CDD834871
:104C5000834E06F06BF907F02FFB824907F080FBCB
:104C6000B6F9CC3096F84810074602467E48F764FD
:104C7000FCF70AF901236920236028600FE405F09E
:104C800001FD002800F37F8423682868FFF7E5BB57
:104C900031287FF4FFAD05F0F5FC002840F3EE84E9
:104CA0006E486F4E06F042F9C0B286F848000228FE
:104CB0008ABF0021014686F84810B6F9CC30F26C64
:104CC0006948D5E705F0A2FC05F0DCFC05460028A4
:104CD000F8D16248624E05F095FF604805F092FFFA
:104CE0005E4805F08FFF5D4805F08CFF5B4805F0DE
:104CF00089FF1F215D4805F0EFFC584805F082FF51
:104D00001C215B4805F0E8FCB06A5A4907F028FB13
:104D100006F07CFE009502460B46504805F0CCFF9D
:104D20000221554805F0D8FC4C4805F06BFF2321C3
:104D3000524805F0D1FC706C4E4907F011FB06F0AB
:104D400065FE009502460B46444805F0B5FF02217A
:104D5000494805F0C1FC414805F054FF1921484875
:104D600005F0BAFC306C06F051FE02250B460246F7
:104D700000953A4805F0A0FF2946424805F0ACFCF2
:104D8000364805F03FFF22213F4805F0A5FCB18ED3
:104D9000324805F087FF03213C4805F09DFC2F4871
:104DA00005F030FF0723236077E505F02FFC05F0C1
:104DB00069FC05460028F8D12848294E05F022FF55
:104DC000264805F01FFF254805F01CFF234805F085
:104DD00019FF224805F016FF15212D4805F07CFC2F
:104DE0001E4805F00FFF18212A4805F075FC2B46D8
:104DF0000A2296F84810194805F014FF174805F0E4
:104E000001FF2821244805F067FCF06C194907F0E0
:104E1000A7FA06F0FBFD00950B4602460F4805F089
:104E20004BFF0221144805F057FC0C4805F0EAFE40
:104E300018211A4805F050FCB6F9CC10074805F0C7
:104E400031FF064805F0DEFE1321154805F044FC4D
:104E5000024805F0D7FE082323601EE5D487FF1F14
:104E6000DCD9FF1F6F12833AFC93FF1F6815010006
:104E70008815010000007A44D0130100A815010034
:104E8000CC150100E8150100EC1501001016010019
:104E9000E817010088130100A4130100D4130100D6
:104EA000F013010005F0B2FB05F0ECFB054600280D
:104EB000F8D17F487F4E05F0A5FE7D4805F0A2FEA3
:104EC0007B4805F09FFE7A4805F09CFE784805F087
:104ED00099FE1121784805F0FFFB754805F092FE18
:104EE0002821764805F0F8FBB069754907F038FAD3
:104EF00006F08CFD009502460B466D4805F0DCFE81
:104F00000221704805F0E8FB694805F07BFE162198
:104F10006D4805F0E1FB306A694907F021FA06F0B7
:104F200075FD00950B460246614805F0C5FE02215D
:104F3000644805F0D1FB5E4805F064FED6F8B83051
:104F4000002B32DD1D21614805F0C6FB706E07F0B5
:104F5000B3F95F4907F004FA06F058FD022502464E
:104F60000B460095524805F0A7FE0121594805F06F
:104F7000B3FB4F4805F046FE1F21574805F0ACFB38
:104F8000B06E07F099F9524907F0EAF906F03EFDD4
:104F9000009502460B46464805F08EFE01214D481D
:104FA00005F09AFB424805F02DFE11214B4805F013
:104FB00093FBD6F8B830062B00F2D987DFE813F060
:104FC0000E081308D307270822081D08180805F043
:104FD0001DFB05F057FB0028F9D13548354E05F08B
:104FE00011FE334805F00EFE314805F00BFE304847
:104FF00005F008FE2E4805F005FE1F21384805F093
:105000006BFB2B4805F0FEFD1E21364805F064FBC6
:10501000274805F0F7FD1A21334805F05DFBD6F867
:105020008430022B01F09580032B01F08980012B45
:1050300001F07D8009212D4805F04EFB1C4805F04C
:10504000E1FD14212A481B4F05F046FBD6F88010DD
:10505000174805F027FE164805F0D4FD1C21254809
:1050600005F03AFBD6F88810114805F01BFE1048F1
:1050700005F0C8FD1C21204805F02EFBD6F8B41021
:105080000B4805F00FFE0A4805F0BCFDD6F8845029
:1050900025F00205012D01F011801321174805F0BC
:1050A0001BFB034805F0AEFD02232360FFF7F5BBB1
:1050B000D487FF1FDCD9FF1F8C17010004140100E7
:1050C00000007A44D013010030140100481401009C
:1050D000CDCCCC3DA81A0100681401008814010051
:1050E0006819010088190100A8190100201A01009F
:1050F0002C1A0100441A0100641A0100F013010087
:1051000005F084FA05F0BEFA0028F9D1BE48BF4D7B
:1051100005F078FDBC4805F075FDBB4805F072FD53
:10512000B94805F06FFDB84805F06CFD1321B8488B
:1051300005F0D2FAB44805F065FD0D21B54805F03B
:10514000CBFAB14805F05EFD0F21B34805F0C4FA73
:10515000B24BAD48196805F0A5FDAB4805F052FD0E
:105160001321AF4805F0B8FAAE4BA748196805F00F
:1051700099FDA54805F046FD1221AB4805F0ACFAB3
:10518000AA4BA148196805F08DFD9F4805F03AFD2E
:105190001121A74805F0A0FAA64B9B48196805F015
:1051A00081FD994805F02EFD0E21A34805F094FAE3
:1051B000D5F8A810944805F075FD934805F022FD38
:1051C00019219E4805F088FA9D4B8F48196805F013
:1051D00069FD8D4805F016FD11219A4805F07CFA0D
:1051E000994B8948196805F05DFD874805F00AFD6F
:1051F0001021964805F070FA954B8348196805F020
:1052000051FD814805F0FEFC1C21924805F064FA2E
:10521000914B7D48196805F045FD7B4805F0F2FC8F
:1052200016218E4805F058FAB5F8A410764805F016
:1052300039FD1E218A4805F04FFA734805F0E2FC5B
:105240001721884805F048FA6F4805F0DBFC132168
:10525000854805F041FA6C4805F0D4FC042323602E
:10526000FFF71BBB05F00EFA00287FF7A7AB6648D7
:10527000664E05F05BFE744BC6F8B00003221A6060
:10528000FCF7A2FC01226B2322602B6001E005F0F9
:10529000BDF905F0F7F90028F9D15B485B4D05F041
:1052A000B1FC594805F0AEFC574805F0ABFC564838
:1052B00005F0A8FC544805F0A5FC21216B4805F039
:1052C0000BFA514805F09EFC1521694805F004FAD7
:1052D000D6F88C104C4805F0E5FC0221654805F035
:1052E000FBF9494805F08EFC1E21634805F0F4F9EE
:1052F000D6F89410444805F0D5FC03215F4805F02A
:10530000EBF9414805F07EFC1E215D4805F0E4F90B
:10531000D6F890103C4805F0C5FC3B4805F072FCFF
:105320001D21584805F0D8F9D6F8AC10364805F0DC
:10533000B9FC354805F066FC1E21534805F0CCF950
:10534000D6F8B010304805F0ADFC2F4805F05AFCF7
:10535000D6F8A830012B00F01B8705232360FFF748
:105360009CBA2A4E96F8C930B3FA83F35B0901213F
:105370006B2286F8C93021602A608AE705F082F93D
:1053800000287FF71BAB2048204E05F0CFFD0122FF
:105390006B23C6F88C0022602B607AE705F072F967
:1053A00000287FF70BAB1848184E05F0BFFD01220F
:1053B0006B23C6F8940022602B606AE705F062F95F
:1053C00000287FF7FBAA1048104E05F0AFFD012220
:1053D0006B23C6F8900022602B605AE705F052F963
:1053E00000287FF7EBAA0848084E05F09FFD164BF2
:1053F000C6F8AC00022242E71349002373220B6077
:1054000023602A60FFF781B8D487FF1FDCD9FF1F14
:1054100034180100481801005818010030DBFF1F44
:1054200068180100C0D9FF1F7C180100F4DAFF1FC3
:1054300090180100D4D9FF1FA4180100B41801006E
:105440005C92FF1FD01801008092FF1FE41801003A
:105450004C92FF1FF81801004087FF1F1819010028
:105460003019010050190100F01301001416010059
:10547000381601001C15010050160100A81001008B
:105480007016010090160100B016010005F0FAF840
:1054900000287FF705AAAE48AE4E05F047FD06F09E
:1054A0000BFFAD4907F010F865230122B0612260BF
:1054B0002B601846FEF7F3BF05F0E4F800287FF7ED
:1054C000EFA9A348A34E05F031FD06F0F5FEA24971
:1054D00006F0FAFF65230122306222602B60184635
:1054E000FEF7DDBF05F0CEF800287FF7D9A9984870
:1054F000984E05F01BFD00EB800043000122652063
:10550000B36622602860FEF7CABF924AD2F8B8306C
:105510000133062BC8BF0023C2F8B8300123652031
:1055200023602860FEF7BBBF05F0ACF800287FF7CA
:10553000B7A98748874E05F0F9FC65230122C6F814
:10554000BC0022602B601846FEF7A9BF814B93F880
:10555000C820002A00F0A585002283F8C820DDE7D6
:1055600005F090F800287FF79BA97948794E05F05F
:10557000DDFC00EB800043000122652073662260A1
:105580002860FEF78CBF7248724E05F0CFFC07B260
:105590003B46F26C96F848107048A6F8CC70FFF7BE
:1055A00067BB6C4AD2F884300133032BC8BF002399
:1055B000C2F884300123632023602860FEF76FBFA8
:1055C000644ED6F88030B3FA83F35B09012263207E
:1055D000C6F8803022602860FEF761BF5D4ED6F8C5
:1055E0008830B3FA83F35B0901226320C6F8883060
:1055F00022602860FEF753BF0123236005F042F8C4
:105600000028D7DD5248534E05F090FCC6F8B40090
:10561000D0E70123236005F035F8002807DD4C486A
:105620004C4E05F083FC06F047FEC6F89C00632054
:1056300028602368FEF711BFFDF71CFB236828686C
:10564000FEF709BF0123236005F01CF80028EEDDFA
:105650003F48404E05F06AFC06F02EFEC6F8980062
:10566000E5E70123236005F00DF80028DFDD384869
:10567000384E05F05BFCA6F8C200D8E7354E96F828
:105680004800FFF714BB364A364F1368002B0CBF97
:10569000012100214FF001031160236040F0628579
:1056A00064222A60082B4FF064007EF4D6AEFEF729
:1056B0001DBF2D4A1368B3FA83F35B0901216420EF
:1056C000136021602860FEF7EABE224ED6F8A830AB
:1056D000B3FA83F35B0901226420C6F8A830226084
:1056E0002860FEF7DCBE01231C482360FBF710FA9C
:1056F0001E4A23681060D3E71D4ADBE71D4AD9E73D
:105700000123236004F0BEFF002800F3CF841A4B6E
:105710001A68042A01DD02221A6064232B602368C0
:10572000C0E70123236004F0ADFF0028F5DD084841
:10573000084E05F0FBFBA6F8A400EEE70F4AB9E718
:105740000F4AB7E701232360FEF77EFDE5E700BFC0
:10575000D487FF1FDCD9FF1F00007A44FC93FF1F92
:10576000F4DAFF1F3CDBFF1FD4D9FF1F5C92FF1F41
:105770008092FF1F4C92FF1F4087FF1F30DBFF1FEF
:10578000C0D9FF1F04F07EFF00280DDD1848194E18
:1057900005F0CCFB06F090FD174906F095FE0122BE
:1057A0006223706222602B6004F06CFF00280EDD23
:1057B0000F48104E05F0BAFB06F07EFD0E4906F0CC
:1057C00083FE01226223C6F8C40022602B6004F02D
:1057D00059FF002840F335840548064E05F0A6FB26
:1057E00006F06AFD01226223F06322602B6007E06D
:1057F000D487FF1FDCD9FF1F00007A4404F006FFA6
:1058000004F040FF05460028F8D1C348DFF878834C
:1058100005F0F8F9C04805F0F5F9BF4805F0F2F9D0
:10582000BD4805F0EFF9BC4805F0ECF91521BB487F
:1058300004F052FFB84805F0E5F91421B84804F027
:105840004BFFB54805F0DEF91B21B64804F044FFD4
:10585000B14805F0D7F91321B34804F03DFFAE4835
:1058600005F0D0F9AC4805F0CDF9AB4805F0CAF920
:105870002021AE4804F030FFF068AD4906F070FD1D
:1058800006F0C4F8009502460B46A34805F014FA4A
:105890000221A84804F020FF0221A74804F01CFFC1
:1058A0009D4805F0AFF92121A44804F015FF3069A7
:1058B0009F4906F055FD06F0A9F8009502460B46F3
:1058C000954805F0F9F902219A4804F005FF0221F4
:1058D000994804F001FF904805F094F91F21984879
:1058E00004F0FAFEF06A06F091F8022702460B4631
:1058F0000097894805F0E0F90121924804F0ECFE98
:1059000039468D4804F0E8FE834805F07BF92021F4
:105910008D4804F0E1FE306B06F078F800970246FF
:105920000B467D4805F0C8F90121864804F0D4FEF5
:105930003946814804F0D0FE774805F063F9232109
:10594000824804F0C9FE306D794906F009FD06F081
:105950005DF8009502460B466F4805F0ADF93946F3
:10596000744804F0B9FE3946734804F0B5FE6A483D
:1059700005F048F91F21764804F0AEFE706D6C49C1
:1059800006F0EEFC06F042F8009502460B4662482F
:1059900005F092F93946674804F09EFE394666489C
:1059A00004F09AFE5C4805F02DF91921694804F0CD
:1059B00093FE316E584805F075F93946664804F093
:1059C0008BFE39465C4804F087FE534805F01AF90F
:1059D0001821624804F080FEF06E06F06DFC60490C
:1059E00006F0BEFC06F012F8009702460B464A4845
:1059F00005F062F901215B4804F06EFE39464E481D
:105A000004F06AFE444805F0FDF82B21564804F0E6
:105A100063FEF069464906F0A3FC05F0F7FF009528
:105A200002460B463C4805F047F93946414804F028
:105A300053FE3946404804F04FFE374805F0E2F87F
:105A40001F214A4804F048FEF16D334805F02AF959
:105A50003946394804F040FE2F4805F0D3F820219C
:105A6000434804F039FEB16D2B4805F01BF9394667
:105A7000314804F031FE284805F0C4F810213D48B3
:105A800004F02AFE316F244805F00CF93946294804
:105A900004F022FE3946284804F01EFE1E4805F098
:105AA000B1F81321344804F017FE716F1A4805F05D
:105AB000F9F80121314804F00FFE39461E4804F080
:105AC0000BFE154805F09EF810212D4804F004FE49
:105AD000B16F114805F0E6F83946164804F0FCFDB0
