:1000000000800020BD01000019950000D19400007F
:10001000D1940000D1940000D1940000D19400004C
:10002000D1940000D1940000D194000019950000F3
:1000300019950000D1940000EDB30000F1B3000069
:1000400019950000199500001995000019950000F8
:1000500019950000199500001995000019950000E8
:1000600019950000199500001995000019950000D8
:1000700019950000199500001995000019950000C8
:1000800019950000199500001995000019950000B8
:1000900019950000199500001995000019950000A8
:1000A0001995000019950000199500001995000098
:1000B00019950000598800006588000069880000D3
:1000C00075880000798800007D880000199500007F
:1000D0001995000019950000199500001995000068
:1000E0001995000019950000199500001995000058
:1000F000199500001995000019950000DDA3000076
:1001000019950000D5C00000199500001995000050
:100110001995000019950000199500001995000027
:100120001995000019950000199500001995000017
:100130001995000019950000199500001995000007
:1001400019950000199500001995000019950000F7
:1001500019950000199500001995000019950000E7
:100160001995000021A700001995000019950000BD
:1001700019950000199500001995000019950000C7
:1001800019950000199500001995000019950000B7
:1001900019950000199500001995000019950000A7
:1001A0001995000019950000199500001995000097
:1001B000199500001995000019950000564B4CF256
:1001C000205210B51A804DF628121A8000BF00BFC9
:1001D00009F0A6F9514B4FF010621A60504A9A602C
:1001E000504ADA60504A136813F4807304D14F49BF
:1001F0000B604FF4A85313604D4B1A78110703D5C9
:100200001A7842F008021A704A4B4B492A221A7097
:100210004A4A4B4B8B4204D252F8040F43F8040B6A
:10022000F8E7484B484900228B4202D243F8042B9E
:10023000FAE74649464A002352F8230041F82300D2
:1002400001336F2BF8D1434B434A802103F8011B44
:100250009342FBD1414B3D4A1A60414B8A221A70AE
:10026000A3F5805324225A70A0221A709A7992071B
:10027000FCD59A79D406FCD43A4A937903F00C035E
:10028000082B384BF9D103221A7140225A719A79FE
:100290009006FCD5334A9179324B4906FBD5324A58
:1002A000324911600221516020221A709A7902F0BD
:1002B0000C020C2AFAD12E4B2E4A1A602E4B2F4AD2
:1002C0001A6000225A60072243F8042C2C4AC3F813
:1002D0000C2D62B609F05AFC144B1B68DA0705D5E1
:1002E000284809F035FA284B284A1A60284B1B7811
:1002F0005B0609D5244C254B22689A4204D121483B
:1003000009F026FA0023236009F010F90DF0B6FB7E
:100310000BF080FBFEE700BF0E200540308004405C
:10032000823F04000100002B10D0034014D0034092
:1003300002D0074000E007403894FF1FB8360100A4
:100340002087FF1F3894FF1FC4E1FF1F0082FF1F9B
:100350000000000000E400E05FE400E008ED00E0E1
:100360000050064000400640448004400000030165
:1003700004800440C010050014E000E0FF76010096
:10038000000020202CAB73621CE00340A5C3945AEC
:1003900000F00740FFFFFFFFFFFFFFFFFFFFFFFF32
:1003A000FFFFFFFFFFFFFFFFFFFFFFFFFFFFFFFF5D
:1003B000FFFFFFFFFFFFFFFFFFFFFFFFFFFFFFFF4D
:1003C000FFFFFFFFFFFFFFFFFFFFFFFFFFFFFFFF3D
:1003D000FFFFFFFFFFFFFFFFFFFFFFFFFFFFFFFF2D
:1003E000FFFFFFFFFFFFFFFFFFFFFFFFFFFFFFFF1D
:1003F000FFFFFFFFFFFFFFFFFFFFFFFFFFFFFFFF0D
:10040000FFFFFFFFFFFFFFFFFFFFFFFFDEF9FFFF23
:1004100010B5054C237833B9044B13B10448AFF33E
:1004200000800123237010BD3894FF1F00000000DE
:10043000B4360100084B10B51BB108490848AFF3AA
:1004400000800848036803B910BD074B002BFBD0A0
:10045000BDE81040184700BF000000003C94FF1F9B
:10046000B43601003894FF1F00000000F0B400F122
:100470003C06174F00243146031F00F17C0243F86D
:10048000044FB34241F8047F4FF0000542F8044F97
:10049000F5D100230F4A1049C0F8C050C0F8C4502D
:1004A000C0F8C850C0F8CC50C0F8D050C0F8E050E8
:1004B000C0F8D420C0F8DC20C0F8D81080F8E830AC
:1004C00080F8E93080F80031C0F80C31F0BC70479A
:1004D0000000A040000048430000C8C22DE9F041E0
:1004E0008046CE1D00F1C00400F1D00716F8010FC0
:1004F00028380CF0D1FE094944F8040F05460DF0E8
:10050000DBF838B1B8F914010CF0C6FE29460CF03E
:100510000FFE2060BC42E9D1BDE8F081000020C29E
:100520002DE9F043814683B006290ED8DFE811F0AB
:100530004E00070063009600CB0000013800D9F898
:10054000081111B9002B00F02881D9F8004009F1F9
:100550004006C84609F18005002701E058F8044F1D
:10056000306821460DF0A8F80137214628B1D9F8A6
:10057000E4000DF08DF800B13460214628680DF0DC
:100580007DF804369B4920B120460DF095F800B166
:100590002C60102F05F10405E0D103B0BDE8F08315
:1005A000D9F808110029D0D1002BCED1537A107A76
:1005B00003F03F0300EB03200CF06EFE8E490CF0BD
:1005C00073FFD9F80040C9F83C00C0E7557A117AAA
:1005D000937AD07AD9F8004001EB052101EB03436F
:1005E00003EB0063C9F80C31517B137B03EB012350
:1005F000C9F80831ABE7D9F808110029A5D1002BBB
:10060000A3D1537A107A019203F03F0300EB032049
:100610000CF042FE78490CF047FF019AC9F80C0033
:10062000D37A907A03F03F0300EB03200CF034FE02
:1006300071490CF039FF019AC9F81000537B107B07
:1006400003F03F0300EB03200CF026FE6A490CF098
:100650002BFFD9F80040C9F8140078E7D9F8081141
:1006600000297FF472AF002B7FF46FAF537A107ABA
:10067000019203F03F0300EB03200CF00DFE5E49F6
:100680000CF012FF019AC9F81800D37A907A03F09F
:100690003F0300EB03200CF0FFFD57490CF004FF73
:1006A000019AC9F81C00537B107B03F03F0300EB59
:1006B00003200CF0F1FD50490CF0F6FED9F8004093
:1006C000C9F8200043E7D9F8081100297FF43DAFAD
:1006D000002B7FF43AAF537A107A019203F03F0374
:1006E00000EB03200CF0D8FD43490CF0DDFE019A2D
:1006F000C9F82400D37A907A03F03F0300EB03207B
:100700000CF0CAFD3C490CF0CFFE019AC9F8280054
:10071000537B107B03F03F0300EB03200CF0BCFD88
:1007200035490CF0C1FED9F80040C9F82C000EE79D
:10073000D9F8081100297FF408AF002B7FF405AF2A
:10074000537A107A019203F03F0300EB03200CF080
:10075000A3FD29490CF0A8FE019AC9F83000D37A0C
:10076000907A03F03F0300EB03200CF095FD224943
:100770000CF09AFE019AC9F83400537B107B03F009
:100780003F0300EB03200CF087FD1B490CF08CFEAF
:10079000D9F80040C9F83800D9E6537A107A0192A6
:1007A00003F03F0300EB03200CF076FD12490CF040
:1007B0007BFE019AC9F80000D37A0446907A03F0D0
:1007C0003F0300EB03200CF067FD0B490CF06CFEBF
:1007D000019AC9F80400537B107B03F03F0300EB40
:1007E00003200CF059FD04490CF05EFEC9F8080026
:1007F000ADE600BF0000A04000007A4490F8F00091
:10080000704700BF90F8EC00704700BF90F8F4000C
:10081000704700BF90F8F800704700BF102994BFE0
:1008200050F82100002070472DE9F0410B4E804622
:10083000041F00F12C0754F8045F314628460CF0E1
:100840001DFF30B1D8F8E41028460CF035FF00B198
:100850002E46BC42EFD13046BDE8F0810000204179
:100860002DE9F041D0F8E4704FF00008041F00F1CA
:100870003C0654F8045F394628460CF01DFF084931
:1008800048B128460CF0FAFE414620B128460CF04B
:1008900013FF00B1A846B442EBD14046BDE8F08159
:1008A0000000A0402DE9F047D0F8E47082464FF0F8
:1008B0000009041F00F13C064FF0000854F8045FE3
:1008C000394628460CF0F8FE0C4950B128460CF089
:1008D000D5FE30B1484629460CF02AFC08F1010843
:1008E0008146B442EAD1CAF8048140460CF0D4FCF7
:1008F000014648460CF0D8FDBDE8F0870000A04056
:10090000D0F80401704700BFD0F80801704700BF5D
:1009100038B5D0F8C850D0F8C440294620460CF06D
:10092000ADFE00B92C46204638BD00BF38B5D0F822
:10093000C850D0F8C440294620460CF0BDFE00B98E
:100940002C46204638BD00BF70B5D0F8C4401249CF
:10095000054620460CF0B0FED0B1204600210CF038
:10096000E7FB01240646D5F8C8500B4928460CF091
:10097000A3FE28B1304629460CF0DAFB01340646C6
:1009800020460CF089FC014630460CF08DFD70BD10
:1009900000260446E7E700BF000020C22DE9F84327
:1009A0004FF00008D0F8E470C0F8C0808146041F02
:1009B00000F13C0654F8045F394628460CF07CFEF2
:1009C000084950B128460CF059FE30B1404629463E
:1009D0000CF0AEFB8046C9F8C000B442EAD14046F4
:1009E000BDE8F8830000A04003299ABF00EB810016
:1009F000D0F8C400002070473E2998BF80F800114D
:100A0000704700BFD0F80C01704700BF90F8E800B5
:100A1000704700BF90F8E900704700BFC0F8FC10B5
:100A2000704700BF80F8E810704700BF80F8E910F9
:100A3000704700BFC0F8E410704700BFA0F8141161
:100A4000704700BF70B500F58A450646143500F1C1
:100A50002C04204604F58C74FFF708FDAC42F8D155
:100A600006F5A275012428460021FFF7DBFF214689
:100A700028460134FFF7C0FF3F2C05F58C75F2D1F5
:100A800044F21C5400250548054A064B3555002103
:100A90007061B161F2613362304670BD00007A442A
:100AA000000048430000C8C270B500F58A461436FD
:100AB00000F5A274002508E001252046002104F578
:100AC0008C74FFF7B3FFB4420AD02046FFF79EFFB5
:100AD0000028F2D02046FFF79DFF0028ECD170BD22
:100AE000284670BD70B500F5B0560C3600F5A274FE
:100AF00003E004F58C74B4420CD02046FFF786FF67
:100B000005460028F5D02046FFF77CFFC307F0D547
:100B1000284670BD0025284670BD00BF2DE9F04174
:100B200044F2205300F58A46374600228046C250E0
:100B30001436203700F5A27403E004F58C74B44237
:100B40000ED02046FFF762FF0028F6D020463D6811
:100B5000FFF7D6FE04F58C742844B4423860F0D117
:100B600044F2205358F80300BDE8F08144F21853D2
:100B7000C058704738B50C6804F00F044FF48C75FA
:100B8000013405FB04002C3015461A46FFF7A6FC7D
:100B9000012D00D038BD06480AF0A2FD21460448C8
:100BA0000AF0F2FD0B210348BDE838400AF0F8BA1C
:100BB000C489FF1F00190100F0B50D6805F00F048E
:100BC00005F0F005402D83B00F46064604F1010400
:100BD00046D01FDD602D3DD0702D37D0502D3BD03D
:100BE0000D2C01D8062D1DDD4FF48C7303FB04641E
:100BF0002C3420460121FFF715FF20460121FFF785
:100C000015FF337820463A46294603B0BDE8F04048
:100C1000FFF786BC202D21D0302D19D0002DDFD13B
:100C20000D2CE1D8012ADFD121460E4801920AF0AD
:100C3000ABFD019A0C4811460AF0B2FA2946094860
:100C40000AF0A2FD07480AF04BFDCDE70625E7E7CD
:100C50000225E5E70525E3E70425E1E70125DFE7D0
:100C60000325DDE7C489FF1F0C1901002DE9F043BE
:100C7000002383B00646436000F5A274012504E01A
:100C800001353F2D04F58C7466D02046FFF7BEFE7B
:100C90000028F5D04E4807F069F829464D4807F07E
:100CA00065F82046FFF77AFE0BF0A0FE02460B46E1
:100CB000494807F05BF82046FFF7B6FD804620461E
:100CC000FFF7CEFD074640460BF090FE80463846C3
:100CD00089460BF08BFE42464B46CDE900013F486A
:100CE00007F044F800212046FFF77EFE01218046F0
:100CF0002046FFF779FE074640460BF077FE804618
:100D0000384689460BF072FE42464B46CDE900015B
:100D1000334807F02BF82046FFF740FE0146706885
:100D20000CF006FA70602046FFF7F2FDF1690CF056
:100D3000A5FC002833D12046FFF7F8FD316A0CF0FE
:100D4000BBFC00289CD02046FFF7F0FD01353F2D6D
:100D5000306204F58C7498D1B0680CF09DFA0146AD
:100D600070680CF0A1FBB169706004460CF0A4FC43
:100D700000B1B461716920460CF080FC00B174616F
:100D80000B2008F07FFE44F21C53F35C60B99BB16A
:100D900044F21C530122F25403B0BDE8F083204614
:100DA000FFF7B6FDF061C6E753B944F21C530022C9
:100DB000F25403B0BDE8F0830A4807F005F8E7E70E
:100DC000094806F0EBFF44F21C530022F254F0E70E
:100DD000D81F0100101901004C1901006019010011
:100DE0008C190100A8190100E019010070B5124B1F
:100DF000C36000F58A450646143500F5A27403E089
:100E000004F58C74AC4214D02046FFF7FFFD002897
:100E1000F6D02046FFF708FDF1680CF02FFC002803
:100E2000EED02046FFF700FD04F58C74AC42F06074
:100E3000EAD1F06870BD00BF0000A04070B500238B
:100E400000F58A4506460361143500F5A27403E0F7
:100E500004F58C74AC4214D02046FFF7D7FD00286F
:100E6000F6D02046FFF7FCFC31690CF025FC002889
:100E7000EED02046FFF7F4FC04F58C74AC423061F0
:100E8000EAD1306970BD00BF40687047017070479B
:100E9000816070472DE9F04100F58A458846174684
:100EA0001EB2143500F5A27403E004F58C74AC4254
:100EB00014D02046FFF7AAFD0028F6D02046414670
:100EC000FFF7ACFD20463946FFF7B4FD204631461A
:100ED00004F58C74FFF7B2FDAC42EAD1BDE8F081B5
:100EE0002DE9F84344F2185300F58A450027C7500E
:100EF0002E462B4A2B4B826280464FF000094362FC
:100F00001435183600F5A27403E004F58C74A5427C
:100F100014D02046FFF77AFD0028F6D0336801335D
:100F200033602046FFF710FD1F490CF0C5FB90B958
:100F300004F58C74A54207F10107EAD144F2185375
:100F400058F80300C01B0CF0A7F9014648460CF006
:100F5000ABFABDE8F8832046FFF7F6FC01464846A9
:100F60000CF0E6F881462046FFF7E0FCD8F82410A4
:100F70000CF0A2FB70B92046FFF7CAFCD8F8281085
:100F80000CF07CFB0028C0D02046FFF7C1FCC8F85D
:100F90002800BAE72046FFF7C9FCC8F82400EAE7B2
:100FA00000C0794400C079C400008CC2406A704718
:100FB000806A7047F8B500F58A4507460026143563
:100FC00000F5A27403E004F58C74AC4210D0204606
:100FD000FFF71CFD0028F6D02046FFF763FC014612
:100FE00030460CF0A5F804F58C74AC420646EED100
:100FF00044F21853F8580CF04FF9014630460CF003
:1010000053FAF8BD2DE9F04F06468FB086488B465F
:1010100006F054FE844806F051FE834806F04EFE6A
:1010200044F218533046F2580D92FFF777FDB3683B
:101030000C93074670680BF0D9FC80463046894611
:10104000FFF7B8FF82463046F4683569FFF748FF7E
:101050000BF0CCFCCDE90A01214628460CF066F8DD
:1010600072490CF06DF90BF0C1FCCDE9080128467E
:101070000BF0BCFCCDE9060120460BF0B7FCCDE936
:10108000040150460BF0B2FC0D9A0C9BCDE9020115
:10109000CDE90089114666483A4606F00FFE6248DF
:1010A00006F00CFE06F5A2764FF001094FF0000A9B
:1010B00007E009F10109B9F13F0F06F58C7600F060
:1010C000AB803046FFF7A2FC0028F2D03046FFF795
:1010D00095FB3046FFF796FB3046FFF797FB30460F
:1010E000FFF798FB082153480AF05AF8494652483E
:1010F0000AF04AFBB9F1090F40F3918002214F48F1
:101100000AF04EF83046FFF749FC0BF06FFC5FFA2F
:101110008BF802460B46CDF8008047480AF03CFBAE
:10112000012147480AF03CF85546002420E00621FA
:1011300044480AF035F829463F480AF025FB0221C9
:1011400041480AF02DF821463046FFF767FB0BF0C7
:101150004DFCCDF8008002460B4637480AF01CFBD8
:101160000134012136480AF01BF8102C09D03D4605
:10117000092D05F10107DADC012134480AF010F8E5
:10118000D5E72D480AF0ACFA092131480AF008F8F1
:1011900000213046FFF728FC0BF028FC0225024610
:1011A0000B46009524480AF0F7FA0A21294809F06D
:1011B000F7FF01213046FFF717FC0BF017FC0095F5
:1011C00002460B461C480AF0E7FA0C21224809F0B7
:1011D000E7FF3046FFF716FC00232246014616487B
:1011E0000AF092FA08211D4809F0DAFF3046FFF7AD
:1011F0008BFB2246014600230F480AF085FA09F1CD
:1012000001090D480AF06CFAB9F13F0F0AF1100A12
:1012100006F58C767FF455AF0FB0BDE8F08F012155
:101220000A4809F0BDFF69E7D81F010000007A44B1
:10123000901C0100301D0100C489FF1F7C210100AA
:101240003C1D0100401D0100A01D0100B01D01005A
:10125000481D0100541D0100601D0100701D0100AA
:101260002DE9F04F85B000F5A2758A4603929B46A2
:101270002E464FF0010806E008F10108B8F13F0FD3
:1012800006F58C767BD03046FFF7C0FB0028F3D004
:1012900000230A2251467D480AF036FA01217C4893
:1012A00009F07EFF03980BF0A1FB00230246009398
:1012B00076480B460AF070FA0121754809F070FF74
:1012C000594672480AF060FA0121714809F068FF36
:1012D00041466E480AF058FA01216D4809F060FF56
:1012E00000244FF0020921463046FFF797FA0BF031
:1012F0007DFBCDF8009002460B4664480AF04CFA9C
:1013000001340121624809F04BFF082C4FF002071D
:10131000E9D100213046FFF767FB0BF067FB009730
:1013200002460B4659480AF037FA0121584809F09D
:1013300037FF01213046FFF757FB0BF057FB0097B3
:1013400002460B4651480AF027FA0121504809F09D
:1013500027FF39463046FFF747FB0BF047FB009766
:1013600002460B4649480AF017FA08F101084748B7
:101370000AF0B6F9B8F13F0F06F58C7683D1012754
:101380004FF0000904E001373F2F05F58C7579D047
:101390002846FFF73BFB0028F5D000230A225146E0
:1013A0003C480AF0B1F90121394808F0C3FE03981E
:1013B0000BF01CFBCDF8009002460B4635480AF0B6
:1013C000EBF90121324808F0B5FE594631480AF0E0
:1013D000DBF901212E4808F0ADFE39462D480AF010
:1013E000D3F901212A4808F0A5FE00244FF0020895
:1013F00021462846FFF712FA0BF0F8FACDF80080E4
:1014000002460B4623480AF0C7F90134012120485F
:1014100008F090FE082C4FF00206E9D10021284682
:10142000FFF7E2FA0BF0E2FA009602460B46194883
:101430000AF0B2F90121164808F07CFE0121284685
:10144000FFF7D2FA0BF0D2FA009602460B4611488B
:101450000AF0A2F901210E4808F06CFE3146284638
:10146000FFF7C2FA0BF0C2FA009602460B46094893
:101470000AF092F9013707480AF032F93F2F05F5D3
:101480008C7585D105B0BDE8F08F00BFC489FF1F02
:101490000C1901009889FF1F70B5132008F0F2FAAB
:1014A000A8B1114E114B35881C6808F0FFFAADB297
:1014B0002C44201A33880E4AC0EB00108000A0F69E
:1014C00034009BB2B0FBF3F39BB2138070BD074CAA
:1014D00008F0ECFA2368044AC01A80B2108008F0C1
:1014E000E5FA206070BD00BFF4DCFF1F68DDFF1F60
:1014F00078DDFF1F0A4A0B49106ED36D03FB00F322
:101500004FF47A7000FB03F0642310B50B600BF00E
:10151000C3FE0549054C0BF0C7FF206010BD00BF9E
:1015200008DCFF1F0C88FF1FE4388E3E54DDFF1FD0
:1015300010B4019C521AA4EB030412D0401A002CE0
:1015400004FB00F002EBD27111DB00EB610101FB47
:1015500002F0002891FBF2F10B4414DB184610BC9A
:10156000704704EBD47003EB600010BC7047A0EB35
:10157000610000FB02F1002990FBF2F01844EEDB61
:10158000013010BC7047581E10BC704738B5044677
:1015900008460D460DF054F82368024629465B685C
:1015A00020469847054620460AF09AF8284438BD58
:1015B000F8B54C484C4D4D4E4D4F4E4C06F07EFB11
:1015C0004D4B4E494E4A596011214E481970DD600D
:1015D0004D491A6100254FF4FA729E619F624B4E8D
:1015E0004B4FDC614FF07C54D862196349484A493B
:1015F0009D639A863C250C22DE631F64474E484F4C
:10160000DC6496241865596502200121A3F8B050C6
:101610009A65444D5E6200226426C3F8D070A3F838
:1016200068404FF496773224587058721972D96511
:101630001D625D615D6483F848201E661F675F66FA
:1016400041F20405DC66C3F88420C3F88800C3F8BF
:101650008C10C3F89020C3F89840C3F8B840C3F882
:10166000B4205A24C3F8C010C3F8C40083F8D410BF
:101670004FF47A7083F8D51083F8D6202A49A3F85E
:10168000D8202A4AC3F8C86040F61C4C4FF00A0E16
:1016900044F62067FF26DD67C3F880405525F02417
:1016A000C3F89C00C3F8A010052041F28831C3F8AC
:1016B000A42040F2D662C3F874C0C3F878E0C3F83F
:1016C000A870C3F8BC60C3F8DC50C3F8E040A3F8CE
:1016D000CE00C3F89410A3F8CC10A3F8AC20A3F864
:1016E000AE20F8BD7C1D0100666686403333834022
:1016F000CDCCCC3DCDCC4C4008DCFF1F20A1070059
:101700000000404000008242000020C10000204252
:101710000000A0409A9979400AD7233D33337340A3
:101720009A99993ECDCC4C3E0000684200C02044BE
:1017300070B5464C464D4748E66800232B70FFF7CE
:101740007DFB014630460BF099FF08B104232B7056
:101750004048FFF74BFB21690BF090FF18B12B7845
:1017600043F010032B703B48FFF720FCE16A0BF0BD
:10177000A3FF18B12B7843F040032B7000233548AA
:101780006B70FFF715FC216B314E0BF077FF08B142
:101790000123737000232F48EB70FFF74FFB0546C2
:1017A0002C482B4EFFF722FB014628460BF0BEFCCF
:1017B000616C0BF081FF08B10123F370264D2548C1
:1017C00000232B70FFF73AFBA16A0646E0680BF096
:1017D000ADFC014630460BF06FFF08B104232B70BF
:1017E0001C48FFF703FBA16A064620690BF0A0FC2A
:1017F000014630460BF042FF18B12B7843F010033E
:101800002B701448FFF7D2FB216C0646E06A0BF000
:101810008DFC014630460BF04FFF18B12B7843F09A
:1018200040032B7000230B486B70FFF7C1FB216C4A
:101830000546206B084C0BF07BFC014628460BF05C
:101840001DFF08B10123637070BD00BF08DCFF1FDE
:10185000E8DBFF1F1096FF1F5894FF1F544B1B68B7
:10186000002B74D0F0B5534D2B680533B3F57A7F58
:1018700083B040F38580002300272B604E4CD4F8C2
:10188000B8000BF009FD0646D4F8BC000BF004FDCF
:1018900031460BF04BFC39460BF052FD47490BF03B
:1018A00003FE31460BF044FC0BF010FF014606200E
:1018B00007F062FF0221424809F072FC414809F03A
:1018C0000FFF0621404809F06BFC28680BF0E4FC90
:1018D0003E490BF035FD0BF089F8022602460B4617
:1018E0000096384809F058FF0D21394809F058FC96
:1018F000D4F8B8000BF0D0FC074628680BF0CCFCFD
:1019000032490BF01DFD0546D4F8BC000BF0C4FCB9
:1019100039460BF00BFC014628460BF011FD274918
:101920000BF0C2FD39460BF003FC0BF05FF800969C
:1019300002460B46234809F02FFF3146204809F0A4
:101940002FFC204803B0BDE8F04009F0C9BE1A4B97
:101950002048D3F8B820D3F8BC100368891A0029AE
:1019600003FB01F31C4914DB323381FB0310D9174D
:10197000C1EB6011002B114416DB062007F0FCBE02
:1019800018462B600BF088FC10490BF0D9FC074679
:1019900074E7323B81FB0310D917C1EB6011002BB8
:1019A0000A4403DB511CE8E70139E6E71146E4E7A6
:1019B0008C94FF1FECDCFF1F08DCFF1F0000C842F7
:1019C0007C210100C489FF1F9C1D0100CDCCCC3DB2
:1019D000A41D01000C88FF1F1F85EB5170B5B44892
:1019E000B44C84B009F07CFEB14809F079FEB048EF
:1019F00009F076FE0D21B04809F0D2FBD4F8B430DE
:101A0000012B11D0AD4DAA48297800230A2209F0F4
:101A10007BFE2B78052B69D8DFE813F0A601AB011C
:101A2000B001B501BA01BF010921A54809F0B8FB11
:101A3000A448FFF7DBF921690BF020FE18B10F2154
:101A4000A14809F0ADFB9F48FFF7F8F9E1680BF0FA
:101A500033FE18B10E219D4809F0A2FB9948FFF70B
:101A6000EDF905469748FFF7C1F9014628460BF006
:101A70005DFB616C0BF020FE18B11121944809F058
:101A80008FFB9048FFF72CFAE16A0BF015FE18B1B6
:101A90000C21904809F084FB8A48FFF721FA216B5A
:101AA0000BF0ECFD18B10D218B4809F079FB8B4B45
:101AB00084481B68012B00F0A581FFF797F9216985
:101AC0007C4D0BF0F9FD002800F04C817D48FFF7BC
:101AD000B5F9E968794D0BF0D1FD38B12B78052BBC
:101AE00000F0A78108217E4809F05AFB02217D48B9
:101AF00009F056FB122007F0C5FF012800F07D8198
:101B0000112007F0BFFF012800F04C81764B1C68C4
:101B1000012C00F0508102217248744C09F040FB06
:101B2000734B6348196809F02FFE614809F0D8FD2E
:101B30000421704809F034FB0B2007F0A3FF0023B9
:101B400001460A225A4809F0DFFD0C2007F09AFFEF
:101B5000002301460A22564809F0D6FD142007F05A
:101B600091FF002301460A22514809F0CDFD1520BE
:101B700007F088FF0A22002301464D4809F0C4FD02
:101B800006215D4809F00CFB2368DE074FF00101D8
:101B90004CBF5A485A4809F003FB236898074FF096
:101BA00001014CBF5548564809F0FAFA23685A0714
:101BB0004FF001014CBF5148514809F0F1FA236838
:101BC0001B074CBF4D484E48012109F0E9FA04219A
:101BD0004C4809F0E5FA112007F054FF00230146B4
:101BE0000A22334809F090FD102007F04BFF002334
:101BF00001460A222E4809F087FD122007F042FF15
:101C0000002301460A222A4809F07EFD132007F02E
:101C100039FF0A2200230146254809F075FD1821E5
:101C2000394809F0BDFA394B18880BF035FB3849B3
:101C30000BF086FB0AF0DAFE002402460B46009405
:101C40001B4809F0A9FD1D21324809F0A9FA324BC1
:101C500018680BF021FB2E490BF072FB0AF0C6FE50
:101C600000940B46024612482C4C09F095FD0221C7
:101C70002B4809F095FA2B78032B02D023889BB2CE
:101C80009BB11721274809F08BFA2188084889B2AF
:101C900009F07AFD0221224809F082FA2B78032B01
:101CA00003D1214B1B78002B40D104B070BD00BF85
:101CB000C489FF1F08DCFF1FB41D01009094FF1FA3
:101CC000C41D01001096FF1FD01D0100E01D010082
:101CD000F01D0100041E0100141E01009C94FF1F52
:101CE000481E01007C2101000CDDFF1F7CDDFF1F71
:101CF0006894FF1FC01E0100C81E0100D01E010015
:101D000050300100D41E0100DC1E01008894FF1F2A
:101D1000CDCCCC3DF81E010070DDFF1F78DDFF1F2C
:101D2000181F0100781F01004CDBFF1F0B214348E7
:101D300009F036FA424B4348198889B209F024FD6C
:101D40001121414809F02CFA404B3E48198809F00E
:101D50001BFD3F4B1B78002B64D01D213D4809F033
:101D60001FFAA2E73C4DC1E606213C4809F018FAEB
:101D7000BCE607213A4809F013FAB7E607213948CB
:101D800009F00EFAB2E60821374809F009FAADE683
:101D90000B21364809F004FAA8E60721344809F077
:101DA000FFF9A3E60A21334809F0FAF9324B1C681F
:101DB000012C7FF4B0AE1121304809F0F1F9214631
:101DC0002F4809F0EDF92F4B2F4A1B680393039B13
:101DD0001068C01A0BF05CFA2C490BF0B1FA0AF04B
:101DE00005FE002602460B460096164809F0D4FC74
:101DF0002146234809F0D4F98DE60E21244809F044
:101E0000CFF97DE6FEF7F2FF616A0BF055FC70B189
:101E100016212048104D09F0C3F90A211E4809F087
:101E2000BFF963E619211D4809F0BAF93DE70A4DEB
:101E300058E60A21184809F0B3F957E61C1F0100BB
:101E4000F4DCFF1FC489FF1F281F01005EDDFF1F98
:101E50000095FF1F581F01009094FF1F541E0100A2
:101E60005C1E0100701E0100781E0100641E01004E
:101E7000841E01009C1E01000CDDFF1FA81E010036
:101E8000BC1E01004CDFFF1F44DDFF1F6F12833AB1
:101E90008C1E0100241E01003C1E01003C1F01009D
:101EA0002DE9F04FAB4CD4F88860012E8DB000F0D6
:101EB0007981032E00F0CD80DFF8DC82A64FA74E9B
:101EC000D4F88430A648012B09BF3168316801F18C
:101ED0000041316007F07EF83B68002B40F09F80A6
:101EE0009F48DFF8B49207F04BF83B68C8F8000051
:101EF0000546002B44D1D4F88830964A012B53D0A4
:101F0000984928460BF0D8FBC0B9974928460BF0F2
:101F1000B5FB98B9954A964B12680B920B9A1A60CA
:101F2000D4F8C0000BF0B8F929460BF009FA0023E9
:101F3000C8F8000033600DB0BDE8F08FDFF82CA2C8
:101F40008B4FDAF800300A930A983B68DFF84C921E
:101F5000C01A0BF09DF929460BF0F2F985490BF0F8
:101F6000A3FA84490BF0A0FAD9F800100BF0E0F8BE
:101F7000DAF800300993099BC9F800003B60CFE70D
:101F80000AF034FD022502460B4600957A4809F016
:101F900003FC0421794809F003F9D4F88830D9F812
:101FA00000506C4A012BABD1754B1B68012B00F024
:101FB000D981022BB4D1D2F8A87038460BF06CF955
:101FC00029460BF05BFB40B978420BF065F92946D6
:101FD0000BF072FB002800F0F881DFF890A1644F4D
:101FE000DAF80030079307983B68DFF8B091C01A21
:101FF0000BF04EF929460BF0A3F95E490BF054FAA9
:102000005C490BF051FAD9F800100BF091F8DAF8AE
:1020100000300693069BC9F800003B6080E75048FB
:1020200006F0AEFF0AF0E2FC022502460B460095E0
:10203000514809F0B1FB0321524809F0B1F8D4F836
:10204000A8104D4809F0A0FB03214E4809F0A8F85C
:1020500046E74D4D4A4F2B68DFF83C81D3F88400AA
:102060000F2101233B6006F043FF3B683A4F012BF1
:102070003B6800F0BE80002B40F03C812B68DFF80D
:102080002091D3F88400436B19698EB2C9F80060BF
:1020900006F0B0FCB4F8AE2040F6E44303FB06F1D2
:1020A000B1FBF0F0801A00B20BF0F6F837492B4E76
:1020B0008246D4F8A0000BF043F9014650460BF0DD
:1020C000F3F9D9F800303060632BDFF8D4A000F3C7
:1020D0000581002333603B68002B3FF4F1AE022101
:1020E0002B4809F05DF82B68D9F80050D3F884002C
:1020F00040F6E44303FB05F506F07CFCB5FBF0F08D
:102100000BF0C6F80546B4F8AE000BF0C5F8014672
:1021100028460BF00BF80AF069FC022502460B4634
:102120000095154809F038FB2946194809F038F898
:1021300030680AF05BFC009502460B460E4809F039
:102140002BFB2946134809F02BF82946104809F0C3
:1021500027F8B5E608DCFF1F38DDFF1F6CDDFF1F29
:1021600014DDFF1F0000FA430000FAC34CDFFF1F1D
:10217000E4DBFF1F00007A44C489FF1FD41F010065
:102180002488FF1FD01F010088DDFF1F9175DD36F9
:102190007C210100CC1F0100ECDBFF1F54DDFF1F81
:1021A00090DDFF1FDFF80883D4F8A870D8F800503E
:1021B00038460BF071F829460BF07EFA48B17842A8
:1021C0000BF06AF8014628460BF076FA002840F03A
:1021D0000381A54DA54F2A680223D2F884003B60F5
:1021E0000E2106F085FE3B68A14F012B3B687FF472
:1021F00042AF002B40F0FA802B68DFF8B892D3F89A
:102200008400436B19691FFA81FBC9F800B006F01E
:10221000F1FBB4F8AC30974E40F6E44A0AFB0BFBF6
:10222000BBFBF0F0C01A00B20BF036F892498346BF
:10223000D4F8A4000BF084F8014658460BF034F9AA
:102240002A68D9F800303060D2F884000AFB03FA1B
:1022500006F0D0FBB4F8AC30BAFBF0F00FFA80FA1D
:10226000C3EB0A03002BB4F8CE20B8BF5B42934205
:10227000BCBF002333603B68002B3FF421AE02213A
:102280007E4808F08DFF2B68D9F80050D3F8840001
:1022900040F6E44303FB05F506F0ACFBB4F8AC10E4
:1022A000B5FBF0F000B2411A754809F06DFA022151
:1022B000724808F075FF30680AF098FB0225024664
:1022C0000B4600956E4809F067FA03216D4808F047
:1022D00067FF2946694808F063FFF1E52B68D3F8EA
:1022E000840006F087FBDAF8003064389842FFF487
:1022F000F0AEF0E66248DFF8BC91DFF86CA109F0BF
:10230000EFF90C21604808F04BFF0C215F4808F002
:1023100047FF2A683B68D2F88400426B11698EB28D
:10232000C9F80060002B3FF4B3AE06F063FB40F643
:10233000E44100230A2201FB06F1B1FBF0F1504811
:1023400009F0E2F902214D4808F02AFFB4F8AE1076
:102350004B4809F019FADAF80030D9F80060D3F8E0
:10236000840095E64A4928460BF0A6F958B9494930
:1023700028460BF083F930B9474A484B126805925A
:10238000059A1A60CCE5DFF810A1444FDAF8003066
:10239000049304983B68DFF82091C01A0AF078FF94
:1023A00029460AF0CDFF3E490BF07EF83C490BF080
:1023B0007BF8D9F800100AF0BBFEDAF8003003937E
:1023C000039BC9F800003B60AAE5334A334B12680F
:1023D0000892089A1A60A3E5234D244F2B683E60AB
:1023E000D3F884000F2106F083FD3EE62448DFF891
:1023F000C4901D4E09F074F9D4F88830012B4FF0C9
:102400000B010CBF2748284808F0CAFE0C211F48C2
:1024100008F0C6FE2A683B68D2F88400426B116956
:102420001FFA81FBC9F800B0002B3FF4F0AE06F0B4
:10243000E1FA40F6E44100230A2201FB0BF1B1FB73
:10244000F0F10F4809F060F90121184808F0A8FEE2
:10245000B4F8AC100A4809F097F93368D9F800B01D
:10246000D3F88400D3E600BF88DDFF1F2488FF1F58
:1024700038DDFF1F6CDDFF1F9175DD367C2101000B
:10248000C489FF1FB81F0100BC1F0100A81F010065
:102490000000FA430000FAC34CDFFF1FE4DBFF1F1C
:1024A00000007A44901F01009C1F0100B01D010034
:1024B000ECDBFF1F90DDFF1F54DDFF1F2DE9F04F08
:1024C000924C236885B0002B7BD0914DDFF84C8275
:1024D000904FDFF88C92D5F890308D4E012B00F0A4
:1024E0008B80346ED7F800A0F66D04FB06F44FF431
:1024F0007A7000FB04F00AF0CFFE8749874E04464D
:1025000050460AF01DFF21460AF0CEFF84490AF02A
:1025100017FF0BF0DBF86328C8F800004CDD2046FD
:102520007D490AF0C1FF642338603360D9F8003078
:10253000002B3ED0D5F88830754C012B00F08380FD
:10254000032B00F0D780022B00F0DB8002217548BE
:1025500008F026FE744B18680AF048FA0224024676
:102560000B460094714809F017F92146704808F0AD
:1025700017FE21466B4808F013FED8F800106B4890
:1025800009F002F906216B4808F00AFE3868624932
:102590000AF0D6FE0AF02AFA009402460B46634877
:1025A00009F0FAF80321644808F0FAFD5F4809F0E1
:1025B00097F805B0BDE8F08F0028BCBF002333605A
:1025C000B4E75E4E524D33680293029A42F22833CA
:1025D0009A4245D833680393039A42F210739A42A1
:1025E00047D8D5F89030DFF834814A4FDFF8709142
:1025F000474E012B7FF475AF5148FEF7DBFC514984
:10260000D6F87CA0746FD6F878B00AF099FE0BF07B
:1026100083F8D6F880300093524621465B4680B25C
:10262000FEF786FF346EF66D04FB00F006FB00F04B
:1026300000EB800040000AF02FFE37490AF034FF1B
:102640008246386051E7404B1B68012B4FF00A016E
:102650000CBF3E483E4808F0A3FDD4F888306FE731
:102660003748B5F9D830EA6C95F84810FEF712FCF7
:10267000B0E73348DFF8A480FEF79CFC3149D5F879
:102680007890EF6F6E6F0AF05BFE0BF045F8D5F8AF
:10269000803000933A464B46314680B2FEF748FF01
:1026A0002A6EEB6DC8F8000002FB00F003FB00F09F
:1026B00000EB800040000AF0EFFDDFF8A49016491F
:1026C000144F0AF0F1FED9F8003038600122226080
:1026D000002B3FF400AF0221124808F061FD1348BF
:1026E00008F0FEFF59211B4808F05AFD0F4808F07A
:1026F000F7FFF0E61021184808F052FDD5F88830B1
:1027000021E70721154808F04BFD1FE700DDFF1FFB
:1027100008DCFF1F54DDFF1FE4388E3E0C88FF1FCE
:102720000000C8427C210100ECDBFF1FC489FF1FB1
:10273000CC1F01006C200100742001004CDFFF1F42
:102740001096FF1F00007A442488FF1F38200100E4
:1027500044200100DC1F0100502001006420010022
:102760000088FF1F30B5112083B007F08BF90128D6
:1027700018D0122007F086F9012813D000210B2071
:1027800007F07AF900210C2007F076F900211520D6
:1027900007F072F92649274B0120002208701A60C1
:1027A00003B030BD0121152007F066F9224A234C01
:1027B000234B1268D4F8941001921B68019A1D4DA6
:1027C0000B4493424FF00201296005D901210C20EE
:1027D00007F052F903B030BDD4F89C000AF05CFD5C
:1027E000184B19680AF04AFF0028EFD101210B208D
:1027F00007F042F994F8D43003242C6043B10C4B19
:1028000002221A7000210C2007F036F903B030BD07
:10281000122007F037F9012808BF054B4FF01100CF
:1028200008BF1C7007F02EF90128EBD1E7E700BFC5
:102830009094FF1F0C95FF1F4CDFFF1F08DCFF1F4C
:1028400048DBFF1FECDBFF1FF0B5684E684D3468B6
:102850002B689C4287B039D014F0010155D014F098
:10286000020149D014F004013DD0E3070ED52B68D6
:10287000DF070BD45F4F3A68002A00F082805E4B7E
:102880001B680193019B93426DD83468A0070DD556
:102890002B6899070AD4594F3A68002A4CD0564BF6
:1028A0001B680393039B934238D8346862070DD5A5
:1028B0002B685B070BD4524F3A68002A7ED04E4BF0
:1028C0001B680593059B934268D834680CB107B028
:1028D000F0BD2146162006F04FFF2146172006F0D6
:1028E0004BFF07B0F0BD052006F046FF2B683468AB
:1028F00003F0FB032B60B8E7172006F03DFF2B68C1
:10290000346803F0FD032B60ACE7162006F034FFBB
:102910002B68346803F0FE032B60A0E7394B1720C7
:10292000D3F8981006F028FF2B68346843F00203B0
:1029300000222B603A60B9E7334808F0D1FE0C2141
:10294000324808F02DFC304808F0CAFEFF2117205D
:1029500006F012FF284B2E4A19680291029912685C
:102960000A443A609CE7274B1620D3F8981006F0EB
:1029700003FF2B68346843F0010300222B603A60A8
:1029800084E7FF21162006F0F7FE1B4B204A19684A
:102990000091009912680A443A6071E7194B0520CA
:1029A000D3F8981006F0E8FE2B68346843F004036F
:1029B00000222B603A60002C89D18AE7124808F087
:1029C0008FFE0C21134808F0EBFB0F4808F088FE3F
:1029D000FF21052006F0D0FE074B0D4A196804912F
:1029E000049912680A443A606AE700BF0C95FF1F19
:1029F0007CDDFF1FF0DCFF1F4CDFFF1F04DDFF1F2E
:102A000008DDFF1F08DCFF1FC489FF1F78200100BD
:102A10001488FF1F882001002DE9F047534EDFF88E
:102A200070813368DFF86C91D3F88400504D0F212A
:102A300006F05EFA0023012222214E48C8F8003039
:102A4000C9F8002008F0ACFBD8F80030132B20DCCC
:102A500040F6E4473368B5F8ACA0D3F88400436B84
:102A60001C6905F0C7FFA4B2012107FB04F4B4FB05
:102A7000F0F441485444A5F8AC4008F091FB6420C0
:102A800007F036F8D8F800300133132BC8F80030BF
:102A9000E0DDB5F8AC30394A3948A2FB03129B1A85
:102AA00002EB5303C3F30F131946A5F8AC3008F03B
:102AB0006BFE1D21334808F073FB0221324808F0F9
:102AC0006FFB2F4808F00CFE00231A460E213068D9
:102AD000C8F8003005F008FF022322212548C9F874
:102AE000003008F05DFBD8F80030132B20DC40F6F6
:102AF000E4473368B5F8AE90D3F88400436B1C69A3
:102B000005F078FFA4B2012107FB04F4B4FBF0F454
:102B100019484C44A5F8AE4008F042FB642006F08A
:102B2000E7FFD8F800300133132BC8F80030E0DDA0
:102B3000B5F8AE30114A1248A2FB03129B1A02EB01
:102B40005303C3F30F131946A5F8AE3008F01CFE6B
:102B50001D210E4808F024FB02210B4808F020FB41
:102B60000748BDE8F04708F0BBBD00BF88DDFF1F88
:102B700008DCFF1F98200100DC2001008761188617
:102B8000C489FF1FBC2001007C210100E02001005E
:102B90007094FF1F2488FF1F2DE9F047C64DD5F81C
:102BA000C430062B00F0AE81C44BC54C1B68A86D29
:102BB00040F2513108222160E271002B00F0778150
:102BC0000AF06AFB696A06460AF0BAFBBD49BA4FC9
:102BD0000AF0B6FB0AF0A0FD80B203126372BA4A93
:102BE000BA4B12681B88E9692072A37230461B1227
:102BF0001612E372227366730AF0A2FBB149B04E5B
:102C00000AF09EFB0AF088FD83B21A123146B048E2
:102C1000A373E27305F0C0FCAE4AAF4B126819888B
:102C2000A172D3B2237203EB83035B00237302EB25
:102C3000820343F3D7134FEA212E12124FF00808F4
:102C40004FF0000931466373A14884F80BE040F26D
:102C500055336272236084F8078084F80E9084F8FC
:102C60000F9005F099FC40F256339C48236084F89D
:102C70000780FEF709F99A490AF062FB0AF04CFD59
:102C800020729648FEF700F995490AF059FB0AF0C0
:102C900043FD944A9249C0F30723106863720AF017
:102CA00003FC0AF013FD40FA08F3A0728B48E372AC
:102CB000FEF716F983490AF043FB0AF007FD20737B
:102CC0008648FEF70DF97F490AF03AFB0AF0FEFC50
:102CD00040F30720314660737D4884F80E9084F8F5
:102CE0000F9005F059FC022006F002FF7E4A7F4B50
:102CF00011782172517890786172D178A0721A7827
:102D00009878E172597822736173DA78A07340F28F
:102D10005A3331466E48E273236084F8078005F029
:102D20003BFC734B6A481A7822725A7862729A781E
:102D3000A272DA78E2721A7922735A7962739A79F6
:102D4000DB79E373314640F25E33A273236084F88B
:102D5000078005F021FC022006F0CAFE654B5C48A6
:102D60001A7822725A7862729A78A272DA78E272CB
:102D70001A7922735A7962739A79DB79E37331464F
:102D80004FF45C73236084F80780A27305F004FCA1
:102D9000594B1B68012B00F06F82022006F0A8FE41
:102DA000082640F273334D482360E671FEF71EF8A3
:102DB00052490AF0C5FA0AF0AFFC20724748FEF704
:102DC00015F84E490AF0BCFA0AF0A6FCC0F3072336
:102DD00042486372FEF732F848490AF0B1FA0AF045
:102DE0009BFCA0723D48FEF729F844490AF0A8FA76
:102DF0000AF092FCC0F307233848E372FEF7D8F8D4
:102E00003F490AF095F90AF087FC20733348FEF732
:102E1000CFF83B490AF08CF90AF07EFCC0F3072397
:102E20002E486373FEF7C2F835490AF081F90AF0BB
:102E300073FCA0732948FEF7B9F831490AF078F914
:102E40000AF06AFC1E49C0F307232148E37305F02A
:102E5000A3FB022006F04CFEE96D2B6E022211FB53
:102E600003F3104640F27931C3F30725E271216084
:102E70002372657206F03CFE40F2723317482360FD
:102E8000E671FDF773FE20721448FDF76FFE002314
:102E900040FA06F26272A372E37223736373A37340
:102EA000E37307490A48BDE8F04705F075BB0AF02F
:102EB000F3F9A969064687E608DCFF1F9C94FF1F0B
:102EC0007494FF1F0000204170DDFF1F8894FF1FD6
:102ED000A4DDFF1F0C88FF1F1088FF1F1096FF1F27
:102EE0000000C842ECDBFF1FE8DBFF1F5894FF1F08
:102EF0003488FF1F3C88FF1F0CDDFF1F00007A4451
:102F000033938843CD4CCE48002608274FF4C36343
:102F100021464FF059094FF044084FF0420A236010
:102F200084F80A9084F80B80E77126722673667322
:102F3000A673E67384F809A005F02EFB022006F0C4
:102F4000D7FD4FF4BB632146BD48236084F80A9047
:102F500084F80B80E771267284F809A026736673E3
:102F6000A673E67305F018FB022006F0C1FDE96DBB
:102F70002A6ED5F858E0B248E77101FB02F312FB64
:102F800001F203EBC30103EB810302EBC2010EFB71
:102F900003F302EB81024FF4AB68032112FB0EF244
:102FA0004FF0050C3B414FF0070EC4F80080217232
:102FB0004FF0120921464FF0040884F80EC0237325
:102FC000627384F80FE0A67284F8099084F80B808D
:102FD00005F0E2FA022006F08BFD34224F234FF475
:102FE000B36E21469648E272E373C4F800E0E771DD
:102FF0002672667284F80A902673667384F80E80CF
:1030000005F0CAFA022006F073FD8E4BE7711B68CB
:10301000A86D4FF456722260002B40F065810AF0D3
:103020003BF9A96906460AF08BF987490AF088F945
:103030000AF072FB80B240FA07F360722372E9690A
:1030400030460AF07DF980490AF07AF90AF064FB0B
:103050007E4B7F4A1B6812887849637385B21612CB
:103060001B122F1276482373E273E572A772A673C0
:1030700005F092FA022006F03BFD764A764B166880
:103080001D88764B76491868E57206EB8603642244
:1030900002FB06F203EB83039B0012122E124FF485
:1030A0007677082563722272A6722760E5710AF0AE
:1030B00047F90AF031FB83B243FA05F70026F922FB
:1030C0005E495F486373A2732773E67305F064FA81
:1030D000022006F00DFD4FF48B604FF0120E5622C9
:1030E0007823564920603427554884F80AE0A273B3
:1030F000E373E5712672667226736673E77205F0F4
:103100004BFA022006F0F4FC4FF4A3635548236009
:10311000E571FDF74BFF4C490AF012F90AF0FCFA91
:10312000C0F307234F482372FDF740FF46490AF0DA
:1031300007F90AF0F1FA60724A48FDF739FF42498F
:103140000AF0FEF80AF0E8FAC0F307234548A37234
:10315000FDF72EFF3C490AF0F3F80AF0DDFAFF23F1
:103160003649E072364823736373A373E37305F043
:1031700013FA022006F0BCFC4FF49B63394823602D
:10318000E571FDF781FE30490AF0DAF80AF0C4FA79
:10319000C0F3072333482372FDF776FE2A490AF06D
:1031A000CFF80AF0B9FA304B3049607218680AF06B
:1031B0007BF90AF08BFA40FA05F203462948A2721D
:1031C000E372FDF78DFE20490AF0BAF80AF07EFAA4
:1031D00040F3072323482373FDF782FE1A490AF0C0
:1031E000AFF80AF073FA0323607314491448A37309
:1031F000E57305F0D1F9022006F07AFC1C4A1D4B5C
:1032000092F801E09178D0781F785E7892F800C04B
:10321000E571DA789D78A1724FF4AC73E07284F8AE
:1032200008C084F809E027736673A573E27323600E
:1032300002490348BDE8F04705F0AEB97494FF1F9A
:10324000A4DDFF1F9C94FF1F0000204170DDFF1FC5
:103250008894FF1F0C88FF1F1088FF1F54DDFF1F7D
:10326000620B363B1096FF1FECDBFF1F0000C842CD
:10327000E8DBFF1F5894FF1F2E48FDF7B7FD796D5F
:1032800009F056FF81462B48FDF7D8FD0146484618
:103290000AF0F4F900283FF480AD40F2C33325482A
:1032A00086F807803360FDF7A1FD3F6D39460AF0CF
:1032B000E5F948B3204938460AF042F80AF02CFAFA
:1032C00080B240FA08F3707233720023012704269B
:1032D00003221A491A48A772E67222736373A37312
:1032E000E37305F059F958E509F0D6FF696A064617
:1032F0000AF026F813490AF023F80AF00DFA80B212
:103300000312607223729AE60A48FDF76FFD0A49BC
:103310000AF016F80AF000FAC0F3072305483372E2
:10332000FDF764FD04490AF00BF80AF0F5F9707234
:10333000CBE700BF1096FF1F00007A447494FF1F74
:10334000A4DDFF1F0000204138B5174C174A236841
:10335000101D12F8011F904241EA0323F9D12360A6
:10336000134C03F100432360124BD3F88830022B37
:1033700011D0114B1B68012B00D038BD0F4808F04D
:10338000AFF921680D4808F0FFF903210C48BDE8AA
:10339000384007F005BF20680A4D09F07DFF28601E
:1033A000FEF77EFDE5E700BF74DDFF1F3FDBFF1F7B
:1033B0000495FF1F08DCFF1F84DDFF1FC489FF1F6A
:1033C0000C2101006CDDFF1F70B51E4A1E4C507AA7
:1033D000937A2168D27A1D4E1D4D43EA002342EABA
:1033E0000323012933602B6019D01846194BD3F8F9
:1033F0008830A0F50000022B28601BD02368012B29
:1034000000D070BD144808F06BF92968124808F024
:10341000BBF903211148BDE8704007F0C1BE0E485A
:1034200008F05EF90023102229680B4808F06CF9B7
:103430002868DBE709F030FF094B1860FEF730FD24
:10344000DCE700BF38DBFF1F84DDFF1F74DDFF1FDB
:103450000495FF1F08DCFF1FC489FF1F0C2101001A
:103460006CDDFF1F2DE9F041B54DB64EB64882B078
:10347000294604F08FFFD6F88830022B64D02B68E1
:10348000F02B00F0A580A3F19A02E52A00F28A80D1
:10349000AE4BAF4C1B68012B00F090800022A84976
:1034A000AC48FDF789FB2B6803F47F63B3F5C07F5D
:1034B0007ED1A64BA2491B68A648012B96F8D630B0
:1034C00000F081800022FDF755FB2368012B72D1AB
:1034D0009E4B1B68012B6ED19F4BA0481B6801932C
:1034E0000A220023019908F00FF92A68944B002A58
:1034F000DB79C0F21A819A499A480BF075F899481D
:103500000BF09EF80146974807F04AFE2C688C4B5A
:1035100014F0804440F0FA80DB798BB12B1992498A
:103520001A7A90480BF060F88E480BF089F8014643
:103530008C4807F035FE0134EB79E4B2A342EDD8B4
:10354000864808F0CDF836E0D6F88C202B68012AA2
:1035500000F09180022A0CD140F2C132934203D094
:1035600040F2C23293428BD1FFF72EFFD6F88C2067
:103570002B68032A84D140F22252934200F0DC806F
:1035800040F22352934240F085807848784C077986
:103590004179C278807801EB072101EB024202EB0E
:1035A0000062226003F47F63B3F5C07F684C80D073
:1035B0002368012B8CD002B0BDE8F0812268012A7B
:1035C0007FF46CAF6BE72268012A7FF47BAF7AE768
:1035D000684F614B3C781B6800930A2200230099D6
:1035E0005E4801343C7008F08FF82A68544B002A7A
:1035F000DB797EDB5A495B480AF0F6FF59480BF04D
:103600001FF80146574807F0CBFD2C684C4B14F0CF
:1036100080445FD1DB79B3B1DFF8788152495148FA
:103620002F193A7A0AF0E0FF3B7A4E4808F8043046
:103630000BF006F801464B4807F0B2FD0134EB7978
:10364000E4B2A342EAD845484B4C08F049F804F1EB
:10365000080714F8011F41480023102208F054F80D
:103660000121464807F09CFDA742F2D13B4808F0F3
:1036700037F82B6807E740F2C132934240D040F25E
:10368000C23293427FF4FCAEFFF75EFED6F88C2088
:103690002B685FE740F2215293427FF4F1AE334C46
:1036A000374F6179227994F803E0A07801EB022288
:1036B000D6F8881002EB0E4202EB00600229386057
:1036C0007FF470AF09F0E8FD2E4B1860FEF7E8FBC1
:1036D0002B68D5E62C4F234C0FCF0FC497E803007F
:1036E00044F8040B204620F81419152107F058FD62
:1036F000A9E726491B4822F060420AF075FF7DE7E2
:10370000FFF762FED6F88C202B6823E71E4D154C80
:103710000FCD0FC495E8030044F8040B204620F8B1
:103720001419152107F03CFD0AE718490D4822F04D
:1037300060420AF059FFE2E60C48154C27E700BF4B
:1037400038DBFF1F08DCFF1FA4DDFF1F84DDFF1F28
:103750000088FF1F1096FF1F4CDFFF1FC489FF1F4B
:103760003821010060DBFF1F6421010058DBFF1FCF
:1037700010DDFF1F4CDDFF1F5F94FF1FBC1E01000B
:103780000495FF1F6CDDFF1F4C210100102101007B
:10379000E0DBFF1F6094FF1F2DE9F04FA24B1B7869
:1037A000052B83B000F0AA80A04FA14CA14E3B781E
:1037B000226F3260A04D002B67D0B4F868302B80A8
:1037C0009E48FDF7F5FB216B09F058FF08B1002377
:1037D0002B809A48FDF7EAFBE16A09F06DFF10B112
:1037E000002333602B809548FDF728FBE16809F042
:1037F00063FF08B100232B809048FDF71FFBE168B1
:1038000009F05AFF08B100232B808C48DFF8208292
:10381000FDF7ECFA216909F031FF002874D000238C
:1038200033602B88DFF8108213B33B788348804FD6
:10383000002B40F0CB80FDF7BBFBA16B09F01EFF16
:10384000002840F038817E4B7C481B68784F012B64
:1038500000F09A81FDF7F2FA216A8046A06909F02A
:1038600065FC0146404609F027FF002840F0F6813C
:103870003368704A002BBCBF00231360714A138861
:103880009BB22BB903B0BDE8F08F636E2B8097E736
:10389000674E1288D6F8E030D6F8DC0092B203FB0F
:1038A00002F300FB03F009F0F7FC674909F048FD5B
:1038B00009F032FF654B84B260481C80FDF77AFB4B
:1038C000074604EB8400400009F0E6FC0446B06DB6
:1038D00009F0E2FC394609F033FD0146204609F0C3
:1038E000E3FD09F019FF2B88594A534980B28342FE
:1038F0001080C7D9088003B0BDE8F08F4D4A4E4D07
:10390000002313602B80B9E74C48FDF76FFAD8F815
:103910001C1009F0B3FE002881D13368DFF814A130
:10392000002B7FF77EAF4548FDF740FBD8F83C10F1
:1039300009F0C2FE002840F08D804048DFF8F0908A
:10394000FDF754FAD4F8D0108046E06909F0F0FB96
:103950000146404609F092FE00283FF462AF30680D
:1039600009F09AFC83463548FDF740FA0090D9F8F3
:103970007000D9F81C8009F08FFC009B82464146FC
:10398000184609F0D3FB51460090002009F0CEFB09
:10399000009B0146184609F0D3FCD9F8D0100090DE
:1039A000404609F0C5FB414609F0C0FB009B0146BB
:1039B000184609F079FD514609F0BAFB0146584610
:1039C00009F0B4FB09F082FE30602AE7FDF7F0FA57
:1039D000A16B09F053FE002840F0A180184B174856
:1039E0001B68134F012B00F0F480FDF727FA216AC2
:1039F0008046A06909F09AFB0146404609F05CFE4A
:103A000000283FF435AF288809F046FC81460B4872
:103A1000FDF714FABC69396A8246204609F086FB34
:103A20008046B7F8680028E19094FF1F0095FF1FBB
:103A300008DCFF1F70DDFF1F8894FF1F1096FF1F1B
:103A40009C94FF1F78DDFF1F0AD7233C5EDDFF1F1C
:103A50008A94FF1FDAF8000009F01EFC834697489D
:103A6000FDF7A4FA0190D8F87000D8F83C9009F05E
:103A700013FC019A00904946104609F057FB009B41
:103A80000146184609F05CFC49460090D8F82C0025
:103A900009F04CFB009B0146184609F005FD00218A
:103AA00009F046FB0146584609F040FB09F00EFEBE
:103AB000CAF8000041E7B8F8000009F0EDFB8346C2
:103AC0007E48FDF775FA0090786ED7F830A009F0BF
:103AD000E3FB009B81465146184609F027FB494607
:103AE0000090002009F022FB009B0146184609F0D7
:103AF00027FC51460090B86B09F018FB009B01466B
:103B0000184609F0D1FC494609F012FB0146584617
:103B100009F00CFB09F000FEA8F8000093E6B8F8E5
:103B2000000009F0B9FB83466448FDF741FA0090B4
:103B3000B7F86800D7F830A009F0AAFB009B8146CF
:103B40005146184609F0F2FA49460090002009F063
:103B5000EDFA009B0146184609F0F2FB5146009031
:103B6000B86B09F0E3FA009B0146184609F09CFC8B
:103B7000494609F0DDFA0146584609F0D7FA09F03E
:103B8000CBFDA8F8000029E7FDF758F9216A804627
:103B9000606A09F0CBFA0146404609F08DFD002825
:103BA0003FF466AE288809F077FB82464348FDF76C
:103BB00045F9D7F82480396A8346404609F0B6FAB9
:103BC0008146F86E09F068FB0446786E09F064FBE4
:103BD00024E0FDF733F9216A8046606A09F0A6FA0D
:103BE0000146404609F068FD00283FF441AE2888B0
:103BF00009F052FB82463148FDF720F9D7F82480BE
:103C0000396A8346404609F091FA8146F86E09F018
:103C100043FB0446B7F8680009F03AFB214609F077
:103C200085FA49460746584609F080FA0146384663
:103C300009F086FB49460746404609F077FA0146F7
:103C4000384609F031FC214609F072FA0146504627
:103C500009F06CFA09F060FD288009E6288809F06F
:103C60001BFB81461548FDF7E9F8BC69396A8246B5
:103C7000204609F05BFA8046786EFB6EC01A09F0A8
:103C80000BFB41460746504609F050FA01463846BC
:103C900009F056FB41460746204609F047FA01461F
:103CA000384609F001FC002109F042FA0146484675
:103CB00009F03CFA09F030FD2880D9E51096FF1F85
:103CC00008B5274807F00CFD0721264807F068FAD9
:103CD000112005F0D7FE0621F8B1234807F060FA5D
:103CE000102005F0CFFE062100B3204807F058FA57
:103CF000122005F0C7FE062108B31D4807F050FA50
:103D0000132005F0BFFE062110BB1A4807F048FA41
:103D10001348BDE8084007F0E3BC174807F040FA35
:103D2000102005F0AFFE06210028DED1134807F071
:103D300037FA122005F0A6FE06210028DDD1104832
:103D400007F02EFA132005F09DFE06210028DCD096
:103D50000C4807F025FA0248BDE8084007F0C0BC4F
:103D6000C489FF1F70210100782101008821010012
:103D700098210100B0210100802101009021010063
:103D8000A0210100A821010010B5254C2368042BB7
:103D900027DC01210B2005F06FFE01210C2005F02E
:103DA0006BFE0121142005F067FE0121152005F0AE
:103DB00063FEFF21162005F0DFFCFF21172005F030
:103DC000DBFCFF21052005F0D7FCFF21062005F0D4
:103DD000D3FC236801330A2B2360C4BF0023236074
:103DE00010BD00210B2005F047FE00210C2005F03E
:103DF00043FE0021142005F03FFE0021152005F0B0
:103E00003BFE0021162005F0B7FC0021172005F02D
:103E1000B3FC0021052005F0AFFC0021D6E700BF70
:103E20005C94FF1F30B5092183B0AE4806F082F9DB
:103E3000222006F00DF9AC4BD3F8B430012BAB4B7C
:103E40001B7809D0052B10D8DFE813F02D013201C3
:103E50003C01410137010B00002B00F03D81052B97
:103E600003D10721A24806F065F9222006F0F0F8F8
:103E7000FF2006F0EDF8FF2006F0EAF89D4CFF2049
:103E800006F0E6F808219C4806F054F921689B48A2
:103E900007F07AFCFF2006F0DBF8FF2006F0D8F8E8
:103EA000FF2006F0D5F80921954806F043F921686E
:103EB000924807F069FCFF2006F0CAF8FF2006F0E0
:103EC000C7F8FF2006F0C4F80C218E4806F032F93E
:103ED0008D4B8E49186809F0E7FA08F087FD002439
:103EE00002460B460094854807F056FCFF2006F07A
:103EF000AFF8FF2006F0ACF8FF2006F0A9F8092182
:103F0000834806F017F98348FCF7EAFF08F06EFDD6
:103F1000009402460B46794807F03EFCFF2006F06D
:103F200097F8FF2006F094F8FF2006F091F80C2196
:103F3000794806F0FFF87748FDF73AF808F056FDA3
:103F4000009402460B466D4807F026FCFF2006F061
:103F50007FF8FF2006F07CF8FF2006F079F80D21AD
:103F60006E4806F0E7F86B48FDF720F808F03EFDD4
:103F7000009402460B46614807F00EFCFF2006F055
:103F800067F8FF2006F064F8FF2006F061F80921C9
:103F9000634806F0CFF85F48FCF776FF614909F007
:103FA000CFF908F023FD009402460B46534807F072
:103FB000F3FBFF2006F04CF8FF2006F049F8FF2045
:103FC00006F046F80C21584806F0B4F85148FCF7C2
:103FD0000DFF564909F0B4F908F008FD00940246B7
:103FE0000B46464807F0D8FBFF2006F031F8FF20CB
:103FF00006F02EF8FF2006F02BF80D214C4806F0B5
:1040000099F84448FCF71AFF484909F099F908F073
:10401000EDFC009402460B46384807F0BDFBFF203C
:1040200006F016F8FF2006F013F8FF2006F010F84F
:104030000921404806F07EF83F4B3048196807F0E8
:10404000A3FBFF2006F004F8FF2006F001F8FF2094
:1040500005F0FEFF0E21394806F06CF82D48FCF7FC
:10406000EDFE05462B48FCF7C1FE0146284609F047
:104070005DF82E4909F064F908F0B8FC0094024696
:104080000B461E4807F088FBFF2005F0E1FFFF20EC
:1040900005F0DEFFFF2005F0DBFFFF2003B0BDE8E9
:1040A000304005F0D5BF0621254806F043F8DCE690
:1040B0000721244806F03EF8D7E60B21224806F0F7
:1040C00039F8D2E60721214806F034F8CDE6082178
:1040D0001F4806F02FF8C8E608211E4806F02AF807
:1040E000C3E600BFB821010008DCFF1F9094FF1F4A
:1040F000841E01000C88FF1FD02101009889FF1F3A
:10410000DC210100E8210100ECDBFF1F0000C842B8
:10411000F82101001096FF1F042201001422010063
:1041200024220100000020413022010000007A44D6
:1041300040220100502201002088FF1F5C22010064
:10414000541E01005C1E0100641E0100701E01006F
:10415000781E0100C42101002DE9F0418D4DD5F8F4
:10416000C430042B3ED0032B6ED0012B00F098807E
:10417000022B01D0BDE8F081874C8848237240F2C1
:104180000E32012321462260E37104F005FA844BCC
:104190001B885B00FF2BC8BFFF23042140224FF484
:1041A00041702060E17122726372A86D09F074F8A9
:1041B000A96909F0C5F87B49054609F07DFA002890
:1041C00000F0DE802946284608F0B2FF09F0A4FA84
:1041D00080B20312E072A3726F497048BDE8F041EB
:1041E00004F0DAB96C4C704AA379226043F0010301
:1041F0000822E271A371A86D09F04EF8A96909F0CF
:104200009FF86A4909F09CF809F086FA644B684AFD
:104210001B88126893FBF2F380B200261A12071271
:10422000607221465D48E372A2722772267366733C
:10423000A673E67304F0B0F9A279D5F8C43066F33A
:104240000002032BA27190D1534CA86DA3720122DE
:10425000E823072140F2FF26227263722660E17193
:1042600009F01AF8A96909F06BF8504909F068F8E3
:1042700009F052FA4A4B4E4A1B88126893FBF2F33C
:1042800082B21E121712214644486373E2722773EA
:10429000A67304F081F9D5F8C430012B7FF468AF20
:1042A000444B3D4C1B682360072280231020E271A1
:1042B000237205F0E7FB002869D13F4B1B68384F9C
:1042C000DFF8EC80A86D344E03EB83035B001A1219
:1042D000A37262723B88D8F8002093FBF2F31A12A3
:1042E0006273A37308F0D8FFA96909F029F8334B6A
:1042F000196808F01BFF2D4909F022F809F00CFAA3
:1043000080B20312314620732448E37204F044F96A
:10431000022005F0EDFB2A4B1B6823600722802357
:104320001020E271237205F0ADFB70BB224B1B68BD
:10433000A86D03EB83035B001A127272B37208F06C
:10434000ABFFA96908F0FCFF1E4B196808F0EEFEF0
:10435000164908F0F5FF09F0DFF982B21612D8F815
:1043600000003B88227393FBF0F30B490B48A373C7
:104370001A12E672627304F00FF9D5F8C430F7E64A
:1043800001229023A272E37226E70F4BCFE70E4B78
:1043900094E700BF08DCFF1F7494FF1FA4DDFF1F1C
:1043A0008894FF1F00004843F4E5061800002041F0
:1043B0000888FF1F4488FF1F0488FF1F8494FF1F85
:1043C0004888FF1F58DDFF1F1888FF1F70B503685E
:1043D000C57984B0012D8DF805304FEA13230E46C0
:1043E0008DF8043005F1010201A909DD07300D4403
:1043F0000DF1050310F8014F03F8014FAB42F9D15D
:10440000034B04489B5D03F09BFB04B070BD00BFF1
:10441000743001001095FF1FF0B40D4B0D489C79CE
:104420000822FF27CD26A225DA710022B0216FF3E2
:1044300000041F729E72DD725A721A735A739A7355
:10444000DA7319609C711946F0BC04F0A5B800BF7E
:104450007494FF1FA4DDFF1F2DE9F043604D2B78FE
:10446000062B83B06ED05F4B5F4E1B78DFF8A881C0
:10447000002B45D02B785D4C5D4F43F08003082125
:1044800000222360E1713A60C72210232272637216
:1044900098F8003055490022022BA272E2720BD824
:1044A00033784A734FEA03134FF02002DBB20A73EA
:1044B0000DD104338B730BE03B68012B0CBF4823F9
:1044C00040230B73337801221B01DBB26273A373A9
:1044D00029784648FFF77AFFE073022005F008FBD1
:1044E0004249444804F058F82B78434801332B7074
:1044F000FCF7F8FA08B1FFF78FFF03B0BDE8F083CF
:104500003B4F2B78396843F08003384C082201294F
:104510002360E271B8D13848FCF768FC374908F0ED
:104520000FFF09F0F9F8431D33482372FCF75EFCD6
:10453000324908F005FF09F0EFF880B205300012AB
:104540006072A5E7284EDFF8D080337898F8002015
:104550000133032ADBB298BF01324FF0000198BF4C
:1045600088F800200F2B3370297002D01D4B1B7868
:104570007EE7234F234C3B680093009A2168002379
:104580009142337015D2204BDFF858901A680123FE
:104590009A4289F8003012D01C4A39680191B2F869
:1045A000B010019A3C314FF47A7000FB0122226076
:1045B0005EE70C4A0E4F137039688023A5E7144854
:1045C00007F08EF81321134806F0EAFD104807F0B3
:1045D00087F80F4807F084F899F80030DCE700BF4F
:1045E00080DDFF1F64DDFF1F5CDDFF1F7494FF1F74
:1045F0000CDDFF1FA4DDFF1F1096FF1F00007A4493
:104600004CDFFF1F44DDFF1F0088FF1F08DCFF1F7A
:10461000C489FF1F6C22010004DCFF1F2DE9F84351
:104620001E4C00264FF0A009A3791C4F1C4866724F
:10463000FF256FF30003A12239464FF00808A3714C
:104640002272C4F80090013684F80780A572E572E2
:1046500025736573A573E57303F09EFF022005F0D3
:1046600047FA0F2E4FF0A003DED1BA790D4E3B6012
:104670003724002363F3000287F807807D72BD7240
:10468000FD723D737D73BD73FD7333703C723946AB
:10469000BA710348BDE8F84303F07EBF7494FF1F6E
:1046A000A4DDFF1F4CDDFF1F2DE9F0418C4C8D4D2B
:1046B00082B006F00FFD23682860042B00F01283FF
:1046C000022B4BD0082B00F09380072B40F0308159
:1046D000332801F0CF8600F3A583312801F0B4869A
:1046E000322840F0CB8106F031FD002840F31E81D6
:1046F0007D487E4E07F08AF908F0CEFD7C4908F02F
:104700001FFE61230122706422602B601846A0F115
:1047100052031F2B00F2B281DFE813F07A0EB001D2
:10472000B001B001B001B001B001B001B001B00101
:10473000B001B001B001B001B001D803F00F5D05C8
:10474000FA05C804B001B001B0014B04B001F30F89
:10475000B001B001B001B001B0017F0EA0F1310392
:10476000422B00F28B81DFE813F0CD07DB07E9076E
:10477000FB071E082D083A084408890189018901B0
:1047800089018901890189018901890189018901D9
:1047900089018901890189018901890189018901C9
:1047A00089018901890189018901890189018901B9
:1047B00089018901890189018901890189018901A9
:1047C00089018901890189018901890189010E080D
:1047D0008901890189018901890189018901890189
:1047E000890189018901890189014E008901140823
:1047F000322800F04B8340F32883342800F05C8398
:10480000712840F03B810022732322602B602368D3
:10481000002B40F03681374E334806F061FF04210B
:10482000354806F0BDFC304806F05AFF10213348E9
:1048300006F0B6FC2C4806F053FF1321304806F072
:10484000AFFC304B2848196806F09EFF264806F05A
:1048500047FF14212C4806F0A3FC234806F040FF34
:104860001E212A4806F09CFC1F4806F039FF15213E
:10487000274806F095FC1C4806F032FF1E2125480B
:1048800006F08EFC184806F02BFF2021224806F087
:1048900087FC154806F024FF1921204806F080FC0B
:1048A000114806F01DFF12211D4806F079FC0E4844
:1048B00006F016FF0F211B4806F072FC0A4806F0AE
:1048C0000FFF0D21184806F06BFC074806F008FFA3
:1048D000002201233260236002B0BDE8F08100BFF6
:1048E0008CDDFF1F34DBFF1FC489FF1F08DCFF1FA7
:1048F0006F12833A0088FF1FCC260100D4260100E6
:10490000E82601002088FF1FFC2601001427010073
:10491000342701004C2701006C270100902701007B
:10492000AC270100C0270100D027010023682868B8
:10493000062B40F0AB80A0F13103402B00F29E80AB
:1049400001A252F823F000BF9D580000C958000092
:10495000195900003F5900006559000083590000B3
:104960007D4A00000D5800002B5800007D4A0000D1
:104970007D4A00007D4A00007D4A00007D4A00001B
:104980007D4A00007D4A00007D4A00007D4A00000B
:104990007D4A00007D4A00007D4A00007D4A0000FB
:1049A0007D4A00007D4A00007D4A00007D4A0000EB
:1049B0007D4A00007D4A00007D4A00007D4A0000DB
:1049C0007D4A00007D4A00007D4A00007D4A0000CB
:1049D0007D4A00007D4A00007D4A00007D4A0000BB
:1049E0007D4A00007D4A00007D4A00007D4A0000AB
:1049F0007D4A00007D4A00007D4A00007D4A00009B
:104A00007D4A00007D4A000051580000795800009E
:104A1000F55800007D4A00007D4A00007D4A0000F4
:104A20007D4A00007D4A00007D4A00007D4A00006A
:104A30007D4A00007D4A00007D4A00007D4A00005A
:104A40007D4A00007D4A00000748000006F07EFB1A
:104A5000002841F3F284F048F04E06F0D7FF01271A
:104A6000034601466222EE48F36527602A60FCF7A0
:104A70000FFA23682868012B3FF449AE73283FF4EE
:104A8000C6AE02B0BDE8F08123682868052B40F06F
:104A90008B80A0F13103402BF0D801A252F823F013
:104AA000A554000099550000B9550000D9550000E3
:104AB00099560000B55600007D4A00007D4A00006E
:104AC0007D4A00007D4A00007D4A00007D4A0000CA
:104AD0007D4A00007D4A00007D4A00007D4A0000BA
:104AE0007D4A00007D4A00007D4A00007D4A0000AA
:104AF0007D4A00007D4A00007D4A00007D4A00009A
:104B00007D4A00007D4A00007D4A00007D4A000089
:104B10007D4A00007D4A00007D4A00007D4A000079
:104B20007D4A00007D4A00007D4A00007D4A000069
:104B30007D4A00007D4A00007D4A00007D4A000059
:104B40007D4A00007D4A00007D4A00007D4A000049
:104B50007D4A00007D4A00007D4A00007D4A000039
:104B60007D4A00007D4A00007D4A00007D4A000029
:104B70007D4A00007D4A00007D4A00007D4A000019
:104B80007D4A00007D4A00007D4A00007D4A000009
:104B90007D4A00007D4A00007D4A00007D4A0000F9
:104BA000CF56000023682868032B7FF464AFA0F180
:104BB0003003482B3FF662AF01A252F823F000BF4A
:104BC0004D4A00001B600000436000006B60000065
:104BD0008D600000AF600000D7600000FF60000043
:104BE0001D610000416100007D4A00007D4A000017
:104BF0007D4A00007D4A00007D4A00007D4A000099
:104C00007D4A00007D4A00007D4A00007D4A000088
:104C10007D4A00007D4A00007D4A00007D4A000078
:104C20007D4A00007D4A00007D4A00007D4A000068
:104C30007D4A00007D4A00007D4A00007D4A000058
:104C40007D4A00007D4A00007D4A00007D4A000048
:104C50007D4A00007D4A00007D4A00007D4A000038
:104C60007D4A00007D4A00007D4A00007D4A000028
:104C70007D4A00007D4A00007D4A00007D4A000018
:104C80007D4A00006961000087610000A5610000A5
:104C9000C36100001162000031620000B35A0000DD
:104CA000D75A00007D4A0000FD5A0000F35F000063
:104CB0007D4A00007D4A00007D4A00007D4A0000D8
:104CC0007D4A000007480000876200007D4A00001E
:104CD0007D4A00007D4A00007D4A00007D4A0000B8
:104CE000A7620000A0F13103482B3FF6C7AE01A236
:104CF00052F823F0555A0000595A00005D5A00003E
:104D00007D5A0000975A0000815A0000935A000013
:104D1000BD590000D55900007D4A00007D4A0000C1
:104D20007D4A00007D4A00007D4A00007D4A000067
:104D30007D4A00007D4A00007D4A00007D4A000057
:104D40007D4A00007D4A00007D4A00007D4A000047
:104D50007D4A00007D4A00007D4A00007D4A000037
:104D60007D4A00007D4A00007D4A00007D4A000027
:104D70007D4A00007D4A00007D4A00007D4A000017
:104D80007D4A00007D4A00007D4A00007D4A000007
:104D90007D4A00007D4A00007D4A00007D4A0000F7
:104DA0007D4A00007D4A00007D4A00007D4A0000E7
:104DB0007D4A00007D4A0000035A00007D4A000041
:104DC0007D4A00007D4A00007D4A00007D4A0000C7
:104DD0007D4A00007D4A00007D4A00007D4A0000B7
:104DE0007D4A00007D4A00007D4A00007D4A0000A7
:104DF0007D4A0000074800001D5A00007D4A00005F
:104E00007D4A00007D4A00007D4A00007D4A000086
:104E10002D5A00003D5A0000C489FF1F08DCFF1F07
:104E20001096FF1F34287FF4EBAC06F08FF90028B2
:104E30007FF77CAD8A488B4E06F0E8FD61230122A6
:104E4000B08622602B60184661E431287FF416AEEC
:104E500006F07CF9002840F350848148814E06F02A
:104E6000D5FDC0B286F84800022894BF0146002153
:104E7000B6F9D830F26C7C4888BF86F84810FCF749
:104E800009F8012369202360286040E406F05EF9F8
:104E9000002816DD7248734E06F0B8FD08F0FCF9E4
:104EA000724908F04DFA07460246B6F9D83096F82E
:104EB00048106D48F764E2E706F048F9002800F36F
:104EC0000E842368286800E406F004F906F03EF931
:104ED00005460028F8D16248624E06F001FC6048A1
:104EE00006F0FEFB5E4806F0FBFB5D4806F0F8FBB3
:104EF0005B4806F0F5FB1F215D4806F051F9584864
:104F000006F0EEFB1C215B4806F04AF9B06A5A49EC
:104F100008F016FA07F06AFD009502460B46504865
:104F200006F03AFC0221554806F03AF94C4806F0E2
:104F3000D7FB2321524806F033F9706C4E4908F034
:104F4000FFF907F053FD009502460B46444806F072
:104F500023FC0221494806F023F9414806F0C0FB32
:104F60001921484806F01CF9306C07F03FFD022576
:104F70000B46024600953A4806F00EFC2946424888
:104F800006F00EF9364806F0ABFB22213F4806F04A
:104F900007F9B18E324806F0F7FB03213C4806F0D2
:104FA000FFF82F4806F09CFB0723236069E506F015
:104FB00091F806F0CBF805460028F8D12848294E8C
:104FC00006F08EFB264806F08BFB254806F088FB92
:104FD000234806F085FB224806F082FB15212D4868
:104FE00006F0DEF81E4806F07BFB18212A4806F082
:104FF000D7F82B460A2296F84810194806F084FB89
:10500000174806F06DFB2821244806F0C9F8F06C1B
:10501000194908F095F907F0E9FC00950B4602469E
:105020000F4806F0B9FB0221144806F0B9F80C4805
:1050300006F056FB18211A4806F0B2F8B6F9D81057
:10504000074806F0A1FB064806F04AFB1321154865
:1050500006F0A6F8024806F043FB0823236010E59B
:10506000C489FF1F08DCFF1F1096FF1F6F12833AD1
:10507000182501003825010000007A44EC220100C7
:10508000582501007C250100A42401009825010079
:10509000BC25010094270100A4220100C0220100C8
:1050A000F02201000C23010006F014F806F04EF87F
:1050B00005460028F8D18148814E06F011FB7F4853
:1050C00006F00EFB7D4806F00BFB7C4806F008FB63
:1050D0007A4806F005FB11217A4806F061F8774816
:1050E00006F0FEFA2821784806F05AF8B0697749A8
:1050F00008F026F907F07AFC009502460B466F4847
:1051000006F04AFB0221724806F04AF86B4806F0A6
:10511000E7FA16216F4806F043F8306A6B4908F049
:105120000FF907F063FC00950B460246634806F052
:1051300033FB0221664806F033F8604806F0D0FAE7
:10514000D6F8C430002B32DD1D21634806F028F864
:10515000706E08F0A1F8614908F0F2F807F046FC1B
:10516000022502460B460095544806F015FB012126
:105170005B4806F015F8514806F0B2FA1F2159486D
:1051800006F00EF8F06E08F087F8544908F0D8F8E9
:1051900007F02CFC009502460B46484806F0FCFA46
:1051A00001214F4805F0FCFF444806F099FA11210F
:1051B0004D4805F0F5FFD6F8C430062B01F2828089
:1051C000DFE813F01C092109170912090D09080964
:1051D0007C0805F07FFF05F0B9FF0028F9D13748BA
:1051E000374E06F07DFA354806F07AFA334806F075
:1051F00077FA324806F074FA304806F071FA1F2147
:105200003A4805F0CDFF2D4806F06AFA1E213848CD
:1052100005F0C6FF294806F063FA1A21354805F063
:10522000BFFFD6F88830022B01F00982032B01F072
:10523000FD81012B01F00C8209212F4805F0B0FF00
:105240001E4806F04DFA14212C481D4D05F0A8FF0C
:10525000D6F88410194806F097FA184806F040FA74
:105260001C21274805F09CFFD6F89010134806F043
:105270008BFA124806F034FA1C21224805F090FF00
:10528000D6F8C0100D4806F07FFA0C4806F028FA50
:10529000D6F8883023F00202012A01F04781022B60
:1052A00001F0FA811321184805F07AFF034806F04F
:1052B00017FA02232360FFF7E4BB00BFC489FF1F76
:1052C00008DCFF1F382701002023010000007A447A
:1052D000EC2201004C23010064230100CDCCCC3D25
:1052E000782A010084230100A42301003829010049
:1052F0005829010078290100F0290100FC2901004A
:10530000142A0100342A01000C23010005F0E2FEFA
:1053100005F01CFF05460028F8D1BA48BA4E06F041
:10532000DFF9B84806F0DCF9B64806F0D9F9B54817
:1053300006F0D6F9B34806F0D3F91321B34805F0C7
:105340002FFFB04806F0CCF90D21B14805F028FF39
:10535000AC4806F0C5F90F21AE4805F021FFAE4B71
:10536000A848196806F010FAA64806F0B9F9132102
:10537000AA4805F015FFAA4BA248196806F004FADE
:10538000A04806F0ADF91221A64805F009FFA64B8A
:105390009C48196806F0F8F99A4806F0A1F911211D
:1053A000A24805F0FDFEA24B9648196806F0ECF9FC
:1053B000944806F095F90E219E4805F0F1FED6F8C6
:1053C000B410904806F0E0F98E4806F089F91921EA
:1053D000994805F0E5FE994B8A48196806F0D4F91A
:1053E000884806F07DF91121954805F0D9FE954BC6
:1053F0008448196806F0C8F9824806F071F910214E
:10540000914805F0CDFE914B7E48196806F0BCF935
:105410007C4806F065F91C218D4805F0C1FE8D4BD6
:105420007848196806F0B0F9764806F059F916215F
:10543000894805F0B5FEB6F8B010724806F0A4F938
:105440001E21864805F0ACFE6E4806F049F90C2195
:10545000834805F0A5FE834B6A4819780A222B463B
:1054600006F052F9674806F03BF910217E4805F036
:1054700097FE29467D4805F093FE624806F030F914
:1054800017217B4805F08CFE5E4806F029F91321B0
:10549000784805F085FE5B4806F022F90423236076
:1054A000FFF7EFBA05F052FE00287FF77BAB5548B7
:1054B000554E06F0ABFA01226B23C6F89400226029
:1054C0002B6001E005F006FE05F040FE0028F9D152
:1054D0004C484D4D06F004F94A4806F001F9494898
:1054E00006F0FEF8474806F0FBF8464806F0F8F8E4
:1054F0002121614805F054FE424806F0F1F81521DB
:105500005E4805F04DFED6F894103E4806F03CF992
:1055100002215B4805F044FE3A4806F0E1F81E21FE
:10552000584805F03DFED6F89C10364806F02CF998
:105530000321554805F034FE324806F0D1F81E210B
:10554000524805F02DFED6F898102E4806F01CF9AA
:105550002C4806F0C5F81D214D4805F021FED6F86F
:10556000B810284806F010F9264806F0B9F81E21B0
:10557000484805F015FED6F8BC10224806F004F99C
:10558000204806F0ADF8D6F8B430012B01F0978032
:1055900005232360FFF775BA05F0D8FD00287FF7D3
:1055A00001AB1848184E06F031FA01226B23C6F8F9
:1055B0009C0022602B6087E705F0C8FD00287FF77C
:1055C000F1AA1048104E06F021FA01226B23C6F80A
:1055D000980022602B6077E705F0B8FD00287FF780
:1055E000E1AA0848084E06F011FA164BC6F8B800B2
:1055F00002221A60FCF732F901226B2322602B6031
:1056000062E700BFC489FF1F08DCFF1FE02701001D
:10561000F42701000428010084DDFF1F1428010085
:1056200038DDFF1F2828010040DDFF1F3C28010056
:10563000FCDBFF1F50280100602801006894FF1F59
:105640007C2801008C94FF1F90280100F8DBFF1FCD
:10565000A42801001C88FF1FC4280100DC280100C9
:10566000FC280100F0DBFF1F0C290100D81F0100FE
:10567000202901000C230100C0250100E4250100C0
:1056800038240100FC250100B81F01001C26010080
:105690003C2601005C26010005F058FD00287FF73C
:1056A00081AAC148C14E06F0B1F9C14BC6F8BC0091
:1056B00003229EE7BD4E96F8D530B3FA83F35B091B
:1056C00001216B2286F8D53021602A60FCE6B849BA
:1056D000002373220B6023602A60FFF798B8B2485A
:1056E000B24E06F093F907B23B46F26C96F84810BA
:1056F000B048A6F8D870FFF7C2BBAC4E96F8480089
:10570000FFF7B2BBA94ED6F88430B3FA83F35B0936
:1057100001226320C6F8843022602860FEF7F7BFBC
:10572000A24ED6F89030B3FA83F35B0901226320CE
:10573000C6F8903022602860FEF7E9BF012323609D
:1057400005F004FD002805DD9748984E06F05EF947
:10575000C6F8C0000123632023602860FEF7D7BF8E
:105760000123236005F0F2FC002807DD8E488F4EF0
:1057700006F04CF907F090FDC6F8A40063202860FD
:105780002368FEF7A2BFFDF747F923682868FEF7F4
:1057900099BF864AD2F888300133032BC8BF002353
:1057A000C2F88830D6E70123236005F0CFFC00283B
:1057B000E4DD7D487D4E06F029F907F06DFDC6F861
:1057C000A000DBE70123236005F0C0FC0028D5DD45
:1057D0007548764E06F01AF9A6F8CE00CEE7734A61
:1057E000D2F88C300133042BC8BF0123C2F88C30AF
:1057F000B0E70123236005F0A9FC0028AADD6A4870
:105800006A4E06F003F9C6F8A800A3E7674B93F8C1
:10581000D420002A00F0418600210122652083F86F
:10582000D41022602860FEF772BF05F08FFC0028BC
:105830007FF72AA95C485D4E06F0E8F807F02CFDDA
:1058400065230122B06322602B601846FEF75FBF1C
:1058500005F07CFC00287FF717A95348534E06F04B
:10586000D5F800EB8000430001226520A6F86830DF
:1058700022602860FEF74BBF05F068FC00287FF728
:1058800003A94948494E06F0C1F865230122C6F82C
:10589000DC0022602B601846FEF739BF05F056FC8D
:1058A00000287FF7F1A84048404E06F0AFF807F017
:1058B000F3FC414907F0F8FD65230122B061226045
:1058C0002B601846FEF723BF05F040FC00287FF749
:1058D000DBA83548354E06F099F807F0DDFC36496F
:1058E00007F0E2FD65230122306222602B6018463A
:1058F000FEF70DBF05F02AFC00287FF7C5A82A484F
:105900002A4E06F083F865230122C6F8E0002260E3
:105910002B601846FEF7FBBE05F018FC00287FF749
:10592000B3A82148214E06F071F800EB8000430037
:1059300001226520736622602860FEF7E8BE05F04C
:1059400005FC00287FF7A0A81748184E06F05EF85F
:1059500000EB8000430001226520F366226028608E
:10596000FEF7D5BE114AD2F8C4300133062BC8BFAA
:105970000023C2F8C4306520012323602860FEF7AD
:10598000C6BE05F0E3FB00287FF77EA80648074E59
:1059900006F03CF865230122C6F8C80022602B609F
:1059A0001846FEF7B4BE00BFC489FF1F08DCFF1F06
:1059B0008C94FF1F1096FF1F00007A44584A13680A
:1059C000B3FA83F35B09012164201360216028602E
:1059D000FEF79DBE0123236005F0B8FB002800F30D
:1059E0001686504B1A68042A01DD02221A606423CD
:1059F0002B602368082B4FF064007EF466AEFEF740
:105A0000F7BE0123236005F0A1FB0028EFDD464827
:105A1000464E05F0FBFFA6F8B000E8E7012323603F
:105A2000FEF7FAFC64232B602368E3E7012323607D
:105A3000FEF7F4FD64232B602368DBE7012323607A
:105A400005F084FB0028D2DD374805F0DFFF384B36
:105A50001870CCE7374AB2E7374AB0E7374A384FD1
:105A60001368002B0CBF012100214FF001031160CE
:105A7000236040F0F68564222A60BBE7314A9EE746
:105A8000012331482360FBF749F8304A236810604E
:105A9000F1E72F4A93E7254ED6F8B430B3FA83F3F3
:105AA0005B0901226420C6F8B43022602860FEF74A
:105AB0002EBE05F04BFB00280DDD1B481B4E05F0EC
:105AC000A5FF07F0E9FB234907F0EEFC0122622362
:105AD000706222602B6005F039FB00280EDD124851
