:1000000000800020BD0100009D9500005595000076
:100010005595000055950000559500005595000038
:100020005595000055950000559500009D950000E0
:100030009D9500005595000071B4000075B4000056
:100040009D9500009D9500009D9500009D950000E8
:100050009D9500009D9500009D9500009D950000D8
:100060009D9500009D9500009D9500009D950000C8
:100070009D9500009D9500009D9500009D950000B8
:100080009D9500009D9500009D9500009D950000A8
:100090000D7600009D9500009D9500009D95000047
:1000A0009D9500009D9500009D9500009D95000088
:1000B0009D9500008D880000998800009D880000B3
:1000C000A9880000AD880000B18800009D9500005F
:1000D0009D9500009D9500009D9500009D95000058
:1000E0009D9500009D9500009D9500009D95000048
:1000F0009D9500009D9500009D95000061A4000065
:100100009D9500005DC100009D9500009D9500003B
:100110009D9500009D9500009D9500009D95000017
:100120009D9500009D9500009D9500009D95000007
:100130009D9500009D9500009D9500009D950000F7
:100140009D9500009D9500009D9500009D950000E7
:100150009D9500009D9500009D9500009D950000D7
:100160009D950000A5A700009D9500009D950000AD
:100170009D9500009D9500009D9500009D950000B7
:100180009D9500009D9500009D9500009D950000A7
:100190009D9500009D9500009D9500009D95000097
:1001A0009D9500009D9500009D9500009D95000087
:1001B0009D9500009D9500009D950000564B4CF2CA
:1001C000205210B51A804DF628121A8000BF00BFC9
:1001D00009F0E8F9514B4FF010621A60504A9A60EA
:1001E000504ADA60504A136813F4807304D14F49BF
:1001F0000B604FF4A85313604D4B1A78110703D5C9
:100200001A7842F008021A704A4B4B492A221A7097
:100210004A4A4B4B8B4204D252F8040F43F8040B6A
:10022000F8E7484B484900228B4202D243F8042B9E
:10023000FAE74649464A002352F8230041F82300D2
:1002400001336F2BF8D1434B434A802103F8011B44
:100250009342FBD1414B3D4A1A60414B8A221A70AE
:10026000A3F5805324225A70A0221A709A7992071B
:10027000FCD59A79D406FCD43A4A937903F00C035E
:10028000082B384BF9D103221A7140225A719A79FE
:100290009006FCD5334A9179324B4906FBD5324A58
:1002A000324911600221516020221A709A7902F0BD
:1002B0000C020C2AFAD12E4B2E4A1A602E4B2F4AD2
:1002C0001A6000225A60072243F8042C2C4AC3F813
:1002D0000C2D62B609F09CFC144B1B68DA0705D59F
:1002E000284809F077FA284B284A1A60284B1B78CF
:1002F0005B0609D5244C254B22689A4204D121483B
:1003000009F068FA0023236009F052F90DF0FAFBB6
:100310000BF0C4FBFEE700BF0E2005403080044018
:10032000823F04000100002B10D0034014D0034092
:1003300002D0074000E007403894FF1F3837010023
:100340002087FF1F3894FF1FC8E1FF1F0082FF1F97
:100350000000000000E400E05FE400E008ED00E0E1
:100360000050064000400640448004400000030165
:1003700004800440C010050014E000E0FF76010096
:10038000000020205AD998621CE00340A5C3945A6B
:1003900000F00740FFFFFFFFFFFFFFFFFFFFFFFF32
:1003A000FFFFFFFFFFFFFFFFFFFFFFFFFFFFFFFF5D
:1003B000FFFFFFFFFFFFFFFFFFFFFFFFFFFFFFFF4D
:1003C000FFFFFFFFFFFFFFFFFFFFFFFFFFFFFFFF3D
:1003D000FFFFFFFFFFFFFFFFFFFFFFFFFFFFFFFF2D
:1003E000FFFFFFFFFFFFFFFFFFFFFFFFFFFFFFFF1D
:1003F000FFFFFFFFFFFFFFFFFFFFFFFFFFFFFFFF0D
:10040000FFFFFFFFFFFFFFFFFFFFFFFFDEF9FFFF23
:1004100010B5054C237833B9044B13B10448AFF33E
:1004200000800123237010BD3894FF1F00000000DE
:1004300034370100084B10B51BB108490848AFF329
:1004400000800848036803B910BD074B002BFBD0A0
:10045000BDE81040184700BF000000003C94FF1F9B
:10046000343701003894FF1F00000000F0B400F1A1
:100470003C06174F00243146031F00F17C0243F86D
:10048000044FB34241F8047F4FF0000542F8044F97
:10049000F5D100230F4A1049C0F8C050C0F8C4502D
:1004A000C0F8C850C0F8CC50C0F8D050C0F8E050E8
:1004B000C0F8D420C0F8DC20C0F8D81080F8E830AC
:1004C00080F8E93080F80031C0F80C31F0BC70479A
:1004D0000000A040000048430000C8C22DE9F041E0
:1004E0008046CE1D00F1C00400F1D00716F8010FC0
:1004F00028380CF015FF094944F8040F05460DF0A3
:100500001FF938B1B8F914010CF00AFF29460CF0B4
:1005100053FE2060BC42E9D1BDE8F081000020C25A
:100520002DE9F043814683B006290ED8DFE811F0AB
:100530004E00070063009600CB0000013800D9F898
:10054000081111B9002B00F02881D9F8004009F1F9
:100550004006C84609F18005002701E058F8044F1D
:10056000306821460DF0ECF80137214628B1D9F862
:10057000E4000DF0D1F800B13460214628680DF098
:10058000C1F804369B4920B120460DF0D9F800B1DE
:100590002C60102F05F10405E0D103B0BDE8F08315
:1005A000D9F808110029D0D1002BCED1537A107A76
:1005B00003F03F0300EB03200CF0B2FE8E490CF079
:1005C000B7FFD9F80040C9F83C00C0E7557A117A66
:1005D000937AD07AD9F8004001EB052101EB03436F
:1005E00003EB0063C9F80C31517B137B03EB012350
:1005F000C9F80831ABE7D9F808110029A5D1002BBB
:10060000A3D1537A107A019203F03F0300EB032049
:100610000CF086FE78490CF08BFF019AC9F80C00AB
:10062000D37A907A03F03F0300EB03200CF078FEBE
:1006300071490CF07DFF019AC9F81000537B107BC3
:1006400003F03F0300EB03200CF06AFE6A490CF054
:100650006FFFD9F80040C9F8140078E7D9F80811FD
:1006600000297FF472AF002B7FF46FAF537A107ABA
:10067000019203F03F0300EB03200CF051FE5E49B2
:100680000CF056FF019AC9F81800D37A907A03F05B
:100690003F0300EB03200CF043FE57490CF048FFEA
:1006A000019AC9F81C00537B107B03F03F0300EB59
:1006B00003200CF035FE50490CF03AFFD9F8004009
:1006C000C9F8200043E7D9F8081100297FF43DAFAD
:1006D000002B7FF43AAF537A107A019203F03F0374
:1006E00000EB03200CF01CFE43490CF021FF019AA3
:1006F000C9F82400D37A907A03F03F0300EB03207B
:100700000CF00EFE3C490CF013FF019AC9F82800CA
:10071000537B107B03F03F0300EB03200CF000FE43
:1007200035490CF005FFD9F80040C9F82C000EE758
:10073000D9F8081100297FF408AF002B7FF405AF2A
:10074000537A107A019203F03F0300EB03200CF080
:10075000E7FD29490CF0ECFE019AC9F83000D37A84
:10076000907A03F03F0300EB03200CF0D9FD2249FF
:100770000CF0DEFE019AC9F83400537B107B03F0C5
:100780003F0300EB03200CF0CBFD1B490CF0D0FE27
:10079000D9F80040C9F83800D9E6537A107A0192A6
:1007A00003F03F0300EB03200CF0BAFD12490CF0FC
:1007B000BFFE019AC9F80000D37A0446907A03F08C
:1007C0003F0300EB03200CF0ABFD0B490CF0B0FE37
:1007D000019AC9F80400537B107B03F03F0300EB40
:1007E00003200CF09DFD04490CF0A2FEC9F808009E
:1007F000ADE600BF0000A04000007A4490F8F00091
:10080000704700BF90F8EC00704700BF90F8F4000C
:10081000704700BF90F8F800704700BF102994BFE0
:1008200050F82100002070472DE9F0410B4E804622
:10083000041F00F12C0754F8045F314628460CF0E1
:1008400061FF30B1D8F8E41028460CF079FF00B110
:100850002E46BC42EFD13046BDE8F0810000204179
:100860002DE9F041D0F8E4704FF00008041F00F1CA
:100870003C0654F8045F394628460CF061FF0849ED
:1008800048B128460CF03EFF414620B128460CF006
:1008900057FF00B1A846B442EBD14046BDE8F08115
:1008A0000000A0402DE9F047D0F8E47082464FF0F8
:1008B0000009041F00F13C064FF0000854F8045FE3
:1008C000394628460CF03CFF0C4950B128460CF044
:1008D00019FF30B1484629460CF06EFC08F10108BA
:1008E0008146B442EAD1CAF8048140460CF018FDB2
:1008F000014648460CF01CFEBDE8F0870000A04011
:10090000D0F80401704700BFD0F80801704700BF5D
:1009100038B5D0F8C850D0F8C440294620460CF06D
:10092000F1FE00B92C46204638BD00BF38B5D0F8DE
:10093000C850D0F8C440294620460CF001FF00B949
:100940002C46204638BD00BF70B5D0F8C4401249CF
:10095000054620460CF0F4FED0B1204600210CF0F4
:100960002BFC01240646D5F8C8500B4928460CF04C
:10097000E7FE28B1304629460CF01EFC013406463D
:1009800020460CF0CDFC014630460CF0D1FD70BD88
:1009900000260446E7E700BF000020C22DE9F84327
:1009A0004FF00008D0F8E470C0F8C0808146041F02
:1009B00000F13C0654F8045F394628460CF0C0FEAE
:1009C000084950B128460CF09DFE30B140462946FA
:1009D0000CF0F2FB8046C9F8C000B442EAD14046B0
:1009E000BDE8F8830000A04003299ABF00EB810016
:1009F000D0F8C400002070473E2998BF80F800114D
:100A0000704700BFD0F80C01704700BF90F8E800B5
:100A1000704700BF90F8E900704700BFC0F8FC10B5
:100A2000704700BF80F8E810704700BF80F8E910F9
:100A3000704700BFC0F8E410704700BFA0F8141161
:100A4000704700BF70B500F58A450646143500F1C1
:100A50002C04204604F58C74FFF708FDAC42F8D155
:100A600006F5A275012428460021FFF7DBFF214689
:100A700028460134FFF7C0FF3F2C05F58C75F2D1F5
:100A800044F21C5400250548054A064B3555002103
:100A90007061B161F2613362304670BD00007A442A
:100AA000000048430000C8C270B500F58A461436FD
:100AB00000F5A274002508E001252046002104F578
:100AC0008C74FFF7B3FFB4420AD02046FFF79EFFB5
:100AD0000028F2D02046FFF79DFF0028ECD170BD22
:100AE000284670BD70B500F5B0560C3600F5A274FE
:100AF00003E004F58C74B4420CD02046FFF786FF67
:100B000005460028F5D02046FFF77CFFC307F0D547
:100B1000284670BD0025284670BD00BF2DE9F04174
:100B200044F2205300F58A46374600228046C250E0
:100B30001436203700F5A27403E004F58C74B44237
:100B40000ED02046FFF762FF0028F6D020463D6811
:100B5000FFF7D6FE04F58C742844B4423860F0D117
:100B600044F2205358F80300BDE8F08144F21853D2
:100B7000C058704738B50C6804F00F044FF48C75FA
:100B8000013405FB04002C3015461A46FFF7A6FC7D
:100B9000012D00D038BD06480AF0E4FD2146044886
:100BA0000AF034FE0B210348BDE838400AF03ABB96
:100BB000C489FF1F80190100F0B50D6805F00F040E
:100BC00005F0F005402D83B00F46064604F1010400
:100BD00046D01FDD602D3DD0702D37D0502D3BD03D
:100BE0000D2C01D8062D1DDD4FF48C7303FB04641E
:100BF0002C3420460121FFF715FF20460121FFF785
:100C000015FF337820463A46294603B0BDE8F04048
:100C1000FFF786BC202D21D0302D19D0002DDFD13B
:100C20000D2CE1D8012ADFD121460E4801920AF0AD
:100C3000EDFD019A0C4811460AF0F4FA29460948DC
:100C40000AF0E4FD07480AF08DFDCDE70625E7E749
:100C50000225E5E70525E3E70425E1E70125DFE7D0
:100C60000325DDE7C489FF1F8C1901002DE9F0433E
:100C7000002383B00646436000F5A274012504E01A
:100C800001353F2D04F58C7466D02046FFF7BEFE7B
:100C90000028F5D04E4807F083F829464D4807F064
:100CA0007FF82046FFF77AFE0BF0E4FE02460B4683
:100CB000494807F075F82046FFF7B6FD8046204604
:100CC000FFF7CEFD074640460BF0D4FE804638467F
:100CD00089460BF0CFFE42464B46CDE900013F4826
:100CE00007F05EF800212046FFF77EFE01218046D6
:100CF0002046FFF779FE074640460BF0BBFE8046D4
:100D0000384689460BF0B6FE42464B46CDE9000117
:100D1000334807F045F82046FFF740FE014670686B
:100D20000CF04AFA70602046FFF7F2FDF1690CF012
:100D3000E9FC002833D12046FFF7F8FD316A0CF0BA
:100D4000FFFC00289CD02046FFF7F0FD01353F2D29
:100D5000306204F58C7498D1B0680CF0E1FA014669
:100D600070680CF0E5FBB169706004460CF0E8FCBB
:100D700000B1B461716920460CF0C4FC00B174612B
:100D80000B2008F0C1FE44F21C53F35C60B99BB128
:100D900044F21C530122F25403B0BDE8F083204614
:100DA000FFF7B6FDF061C6E753B944F21C530022C9
:100DB000F25403B0BDE8F0830A4807F01FF8E7E7F4
:100DC000094807F005F844F21C530022F254F0E7FA
:100DD0005820010090190100CC190100E019010010
:100DE0000C1A0100281A0100601A010070B5124B9C
:100DF000C36000F58A450646143500F5A27403E089
:100E000004F58C74AC4214D02046FFF7FFFD002897
:100E1000F6D02046FFF708FDF1680CF073FC0028BF
:100E2000EED02046FFF700FD04F58C74AC42F06074
:100E3000EAD1F06870BD00BF0000A04070B500238B
:100E400000F58A4506460361143500F5A27403E0F7
:100E500004F58C74AC4214D02046FFF7D7FD00286F
:100E6000F6D02046FFF7FCFC31690CF069FC002845
:100E7000EED02046FFF7F4FC04F58C74AC423061F0
:100E8000EAD1306970BD00BF40687047017070479B
:100E9000816070472DE9F04100F58A458846174684
:100EA0001EB2143500F5A27403E004F58C74AC4254
:100EB00014D02046FFF7AAFD0028F6D02046414670
:100EC000FFF7ACFD20463946FFF7B4FD204631461A
:100ED00004F58C74FFF7B2FDAC42EAD1BDE8F081B5
:100EE0002DE9F84344F2185300F58A450027C7500E
:100EF0002E462B4A2B4B826280464FF000094362FC
:100F00001435183600F5A27403E004F58C74A5427C
:100F100014D02046FFF77AFD0028F6D0336801335D
:100F200033602046FFF710FD1F490CF009FC90B913
:100F300004F58C74A54207F10107EAD144F2185375
:100F400058F80300C01B0CF0EBF9014648460CF0C2
:100F5000EFFABDE8F8832046FFF7F6FC0146484665
:100F60000CF02AF981462046FFF7E0FCD8F824105F
:100F70000CF0E6FB70B92046FFF7CAFCD8F8281041
:100F80000CF0C0FB0028C0D02046FFF7C1FCC8F819
:100F90002800BAE72046FFF7C9FCC8F82400EAE7B2
:100FA00000C0794400C079C400008CC2406A704718
:100FB000806A7047F8B500F58A4507460026143563
:100FC00000F5A27403E004F58C74AC4210D0204606
:100FD000FFF71CFD0028F6D02046FFF763FC014612
:100FE00030460CF0E9F804F58C74AC420646EED1BC
:100FF00044F21853F8580CF093F9014630460CF0BF
:1010000097FAF8BD2DE9F04F06468FB086488B461B
:1010100006F06EFE844806F06BFE834806F068FE1C
:1010200044F218533046F2580D92FFF777FDB3683B
:101030000C93074670680BF01DFD804630468946CC
:10104000FFF7B8FF82463046F4683569FFF748FF7E
:101050000BF010FDCDE90A01214628460CF0AAF854
:1010600072490CF0B1F90BF005FDCDE908012846F5
:101070000BF000FDCDE9060120460BF0FBFCCDE9AD
:10108000040150460BF0F6FC0D9A0C9BCDE90201D1
:10109000CDE90089114666483A4606F029FE6248C5
:1010A00006F026FE06F5A2764FF001094FF0000A81
:1010B00007E009F10109B9F13F0F06F58C7600F060
:1010C000AB803046FFF7A2FC0028F2D03046FFF795
:1010D00095FB3046FFF796FB3046FFF797FB30460F
:1010E000FFF798FB082153480AF09CF849465248FC
:1010F0000AF08CFBB9F1090F40F3918002214F48AF
:101100000AF090F83046FFF749FC0BF0B3FC5FFAA9
:101110008BF802460B46CDF8008047480AF080FB6A
:10112000012147480AF07EF85546002420E00621B8
:1011300044480AF077F829463F480AF067FB022145
:1011400041480AF06FF821463046FFF767FB0BF085
:1011500091FCCDF8008002460B4637480AF060FB50
:101160000134012136480AF05DF8102C09D03D46C3
:10117000092D05F10107DADC012134480AF052F8A3
:10118000D5E72D480AF0EEFA092131480AF04AF86D
:1011900000213046FFF728FC0BF06CFC02250246CC
:1011A0000B46009524480AF03BFB0A2129480AF027
:1011B00039F801213046FFF717FC0BF05BFC009576
:1011C00002460B461C480AF02BFB0C2122480AF071
:1011D00029F83046FFF716FC002322460146164840
:1011E0000AF0D4FA08211D480AF01CF83046FFF72F
:1011F0008BFB2246014600230F480AF0C7FA09F18B
:1012000001090D480AF0AEFAB9F13F0F0AF1100AD0
:1012100006F58C767FF455AF0FB0BDE8F08F012155
:101220000A4809F0FFFF69E75820010000007A44EE
:10123000101D0100B01D0100C489FF1FFC21010029
:10124000BC1D0100C01D0100201E0100301E010058
:10125000C81D0100D41D0100E01D0100F01D0100AA
:101260002DE9F04F85B000F5A2758A4603929B46A2
:101270002E464FF0010806E008F10108B8F13F0FD3
:1012800006F58C767BD03046FFF7C0FB0028F3D004
:1012900000230A2251467D480AF078FA01217C4851
:1012A00009F0C0FF03980BF0E5FB00230246009312
:1012B00076480B460AF0B4FA0121754809F0B2FFEE
:1012C000594672480AF0A2FA0121714809F0AAFFB2
:1012D00041466E480AF09AFA01216D4809F0A2FFD2
:1012E00000244FF0020921463046FFF797FA0BF031
:1012F000C1FBCDF8009002460B4664480AF090FA14
:1013000001340121624809F08DFF082C4FF00207DB
:10131000E9D100213046FFF767FB0BF0ABFB0097EC
:1013200002460B4659480AF07BFA0121584809F059
:1013300079FF01213046FFF757FB0BF09BFB00972D
:1013400002460B4651480AF06BFA0121504809F059
:1013500069FF39463046FFF747FB0BF08BFB0097E0
:1013600002460B4649480AF05BFA08F10108474873
:101370000AF0F8F9B8F13F0F06F58C7683D1012712
:101380004FF0000904E001373F2F05F58C7579D047
:101390002846FFF73BFB0028F5D000230A225146E0
:1013A0003C480AF0F3F90121394808F005FF039899
:1013B0000BF060FBCDF8009002460B4635480AF072
:1013C0002FFA0121324808F0F7FE594631480AF059
:1013D0001DFA01212E4808F0EFFE39462D480AF08B
:1013E00015FA01212A4808F0E7FE00244FF0020810
:1013F00021462846FFF712FA0BF03CFBCDF800809F
:1014000002460B4623480AF00BFA0134012120481A
:1014100008F0D2FE082C4FF00206E9D10021284640
:10142000FFF7E2FA0BF026FB009602460B4619483E
:101430000AF0F6F90121164808F0BEFE01212846FF
:10144000FFF7D2FA0BF016FB009602460B46114846
:101450000AF0E6F901210E4808F0AEFE31462846B2
:10146000FFF7C2FA0BF006FB009602460B4609484E
:101470000AF0D6F9013707480AF074F93F2F05F54D
:101480008C7585D105B0BDE8F08F00BFC489FF1F02
:101490008C1901009889FF1F70B5132008F034FBE8
:1014A000A8B1114E114B35881C6808F041FBADB254
:1014B0002C44201A33880E4AC0EB00108000A0F69E
:1014C00034009BB2B0FBF3F39BB2138070BD074CAA
:1014D00008F02EFB2368044AC01A80B2108008F07E
:1014E00027FB206070BD00BFF0DCFF1F68DDFF1F21
:1014F00078DDFF1F0A4A0B49106ED36D03FB00F322
:101500004FF47A7000FB03F0642310B50B600BF00E
:1015100007FF0549054C0CF00BF8206010BD00BF1B
:1015200004DCFF1F1088FF1FE4388E3E54DDFF1FD0
:1015300010B4019C521AA4EB030412D0401A002CE0
:1015400004FB00F002EBD27111DB00EB610101FB47
:1015500002F0002891FBF2F10B4414DB184610BC9A
:10156000704704EBD47003EB600010BC7047A0EB35
:10157000610000FB02F1002990FBF2F01844EEDB61
:10158000013010BC7047581E10BC704738B5044677
:1015900008460D460DF094F82368024629465B681C
:1015A00020469847054620460AF0DCF8284438BD16
:1015B000F8B54C484C4D4D4E4D4F4E4C06F098FBF7
:1015C0004D4B4E494E4A596011214E481970DD600D
:1015D0004D491A6100254FF4FA729E619F624B4E8D
:1015E0004B4FDC614FF07C54D862196349484A493B
:1015F0009D639A863C250C22DE631F64474E484F4C
:10160000DC6496241865596502200121A3F8B050C6
:101610009A65444D5E6200226426C3F8D070A3F838
:1016200068404FF496773224587058721972D96511
:101630001D625D615D6483F848201E661F675F66FA
:1016400041F20405DC66C3F88420C3F88800C3F8BF
:101650008C10C3F89020C3F89840C3F8B840C3F882
:10166000B4205A24C3F8C010C3F8C40083F8D410BF
:101670004FF47A7083F8D51083F8D6202A49A3F85E
:10168000D8202A4AC3F8C86040F61C4C4FF00A0E16
:1016900044F62067FF26DD67C3F880405525F02417
:1016A000C3F89C00C3F8A010052041F28831C3F8AC
:1016B000A42040F2D662C3F874C0C3F878E0C3F83F
:1016C000A870C3F8BC60C3F8DC50C3F8E040A3F8CE
:1016D000CE00C3F89410A3F8CC10A3F8AC20A3F864
:1016E000AE20F8BDFC1D01006666864033338340A2
:1016F000CDCCCC3DCDCC4C4004DCFF1F20A107005D
:101700000000404000008242000020C10000204252
:101710000000A0409A9979400AD7233D33337340A3
:101720009A99993ECDCC4C3E0000684200C02044BE
:1017300070B5464C464D4748E66800232B70FFF7CE
:101740007DFB014630460BF0DDFF08B104232B7012
:101750004048FFF74BFB21690BF0D4FF18B12B7801
:1017600043F010032B703B48FFF720FCE16A0BF0BD
:10177000E7FF18B12B7843F040032B700023354866
:101780006B70FFF715FC216B314E0BF0BBFF08B1FE
:101790000123737000232F48EB70FFF74FFB0546C2
:1017A0002C482B4EFFF722FB014628460BF002FD8A
:1017B000616C0BF0C5FF08B10123F370264D25487D
:1017C00000232B70FFF73AFBA16A0646E0680BF096
:1017D000F1FC014630460BF0B3FF08B104232B7037
:1017E0001C48FFF703FBA16A064620690BF0E4FCE6
:1017F000014630460BF086FF18B12B7843F01003FA
:101800002B701448FFF7D2FB216C0646E06A0BF000
:10181000D1FC014630460BF093FF18B12B7843F012
:1018200040032B7000230B486B70FFF7C1FB216C4A
:101830000546206B084C0BF0BFFC014628460BF018
:1018400061FF08B10123637070BD00BF04DCFF1F9E
:10185000E4DBFF1F1096FF1F5894FF1F544B1B68BB
:10186000002B74D0F0B5534D2B680533B3F57A7F58
:1018700083B040F38580002300272B604E4CD4F8C2
:10188000B8000BF04DFD0646D4F8BC000BF048FD47
:1018900031460BF08FFC39460BF096FD47490BF0B3
:1018A00047FE31460BF088FC0BF054FF0146062042
:1018B00007F0A4FF0221424809F0B4FC414809F0B6
:1018C00051FF0621404809F0ADFC28680BF028FDC7
:1018D0003E490BF079FD0BF0CDF8022602460B468F
:1018E0000096384809F09CFF0D21394809F09AFC10
:1018F000D4F8B8000BF014FD074628680BF010FD73
:1019000032490BF061FD0546D4F8BC000BF008FD30
:1019100039460BF04FFC014628460BF055FD274990
:101920000BF006FE39460BF047FC0BF0A3F80096CF
:1019300002460B46234809F073FF3146204809F060
:1019400071FC204803B0BDE8F04009F00BBF1A4B12
:101950002048D3F8B820D3F8BC100368891A0029AE
:1019600003FB01F31C4914DB323381FB0310D9174D
:10197000C1EB6011002B114416DB062007F03EBFBF
:1019800018462B600BF0CCFC10490BF01DFD0746F0
:1019900074E7323B81FB0310D917C1EB6011002BB8
:1019A0000A4403DB511CE8E70139E6E71146E4E7A6
:1019B0008C94FF1FE8DCFF1F04DCFF1F0000C842FF
:1019C000FC210100C489FF1F1C1E0100CDCCCC3DB1
:1019D000241E01001088FF1F1F85EB5170B5B4480D
:1019E000B44C84B009F0BEFEB14809F0BBFEB0486B
:1019F00009F0B8FE0D21B04809F014FCD4F8B43059
:101A0000012B11D0AD4DAA48297800230A2209F0F4
:101A1000BDFE2B78052B69D8DFE813F0A601AB01DA
:101A2000B001B501BA01BF010921A54809F0FAFBCF
:101A3000A448FFF7DBF921690BF064FE18B10F2110
:101A4000A14809F0EFFB9F48FFF7F8F9E1680BF0B8
:101A500077FE18B10E219D4809F0E4FB9948FFF785
:101A6000EDF905469748FFF7C1F9014628460BF006
:101A7000A1FB616C0BF064FE18B11121944809F0D0
:101A8000D1FB9048FFF72CFAE16A0BF059FE18B130
:101A90000C21904809F0C6FB8A48FFF721FA216B18
:101AA0000BF030FE18B10D218B4809F0BBFB8B4BBE
:101AB00084481B68012B00F0A581FFF797F9216985
:101AC0007C4D0BF03DFE002800F04C817D48FFF777
:101AD000B5F9E968794D0BF015FE38B12B78052B77
:101AE00000F0A78108217E4809F09CFB02217D4877
:101AF00009F098FB122008F007F8012800F07D811A
:101B0000112008F001F8012800F04C81764B1C6888
:101B1000012C00F0508102217248744C09F082FBC4
:101B2000734B6348196809F071FE614809F01AFEA9
:101B30000421704809F076FB0B2007F0E5FF002335
:101B400001460A225A4809F021FE0C2007F0DCFF6A
:101B5000002301460A22564809F018FE142007F017
:101B6000D3FF002301460A22514809F00FFE152039
:101B700007F0CAFF0A22002301464D4809F006FE7D
:101B800006215D4809F04EFB2368DE074FF0010196
:101B90004CBF5A485A4809F045FB236898074FF054
:101BA00001014CBF5548564809F03CFB23685A07D1
:101BB0004FF001014CBF5148514809F033FB2368F5
:101BC0001B074CBF4D484E48012109F02BFB042157
:101BD0004C4809F027FB112007F096FF002301462F
:101BE0000A22334809F0D2FD102007F08DFF0023B0
:101BF00001460A222E4809F0C9FD122007F084FF91
:101C0000002301460A222A4809F0C0FD132007F0EC
:101C10007BFF0A2200230146254809F0B7FD182161
:101C2000394809F0FFFA394B18880BF079FB38492D
:101C30000BF0CAFB0AF01EFF002402460B4600947C
:101C40001B4809F0EDFD1D21324809F0EBFA324B3B
:101C500018680BF065FB2E490BF0B6FB0AF00AFF83
:101C600000940B46024612482C4C09F0D9FD022183
:101C70002B4809F0D7FA2B78032B02D023889BB28C
:101C80009BB11721274809F0CDFA2188084889B26D
:101C900009F0BCFD0221224809F0C4FA2B78032B7D
:101CA00003D1214B1B78002B40D104B070BD00BF85
:101CB000C489FF1F04DCFF1F341E01009094FF1F26
:101CC000441E01001096FF1F501E0100601E0100FF
:101CD000701E0100841E0100941E01009C94FF1FD1
:101CE000C81E0100FC21010008DDFF1F7CDDFF1F75
:101CF0006894FF1F401F0100481F0100501F010092
:101D0000D0300100541F01005C1F01008894FF1FA8
:101D1000CDCCCC3D781F010070DDFF1F78DDFF1FAB
:101D2000981F0100F81F01004CDBFF1F0B214348E7
:101D300009F078FA424B4348198889B209F066FDE8
:101D40001121414809F06EFA404B3E48198809F0CC
:101D50005DFD3F4B1B78002B64D01D213D4809F0F1
:101D600061FAA2E73C4DC1E606213C4809F05AFA67
:101D7000BCE607213A4809F055FAB7E60721394889
:101D800009F050FAB2E60821374809F04BFAADE6FF
:101D90000B21364809F046FAA8E60721344809F035
:101DA00041FAA3E60A21334809F03CFA324B1C6899
:101DB000012C7FF4B0AE1121304809F033FA2146EE
:101DC0002F4809F02FFA2F4B2F4A1B680393039BD0
:101DD0001068C01A0BF0A0FA2C490BF0F5FA0AF0C3
:101DE00049FE002602460B460096164809F018FDEB
:101DF0002146234809F016FA8DE60E21244809F001
:101E000011FA7DE6FEF7F2FF616A0BF099FC70B102
:101E100016212048104D09F005FA0A211E4809F044
:101E200001FA63E619211D4809F0FCF93DE70A4D66
:101E300058E60A21184809F0F5F957E69C1F0100F9
:101E4000F0DCFF1FC489FF1FA81F01005EDDFF1F1C
:101E50000095FF1FD81F01009094FF1FD41E0100A2
:101E6000DC1E0100F01E0100F81E0100E41E01004E
:101E7000041F01001C1F010008DDFF1F281F0100B7
:101E80003C1F010050DFFF1F44DDFF1F6F12833A2C
:101E90000C1F0100A41E0100BC1E0100BC1F01009C
:101EA0002DE9F04FAB4CD4F88860012E8DB000F0D6
:101EB0007981032E00F0CD80DFF8DC82A64FA74E9B
:101EC000D4F88430A648012B09BF3168316801F18C
:101ED0000041316007F098F83B68002B40F09F808C
:101EE0009F48DFF8B49207F065F83B68C8F8000037
:101EF0000546002B44D1D4F88830964A012B53D0A4
:101F0000984928460BF01CFCC0B9974928460BF0AD
:101F1000F9FB98B9954A964B12680B920B9A1A6086
:101F2000D4F8C0000BF0FCF929460BF04DFA002361
:101F3000C8F8000033600DB0BDE8F08FDFF82CA2C8
:101F40008B4FDAF800300A930A983B68DFF84C921E
:101F5000C01A0BF0E1F929460BF036FA85490BF06F
:101F6000E7FA84490BF0E4FAD9F800100BF024F9F1
:101F7000DAF800300993099BC9F800003B60CFE70D
:101F80000AF078FD022502460B4600957A4809F0D2
:101F900047FC0421794809F045F9D4F88830D9F88C
:101FA00000506C4A012BABD1754B1B68012B00F024
:101FB000D981022BB4D1D2F8A87038460BF0B0F911
:101FC00029460BF09FFB40B978420BF0A9F929464E
:101FD0000BF0B6FB002800F0F881DFF890A1644F09
:101FE000DAF80030079307983B68DFF8B091C01A21
:101FF0000BF092F929460BF0E7F95E490BF098FADD
:102000005C490BF095FAD9F800100BF0D5F8DAF826
:1020100000300693069BC9F800003B6080E75048FB
:1020200006F0C8FF0AF026FD022502460B46009581
:10203000514809F0F5FB0321524809F0F3F8D4F8B0
:10204000A8104D4809F0E2FB03214E4809F0EAF8D8
:1020500046E74D4D4A4F2B68DFF83C81D3F88400AA
:102060000F2101233B6006F05DFF3B683A4F012BD7
:102070003B6800F0BE80002B40F03C812B68DFF80D
:102080002091D3F88400436B19698EB2C9F80060BF
:1020900006F0CAFCB4F8AE2040F6E44303FB06F1B8
:1020A000B1FBF0F0801A00B20BF03AF937492B4E31
:1020B0008246D4F8A0000BF087F9014650460BF099
:1020C00037FAD9F800303060632BDFF8D4A000F382
:1020D0000581002333603B68002B3FF4F1AE022101
:1020E0002B4809F09FF82B68D9F80050D3F88400EA
:1020F00040F6E44303FB05F506F096FCB5FBF0F073
:102100000BF00AF90546B4F8AE000BF009F90146E8
:1021100028460BF04FF80AF0ADFC022502460B46AC
:102120000095154809F07CFB2946194809F07AF812
:1021300030680AF09FFC009502460B460E4809F0F5
:102140006FFB2946134809F06DF82946104809F03D
:1021500069F8B5E604DCFF1F38DDFF1F6CDDFF1FEB
:1021600014DDFF1F0000FA430000FAC350DFFF1F19
:10217000E0DBFF1F00007A44C489FF1F54200100E8
:102180002888FF1F502001008CDDFF1F9175DD3670
:10219000FC2101004C200100E8DBFF1F54DDFF1F84
:1021A00094DDFF1FDFF80883D4F8A870D8F800503A
:1021B00038460BF0B5F829460BF0C2FA48B1784220
:1021C0000BF0AEF8014628460BF0BAFA002840F0B2
:1021D0000381A54DA54F2A680223D2F884003B60F5
:1021E0000E2106F09FFE3B68A14F012B3B687FF458
:1021F00042AF002B40F0FA802B68DFF8B892D3F89A
:102200008400436B19691FFA81FBC9F800B006F01E
:102210000BFCB4F8AC30974E40F6E44A0AFB0BFBDB
:10222000BBFBF0F0C01A00B20BF07AF8924983467B
:10223000D4F8A4000BF0C8F8014658460BF078F922
:102240002A68D9F800303060D2F884000AFB03FA1B
:1022500006F0EAFBB4F8AC30BAFBF0F00FFA80FA03
:10226000C3EB0A03002BB4F8CE20B8BF5B42934205
:10227000BCBF002333603B68002B3FF421AE02213A
:102280007E4808F0CFFF2B68D9F80050D3F88400BF
:1022900040F6E44303FB05F506F0C6FBB4F8AC10CA
:1022A000B5FBF0F000B2411A754809F0AFFA02210F
:1022B000724808F0B7FF30680AF0DCFB02250246DE
:1022C0000B4600956E4809F0ABFA03216D4808F003
:1022D000A9FF2946694808F0A5FFF1E52B68D3F866
:1022E000840006F0A1FBDAF8003064389842FFF46D
:1022F000F0AEF0E66248DFF8BC91DFF86CA109F0BF
:1023000031FA0C21604808F08DFF0C215F4808F07D
:1023100089FF2A683B68D2F88400426B11698EB24B
:10232000C9F80060002B3FF4B3AE06F07DFB40F629
:10233000E44100230A2201FB06F1B1FBF0F1504811
:1023400009F024FA02214D4808F06CFFB4F8AE10F1
:102350004B4809F05BFADAF80030D9F80060D3F89E
:10236000840095E64A4928460BF0EAF958B94949EC
:1023700028460BF0C7F930B9474A484B1268059216
:10238000059A1A60CCE5DFF810A1444FDAF8003066
:10239000049304983B68DFF82091C01A0AF0BCFF50
:1023A00029460BF011F83E490BF0C2F83C490BF0FE
:1023B000BFF8D9F800100AF0FFFEDAF800300393F6
:1023C000039BC9F800003B60AAE5334A334B12680F
:1023D0000892089A1A60A3E5234D244F2B683E60AB
:1023E000D3F884000F2106F09DFD3EE62448DFF877
:1023F000C4901D4E09F0B6F9D4F88830012B4FF087
:102400000B010CBF2748284808F00CFF0C211F487F
:1024100008F008FF2A683B68D2F88400426B116913
:102420001FFA81FBC9F800B0002B3FF4F0AE06F0B4
:10243000FBFA40F6E44100230A2201FB0BF1B1FB59
:10244000F0F10F4809F0A2F90121184808F0EAFE5E
:10245000B4F8AC100A4809F0D9F93368D9F800B0DB
:10246000D3F88400D3E600BF8CDDFF1F2888FF1F50
:1024700038DDFF1F6CDDFF1F9175DD36FC2101008B
:10248000C489FF1F382001003C20010028200100E2
:102490000000FA430000FAC350DFFF1FE0DBFF1F1C
:1024A00000007A44102001001C200100301E0100B1
:1024B000E8DBFF1F94DDFF1F54DDFF1F2DE9F04F08
:1024C000944C236885B01BB9934B1B68002B7BD0C1
:1024D000924EDFF85482924FDFF89092D6F8903007
:1024E0008E4D012B00F08C802C6ED7F800A0ED6D86
:1024F00004FB05F44FF47A7000FB04F00AF010FFBF
:102500008849894D044650460AF05EFF21460BF08B
:102510000FF886490AF058FF0BF01CF96328C8F839
:1025200000004CDD20467F490BF002F86423386040
:102530002B60D9F80030002B3ED0D6F88830774C8D
:10254000012B00F08480032B00F0D880022B00F0D8
:10255000DC800221764808F065FE764B18680AF0A8
:1025600089FA022402460B460094734809F058F990
:102570002146724808F056FE21466D4808F052FE8A
:10258000D8F800106C4809F041F906216C4808F0B1
:1025900049FE386863490AF017FF0AF06BFA0094A5
:1025A00002460B46644809F03BF90321654808F0F0
:1025B00039FE614809F0D6F805B0BDE8F08F002873
:1025C000BCBF00232B60B4E75F4D544E2B680293D1
:1025D000029A42F228339A4200F287802B680393D2
:1025E000039A42F210739A423ED8D6F89030DFF840
:1025F00038814B4FDFF87491484D012B7FF474AF55
:102600005248FEF7F3FB5249D5F87CA06C6FD5F821
:1026100078B00AF0D9FE0BF0C3F8D5F880300093FB
:10262000524621465B4680B2FEF782FF2C6EED6D6E
:1026300004FB00F005FB00F000EB800040000AF016
:102640006FFE38490AF074FF8246386050E7414B0C
:102650001B68012B4FF00A010CBF3F483F4808F0B0
:10266000E1FDD4F888306EE73848DFF8BC80FEF72B
:10267000BDFB3749D6F87890F76F756F0AF0A4FE66
:102680000BF08EF8D6F8803000933A464B46294638
:1026900080B2FEF74DFF326EF36DC8F8000002FB0A
:1026A00000F003FB00F000EB800040000AF038FE71
:1026B000DFF8B8901B491A4F0AF03AFFD9F80030FA
:1026C000386001222260002B3FF408AF0221184835
:1026D00008F0A8FD184809F045F85921204808F0ED
:1026E000A1FD154809F03EF8F8E61848B6F9D830CB
:1026F000F26C96F84810FEF7CDFB6FE710211948F1
:1027000008F090FDD6F8883020E70721164808F039
:1027100089FD1EE7FCDCFF1F88DDFF1F04DCFF1FB7
:1027200054DDFF1FE4388E3E1088FF1F0000C842B2
:10273000FC210100E8DBFF1FC489FF1F4C200100C2
:10274000EC200100F420010050DFFF1F1096FF1F56
:1027500000007A442888FF1FB8200100C42001002F
:102760005C200100D0200100E42001000088FF1F50
:1027700030B5112083B007F0C7F9012818D0122016
:1027800007F0C2F9012813D000210B2007F0B6F999
:1027900000210C2007F0B2F90021152007F0AEF956
:1027A0002649274B0120002208701A6003B030BD73
:1027B0000121152007F0A2F9224A234C234B12686D
:1027C000D4F8941001921B68019A1D4D0B4493425A
:1027D0004FF00201296005D901210C2007F08EF984
:1027E00003B030BDD4F89C000AF09AFD184B19686C
:1027F0000AF088FF0028EFD101210B2007F07EF9B5
:1028000094F8D43003242C6043B10C4B02221A708C
:1028100000210C2007F072F903B030BD122007F040
:1028200073F9012808BF054B4FF0110008BF1C7059
:1028300007F06AF90128EBD1E7E700BF9094FF1F8A
:102840000C95FF1F50DFFF1F04DCFF1F48DBFF1F3D
:10285000E8DBFF1FF0B5684E684D34682B689C427A
:1028600087B039D014F0010155D014F0020149D0DD
:1028700014F004013DD0E3070ED52B68DF070BD41D
:102880005F4F3A68002A00F082805E4B1B6801931C
:10289000019B93426DD83468A0070DD52B6899072A
:1028A0000AD4594F3A68002A4CD0564B1B68039300
:1028B000039B934238D8346862070DD52B685B07B9
:1028C0000BD4524F3A68002A7ED04E4B1B680593BA
:1028D000059B934268D834680CB107B0F0BD21461F
:1028E000162006F08BFF2146172006F087FF07B061
:1028F000F0BD052006F082FF2B68346803F0FB036F
:102900002B60B8E7172006F079FF2B68346803F0D6
:10291000FD032B60ACE7162006F070FF2B683468CF
:1029200003F0FE032B60A0E7394B1720D3F8981073
:1029300006F064FF2B68346843F0020300222B602A
:102940003A60B9E7334808F00DFF0C21324808F02F
:1029500069FC304808F006FFFF21172006F04EFF03
:10296000284B2E4A19680291029912680A443A606B
:102970009CE7274B1620D3F8981006F03FFF2B68F2
:10298000346843F0010300222B603A6084E7FF21A2
:10299000162006F033FF1B4B204A1968009100995E
:1029A00012680A443A6071E7194B0520D3F8981071
:1029B00006F024FF2B68346843F0040300222B60E8
:1029C0003A60002C89D18AE7124808F0CBFE0C212E
:1029D000134808F027FC0F4808F0C4FEFF2105202B
:1029E00006F00CFF074B0D4A196804910499126810
:1029F0000A443A606AE700BF0C95FF1F7CDDFF1FA9
:102A0000ECDCFF1F50DFFF1F00DDFF1F04DDFF1F99
:102A100004DCFF1FC489FF1FF82001001888FF1F76
:102A2000082101002DE9F047534EDFF8708133682B
:102A3000DFF86C91D3F88400504D0F2106F072FA44
:102A40000023012222214E48C8F80030C9F8002096
:102A500008F0E8FBD8F80030132B20DC40F6E44700
:102A60003368B5F8ACA0D3F88400436B1C6905F05B
:102A7000DBFFA4B2012107FB04F4B4FBF0F44148EE
:102A80005444A5F8AC4008F0CDFB642007F072F880
:102A9000D8F800300133132BC8F80030E0DDB5F86A
:102AA000AC30394A3948A2FB03129B1A02EB53039C
:102AB000C3F30F131946A5F8AC3008F0A7FE1D218B
:102AC000334808F0AFFB0221324808F0ABFB2F4837
:102AD00008F048FE00231A460E213068C8F800307E
:102AE00005F01CFF022322212548C9F8003008F018
:102AF00099FBD8F80030132B20DC40F6E44733680C
:102B0000B5F8AE90D3F88400436B1C6905F08CFFD8
:102B1000A4B2012107FB04F4B4FBF0F419484C44BF
:102B2000A5F8AE4008F07EFB642007F023F8D8F843
:102B300000300133132BC8F80030E0DDB5F8AE30BB
:102B4000114A1248A2FB03129B1A02EB5303C3F370
:102B50000F131946A5F8AE3008F058FE1D210E4897
:102B600008F060FB02210B4808F05CFB0748BDE859
:102B7000F04708F0F7BD00BF8CDDFF1F04DCFF1F2E
:102B8000182101005C21010087611886C489FF1F9C
:102B90003C210100FC210100602101007094FF1F15
:102BA0002888FF1F2DE9F047C64DD5F8C430062B05
:102BB00000F0AE81C44BC54C1B68A86D40F251318A
:102BC00008222160E271002B00F077810AF0A8FB57
:102BD000696A06460AF0F8FBBD49BA4F0AF0F4FBF1
:102BE0000AF0DEFD80B203126372BA4ABA4B126871
:102BF0001B88E9692072A37230461B121612E37219
:102C0000227366730AF0E0FBB149B04E0AF0DCFBB8
:102C10000AF0C6FD83B21A123146B048A373E273BC
:102C200005F0D4FCAE4AAF4B12681988A172D3B23A
:102C3000237203EB83035B00237302EB820343F3F2
:102C4000D7134FEA212E12124FF008084FF0000957
:102C500031466373A14884F80BE040F25533627249
:102C6000236084F8078084F80E9084F80F9005F0B4
:102C7000ADFC40F256339C48236084F80780FEF791
:102C800003F99A490AF0A0FB0AF08AFD20729648DF
:102C9000FEF7FAF895490AF097FB0AF081FD944A8D
:102CA0009249C0F30723106863720AF041FC0AF0EE
:102CB00051FD40FA08F3A0728B48E372FEF710F959
:102CC00083490AF081FB0AF045FD20738648FEF730
:102CD00007F97F490AF078FB0AF03CFD40F3072032
:102CE000314660737D4884F80E9084F80F9005F0AB
:102CF0006DFC022006F03EFF7E4A7F4B1178217268
:102D0000517890786172D178A0721A789878E172CF
:102D1000597822736173DA78A07340F25A333146DE
:102D20006E48E273236084F8078005F04FFC734B14
:102D30006A481A7822725A7862729A78A272DA789D
:102D4000E2721A7922735A7962739A79DB79E373A2
:102D5000314640F25E33A273236084F8078005F0A9
:102D600035FC022006F006FF654B5C481A7822729B
:102D70005A7862729A78A272DA78E2721A792273B9
:102D80005A7962739A79DB79E37331464FF45C7355
:102D9000236084F80780A27305F018FC594B1B6868
:102DA000012B00F06F82022006F0E4FE082640F2BC
:102DB00073334D482360E671FEF718F852490AF064
:102DC00003FB0AF0EDFC20724748FEF70FF84E496E
:102DD0000AF0FAFA0AF0E4FCC0F3072342486372EF
:102DE000FEF72CF848490AF0EFFA0AF0D9FCA07275
:102DF0003D48FEF723F844490AF0E6FA0AF0D0FC11
:102E0000C0F307233848E372FEF7D2F83F490AF0CF
:102E1000D3F90AF0C5FC20733348FEF7C9F83B49E3
:102E20000AF0CAF90AF0BCFCC0F307232E4863730A
:102E3000FEF7BCF835490AF0BFF90AF0B1FCA073FF
:102E40002948FEF7B3F831490AF0B6F90AF0A8FCB0
:102E50001E49C0F307232148E37305F0B7FB0220A6
:102E600006F088FEE96D2B6E022211FB03F310467B
:102E700040F27931C3F30725E27121602372657254
:102E800006F078FE40F2723317482360E671FDF7D2
:102E90006DFE20721448FDF769FE002340FA06F229
:102EA0006272A372E37223736373A373E3730749BC
:102EB0000A48BDE8F04705F089BB0AF031FAA96974
:102EC000064687E604DCFF1F9C94FF1F7494FF1FD7
:102ED0000000204170DDFF1F8894FF1FA8DDFF1F49
:102EE0001088FF1F1488FF1F1096FF1F0000C842A4
:102EF000E8DBFF1FE4DBFF1F5894FF1F3488FF1F30
:102F00003C88FF1F08DDFF1F00007A44339388438D
:102F1000CD4CCE48002608274FF4C36321464FF01E
:102F200059094FF044084FF0420A236084F80A9090
:102F300084F80B80E771267226736673A673E673B6
:102F400084F809A005F042FB022006F013FE4FF4BE
:102F5000BB632146BD48236084F80A9084F80B8047
:102F6000E771267284F809A026736673A673E67368
:102F700005F02CFB022006F0FDFDE96D2A6ED5F868
:102F800058E0B248E77101FB02F312FB01F203EBD8
:102F9000C30103EB810302EBC2010EFB03F302EB5F
:102FA00081024FF4AB68032112FB0EF24FF0050CC7
:102FB0003B414FF0070EC4F8008021724FF0120918
:102FC00021464FF0040884F80EC02373627384F81E
:102FD0000FE0A67284F8099084F80B8005F0F6FAE9
:102FE000022006F0C7FD34224F234FF4B36E214672
:102FF0009648E272E373C4F800E0E77126726672E5
:1030000084F80A902673667384F80E8005F0DEFA61
:10301000022006F0AFFD8E4BE7711B68A86D4FF4E0
:1030200056722260002B40F065810AF079F9A96997
:1030300006460AF0C9F987490AF0C6F90AF0B0FB5A
:1030400080B240FA07F360722372E96930460AF0F1
:10305000BBF980490AF0B8F90AF0A2FB7E4B7F4A1F
:103060001B6812887849637385B216121B122F12DF
:1030700076482373E273E572A772A67305F0A6FA89
:10308000022006F077FD764A764B16681D88764B4F
:1030900076491868E57206EB8603642202FB06F2A5
:1030A00003EB83039B0012122E124FF47677082550
:1030B00063722272A6722760E5710AF085F90AF040
:1030C0006FFB83B243FA05F70026F9225E495F4899
:1030D0006373A2732773E67305F078FA022006F093
:1030E00049FD4FF48B604FF0120E5622782356495B
:1030F00020603427554884F80AE0A273E373E57131
:103100002672667226736673E77205F05FFA022014
:1031100006F030FD4FF4A36355482360E571FDF7D9
:1031200045FF4C490AF050F90AF03AFBC0F3072377
:103130004F482372FDF73AFF46490AF045F90AF075
:103140002FFB60724A48FDF733FF42490AF03CF911
:103150000AF026FBC0F307234548A372FDF728FFBA
:103160003C490AF031F90AF01BFBFF233649E072B3
:10317000364823736373A373E37305F027FA0220C1
:1031800006F0F8FC4FF49B6339482360E571FDF7C6
:103190007BFE30490AF018F90AF002FBC0F307235E
:1031A00033482372FDF770FE2A490AF00DF90AF040
:1031B000F7FA304B3049607218680AF0B9F90AF032
:1031C000C9FA40FA05F203462948A272E372FDF7F4
:1031D00087FE20490AF0F8F80AF0BCFA40F307230A
:1031E00023482373FDF77CFE1A490AF0EDF80AF034
:1031F000B1FA0323607314491448A373E57305F00F
:10320000E5F9022006F0B6FC1C4A1D4B92F801E0DD
:103210009178D0781F785E7892F800C0E571DA78FE
:103220009D78A1724FF4AC73E07284F808C084F802
:1032300009E027736673A573E273236002490348AC
:10324000BDE8F04705F0C2B97494FF1FA8DDFF1F69
:103250009C94FF1F0000204170DDFF1F8894FF1F1A
:103260001088FF1F1488FF1F54DDFF1F620B363BC1
:103270001096FF1FE8DBFF1F0000C842E4DBFF1FC2
:103280005894FF1F2E48FDF7B1FD796D09F094FFAA
:1032900081462B48FDF7D2FD014648460AF032FA36
:1032A00000283FF480AD40F2C333254886F80780FC
:1032B0003360FDF79BFD3F6D39460AF023FA48B3B2
:1032C000204938460AF080F80AF06AFA80B240FADB
:1032D00008F37072337200230127042603221A496F
:1032E0001A48A772E67222736373A373E37305F03F
:1032F0006DF958E50AF014F8696A06460AF064F8B0
:1033000013490AF061F80AF04BFA80B203126072B6
:1033100023729AE60A48FDF769FD0A490AF054F853
:103320000AF03EFAC0F3072305483372FDF75EFD4D
:1033300004490AF049F80AF033FA7072CBE700BF8B
:103340001096FF1F00007A447494FF1FA8DDFF1F32
:103350000000204138B5174C174A2368101D12F899
:10336000011F904241EA0323F9D12360134C03F17A
:1033700000432360124BD3F88830022B11D0114B3D
:103380001B68012B00D038BD0F4808F0EBF921680D
:103390000D4808F03BFA03210C48BDE8384007F01F
:1033A00041BF20680A4D09F0BBFF2860FEF778FD99
:1033B000E5E700BF74DDFF1F3FDBFF1F0495FF1F24
:1033C00004DCFF1F84DDFF1FC489FF1F8C21010067
:1033D0006CDDFF1F70B51E4A1E4C507A937A21682F
:1033E000D27A1D4E1D4D43EA002342EA03230129F0
:1033F00033602B6019D01846194BD3F88830A0F5EC
:103400000000022B28601BD02368012B00D070BD68
:10341000144808F0A7F92968124808F0F7F90321C1
:103420001148BDE8704007F0FDBE0E4808F09AF95B
:103430000023102229680B4808F0A8F92868DBE768
:1034400009F06EFF094B1860FEF72AFDDCE700BFAC
:1034500038DBFF1F84DDFF1F74DDFF1F0495FF1F96
:1034600004DCFF1FC489FF1F8C2101006CDDFF1FDE
:103470002DE9F041B54DB64EB64882B0294604F06C
:10348000A3FFD6F88830022B64D02B68F02B00F015
:10349000A580A3F19A02E52A00F28A80AE4BAF4CD8
:1034A0001B68012B00F090800022A849AC48FDF772
:1034B00083FB2B6803F47F63B3F5C07F7ED1A64BFB
:1034C000A2491B68A648012B96F8D63000F08180EF
:1034D0000022FDF74FFB2368012B72D19E4B1B6826
:1034E000012B6ED19F4BA0481B6801930A22002339
:1034F000019908F04BF92A68944B002ADB79C0F255
:103500001A819A499A480BF0B3F899480BF0D8F809
:103510000146974807F086FE2C688C4B14F08044D7
:1035200040F0FA80DB798BB12B1992491A7A9048D6
:103530000BF09EF88E480BF0C3F801468C4807F05C
:1035400071FE0134EB79E4B2A342EDD8864808F06D
:1035500009F936E0D6F88C202B68012A00F091801A
:10356000022A0CD140F2C132934203D040F2C2325F
:1035700093428BD1FFF72EFFD6F88C202B68032ABD
:1035800084D140F22252934200F0DC8040F2235278
:10359000934240F085807848784C07794179C27829
:1035A000807801EB072101EB024202EB006222600E
:1035B00003F47F63B3F5C07F684C80D02368012B90
:1035C0008CD002B0BDE8F0812268012A7FF46CAF94
:1035D0006BE72268012A7FF47BAF7AE7684F614B83
:1035E0003C781B6800930A22002300995E4801344E
:1035F0003C7008F0CBF82A68544B002ADB797EDB5C
:103600005A495B480BF034F859480BF059F8014619
:10361000574807F007FE2C684C4B14F080445FD1EC
:10362000DB79B3B1DFF87881524951482F193A7AE2
:103630000BF01EF83B7A4E4808F804300BF040F8C7
:1036400001464B4807F0EEFD0134EB79E4B2A342AA
:10365000EAD845484B4C08F085F804F1080714F8FF
:10366000011F41480023102208F090F8012146482C
:1036700007F0D8FDA742F2D13B4808F073F82B6859
:1036800007E740F2C132934240D040F2C232934247
:103690007FF4FCAEFFF75EFED6F88C202B685FE768
:1036A00040F2215293427FF4F1AE334C374F6179AF
:1036B000227994F803E0A07801EB0222D6F8881072
:1036C00002EB0E4202EB0060022938607FF470AF1B
:1036D00009F026FE2E4B1860FEF7E2FB2B68D5E6BC
:1036E0002C4F234C0FCF0FC497E8030044F8040B72
:1036F000204620F81419152107F094FDA9E7264962
:103700001B4822F060420AF0B3FF7DE7FFF762FE3C
:10371000D6F88C202B6823E71E4D154C0FCD0FC417
:1037200095E8030044F8040B204620F814191521ED
:1037300007F078FD0AE718490D4822F060420AF0C8
:1037400097FFE2E60C48154C27E700BF38DBFF1F68
:1037500004DCFF1FA8DDFF1F84DDFF1F0088FF1FA3
:103760001096FF1F50DFFF1FC489FF1FB821010003
:1037700060DBFF1FE421010058DBFF1F10DDFF1F8E
:103780004CDDFF1F5F94FF1F3C1F01000495FF1FCE
:103790006CDDFF1FCC210100902101000CDDFF1F1B
:1037A0006094FF1F2DE9F04FA24B1B78052B83B0CF
:1037B00000F0AA80A04FA14CA14E3B78226F32604E
:1037C000A04D002B67D0B4F868302B809E48FDF7E1
:1037D000EFFB216B09F096FF08B100232B809A487C
:1037E000FDF7E4FBE16A09F0ABFF10B100233360A1
:1037F0002B809548FDF722FBE16809F0A1FF08B195
:1038000000232B809048FDF719FBE16809F098FF31
:1038100008B100232B808C48DFF82082FDF7E6FA00
:10382000216909F06FFF002874D0002333602B88D2
:10383000DFF8108213B33B788348804F002B40F0B1
:10384000CB80FDF7B5FBA16B09F05CFF002840F0D1
:1038500038817E4B7C481B68784F012B00F09A81A1
:10386000FDF7ECFA216A8046A06909F0A3FC014645
:10387000404609F065FF002840F0F6813368704A41
:10388000002BBCBF00231360714A13889BB22BB975
:1038900003B0BDE8F08F636E2B8097E7674E128808
:1038A000D6F8E030D6F8DC0092B203FB02F300FB5E
:1038B00003F009F035FD674909F086FD09F070FF56
:1038C000654B84B260481C80FDF774FB074604EB2F
:1038D0008400400009F024FD0446B06D09F020FD8D
:1038E000394609F071FD0146204609F021FE09F034
:1038F00057FF2B88594A534980B283421080C7D959
:10390000088003B0BDE8F08F4D4A4E4D0023136090
:103910002B80B9E74C48FDF769FAD8F81C1009F07C
:10392000F1FE002881D13368DFF814A1002B7FF766
:103930007EAF4548FDF73AFBD8F83C1009F000FF90
:10394000002840F08D804048DFF8F090FDF74EFAF7
:10395000D4F8D0108046E06909F02EFC01464046BC
:1039600009F0D0FE00283FF462AF306809F0D8FCBF
:1039700083463548FDF73AFA0090D9F87000D9F837
:103980001C8009F0CDFC009B82464146184609F098
:1039900011FC51460090002009F00CFC009B0146F0
:1039A000184609F011FDD9F8D0100090404609F0F2
:1039B00003FC414609F0FEFB009B0146184609F056
:1039C000B7FD514609F0F8FB0146584609F0F2FBF5
:1039D00009F0C0FE30602AE7FDF7EAFAA16B09F0B2
:1039E00091FE002840F0A180184B17481B68134F28
:1039F000012B00F0F480FDF721FA216A8046A069CE
:103A000009F0D8FB0146404609F09AFE00283FF431
:103A100035AF288809F084FC81460B48FDF70EFA83
:103A2000BC69396A8246204609F0C4FB8046B7F873
:103A3000680028E19094FF1F0095FF1F04DCFF1F22
:103A400070DDFF1F8894FF1F1096FF1F9C94FF1FBF
:103A500078DDFF1F0AD7233C5EDDFF1F8A94FF1F1E
:103A6000DAF8000009F05CFC83469748FDF79EFAFF
:103A70000190D8F87000D8F83C9009F051FC019AF8
:103A800000904946104609F095FB009B01461846F8
:103A900009F09AFC49460090D8F82C0009F08AFBFE
:103AA000009B0146184609F043FD002109F084FB04
:103AB0000146584609F07EFB09F04CFECAF80000AA
:103AC00041E7B8F8000009F02BFC83467E48FDF77B
:103AD0006FFA0090786ED7F830A009F021FC009BB7
:103AE00081465146184609F065FB49460090002082
:103AF00009F060FB009B0146184609F065FC514641
:103B00000090B86B09F056FB009B0146184609F07F
:103B10000FFD494609F050FB0146584609F04AFBA3
:103B200009F03EFEA8F8000093E6B8F8000009F09E
:103B3000F7FB83466448FDF73BFA0090B7F868004E
:103B4000D7F830A009F0E8FB009B814651461846A3
:103B500009F030FB49460090002009F02BFB009B48
:103B60000146184609F030FC51460090B86B09F048
:103B700021FB009B0146184609F0DAFC494609F092
:103B80001BFB0146584609F015FB09F009FEA8F891
:103B9000000029E7FDF752F9216A8046606A09F0C2
:103BA00009FB0146404609F0CBFD00283FF466AE14
:103BB000288809F0B5FB82464348FDF73FF9D7F85E
:103BC0002480396A8346404609F0F4FA8146F86E4B
:103BD00009F0A6FB0446786E09F0A2FB24E0FDF78D
:103BE0002DF9216A8046606A09F0E4FA01464046F0
:103BF00009F0A6FD00283FF441AE288809F090FBAB
:103C000082463148FDF71AF9D7F82480396A83468D
:103C1000404609F0CFFA8146F86E09F081FB044670
:103C2000B7F8680009F078FB214609F0C3FA494665
:103C30000746584609F0BEFA0146384609F0C4FB6B
:103C400049460746404609F0B5FA0146384609F0AC
:103C50006FFC214609F0B0FA0146504609F0AAFA75
:103C600009F09EFD288009E6288809F059FB814665
:103C70001548FDF7E3F8BC69396A8246204609F029
:103C800099FA8046786EFB6EC01A09F049FB4146EE
:103C90000746504609F08EFA0146384609F094FB73
:103CA00041460746204609F085FA0146384609F0A4
:103CB0003FFC002109F080FA0146484609F07AFAF3
:103CC00009F06EFD2880D9E51096FF1F08B527483A
:103CD00007F048FD0721264807F0A4FA112005F057
:103CE00013FF0621F8B1234807F09CFA102005F0D5
:103CF0000BFF062100B3204807F094FA122005F0CC
:103D000003FF062108B31D4807F08CFA132005F0C5
:103D1000FBFE062110BB1A4807F084FA1348BDE8E1
:103D2000084007F01FBD174807F07CFA102005F087
:103D3000EBFE06210028DED1134807F073FA1220AB
:103D400005F0E2FE06210028DDD1104807F06AFAEE
:103D5000132005F0D9FE06210028DCD00C4807F01E
:103D600061FA0248BDE8084007F0FCBCC489FF1FA7
:103D7000F0210100F82101000822010018220100B1
:103D80003022010000220100102201002022010047
:103D90002822010010B5254C2368042B27DC0121C3
:103DA0000B2005F0ABFE01210C2005F0A7FE012140
:103DB000142005F0A3FE0121152005F09FFEFF2130
:103DC000162005F01BFDFF21172005F017FDFF2130
:103DD000052005F013FDFF21062005F00FFD2368E7
:103DE00001330A2B2360C4BF0023236010BD0021D0
:103DF0000B2005F083FE00210C2005F07FFE002142
:103E0000142005F07BFE0021152005F077FE00212F
:103E1000162005F0F3FC0021172005F0EFFC00212F
:103E2000052005F0EBFC0021D6E700BF5C94FF1FE6
:103E300030B5092183B0AE4806F0BEF9222006F065
:103E400049F9AC4BD3F8B430012BAB4B1B7809D0FC
:103E5000052B10D8DFE813F02D0132013C014101A0
:103E600037010B00002B00F03D81052B03D107210A
:103E7000A24806F0A1F9222006F02CF9FF2006F056
:103E800029F9FF2006F026F99D4CFF2006F022F9C3
:103E900008219C4806F090F921689B4807F0B6FC81
:103EA000FF2006F017F9FF2006F014F9FF2006F0B6
:103EB00011F90921954806F07FF92168924807F029
:103EC000A5FCFF2006F006F9FF2006F003F9FF200D
:103ED00006F000F90C218E4806F06EF98D4B8E49E4
:103EE000186809F025FB08F0C5FD002402460B46C2
:103EF0000094854807F094FCFF2006F0EBF8FF20C3
:103F000006F0E8F8FF2006F0E5F80921834806F0FE
:103F100053F98348FCF7E4FF08F0ACFD0094024637
:103F20000B46794807F07CFCFF2006F0D3F8FF2011
:103F300006F0D0F8FF2006F0CDF80C21794806F005
:103F40003BF97748FDF734F808F094FD00940246F9
:103F50000B466D4807F064FCFF2006F0BBF8FF201D
:103F600006F0B8F8FF2006F0B5F80D216E4806F00F
:103F700023F96B48FDF71AF808F07CFD009402461F
:103F80000B46614807F04CFCFF2006F0A3F8FF2029
:103F900006F0A0F8FF2006F09DF80921634806F01E
:103FA0000BF95F48FCF770FF614909F00DFA08F062
:103FB00061FD009402460B46534807F031FCFF2098
:103FC00006F088F8FF2006F085F8FF2006F082F85A
:103FD0000C21584806F0F0F85148FCF707FF564905
:103FE00009F0F2F908F046FD009402460B464648F7
:103FF00007F016FCFF2006F06DF8FF2006F06AF8C7
:10400000FF2006F067F80D214C4806F0D5F844482B
:10401000FCF714FF484909F0D7F908F02BFD00948C
:1040200002460B46384807F0FBFBFF2006F052F82B
:10403000FF2006F04FF8FF2006F04CF80921404819
:1040400006F0BAF83F4B3048196807F0DFFBFF2055
:1040500006F040F8FF2006F03DF8FF2006F03AF8A1
:104060000E21394806F0A8F82D48FCF7E7FE054672
:104070002B48FCF7BBFE0146284609F09BF82E4969
:1040800009F0A2F908F0F6FC009402460B461E481F
:1040900007F0C6FBFF2006F01DF8FF2006F01AF817
:1040A000FF2006F017F8FF2003B0BDE8304006F00F
:1040B00011B80621254806F07FF8DCE607212448E0
:1040C00006F07AF8D7E60B21224806F075F8D2E61A
:1040D0000721214806F070F8CDE608211F4806F0B8
:1040E0006BF8C8E608211E4806F066F8C3E600BF74
:1040F0003822010004DCFF1F9094FF1F041F010001
:104100001088FF1F502201009889FF1F5C220100C8
:1041100068220100E8DBFF1F0000C842782201008E
:104120001096FF1F8422010094220100A4220100A6
:1041300000002041B022010000007A44C0220100AA
:10414000D02201002488FF1FDC220100D41E0100C0
:10415000DC1E0100E41E0100F01E0100F81E01003B
:10416000442201002DE9F0418D4DD5F8C430042BD7
:104170003ED0032B6ED0012B00F09880022B01D093
:10418000BDE8F081874C8848237240F20E3201234B
:1041900021462260E37104F019FA844B1B885B000E
:1041A000FF2BC8BFFF23042140224FF44170206041
:1041B000E17122726372A86D09F0B2F8A96909F081
:1041C00003F97B49054609F0BBFA002800F0DE80C0
:1041D0002946284608F0F0FF09F0E2FA80B20312FF
:1041E000E072A3726F497048BDE8F04104F0EEB987
:1041F0006C4C704AA379226043F001030822E271FB
:10420000A371A86D09F08CF8A96909F0DDF86A4975
:1042100009F0DAF809F0C4FA644B684A1B8812689E
:1042200093FBF2F380B200261A1207126072214645
:104230005D48E372A272277226736673A673E673F3
:1042400004F0C4F9A279D5F8C43066F30002032B58
:10425000A27190D1534CA86DA3720122E8230721CB
:1042600040F2FF26227263722660E17109F058F86D
:10427000A96909F0A9F8504909F0A6F809F090FADF
:104280004A4B4E4A1B88126893FBF2F382B21E120D
:104290001712214644486373E2722773A67304F031
:1042A00095F9D5F8C430012B7FF468AF444B3D4CF1
:1042B0001B682360072280231020E271237205F01F
:1042C00023FC002869D13F4B1B68384FDFF8EC8096
:1042D000A86D344E03EB83035B001A12A372627263
:1042E0003B88D8F8002093FBF2F31A126273A37391
:1042F00009F016F8A96909F067F8334B196808F056
:1043000059FF2D4909F060F809F04AFA80B203120A
:10431000314620732448E37204F058F9022005F076
:1043200029FC2A4B1B682360072280231020E2719E
:10433000237205F0E9FB70BB224B1B68A86D03EBF1
:1043400083035B001A127272B37208F0E9FFA96965
:1043500009F03AF81E4B196808F02CFF164909F0CD
:1043600033F809F01DFA82B21612D8F800003B8823
:10437000227393FBF0F30B490B48A3731A12E672F6
:10438000627304F023F9D5F8C430F7E601229023D4
:10439000A272E37226E70F4BCFE70E4B94E700BF04
:1043A00004DCFF1F7494FF1FA8DDFF1F8894FF1F0C
:1043B00000004843F4E50618000020410C88FF1F68
:1043C0004488FF1F0888FF1F8494FF1F4888FF1F31
:1043D00058DDFF1F1C88FF1F70B50368C57984B0C6
:1043E000012D8DF805304FEA13230E468DF8043069
:1043F00005F1010201A909DD07300D440DF10503A6
:1044000010F8014F03F8014FAB42F9D1034B0448B8
:104410009B5D03F0AFFB04B070BD00BFF430010042
:104420001095FF1FF0B40D4B0D489C790822FF2713
:10443000CD26A225DA710022B0216FF300041F728D
:104440009E72DD725A721A735A739A73DA73196014
:104450009C711946F0BC04F0B9B800BF7494FF1FFA
:10446000A8DDFF1F2DE9F043604D2B78062B83B0AC
:104470006ED05F4B5F4E1B78DFF8A881002B45D0D4
:104480002B785D4C5D4F43F08003082100222360B0
:10449000E1713A60C72210232272637298F80030EB
:1044A00055490022022BA272E2720BD833784A736C
:1044B0004FEA03134FF02002DBB20A730DD104332D
:1044C0008B730BE03B68012B0CBF482340230B731D
:1044D000337801221B01DBB26273A373297846484B
:1044E000FFF77AFFE073022005F044FB424944489D
:1044F00004F06CF82B78434801332B70FCF7F2FA88
:1045000008B1FFF78FFF03B0BDE8F0833B4F2B7876
:10451000396843F08003384C082201292360E27196
:10452000B8D13848FCF762FC374908F04DFF09F074
:1045300037F9431D33482372FCF758FC324908F021
:1045400043FF09F02DF980B2053000126072A5E733
:10455000284EDFF8D080337898F800200133032A02
:10456000DBB298BF01324FF0000198BF88F80020FD
:104570000F2B3370297002D01D4B1B787EE7234F21
:10458000234C3B680093009A2168002391423370CA
:1045900015D2204BDFF858901A6801239A4289F807
:1045A000003012D01C4A39680191B2F8B010019A5B
:1045B0003C314FF47A7000FB012222605EE70C4A26
:1045C0000E4F137039688023A5E7144807F0CAF826
:1045D0001321134806F026FE104807F0C3F80F48D1
:1045E00007F0C0F899F80030DCE700BF80DDFF1F5E
:1045F00064DDFF1F5CDDFF1F7494FF1F08DDFF1FDC
:10460000A8DDFF1F1096FF1F00007A4450DFFF1F38
:1046100044DDFF1F0088FF1F04DCFF1FC489FF1F4C
:10462000EC22010000DCFF1F2DE9F8431E4C0026A0
:104630004FF0A009A3791C4F1C486672FF256FF349
:104640000003A12239464FF00808A3712272C4F872
:104650000090013684F80780A572E57225736573B2
:10466000A573E57303F0B2FF022005F083FA0F2E65
:104670004FF0A003DED1BA790D4E3B603724002302
:1046800063F3000287F807807D72BD72FD723D738F
:104690007D73BD73FD7333703C723946BA71034844
:1046A000BDE8F84303F092BF7494FF1FA8DDFF1F1D
:1046B0004CDDFF1F2DE9F0418C4C8D4D82B006F092
:1046C0004BFD23682860042B00F01283022B4BD093
:1046D000082B00F09380072B40F03081332801F045
:1046E000CF8600F3A583312801F0B486322840F04C
:1046F000CB8106F06DFD002840F31E817D487E4E83
:1047000007F0C8F908F00CFE7C4908F05DFE612353
:104710000122706422602B601846A0F152031F2B07
:1047200000F2B281DFE813F07A0EB001B001B001FF
:10473000B001B001B001B001B001B001B001B001F1
:10474000B001B001B001D803F00F5D05FA05C8044F
:10475000B001B001B0014B04B001F30FB001B001E2
:10476000B001B001B0017F0EA0F13103422B00F285
:104770008B81DFE813F0CD07DB07E907FB071E0895
:104780002D083A08440889018901890189018901B4
:1047900089018901890189018901890189018901C9
:1047A00089018901890189018901890189018901B9
:1047B00089018901890189018901890189018901A9
:1047C0008901890189018901890189018901890199
:1047D000890189018901890189010E0889018901FD
:1047E0008901890189018901890189018901890179
:1047F0008901890189014E0089011408322800F0DD
:104800004B8340F32883342800F05C83712840F008
:104810003B810022732322602B602368002B40F031
:104820003681374E334806F09DFF0421354806F0A7
:10483000F9FC304806F096FF1021334806F0F2FCF0
:104840002C4806F08FFF1321304806F0EBFC304B6C
:104850002848196806F0DAFF264806F083FF14217D
:104860002C4806F0DFFC234806F07CFF1E212A4876
:1048700006F0D8FC1F4806F075FF1521274806F002
:10488000D1FC1C4806F06EFF1E21254806F0CAFC2C
:10489000184806F067FF2021224806F0C3FC15489F
:1048A00006F060FF1921204806F0BCFC114806F014
:1048B00059FF12211D4806F0B5FC0E4806F052FFC4
:1048C0000F211B4806F0AEFC0A4806F04BFF0D21F5
:1048D000184806F0A7FC074806F044FF0022012311
:1048E0003260236002B0BDE8F08100BF90DDFF1FA1
:1048F00034DBFF1FC489FF1F04DCFF1F6F12833AE4
:104900000088FF1F4C270100542701006827010081
:104910002488FF1F7C27010094270100B427010091
:10492000CC270100EC270100102801002C280100F1
:10493000402801005028010023682868062B40F019
:10494000AB80A0F13103402B00F29E8001A252F80F
:1049500023F000BFA9580000D558000025590000D9
:104960004B590000715900008F590000894A00001E
:104970001958000037580000894A0000894A000091
:10498000894A0000894A0000894A0000894A0000DB
:10499000894A0000894A0000894A0000894A0000CB
:1049A000894A0000894A0000894A0000894A0000BB
:1049B000894A0000894A0000894A0000894A0000AB
:1049C000894A0000894A0000894A0000894A00009B
:1049D000894A0000894A0000894A0000894A00008B
:1049E000894A0000894A0000894A0000894A00007B
:1049F000894A0000894A0000894A0000894A00006B
:104A0000894A0000894A0000894A0000894A00005A
:104A1000894A00005D5800008558000001590000D7
:104A2000894A0000894A0000894A0000894A00003A
:104A3000894A0000894A0000894A0000894A00002A
:104A4000894A0000894A0000894A0000894A00001A
:104A5000894A00001348000006F0BAFB002841F321
:104A6000F284F048F04E07F015F80127034601469E
:104A70006222EE48F36527602A60FCF709FA236892
:104A80002868012B3FF449AE73283FF4C6AE02B04C
:104A9000BDE8F08123682868052B40F08B80A0F1E9
:104AA0003103402BF0D801A252F823F0B15400009A
:104AB000A5550000C5550000E5550000A5560000AD
:104AC000C1560000894A0000894A0000894A000056
:104AD000894A0000894A0000894A0000894A00008A
:104AE000894A0000894A0000894A0000894A00007A
:104AF000894A0000894A0000894A0000894A00006A
:104B0000894A0000894A0000894A0000894A000059
:104B1000894A0000894A0000894A0000894A000049
:104B2000894A0000894A0000894A0000894A000039
:104B3000894A0000894A0000894A0000894A000029
:104B4000894A0000894A0000894A0000894A000019
:104B5000894A0000894A0000894A0000894A000009
:104B6000894A0000894A0000894A0000894A0000F9
:104B7000894A0000894A0000894A0000894A0000E9
:104B8000894A0000894A0000894A0000894A0000D9
:104B9000894A0000894A0000894A0000894A0000C9
:104BA000894A0000894A0000894A0000DB5600005B
:104BB00023682868032B7FF464AFA0F13003482BEF
:104BC0003FF662AF01A252F823F000BF594A00003D
:104BD000276000004F6000007760000099600000CF
:104BE000BB600000E36000000B6100002961000071
:104BF0004D610000894A0000894A0000894A00008E
:104C0000894A0000894A0000894A0000894A000058
:104C1000894A0000894A0000894A0000894A000048
:104C2000894A0000894A0000894A0000894A000038
:104C3000894A0000894A0000894A0000894A000028
:104C4000894A0000894A0000894A0000894A000018
:104C5000894A0000894A0000894A0000894A000008
:104C6000894A0000894A0000894A0000894A0000F8
:104C7000894A0000894A0000894A0000894A0000E8
:104C8000894A0000894A0000894A0000894A0000D8
:104C90007561000093610000B1610000CF61000008
:104CA0001D6200003D620000BF5A0000E35A000090
:104CB000894A0000095B0000FF5F0000894A00008C
:104CC000894A0000894A0000894A0000894A000098
:104CD0001348000093620000894A0000894A0000DE
:104CE000894A0000894A0000894A0000B362000036
:104CF000A0F13103482B3FF6C7AE01A252F823F0D2
:104D0000615A0000655A0000695A0000895A000083
:104D1000A35A00008D5A00009F5A0000C959000094
:104D2000E1590000894A0000894A0000894A0000D0
:104D3000894A0000894A0000894A0000894A000027
:104D4000894A0000894A0000894A0000894A000017
:104D5000894A0000894A0000894A0000894A000007
:104D6000894A0000894A0000894A0000894A0000F7
:104D7000894A0000894A0000894A0000894A0000E7
:104D8000894A0000894A0000894A0000894A0000D7
:104D9000894A0000894A0000894A0000894A0000C7
:104DA000894A0000894A0000894A0000894A0000B7
:104DB000894A0000894A0000894A0000894A0000A7
:104DC000894A00000F5A0000894A0000894A000001
:104DD000894A0000894A0000894A0000894A000087
:104DE000894A0000894A0000894A0000894A000077
:104DF000894A0000894A0000894A0000894A000067
:104E000013480000295A0000894A0000894A00001E
:104E1000894A0000894A0000894A0000395A000086
:104E2000495A0000C489FF1F04DCFF1F1096FF1FB2
:104E300034287FF4EBAC06F0CBF900287FF77CAD8B
:104E40008A488B4E06F026FE61230122B08622603E
:104E50002B60184661E431287FF416AE06F0B8F9ED
:104E6000002840F350848148814E06F013FEC0B202
:104E700086F84800022894BF01460021B6F9D830D0
:104E8000F26C7C4888BF86F84810FCF703F80123D1
:104E900069202360286040E406F09AF9002816DDB6
:104EA0007248734E06F0F6FD08F03AFA724908F0BF
:104EB0008BFA07460246B6F9D83096F848106D4886
:104EC000F764E2E706F084F9002800F30E84236813
:104ED000286800E406F040F906F07AF90546002853
:104EE000F8D16248624E06F03DFC604806F03AFC9C
:104EF0005E4806F037FC5D4806F034FC5B4806F07F
:104F000031FC1F215D4806F08DF9584806F02AFC57
:104F10001C215B4806F086F9B06A5A4908F054FA39
:104F200007F0A8FD009502460B46504806F078FCB5
:104F30000221554806F076F94C4806F013FC23216F
:104F4000524806F06FF9706C4E4908F03DFA07F0D0
:104F500091FD009502460B46444806F061FC022193
:104F6000494806F05FF9414806F0FCFB1921484822
:104F700006F058F9306C07F07DFD02250B4602461D
:104F800000953A4806F04CFC2946424806F04AF99A
:104F9000364806F0E7FB22213F4806F043F9B18E80
:104FA000324806F033FC03213C4806F03BF92F4819
:104FB00006F0D8FB0723236069E506F0CDF806F07C
:104FC00007F905460028F8D12848294E06F0CAFB03
:104FD000264806F0C7FB254806F0C4FB234806F028
:104FE000C1FB224806F0BEFB15212D4806F01AF938
:104FF0001E4806F0B7FB18212A4806F013F92B4685
:105000000A2296F84810194806F0C0FB174806F027
:10501000A9FB2821244806F005F9F06C194908F08D
:10502000D3F907F027FD00950B4602460F4806F01E
:10503000F7FB0221144806F0F5F80C4806F092FB45
:1050400018211A4806F0EEF8B6F9D810074806F00D
:10505000DDFB064806F086FB1321154806F0E2F852
:10506000024806F07FFB0823236010E5C489FF1F78
:1050700004DCFF1F1096FF1F6F12833A9825010072
:10508000B825010000007A446C230100D8250100F6
:10509000FC25010024250100182601003C26010002
:1050A0001428010024230100402301007023010083
:1050B0008C23010006F050F806F08AF80546002817
:1050C000F8D18148814E06F04DFB7F4806F04AFB3F
:1050D0007D4806F047FB7C4806F044FB7A4806F022
:1050E00041FB11217A4806F09DF8774806F03AFB1B
:1050F0002821784806F096F8B069774908F064F9F5
:1051000007F0B8FC009502460B466F4806F088FB96
:105110000221724806F086F86B4806F023FB162140
:105120006F4806F07FF8306A6B4908F04DF907F0D8
:10513000A1FC00950B460246634806F071FB022174
:10514000664806F06FF8604806F00CFBD6F8C430ED
:10515000002B32DD1D21634806F064F8706E08F004
:10516000DFF8614908F030F907F084FC02250246B7
:105170000B460095544806F053FB01215B4806F0AE
:1051800051F8514806F0EEFA1F21594806F04AF846
:10519000F06E08F0C5F8544908F016F907F06AFCFB
:1051A000009502460B46484806F03AFB01214F485D
:1051B00006F038F8444806F0D5FA11214D4806F0BB
:1051C00031F8D6F8C430062B01F28280DFE813F004
:1051D0001C092109170912090D0908097C0805F0A5
:1051E000BBFF05F0F5FF0028F9D13748374E06F030
:1051F000B9FA354806F0B6FA334806F0B3FA324841
:1052000006F0B0FA304806F0ADFA1F213A4806F031
:1052100009F82D4806F0A6FA1E21384806F002F8D3
:10522000294806F09FFA1A21354805F0FBFFD6F809
:105230008830022B01F00982032B01F0FD81012B44
:1052400001F00C8209212F4805F0ECFF1E4806F002
:1052500089FA14212C481D4D05F0E4FFD6F884107E
:10526000194806F0D3FA184806F07CFA1C212748A2
:1052700005F0D8FFD6F89010134806F0C7FA124888
:1052800006F070FA1C21224805F0CCFFD6F8C010B9
:105290000D4806F0BBFA0C4806F064FAD6F88830E0
:1052A00023F00202012A01F04781022B01F0FA816A
:1052B0001321184805F0B6FF034806F053FA0223FD
:1052C0002360FFF7E4BB00BFC489FF1F04DCFF1F9E
:1052D000B8270100A023010000007A446C230100DC
:1052E000CC230100E4230100CDCCCC3DF82A010001
:1052F0000424010024240100B8290100D829010058
:10530000F8290100702A01007C2A0100942A01007A
:10531000B42A01008C23010005F01EFF05F058FFA0
:1053200005460028F8D1BA48BA4E06F01BFAB8482C
:1053300006F018FAB64806F015FAB54806F012FA63
:10534000B34806F00FFA1321B34805F06BFFB048DD
:1053500006F008FA0D21B14805F064FFAC4806F0EC
:1053600001FA0F21AE4805F05DFFAE4BA848196861
:1053700006F04CFAA64806F0F5F91321AA4805F004
:1053800051FFAA4BA248196806F040FAA04806F05F
:10539000E9F91221A64805F045FFA64B9C4819687B
:1053A00006F034FA9A4806F0DDF91121A24805F01A
:1053B00039FFA24B9648196806F028FA944806F07F
:1053C000D1F90E219E4805F02DFFD6F8B410904873
:1053D00006F01CFA8E4806F0C5F91921994805F027
:1053E00021FF994B8A48196806F010FA884806F0A0
:1053F000B9F91121954805F015FF954B84481968B6
:1054000006F004FA824806F0ADF91021914805F043
:1054100009FF914B7E48196806F0F8F97C4806F0C0
:10542000A1F91C218D4805F0FDFE8D4B78481968C7
:1054300006F0ECF9764806F095F91621894805F052
:10544000F1FEB6F8B010724806F0E0F91E21864869
:1054500005F0E8FE6E4806F085F90C21834805F05A
:10546000E1FE834B6A4819780A222B4606F08EF932
:10547000674806F077F910217E4805F0D3FE2946EB
:105480007D4805F0CFFE624806F06CF917217B4895
:1054900005F0C8FE5E4806F065F91321784805F06E
:1054A000C1FE5B4806F05EF904232360FFF7EFBA04
:1054B00005F08EFE00287FF77BAB5548554E06F071
:1054C000E9FA01226B23C6F8940022602B6001E008
:1054D00005F042FE05F07CFE0028F9D14C484D4D08
:1054E00006F040F94A4806F03DF9494806F03AF915
:1054F000474806F037F9464806F034F9212161485B
:1055000005F090FE424806F02DF915215E4805F0A1
:1055100089FED6F894103E4806F078F902215B48DF
:1055200005F080FE3A4806F01DF91E21584805F0A6
:1055300079FED6F89C10364806F068F903215548E4
:1055400005F070FE324806F00DF91E21524805F0B4
:1055500069FED6F898102E4806F058F92C4806F047
:1055600001F91D214D4805F05DFED6F8B810284818
:1055700006F04CF9264806F0F5F81E21484805F0DB
:1055800051FED6F8BC10224806F040F9204806F03B
:10559000E9F8D6F8B430012B01F097800523236099
:1055A000FFF775BA05F014FE00287FF701AB184825
:1055B000184E06F06FFA01226B23C6F89C00226099
:1055C0002B6087E705F004FE00287FF7F1AA10485A
:1055D000104E06F05FFA01226B23C6F89800226095
:1055E0002B6077E705F0F4FD00287FF7E1AA084873
:1055F000084E06F04FFA164BC6F8B80002221A60A1
:10560000FCF72CF901226B2322602B6062E700BFBC
:10561000C489FF1F04DCFF1F6028010074280100FB
:105620008428010084DDFF1F9428010038DDFF1F5E
:10563000A828010040DDFF1FBC280100F8DBFF1F88
:10564000D0280100E02801006894FF1FFC28010019
:105650008C94FF1F10290100F4DBFF1F2429010097
:105660002088FF1F442901005C2901007C290100DA
:10567000ECDBFF1F8C29010058200100A02901004C
:105680008C2301004026010064260100B82401009B
:105690007C260100382001009C260100BC26010068
:1056A000DC26010005F094FD00287FF781AAC1489F
:1056B000C14E06F0EFF9C14BC6F8BC0003229EE7CD
:1056C000BD4E96F8D530B3FA83F35B0901216B2206
:1056D00086F8D53021602A60FCE6B84900237322A1
:1056E0000B6023602A60FFF798B8B248B24E06F00C
:1056F000D1F907B23B46F26C96F84810B048A6F8CC
:10570000D870FFF7C2BBAC4E96F84800FFF7B2BBAB
:10571000A94ED6F88430B3FA83F35B0901226320E3
:10572000C6F8843022602860FEF7F7BFA24ED6F894
:105730009030B3FA83F35B0901226320C6F89030FE
:1057400022602860FEF7E9BF0123236005F040FDD9
:10575000002805DD9748984E06F09CF9C6F8C00071
:105760000123632023602860FEF7D7BF0123236055
:1057700005F02EFD002807DD8E488F4E06F08AF9D1
:1057800007F0CEFDC6F8A400632028602368FEF76A
:10579000A2BFFDF747F923682868FEF799BF864A3C
:1057A000D2F888300133032BC8BF0023C2F88830F9
:1057B000D6E70123236005F00BFD0028E4DD7D48DA
:1057C0007D4E06F067F907F0ABFDC6F8A000DBE7F9
:1057D0000123236005F0FCFC0028D5DD7548764EDA
:1057E00006F058F9A6F8CE00CEE7734AD2F88C300E
:1057F0000133042BC8BF0123C2F88C30B0E701236A
:10580000236005F0E5FC0028AADD6A486A4E06F030
:1058100041F9C6F8A800A3E7674B93F8D420002A03
:1058200000F0418600210122652083F8D410226017
:105830002860FEF772BF05F0CBFC00287FF72AA98D
:105840005C485D4E06F026F907F06AFD65230122EB
:10585000B06322602B601846FEF75FBF05F0B8FC0E
:1058600000287FF717A95348534E06F013F900EBB1
:105870008000430001226520A6F86830226028607D
:10588000FEF74BBF05F0A4FC00287FF703A94948A9
:10589000494E06F0FFF865230122C6F8DC002260BD
:1058A0002B601846FEF739BF05F092FC00287FF701
:1058B000F1A84048404E06F0EDF807F031FD4149AF
:1058C00007F036FE65230122B06122602B60184686
:1058D000FEF723BF05F07CFC00287FF7DBA83548E6
:1058E000354E06F0D7F807F01BFD364907F020FECD
:1058F00065230122306222602B601846FEF70DBF3F
:1059000005F066FC00287FF7C5A82A482A4E06F055
:10591000C1F865230122C6F8E00022602B6018461A
:10592000FEF7FBBE05F054FC00287FF7B3A8214822
:10593000214E06F0AFF800EB800043000122652005
:10594000736622602860FEF7E8BE05F041FC00287F
:105950007FF7A0A81748184E06F09CF800EB8000CF
:10596000430001226520F36622602860FEF7D5BE61
:10597000114AD2F8C4300133062BC8BF0023C2F845
:10598000C4306520012323602860FEF7C6BE05F001
:105990001FFC00287FF77EA80648074E06F07AF81D
:1059A00065230122C6F8C80022602B601846FEF766
:1059B000B4BE00BFC489FF1F04DCFF1F8C94FF1F0F
:1059C0001096FF1F00007A44584A1368B3FA83F315
:1059D0005B0901216420136021602860FEF79DBEF1
:1059E0000123236005F0F4FB002800F31686504BDA
:1059F0001A68042A01DD02221A6064232B602368DE
:105A0000082B4FF064007EF466AEFEF7F7BE01236C
:105A1000236005F0DDFB0028EFDD4648464E06F02A
:105A200039F8A6F8B000E8E701232360FEF7FAFC96
:105A300064232B602368E3E701232360FEF7F4FD72
:105A400064232B602368DBE70123236005F0C0FBA0
:105A50000028D2DD374806F01DF8384B1870CCE727
:105A6000374AB2E7374AB0E7374A384F1368002B56
:105A70000CBF012100214FF001031160236040F0B1
:105A8000F68564222A60BBE7314A9EE7012331484C
:105A90002360FBF743F8304A23681060F1E72F4A90
:105AA00093E7254ED6F8B430B3FA83F35B090122AD
:105AB0006420C6F8B43022602860FEF72EBE05F0E0
:105AC00087FB00280DDD1B481B4E05F0E3FF07F0A8
:105AD00027FC234907F02CFD01226223706222601B
