:1000000000800020BD0100008D9500004595000096
:100010004595000045950000459500004595000078
:100020004595000045950000459500008D95000020
:100030008D9500004595000061B4000065B4000096
:100040008D9500008D9500008D9500008D95000028
:100050008D9500008D9500008D9500008D95000018
:100060008D9500008D9500008D9500008D95000008
:100070008D9500008D9500008D9500008D950000F8
:100080008D9500008D9500008D9500008D950000E8
:10009000FD7500008D9500008D9500008D95000088
:1000A0008D9500008D9500008D9500008D950000C8
:1000B0008D9500007D880000898800008D880000F3
:1000C000998800009D880000A18800008D9500009F
:1000D0008D9500008D9500008D9500008D95000098
:1000E0008D9500008D9500008D9500008D95000088
:1000F0008D9500008D9500008D95000051A40000A5
:100100008D9500004DC100008D9500008D9500007B
:100110008D9500008D9500008D9500008D95000057
:100120008D9500008D9500008D9500008D95000047
:100130008D9500008D9500008D9500008D95000037
:100140008D9500008D9500008D9500008D95000027
:100150008D9500008D9500008D9500008D95000017
:100160008D95000095A700008D9500008D950000ED
:100170008D9500008D9500008D9500008D950000F7
:100180008D9500008D9500008D9500008D950000E7
:100190008D9500008D9500008D9500008D950000D7
:1001A0008D9500008D9500008D9500008D950000C7
:1001B0008D9500008D9500008D950000564B4CF2FA
:1001C000205210B51A804DF628121A8000BF00BFC9
:1001D00009F0E0F9514B4FF010621A60504A9A60F2
:1001E000504ADA60504A136813F4807304D14F49BF
:1001F0000B604FF4A85313604D4B1A78110703D5C9
:100200001A7842F008021A704A4B4B492A221A7097
:100210004A4A4B4B8B4204D252F8040F43F8040B6A
:10022000F8E7484B484900228B4202D243F8042B9E
:10023000FAE74649464A002352F8230041F82300D2
:1002400001336F2BF8D1434B434A802103F8011B44
:100250009342FBD1414B3D4A1A60414B8A221A70AE
:10026000A3F5805324225A70A0221A709A7992071B
:10027000FCD59A79D406FCD43A4A937903F00C035E
:10028000082B384BF9D103221A7140225A719A79FE
:100290009006FCD5334A9179324B4906FBD5324A58
:1002A000324911600221516020221A709A7902F0BD
:1002B0000C020C2AFAD12E4B2E4A1A602E4B2F4AD2
:1002C0001A6000225A60072243F8042C2C4AC3F813
:1002D0000C2D62B609F094FC144B1B68DA0705D5A7
:1002E000284809F06FFA284B284A1A60284B1B78D7
:1002F0005B0609D5244C254B22689A4204D121483B
:1003000009F060FA0023236009F04AF90DF0F2FBCE
:100310000BF0BCFBFEE700BF0E2005403080044020
:10032000823F04000100002B10D0034014D0034092
:1003300002D0074000E007403894FF1F3837010023
:100340002087FF1F3894FF1FC0E1FF1F0082FF1F9F
:100350000000000000E400E05FE400E008ED00E0E1
:100360000050064000400640448004400000030165
:1003700004800440C010050014E000E0FF76010096
:1003800000002020C6F458631CE00340A5C3945A23
:1003900000F00740FFFFFFFFFFFFFFFFFFFFFFFF32
:1003A000FFFFFFFFFFFFFFFFFFFFFFFFFFFFFFFF5D
:1003B000FFFFFFFFFFFFFFFFFFFFFFFFFFFFFFFF4D
:1003C000FFFFFFFFFFFFFFFFFFFFFFFFFFFFFFFF3D
:1003D000FFFFFFFFFFFFFFFFFFFFFFFFFFFFFFFF2D
:1003E000FFFFFFFFFFFFFFFFFFFFFFFFFFFFFFFF1D
:1003F000FFFFFFFFFFFFFFFFFFFFFFFFFFFFFFFF0D
:10040000FFFFFFFFFFFFFFFFFFFFFFFFDEF9FFFF23
:1004100010B5054C237833B9044B13B10448AFF33E
:1004200000800123237010BD3894FF1F00000000DE
:1004300034370100084B10B51BB108490848AFF329
:1004400000800848036803B910BD074B002BFBD0A0
:10045000BDE81040184700BF000000003C94FF1F9B
:10046000343701003894FF1F00000000F0B400F1A1
:100470003C06174F00243146031F00F17C0243F86D
:10048000044FB34241F8047F4FF0000542F8044F97
:10049000F5D100230F4A1049C0F8C050C0F8C4502D
:1004A000C0F8C850C0F8CC50C0F8D050C0F8E050E8
:1004B000C0F8D420C0F8DC20C0F8D81080F8E830AC
:1004C00080F8E93080F80031C0F80C31F0BC70479A
:1004D0000000A040000048430000C8C22DE9F041E0
:1004E0008046CE1D00F1C00400F1D00716F8010FC0
:1004F00028380CF00DFF094944F8040F05460DF0AB
:1005000017F938B1B8F914010CF002FF29460CF0C4
:100510004BFE2060BC42E9D1BDE8F081000020C262
:100520002DE9F043814683B006290ED8DFE811F0AB
:100530004E00070063009600CB0000013800D9F898
:10054000081111B9002B00F02881D9F8004009F1F9
:100550004006C84609F18005002701E058F8044F1D
:10056000306821460DF0E4F80137214628B1D9F86A
:10057000E4000DF0C9F800B13460214628680DF0A0
:10058000B9F804369B4920B120460DF0D1F800B1EE
:100590002C60102F05F10405E0D103B0BDE8F08315
:1005A000D9F808110029D0D1002BCED1537A107A76
:1005B00003F03F0300EB03200CF0AAFE8E490CF081
:1005C000AFFFD9F80040C9F83C00C0E7557A117A6E
:1005D000937AD07AD9F8004001EB052101EB03436F
:1005E00003EB0063C9F80C31517B137B03EB012350
:1005F000C9F80831ABE7D9F808110029A5D1002BBB
:10060000A3D1537A107A019203F03F0300EB032049
:100610000CF07EFE78490CF083FF019AC9F80C00BB
:10062000D37A907A03F03F0300EB03200CF070FEC6
:1006300071490CF075FF019AC9F81000537B107BCB
:1006400003F03F0300EB03200CF062FE6A490CF05C
:1006500067FFD9F80040C9F8140078E7D9F8081105
:1006600000297FF472AF002B7FF46FAF537A107ABA
:10067000019203F03F0300EB03200CF049FE5E49BA
:100680000CF04EFF019AC9F81800D37A907A03F063
:100690003F0300EB03200CF03BFE57490CF040FFFA
:1006A000019AC9F81C00537B107B03F03F0300EB59
:1006B00003200CF02DFE50490CF032FFD9F8004019
:1006C000C9F8200043E7D9F8081100297FF43DAFAD
:1006D000002B7FF43AAF537A107A019203F03F0374
:1006E00000EB03200CF014FE43490CF019FF019AB3
:1006F000C9F82400D37A907A03F03F0300EB03207B
:100700000CF006FE3C490CF00BFF019AC9F82800DA
:10071000537B107B03F03F0300EB03200CF0F8FD4C
:1007200035490CF0FDFED9F80040C9F82C000EE761
:10073000D9F8081100297FF408AF002B7FF405AF2A
:10074000537A107A019203F03F0300EB03200CF080
:10075000DFFD29490CF0E4FE019AC9F83000D37A94
:10076000907A03F03F0300EB03200CF0D1FD224907
:100770000CF0D6FE019AC9F83400537B107B03F0CD
:100780003F0300EB03200CF0C3FD1B490CF0C8FE37
:10079000D9F80040C9F83800D9E6537A107A0192A6
:1007A00003F03F0300EB03200CF0B2FD12490CF004
:1007B000B7FE019AC9F80000D37A0446907A03F094
:1007C0003F0300EB03200CF0A3FD0B490CF0A8FE47
:1007D000019AC9F80400537B107B03F03F0300EB40
:1007E00003200CF095FD04490CF09AFEC9F80800AE
:1007F000ADE600BF0000A04000007A4490F8F00091
:10080000704700BF90F8EC00704700BF90F8F4000C
:10081000704700BF90F8F800704700BF102994BFE0
:1008200050F82100002070472DE9F0410B4E804622
:10083000041F00F12C0754F8045F314628460CF0E1
:1008400059FF30B1D8F8E41028460CF071FF00B120
:100850002E46BC42EFD13046BDE8F0810000204179
:100860002DE9F041D0F8E4704FF00008041F00F1CA
:100870003C0654F8045F394628460CF059FF0849F5
:1008800048B128460CF036FF414620B128460CF00E
:100890004FFF00B1A846B442EBD14046BDE8F0811D
:1008A0000000A0402DE9F047D0F8E47082464FF0F8
:1008B0000009041F00F13C064FF0000854F8045FE3
:1008C000394628460CF034FF0C4950B128460CF04C
:1008D00011FF30B1484629460CF066FC08F10108CA
:1008E0008146B442EAD1CAF8048140460CF010FDBA
:1008F000014648460CF014FEBDE8F0870000A04019
:10090000D0F80401704700BFD0F80801704700BF5D
:1009100038B5D0F8C850D0F8C440294620460CF06D
:10092000E9FE00B92C46204638BD00BF38B5D0F8E6
:10093000C850D0F8C440294620460CF0F9FE00B952
:100940002C46204638BD00BF70B5D0F8C4401249CF
:10095000054620460CF0ECFED0B1204600210CF0FC
:1009600023FC01240646D5F8C8500B4928460CF054
:10097000DFFE28B1304629460CF016FC013406464D
:1009800020460CF0C5FC014630460CF0C9FD70BD98
:1009900000260446E7E700BF000020C22DE9F84327
:1009A0004FF00008D0F8E470C0F8C0808146041F02
:1009B00000F13C0654F8045F394628460CF0B8FEB6
:1009C000084950B128460CF095FE30B14046294602
:1009D0000CF0EAFB8046C9F8C000B442EAD14046B8
:1009E000BDE8F8830000A04003299ABF00EB810016
:1009F000D0F8C400002070473E2998BF80F800114D
:100A0000704700BFD0F80C01704700BF90F8E800B5
:100A1000704700BF90F8E900704700BFC0F8FC10B5
:100A2000704700BF80F8E810704700BF80F8E910F9
:100A3000704700BFC0F8E410704700BFA0F8141161
:100A4000704700BF70B500F58A450646143500F1C1
:100A50002C04204604F58C74FFF708FDAC42F8D155
:100A600006F5A275012428460021FFF7DBFF214689
:100A700028460134FFF7C0FF3F2C05F58C75F2D1F5
:100A800044F21C5400250548054A064B3555002103
:100A90007061B161F2613362304670BD00007A442A
:100AA000000048430000C8C270B500F58A461436FD
:100AB00000F5A274002508E001252046002104F578
:100AC0008C74FFF7B3FFB4420AD02046FFF79EFFB5
:100AD0000028F2D02046FFF79DFF0028ECD170BD22
:100AE000284670BD70B500F5B0560C3600F5A274FE
:100AF00003E004F58C74B4420CD02046FFF786FF67
:100B000005460028F5D02046FFF77CFFC307F0D547
:100B1000284670BD0025284670BD00BF2DE9F04174
:100B200044F2205300F58A46374600228046C250E0
:100B30001436203700F5A27403E004F58C74B44237
:100B40000ED02046FFF762FF0028F6D020463D6811
:100B5000FFF7D6FE04F58C742844B4423860F0D117
:100B600044F2205358F80300BDE8F08144F21853D2
:100B7000C058704738B50C6804F00F044FF48C75FA
:100B8000013405FB04002C3015461A46FFF7A6FC7D
:100B9000012D00D038BD06480AF0DCFD214604488E
:100BA0000AF02CFE0B210348BDE838400AF032BBA6
:100BB000C489FF1F80190100F0B50D6805F00F040E
:100BC00005F0F005402D83B00F46064604F1010400
:100BD00046D01FDD602D3DD0702D37D0502D3BD03D
:100BE0000D2C01D8062D1DDD4FF48C7303FB04641E
:100BF0002C3420460121FFF715FF20460121FFF785
:100C000015FF337820463A46294603B0BDE8F04048
:100C1000FFF786BC202D21D0302D19D0002DDFD13B
:100C20000D2CE1D8012ADFD121460E4801920AF0AD
:100C3000E5FD019A0C4811460AF0ECFA29460948EC
:100C40000AF0DCFD07480AF085FDCDE70625E7E759
:100C50000225E5E70525E3E70425E1E70125DFE7D0
:100C60000325DDE7C489FF1F8C1901002DE9F0433E
:100C7000002383B00646436000F5A274012504E01A
:100C800001353F2D04F58C7466D02046FFF7BEFE7B
:100C90000028F5D04E4807F07BF829464D4807F06C
:100CA00077F82046FFF77AFE0BF0DCFE02460B4693
:100CB000494807F06DF82046FFF7B6FD804620460C
:100CC000FFF7CEFD074640460BF0CCFE8046384687
:100CD00089460BF0C7FE42464B46CDE900013F482E
:100CE00007F056F800212046FFF77EFE01218046DE
:100CF0002046FFF779FE074640460BF0B3FE8046DC
:100D0000384689460BF0AEFE42464B46CDE900011F
:100D1000334807F03DF82046FFF740FE0146706873
:100D20000CF042FA70602046FFF7F2FDF1690CF01A
:100D3000E1FC002833D12046FFF7F8FD316A0CF0C2
:100D4000F7FC00289CD02046FFF7F0FD01353F2D31
:100D5000306204F58C7498D1B0680CF0D9FA014671
:100D600070680CF0DDFBB169706004460CF0E0FCCB
:100D700000B1B461716920460CF0BCFC00B1746133
:100D80000B2008F0B9FE44F21C53F35C60B99BB130
:100D900044F21C530122F25403B0BDE8F083204614
:100DA000FFF7B6FDF061C6E753B944F21C530022C9
:100DB000F25403B0BDE8F0830A4807F017F8E7E7FC
:100DC000094806F0FDFF44F21C530022F254F0E7FC
:100DD0005820010090190100CC190100E019010010
:100DE0000C1A0100281A0100601A010070B5124B9C
:100DF000C36000F58A450646143500F5A27403E089
:100E000004F58C74AC4214D02046FFF7FFFD002897
:100E1000F6D02046FFF708FDF1680CF06BFC0028C7
:100E2000EED02046FFF700FD04F58C74AC42F06074
:100E3000EAD1F06870BD00BF0000A04070B500238B
:100E400000F58A4506460361143500F5A27403E0F7
:100E500004F58C74AC4214D02046FFF7D7FD00286F
:100E6000F6D02046FFF7FCFC31690CF061FC00284D
:100E7000EED02046FFF7F4FC04F58C74AC423061F0
:100E8000EAD1306970BD00BF40687047017070479B
:100E9000816070472DE9F04100F58A458846174684
:100EA0001EB2143500F5A27403E004F58C74AC4254
:100EB00014D02046FFF7AAFD0028F6D02046414670
:100EC000FFF7ACFD20463946FFF7B4FD204631461A
:100ED00004F58C74FFF7B2FDAC42EAD1BDE8F081B5
:100EE0002DE9F84344F2185300F58A450027C7500E
:100EF0002E462B4A2B4B826280464FF000094362FC
:100F00001435183600F5A27403E004F58C74A5427C
:100F100014D02046FFF77AFD0028F6D0336801335D
:100F200033602046FFF710FD1F490CF001FC90B91B
:100F300004F58C74A54207F10107EAD144F2185375
:100F400058F80300C01B0CF0E3F9014648460CF0CA
:100F5000E7FABDE8F8832046FFF7F6FC014648466D
:100F60000CF022F981462046FFF7E0FCD8F8241067
:100F70000CF0DEFB70B92046FFF7CAFCD8F8281049
:100F80000CF0B8FB0028C0D02046FFF7C1FCC8F821
:100F90002800BAE72046FFF7C9FCC8F82400EAE7B2
:100FA00000C0794400C079C400008CC2406A704718
:100FB000806A7047F8B500F58A4507460026143563
:100FC00000F5A27403E004F58C74AC4210D0204606
:100FD000FFF71CFD0028F6D02046FFF763FC014612
:100FE00030460CF0E1F804F58C74AC420646EED1C4
:100FF00044F21853F8580CF08BF9014630460CF0C7
:101000008FFAF8BD2DE9F04F06468FB086488B4623
:1010100006F066FE844806F063FE834806F060FE34
:1010200044F218533046F2580D92FFF777FDB3683B
:101030000C93074670680BF015FD804630468946D4
:10104000FFF7B8FF82463046F4683569FFF748FF7E
:101050000BF008FDCDE90A01214628460CF0A2F864
:1010600072490CF0A9F90BF0FDFCCDE90801284606
:101070000BF0F8FCCDE9060120460BF0F3FCCDE9BE
:10108000040150460BF0EEFC0D9A0C9BCDE90201D9
:10109000CDE90089114666483A4606F021FE6248CD
:1010A00006F01EFE06F5A2764FF001094FF0000A89
:1010B00007E009F10109B9F13F0F06F58C7600F060
:1010C000AB803046FFF7A2FC0028F2D03046FFF795
:1010D00095FB3046FFF796FB3046FFF797FB30460F
:1010E000FFF798FB082153480AF094F84946524804
:1010F0000AF084FBB9F1090F40F3918002214F48B7
:101100000AF088F83046FFF749FC0BF0ABFC5FFAB9
:101110008BF802460B46CDF8008047480AF078FB72
:10112000012147480AF076F85546002420E00621C0
:1011300044480AF06FF829463F480AF05FFB022155
:1011400041480AF067F821463046FFF767FB0BF08D
:1011500089FCCDF8008002460B4637480AF058FB60
:101160000134012136480AF055F8102C09D03D46CB
:10117000092D05F10107DADC012134480AF04AF8AB
:10118000D5E72D480AF0E6FA092131480AF042F87D
:1011900000213046FFF728FC0BF064FC02250246D4
:1011A0000B46009524480AF033FB0A2129480AF02F
:1011B00031F801213046FFF717FC0BF053FC009586
:1011C00002460B461C480AF023FB0C2122480AF079
:1011D00021F83046FFF716FC002322460146164848
:1011E0000AF0CCFA08211D480AF014F83046FFF73F
:1011F0008BFB2246014600230F480AF0BFFA09F193
:1012000001090D480AF0A6FAB9F13F0F0AF1100AD8
:1012100006F58C767FF455AF0FB0BDE8F08F012155
:101220000A4809F0F7FF69E75820010000007A44F6
:10123000101D0100B01D0100C489FF1FFC21010029
:10124000BC1D0100C01D0100201E0100301E010058
:10125000C81D0100D41D0100E01D0100F01D0100AA
:101260002DE9F04F85B000F5A2758A4603929B46A2
:101270002E464FF0010806E008F10108B8F13F0FD3
:1012800006F58C767BD03046FFF7C0FB0028F3D004
:1012900000230A2251467D480AF070FA01217C4859
:1012A00009F0B8FF03980BF0DDFB00230246009322
:1012B00076480B460AF0ACFA0121754809F0AAFFFE
:1012C000594672480AF09AFA0121714809F0A2FFC2
:1012D00041466E480AF092FA01216D4809F09AFFE2
:1012E00000244FF0020921463046FFF797FA0BF031
:1012F000B9FBCDF8009002460B4664480AF088FA24
:1013000001340121624809F085FF082C4FF00207E3
:10131000E9D100213046FFF767FB0BF0A3FB0097F4
:1013200002460B4659480AF073FA0121584809F061
:1013300071FF01213046FFF757FB0BF093FB00973D
:1013400002460B4651480AF063FA0121504809F061
:1013500061FF39463046FFF747FB0BF083FB0097F0
:1013600002460B4649480AF053FA08F1010847487B
:101370000AF0F0F9B8F13F0F06F58C7683D101271A
:101380004FF0000904E001373F2F05F58C7579D047
:101390002846FFF73BFB0028F5D000230A225146E0
:1013A0003C480AF0EBF90121394808F0FDFE0398AA
:1013B0000BF058FBCDF8009002460B4635480AF07A
:1013C00027FA0121324808F0EFFE594631480AF069
:1013D00015FA01212E4808F0E7FE39462D480AF09B
:1013E0000DFA01212A4808F0DFFE00244FF0020820
:1013F00021462846FFF712FA0BF034FBCDF80080A7
:1014000002460B4623480AF003FA01340121204822
:1014100008F0CAFE082C4FF00206E9D10021284648
:10142000FFF7E2FA0BF01EFB009602460B46194846
:101430000AF0EEF90121164808F0B6FE012128460F
:10144000FFF7D2FA0BF00EFB009602460B4611484E
:101450000AF0DEF901210E4808F0A6FE31462846C2
:10146000FFF7C2FA0BF0FEFA009602460B46094857
:101470000AF0CEF9013707480AF06CF93F2F05F55D
:101480008C7585D105B0BDE8F08F00BFC489FF1F02
:101490008C1901009889FF1F70B5132008F02CFBF0
:1014A000A8B1114E114B35881C6808F039FBADB25C
:1014B0002C44201A33880E4AC0EB00108000A0F69E
:1014C00034009BB2B0FBF3F39BB2138070BD074CAA
:1014D00008F026FB2368044AC01A80B2108008F086
:1014E0001FFB206070BD00BFECDCFF1F60DDFF1F35
:1014F00070DDFF1F0A4A0B49106ED36D03FB00F32A
:101500004FF47A7000FB03F0642310B50B600BF00E
:10151000FFFE0549054C0CF003F8206010BD00BF2C
:1015200000DCFF1F0C88FF1FE4388E3E4CDDFF1FE0
:1015300010B4019C521AA4EB030412D0401A002CE0
:1015400004FB00F002EBD27111DB00EB610101FB47
:1015500002F0002891FBF2F10B4414DB184610BC9A
:10156000704704EBD47003EB600010BC7047A0EB35
:10157000610000FB02F1002990FBF2F01844EEDB61
:10158000013010BC7047581E10BC704738B5044677
:1015900008460D460DF094F82368024629465B681C
:1015A00020469847054620460AF0D4F8284438BD1E
:1015B000F8B54C484C4D4D4E4D4F4E4C06F090FBFF
:1015C0004D4B4E494E4A596011214E481970DD600D
:1015D0004D491A6100254FF4FA729E619F624B4E8D
:1015E0004B4FDC614FF07C54D862196349484A493B
:1015F0009D639A863C250C22DE631F64474E484F4C
:10160000DC6496241865596502200121A3F8B050C6
:101610009A65444D5E6200226426C3F8D070A3F838
:1016200068404FF496773224587058721972D96511
:101630001D625D615D6483F848201E661F675F66FA
:1016400041F20405DC66C3F88420C3F88800C3F8BF
:101650008C10C3F89020C3F89840C3F8B840C3F882
:10166000B4205A24C3F8C010C3F8C40083F8D410BF
:101670004FF47A7083F8D51083F8D6202A49A3F85E
:10168000D8202A4AC3F8C86040F61C4C4FF00A0E16
:1016900044F62067FF26DD67C3F880405525F02417
:1016A000C3F89C00C3F8A010052041F28831C3F8AC
:1016B000A42040F2D662C3F874C0C3F878E0C3F83F
:1016C000A870C3F8BC60C3F8DC50C3F8E040A3F8CE
:1016D000CE00C3F89410A3F8CC10A3F8AC20A3F864
:1016E000AE20F8BDFC1D01006666864033338340A2
:1016F000CDCCCC3DCDCC4C4000DCFF1F20A1070061
:101700000000404000008242000020C10000204252
:101710000000A0409A9979400AD7233D33337340A3
:101720009A99993ECDCC4C3E0000684200C02044BE
:1017300070B5464C464D4748E66800232B70FFF7CE
:101740007DFB014630460BF0D5FF08B104232B701A
:101750004048FFF74BFB21690BF0CCFF18B12B7809
:1017600043F010032B703B48FFF720FCE16A0BF0BD
:10177000DFFF18B12B7843F040032B70002335486E
:101780006B70FFF715FC216B314E0BF0B3FF08B106
:101790000123737000232F48EB70FFF74FFB0546C2
:1017A0002C482B4EFFF722FB014628460BF0FAFC93
:1017B000616C0BF0BDFF08B10123F370264D254885
:1017C00000232B70FFF73AFBA16A0646E0680BF096
:1017D000E9FC014630460BF0ABFF08B104232B7047
:1017E0001C48FFF703FBA16A064620690BF0DCFCEE
:1017F000014630460BF07EFF18B12B7843F0100302
:101800002B701448FFF7D2FB216C0646E06A0BF000
:10181000C9FC014630460BF08BFF18B12B7843F022
:1018200040032B7000230B486B70FFF7C1FB216C4A
:101830000546206B084C0BF0B7FC014628460BF020
:1018400059FF08B10123637070BD00BF00DCFF1FAA
:10185000E0DBFF1F0C96FF1F5894FF1F544B1B68C3
:10186000002B74D0F0B5534D2B680533B3F57A7F58
:1018700083B040F38580002300272B604E4CD4F8C2
:10188000B8000BF045FD0646D4F8BC000BF040FD57
:1018900031460BF087FC39460BF08EFD47490BF0C3
:1018A0003FFE31460BF080FC0BF04CFF014606205A
:1018B00007F09CFF0221424809F0ACFC414809F0C6
:1018C00049FF0621404809F0A5FC28680BF020FDDF
:1018D0003E490BF071FD0BF0C5F8022602460B469F
:1018E0000096384809F094FF0D21394809F092FC20
:1018F000D4F8B8000BF00CFD074628680BF008FD83
:1019000032490BF059FD0546D4F8BC000BF000FD40
:1019100039460BF047FC014628460BF04DFD2749A0
:101920000BF0FEFD39460BF03FFC0BF09BF80096E8
:1019300002460B46234809F06BFF3146204809F068
:1019400069FC204803B0BDE8F04009F003BF1A4B22
:101950002048D3F8B820D3F8BC100368891A0029AE
:1019600003FB01F31C4914DB323381FB0310D9174D
:10197000C1EB6011002B114416DB062007F036BFC7
:1019800018462B600BF0C4FC10490BF015FD074600
:1019900074E7323B81FB0310D917C1EB6011002BB8
:1019A0000A4403DB511CE8E70139E6E71146E4E7A6
:1019B0008894FF1FE4DCFF1F00DCFF1F0000C8420B
:1019C000FC210100C489FF1F1C1E0100CDCCCC3DB1
:1019D000241E01000C88FF1F1F85EB5170B5B44811
:1019E000B44C84B009F0B6FEB14809F0B3FEB0487B
:1019F00009F0B0FE0D21B04809F00CFCD4F8B43069
:101A0000012B11D0AD4DAA48297800230A2209F0F4
:101A1000B5FE2B78052B69D8DFE813F0A601AB01E2
:101A2000B001B501BA01BF010921A54809F0F2FBD7
:101A3000A448FFF7DBF921690BF05CFE18B10F2118
:101A4000A14809F0E7FB9F48FFF7F8F9E1680BF0C0
:101A50006FFE18B10E219D4809F0DCFB9948FFF795
:101A6000EDF905469748FFF7C1F9014628460BF006
:101A700099FB616C0BF05CFE18B11121944809F0E0
:101A8000C9FB9048FFF72CFAE16A0BF051FE18B140
:101A90000C21904809F0BEFB8A48FFF721FA216B20
:101AA0000BF028FE18B10D218B4809F0B3FB8B4BCE
:101AB00084481B68012B00F0A581FFF797F9216985
:101AC0007C4D0BF035FE002800F04C817D48FFF77F
:101AD000B5F9E968794D0BF00DFE38B12B78052B7F
:101AE00000F0A78108217E4809F094FB02217D487F
:101AF00009F090FB122007F0FFFF012800F07D8124
:101B0000112007F0F9FF012800F04C81764B1C688A
:101B1000012C00F0508102217248744C09F07AFBCC
:101B2000734B6348196809F069FE614809F012FEB9
:101B30000421704809F06EFB0B2007F0DDFF002345
:101B400001460A225A4809F019FE0C2007F0D4FF7A
:101B5000002301460A22564809F010FE142007F01F
:101B6000CBFF002301460A22514809F007FE152049
:101B700007F0C2FF0A22002301464D4809F0FEFD8E
:101B800006215D4809F046FB2368DE074FF001019E
:101B90004CBF5A485A4809F03DFB236898074FF05C
:101BA00001014CBF5548564809F034FB23685A07D9
:101BB0004FF001014CBF5148514809F02BFB2368FD
:101BC0001B074CBF4D484E48012109F023FB04215F
:101BD0004C4809F01FFB112007F08EFF002301463F
:101BE0000A22334809F0CAFD102007F085FF0023C0
:101BF00001460A222E4809F0C1FD122007F07CFFA1
:101C0000002301460A222A4809F0B8FD132007F0F4
:101C100073FF0A2200230146254809F0AFFD182171
:101C2000394809F0F7FA394B18880BF071FB38493D
:101C30000BF0C2FB0AF016FF002402460B4600948C
:101C40001B4809F0E5FD1D21324809F0E3FA324B4B
:101C500018680BF05DFB2E490BF0AEFB0AF002FF9B
:101C600000940B46024612482C4C09F0D1FD02218B
:101C70002B4809F0CFFA2B78032B02D023889BB294
:101C80009BB11721274809F0C5FA2188084889B275
:101C900009F0B4FD0221224809F0BCFA2B78032B8D
:101CA00003D1214B1B78002B40D104B070BD00BF85
:101CB000C489FF1F00DCFF1F341E01008C94FF1F2E
:101CC000441E01000C96FF1F501E0100601E010003
:101CD000701E0100841E0100941E01009894FF1FD5
:101CE000C81E0100FC21010004DDFF1F74DDFF1F81
:101CF0006494FF1F401F0100481F0100501F010096
:101D0000D0300100541F01005C1F01008494FF1FAC
:101D1000CDCCCC3D781F010068DDFF1F70DDFF1FBB
:101D2000981F0100F81F010048DBFF1F0B214348EB
:101D300009F070FA424B4348198889B209F05EFDF8
:101D40001121414809F066FA404B3E48198809F0D4
:101D500055FD3F4B1B78002B64D01D213D4809F0F9
:101D600059FAA2E73C4DC1E606213C4809F052FA77
:101D7000BCE607213A4809F04DFAB7E60721394891
:101D800009F048FAB2E60821374809F043FAADE60F
:101D90000B21364809F03EFAA8E60721344809F03D
:101DA00039FAA3E60A21334809F034FA324B1C68A9
:101DB000012C7FF4B0AE1121304809F02BFA2146F6
:101DC0002F4809F027FA2F4B2F4A1B680393039BD8
:101DD0001068C01A0BF098FA2C490BF0EDFA0AF0D3
:101DE00041FE002602460B460096164809F010FDFB
:101DF0002146234809F00EFA8DE60E21244809F009
:101E000009FA7DE6FEF7F2FF616A0BF091FC70B112
:101E100016212048104D09F0FDF90A211E4809F04D
:101E2000F9F963E619211D4809F0F4F93DE70A4D77
:101E300058E60A21184809F0EDF957E69C1F010001
:101E4000ECDCFF1FC489FF1FA81F010056DDFF1F28
:101E5000FC94FF1FD81F01008C94FF1FD41E0100AB
:101E6000DC1E0100F01E0100F81E0100E41E01004E
:101E7000041F01001C1F010004DDFF1F281F0100BB
:101E80003C1F010048DFFF1F3CDDFF1F6F12833A3C
:101E90000C1F0100A41E0100BC1E0100BC1F01009C
:101EA0002DE9F04FAB4CD4F88860012E8DB000F0D6
:101EB0007981032E00F0CD80DFF8DC82A64FA74E9B
:101EC000D4F88430A648012B09BF3168316801F18C
:101ED0000041316007F090F83B68002B40F09F8094
:101EE0009F48DFF8B49207F05DF83B68C8F800003F
:101EF0000546002B44D1D4F88830964A012B53D0A4
:101F0000984928460BF014FCC0B9974928460BF0B5
:101F1000F1FB98B9954A964B12680B920B9A1A608E
:101F2000D4F8C0000BF0F4F929460BF045FA002371
:101F3000C8F8000033600DB0BDE8F08FDFF82CA2C8
:101F40008B4FDAF800300A930A983B68DFF84C921E
:101F5000C01A0BF0D9F929460BF02EFA85490BF07F
:101F6000DFFA84490BF0DCFAD9F800100BF01CF909
:101F7000DAF800300993099BC9F800003B60CFE70D
:101F80000AF070FD022502460B4600957A4809F0DA
:101F90003FFC0421794809F03DF9D4F88830D9F89C
:101FA00000506C4A012BABD1754B1B68012B00F024
:101FB000D981022BB4D1D2F8A87038460BF0A8F919
:101FC00029460BF097FB40B978420BF0A1F929465E
:101FD0000BF0AEFB002800F0F881DFF890A1644F11
:101FE000DAF80030079307983B68DFF8B091C01A21
:101FF0000BF08AF929460BF0DFF95E490BF090FAF5
:102000005C490BF08DFAD9F800100BF0CDF8DAF836
:1020100000300693069BC9F800003B6080E75048FB
:1020200006F0C0FF0AF01EFD022502460B46009591
:10203000514809F0EDFB0321524809F0EBF8D4F8C0
:10204000A8104D4809F0DAFB03214E4809F0E2F8E8
:1020500046E74D4D4A4F2B68DFF83C81D3F88400AA
:102060000F2101233B6006F055FF3B683A4F012BDF
:102070003B6800F0BE80002B40F03C812B68DFF80D
:102080002091D3F88400436B19698EB2C9F80060BF
:1020900006F0C2FCB4F8AE2040F6E44303FB06F1C0
:1020A000B1FBF0F0801A00B20BF032F937492B4E39
:1020B0008246D4F8A0000BF07FF9014650460BF0A1
:1020C0002FFAD9F800303060632BDFF8D4A000F38A
:1020D0000581002333603B68002B3FF4F1AE022101
:1020E0002B4809F097F82B68D9F80050D3F88400F2
:1020F00040F6E44303FB05F506F08EFCB5FBF0F07B
:102100000BF002F90546B4F8AE000BF001F90146F8
:1021100028460BF047F80AF0A5FC022502460B46BC
:102120000095154809F074FB2946194809F072F822
:1021300030680AF097FC009502460B460E4809F0FD
:1021400067FB2946134809F065F82946104809F04D
:1021500061F8B5E600DCFF1F30DDFF1F64DDFF1F07
:102160000CDDFF1F0000FA430000FAC348DFFF1F29
:10217000DCDBFF1F00007A44C489FF1F54200100EC
:102180002488FF1F5020010084DDFF1F9175DD367C
:10219000FC2101004C200100E4DBFF1F4CDDFF1F90
:1021A0008CDDFF1FDFF80883D4F8A870D8F8005042
:1021B00038460BF0ADF829460BF0BAFA48B1784230
:1021C0000BF0A6F8014628460BF0B2FA002840F0C2
:1021D0000381A54DA54F2A680223D2F884003B60F5
:1021E0000E2106F097FE3B68A14F012B3B687FF460
:1021F00042AF002B40F0FA802B68DFF8B892D3F89A
:102200008400436B19691FFA81FBC9F800B006F01E
:1022100003FCB4F8AC30974E40F6E44A0AFB0BFBE3
:10222000BBFBF0F0C01A00B20BF072F89249834683
:10223000D4F8A4000BF0C0F8014658460BF070F932
:102240002A68D9F800303060D2F884000AFB03FA1B
:1022500006F0E2FBB4F8AC30BAFBF0F00FFA80FA0B
:10226000C3EB0A03002BB4F8CE20B8BF5B42934205
:10227000BCBF002333603B68002B3FF421AE02213A
:102280007E4808F0C7FF2B68D9F80050D3F88400C7
:1022900040F6E44303FB05F506F0BEFBB4F8AC10D2
:1022A000B5FBF0F000B2411A754809F0A7FA022117
:1022B000724808F0AFFF30680AF0D4FB02250246EE
:1022C0000B4600956E4809F0A3FA03216D4808F00B
:1022D000A1FF2946694808F09DFFF1E52B68D3F876
:1022E000840006F099FBDAF8003064389842FFF475
:1022F000F0AEF0E66248DFF8BC91DFF86CA109F0BF
:1023000029FA0C21604808F085FF0C215F4808F08D
:1023100081FF2A683B68D2F88400426B11698EB253
:10232000C9F80060002B3FF4B3AE06F075FB40F631
:10233000E44100230A2201FB06F1B1FBF0F1504811
:1023400009F01CFA02214D4808F064FFB4F8AE1001
:102350004B4809F053FADAF80030D9F80060D3F8A6
:10236000840095E64A4928460BF0E2F958B94949F4
:1023700028460BF0BFF930B9474A484B126805921E
:10238000059A1A60CCE5DFF810A1444FDAF8003066
:10239000049304983B68DFF82091C01A0AF0B4FF58
:1023A00029460BF009F83E490BF0BAF83C490BF00E
:1023B000B7F8D9F800100AF0F7FEDAF80030039306
:1023C000039BC9F800003B60AAE5334A334B12680F
:1023D0000892089A1A60A3E5234D244F2B683E60AB
:1023E000D3F884000F2106F095FD3EE62448DFF87F
:1023F000C4901D4E09F0AEF9D4F88830012B4FF08F
:102400000B010CBF2748284808F004FF0C211F4887
:1024100008F000FF2A683B68D2F88400426B11691B
:102420001FFA81FBC9F800B0002B3FF4F0AE06F0B4
:10243000F3FA40F6E44100230A2201FB0BF1B1FB61
:10244000F0F10F4809F09AF90121184808F0E2FE6E
:10245000B4F8AC100A4809F0D1F93368D9F800B0E3
:10246000D3F88400D3E600BF84DDFF1F2488FF1F5C
:1024700030DDFF1F64DDFF1F9175DD36FC2101009B
:10248000C489FF1F382001003C20010028200100E2
:102490000000FA430000FAC348DFFF1FDCDBFF1F28
:1024A00000007A44102001001C200100301E0100B1
:1024B000E4DBFF1F8CDDFF1F4CDDFF1F2DE9F04F1C
:1024C000944C236885B01BB9934B1B68002B7BD0C1
:1024D000924EDFF85482924FDFF89092D6F8903007
:1024E0008E4D012B00F08C802C6ED7F800A0ED6D86
:1024F00004FB05F44FF47A7000FB04F00AF008FFC7
:102500008849894D044650460AF056FF21460BF093
:1025100007F886490AF050FF0BF014F96328C8F851
:1025200000004CDD20467F490AF0FAFF6423386042
:102530002B60D9F80030002B3ED0D6F88830774C8D
:10254000012B00F08480032B00F0D880022B00F0D8
:10255000DC800221764808F05DFE764B18680AF0B0
:1025600081FA022402460B460094734809F050F9A0
:102570002146724808F04EFE21466D4808F04AFE9A
:10258000D8F800106C4809F039F906216C4808F0B9
:1025900041FE386863490AF00FFF0AF063FA0094BD
:1025A00002460B46644809F033F90321654808F0F8
:1025B00031FE614809F0CEF805B0BDE8F08F002883
:1025C000BCBF00232B60B4E75F4D544E2B680293D1
:1025D000029A42F228339A4200F287802B680393D2
:1025E000039A42F210739A423ED8D6F89030DFF840
:1025F00038814B4FDFF87491484D012B7FF474AF55
:102600005248FEF7F3FB5249D5F87CA06C6FD5F821
:1026100078B00AF0D1FE0BF0BBF8D5F8803000930B
:10262000524621465B4680B2FEF782FF2C6EED6D6E
:1026300004FB00F005FB00F000EB800040000AF016
:1026400067FE38490AF06CFF8246386050E7414B1C
:102650001B68012B4FF00A010CBF3F483F4808F0B0
:10266000D9FDD4F888306EE73848DFF8BC80FEF733
:10267000BDFB3749D6F87890F76F756F0AF09CFE6E
:102680000BF086F8D6F8803000933A464B46294640
:1026900080B2FEF74DFF326EF36DC8F8000002FB0A
:1026A00000F003FB00F000EB800040000AF030FE79
:1026B000DFF8B8901B491A4F0AF032FFD9F8003002
:1026C000386001222260002B3FF408AF0221184835
:1026D00008F0A0FD184809F03DF85921204808F0FD
:1026E00099FD154809F036F8F8E61848B6F9D830DB
:1026F000F26C96F84810FEF7CDFB6FE710211948F1
:1027000008F088FDD6F8883020E70721164808F041
:1027100081FD1EE7F8DCFF1F80DDFF1F00DCFF1FCF
:102720004CDDFF1FE4388E3E0C88FF1F0000C842BE
:10273000FC210100E4DBFF1FC489FF1F4C200100C6
:10274000EC200100F420010048DFFF1F0C96FF1F62
:1027500000007A442488FF1FB8200100C420010033
:102760005C200100D0200100E42001000088FF1F50
:1027700030B5112083B007F0BFF9012818D012201E
:1027800007F0BAF9012813D000210B2007F0AEF9A9
:1027900000210C2007F0AAF90021152007F0A6F966
:1027A0002649274B0120002208701A6003B030BD73
:1027B0000121152007F09AF9224A234C234B126875
:1027C000D4F8941001921B68019A1D4D0B4493425A
:1027D0004FF00201296005D901210C2007F086F98C
:1027E00003B030BDD4F89C000AF092FD184B196874
:1027F0000AF080FF0028EFD101210B2007F076F9C5
:1028000094F8D43003242C6043B10C4B02221A708C
:1028100000210C2007F06AF903B030BD122007F048
:102820006BF9012808BF054B4FF0110008BF1C7061
:1028300007F062F90128EBD1E7E700BF8C94FF1F96
:102840000895FF1F48DFFF1F00DCFF1F44DBFF1F51
:10285000E4DBFF1FF0B5684E684D34682B689C427E
:1028600087B039D014F0010155D014F0020149D0DD
:1028700014F004013DD0E3070ED52B68DF070BD41D
:102880005F4F3A68002A00F082805E4B1B6801931C
:10289000019B93426DD83468A0070DD52B6899072A
:1028A0000AD4594F3A68002A4CD0564B1B68039300
:1028B000039B934238D8346862070DD52B685B07B9
:1028C0000BD4524F3A68002A7ED04E4B1B680593BA
:1028D000059B934268D834680CB107B0F0BD21461F
:1028E000162006F083FF2146172006F07FFF07B071
:1028F000F0BD052006F07AFF2B68346803F0FB0377
:102900002B60B8E7172006F071FF2B68346803F0DE
:10291000FD032B60ACE7162006F068FF2B683468D7
:1029200003F0FE032B60A0E7394B1720D3F8981073
:1029300006F05CFF2B68346843F0020300222B6032
:102940003A60B9E7334808F005FF0C21324808F037
:1029500061FC304808F0FEFEFF21172006F046FF1C
:10296000284B2E4A19680291029912680A443A606B
:102970009CE7274B1620D3F8981006F037FF2B68FA
:10298000346843F0010300222B603A6084E7FF21A2
:10299000162006F02BFF1B4B204A19680091009966
:1029A00012680A443A6071E7194B0520D3F8981071
:1029B00006F01CFF2B68346843F0040300222B60F0
:1029C0003A60002C89D18AE7124808F0C3FE0C2136
:1029D000134808F01FFC0F4808F0BCFEFF2105203B
:1029E00006F004FF074B0D4A196804910499126818
:1029F0000A443A606AE700BF0895FF1F74DDFF1FB5
:102A0000E8DCFF1F48DFFF1FFCDCFF1F00DDFF1FAE
:102A100000DCFF1FC489FF1FF82001001488FF1F7E
:102A2000082101002DE9F047534EDFF8708133682B
:102A3000DFF86C91D3F88400504D0F2106F06AFA4C
:102A40000023012222214E48C8F80030C9F8002096
:102A500008F0E0FBD8F80030132B20DC40F6E44708
:102A60003368B5F8ACA0D3F88400436B1C6905F05B
:102A7000D3FFA4B2012107FB04F4B4FBF0F44148F6
:102A80005444A5F8AC4008F0C5FB642007F06AF890
:102A9000D8F800300133132BC8F80030E0DDB5F86A
:102AA000AC30394A3948A2FB03129B1A02EB53039C
:102AB000C3F30F131946A5F8AC3008F09FFE1D2193
:102AC000334808F0A7FB0221324808F0A3FB2F4847
:102AD00008F040FE00231A460E213068C8F8003086
:102AE00005F014FF022322212548C9F8003008F020
:102AF00091FBD8F80030132B20DC40F6E447336814
:102B0000B5F8AE90D3F88400436B1C6905F084FFE0
:102B1000A4B2012107FB04F4B4FBF0F419484C44BF
:102B2000A5F8AE4008F076FB642007F01BF8D8F853
:102B300000300133132BC8F80030E0DDB5F8AE30BB
:102B4000114A1248A2FB03129B1A02EB5303C3F370
:102B50000F131946A5F8AE3008F050FE1D210E489F
:102B600008F058FB02210B4808F054FB0748BDE869
:102B7000F04708F0EFBD00BF84DDFF1F00DCFF1F42
:102B8000182101005C21010087611886C489FF1F9C
:102B90003C210100FC210100602101006C94FF1F19
:102BA0002488FF1F2DE9F047C64DD5F8C430062B09
:102BB00000F0AE81C44BC54C1B68A86D40F251318A
:102BC00008222160E271002B00F077810AF0A0FB5F
:102BD000696A06460AF0F0FBBD49BA4F0AF0ECFB01
:102BE0000AF0D6FD80B203126372BA4ABA4B126879
:102BF0001B88E9692072A37230461B121612E37219
:102C0000227366730AF0D8FBB149B04E0AF0D4FBC8
:102C10000AF0BEFD83B21A123146B048A373E273C4
:102C200005F0CCFCAE4AAF4B12681988A172D3B242
:102C3000237203EB83035B00237302EB820343F3F2
:102C4000D7134FEA212E12124FF008084FF0000957
:102C500031466373A14884F80BE040F25533627249
:102C6000236084F8078084F80E9084F80F9005F0B4
:102C7000A5FC40F256339C48236084F80780FEF799
:102C800003F99A490AF098FB0AF082FD20729648EF
:102C9000FEF7FAF895490AF08FFB0AF079FD944A9D
:102CA0009249C0F30723106863720AF039FC0AF0F6
:102CB00049FD40FA08F3A0728B48E372FEF710F961
:102CC00083490AF079FB0AF03DFD20738648FEF740
:102CD00007F97F490AF070FB0AF034FD40F3072042
:102CE000314660737D4884F80E9084F80F9005F0AB
:102CF00065FC022006F036FF7E4A7F4B1178217278
:102D0000517890786172D178A0721A789878E172CF
:102D1000597822736173DA78A07340F25A333146DE
:102D20006E48E273236084F8078005F047FC734B1C
:102D30006A481A7822725A7862729A78A272DA789D
:102D4000E2721A7922735A7962739A79DB79E373A2
:102D5000314640F25E33A273236084F8078005F0A9
:102D60002DFC022006F0FEFE654B5C481A782272AC
:102D70005A7862729A78A272DA78E2721A792273B9
:102D80005A7962739A79DB79E37331464FF45C7355
:102D9000236084F80780A27305F010FC594B1B6870
:102DA000012B00F06F82022006F0DCFE082640F2C4
:102DB00073334D482360E671FEF718F852490AF064
:102DC000FBFA0AF0E5FC20724748FEF70FF84E497F
:102DD0000AF0F2FA0AF0DCFCC0F3072342486372FF
:102DE000FEF72CF848490AF0E7FA0AF0D1FCA07285
:102DF0003D48FEF723F844490AF0DEFA0AF0C8FC21
:102E0000C0F307233848E372FEF7D2F83F490AF0CF
:102E1000CBF90AF0BDFC20733348FEF7C9F83B49F3
:102E20000AF0C2F90AF0B4FCC0F307232E4863731A
:102E3000FEF7BCF835490AF0B7F90AF0A9FCA0730F
:102E40002948FEF7B3F831490AF0AEF90AF0A0FCC0
:102E50001E49C0F307232148E37305F0AFFB0220AE
:102E600006F080FEE96D2B6E022211FB03F3104683
:102E700040F27931C3F30725E27121602372657254
:102E800006F070FE40F2723317482360E671FDF7DA
:102E90006DFE20721448FDF769FE002340FA06F229
:102EA0006272A372E37223736373A373E3730749BC
:102EB0000A48BDE8F04705F081BB0AF029FAA96984
:102EC000064687E600DCFF1F9894FF1F7094FF1FE3
:102ED0000000204168DDFF1F8494FF1FA0DDFF1F5D
:102EE0000C88FF1F1088FF1F0C96FF1F0000C842B0
:102EF000E4DBFF1FE0DBFF1F5894FF1F3488FF1F38
:102F00003C88FF1F04DDFF1F00007A443393884391
:102F1000CD4CCE48002608274FF4C36321464FF01E
:102F200059094FF044084FF0420A236084F80A9090
:102F300084F80B80E771267226736673A673E673B6
:102F400084F809A005F03AFB022006F00BFE4FF4CE
:102F5000BB632146BD48236084F80A9084F80B8047
:102F6000E771267284F809A026736673A673E67368
:102F700005F024FB022006F0F5FDE96D2A6ED5F878
:102F800058E0B248E77101FB02F312FB01F203EBD8
:102F9000C30103EB810302EBC2010EFB03F302EB5F
:102FA00081024FF4AB68032112FB0EF24FF0050CC7
:102FB0003B414FF0070EC4F8008021724FF0120918
:102FC00021464FF0040884F80EC02373627384F81E
:102FD0000FE0A67284F8099084F80B8005F0EEFAF1
:102FE000022006F0BFFD34224F234FF4B36E21467A
:102FF0009648E272E373C4F800E0E77126726672E5
:1030000084F80A902673667384F80E8005F0D6FA69
:10301000022006F0A7FD8E4BE7711B68A86D4FF4E8
:1030200056722260002B40F065810AF071F9A9699F
:1030300006460AF0C1F987490AF0BEF90AF0A8FB72
:1030400080B240FA07F360722372E96930460AF0F1
:10305000B3F980490AF0B0F90AF09AFB7E4B7F4A37
:103060001B6812887849637385B216121B122F12DF
:1030700076482373E273E572A772A67305F09EFA91
:10308000022006F06FFD764A764B16681D88764B57
:1030900076491868E57206EB8603642202FB06F2A5
:1030A00003EB83039B0012122E124FF47677082550
:1030B00063722272A6722760E5710AF07DF90AF048
:1030C00067FB83B243FA05F70026F9225E495F48A1
:1030D0006373A2732773E67305F070FA022006F09B
:1030E00041FD4FF48B604FF0120E56227823564963
:1030F00020603427554884F80AE0A273E373E57131
:103100002672667226736673E77205F057FA02201C
:1031100006F028FD4FF4A36355482360E571FDF7E1
:1031200045FF4C490AF048F90AF032FBC0F3072387
:103130004F482372FDF73AFF46490AF03DF90AF07D
:1031400027FB60724A48FDF733FF42490AF034F921
:103150000AF01EFBC0F307234548A372FDF728FFC2
:103160003C490AF029F90AF013FBFF233649E072C3
:10317000364823736373A373E37305F01FFA0220C9
:1031800006F0F0FC4FF49B6339482360E571FDF7CE
:103190007BFE30490AF010F90AF0FAFAC0F307236F
:1031A00033482372FDF770FE2A490AF005F90AF048
:1031B000EFFA304B3049607218680AF0B1F90AF042
:1031C000C1FA40FA05F203462948A272E372FDF7FC
:1031D00087FE20490AF0F0F80AF0B4FA40F307231A
:1031E00023482373FDF77CFE1A490AF0E5F80AF03C
:1031F000A9FA0323607314491448A373E57305F017
:10320000DDF9022006F0AEFC1C4A1D4B92F801E0ED
:103210009178D0781F785E7892F800C0E571DA78FE
:103220009D78A1724FF4AC73E07284F808C084F802
:1032300009E027736673A573E273236002490348AC
:10324000BDE8F04705F0BAB97094FF1FA0DDFF1F7D
:103250009894FF1F0000204168DDFF1F8494FF1F2A
:103260000C88FF1F1088FF1F4CDDFF1F620B363BD1
:103270000C96FF1FE4DBFF1F0000C842E0DBFF1FCE
:103280005894FF1F2E48FDF7B1FD796D09F08CFFB2
:1032900081462B48FDF7D2FD014648460AF02AFA3E
:1032A00000283FF480AD40F2C333254886F80780FC
:1032B0003360FDF79BFD3F6D39460AF01BFA48B3BA
:1032C000204938460AF078F80AF062FA80B240FAEB
:1032D00008F37072337200230127042603221A496F
:1032E0001A48A772E67222736373A373E37305F03F
:1032F00065F958E50AF00CF8696A06460AF05CF8C8
:1033000013490AF059F80AF043FA80B203126072C6
:1033100023729AE60A48FDF769FD0A490AF04CF85B
:103320000AF036FAC0F3072305483372FDF75EFD55
:1033300004490AF041F80AF02BFA7072CBE700BF9B
:103340000C96FF1F00007A447094FF1FA0DDFF1F42
:103350000000204138B5174C174A2368101D12F899
:10336000011F904241EA0323F9D12360134C03F17A
:1033700000432360124BD3F88830022B11D0114B3D
:103380001B68012B00D038BD0F4808F0E3F9216815
:103390000D4808F033FA03210C48BDE8384007F027
:1033A00039BF20680A4D09F0B3FF2860FEF778FDA9
:1033B000E5E700BF6CDDFF1F3BDBFF1F0095FF1F34
:1033C00000DCFF1F7CDDFF1FC489FF1F8C21010073
:1033D00064DDFF1F70B51E4A1E4C507A937A216837
:1033E000D27A1D4E1D4D43EA002342EA03230129F0
:1033F00033602B6019D01846194BD3F88830A0F5EC
:103400000000022B28601BD02368012B00D070BD68
:10341000144808F09FF92968124808F0EFF90321D1
:103420001148BDE8704007F0F5BE0E4808F092F96B
:103430000023102229680B4808F0A0F92868DBE770
:1034400009F066FF094B1860FEF72AFDDCE700BFB4
:1034500034DBFF1F7CDDFF1F6CDDFF1F0095FF1FAE
:1034600000DCFF1FC489FF1F8C21010064DDFF1FEA
:103470002DE9F041B24DB34EB34882B0294604F075
:103480009BFFD6F88830022B63D02B68F02B00F01E
:10349000A380A3F19A02E52A00F28880AB4BAC4CE2
:1034A0001B68012B00F08E800022A549A948FDF77A
:1034B00083FB2B6803F47F63B3F5C07F7CD1A34B00
:1034C0009F491B68A348012B96F8D6307FD0002275
:1034D000FDF750FB2368012B71D19C4B1B68012B1E
:1034E0006DD19D4B9D481B6801930A2200230199D1
:1034F00008F044F92A68924B002ADB79C0F2138164
:10350000974998480BF0ACF896480BF0D9F801466B
:10351000944807F07FFE2C68894B14F0804440F0FB
:10352000F380DB798BB12B198F491A7A8D480BF018
:1035300097F88C480BF0C4F801468A4807F06AFEF9
:103540000134EB79E4B2A342EDD8844808F002F9E3
:1035500035E0D6F88C202B68012A00F09080022AF2
:103560000CD140F2C132934203D040F2C2329342B6
:103570008CD1FFF72FFFD6F88C202B68032A85D13A
:1035800040F22252934200F0D58040F223529342FF
:1035900040F08480E87AAA7A697B2F7B734C000420
:1035A00040EA02620A4342EA0722226003F47F6390
:1035B000B3F5C07F664C82D02368012B8DD002B05A
:1035C000BDE8F0812268012A7FF46EAF6DE72268C2
:1035D000012A7FF47CAF7BE7654F5F4B3C781B682B
:1035E00000930A22002300995C4801343C7008F0E3
:1035F000C5F82A68524B002ADB7978DB58495948CC
:103600000BF02EF857480BF05BF80146554807F0D1
:1036100001FE2C684A4B14F0804459D1DB79B3B1D8
:10362000DFF86C8150494F482F193A7A0BF018F89F
:103630003B7A4C4808F804300BF042F80146494800
:1036400007F0E8FD0134EB79E4B2A342EAD843483D
:10365000484C08F07FF804F1080714F8011F3F48B0
:103660000023102208F08AF80121434807F0D2FD18
:10367000A742F2D1394808F06DF82B6809E740F20B
:10368000C13293423AD040F2C23293427FF4FEAE4E
:10369000FFF760FED6F88C202B6860E740F22152DD
:1036A00093427FF4F3AEE97AAB7A6A7B287B334F9F
:1036B000334C090441EA0363134343EA00231846E9
:1036C0003B6009F025FE2060FEF7EAFB2B68DDE693
:1036D0002C4F244C0FCF0FC497E8030044F8040B81
:1036E000204620F81419152107F094FDAFE726496C
:1036F0001C4822F060420AF0B3FF83E7FFF76AFE3E
:10370000D6F88C202B682AE71E4D164C0FCD0FC41F
:1037100095E8030044F8040B204620F814191521FD
:1037200007F078FD11E718490E4822F060420AF0D0
:1037300097FFE9E6E87AAA7A697B2F7B134C2EE79C
:1037400034DBFF1F00DCFF1FA0DDFF1F7CDDFF1F40
:103750000088FF1F0C96FF1F48DFFF1FC489FF1F53
:10376000B821010058DBFF1FE421010008DDFF1F25
:1037700044DDFF1F5B94FF1F3C1F01000095FF1FEE
:1037800064DDFF1FCC21010090210100D8DBFF1F69
:103790005C94FF1F2DE9F04FA24B1B78052B83B0E3
:1037A00000F0AA80A04FA14CA14E3B78226F32605E
:1037B000A04D002B67D0B4F868302B809E48FDF7F1
:1037C000F7FB216B09F096FF08B100232B809A4884
:1037D000FDF7ECFBE16A09F0ABFF10B100233360A9
:1037E0002B809548FDF72AFBE16809F0A1FF08B19D
:1037F00000232B809048FDF721FBE16809F098FF3A
:1038000008B100232B808C48DFF82082FDF7EEFA08
:10381000216909F06FFF002874D0002333602B88E2
:10382000DFF8108213B33B788348804F002B40F0C1
:10383000CB80FDF7BDFBA16B09F05CFF002840F0D9
:1038400038817E4B7C481B68784F012B00F09A81B1
:10385000FDF7F4FA216A8046A06909F0A3FC01464D
:10386000404609F065FF002840F0F6813368704A51
:10387000002BBCBF00231360714A13889BB22BB985
:1038800003B0BDE8F08F636E2B8097E7674E128818
:10389000D6F8E030D6F8DC0092B203FB02F300FB6E
:1038A00003F009F035FD674909F086FD09F070FF66
:1038B000654B84B260481C80FDF77CFB074604EB37
:1038C0008400400009F024FD0446B06D09F020FD9D
:1038D000394609F071FD0146204609F021FE09F044
:1038E00057FF2B88594A534980B283421080C7D969
:1038F000088003B0BDE8F08F4D4A4E4D00231360A1
:103900002B80B9E74C48FDF771FAD8F81C1009F084
:10391000F1FE002881D13368DFF814A1002B7FF776
:103920007EAF4548FDF742FBD8F83C1009F000FF98
:10393000002840F08D804048DFF8F090FDF756FAFF
:10394000D4F8D0108046E06909F02EFC01464046CC
:1039500009F0D0FE00283FF462AF306809F0D8FCCF
:1039600083463548FDF742FA0090D9F87000D9F83F
:103970001C8009F0CDFC009B82464146184609F0A8
:1039800011FC51460090002009F00CFC009B014600
:10399000184609F011FDD9F8D0100090404609F002
:1039A00003FC414609F0FEFB009B0146184609F066
:1039B000B7FD514609F0F8FB0146584609F0F2FB05
:1039C00009F0C0FE30602AE7FDF7F2FAA16B09F0BA
:1039D00091FE002840F0A180184B17481B68134F38
:1039E000012B00F0F480FDF729FA216A8046A069D6
:1039F00009F0D8FB0146404609F09AFE00283FF442
:103A000035AF288809F084FC81460B48FDF716FA8B
:103A1000BC69396A8246204609F0C4FB8046B7F883
:103A2000680028E18C94FF1FFC94FF1F00DCFF1F3F
:103A300068DDFF1F8494FF1F0C96FF1F9894FF1FE3
:103A400070DDFF1F0AD7233C56DDFF1F8694FF1F42
:103A5000DAF8000009F05CFC83469748FDF7A6FA07
:103A60000190D8F87000D8F83C9009F051FC019A08
:103A700000904946104609F095FB009B0146184608
:103A800009F09AFC49460090D8F82C0009F08AFB0E
:103A9000009B0146184609F043FD002109F084FB14
:103AA0000146584609F07EFB09F04CFECAF80000BA
:103AB00041E7B8F8000009F02BFC83467E48FDF78B
:103AC00077FA0090786ED7F830A009F021FC009BBF
:103AD00081465146184609F065FB49460090002092
:103AE00009F060FB009B0146184609F065FC514651
:103AF0000090B86B09F056FB009B0146184609F090
:103B00000FFD494609F050FB0146584609F04AFBB3
:103B100009F03EFEA8F8000093E6B8F8000009F0AE
:103B2000F7FB83466448FDF743FA0090B7F8680056
:103B3000D7F830A009F0E8FB009B814651461846B3
:103B400009F030FB49460090002009F02BFB009B58
:103B50000146184609F030FC51460090B86B09F058
:103B600021FB009B0146184609F0DAFC494609F0A2
:103B70001BFB0146584609F015FB09F009FEA8F8A1
:103B8000000029E7FDF75AF9216A8046606A09F0CA
:103B900009FB0146404609F0CBFD00283FF466AE24
:103BA000288809F0B5FB82464348FDF747F9D7F866
:103BB0002480396A8346404609F0F4FA8146F86E5B
:103BC00009F0A6FB0446786E09F0A2FB24E0FDF79D
:103BD00035F9216A8046606A09F0E4FA01464046F8
:103BE00009F0A6FD00283FF441AE288809F090FBBB
:103BF00082463148FDF722F9D7F82480396A834696
:103C0000404609F0CFFA8146F86E09F081FB044680
:103C1000B7F8680009F078FB214609F0C3FA494675
:103C20000746584609F0BEFA0146384609F0C4FB7B
:103C300049460746404609F0B5FA0146384609F0BC
:103C40006FFC214609F0B0FA0146504609F0AAFA85
:103C500009F09EFD288009E6288809F059FB814675
:103C60001548FDF7EBF8BC69396A8246204609F031
:103C700099FA8046786EFB6EC01A09F049FB4146FE
:103C80000746504609F08EFA0146384609F094FB83
:103C900041460746204609F085FA0146384609F0B4
:103CA0003FFC002109F080FA0146484609F07AFA03
:103CB00009F06EFD2880D9E50C96FF1F08B527484E
:103CC00007F048FD0721264807F0A4FA112005F067
:103CD00013FF0621F8B1234807F09CFA102005F0E5
:103CE0000BFF062100B3204807F094FA122005F0DC
:103CF00003FF062108B31D4807F08CFA132005F0D6
:103D0000FBFE062110BB1A4807F084FA1348BDE8F1
:103D1000084007F01FBD174807F07CFA102005F097
:103D2000EBFE06210028DED1134807F073FA1220BB
:103D300005F0E2FE06210028DDD1104807F06AFAFE
:103D4000132005F0D9FE06210028DCD00C4807F02E
:103D500061FA0248BDE8084007F0FCBCC489FF1FB7
:103D6000F0210100F82101000822010018220100C1
:103D70003022010000220100102201002022010057
:103D80002822010010B5254C2368042B27DC0121D3
:103D90000B2005F0ABFE01210C2005F0A7FE012150
:103DA000142005F0A3FE0121152005F09FFEFF2140
:103DB000162005F01BFDFF21172005F017FDFF2140
:103DC000052005F013FDFF21062005F00FFD2368F7
:103DD00001330A2B2360C4BF0023236010BD0021E0
:103DE0000B2005F083FE00210C2005F07FFE002152
:103DF000142005F07BFE0021152005F077FE002140
:103E0000162005F0F3FC0021172005F0EFFC00213F
:103E1000052005F0EBFC0021D6E700BF50DDFF1FB9
:103E200030B5092183B0AE4806F0BEF9222006F075
:103E300049F9AC4BD3F8B430012BAB4B1B7809D00C
:103E4000052B10D8DFE813F02D0132013C014101B0
:103E500037010B00002B00F03D81052B03D107211A
:103E6000A24806F0A1F9222006F02CF9FF2006F066
:103E700029F9FF2006F026F99D4CFF2006F022F9D3
:103E800008219C4806F090F921689B4807F0B6FC91
:103E9000FF2006F017F9FF2006F014F9FF2006F0C6
:103EA00011F90921954806F07FF92168924807F039
:103EB000A5FCFF2006F006F9FF2006F003F9FF201D
:103EC00006F000F90C218E4806F06EF98D4B8E49F4
:103ED000186809F025FB08F0C5FD002402460B46D2
:103EE0000094854807F094FCFF2006F0EBF8FF20D3
:103EF00006F0E8F8FF2006F0E5F80921834806F00F
:103F000053F98348FCF7ECFF08F0ACFD009402463F
:103F10000B46794807F07CFCFF2006F0D3F8FF2021
:103F200006F0D0F8FF2006F0CDF80C21794806F015
:103F30003BF97748FDF73CF808F094FD0094024601
:103F40000B466D4807F064FCFF2006F0BBF8FF202D
:103F500006F0B8F8FF2006F0B5F80D216E4806F01F
:103F600023F96B48FDF722F808F07CFD0094024627
:103F70000B46614807F04CFCFF2006F0A3F8FF2039
:103F800006F0A0F8FF2006F09DF80921634806F02E
:103F90000BF95F48FCF778FF614909F00DFA08F06A
:103FA00061FD009402460B46534807F031FCFF20A8
:103FB00006F088F8FF2006F085F8FF2006F082F86A
:103FC0000C21584806F0F0F85148FCF70FFF56490D
:103FD00009F0F2F908F046FD009402460B46464807
:103FE00007F016FCFF2006F06DF8FF2006F06AF8D7
:103FF000FF2006F067F80D214C4806F0D5F844483C
:10400000FCF71CFF484909F0D7F908F02BFD009494
:1040100002460B46384807F0FBFBFF2006F052F83B
:10402000FF2006F04FF8FF2006F04CF80921404829
:1040300006F0BAF83F4B3048196807F0DFFBFF2065
:1040400006F040F8FF2006F03DF8FF2006F03AF8B1
:104050000E21394806F0A8F82D48FCF7EFFE05467A
:104060002B48FCF7C3FE0146284609F09BF82E4971
:1040700009F0A2F908F0F6FC009402460B461E482F
:1040800007F0C6FBFF2006F01DF8FF2006F01AF827
:10409000FF2006F017F8FF2003B0BDE8304006F01F
:1040A00011B80621254806F07FF8DCE607212448F0
:1040B00006F07AF8D7E60B21224806F075F8D2E62A
:1040C0000721214806F070F8CDE608211F4806F0C8
:1040D0006BF8C8E608211E4806F066F8C3E600BF84
:1040E0003822010000DCFF1F8C94FF1F041F010019
:1040F0000C88FF1F502201009889FF1F5C220100DD
:1041000068220100E4DBFF1F0000C84278220100A2
:104110000C96FF1F8422010094220100A4220100BA
:1041200000002041B022010000007A44C0220100BA
:10413000D02201002088FF1FDC220100D41E0100D4
:10414000DC1E0100E41E0100F01E0100F81E01004B
:10415000442201002DE9F0418D4DD5F8C430042BE7
:104160003ED0032B6ED0012B00F09880022B01D0A3
:10417000BDE8F081874C8848237240F20E3201235B
:1041800021462260E37104F019FA844B1B885B001E
:10419000FF2BC8BFFF23042140224FF44170206051
:1041A000E17122726372A86D09F0B2F8A96909F091
:1041B00003F97B49054609F0BBFA002800F0DE80D0
:1041C0002946284608F0F0FF09F0E2FA80B203120F
:1041D000E072A3726F497048BDE8F04104F0EEB997
:1041E0006C4C704AA379226043F001030822E2710B
:1041F000A371A86D09F08CF8A96909F0DDF86A4986
:1042000009F0DAF809F0C4FA644B684A1B881268AE
:1042100093FBF2F380B200261A1207126072214655
:104220005D48E372A272277226736673A673E67303
:1042300004F0C4F9A279D5F8C43066F30002032B68
:10424000A27190D1534CA86DA3720122E8230721DB
:1042500040F2FF26227263722660E17109F058F87D
:10426000A96909F0A9F8504909F0A6F809F090FAEF
:104270004A4B4E4A1B88126893FBF2F382B21E121D
:104280001712214644486373E2722773A67304F041
:1042900095F9D5F8C430012B7FF468AF444B3D4C01
:1042A0001B682360072280231020E271237205F02F
:1042B00023FC002869D13F4B1B68384FDFF8EC80A6
:1042C000A86D344E03EB83035B001A12A372627273
:1042D0003B88D8F8002093FBF2F31A126273A373A1
:1042E00009F016F8A96909F067F8334B196808F066
:1042F00059FF2D4909F060F809F04AFA80B203121B
:10430000314620732448E37204F058F9022005F086
:1043100029FC2A4B1B682360072280231020E271AE
:10432000237205F0E9FB70BB224B1B68A86D03EB01
:1043300083035B001A127272B37208F0E9FFA96975
:1043400009F03AF81E4B196808F02CFF164909F0DD
:1043500033F809F01DFA82B21612D8F800003B8833
:10436000227393FBF0F30B490B48A3731A12E67206
:10437000627304F023F9D5F8C430F7E601229023E4
:10438000A272E37226E70F4BCFE70E4B94E700BF14
:1043900000DCFF1F7094FF1FA0DDFF1F8494FF1F30
:1043A00000004843F4E50618000020410888FF1F7C
:1043B0004488FF1F0488FF1F8094FF1F4888FF1F49
:1043C00054DBFF1F1888FF1F70B50368C57984B0E0
:1043D000012D8DF805304FEA13230E468DF8043079
:1043E00005F1010201A909DD07300D440DF10503B6
:1043F00010F8014F03F8014FAB42F9D1034B0448C9
:104400009B5D03F0AFFB04B070BD00BFF430010052
:104410000C95FF1FF0B40D4B0D489C790822FF2727
:10442000CD26A225DA710022B0216FF300041F729D
:104430009E72DD725A721A735A739A73DA73196024
:104440009C711946F0BC04F0B9B800BF7094FF1F0E
:10445000A0DDFF1F2DE9F043604D2B78062B83B0C4
:104460006ED05F4B5F4E1B78DFF8A881002B45D0E4
:104470002B785D4C5D4F43F08003082100222360C0
:10448000E1713A60C72210232272637298F80030FB
:1044900055490022022BA272E2720BD833784A737C
:1044A0004FEA03134FF02002DBB20A730DD104333D
:1044B0008B730BE03B68012B0CBF482340230B732D
:1044C000337801221B01DBB26273A373297846485B
:1044D000FFF77AFFE073022005F044FB42494448AD
:1044E00004F06CF82B78434801332B70FCF7FAFA90
:1044F00008B1FFF78FFF03B0BDE8F0833B4F2B7887
:10450000396843F08003384C082201292360E271A6
:10451000B8D13848FCF76AFC374908F04DFF09F07C
:1045200037F9431D33482372FCF760FC324908F029
:1045300043FF09F02DF980B2053000126072A5E743
:10454000284EDFF8D080337898F800200133032A12
:10455000DBB298BF01324FF0000198BF88F800200D
:104560000F2B3370297002D01D4B1B787EE7234F31
:10457000234C3B680093009A2168002391423370DA
:1045800015D2204BDFF858901A6801239A4289F817
:10459000003012D01C4A39680191B2F8B010019A6B
:1045A0003C314FF47A7000FB012222605EE70C4A36
:1045B0000E4F137039688023A5E7144807F0CAF836
:1045C0001321134806F026FE104807F0C3F80F48E1
:1045D00007F0C0F899F80030DCE700BF78DDFF1F76
:1045E0005CDDFF1F54DDFF1F7094FF1F04DDFF1F04
:1045F000A0DDFF1F0C96FF1F00007A4448DFFF1F5D
:104600003CDDFF1F0088FF1F00DCFF1FC489FF1F68
:10461000EC220100FCDBFF1F2DE9F8431E4C0026B5
:104620004FF0A009A3791C4F1C486672FF256FF359
:104630000003A12239464FF00808A3712272C4F882
:104640000090013684F80780A572E57225736573C2
:10465000A573E57303F0B2FF022005F083FA0F2E75
:104660004FF0A003DED1BA790D4E3B603724002312
:1046700063F3000287F807807D72BD72FD723D739F
:104680007D73BD73FD7333703C723946BA71034854
:10469000BDE8F84303F092BF7094FF1FA0DDFF1F39
:1046A00044DDFF1F2DE9F0418C4C8D4D82B006F0AA
:1046B0004BFD23682860042B00F01283022B4BD0A3
:1046C000082B00F09380072B40F03081332801F055
:1046D000CF8600F3A583312801F0B486322840F05C
:1046E000CB8106F06DFD002840F31E817D487E4E93
:1046F00007F0C8F908F00CFE7C4908F05DFE612364
:104700000122706422602B601846A0F152031F2B17
:1047100000F2B281DFE813F07A0EB001B001B0010F
:10472000B001B001B001B001B001B001B001B00101
:10473000B001B001B001D803F00F5D05FA05C8045F
:10474000B001B001B0014B04B001F30FB001B001F2
:10475000B001B001B0017F0EA0F13103422B00F295
:104760008B81DFE813F0CD07DB07E907FB071E08A5
:104770002D083A08440889018901890189018901C4
:1047800089018901890189018901890189018901D9
:1047900089018901890189018901890189018901C9
:1047A00089018901890189018901890189018901B9
:1047B00089018901890189018901890189018901A9
:1047C000890189018901890189010E08890189010D
:1047D0008901890189018901890189018901890189
:1047E0008901890189014E0089011408322800F0ED
:1047F0004B8340F32883342800F05C83712840F019
:104800003B810022732322602B602368002B40F041
:104810003681374E334806F09DFF0421354806F0B7
:10482000F9FC304806F096FF1021334806F0F2FC00
:104830002C4806F08FFF1321304806F0EBFC304B7C
:104840002848196806F0DAFF264806F083FF14218D
:104850002C4806F0DFFC234806F07CFF1E212A4886
:1048600006F0D8FC1F4806F075FF1521274806F012
:10487000D1FC1C4806F06EFF1E21254806F0CAFC3C
:10488000184806F067FF2021224806F0C3FC1548AF
:1048900006F060FF1921204806F0BCFC114806F024
:1048A00059FF12211D4806F0B5FC0E4806F052FFD4
:1048B0000F211B4806F0AEFC0A4806F04BFF0D2105
:1048C000184806F0A7FC074806F044FF0022012321
:1048D0003260236002B0BDE8F08100BF88DDFF1FB9
:1048E00030DBFF1FC489FF1F00DCFF1F6F12833AFC
:1048F0000088FF1F4C270100542701006827010092
:104900002088FF1F7C27010094270100B4270100A5
:10491000CC270100EC270100102801002C28010001
:10492000402801005028010023682868062B40F029
:10493000AB80A0F13103402B00F29E8001A252F81F
:1049400023F000BF99580000C55800001559000019
:104950003B590000615900007F590000794A00006E
:104960000958000027580000794A0000794A0000E1
:10497000794A0000794A0000794A0000794A00002B
:10498000794A0000794A0000794A0000794A00001B
:10499000794A0000794A0000794A0000794A00000B
:1049A000794A0000794A0000794A0000794A0000FB
:1049B000794A0000794A0000794A0000794A0000EB
:1049C000794A0000794A0000794A0000794A0000DB
:1049D000794A0000794A0000794A0000794A0000CB
:1049E000794A0000794A0000794A0000794A0000BB
:1049F000794A0000794A0000794A0000794A0000AB
:104A0000794A00004D58000075580000F158000028
:104A1000794A0000794A0000794A0000794A00008A
:104A2000794A0000794A0000794A0000794A00007A
:104A3000794A0000794A0000794A0000794A00006A
:104A4000794A00000348000006F0BAFB002841F351
:104A5000F284F048F04E07F015F8012703460146AE
:104A60006222EE48F36527602A60FCF711FA23689A
:104A70002868012B3FF449AE73283FF4C6AE02B05C
:104A8000BDE8F08123682868052B40F08B80A0F1F9
:104A90003103402BF0D801A252F823F0A1540000BA
:104AA00095550000B5550000D555000095560000FD
:104AB000B1560000794A0000794A0000794A0000A6
:104AC000794A0000794A0000794A0000794A0000DA
:104AD000794A0000794A0000794A0000794A0000CA
:104AE000794A0000794A0000794A0000794A0000BA
:104AF000794A0000794A0000794A0000794A0000AA
:104B0000794A0000794A0000794A0000794A000099
:104B1000794A0000794A0000794A0000794A000089
:104B2000794A0000794A0000794A0000794A000079
:104B3000794A0000794A0000794A0000794A000069
:104B4000794A0000794A0000794A0000794A000059
:104B5000794A0000794A0000794A0000794A000049
:104B6000794A0000794A0000794A0000794A000039
:104B7000794A0000794A0000794A0000794A000029
:104B8000794A0000794A0000794A0000794A000019
:104B9000794A0000794A0000794A0000CB560000AB
:104BA00023682868032B7FF464AFA0F13003482BFF
:104BB0003FF662AF01A252F823F000BF494A00005D
:104BC000176000003F60000067600000896000001F
:104BD000AB600000D3600000FB60000019610000C2
:104BE0003D610000794A0000794A0000794A0000DE
:104BF000794A0000794A0000794A0000794A0000A9
:104C0000794A0000794A0000794A0000794A000098
:104C1000794A0000794A0000794A0000794A000088
:104C2000794A0000794A0000794A0000794A000078
:104C3000794A0000794A0000794A0000794A000068
:104C4000794A0000794A0000794A0000794A000058
:104C5000794A0000794A0000794A0000794A000048
:104C6000794A0000794A0000794A0000794A000038
:104C7000794A0000794A0000794A0000794A000028
:104C80006561000083610000A1610000BF61000058
:104C90000D6200002D620000AF5A0000D35A0000E0
:104CA000794A0000F95A0000EF5F0000794A0000DD
:104CB000794A0000794A0000794A0000794A0000E8
:104CC0000348000083620000794A0000794A00002E
:104CD000794A0000794A0000794A0000A362000086
:104CE000A0F13103482B3FF6C7AE01A252F823F0E2
:104CF000515A0000555A0000595A0000795A0000D4
:104D0000935A00007D5A00008F5A0000B9590000E4
:104D1000D1590000794A0000794A0000794A000020
:104D2000794A0000794A0000794A0000794A000077
:104D3000794A0000794A0000794A0000794A000067
:104D4000794A0000794A0000794A0000794A000057
:104D5000794A0000794A0000794A0000794A000047
:104D6000794A0000794A0000794A0000794A000037
:104D7000794A0000794A0000794A0000794A000027
:104D8000794A0000794A0000794A0000794A000017
:104D9000794A0000794A0000794A0000794A000007
:104DA000794A0000794A0000794A0000794A0000F7
:104DB000794A0000FF590000794A0000794A000052
:104DC000794A0000794A0000794A0000794A0000D7
:104DD000794A0000794A0000794A0000794A0000C7
:104DE000794A0000794A0000794A0000794A0000B7
:104DF00003480000195A0000794A0000794A00006F
:104E0000794A0000794A0000794A0000295A0000D6
:104E1000395A0000C489FF1F00DCFF1F0C96FF1FDA
:104E200034287FF4EBAC06F0CBF900287FF77CAD9B
:104E30008A488B4E06F026FE61230122B08622604E
:104E40002B60184661E431287FF416AE06F0B8F9FD
:104E5000002840F350848148814E06F013FEC0B212
:104E600086F84800022894BF01460021B6F9D830E0
:104E7000F26C7C4888BF86F84810FCF70BF80123D9
:104E800069202360286040E406F09AF9002816DDC6
:104E90007248734E06F0F6FD08F03AFA724908F0CF
:104EA0008BFA07460246B6F9D83096F848106D4896
:104EB000F764E2E706F084F9002800F30E84236823
:104EC000286800E406F040F906F07AF90546002863
:104ED000F8D16248624E06F03DFC604806F03AFCAC
:104EE0005E4806F037FC5D4806F034FC5B4806F08F
:104EF00031FC1F215D4806F08DF9584806F02AFC68
:104F00001C215B4806F086F9B06A5A4908F054FA49
:104F100007F0A8FD009502460B46504806F078FCC5
:104F20000221554806F076F94C4806F013FC23217F
:104F3000524806F06FF9706C4E4908F03DFA07F0E0
:104F400091FD009502460B46444806F061FC0221A3
:104F5000494806F05FF9414806F0FCFB1921484832
:104F600006F058F9306C07F07DFD02250B4602462D
:104F700000953A4806F04CFC2946424806F04AF9AA
:104F8000364806F0E7FB22213F4806F043F9B18E90
:104F9000324806F033FC03213C4806F03BF92F4829
:104FA00006F0D8FB0723236069E506F0CDF806F08C
:104FB00007F905460028F8D12848294E06F0CAFB13
:104FC000264806F0C7FB254806F0C4FB234806F038
:104FD000C1FB224806F0BEFB15212D4806F01AF948
:104FE0001E4806F0B7FB18212A4806F013F92B4695
:104FF0000A2296F84810194806F0C0FB174806F038
:10500000A9FB2821244806F005F9F06C194908F09D
:10501000D3F907F027FD00950B4602460F4806F02E
:10502000F7FB0221144806F0F5F80C4806F092FB55
:1050300018211A4806F0EEF8B6F9D810074806F01D
:10504000DDFB064806F086FB1321154806F0E2F862
:10505000024806F07FFB0823236010E5C489FF1F88
:1050600000DCFF1F0C96FF1F6F12833A982501008A
:10507000B825010000007A446C230100D825010006
:10508000FC25010024250100182601003C26010012
:105090001428010024230100402301007023010093
:1050A0008C23010006F050F806F08AF80546002827
:1050B000F8D18148814E06F04DFB7F4806F04AFB4F
:1050C0007D4806F047FB7C4806F044FB7A4806F032
:1050D00041FB11217A4806F09DF8774806F03AFB2B
:1050E0002821784806F096F8B069774908F064F905
:1050F00007F0B8FC009502460B466F4806F088FBA7
:105100000221724806F086F86B4806F023FB162150
:105110006F4806F07FF8306A6B4908F04DF907F0E8
:10512000A1FC00950B460246634806F071FB022184
:10513000664806F06FF8604806F00CFBD6F8C430FD
:10514000002B32DD1D21634806F064F8706E08F014
:10515000DFF8614908F030F907F084FC02250246C7
:105160000B460095544806F053FB01215B4806F0BE
:1051700051F8514806F0EEFA1F21594806F04AF856
:10518000F06E08F0C5F8544908F016F907F06AFC0B
:10519000009502460B46484806F03AFB01214F486D
:1051A00006F038F8444806F0D5FA11214D4806F0CB
:1051B00031F8D6F8C430062B01F28280DFE813F014
:1051C0001C092109170912090D0908097C0805F0B5
:1051D000BBFF05F0F5FF0028F9D13748374E06F040
:1051E000B9FA354806F0B6FA334806F0B3FA324851
:1051F00006F0B0FA304806F0ADFA1F213A4806F042
:1052000009F82D4806F0A6FA1E21384806F002F8E3
:10521000294806F09FFA1A21354805F0FBFFD6F819
:105220008830022B01F00982032B01F0FD81012B54
:1052300001F00C8209212F4805F0ECFF1E4806F012
:1052400089FA14212C481D4D05F0E4FFD6F884108E
:10525000194806F0D3FA184806F07CFA1C212748B2
:1052600005F0D8FFD6F89010134806F0C7FA124898
:1052700006F070FA1C21224805F0CCFFD6F8C010C9
:105280000D4806F0BBFA0C4806F064FAD6F88830F0
:1052900023F00202012A01F04781022B01F0FA817A
:1052A0001321184805F0B6FF034806F053FA02230D
:1052B0002360FFF7E4BB00BFC489FF1F00DCFF1FB2
:1052C000B8270100A023010000007A446C230100EC
:1052D000CC230100E4230100CDCCCC3DF82A010011
:1052E0000424010024240100B8290100D829010068
:1052F000F8290100702A01007C2A0100942A01008B
:10530000B42A01008C23010005F01EFF05F058FFB0
:1053100005460028F8D1BA48BA4E06F01BFAB8483C
:1053200006F018FAB64806F015FAB54806F012FA73
:10533000B34806F00FFA1321B34805F06BFFB048ED
:1053400006F008FA0D21B14805F064FFAC4806F0FC
:1053500001FA0F21AE4805F05DFFAE4BA848196871
:1053600006F04CFAA64806F0F5F91321AA4805F014
:1053700051FFAA4BA248196806F040FAA04806F06F
:10538000E9F91221A64805F045FFA64B9C4819688B
:1053900006F034FA9A4806F0DDF91121A24805F02A
:1053A00039FFA24B9648196806F028FA944806F08F
:1053B000D1F90E219E4805F02DFFD6F8B410904883
:1053C00006F01CFA8E4806F0C5F91921994805F037
:1053D00021FF994B8A48196806F010FA884806F0B0
:1053E000B9F91121954805F015FF954B84481968C6
:1053F00006F004FA824806F0ADF91021914805F054
:1054000009FF914B7E48196806F0F8F97C4806F0D0
:10541000A1F91C218D4805F0FDFE8D4B78481968D7
:1054200006F0ECF9764806F095F91621894805F062
:10543000F1FEB6F8B010724806F0E0F91E21864879
:1054400005F0E8FE6E4806F085F90C21834805F06A
:10545000E1FE834B6A4819780A222B4606F08EF942
:10546000674806F077F910217E4805F0D3FE2946FB
:105470007D4805F0CFFE624806F06CF917217B48A5
:1054800005F0C8FE5E4806F065F91321784805F07E
:10549000C1FE5B4806F05EF904232360FFF7EFBA14
:1054A00005F08EFE00287FF77BAB5548554E06F081
:1054B000E9FA01226B23C6F8940022602B6001E018
:1054C00005F042FE05F07CFE0028F9D14C484D4D18
:1054D00006F040F94A4806F03DF9494806F03AF925
:1054E000474806F037F9464806F034F9212161486B
:1054F00005F090FE424806F02DF915215E4805F0B2
:1055000089FED6F894103E4806F078F902215B48EF
:1055100005F080FE3A4806F01DF91E21584805F0B6
:1055200079FED6F89C10364806F068F903215548F4
:1055300005F070FE324806F00DF91E21524805F0C4
:1055400069FED6F898102E4806F058F92C4806F057
:1055500001F91D214D4805F05DFED6F8B810284828
:1055600006F04CF9264806F0F5F81E21484805F0EB
:1055700051FED6F8BC10224806F040F9204806F04B
:10558000E9F8D6F8B430012B01F0978005232360A9
:10559000FFF775BA05F014FE00287FF701AB184835
:1055A000184E06F06FFA01226B23C6F89C002260A9
:1055B0002B6087E705F004FE00287FF7F1AA10486A
:1055C000104E06F05FFA01226B23C6F898002260A5
:1055D0002B6077E705F0F4FD00287FF7E1AA084883
:1055E000084E06F04FFA164BC6F8B80002221A60B1
:1055F000FCF734F901226B2322602B6062E700BFC5
:10560000C489FF1F00DCFF1F60280100742801000F
:10561000842801007CDDFF1F9428010030DDFF1F7E
:10562000A828010038DDFF1FBC280100F4DBFF1FA4
:10563000D0280100E02801006494FF1FFC2801002D
:105640008894FF1F10290100F0DBFF1F24290100AF
:105650001C88FF1F442901005C2901007C290100EE
:10566000E8DBFF1F8C29010058200100A029010060
:105670008C2301004026010064260100B8240100AB
:105680007C260100382001009C260100BC26010078
:10569000DC26010005F094FD00287FF781AAC148AF
:1056A000C14E06F0EFF9C14BC6F8BC0003229EE7DD
:1056B000BD4E96F8D530B3FA83F35B0901216B2216
:1056C00086F8D53021602A60FCE6B84900237322B1
:1056D0000B6023602A60FFF798B8B248B24E06F01C
:1056E000D1F907B23B46F26C96F84810B048A6F8DC
:1056F000D870FFF7C2BBAC4E96F84800FFF7B2BBBC
:10570000A94ED6F88430B3FA83F35B0901226320F3
:10571000C6F8843022602860FEF7F7BFA24ED6F8A4
:105720009030B3FA83F35B0901226320C6F890300E
:1057300022602860FEF7E9BF0123236005F040FDE9
:10574000002805DD9748984E06F09CF9C6F8C00081
:105750000123632023602860FEF7D7BF0123236065
:1057600005F02EFD002807DD8E488F4E06F08AF9E1
:1057700007F0CEFDC6F8A400632028602368FEF77A
:10578000A2BFFDF74FF923682868FEF799BF864A44
:10579000D2F888300133032BC8BF0023C2F8883009
:1057A000D6E70123236005F00BFD0028E4DD7D48EA
:1057B0007D4E06F067F907F0ABFDC6F8A000DBE709
:1057C0000123236005F0FCFC0028D5DD7548764EEA
:1057D00006F058F9A6F8CE00CEE7734AD2F88C301E
:1057E0000133042BC8BF0123C2F88C30B0E701237A
:1057F000236005F0E5FC0028AADD6A486A4E06F041
:1058000041F9C6F8A800A3E7674B93F8D420002A13
:1058100000F0418600210122652083F8D410226027
:105820002860FEF772BF05F0CBFC00287FF72AA99D
:105830005C485D4E06F026F907F06AFD65230122FB
:10584000B06322602B601846FEF75FBF05F0B8FC1E
:1058500000287FF717A95348534E06F013F900EBC1
:105860008000430001226520A6F86830226028608D
:10587000FEF74BBF05F0A4FC00287FF703A94948B9
:10588000494E06F0FFF865230122C6F8DC002260CD
:105890002B601846FEF739BF05F092FC00287FF711
:1058A000F1A84048404E06F0EDF807F031FD4149BF
:1058B00007F036FE65230122B06122602B60184696
:1058C000FEF723BF05F07CFC00287FF7DBA83548F6
:1058D000354E06F0D7F807F01BFD364907F020FEDD
:1058E00065230122306222602B601846FEF70DBF4F
:1058F00005F066FC00287FF7C5A82A482A4E06F066
:10590000C1F865230122C6F8E00022602B6018462A
:10591000FEF7FBBE05F054FC00287FF7B3A8214832
:10592000214E06F0AFF800EB800043000122652015
:10593000736622602860FEF7E8BE05F041FC00288F
:105940007FF7A0A81748184E06F09CF800EB8000DF
:10595000430001226520F36622602860FEF7D5BE71
:10596000114AD2F8C4300133062BC8BF0023C2F855
:10597000C4306520012323602860FEF7C6BE05F011
:105980001FFC00287FF77EA80648074E06F07AF82D
:1059900065230122C6F8C80022602B601846FEF776
:1059A000B4BE00BFC489FF1F00DCFF1F8894FF1F27
:1059B0000C96FF1F00007A44584A1368B3FA83F329
:1059C0005B0901216420136021602860FEF79DBE01
:1059D0000123236005F0F4FB002800F31686504BEA
:1059E0001A68042A01DD02221A6064232B602368EE
:1059F000082B4FF064007EF466AEFEF7F7BE01237D
:105A0000236005F0DDFB0028EFDD4648464E06F03A
:105A100039F8A6F8B000E8E701232360FEF7FAFCA6
:105A200064232B602368E3E701232360FEF7F4FD82
:105A300064232B602368DBE70123236005F0C0FBB0
:105A40000028D2DD374806F01DF8384B1870CCE737
:105A5000374AB2E7374AB0E7374A384F1368002B66
:105A60000CBF012100214FF001031160236040F0C1
:105A7000F68564222A60BBE7314A9EE7012331485C
:105A80002360FBF74BF8304A23681060F1E72F4A98
:105A900093E7254ED6F8B430B3FA83F35B090122BD
:105AA0006420C6F8B43022602860FEF72EBE05F0F0
:105AB00087FB00280DDD1B481B4E05F0E3FF07F0B8
:105AC00027FC234907F02CFD01226223706222602B
:105AD0002B6005F075FB00280EDD1248124E05F014
