:1000000000800020BD010000F5880000AD880000E0
:10001000AD880000AD880000AD880000AD8800000C
:10002000AD880000AD880000AD880000F5880000B4
:10003000F5880000AD880000B9A90000BDAA000045
:10004000F5880000F5880000F5880000F5880000BC
:10005000F5880000F5880000F5880000F5880000AC
:10006000F5880000F5880000F5880000F58800009C
:10007000F5880000F5880000F5880000F58800008C
:10008000F5880000F5880000F5880000F58800007C
:10009000F5880000F5880000F5880000F58800006C
:1000A000F5880000F5880000F5880000F58800005C
:1000B000F5880000DD7D0000E97D0000ED7D000099
:1000C000F97D0000FD7D0000017E0000F588000044
:1000D000F5880000F5880000F5880000F58800002C
:1000E000F5880000F5880000F5880000F58800001C
:1000F000F5880000C5B10000F58800009595000066
:10010000F588000061970000F5880000F588000080
:10011000F5880000F5880000F5880000F5880000EB
:10012000F5880000F5880000F5880000F5880000DB
:10013000F5880000F5880000F5880000F5880000CB
:10014000F5880000F5880000F5880000F5880000BB
:10015000F5880000F5880000F5880000F5880000AB
:10016000F5880000ED990000F5880000F588000092
:10017000F5880000F5880000F5880000F58800008B
:10018000F5880000F5880000F5880000F58800007B
:10019000F5880000F5880000F5880000F58800006B
:1001A000F5880000F5880000F5880000F58800005B
:1001B000F5880000F5880000F5880000564B4CF2E9
:1001C000205210B51A804DF628121A8000BF00BFC9
:1001D00008F094FB514B4FF010621A60504A9A603D
:1001E000504ADA60504A136813F4807304D14F49BF
:1001F0000B604FF4A85313604D4B1A78110703D5C9
:100200001A7842F008021A704A4B4B492A221A7097
:100210004A4A4B4B8B4204D252F8040F43F8040B6A
:10022000F8E7484B484900228B4202D243F8042B9E
:10023000FAE74649464A002352F8230041F82300D2
:1002400001336F2BF8D1434B434A802103F8011B44
:100250009342FBD1414B3D4A1A60414B8A221A70AE
:10026000A3F5805324225A70A0221A709A7992071B
:10027000FCD59A79D406FCD43A4A937903F00C035E
:10028000082B384BF9D103221A7140225A719A79FE
:100290009006FCD5334A9179324B4906FBD5324A58
:1002A000324911600221516020221A709A7902F0BD
:1002B0000C020C2AFAD12E4B2E4A1A602E4B2F4AD2
:1002C0001A6000225A60072243F8042C2C4AC3F813
:1002D0000C2D62B608F0C8FD144B1B68DA0705D573
:1002E000284808F0A5FB284B284A1A60284B1B78A1
:1002F0005B0609D5244C254B22689A4204D121483B
:1003000008F096FB002323600CF044FA08F0FCFA96
:100310000AF018FEFEE700BF0E20054030800440C2
:10032000823F04000100002B10D0034014D0034092
:1003300002D0074000E007403092FF1FEC2401008C
:100340002087FF1F3092FF1FF4DFFF1F0082FF1F77
:100350000000000000E400E05FE400E008ED00E0E1
:100360000050064000400640448004400000030165
:1003700004800440C010050014E000E0FF76010096
:10038000000020208D85035F1CE00340A5C3945A24
:1003900000F00740FFFFFFFFFFFFFFFFFFFFFFFF32
:1003A000FFFFFFFFFFFFFFFFFFFFFFFFFFFFFFFF5D
:1003B000FFFFFFFFFFFFFFFFFFFFFFFFFFFFFFFF4D
:1003C000FFFFFFFFFFFFFFFFFFFFFFFFFFFFFFFF3D
:1003D000FFFFFFFFFFFFFFFFFFFFFFFFFFFFFFFF2D
:1003E000FFFFFFFFFFFFFFFFFFFFFFFFFFFFFFFF1D
:1003F000FFFFFFFFFFFFFFFFFFFFFFFFFFFFFFFF0D
:10040000FFFFFFFFFFFFFFFFFFFFFFFFDEF9FFFF23
:1004100010B5054C237833B9044B13B10448AFF33E
:1004200000800123237010BD3092FF1F00000000E8
:10043000E8240100084B10B51BB108490848AFF388
:1004400000800848036803B910BD074B002BFBD0A0
:10045000BDE81040184700BF000000003492FF1FA5
:10046000E82401003092FF1F00000000F0B400F10A
:100470003C06174F00243146031F00F17C0243F86D
:10048000044FB34241F8047F4FF0000542F8044F97
:10049000F5D100230F4A1049C0F8C050C0F8C4502D
:1004A000C0F8C850C0F8CC50C0F8D050C0F8E050E8
:1004B000C0F8D420C0F8DC20C0F8D81080F8E830AC
:1004C00080F8E93080F80031C0F80C31F0BC70479A
:1004D0000000A040000048430000C8C22DE9F041E0
:1004E0008046CE1D00F1C00400F1D00716F8010FC0
:1004F00028380BF0E9FE094944F8040F05460CF0D2
:10050000F3F838B1B8F914010BF0DEFE29460BF010
:1005100027FE2060BC42E9D1BDE8F081000020C286
:100520002DE9F043814683B006290ED8DFE811F0AB
:100530004E0007005D009000C500FA003800D9F8B1
:10054000081111B9002B00F02281D9F8004009F1FF
:100550004006C84609F18005002701E058F8044F1D
:10056000306821460CF0C0F80137214628B1D9F88F
:10057000E4000CF0A5F800B13460214628680CF0C6
:1005800095F80436984920B120460CF0ADF800B13A
:100590002C60102F05F10405E0D103B0BDE8F08315
:1005A000D9F808110029D0D1002BCED1537A107A76
:1005B00003F03F0300EB03200BF086FE8B490BF0AA
:1005C0008BFFD9F80040C9F83C00C0E7557A117A92
:1005D000937AD07AD9F8004001EB052202EB03436D
:1005E00003EB0063C9F80C31B1E7D9F80811002911
:1005F000ABD1002BA9D1537A107A019203F03F03BB
:1006000000EB03200BF060FE78490BF065FF019AC8
:10061000C9F80C00D37A907A03F03F0300EB032073
:100620000BF052FE71490BF057FF019AC9F8100008
:10063000537B107B03F03F0300EB03200BF044FEE1
:100640006A490BF049FFD9F80040C9F814007EE769
:10065000D9F8081100297FF478AF002B7FF475AF2B
:10066000537A107A019203F03F0300EB03200BF062
:100670002BFE5E490BF030FF019AC9F81800D37ABF
:10068000907A03F03F0300EB03200BF01DFE574967
:100690000BF022FF019AC9F81C00537B107B03F07A
:1006A0003F0300EB03200BF00FFE50490BF014FF4B
:1006B000D9F80040C9F8200049E7D9F80811002905
:1006C0007FF443AF002B7FF440AF537A107A01924E
:1006D00003F03F0300EB03200BF0F6FD43490BF062
:1006E000FBFE019AC9F82400D37A907A03F03F0305
:1006F00000EB03200BF0E8FD3C490BF0EDFE019A06
:10070000C9F82800537B107B03F03F0300EB032064
:100710000BF0DAFD35490BF0DFFED9F80040C9F8DF
:100720002C0014E7D9F8081100297FF40EAF002B34
:100730007FF40BAF537A107A019203F03F0300EB82
:1007400003200BF0C1FD29490BF0C6FE019AC9F840
:100750003000D37A907A03F03F0300EB03200BF0D4
:10076000B3FD22490BF0B8FE019AC9F83400537B5F
:10077000107B03F03F0300EB03200BF0A5FD1B49AA
:100780000BF0AAFED9F80040C9F83800DFE6537A2A
:10079000107A019203F03F0300EB03200BF094FD6D
:1007A00012490BF099FE019AC9F80000D37A044669
:1007B000907A03F03F0300EB03200BF085FD0B491B
:1007C0000BF08AFE019AC9F80400537B107B03F0FA
:1007D0003F0300EB03200BF077FD04490BF07CFE98
:1007E000C9F80800B3E600BF0000A04000007A444A
:1007F00090F8F000704700BF90F8EC00704700BF21
:1008000090F8F400704700BF90F8F800704700BF00
:10081000102994BF50F82100002070472DE9F041C5
:100820000B4E8046041F00F12C0754F8045F31463C
:1008300028460BF03BFF30B1D8F8E41028460BF007
:1008400053FF00B12E46BC42EFD13046BDE8F081E7
:10085000000020412DE9F041D0F8E4704FF000088D
:10086000041F00F13C0654F8045F394628460BF09B
:100870003BFF084948B128460BF018FF414620B11C
:1008800028460BF031FF00B1A846B442EBD14046F8
:10089000BDE8F0810000A0402DE9F047D0F8E470F9
:1008A00082464FF00009041F00F13C064FF000089B
:1008B00054F8045F394628460BF016FF0C4950B136
:1008C00028460BF0F3FE30B1484629460BF048FCB1
:1008D00008F101088146B442EAD1CAF804814046D1
:1008E0000BF0F2FC014648460BF0F6FDBDE8F08740
:1008F0000000A040D0F80401704700BFD0F8080104
:10090000704700BF38B5D0F8C850D0F8C440294669
:1009100020460BF0CBFE00B92C46204638BD00BF68
:1009200038B5D0F8C850D0F8C440294620460BF05E
:10093000DBFE00B92C46204638BD00BF70B5D0F8AC
:10094000C4401249054620460BF0CEFED0B12046E9
:1009500000210BF005FC01240646D5F8C8500B49D0
:1009600028460BF0C1FE28B1304629460BF0F8FBB3
:100970000134064620460BF0A7FC014630460BF03A
:10098000ABFD70BD00260446E7E700BF000020C2B3
:100990002DE9F8434FF00008D0F8E470C0F8C080AB
:1009A0008146041F00F13C0654F8045F394628468E
:1009B0000BF09AFE084950B128460BF077FE30B193
:1009C000404629460BF0CCFB8046C9F8C000B44233
:1009D000EAD14046BDE8F8830000A04003299ABF51
:1009E00000EB8100D0F8C400002070473E2998BF7A
:1009F00080F80011704700BFD0F80C01704700BFAD
:100A000090F8E800704700BF90F8E900704700BF19
:100A1000C0F8FC10704700BF80F8E810704700BFB6
:100A200080F8E910704700BFC0F8E410704700BFBD
:100A3000A0F81411704700BF70B500F58A4506464E
:100A4000143500F12C04204604F58C74FFF70EFDDC
:100A5000AC42F8D106F5A275012428460021FFF723
:100A6000DBFF214628460134FFF7C0FF3F2C05F588
:100A70008C75F2D144F21C5400250548054A064BFA
:100A8000355500217061B161F2613362304670BD4D
:100A900000007A44000048430000C8C270B500F569
:100AA0008A46143600F5A274002508E00125204688
:100AB000002104F58C74FFF7B3FFB4420AD020463E
:100AC000FFF79EFF0028F2D02046FFF79DFF002889
:100AD000ECD170BD284670BD70B500F5B0560C362F
:100AE00000F5A27403E004F58C74B4420CD02046E7
:100AF000FFF786FF05460028F5D02046FFF77CFF6C
:100B0000C307F0D5284670BD0025284670BD00BF3C
:100B10002DE9F04144F2205300F58A463746002281
:100B20008046C2501436203700F5A27403E004F565
:100B30008C74B4420ED02046FFF762FF0028F6D036
:100B400020463D68FFF7D6FE04F58C742844B44275
:100B50003860F0D144F2205358F80300BDE8F0812A
:100B600044F21853C058704738B50C6804F00F04AD
:100B70004FF48C75013405FB04002C3015461A46E1
:100B8000FFF7ACFC012D00D038BD06480AF044F850
:100B9000214604480AF090F80B210348BDE838408C
:100BA00009F0A4BDD487FF1F58090100F0B50D68F6
:100BB00005F00F0405F0F005402D83B00F46064602
:100BC00004F1010446D01FDD602D3DD0702D37D0DB
:100BD000502D3BD00D2C01D8062D1DDD4FF48C730C
:100BE00003FB04642C3420460121FFF715FF204647
:100BF0000121FFF715FF337820463A46294603B016
:100C0000BDE8F040FFF78CBC202D21D0302D19D04D
:100C1000002DDFD10D2CE1D8012ADFD121460E486D
:100C200001920AF049F8019A0C48114609F05EFD5C
:100C3000294609480AF040F8074809F0EDFFCDE7DA
:100C40000625E7E70225E5E70525E3E70425E1E7D3
:100C50000125DFE70325DDE7D487FF1F64090100D5
:100C60002DE9F043002383B00646436000F5A274EB
:100C7000012504E001353F2D04F58C7466D0204633
:100C8000FFF7BEFE0028F5D04E4806F027FB2946A8
:100C90004D4806F023FB2046FFF77AFE0AF0BEFE21
:100CA00002460B46494806F019FB2046FFF7B6FD01
:100CB00080462046FFF7CEFD074640460AF0AEFECE
:100CC0008046384689460AF0A9FE42464B46CDE9A1
:100CD00000013F4806F002FB00212046FFF77EFEA0
:100CE000012180462046FFF779FE074640460AF07C
:100CF00095FE8046384689460AF090FE42464B46AD
:100D0000CDE90001334806F0E9FA2046FFF740FE3E
:100D1000014670680BF024FA70602046FFF7F2FD80
:100D2000F1690BF0C3FC002833D12046FFF7F8FD32
:100D3000316A0BF0D9FC00289CD02046FFF7F0FD6B
:100D400001353F2D306204F58C7498D1B0680BF0FA
:100D5000BBFA014670680BF0BFFBB16970600446D6
:100D60000BF0C2FC00B1B461716920460BF09EFC2F
:100D700000B174610B2007F0F3FF44F21C53F35CE5
:100D800060B99BB144F21C530122F25403B0BDE898
:100D9000F0832046FFF7B6FDF061C6E753B944F291
:100DA0001C530022F25403B0BDE8F0830A4806F059
:100DB000C3FAE7E7094806F0A9FA44F21C530022F7
:100DC000F254F0E79810010068090100A40901003D
:100DD000B8090100E4090100000A0100380A010015
:100DE00070B5124BC36000F58A450646143500F510
:100DF000A27403E004F58C74AC4214D02046FFF7D3
:100E0000FFFD0028F6D02046FFF708FDF1680BF043
:100E10004DFC0028EED02046FFF700FD04F58C7451
:100E2000AC42F060EAD1F06870BD00BF0000A040A5
:100E300070B5002300F58A4506460361143500F5B8
:100E4000A27403E004F58C74AC4214D02046FFF782
:100E5000D7FD0028F6D02046FFF7FCFC31690BF0E7
:100E600043FC0028EED02046FFF7F4FC04F58C7418
:100E7000AC423061EAD1306970BD00BF4068704754
:100E800001707047816070472DE9F04100F58A4597
:100E9000884617461EB2143500F5A27403E004F527
:100EA0008C74AC4214D02046FFF7AAFD0028F6D07F
:100EB00020464146FFF7ACFD20463946FFF7B4FD1A
:100EC0002046314604F58C74FFF7B2FDAC42EAD1FE
:100ED000BDE8F0812DE9F84344F2185300F58A4546
:100EE0000027C7502E462B4A2B4B826280464FF07C
:100EF000000943621435183600F5A27403E004F5C6
:100F00008C74A54214D02046FFF77AFD0028F6D055
:100F10003368013333602046FFF710FD1F490BF0A3
:100F2000E3FB90B904F58C74A54207F10107EAD1FF
:100F300044F2185358F80300C01B0BF0C5F90146E2
:100F400048460BF0C9FABDE8F8832046FFF7F6FCE7
:100F5000014648460BF004F981462046FFF7E0FCC5
:100F6000D8F824100BF0C0FB70B92046FFF7CAFC7C
:100F7000D8F828100BF09AFB0028C0D02046FFF7C5
:100F8000C1FCC8F82800BAE72046FFF7C9FCC8F83A
:100F90002400EAE700C0794400C079C400008CC294
:100FA000406A7047806A7047F8B500F58A45074681
:100FB0000026143500F5A27403E004F58C74AC42ED
:100FC00010D02046FFF71CFD0028F6D02046FFF782
:100FD00063FC014630460BF0C3F804F58C74AC4258
:100FE0000646EED144F21853F8580BF06DF901465D
:100FF00030460BF071FAF8BD2DE9F04F06468FB080
:1010000086488B4606F012F9844806F00FF98348AB
:1010100006F00CF944F218533046F2580D92FFF7DF
:1010200077FDB3680C93074670680AF0F7FC8046BA
:1010300030468946FFF7B8FF82463046F468356986
:10104000FFF748FF0AF0EAFCCDE90A0121462846ED
:101050000BF084F872490BF08BF90AF0DFFCCDE954
:10106000080128460AF0DAFCCDE9060120460AF01C
:10107000D5FCCDE9040150460AF0D0FC0D9A0C9B3A
:10108000CDE90201CDE90089114666483A4606F0ED
:10109000CDF8624806F0CAF806F5A2764FF00109CD
:1010A0004FF0000A07E009F10109B9F13F0F06F519
:1010B0008C7600F0AB803046FFF7A2FC0028F2D01F
:1010C0003046FFF795FB3046FFF796FB3046FFF7BB
:1010D00097FB3046FFF798FB0821534809F006FBC1
:1010E0004946524809F0E8FDB9F1090F40F39180F3
:1010F00002214F4809F0FAFA3046FFF749FC0AF09E
:101100008DFC5FFA8BF802460B46CDF8008047480D
:1011100009F0DAFD0121474809F0E8FA55460024B4
:1011200020E00621444809F0E1FA29463F4809F049
:10113000C3FD0221414809F0D9FA21463046FFF7A4
:1011400067FB0AF06BFCCDF8008002460B4637487F
:1011500009F0BAFD01340121364809F0C7FA102C14
:1011600009D03D46092D05F10107DADC012134489B
:1011700009F0BCFAD5E72D4809F04EFD09213148A8
:1011800009F0B4FA00213046FFF728FC0AF046FCCB
:10119000022502460B460095244809F095FD0A21D8
:1011A000294809F0A3FA01213046FFF717FC0AF09D
:1011B00035FC009502460B461C4809F085FD0C21C4
:1011C000224809F093FA3046FFF716FC0023224626
:1011D0000146164809F030FD08211D4809F086FA3D
:1011E0003046FFF78BFB2246014600230F4809F0EB
:1011F00023FD09F101090D4809F00EFDB9F13F0F7A
:101200000AF1100A06F58C767FF455AF0FB0BDE8F1
:10121000F08F01210A4809F069FA69E79810010086
:1012200000007A44E80C0100880D0100D487FF1FFC
:10123000A0120100940D0100980D0100440F01005F
:10124000540F0100A00D0100AC0D0100B80D01000C
:10125000C80D01002DE9F04F85B000F5A2758A4652
:1012600003929B462E464FF0010806E008F1010864
:10127000B8F13F0F06F58C767BD03046FFF7C0FB08
:101280000028F3D000230A2251467D4809F0D4FCFF
:1012900001217C4809F02AFA03980AF0BFFB0023D9
:1012A0000246009376480B4609F00EFD0121754871
:1012B00009F01CFA5946724809F0FEFC01217148F8
:1012C00009F014FA41466E4809F0F6FC01216D4818
:1012D00009F00CFA00244FF0020921463046FFF7CE
:1012E00097FA0AF09BFBCDF8009002460B46644843
:1012F00009F0EAFC01340121624809F0F7F9082CF1
:101300004FF00207E9D100213046FFF767FB0AF0F2
:1013100085FB009702460B46594809F0D5FC012190
:10132000584809F0E3F901213046FFF757FB0AF06E
:1013300075FB009702460B46514809F0C5FC012198
:10134000504809F0D3F939463046FFF747FB0AF019
:1013500065FB009702460B46494809F0B5FC08F1C9
:101360000108474809F058FCB8F13F0F06F58C76A4
:1013700083D101274FF0000904E001373F2F05F525
:101380008C7579D02846FFF73BFB0028F5D0002369
:101390000A2251463C4809F04FFC0121394807F028
:1013A000F5FF03980AF03AFBCDF8009002460B4691
:1013B000354809F089FC0121324807F0E7FF59461A
:1013C000314809F079FC01212E4807F0DFFF39464A
:1013D0002D4809F071FC01212A4807F0D7FF0024AD
:1013E0004FF0020821462846FFF712FA0AF016FBD2
:1013F000CDF8008002460B46234809F065FC013415
:101400000121204807F0C2FF082C4FF00206E9D165
:1014100000212846FFF7E2FA0AF000FB0096024698
:101420000B46194809F050FC0121164807F0AEFFA1
:1014300001212846FFF7D2FA0AF0F0FA0096024698
:101440000B46114809F040FC01210E4807F09EFFB1
:1014500031462846FFF7C2FA0AF0E0FA0096024643
:101460000B46094809F030FC0137074809F0D4FB66
:101470003F2F05F58C7585D105B0BDE8F08F00BF15
:10148000D487FF1F64090100C487FF1F0A4A0B4964
:10149000106ED36D03FB00F34FF47A7000FB03F082
:1014A000642310B50B600AF00FFF0549054C0BF0E3
:1014B00013F8206010BD00BFDCD9FF1F3087FF1F6D
:1014C000E4388E3E04DBFF1F38B5044608460D465F
:1014D0000BF056FF2368024629465B682046984772
:1014E0000546204609F098FB284438BD2DE9F04117
:1014F0004548464E464F474C05F098FE464B4749F7
:10150000474A4848596011251D70474D4749DA60E0
:101510001E6100224FF4FA769F619C62444F454C55
:101520001D63454DD861D9624FF07C5043499A63A1
:101530009E863C220C26DF631C64414F414C5D6556
:10154000414DD864196502200121A3F8A4209E65AD
:10155000002264265F62C3F8C4404FF496773224B9
:101560001D625D615D6440F61C45587058721972C9
:10157000D96583F848201E66DF665F669C664FF07B
:101580000A081D6741F2040CC3F88020C3F88400E8
:10159000C3F88820C3F89040C3F8AC404FF05A0E0F
:1015A000C3F8A820C3F8B410C3F8B8004FF47A7792
:1015B000C3F8BC6083F8C810244E83F8C910244DCA
:1015C00083F8CA2041F28831A3F8CC20FF2440F2EE
:1015D000D6620520C3F87480C3F878C0C3F87CE0F5
:1015E000C3F89470C3F89860C3F89C50C3F8B04037
:1015F000A3F8C200C3F88C10A3F8C010A3F8A02071
:10160000A3F8A220BDE8F081D40D01000000404005
:1016100033338340CDCCCC3DDCD9FF1F20A1070064
:1016200066668640CDCC4C40000020C1000082425E
:10163000000020420000A0400AD7233D9A9979403B
:10164000333373409A99993ECDCC4C3E00006842AA
:1016500000C02044F0B5002185B0112007F08EFBBA
:101660000021102007F08AFB0021122007F086FBE2
:101670000021132007F082FB01210B2007F07EFBE5
:1016800001210C2007F07AFB0121142007F076FBE2
:101690000121152007F072FB0121162007F06EFBD7
:1016A0000121172007F06AFB0121052007F066FBE6
:1016B000974C984D0121062007F060FB01210D2079
:1016C00007F05CFB20880AF0FBFD0146162007F0BE
:1016D000BFFA20880AF0F4FD0146172007F0B8FA97
:1016E00020880AF0EDFD0146052007F0B1FA2088B8
:1016F0000AF0E6FD00240146062007F0A9FA00944E
:101700002346854A8549864806F010F8E6B23246F7
:101710008049834805F0B8FF2B797E4980486FF3F4
:101720000003013432462B7105F0A4FF082CEDD1E3
:101730000924E6B232467749794805F0A5FF2B79AE
:101740007449774843F00103013432462B7105F0A8
:1017500091FF0D2CEDD1734C23681021D3F8840038
:1017600006F0B6FC23681021D3F8840006F044FD8F
:1017700023680221D3F8840006F000FC23680221CC
:10178000D3F8840006F088FD23680F21D3F8840085
:1017900006F070FE0C21644808F0A8FF634809F0C9
:1017A0003BFA1121624808F0A1FF604809F034FAC1
:1017B00040F2836007F0C8FB5C4809F02DFA17215E
:1017C0005C4808F093FF594809F026FA5A4B1B78F9
:1017D0009A0600F1D580584B1B781B0700F1DC807E
:1017E000554B1B785F0700F1E380534B1B789E0736
:1017F00000F1EA80514B1B781D0600F1F1804F4B40
:101800001B785C0600F1F8804C4B1B78980600F1C1
:10181000FF804A4B1B78590700F10681474B1B7824
:101820001A0700F10D81454B1B789B0700F11481CD
:101830003E4809F0F1F972B6414A4CF220534DF698
:1018400028112024138023461180013BFDD13D4DFA
:101850003D483E4900234FF480562E8003800B8084
:1018600032F80E3C9BB243F0D30322F80E3C62B632
:101870009D2007F015FF21463548364D08F036FF0C
:101880002A4809F0C9F905F1D0062F462C46601BFD
:1018900006F07AFF04F8010BB442F8D13B78112B23
:1018A00001D0FFF723FE042005F014FC2A4B2B483F
:1018B0002B4D00221A6005F0DFFB01210D2007F0FF
:1018C00049FAF96D2748FFF7DDFAB7F9CC30FA6C21
:1018D00097F848102348FFF7D7FA2348234B0468AA
:1018E00003941B682249234A039E006802901268F1
:1018F000214C2E6081FB0301DB172048A3EB211351
:101900000299216013FB02F3038005B0F0BD00BF14
:101910003487FF1FB4DAFF1FF0DCFF1F20A1070090
:1019200054DBFF1F34DBFF1FF40D0100D487FF1FC2
:10193000040E0100180E010001F0074000F00740FE
:101940000E200540042005400620054016200540D5
:101950001C0F0100DCD9FF1F8492FF1FFC92FF1FA8
:1019600034D9FF1FFC93FF1FFCDCFF1F5487FF1FB0
:101970001F85EB515087FF1F3CD9FF1FECDAFF1F7B
:101980002121394808F0B2FE384809F045F9384BB2
:101990001B781B077FF524AF0C21364808F0A6FE04
:1019A000324809F039F9324B1B785F077FF51DAFDC
:1019B0000E21314808F09AFE2C4809F02DF92C4BE5
:1019C0001B789E077FF516AF17212C4808F08EFE76
:1019D000264809F021F92A4B1B781D067FF50FAF29
:1019E0000E21284808F082FE204809F015F9244B02
:1019F0001B785C067FF508AF1221234808F076FEBD
:101A00001A4809F009F91E4B1B7898067FF501AFBB
:101A100013211E4808F06AFE144809F0FDF8184B1F
:101A20001B7859077FF5FAAE1C21194808F05EFEB5
:101A30000E4809F0F1F8124B1B781A077FF5F3AE48
:101A40001921144808F052FE084809F0E5F80C4B3B
:101A50001B789B077FF5ECAE18210F4808F046FE77
:101A6000024809F0D9F8E3E6300E0100D487FF1FE1
:101A700001F00740540E0100640E0100740E0100D5
:101A800000F007408C0E01009C0E0100B00E01001A
:101A9000C40E0100E40E0100000F010070B5464CB9
:101AA000464D4748E66800232B70FFF7C1F9014611
:101AB00030460AF0FBFD08B104232B704048FFF7C5
:101AC0008FF921690AF0F2FD18B12B7843F0100369
:101AD0002B703B48FFF764FAE16A0AF005FE18B183
:101AE0002B7843F040032B70002335486B70FFF7D1
:101AF00059FA216B314E0AF0D9FD08B101237370F8
:101B000000232F48EB70FFF793F905462C482B4E26
:101B1000FFF766F9014628460AF020FB616C0AF0DF
:101B2000E3FD08B10123F370264D254800232B70F7
:101B3000FFF77EF9A16A0646E0680AF00FFB01464E
:101B400030460AF0D1FD08B104232B701C48FFF782
:101B500047F9A16A064620690AF002FB01463046B1
:101B60000AF0A4FD18B12B7843F010032B70144831
:101B7000FFF716FA216C0646E06A0AF0EFFA014612
:101B800030460AF0B1FD18B12B7843F040032B70BA
:101B900000230B486B70FFF705FA216C0546206B9C
:101BA000084C0AF0DDFA014628460AF07FFD08B12C
:101BB0000123637070BD00BFDCD9FF1FC4D9FF1FB4
:101BC000FC93FF1F5092FF1F514B1B68002B74D0DA
:101BD000F0B5504D2B680533B3F57A7F83B040F3F1
:101BE0008E80002300272B604B4CD4F8AC000AF009
:101BF0006BFB0646D4F8B0000AF066FB31460AF0EB
:101C0000ADFA39460AF0B4FB44490AF065FC3146A6
:101C10000AF0A6FA0AF072FD0146062006F01AFF45
:101C200002213F4808F062FD3E4808F0F5FF06211A
:101C30003D4808F05BFD28680AF046FB3B490AF086
:101C400097FB09F0EBFE022602460B46009635484C
:101C500009F03AF80D21364808F048FDD4F8AC00F8
:101C60000AF032FB074628680AF02EFB2F490AF0DB
:101C70007FFB0546D4F8B0000AF026FB39460AF08F
:101C80006DFA014628460AF073FB24490AF024FC49
:101C900039460AF065FA09F0C1FE009602460B4685
:101CA000204809F011F831461D4808F01FFD1D4875
:101CB00003B0BDE8F04008F0AFBF174B1D4AD3F8A2
:101CC000AC10D3F8B03012685B1A632B0BDD1A48E6
:101CD00003FB02F380FB0302DB17C3EB621319441F
:101CE000062006F0B7BE154803FB022380FB030263
:101CF000DB17C3EB22121144062006F0ABBE1846D8
:101D00002B600AF0E1FA09490AF032FB07466BE75B
:101D10008092FF1FACDAFF1FDCD9FF1F0000C84212
:101D2000A0120100D487FF1F400F0100CDCCCC3D95
:101D3000480F01003087FF1F1F85EB51CBF08D2826
:101D400030B5B448B44C85B008F066FFB14808F02F
:101D500063FFB04808F060FF0D21B04808F0C6FCF2
:101D6000D4F8A830012B11D0AD4CAA48217800231B
:101D70000A2208F061FF2378052B67D8DFE813F00B
:101D8000310136013B01400145012C010921A548E3
:101D900008F0ACFCA448FFF723F821690AF086FCA0
:101DA00018B10F21A14808F0A1FC9F48FFF740F8A7
:101DB000E1680AF099FC18B10E219D4808F096FCE4
:101DC0009948FFF735F805469748FFF709F80146A7
:101DD00028460AF0C3F9616C0AF086FC18B111219B
:101DE000944808F083FC9048FFF774F8E16A0AF021
:101DF0007BFC18B10C21904808F078FC8A48FFF76A
:101E000069F8216B0AF052FC18B10D218B4808F0DB
:101E10006DFC8B4B84481B68012B00F07481FEF72E
:101E2000DFFF21697C4D0AF05FFC78B17E48FEF748
:101E3000FFFFE9680AF03AFC40B1794B1B78052BAB
:101E400000F0728108217F4808F050FC02217E4892
:101E500008F04CFC122006F083FF012800F01E81E0
:101E6000112006F07DFF012800F02281774B1C68CD
:101E7000012C00F0268102217348754C08F036FCD5
:101E8000744B6448196808F017FF624808F0C4FEF4
:101E90000421714808F02AFC0B2006F061FF0023A2
:101EA00001460A225B4808F0C7FE0C2006F058FFE6
:101EB000002301460A22574808F0BEFE142006F00F
:101EC0004FFF002301460A22524808F0B5FE1520B4
:101ED00006F046FF0A22002301464E4808F0ACFEF9
:101EE00006215E4808F002FC2368DD074FF001017F
:101EF0004CBF5B485B4808F0F9FB236898074FF03C
:101F000001014CBF5648574808F0F0FB23685A07B8
:101F10004FF001014CBF5248524808F0E7FB2368DC
:101F20001B074CBF4E484F48012108F0DFFB04213E
:101F30004D4808F0DBFB112006F012FF002301469C
:101F40000A22344808F078FE102006F009FF00232A
:101F500001460A222F4808F06FFE122006F000FF0B
:101F6000002301460A222B4808F066FE132006F0E3
:101F7000F7FE0A2200230146264808F05DFE1821DC
:101F80003A4808F0B3FB3A4B18680AF09DF9394912
:101F90000AF0EEF909F042FD002402460B460094D7
:101FA0001C4808F091FE1D21334808F09FFB334B7D
:101FB00018680AF089F92F490AF0DAF909F02EFDBC
:101FC000009402460B46134808F07EFE02212C487E
:101FD00008F08CFB05B030BD07212A4808F086FBCD
:101FE00034E70621284808F081FB2FE7072127481E
:101FF00008F07CFB2AE70721254808F077FB25E756
:102000000821244808F072FB20E70B21224808F041
:102010006DFB1BE7D487FF1FDCD9FF1F580F0100A2
:10202000D0D9FF1F680F0100FC93FF1F740F010040
:10203000840F0100940F0100A80F0100B80F0100E8
:102040008C92FF1FEC0F0100A0120100C8DAFF1FE5
:1020500024DBFF1F5C92FF1F641001006C10010065
:1020600074100100FC1E01007810010080100100B6
:102070007C92FF1FCDCCCC3D9C1001001CDBFF1FD0
:10208000BC10010028100100F80F01000010010031
:10209000141001001C100100081001000E21254839
:1020A00008F024FB112006F05BFE01287FF4DEAE71
:1020B0000A21214808F01AFB204B1C68012C7FF4F0
:1020C000DAAE11211E4808F011FB21461D4808F028
:1020D0000DFB1D4B1D4A1B680393039B1068C01A20
:1020E0000AF0EEF81A490AF043F909F097FC0025C6
:1020F00002460B460095174808F0E6FD21461148B8
:1021000008F0F4FAB7E6FEF76BFE616A0AF0ECFA43
:1021100000283FF497AE16210F4808F0E7FA0A218D
:102120000E4808F0E3FA91E60A210C4808F0DEFABE
:102130008CE600BF3010010040100100C8DAFF1F1C
:102140004C10010060100100FCDCFF1FF8DAFF1FDB
:102150006F12833AD487FF1FC80F0100E00F010000
:102160002DE9F04F904C914FD4F88430012B8DB075
:1021700000F04281032B52D08D4E8E4DD4F880302A
:102180008D48012B09BF2968296801F100412960A8
:1021900006F0ECF93368002B40F0C680864806F064
:1021A000BBF9D4F884303860012B064600F0C980B2
:1021B00082490AF099FA78B9814930460AF076FAEC
:1021C00050B9804A804B12680B920B9A1A60002318
:1021D0002B600DB0BDE8F08FDFF8E8817A4CD8F8BD
:1021E00000300A930A982368784FC01A0AF068F8FA
:1021F00031460AF0BDF876490AF06EF974490AF0E2
:102200006BF9396809F0ACFFD8F800300993099BE5
:102210002360002338602B600DB0BDE8F08FDFF83D
:10222000D0816C4DD8F80000614E012300220F21AF
:102230002B6005F01BFE2B68012B336800F0FA8041
:10224000002B40F07E81D8F80030DFF8A891D3F859
:102250008400436B19698DB2C9F8005005F08CFEFB
:10226000B4F8A22040F6E44303FB05F1B1FBF0F023
:10227000801A00B20AF028F857494E4D8246D4F829
:1022800098000AF075F8014650460AF025F9D9F889
:1022900000302860632BDFF85CA100F34581002348
:1022A0002B603368002B3FF469AF02214B4808F0E4
:1022B0001DFAD8F80030D9F80020D3F8840040F691
:1022C000E44303FB02F805F057FEB8FBF0F009F019
:1022D000F7FF8046B4F8A20009F0F6FF0146404639
:1022E00009F03CFF09F09AFB4FF0020802460B464A
:1022F000CDF800803A4808F0E7FC4146374808F03E
:10230000F5F9286809F08AFBCDF8008002460B46F3
:10231000334808F0D9FC4146324808F0E7F9414615
:102320002E4808F0E3F929E7234806F0F5F809F00C
:1023300075FB022602460B460096294808F0C4FCAD
:102340002CE7244B1B68012B00F03481022B7FF417
:102350003EAF25490AF0C8F930B9244930460AF0A1
:10236000A5F9002800F05581DFF85880164CD8F800
:102370000030079307982368144FC01A09F0A0FF94
:10238000314609F0F5FF12490AF0A6F810490AF0A3
:10239000A3F8396809F0E4FED8F800300693069BEC
:1023A0003860236013E700BFDCD9FF1FC8D9FF1FC7
:1023B000C0D9FF1F18DBFF1FCCDAFF1F0000FA4354
:1023C0000000FAC3FCDCFF1F5892FF1F04DBFF1F55
:1023D00000007A444887FF1F17B7D138A0120100C8
:1023E000D487FF1FFC10010000C82F4800A08CC636
:1023F00034DBFF1F40DBFF1F3D68A84928460AF079
:1024000055F930B12846A6490AF06EF900287FF444
:1024100006AFDFF8CC82A34DD8F80000A24E02230D
:1024200000220E212B6005F021FD2B68012B336863
:102430007FF406AF002B40F0F380D8F80030DFF8CF
:10244000B092D3F88400436B19691FFA81FBC9F875
:1024500000B005F091FDB4F8A030944D40F6E44A88
:102460000AFB0BFBBBFBF0F0C01A00B209F02CFF1B
:102470008F498346D4F89C0009F07AFF01465846FC
:102480000AF02AF8D8F80020D9F800302860D2F8ED
:1024900084000AFB03FA05F06FFDB4F8A030BAFB24
:1024A000F0F00FFA80FAC3EB0A03002BB4F8C22055
:1024B000B8BF5B429342BCBF00232B603368002B44
:1024C0003FF45CAE02217B4808F010F9D8F80030E8
:1024D000D9F80020D3F8840040F6E44303FB02F867
:1024E00005F04AFDB4F8A010B8FBF0F000B2411AB4
:1024F000714808F0E1FB02216E4808F0F7F82868FF
:1025000009F08CFA4FF0020802460B46CDF8008025
:10251000694808F0D9FB0321684808F0E7F841460C
:10252000644808F0E3F829E6D8F80030D3F88400CE
:1025300005F022FDDAF8003064389842FFF4AFAEBF
:10254000AFE65D48DFF8A891DFF894A108F064FBDE
:102550000C215B4808F0CAF80C215A4808F0C6F86C
:10256000D8F800203368D2F88400426B11698DB22C
:10257000C9F80050002B3FF471AE05F0FDFC40F6A9
:10258000E44100230A2201FB05F1B1FBF0F14A48C6
:1025900008F052FB0221474808F0A8F8B4F8A2104E
:1025A000454808F089FBDAF80030D9F80050D3F834
:1025B000840053E644490AF097F858B94349304635
:1025C0000AF074F830B9424A424B12680592059AF3
:1025D0001A60FCE5DFF8F8803E4CD8F80030049330
:1025E000049823683C4FC01A09F06AFE314609F08E
:1025F000BFFE3A4909F070FF384909F06DFF3968AC
:1026000009F0AEFDD8F800300393039B38602360D7
:10261000DDE52F4A2F4B12680892089A1A60D6E51A
:102620002548DFF8CC902E4D08F0F6FAD4F8843027
:10263000012B4FF00B010CBF2A482B4808F056F82D
:102640000C21204808F052F8D8F800203368D2F85E
:102650008400426B11691FFA81FBC9F800B0002B9E
:102660003FF4F7AE05F088FC40F6E44100230A226F
:1026700001FB0BF1B1FBF0F10F4808F0DDFA01218D
:102680001A4808F033F8B4F8A0100B4808F014FB0F
:102690002B68D9F800B0D3F88400DAE600709446CD
:1026A000007094C64887FF1FC0D9FF1F18DBFF1FAB
:1026B00017B7D138A0120100D487FF1FE81001001E
:1026C000EC100100D81001000000FA430000FAC32A
:1026D000FCDCFF1F5892FF1F04DBFF1F00007A4441
:1026E00034DBFF1FC0100100CC100100540F0100AB
:1026F00040DBFF1F2DE9F04F9B4D2B6885B0002B71
:102700007CD09A4CDFF86C82994FDFF8B092D4F805
:102710008830964E012B00F08C80D7F800A0D6F8B8
:1027200060B0F56D934E05FB0BF54FF47A7000FB2E
:1027300005F009F0C9FD90490546504609F018FE1C
:10274000294609F0C9FE8D4909F012FE09F0D6FFAD
:102750006328C8F800004CDD2846874909F0BCFE14
:10276000642338603360D9F80030002B3ED0D4F8B1
:1027700084307E4D012B00F08A80032B00F0E28034
:10278000022B00F0E68002217D4807F0AFFF7D4B71
:10279000186809F043F9022402460B4600947A486F
:1027A00008F092FA2146794807F0A0FF21467448C4
:1027B00007F09CFFD8F80010734808F07DFA062156
:1027C000734807F093FF38686B4909F0D1FD09F0B1
:1027D00025F9009402460B466B4808F075FA032170
:1027E0006C4807F083FF684808F016FA05B0BDE8AA
:1027F000F08F0028BCBF00233360B4E7664E5B4C0B
:1028000033680293029A42F228339A424CD83368D2
:102810000393039A42F210739A424ED8D4F8883048
:10282000DFF85081524FDFF89491504E012B7FF426
:1028300074AF5A48FEF7B8FB5949D6F870A0756FC7
:1028400009F096FD09F080FFB26FF36FD4F860B025
:10285000CAEB02025B1B80B29A42CAEB0000C6BF01
:1028600003FB00000132584390FBF2F02844E56D71
:1028700000FB0BF005FB00F000EB8000400009F0CE
:1028800023FD3D4909F028FE824638604AE7454B62
:102890001B68012B4FF00A010CBF4348434807F067
:1028A00025FFD5F8843068E73C48B4F9CC30E26CB9
:1028B00094F84810FEF7E8FAA9E73848FEF774FBE9
:1028C0003749276F666F09F053FD09F03DFFA26F8E
:1028D000E36FD21B9B1B80B29A42A0EB07003DDD49
:1028E00003FB0000531C90FBF3F31E44206EE36DCA
:1028F000DFF88080DFF8C490C8F8006000FB06F0C5
:1029000003FB00F000EB8000400009F0DDFC1A49F9
:10291000174F09F0E1FDD9F80030386001222A6034
:10292000002B3FF4F4AE0221154807F0DFFE1648F5
:1029300008F072F959211E4807F0D8FE124808F035
:102940006BF9E4E610211B4807F0D0FED4F8843080
:1029500016E70721184807F0C9FE14E703FB00F348
:1029600093FBF2F31E44C1E7BCDAFF1FDCD9FF1F63
:1029700004DBFF1F3087FF1FE4388E3E0000C84293
:10298000A0120100C8D9FF1FD487FF1FFC1001004F
:102990009011010098110100FCDCFF1FFC93FF1F48
:1029A00000007A444887FF1F5C1101006811010094
:1029B0000011010074110100881101002487FF1F1C
:1029C00030B5112083B006F0CBF9012818D01220C1
:1029D00006F0C6F9012813D000210B2006F0BAF941
:1029E00000210C2006F0B6F90021152006F0B2F9FE
:1029F0002649274B0120002208701A6003B030BD21
:102A00000121152006F0A6F9224A234C234B126817
:102A1000D4F88C1001921B68019A1D4D0B4493420F
:102A20004FF00201296005D901210C2006F092F92E
:102A300003B030BDD4F8940009F046FC184B196877
:102A400009F034FE0028EFD101210B2006F082F9B5
:102A500094F8C83003242C6043B10C4B02221A7046
:102A600000210C2006F076F903B030BD122006F0EC
:102A700077F9012808BF054B4FF0110008BF1C7003
:102A800006F06EF90128EBD1E7E700BFD0D9FF1FB0
:102A9000F892FF1FFCDCFF1FDCD9FF1F34D9FF1F9A
:102AA000C8D9FF1FF0B5684E684D34682B689C424A
:102AB00087B039D014F0010155D014F0020149D08B
:102AC00014F004013DD0E3070ED52B68DF070BD4CB
:102AD0005F4F3A68002A00F082805E4B1B680193CA
:102AE000019B93426DD83468A0070DD52B689907D8
:102AF0000AD4594F3A68002A4CD0564B1B680393AE
:102B0000039B934238D8346862070DD52B685B0766
:102B10000BD4524F3A68002A7ED04E4B1B68059367
:102B2000059B934268D834680CB107B0F0BD2146CC
:102B3000162005F08FFF2146172005F08BFF07B008
:102B4000F0BD052005F086FF2B68346803F0FB0319
:102B50002B60B8E7172005F07DFF2B68346803F081
:102B6000FD032B60ACE7162005F074FF2B6834687A
:102B700003F0FE032B60A0E7394B1720D3F8901029
:102B800005F068FF2B68346843F0020300222B60D5
:102B90003A60B9E7334808F03FF80C21324807F0B3
:102BA000A5FD304808F038F8FF21172005F052FF46
:102BB000284B2E4A19680291029912680A443A6019
:102BC0009CE7274B1620D3F8901005F043FF2B68A5
:102BD000346843F0010300222B603A6084E7FF2150
:102BE000162005F037FF1B4B204A19680091009909
:102BF00012680A443A6071E7194B0520D3F8901027
:102C000005F028FF2B68346843F0040300222B6092
:102C10003A60002C89D18AE7124807F0FDFF0C21A9
:102C2000134807F063FD0F4807F0F6FFFF2105206A
:102C300005F010FF074B0D4A1968049104991268BA
:102C40000A443A606AE700BFF892FF1F24DBFF1FC7
:102C5000B0DAFF1FFCDCFF1FC0DAFF1FC4DAFF1F62
:102C6000DCD9FF1FD487FF1F9C1101003887FF1F8D
:102C7000AC1101002DE9F047534EDFF87081336845
:102C8000DFF86C91D3F88400504D0F2105F0F2FB72
:102C90000023012222214E48C8F80030C9F8002044
:102CA00007F024FDD8F80030132B20DC40F6E44771
:102CB0003368B5F8A0A0D3F88400436B1C6905F015
:102CC0005BF9A4B2012107FB04F4B4FBF0F4414822
:102CD0005444A5F8A04007F009FD642006F076F8FA
:102CE000D8F800300133132BC8F80030E0DDB5F818
:102CF000A030394A3948A2FB03129B1A02EB530356
:102D0000C3F30F131946A5F8A03007F0D5FF1D2116
:102D1000334807F0EBFC0221324807F0E7FC2F486C
:102D200007F07AFF00231A460E213068C8F80030F9
:102D300005F09CF8022322212548C9F8003007F04D
:102D4000D5FCD8F80030132B20DC40F6E44733687C
:102D5000B5F8A290D3F88400436B1C6905F00CF918
:102D6000A4B2012107FB04F4B4FBF0F419484C446D
:102D7000A5F8A24007F0BAFC642006F027F8D8F8BE
:102D800000300133132BC8F80030E0DDB5F8A23075
:102D9000114A1248A2FB03129B1A02EB5303C3F31E
:102DA0000F131946A5F8A23007F086FF1D210E4823
:102DB00007F09CFC02210B4807F098FC0748BDE88F
:102DC000F04707F029BF00BF34DBFF1FDCD9FF1F2E
:102DD000BC1101000012010087611886D487FF1F13
:102DE000E0110100A0120100041201006492FF1F13
:102DF0004887FF1F2DE9F047C64DD5F8B830062BA0
:102E000000F0AE81C44BC54C1B68A86D40F2513137
:102E100008222160E271002B00F0778109F054FA5A
:102E2000696A064609F0A4FABD49BA4F09F0A0FA4A
:102E300009F08AFC80B203126372BA4ABA4B126874
:102E40001B68E9692072A37230461B121612E372E6
:102E50002273667309F08CFAB149B04E09F088FA12
:102E600009F072FC83B21A123146B048A373E273C0
:102E700004F054FEAE4AAF4B12681988A172D3B267
:102E8000237203EB83035B00237302EB820343F3A0
:102E9000D7134FEA212E12124FF008084FF0000905
:102EA00031466373A14884F80BE040F255336272F7
:102EB000236084F8078084F80E9084F80F9004F063
:102EC0002DFE40F256339C48236084F80780FDF7BE
:102ED000D5FF9A4909F04CFA09F036FC2072964861
:102EE000FDF7CCFF954909F043FA09F02DFC944A0F
:102EF0009249C0F307231068637209F0EDFA09F0F4
:102F0000FDFB40FA08F3A0728B48E372FDF7E2FF85
:102F1000834909F02DFA09F0F1FB20738648FDF78B
:102F2000D9FF7F4909F024FA09F0E8FB40F30720B4
:102F3000314660737D4884F80E9084F80F9004F059
:102F4000EDFD022005F042FF7E4A7F4B1178217291
:102F5000517890786172D178A0721A789878E1727D
:102F6000597822736173DA78A07340F25A3331468C
:102F70006E48E273236084F8078004F0CFFD734B42
:102F80006A481A7822725A7862729A78A272DA784B
:102F9000E2721A7922735A7962739A79DB79E37350
:102FA000314640F25E33A273236084F8078004F058
:102FB000B5FD022005F00AFF654B5C481A782272C5
:102FC0005A7862729A78A272DA78E2721A79227367
:102FD0005A7962739A79DB79E37331464FF45C7303
:102FE000236084F80780A27304F098FD594B1B6896
:102FF000012B00F06F82022005F0E8FE082640F267
:1030000073334D482360E671FDF7EAFE524909F03B
:10301000AFF909F099FB20724748FDF7E1FE4E49F0
:1030200009F0A6F909F090FBC0F307234248637248
:10303000FDF7FEFE484909F09BF909F085FBA072F7
:103040003D48FDF7F5FE444909F092F909F07CFB93
:10305000C0F307233848E372FDF7A4FF3F4909F0A6
:103060007FF809F071FB20733348FDF79BFF3B4964
:1030700009F076F809F068FBC0F307232E48637364
:10308000FDF78EFF354909F06BF809F05DFBA07381
:103090002948FDF785FF314909F062F809F054FB32
:1030A0001E49C0F307232148E37304F037FD0220D3
:1030B00005F08CFEE96D2B6E022211FB03F3104626
:1030C00040F27931C3F30725E27121602372657202
:1030D00005F07CFE40F2723317482360E671FDF77D
:1030E0003FFD20721448FDF73BFD002340FA06F235
:1030F0006272A372E37223736373A373E37307496A
:103100000A48BDE8F04704F009BD09F0DDF8A969F7
:10311000064687E6DCD9FF1F8C92FF1F6892FF1FCF
:10312000000020411CDBFF1F7C92FF1F54DBFF1FB0
:103130003087FF1F3687FF1FFC93FF1F0000C84228
:10314000C8D9FF1FC4D9FF1F5092FF1F5887FF1F08
:103150006087FF1FC8DAFF1F00007A44339388435B
:10316000CD4CCE48002608274FF4C36321464FF0CC
:1031700059094FF044084FF0420A236084F80A903E
:1031800084F80B80E771267226736673A673E67364
:1031900084F809A004F0C2FC022005F017FE4FF4E9
:1031A000BB632146BD48236084F80A9084F80B80F5
:1031B000E771267284F809A026736673A673E67316
:1031C00004F0ACFC022005F001FEE96D2A6ED5F892
:1031D00058E0B248E77101FB02F312FB01F203EB86
:1031E000C30103EB810302EBC2010EFB03F302EB0D
:1031F00081024FF4AB68032112FB0EF24FF0050C75
:103200003B414FF0070EC4F8008021724FF01209C5
:1032100021464FF0040884F80EC02373627384F8CB
:103220000FE0A67284F8099084F80B8004F076FC15
:10323000022005F0CBFD34224F234FF4B36E21461C
:103240009648E272E373C4F800E0E7712672667292
:1032500084F80A902673667384F80E8004F05EFC8E
:10326000022005F0B3FD8E4BE7711B68A86D4FF48B
:1032700056722260002B40F0658109F025F8A9699B
:10328000064609F075F8874909F072F809F05CFA0A
:1032900080B240FA07F360722372E969304609F0A0
:1032A00067F8804909F064F809F04EFA7E4B7F4ACE
:1032B0001B6812687849637385B216121B122F12AD
:1032C00076482373E273E572A772A67304F026FCB6
:1032D000022005F07BFD764A764B16681D88764BFA
:1032E00076491868E57206EB8603642202FB06F253
:1032F00003EB83039B0012122E124FF476770825FE
:1033000063722272A6722760E57109F031F809F044
:103310001BFA83B243FA05F70026F9225E495F489B
:103320006373A2732773E67304F0F8FB022005F0C1
:103330004DFD4FF48B604FF0120E56227823564904
:1033400020603427554884F80AE0A273E373E571DE
:103350002672667226736673E77204F0DFFB022042
:1033600005F034FD4FF4A36355482360E571FDF784
:1033700017FE4C4908F0FCFF09F0E6F9C0F30723FB
:103380004F482372FDF70CFE464908F0F1FF09F0A3
:10339000DBF960724A48FDF705FE424908F0E8FF94
:1033A00009F0D2F9C0F307234548A372FDF7FAFDEF
:1033B0003C4908F0DDFF09F0C7F9FF233649E07208
:1033C000364823736373A373E37304F0A7FB0220EF
:1033D00005F0FCFC4FF49B6339482360E571FDF771
:1033E0004DFD304908F0C4FF09F0AEF9C0F30723E2
:1033F00033482372FDF742FD2A4908F0B9FF09F06E
:10340000A3F9304B30496072186809F065F809F08B
:1034100075F940FA05F203462948A272E372FDF7F6
:1034200059FD204908F0A4FF09F068F940F307238B
:1034300023482373FDF74EFD1A4908F099FF09F060
:103440005DF90323607314491448A373E57304F012
:1034500065FB022005F0BAFC1C4A1D4B92F801E006
:103460009178D0781F785E7892F800C0E571DA78AC
:103470009D78A1724FF4AC73E07284F808C084F8B0
:1034800009E027736673A573E2732360024903485A
:10349000BDE8F04704F042BB6892FF1F54DBFF1FFA
:1034A0008C92FF1F000020411CDBFF1F7C92FF1F3E
:1034B0003087FF1F3687FF1F04DBFF1F620B363B81
:1034C000FC93FF1FC8D9FF1F0000C842C4D9FF1FCB
:1034D0005092FF1F2E48FDF783FC796D08F040FEE7
:1034E00081462B48FDF7A4FC0146484609F0DEF86A
:1034F00000283FF480AD40F2C333254886F80780AA
:103500003360FDF76DFC3F6D394609F0CFF848B3E5
:103510002049384608F02CFF09F016F980B240FA2D
:1035200008F37072337200230127042603221A491C
:103530001A48A772E67222736373A373E37304F0ED
:10354000EDFA58E508F0C0FE696A064608F010FF7B
:10355000134908F00DFF09F0F7F880B2031260720A
:1035600023729AE60A48FDF73BFC0A4908F000FF7F
:1035700009F0EAF8C0F3072305483372FDF730FC81
:10358000044908F0F5FE09F0DFF87072CBE700BFE0
:10359000FC93FF1F00007A446892FF1F54DBFF1F5B
:1035A0000000204138B5174C174A2368101D12F847
:1035B000011F904241EA0323F9D12360134C03F128
:1035C00000432360124BD3F88430022B11D0114BEF
:1035D0001B68012B00D038BD0F4807F01DFB216888
:1035E0000D4807F069FB03210C48BDE8384007F09F
:1035F0007DB820680A4D08F067FE2860FEF7B0FD30
:10360000E5E700BF20DBFF1F2BD9FF1FF092FF1F54
:10361000DCD9FF1F30DBFF1FD487FF1F30120100F2
:1036200018DBFF1F30B54A4C4A4883B0214604F0EE
:103630006DF9236840F2C23293426FD0A3F19A022F
:10364000E52A0AD903F47F63B3F5C07F424D14D055
:103650002B68012B20D003B030BD404B3E4D1B6882
:10366000012B53D000223A493D48FDF79FFA2368C9
:1036700003F47F63B3F5C07FEAD1384B34491B684C
:103680003748012B374B93F8CA3043D00022FDF75F
:103690006BFA2B68012BDED1304B1B68012BDAD182
:1036A000314B32481B6801930A220023019907F02D
:1036B000C3FA2268264B002ADB7942DB2C492D48CD
:1036C00009F01EFE2B4809F05BFE0146294807F071
:1036D0000DF825681E4B15F0804523D1DB798BB1A1
:1036E000631925491A7A234809F00AFE214809F08E
:1036F00047FE01461F4806F0F9FF0135E379EDB2B8
:10370000AB42EDD8194807F087FAA4E72A68012AE6
:10371000A8D1A8E72A68012AB8D1B8E7FFF742FF85
:1037200023688BE7154D134C0FCD0FC495E80300AC
:1037300044F8040B204620F81419152106F0D6FF92
:10374000E0E70F490B4822F0604209F0D9FDB9E7E4
:1037500024D9FF1F54DBFF1F2487FF1F30DBFF1F0F
:10376000FC93FF1FDCD9FF1FFCDCFF1FD487FF1F6A
:103770005C12010040D9FF1F881201007012010085
:10378000341201009A4B1B78052B00F09B802DE929
:10379000F04F984C984E994DE26E636E98483260A7
:1037A00083B02B60FDF7FEFB216B08F07FFF08B1B3
:1037B00000232B609248FDF7F3FBE16A08F094FFC9
:1037C00010B1002333602B608D48FDF731FBE168B9
:1037D00008F08AFF08B100232B608948FDF728FB19
:1037E000E16808F081FF08B100232B608448814F15
:1037F000FDF7F6FA216908F059FF002868D0002388
:1038000033602B687D4F002B4DDD7D48DFF8E48170
:10381000FDF7C8FBA16B08F049FF002840F0B48019
:10382000784B77481B68734F012B00F0ED80FDF754
:10383000FFFA216A8046A06908F090FC01464046E4
:1038400008F052FF00282ED0286808F03DFD814680
:103850006B48FDF7EDFABC69396A8246204608F0EC
:103860007DFCBB6E8046786EC01A08F02DFD414687
:103870000746504608F072FC0146384608F078FDCD
:1038800041460746204608F069FC0146384608F0E4
:1038900023FE002108F064FC0146484608F05EFC67
:1038A00008F02CFF28603368534A002BAFBF2B6809
:1038B0002B6800211160002B01DA00232B6003B07C
:1038C000BDE8F08F4C494D4A00230B6013607047F0
:1038D0004B48FDF785FAF96908F0E8FE00288ED11B
:1038E0003368DFF81491002B8BDD4548FDF758FB5A
:1038F000F96B08F0F9FE002840F0CA804048DFF874
:10390000F480FDF76DFAD4F8C4100746E06908F0BA
:1039100027FC0146384608F0C9FE00283FF471AF85
:10392000306808F0D1FC82463548FDF759FA8346E5
:10393000D8F86C00D8F81C7008F0C6FC39468146EF
:10394000584608F00BFC49468346002008F006FC68
:103950000146584608F00CFDD8F8C4108346384696
:1039600008F0FEFB394608F0F9FB0146584608F01E
:10397000B3FD494608F0F4FB0146504608F0EEFB63
:1039800008F0BCFE30603CE7386808F09DFC8346D8
:103990001B48FDF707FB0190D8F86400D8F830A069
:1039A00008F092FC019B81465146184608F0D6FB70
:1039B00049460190002008F0D1FB019B01461846C2
:1039C00008F0D6FC51460190D8F8380008F0C6FB44
:1039D000019B0146184608F07FFD494608F0C0FBF0
:1039E0000146584608F0BAFB08F088FE386017E731
:1039F000D0D9FF1FDCD9FF1F1CDBFF1F7C92FF1FEC
:103A0000FC93FF1F8C92FF1FFDF712FA216A80467C
:103A1000606A08F0A3FB0146404608F065FE0028F6
:103A20003FF441AF286808F04FFC82462F48FDF76D
:103A3000FFF9D7F82480396A8346404608F08EFBA8
:103A40008146B86E08F040FC0446786E08F03CFCF5
:103A5000214608F083FB49460746584608F07EFB9E
:103A60000146384608F084FC49460746404608F0BF
:103A700075FB0146384608F02FFD214608F070FB23
:103A80000146504608F06AFB08F038FE28600AE755
:103A9000D9F8000008F018FC82461448FDF780FAB7
:103AA0000190F86ED7F83C8008F00EFC019B83462D
:103AB0004146184608F052FB0146584608F058FCAB
:103AC00041468346F86A08F049FB0146584608F02B
:103AD00003FD002108F044FB0146504608F03EFB80
:103AE00008F00CFEC9F8000008E700BFFC93FF1FB8
:103AF00008B5274807F090F80721264806F0F6FD9C
:103B0000112005F02DF90621F8B1234806F0EEFD4D
:103B1000102005F025F9062100B3204806F0E6FD47
:103B2000122005F01DF9062108B31D4806F0DEFD40
:103B3000132005F015F9062110BB1A4806F0D6FD32
:103B40001348BDE8084007F067B8174806F0CEFDF7
:103B5000102005F005F906210028DED1134806F0F3
:103B6000C5FD122005F0FCF806210028DDD1104823
:103B700006F0BCFD132005F0F3F806210028DCD088
:103B80000C4806F0B3FD0248BDE8084007F044B811
:103B9000D487FF1F941201009C120100AC12010097
:103BA000BC120100D4120100A4120100B4120100E1
:103BB000C4120100CC12010010B5254C2368042B5F
:103BC00027DC01210B2005F0C5F801210C2005F0B0
:103BD000C1F80121142005F0BDF80121152005F0E0
:103BE000B9F8FF21162004F035FFFF21172004F05B
:103BF00031FFFF21052004F02DFFFF21062004F0F6
:103C000029FF236801330A2B2360C4BF00232360EC
:103C100010BD00210B2005F09DF800210C2005F0BF
:103C200099F80021142005F095F80021152005F0E1
:103C300091F80021162004F00DFF0021172004F058
:103C400009FF0021052004F005FF0021D6E700BF91
:103C50005492FF1F30B5092183B0AE4805F096FBA2
:103C6000222005F03BFBAC4BD3F8A830012BAB4B2B
:103C70001B7809D0052B10D8DFE813F02D01320195
:103C80003C01410137010B00002B00F03D81052B69
:103C900003D10721A24805F079FB222005F01EFB85
:103CA000FF2005F01BFBFF2005F018FB9D4CFF20BB
:103CB00005F014FB08219C4805F068FB21689B482F
:103CC00006F0FAFFFF2005F009FBFF2005F006FBD8
:103CD000FF2005F003FB0921954805F057FB2168FB
:103CE000924806F0E9FFFF2005F0F8FAFF2005F002
:103CF000F5FAFF2005F0F2FA0C218E4805F046FB9C
:103D00008D4B8E49186808F0E7FB07F087FE00240A
:103D100002460B460094854806F0D6FFFF2005F0CA
:103D2000DDFAFF2005F0DAFAFF2005F0D7FA0921C5
:103D3000834805F02BFB8348FDF7CCF807F06EFEB7
:103D4000009402460B46794806F0BEFFFF2005F0BE
:103D5000C5FAFF2005F0C2FAFF2005F0BFFA0C21DA
:103D6000794805F013FB7748FDF71CF907F056FE7C
:103D7000009402460B466D4806F0A6FFFF2005F0B2
:103D8000ADFAFF2005F0AAFAFF2005F0A7FA0D21F1
:103D90006E4805F0FBFA6B48FDF702F907F03EFEAE
:103DA000009402460B46614806F08EFFFF2005F0A6
:103DB00095FAFF2005F092FAFF2005F08FFA09210D
:103DC000634805F0E3FA5F48FDF758F8614908F0E9
:103DD000CFFA07F023FE009402460B46534806F044
:103DE00073FFFF2005F07AFAFF2005F077FAFF2035
:103DF00005F074FA0C21584805F0C8FA5148FCF750
:103E0000EFFF564908F0B4FA07F008FE00940246A6
:103E10000B46464806F058FFFF2005F05FFAFF20EA
:103E200005F05CFAFF2005F059FA0D214C4805F029
:103E3000ADFA4448FCF7FCFF484908F099FA07F04E
:103E4000EDFD009402460B46384806F03DFFFF208A
:103E500005F044FAFF2005F041FAFF2005F03EFA94
:103E60000921404805F092FA3F4B3048196806F0A6
:103E700023FFFF2005F032FAFF2005F02FFAFF2084
:103E800005F02CFA0E21394805F080FA2D48FCF790
:103E9000CFFF05462B48FCF7A3FF0146284608F054
:103EA0005DF92E4908F064FA07F0B8FD0094024667
:103EB0000B461E4806F008FFFF2005F00FFAFF2012
:103EC00005F00CFAFF2005F009FAFF2003B0BDE869
:103ED000304005F003BA0621254805F057FADCE624
:103EE0000721244805F052FAD7E60B21224805F0B5
:103EF0004DFAD2E60721214805F048FACDE608211F
:103F00001F4805F043FAC8E608211E4805F03EFAAE
:103F1000C3E600BFDC120100DCD9FF1FD0D9FF1FB0
:103F2000281001003087FF1FF4120100C487FF1F13
:103F3000001301000C130100C8D9FF1F0000C84284
:103F40001C130100FC93FF1F28130100381301000C
:103F500048130100000020415413010000007A447E
:103F600064130100741301004487FF1F80130100D4
:103F7000F80F0100001001000810010014100100EA
:103F80001C100100E81201002DE9F0418D4DD5F81B
:103F9000B830042B3ED0032B6ED0012B00F098805C
:103FA000022B01D0BDE8F081874C8848237240F293
:103FB0000E32012321462260E37103F0AFFD844BF2
:103FC0001B685B00FF2BC8BFFF23042140224FF476
:103FD00041702060E17122726372A86D08F074F97B
:103FE000A96908F0C5F97B49054608F07DFB002862
:103FF00000F0DE802946284608F0B2F808F0A4FB5D
:1040000080B20312E072A3726F497048BDE8F041BC
:1040100003F084BD6C4C704AA379226043F0010325
:104020000822E271A371A86D08F04EF9A96908F0A1
:104030009FF96A4908F09CF908F086FB644B684ACE
:104040001B68126893FBF2F380B200261A12071263
:10405000607221465D48E372A2722772267366730E
:10406000A673E67303F05AFDA279D5F8B83066F36B
:104070000002032BA27190D1534CA86DA3720122B0
:10408000E823072140F2FF26227263722660E17165
:1040900008F01AF9A96908F06BF9504908F068F9B5
:1040A00008F052FB4A4B4E4A1B68126893FBF2F32E
:1040B00082B21E121712214644486373E2722773BC
:1040C000A67303F02BFDD5F8B830012B7FF468AF51
:1040D000444B3D4C1B682360072280231020E27173
:1040E000237204F03DFE002869D13F4B1B68DFF8C6
:1040F000E0803B4FA86D344E03EB83035B001A1244
:10410000A3726272D8F800303A6893FBF2F31A1285
:104110006273A37308F0D8F8A96908F029F9334B42
:10412000196808F01BF82D4908F022F908F00CFB7B
:1041300080B20312314620732448E37203F0EEFC90
:10414000022004F043FE2A4B1B68236007228023D1
:104150001020E271237204F003FE70BB224B1B6837
:10416000A86D03EB83035B001A127272B37208F03E
:10417000ABF8A96908F0FCF81E4B196807F0EEFFD0
:10418000164908F0F5F808F0DFFA82B2161238681E
:10419000D8F80030227393FBF0F30B490B48A3735C
:1041A0001A12E672627303F0B9FCD5F8B830F7E67C
:1041B00001229023A272E37226E70F4BCFE70E4B4A
:1041C00094E700BFDCD9FF1F6892FF1F54DBFF1F7D
:1041D0007C92FF1F00004843F4E5061800002041D0
:1041E0002C87FF1F6887FF1F2887FF1F7892FF1FFC
:1041F0006C87FF1F08DBFF1F3C87FF1F70B503683C
:10420000C57984B0012D8DF805304FEA13230E4691
:104210008DF8043005F1010201A909DD07300D44D4
:104220000DF1050310F8014F03F8014FAB42F9D12E
:10423000034B04489B5D02F03BFF04B070BD00BF20
:10424000201F0100FC92FF1FF0B40D4B0D489C791C
:104250000822FF27CD26A225DA710022B0216FF3B4
:1042600000041F729E72DD725A721A735A739A7327
:10427000DA7319609C711946F0BC03F04FBC00BFA3
:104280006892FF1F54DBFF1F2DE9F043604D2B7830
:10429000062B83B06FD05F4B5F4E1B78DFF8A88191
:1042A000002B45D02B785D4C5D4F43F080030821F7
:1042B00000222360E1713A60C722102322726372E8
:1042C00098F8003055490022022BA272E2720BD8F6
:1042D00033784A734FEA03134FF02002DBB20A73BC
:1042E0000DD104338B730BE03B68012B0CBF4823CB
:1042F00040230B73337801221B01DBB26273A3737B
:1043000029784648FFF77AFFE073022004F05EFD4B
:104310004249444803F002FC2B78434801332B7098
:10432000FCF7DAFB08B1FFF78FFF03B0BDE8F083BD
:104330003B4F2B78396843F08003384C0822012921
:104340002360E271B8D13848FCF74AFD374908F0DC
:104350000FF808F0F9F900F10A0333482372FCF76B
:104360003FFD324908F004F808F0EEF980B20A3057
:1043700000126072A4E7284EDFF8CC80337898F8FA
:1043800000200133032ADBB298BF01324FF0000155
:1043900098BF88F800200F2B3370297002D01D4B76
:1043A0001B787DE7224F234C3B680093009A2168DD
:1043B00000239142337015D21F4BDFF858901A68D2
:1043C00001239A4289F8003012D01C4A39680191C1
:1043D000B2F8A410019A3C314FF47A7000FB01222C
:1043E00022605DE70B4A0E4F137039688023A4E703
:1043F000134806F011FC1321124806F077F9104813
:1044000006F00AFC0E4806F007FC99F80030DCE7DD
:104410002CDBFF1F14DBFF1F0CDBFF1F6892FF1F4D
:10442000C8DAFF1F54DBFF1FFC93FF1F00007A4414
:10443000FCDCFF1FF8DAFF1F2487FF1FDCD9FF1FFA
:10444000D487FF1F9013010038DBFF1F2DE9F041D7
:10445000AE4CAF4D82B006F0E3F823682860042B21
:1044600000F05683022B00F0C280082B48D0072BA7
:1044700040F07481332801F00B8600F3DB83312890
:1044800001F0F085322840F00F8206F005F900288F
:1044900040F362819F48A04E06F050FD07F014FFE4
:1044A0009E4907F065FF61230122706422602B6042
:1044B0001846A0F152031F2B00F2F681DFE813F03B
:1044C000B60DF401F401F401F401F401F401F40176
:1044D000F401F401F401F401F401F401F4010E0417
:1044E000F40E93052C06FE04F401F401F40181049A
:1044F000F401F10EF401F401F401F401F401BB0D37
:10450000322800F0AA8340F3CD83342800F0C18321
:10451000712840F0C9810022732322602B60236838
:10452000002B40F0C4817E4E7A4806F075FB0421D2
:104530007C4806F0DBF8774806F06EFB10217A48DD
:1045400006F0D4F8734806F067FB1321774806F0AD
:10455000CDF8774B6F48196806F0AEFB6D4806F052
:104560005BFB1421734806F0C1F86A4806F054FB5F
:104570001E21714806F0BAF8664806F04DFB152179
:104580006E4806F0B3F8634806F046FB1E216C48FF
:1045900006F0ACF85F4806F03FFB2021694806F0C2
:1045A000A5F85C4806F038FB1921674806F09EF82C
:1045B000584806F031FB1221644806F097F8554838
:1045C00006F02AFB0F21624806F090F8514806F0E9
:1045D00023FB0D215F4806F089F84E4806F01CFBCE
:1045E000002201233260236002B0BDE8F081A0F117
:1045F0003103422B00F2588101A252F823F000BF90
:10460000D5550000F15500000D560000275600005A
:104610005956000077560000A9480000A94800003C
:10462000A9480000A9480000A9480000A9480000C6
:10463000A9480000A9480000A9480000A9480000B6
:10464000A9480000A9480000A9480000A9480000A6
:10465000A9480000A9480000A9480000A948000096
:10466000A9480000A9480000A9480000A948000086
:10467000A9480000A9480000A9480000A948000076
:10468000A9480000A9480000A9480000A948000066
:10469000A9480000A9480000A9480000A948000056
:1046A000A9480000A9480000A9480000A948000046
:1046B000A9480000A9480000A9480000A948000036
:1046C000A9480000A94800004D560000A948000074
:1046D000A9480000A9480000A9480000A948000016
:1046E000A9480000A9480000A9480000A948000006
:1046F000A9480000A9480000A9480000A9480000F6
:1047000017450000A9480000B75500003CDBFF1F1B
:1047100020D9FF1FD487FF1FDCD9FF1F6F12833AF8
:104720002487FF1F60170100681701007C17010034
:104730004487FF1F90170100A8170100C817010048
:10474000E0170100001801002418010040180100C2
:10475000541801006418010023682868062B40F0F3
:10476000AB80A0F13103402B00F29E8001A252F8F1
:1047700023F000BFA1540000CD5400007555000087
:10478000F95400001F5500003D5500006155000020
:10479000A9480000A9480000A9480000A948000055
:1047A000A9480000A9480000A9480000A948000045
:1047B000A9480000A9480000A9480000A948000035
:1047C000A9480000A9480000A9480000A948000025
:1047D000A9480000A9480000A9480000A948000015
:1047E000A9480000A9480000A9480000A948000005
:1047F000A9480000A9480000A9480000A9480000F5
:10480000A9480000A9480000A9480000A9480000E4
:10481000A9480000A9480000A9480000A9480000D4
:10482000A9480000A9480000A9480000A9480000C4
:10483000A9480000A9480000A9480000A9480000B4
:10484000A9480000A9480000A9480000A9480000A4
:10485000A9480000A9480000A9480000A948000094
:10486000A9480000A9480000A9480000A948000084
:10487000A94800001745000005F00EFF002841F38D
:10488000EA83E948E94E06F059FB01270346014651
:104890006222E748F36527602A60FCF7F3FA236891
:1048A0002868012B3FF405AE73283FF438AE02B000
:1048B000BDE8F08123682868052B40F08B80A0F1CB
:1048C0003103402BF0D801A252F823F0915300009D
:1048D000B1530000D1530000F153000079520000A1
:1048E00077530000A9480000A9480000A94800002B
:1048F000A9480000A9480000A9480000A9480000F4
:10490000A9480000A9480000A9480000A9480000E3
:10491000A9480000A9480000A9480000A9480000D3
:10492000A9480000A9480000A9480000A9480000C3
:10493000A9480000A9480000A9480000A9480000B3
:10494000A9480000A9480000A9480000A9480000A3
:10495000A9480000A9480000A9480000A948000093
:10496000A9480000A9480000A9480000A948000083
:10497000A9480000A9480000A9480000A948000073
:10498000A9480000A9480000A9480000A948000063
:10499000A9480000A9480000A9480000A948000053
:1049A000A9480000A9480000A9480000A948000043
:1049B000A9480000A9480000A9480000A948000033
:1049C000A9480000A9480000A94800000D540000B3
:1049D00023682868032B7FF464AFA0F13003482BD1
:1049E0003FF662AF01A252F823F000BF7948000001
:1049F000195E0000415E0000695E0000C95E0000B3
:104A0000EB5E0000135F00003B5F0000595F000099
:104A1000A75C0000A9480000A9480000A9480000C0
:104A2000A9480000A9480000A9480000A9480000C2
:104A3000A9480000A9480000A9480000A9480000B2
:104A4000A9480000A9480000A9480000A9480000A2
:104A5000A9480000A9480000A9480000A948000092
:104A6000A9480000A9480000A9480000A948000082
:104A7000A9480000A9480000A9480000A948000072
:104A8000A9480000A9480000A9480000A948000062
:104A9000A9480000A9480000A9480000A948000052
:104AA000A9480000A9480000A9480000A948000042
:104AB000CF5C0000ED5C00000B5D0000295D000094
:104AC000475D0000655D000099570000BD5700007C
:104AD000A9480000E3570000D15D0000A94800008C
:104AE000A9480000A9480000A9480000A948000002
:104AF00017450000F95D0000A9480000A948000022
:104B0000A9480000A9480000A9480000BB5D0000BA
:104B1000A0F13103412B3FF6C7AE01A252F823F0BA
:104B200051570000555700009B560000C756000023
:104B3000DF560000FB5600000D5700001157000023
:104B400015570000A9480000A9480000A948000026
:104B5000A9480000A9480000A9480000A948000091
:104B6000A9480000A9480000A9480000A948000081
:104B7000A9480000A9480000A9480000A948000071
:104B8000A9480000A9480000A9480000A948000061
:104B9000A9480000A9480000A9480000A948000051
:104BA000A9480000A9480000A9480000A948000041
:104BB000A9480000A9480000A9480000A948000031
:104BC000A9480000A9480000A9480000A948000021
:104BD000A9480000A9480000A9480000A948000011
:104BE000A948000037570000A9480000A948000064
:104BF000A9480000A9480000A9480000A9480000F1
:104C0000A9480000A9480000A9480000A9480000E0
:104C1000A9480000A9480000A9480000A9480000D0
:104C20001745000059570000D487FF1FDCD9FF1F2C
:104C3000FC93FF1F34287FF46BAC05F02DFD00289A
:104C40007FF78AAD8A488B4E06F078F961230122FE
:104C5000B08622602B6018462BE405F01DFD00286D
:104C60001CDD8348834E06F069F907F02DFB82496D
:104C700007F07EFBB6F9CC3096F84810074602469E
:104C80007E48F764FCF700F901236920236028605F
:104C90000FE405F001FD002800F37F8423682868F5
:104CA000FFF7E5BB31287FF4FFAD05F0F5FC0028E8
:104CB00040F3EE846E486F4E06F040F9C0B286F8BD
:104CC000480002288ABF0021014686F84810B6F93C
:104CD000CC30F26C6948D5E705F0A2FC05F0DCFCAD
:104CE00005460028F8D16248624E05F095FF6048FD
:104CF00005F092FF5E4805F08FFF5D4805F08CFFE0
:104D00005B4805F089FF1F215D4805F0EFFC58481E
:104D100005F082FF1C215B4805F0E8FCB06A5A49A7
:104D200007F026FB06F07AFE009502460B46504837
:104D300005F0CAFF0221554805F0D8FC4C4805F0A3
:104D40006BFF2321524805F0D1FC706C4E4907F0EF
:104D50000FFB06F063FE009502460B46444805F043
:104D6000B3FF0221494805F0C1FC414805F054FF5A
:104D70001921484805F0BAFC306C06F04FFE0225B8
:104D80000B46024600953A4805F09EFF29464248E8
:104D900005F0ACFC364805F03FFF22213F4805F006
:104DA000A5FCB18E324805F087FF03213C4805F091
:104DB0009DFC2F4805F030FF0723236077E505F0C1
:104DC0002FFC05F069FC05460028F8D12848294E3B
:104DD00005F022FF264805F01FFF254805F01CFFBF
:104DE000234805F019FF224805F016FF15212D482C
:104DF00005F07CFC1E4805F00FFF18212A4805F03D
:104E000075FC2B460A2296F84810194805F014FF45
:104E1000174805F001FF2821244805F067FCF06CD5
:104E2000194907F0A5FA06F0F9FD00950B46024670
:104E30000F4805F049FF0221144805F057FC0C48C3
:104E400005F0EAFE18211A4805F050FCB6F9CC101E
:104E5000074805F031FF064805F0DEFE132115482E
:104E600005F044FC024805F0D7FE082323601EE548
:104E7000D487FF1FDCD9FF1F6F12833AFC93FF1FFB
:104E8000A8150100C815010000007A4410140100A3
:104E9000E81501000C160100281601002C1601006F
:104EA0005016010028180100C8130100E413010086
:104EB000141401003014010005F0B2FB05F0ECFB06
:104EC00005460028F8D17F487F4E05F0A5FE7D48B5
:104ED00005F0A2FE7B4805F09FFE7A4805F09CFE97
:104EE000784805F099FE1121784805F0FFFB7548D8
:104EF00005F092FE2821764805F0F8FBB069754967
:104F000007F036FA06F08AFD009502460B466D481A
:104F100005F0DAFE0221704805F0E8FB694805F06B
:104F20007BFE16216D4805F0E1FB306A694907F008
:104F30001FFA06F073FD00950B460246614805F026
:104F4000C3FE0221644805F0D1FB5E4805F064FE13
:104F5000D6F8B830002B32DD1D21614805F0C6FBC4
:104F6000706E07F0B1F95F4907F002FA06F056FDDE
:104F7000022502460B460095524805F0A5FE012188
:104F8000594805F0B3FB4F4805F046FE1F2157482E
:104F900005F0ACFBB06E07F097F9524907F0E8F95D
:104FA00006F03CFD009502460B46464805F08CFE97
:104FB00001214D4805F09AFB424805F02DFE1121D4
:104FC0004B4805F093FBD6F8B830062B00F2D98792
:104FD000DFE813F00E081308D307270822081D087E
:104FE000180805F01DFB05F057FB0028F9D13548DE
:104FF000354E05F011FE334805F00EFE314805F040
:105000000BFE304805F008FE2E4805F005FE1F2176
:10501000384805F06BFB2B4805F0FEFD1E21364895
:1050200005F064FB274805F0F7FD1A21334805F029
:105030005DFBD6F88430022B01F09580032B01F044
:105040008980012B01F07D8009212D4805F04EFB60
:105050001C4805F0E1FD14212A481B4F05F046FBD2
:10506000D6F88010174805F027FE164805F0D4FD45
:105070001C21254805F03AFBD6F88810114805F0A8
:105080001BFE104805F0C8FD1C21204805F02EFB32
:10509000D6F8B4100B4805F00FFE0A4805F0BCFD29
:1050A000D6F8845025F00205012D01F0118013215E
:1050B000174805F01BFB034805F0AEFD02232360F3
:1050C000FFF7F5BBD487FF1FDCD9FF1FCC1701000A
:1050D0004414010000007A4410140100701401000F
:1050E00088140100CDCCCC3DE81A0100A8140100C1
:1050F000C8140100A8190100C8190100E81901002D
:10510000601A01006C1A0100841A0100A41A01003F
:105110003014010005F084FA05F0BEFA0028F9D138
:10512000BE48BF4D05F078FDBC4805F075FDBB4895
:1051300005F072FDB94805F06FFDB84805F06CFD4B
:105140001321B84805F0D2FAB44805F065FD0D21E9
:10515000B54805F0CBFAB14805F05EFD0F21B34824
:1051600005F0C4FAB24BAD48196805F0A5FDAB488F
:1051700005F052FD1321AF4805F0B8FAAE4BA74831
:10518000196805F099FDA54805F046FD1221AB48C8
:1051900005F0ACFAAA4BA148196805F08DFD9F48AF
:1051A00005F03AFD1121A74805F0A0FAA64B9B484F
:1051B000196805F081FD994805F02EFD0E21A348E0
:1051C00005F094FAD5F8A810944805F075FD9348B9
:1051D00005F022FD19219E4805F088FA9D4B8F4865
:1051E000196805F069FD8D4805F016FD11219A48F2
:1051F00005F07CFA994B8948196805F05DFD8748F0
:1052000005F00AFD1021964805F070FA954B834889
:10521000196805F051FD814805F0FEFC1C219248FB
:1052200005F064FA914B7D48196805F045FD7B480F
:1052300005F0F2FC16218E4805F058FAB5F8A410D6
:10524000764805F039FD1E218A4805F04FFA73486B
:1052500005F0E2FC1721884805F048FA6F4805F090
:10526000DBFC1321854805F041FA6C4805F0D4FCBD
:1052700004232360FFF71BBB05F00EFA00287FF71D
:10528000A7AB6648664E05F059FE744BC6F8B000F1
:1052900003221A60FCF798FC01226B2322602B602A
:1052A00001E005F0BDF905F0F7F90028F9D15B48F8
:1052B0005B4D05F0B1FC594805F0AEFC574805F0D0
:1052C000ABFC564805F0A8FC544805F0A5FC21218C
:1052D0006B4805F00BFA514805F09EFC1521694812
:1052E00005F004FAD6F88C104C4805F0E5FC0221D4
:1052F000654805F0FBF9494805F08EFC1E2163481E
:1053000005F0F4F9D6F89410444805F0D5FC0321D3
:105310005F4805F0EBF9414805F07EFC1E215D4831
:1053200005F0E4F9D6F890103C4805F0C5FC3B4880
:1053300005F072FC1D21584805F0D8F9D6F8AC10DC
:10534000364805F0B9FC354805F066FC1E21534887
:1053500005F0CCF9D6F8B010304805F0ADFC2F4878
:1053600005F05AFCD6F8A830012B00F01B87052366
:105370002360FFF79CBA2A4E96F8C930B3FA83F33C
:105380005B0901216B2286F8C93021602A608AE717
:1053900005F082F900287FF71BAB2048204E05F06E
:1053A000CDFD01226B23C6F88C0022602B607AE7CA
:1053B00005F072F900287FF70BAB1848184E05F07E
:1053C000BDFD01226B23C6F8940022602B606AE7C2
:1053D00005F062F900287FF7FBAA1048104E05F08F
:1053E000ADFD01226B23C6F8900022602B605AE7C6
:1053F00005F052F900287FF7EBAA0848084E05F09F
:105400009DFD164BC6F8AC00022242E7134900236B
:1054100073220B6023602A60FFF781B8D487FF1FD7
:10542000DCD9FF1F741801008818010098180100CA
:1054300030DBFF1FA8180100C0D9FF1FBC180100F6
:10544000F4DAFF1FD0180100D4D9FF1FE4180100BF
:10545000F41801005C92FF1F101901008092FF1FD9
:10546000241901004C92FF1F381901004087FF1FCB
:105470005819010070190100901901003014010041
:1054800054160100781601005C1501009016010009
:10549000E8100100B0160100D0160100F01601005E
:1054A00005F0FAF800287FF705AAAE48AE4E05F0E1
:1054B00045FD06F009FFAD4907F00EF8652301220E
:1054C000B06122602B601846FEF7F3BF05F0E4F8E8
:1054D00000287FF7EFA9A348A34E05F02FFD06F0A3
:1054E000F3FEA24906F0F8FF652301223062226034
:1054F0002B601846FEF7DDBF05F0CEF800287FF7D9
:10550000D9A99848984E05F019FD00EB800043009A
:1055100001226520B36622602860FEF7CABF924A66
:10552000D2F8B8300133062BC8BF0023C2F8B83018
:105530000123652023602860FEF7BBBF05F0ACF8AF
:1055400000287FF7B7A98748874E05F0F7FC652349
:105550000122C6F8BC0022602B601846FEF7A9BFE6
:10556000814B93F8C820002A00F0A585002283F81B
:10557000C820DDE705F090F800287FF79BA979485F
:10558000794E05F0DBFC00EB800043000122652032
:10559000736622602860FEF78CBF7248724E05F079
:1055A000CDFC07B23B46F26C96F848107048A6F85E
:1055B000CC70FFF767BB6C4AD2F884300133032B01
:1055C000C8BF0023C2F88430012363202360286011
:1055D000FEF76FBF644ED6F88030B3FA83F35B09F1
:1055E00001226320C6F8803022602860FEF761BF88
:1055F0005D4ED6F88830B3FA83F35B09012263204D
:10560000C6F8883022602860FEF753BF012323606C
:1056100005F042F80028D7DD5248534E05F08EFCC5
:10562000C6F8B400D0E70123236005F035F8002860
:1056300007DD4C484C4E05F081FC06F045FEC6F8EF
:105640009C00632028602368FEF711BFFDF712FB62
:1056500023682868FEF709BF0123236005F01CF8C2
:105660000028EEDD3F48404E05F068FC06F02CFEB9
:10567000C6F89800E5E70123236005F00DF800283F
:10568000DFDD3848384E05F059FCA6F8C200D8E7EF
:10569000354E96F84800FFF714BB364A364F13686C
:1056A000002B0CBF012100214FF00103116023608A
:1056B00040F0628564222A60082B4FF064007EF47B
:1056C000D6AEFEF71DBF2D4A1368B3FA83F35B090C
:1056D00001216420136021602860FEF7EABE224E9B
:1056E000D6F8A830B3FA83F35B0901226420C6F828
:1056F000A83022602860FEF7DCBE01231C4823602E
:10570000FBF706FA1E4A23681060D3E71D4ADBE761
:105710001D4AD9E70123236004F0BEFF002800F3EF
:10572000CF841A4B1A68042A01DD02221A6064230E
:105730002B602368C0E70123236004F0ADFF00283D
:10574000F5DD0848084E05F0F9FBA6F8A400EEE7E1
:105750000F4AB9E70F4AB7E701232360FEF774FD4C
:10576000E5E700BFD487FF1FDCD9FF1F00007A44A4
:10577000FC93FF1FF4DAFF1F3CDBFF1FD4D9FF1F90
:105780005C92FF1F8092FF1F4C92FF1F4087FF1FFC
:1057900030DBFF1FC0D9FF1F04F07EFF00280DDDA6
:1057A0001848194E05F0CAFB06F08EFD174906F0A1
:1057B00093FE01226223706222602B6004F06CFF72
:1057C00000280EDD0F48104E05F0B8FB06F07CFDFA
:1057D0000E4906F081FE01226223C6F8C400226051
:1057E0002B6004F059FF002840F335840548064E2D
:1057F00005F0A4FB06F068FD01226223F06322603D
:105800002B6007E0D487FF1FDCD9FF1F00007A441C
:1058100004F006FF04F040FF05460028F8D1C34815
:10582000DFF8788305F0F8F9C04805F0F5F9BF48CE
:1058300005F0F2F9BD4805F0EFF9BC4805F0ECF9C8
:105840001521BB4804F052FFB84805F0E5F91421D2
:10585000B84804F04BFFB54805F0DEF91B21B64807
:1058600004F044FFB14805F0D7F91321B34804F020
:105870003DFFAE4805F0D0F9AC4805F0CDF9AB4896
:1058800005F0CAF92021AE4804F030FFF068AD49B8
:1058900006F06EFD06F0C2F8009502460B46A348DE
:1058A00005F012FA0221A84804F020FF0221A748BF
:1058B00004F01CFF9D4805F0AFF92121A44804F035
:1058C00015FF30699F4906F053FD06F0A7F80095D3
:1058D00002460B46954805F0F7F902219A4804F074
:1058E00005FF0221994804F001FF904805F094F962
:1058F0001F21984804F0FAFEF06A06F08FF802279C
:1059000002460B460097894805F0DEF901219248CE
:1059100004F0ECFE39468D4804F0E8FE834805F0BB
:105920007BF920218D4804F0E1FE306B06F076F81B
:10593000009702460B467D4805F0C6F901218648CE
:1059400004F0D4FE3946814804F0D0FE774805F0D3
:1059500063F92321824804F0C9FE306D794906F0CD
:1059600007FD06F05BF8009502460B466F4805F010
:10597000ABF93946744804F0B9FE3946734804F06F
:10598000B5FE6A4805F048F91F21764804F0AEFEDE
:10599000706D6C4906F0ECFC06F040F8009502468C
:1059A0000B46624805F090F93946674804F09EFEC0
:1059B0003946664804F09AFE5C4805F02DF9192135
:1059C000694804F093FE316E584805F075F9394680
:1059D000664804F08BFE39465C4804F087FE534865
:1059E00005F01AF91821624804F080FEF06E06F006
:1059F0006BFC604906F0BCFC06F010F8009702460C
:105A00000B464A4805F060F901215B4804F06EFE40
:105A100039464E4804F06AFE444805F0FDF82B2153
:105A2000564804F063FEF069464906F0A1FC05F013
:105A3000F5FF009502460B463C4805F045F939460E
:105A4000414804F053FE3946404804F04FFE3748C1
:105A500005F0E2F81F214A4804F048FEF16D334892
:105A600005F02AF93946394804F040FE2F4805F080
:105A7000D3F82021434804F039FEB16D2B4805F0DE
:105A80001BF93946314804F031FE284805F0C4F8C6
:105A900010213D4804F02AFE316F244805F00CF92E
:105AA0003946294804F022FE3946284804F01EFEF3
:105AB0001E4805F0B1F81321344804F017FE716F49
:105AC0001A4805F0F9F80121314804F00FFE394673
:105AD0001E4804F00BFE154805F09EF810212D48D5
